:100000000C941D020C9431140C9462140C949314EF
:100010000C94C4140C94F5140C9426150C945715D8
:100020000C9488150C944E020C944E020C944E02C3
:100030000C944E020C944E020C944E020C944E0200
:100040000C944E020C949F110C944E020C944E0290
:100050000C944E020C944E020C944E020C94B91562
:100060000C944E020C94671A0C949D1A0C944E0238
:100070000C944E020C944E020C944E020C944E02C0
:100080000C94CD110C944E020C944E020C944E0222
:100090000C944E020C944E020C944E020C944E02A0
:1000A0000C944E020C944E020C94FB110C944E02D4
:1000B0000C944E020C944E020C944E020C94291295
:1000C0000C944E020C944E020C944E020C944E0270
:1000D0000C944E020C944E020C944E020C944E0260
:1000E0000C944E020B14D513DD13E913F6131714F9
:1000F0002414E216E716EC16F616001779170A17FD
:1001000012171A1724172E17381747175117791770
:100110005B1765176F179B179E178D17911797170A
:10012000D517A217A617AC17B017B417BA17BE1772
:10013000C217D517C817CC17D0170C9424170C94D6
:10014000C71A0C940C190C948D170C94BE170C94B0
:10015000D5170C94CB030C94E9130C9458020C940F
:10016000F6160C9454020C94FE180C9450020C9445
:10017000E7160C941A170C9420190C9424140C9460
:10018000B0170C9479170C9451170C94D11A0C9445
:100190006F170C9497170C949E170C94F6130C94ED
:1001A000A0190C94CC170C9417140C9465170C948C
:1001B0005C020C9438170C94D0170C94A6170C946E
:1001C000DD130C942E170C94C2170C94C8170C94C2
:1001D0009B170C9400170C9412170C94B9030C94F1
:1001E000241B0C94F3180C9447170C94AC170C9424
:1001F000BA170C940B140C94B4170C94EC160C94C2
:10020000A2170C9491170C947E190C945B170C9404
:10021000D5130C940A170C94E21600000A0B02097D
:100220000C0D0E0807030401000000000000000090
:1002300000000000000000000000000000000000BE
:10024000000000000000121110000000000000007B
:10025000000000000000000000000000000000009E
:1002600001021020200808102040102040800201C8
:1002700002010804020101020408102040808040AD
:1002800020100804020180040201804020100804AC
:10029000020108040201010204081020408001024A
:1002A0000408102040800505050507050808080812
:1002B000020202020A0A08080404040401010101FE
:1002C00001010101030303030303030304070707F9
:1002D0000C0C0C0C0C0C0C0C02020202060606069E
:1002E000060606060B0B0B0B0B0B0B0B000020007E
:1002F0002300260029002C002F00320000010000FE
:1003000003010601090100002200250028002B003E
:100310002E003100340002010000050108010B012C
:1003200000002100240027002A002D0030003300A7
:1003300001010000040107010A0100407A10F35A8C
:1003400000A0724E18090010A5D4E80000E8764815
:10035000170000E40B54020000CA9A3B000000E1C1
:10036000F505000080969800000040420F00000054
:10037000A08601000000102700000000E803000034
:1003800000006400000000000A00000000000100FE
:10039000000000002C76D888DC674F0823DFC1DF1F
:1003A000AE59E1B1B796E5E3E453C63AE651997622
:1003B00096E8E6C28426EB898C9B62ED407C6FFC5C
:1003C000EFBC9C9F40F2BAA56FA5F490055A2AF79E
:1003D0005C936B6CF9676DC11BFCE0E40D47FEF5A7
:1003E00020E6B500D0ED902E03009435770500800F
:1003F000841E080000204E0A000000C80C3333336E
:10040000330F986E12831141EF8D2114893BE6550D
:1004100016CFFEE6DB18D1844B381BF77C1D901DF0
:10042000A4BBE424203284725E228100C9F124EC52
:10043000A1E53D27B903D11ACB0311241FBECFEF8D
:10044000D1E2DEBFCDBF00E00CBF12E0A0E0B2E021
:10045000ECE5FBE400E00BBF02C007900D92A4376F
:10046000B107D9F724E0A4E7B2E001C01D92A93496
:10047000B207E1F714E0C8E3D4E000E006C0229739
:100480000109FE010BBF0E946220C433D10780E046
:100490000807A9F70E94151B0C949C250C940000DA
:1004A00084E792E00C94AC0384E792E00C94AF03F1
:1004B00084E792E00C94B20384E792E00C94B503D5
:1004C00084E792E00E94840242E050E060E572E03E
:1004D00082E00E94C01342E050E064E572E083E0F5
:1004E0000E94C01342E050E068E572E085E00E949F
:1004F000C01342E050E06CE572E084E00C94C0135D
:1005000084E792E00C949B0CAF92BF92CF92DF9263
:10051000EF92FF920F931F93CF93DF93CDB7DEB788
:100520002E970FB6F894DEBF0FBECDBF5C01CE0193
:1005300001960E94F80C8EE0FE013196D5010190E3
:100540000D928A95E1F7F501E05BFF4F1182108271
:1005500044E050E06AE370E083EF92E00E94B7105D
:10056000F501EA58FF4F11821082329611821082F3
:10057000329681E080833196118210823296118208
:10058000108285E1C82ED12C98E1E92EF12C00E0F3
:1005900010E021E030E040E058E062E070E0C501AA
:1005A00040960E94470D24E1C22ED12C39E1E32E62
:1005B000F12C01E010E021E030E040E058E063E0A1
:1005C00070E0C50180960E94470D43E1C42ED12CF6
:1005D0005BE1E52EF12C00E010E020E030E040E2AD
:1005E00050E064E070E0C501C0960E94470D62E1F2
:1005F000C62ED12C7AE1E72EF12C01E010E020E0AC
:1006000030E040E250E065E070E0C501805C9F4F63
:100610000E94470D00E010E02FE130E04EE150E095
:1006200067E070E0C5018E5A9F4F0E942C0D01E0DB
:1006300010E021E230E040E250E068E070E0C50107
:10064000835A9F4F0E942C0D61E087E00E94D617CD
:1006500061E08EE10E94D61761E088E00E94D61723
:1006600061E080E20E94D61760E087E00E940F18E8
:1006700060E088E00E940F1869E070E0C5018559CC
:100680009F4F0E9422136AE070E0C50188599F4F76
:100690000E94221361E08DE00E94D617F501EB580D
:1006A000FF4F10826AE472E0C50182599F4F0E9499
:1006B000811CF501EC58FF4F108226E040E052EC1F
:1006C00061E070E087EA93E00E94051A2E960FB66B
:1006D000F894DEBF0FBECDBFDF91CF911F910F9178
:1006E000FF90EF90DF90CF90BF90AF9008950F9361
:1006F0001F93CF93DF938B0164EF71E080E090E074
:100700000E943216C0E0D0E0C017D10704F560E0C7
:100710008DE00E940F186AEF70E080E090E00E9488
:10072000321661E08DE00E940F186AEF70E080E001
:1007300090E00E94321660E08DE00E940F186AEF90
:1007400070E080E090E00E9432162196DDCFDF91CC
:10075000CF911F910F91089540960C94700D809643
:100760000C94700DC0960C94700D805C9F4F0C948F
:10077000700D84E792E00E94F80C8CED92E00E94EC
:1007800057128FED92E00E9457126AE472E082EEF7
:1007900092E00C94541C82EE92E00C94E61B2F9293
:1007A0003F924F925F926F927F928F929F92AF9201
:1007B000BF92CF92DF92EF92FF920F931F93CF934E
:1007C000DF93CDB7DEB7CC5BD1090FB6F894DEBFAF
:1007D0000FBECDBF3C016AE472E0CE0181589F4F4D
:1007E0000E94541C9E012B563F4FC756DF4F398342
:1007F0002883C959D040CB56DF4F188219821A82FC
:100800001B82C559D040AE014F565F4FC556DF4FD2
:1008100059834883CB59D040CF56DF4F1882198275
:100820001A821B82C159D040CE0183579F4FC356B5
:10083000DF4F99838883CD59D040C357DF4F18824B
:1008400019821A821B82CD58D040FE01E757FF4F14
:10085000C156DF4FF983E883CF59D040C757DF4FE8
:10086000188219821A821B82C958D04080E090E019
:10087000A6E9B3E4CB57DF4F88839983AA83BB8370
:10088000C558D0404301FEE68F0E911C62E070E037
:10089000C4010E94621DFC0180818C3409F4F5C002
:1008A000823509F4FEC1823409F4EDC51F921F920E
:1008B000FCE32F2E2F92A3E23A2E3F92B7ED4B2E60
:1008C0004F921AE0512E5F92A12CB12CC12C0FE354
:1008D000D02EE12CF12C00E81EE39E012B573F4F58
:1008E000AE0143575F4FBE016B567F4FCE01CA9694
:1008F0000E944A101F921F922F923F924F925F9236
:100900009E012B573F4FAE0147575F4FBE016F56B9
:100910007F4FCE0101960E944A1061E070E0CE0147
:10092000CA960E94F80F61E070E0CE0101960E9425
:10093000F80F9301235A3F4FCB55DF4F398328835C
:10094000C55AD04061E070E0C9010E94410DA30189
:100950004E5A5F4FC955DF4F59834883C75AD0401D
:1009600060E070E0CA010E94410D60E070E0CB558C
:10097000DF4F88819981C55AD0400E943D0D60E0CB
:1009800070E0C955DF4F88819981C75AD0400E94D5
:100990003D0D8E010D581F4F26E030E043E050E042
:1009A000B401C8010E94741DB801CE0181589F4F47
:1009B0000E946A1CC8010E94E61BCE0181589F4F0D
:1009C0000E94B91D569EF001579EF00D1124C75587
:1009D000DF4FF983E883C95AD040F301E558FF4F50
:1009E00080819181C755DF4F28813981C95AD04014
:1009F000280F391FC755DF4F39832883C95AD04084
:100A00000FB6F894DEBF0FBECDBFCD55DF4F1982B4
:100A10001882C35AD040CF55DF4F19821882C15A6D
:100A2000D040812C912C212C312C412C512CC155A2
:100A3000DF4FF983E883CF5AD040C3014096CB54AF
:100A4000DF4F99838883C55BD040EB55F109C954CA
:100A5000DF4FF983E883C75BD0409301205D3F4FB0
:100A6000C754DF4F39832883C95BD040A301405C62
:100A70005F4FCF54DF4F59834883C15BD040B02EC6
:100A8000A12E8E0103571F4FD7C47301FDE5EF0E52
:100A9000F11C61E070E0C7010E94410D83010E5A14
:100AA0001F4F61E070E0C8010E94410D25E030E079
:100AB00043E050E0B401CE0101960E94741DBE01D6
:100AC0006F5F7F4FCE0181589F4F0E946A1CCE01FD
:100AD00001960E94E61BCE0181589F4F0E94B91DCE
:100AE000930123583F4FCF55DF4F39832883C15A95
:100AF000D04048EE53E0649F9001659F300D749F95
:100B0000300D1124B901882777FD8095982F0E9418
:100B1000C91E25E33AEF4EE85CE30E947D1F0E9468
:100B2000961ECF55DF4FE881F981C15AD040C08071
:100B3000D180C61AD70A212C312C412C512C5301BB
:100B4000F0E3AF0EB11C430120E4820E911CCF559F
:100B5000DF4FE881F981C15AD04080819181C81668
:100B6000D9060CF0AAC164E670E080E090E00E9433
:100B70003216C5010E949A0D1C01C4010E949A0DF3
:100B800044245524481A590A4AE0B101CE01CA96B4
:100B90000E94991C6AE072E0CE0101960E94541CEA
:100BA000BE01665C7F4FCE0101960E94351DBC01DF
:100BB00087EA93E00E948D1BCE0101960E94E61BFE
:100BC000CE01CA960E94E61B4AE0B201CE01CA9647
:100BD0000E94991C6FE072E0CE0101960E94541CA5
:100BE000BE01665C7F4FCE0101960E94351DBC019F
:100BF00087EA93E00E948D1BCE0101960E94E61BBE
:100C0000CE01CA960E94E61BC5010E949A0D3C01C6
:100C1000C4010E949A0D860D971D97FD01963C0117
:100C20007594679448EE53E0649EC001659E900DF4
:100C3000749E900D11246CED70E00E94FC1FCF5546
:100C4000DF4FE881F981C15AD040718360834AE067
:100C5000CE01CA960E94991C64E172E0CE01019611
:100C60000E94541CBE01665C7F4FCE0101960E941B
:100C7000351DBC0187EA93E00E948D1BCE010196D1
:100C80000E94E61BCE01CA960E94E61B64E670E055
:100C9000C7010E943D0D64E670E0C8010E943D0D51
:100CA00056CF7301FDE5EF0EF11C60E070E0C70167
:100CB0000E94410D83010E5A1F4F60E070E0C80191
:100CC0000E94410D25E030E043E050E0B401CE0148
:100CD00001960E94741DBE016F5F7F4FCE01815847
:100CE0009F4F0E946A1CCE0101960E94E61BCE0116
:100CF00081589F4F0E94B91D930123583F4FCF55F4
:100D0000DF4F39832883C15AD04048EE53E0649FB7
:100D10009001659F300D749F300D1124B901882713
:100D200077FD8095982F0E94C91E25E33AEF4EE883
:100D30005CE30E947D1F0E94961ECF55DF4FE88125
:100D4000F981C15AD040C080D180C60ED71E212C57
:100D5000312C412C512C5301F0E3AF0EB11C430157
:100D600020E4820E911CCF55DF4FE881F981C15AF2
:100D7000D040808191818C159D050CF09EC064E669
:100D800070E080E090E00E943216C5010E949A0D4A
:100D900022243324281A390AC4010E949A0D2C01F6
:100DA0004AE0B101CE01CA960E94991C6AE072E045
:100DB000CE0101960E94541CBE01665C7F4FCE019D
:100DC00001960E94351DBC0187EA93E00E948D1BAD
:100DD000CE0101960E94E61BCE01CA960E94E61B38
:100DE0004AE0B201CE01CA960E94991C6FE072E0FF
:100DF000CE0101960E94541CBE01665C7F4FCE015D
:100E000001960E94351DBC0187EA93E00E948D1B6C
:100E1000CE0101960E94E61BCE01CA960E94E61BF7
:100E2000C5010E949A0D3C01C4010E949A0D860DD5
:100E3000971D97FD01963C017594679448EE53E029
:100E4000649EC001659E900D749E900D11246CED02
:100E500070E00E94FC1FCF55DF4FE881F981C15A35
:100E6000D040718360834AE0CE01CA960E94991CEB
:100E700064E172E0CE0101960E94541CBE01665CE2
:100E80007F4FCE0101960E94351DBC0187EA93E099
:100E90000E948D1BCE0101960E94E61BCE01CA96D0
:100EA0000E94E61B64E670E0C7010E943D0D64E607
:100EB00070E0C8010E943D0D56CF60E070E0C701B0
:100EC0000E943D0D60E070E0C8010E943D0DCF55CD
:100ED000DF4F19821882C15AD040812C912CDFC279
:100EE00062E370E080E090E00E943216CB54DF4F66
:100EF00088819981C55BD0400E949A0DCF55DF4F04
:100F000099838883C15AD040C954DF4F8881998121
:100F1000C75BD0400E949A0D4C01C754DF4F8881B7
:100F20009981C95BD0400E949A0D1C01CF54DF4FBC
:100F300088819981C15BD0400E949A0D2C01CF55C8
:100F4000DF4F88819981C15AD040880D991D97FD46
:100F5000019695958795C155DF4FE881F981CF5A64
:100F6000D04091838083CF54DF4F88819981C15BCA
:100F7000D0400E94DB0DCD55DF4F28813981C35A07
:100F8000D0402330310509F08DC04AE0B101CE01D7
:100F900087589F4F0E94991C68E172E08B2D9A2D13
:100FA0000E94541CBE0167587F4F8B2D9A2D0E94C2
:100FB000351DBC0187EA93E00E948D1B8B2D9A2D75
:100FC0000E94E61BCE0187589F4F0E94E61B4AE015
:100FD000B201CE0187589F4F0E94991C6DE172E0CB
:100FE0008B2D9A2D0E94541CBE0167587F4F8B2D6C
:100FF0009A2D0E94351DBC0187EA93E00E948D1B4B
:101000008B2D9A2D0E94E61BCE0187589F4F0E9480
:10101000E61B4AE0CF55DF4F68817981C15AD04045
:10102000CE0187589F4F0E94991C62E272E08B2D7F
:101030009A2D0E94541CBE0167587F4F8B2D9A2D0C
:101040000E94351DBC0187EA93E00E948D1B8B2D09
:101050009A2D0E94E61BCE0187589F4F0E94E61BE7
:101060004AE0B401CE0187589F4F0E94991C67E265
:1010700072E08B2D9A2D0E94541CBE0167587F4F41
:101080008B2D9A2D0E94351DBC0187EA93E00E94AA
:101090008D1B8B2D9A2D0E94E61BCE0187589F4FEA
:1010A0000E94E61BC3010E94100D9101281B390B01
:1010B000C756DF4F39832883C959D040C3010E94E6
:1010C000140DA201481B590BCD54DF4F598348839F
:1010D000C35BD040B201C3010E941C0DB101C3012A
:1010E0000E94180D0E9403166B017C01C3010E942F
:1010F000260DA7019601261B370B480B590BC5552A
:10110000DF4F288339834A835B83CB5AD040B701B2
:10111000A601C3010E94200DC756DF4F28813981E7
:10112000C959D04048EE53E0249FB001259F700D6F
:10113000349F700D1124882777FD8095982FC55511
:10114000DF4F288139814A815B81CB5AD0400E9490
:101150001020CA01B9010E94C71E6B017C01CB5649
:10116000DF4F688379838A839B83C559D040CD54F0
:10117000DF4F88819981C35BD040E8EEF3E08E9F1A
:10118000B0018F9F700D9E9F700D1124882777FDF1
:101190008095982FC555DF4F288139814A815B8121
:1011A000CB5AD0400E941020CA01B9010E94C71E2C
:1011B000CF56DF4F688379838A839B83C159D040A0
:1011C000CD55DF4F28813981C35AD04023303105B6
:1011D00009F0A1C022E0B701A601CE0187589F4FB8
:1011E0000E94C51C6CE272E08B2D9A2D0E94541C4B
:1011F000BE0167587F4F8B2D9A2D0E94351DBC0173
:1012000087EA93E00E948D1B8B2D9A2D0E94E61B8E
:10121000CE0187589F4F0E94E61BCF56DF4F488173
:1012200059816A817B81C159D04022E0CE01875823
:101230009F4F0E94C51C62E372E08B2D9A2D0E9485
:10124000541CBE0167587F4F8B2D9A2D0E94351D6F
:10125000BC0187EA93E00E948D1B8B2D9A2D0E9482
:10126000E61BCE0187589F4F0E94E61BF801408184
:1012700051816281738122E0CE0187589F4F0E9485
:10128000C51C68E372E08B2D9A2D0E94541CBE0190
:1012900067587F4F8B2D9A2D0E94351DBC0187EA20
:1012A00093E00E948D1B8B2D9A2D0E94E61BCE0190
:1012B00087589F4F0E94E61BC757DF4F48815981CF
:1012C0006A817B81C958D04022E0CE0187589F4F68
:1012D0000E94C51C6FE372E08B2D9A2D0E94541C56
:1012E000BE0167587F4F8B2D9A2D0E94351DBC0182
:1012F00087EA93E00E948D1B8B2D9A2D0E94E61B9E
:10130000CE0187589F4F0E94E61BCD55DF4F1982B3
:101310001882C35AD040CE01CA960E94DF0DCE017A
:1013200001960E94DF0D20E030E04AE753E4F80127
:1013300060817181828193810E94791F18164CF41B
:1013400080E090E0AAE7B3E4F80180839183A28370
:10135000B38320E030E04AE753E4C757DF4F6881AA
:1013600079818A819B81C958D0400E94791F1816C3
:1013700064F480E090E0AAE7B3E4C757DF4F8883C6
:101380009983AA83BB83C958D04020E030E0A901EB
:10139000F80160817181828193810E942A1E87FFFA
:1013A00005C0F801108211821282138220E030E021
:1013B000A901C757DF4F688179818A819B81C9580C
:1013C000D0400E942A1E87FF08C0C757DF4F1882EF
:1013D00019821A821B82C958D040F801608171813C
:1013E000828193810E94961EC955DF4F8881998121
:1013F000C75AD0400E943D0DC757DF4F68817981A1
:101400008A819B81C958D0400E94961ECB55DF4FE0
:1014100088819981C55AD0400E943D0DCD55DF4F3E
:1014200028813981C35AD0402F5F3F4FCD55DF4FC0
:1014300039832883C35AD040C155DF4FE881F981F1
:10144000CF5AD04080819181C755DF4F28813981A3
:10145000C95AD040821793070CF442CD60E070E087
:10146000CB55DF4F88819981C55AD0400E943D0DF0
:1014700060E070E0C955DF4F88819981C75AD0403C
:101480000E943D0D0CC0CF55DF4F19821882C15A02
:10149000D040812C912C212C312C412C512C68ECEA
:1014A00070E080E090E00E9432164AE0B101CE0187
:1014B000CA960E94991C68E172E0CE0101960E94D2
:1014C000541CBE01665C7F4FCE0101960E94351D03
:1014D000BC0187EA93E00E948D1BCE0101960E9419
:1014E000E61BCE01CA960E94E61B4AE0B201CE017D
:1014F000CA960E94991C6DE172E0CE0101960E948D
:10150000541CBE01665C7F4FCE0101960E94351DC2
:10151000BC0187EA93E00E948D1BCE0101960E94D8
:10152000E61BCE01CA960E94E61B4AE0CF55DF4F6C
:1015300068817981C15AD040CE01CA960E94991C17
:1015400062E272E0CE0101960E94541CBE01665C0C
:101550007F4FCE0101960E94351DBC0187EA93E0C2
:101560000E948D1BCE0101960E94E61BCE01CA96F9
:101570000E94E61B4AE0B401CE01CA960E94991C63
:1015800067E272E0CE0101960E94541CBE01665CC7
:101590007F4FCE0101960E94351DBC0187EA93E082
:1015A0000E948D1BCE0101960E94E61BCE01CA96B9
:1015B0000E94E61B66E472E087EA93E00E94701BDB
:1015C00087EA93E00E947E19CE0181589F4F0E94C6
:1015D000E61BC454DF4F0FB6F894DEBF0FBECDBF7D
:1015E000DF91CF911F910F91FF90EF90DF90CF90FF
:1015F000BF90AF909F908F907F906F905F904F9033
:101600003F902F9008958F929F92AF92BF92CF926A
:10161000DF92EF92FF920F931F93CF93DF93CDB79B
:10162000DEB72C970FB6F894DEBF0FBECDBF8C018E
:101630006AE472E0CE0107960E94541C83EF92E0A8
:101640000E94C7106C0158012AE7A20EB11CF501D7
:101650008081980128583F4F79018823D1F083EF8A
:1016600092E00E94C7104C0183EF92E00E94C710E5
:101670009601280D391D280F391FC90163E070E05C
:101680000E94FC1F64517109F70171836083F501A9
:101690001082F701208131812C193D09F801EA58A7
:1016A000FF4F37FD03C03183208302C011821082B7
:1016B000608171814AE0CE0101960E94991CBE01B1
:1016C0006F5F7F4FCE0107960E946A1CCE01019684
:1016D0000E94E61B8B859C858330910519F46BE491
:1016E00072E007C0029719F46FE472E002C064E58B
:1016F00072E0CE0101960E94541CBE01695F7F4FCB
:10170000CE0101960E94351D69E472E00E94481DD9
:10171000BC0187EA93E00E94621BCE0101960E9401
:10172000E61B87EA93E00E947E19CE0107960E948D
:10173000E61B2C960FB6F894DEBF0FBECDBFDF912F
:10174000CF911F910F91FF90EF90DF90CF90BF90BE
:10175000AF909F908F90089563E070E00E947703B0
:101760006AE572E087EA93E00E94701B87EA93E0E3
:101770000C947E194F925F926F927F928F929F92FC
:10178000AF92BF92CF92DF92EF92FF920F931F938F
:10179000CF93DF93CDB7DEB72C970FB6F894DEBFAB
:1017A0000FBECDBF8C015C018EE6A80EB11C24E0FB
:1017B00030E043E050E0B501CE0107960E94741D71
:1017C000CE0107960E94B91D0E94C91E6B017C01C3
:1017D00026E030E045E050E0B501CE0101960E94E0
:1017E000741DBE016F5F7F4FCE0107960E946A1C79
:1017F000CE0101960E94E61BCE0107960E94B91DFC
:101800000E94C91E2B013C0162E070E0C5010E94EC
:10181000621DFC0180818B3251F420E030E044EB0A
:1018200052E4C701B6010E94C61D6B017C0120E095
:1018300030E040E151E4C301B2010E947D1F4B0141
:101840005C0122E73CE147E05FE3C701B6010E948B
:101850007D1F20E030E84DE654E40E94C61D0E9442
:10186000961EC80188599F4F0E945B136FE070E07D
:1018700080E090E00E94321620E030E842E254E43A
:10188000C501B4010E94C61D0E94961EC80185595B
:101890009F4F0E945B136FE070E080E090E00E9439
:1018A00032166FE572E087EA93E00E94701B87EAC8
:1018B00093E00E947E19CE0107960E94E61B2C96AB
:1018C0000FB6F894DEBF0FBECDBFDF91CF911F9151
:1018D0000F91FF90EF90DF90CF90BF90AF909F90CF
:1018E0008F907F906F905F904F900895CF93DF938C
:1018F000EC0161E070E082599F4F0E94621DFC0183
:101900008081893471F0823539F0843479F4CE01E4
:10191000DF91CF910C94CF03CE01DF91CF910C9446
:10192000030BCE01DF91CF910C94BA0BCE01DF9166
:10193000CF910C94AC0BBF92CF92DF92EF92FF92BB
:101940000F931F93CF93DF93EC018C010B581F4F24
:101950007C018EE6E80EF11C6E01E4E7CE0ED11C90
:10196000BB24B39487EA93E00E94F3181816190673
:101970008CF487EA93E00E940C19F8018083682FA9
:10198000C7010E94211DF80180818A3059F7F601B4
:10199000B082E8CF64E670E080E090E00E9432160A
:1019A0008E010C581F4FF80180818823B9F07E0109
:1019B000FEE6EF0EF11C60E070E0C7010E94621DC0
:1019C000FC018081843251F4CE010E94760C6AE4DD
:1019D00072E0C7010E94811CF8011082DF91CF9153
:1019E0001F910F91FF90EF90DF90CF90BF900895DF
:1019F000CF93DF93EC0181E090E0998388831B8291
:101A00001A821D821C821F821E82198618860E94DD
:101A100003166A877B878C879D87DF91CF91089516
:101A2000FC01828193810895FC0184819581089550
:101A3000FC01738362830895FC01758364830895B8
:101A4000FC0142875387648775870895FC0162858E
:101A500073858485958508950F931F93FC01718389
:101A600060835383428335832483178216821286D0
:101A7000118700871F910F910895FC0180810C94BC
:101A8000BC16FC016087718782810C940F18CF927D
:101A9000DF92EF92FF920F931F93FC01718360839B
:101AA000538342833187208713870287E686F78630
:101AB000C486D586148215821682178260E08C2D2A
:101AC0000E94D61761E08C2D0E940F1860E08E2DC9
:101AD0001F910F91FF90EF90DF90CF900C94D6174D
:101AE000CF93DF93EC018A859B85892B51F48E85FA
:101AF0000E9445184C815D816E817F81019751F470
:101B00000EC08E850E9445184C815D816E817F815B
:101B1000019729F44F5F5F4F6F4F7F4F04C04150D3
:101B20005109610971094C835D836E837F83DF9165
:101B3000CF910895CF92DF92EF92FF92CF93DF93F0
:101B4000EC016C817D818E819F81660F771F881FDC
:101B5000991F0E94C91E2BED3FE049E450E40E940A
:101B60007D1F6B017C016A817B81882777FD8095D1
:101B7000982F0E94C91E9B01AC01C701B6010E94AB
:101B80002E1E28853985232B31F420E030E04CE8E7
:101B900052E40E942E1E20E030E04FEB52E40E94FF
:101BA0007D1F0E94961ECB01DF91CF91FF90EF9099
:101BB000DF90CF900895FC018481958108952F9244
:101BC0003F924F925F926F927F928F929F92AF92CD
:101BD000BF92CF92DF92EF92FF920F931F93CF931A
:101BE000DF93CDB7DEB72B970FB6F894DEBF0FBEED
:101BF000CDBF9B878A87DC01D896BC91B983B11190
:101C000002C01982E2C00E9403166A837B838C8320
:101C10009D83EA85FB8580A191A1A2A1B3A14A8100
:101C20005B816C817D81481B590B6A0B7B0B84A502
:101C300095A5A6A5B7A5481759076A077B0708F316
:101C4000028CF38DE02D80809180A280B380AA85E4
:101C5000BB855E96ED91FC915F97A5019401608133
:101C60007181828193810E94C51D2B013C01EA850F
:101C7000FB8520893189428953890E947D1FAA856D
:101C8000BB8594962D913D914D915C9197970E94C3
:101C9000C61D6B017C01EA85FB8564A375A386A341
:101CA00097A324A835A806A917A99101A8010E9405
:101CB000791F18161CF4C101D80118C0AA85BB856C
:101CC000D0968D919D910D90BC91A02D8E839F8378
:101CD000A887B9879C01AD01C701B6010E942A1EE1
:101CE00087FF0AC08E819F81A885B985EA85FB851B
:101CF00084A395A3A6A3B7A3AA85BB851C962D9103
:101D00003D914D915C911F97C301B2010E947D1FCF
:101D1000EA85FB8524A135A146A157A10E94C61DD5
:101D20006B017C01AA85BB8598962D913D914D91C3
:101D30005C919B97C501B4010E94C51DEA85FB8596
:101D400024893589468957890E947D1F9B01AC01F2
:101D5000C701B6010E94C51D6B017C019101A8015C
:101D60000E94791F1816BCF0AA85BB85D0962C90CE
:101D7000D097D1963C90D197D2960C91D297D3968A
:101D80001C919101A801B601C7010E942A1E87FD7E
:101D900002C016018701AA85BB855C96ED91FC9176
:101DA0005D97C101D80180839183A283B383EA85C3
:101DB000FB8580A691A6A2A6B3A68A819B81AC8151
:101DC000BD8180A391A3A2A3B3A389812B960FB653
:101DD000F894DEBF0FBECDBFDF91CF911F910F9161
:101DE000FF90EF90DF90CF90BF90AF909F908F903B
:101DF0007F906F905F904F903F902F9008952F921B
:101E00003F924F925F926F927F928F929F92AF928A
:101E1000BF92CF92DF92EF92FF920F931F93CF93D7
:101E2000DF9300D01F92CDB7DEB71C012A013B0122
:101E30004801590120E030E0A901C301B2010E942C
:101E40002A1E87FD78C020E030E0A901C501B40159
:101E50000E942A1E87FD6FC020E030E0A901C70163
:101E6000B6010E942A1E87FD66C0F10140825182A0
:101E70006282738284829582A682B782C086D1866E
:101E8000E286F38664A575A586A597A50E94C71E60
:101E900020E030E04AE754E40E942E1E69837A83F2
:101EA0008B839C83F10144865586668677869B01E9
:101EB000AC01C501B4010E947D1F4B015C01F10121
:101EC000608B718B828B938B29813A814B815C81F2
:101ED000C701B6010E942E1E6B017C01F101648BCB
:101EE000758B868B978B808D918D019721F5A30142
:101EF000920160E070E0CB010E94C51DF101648792
:101F0000758786879787A501940160E070E0CB0113
:101F10000E94C51DF101608B718B828B938BA70191
:101F2000960160E070E0CB010E94C51DF101648B59
:101F3000758B868B978B0F900F900F900F90DF9182
:101F4000CF911F910F91FF90EF90DF90CF90BF90B6
:101F5000AF909F908F907F906F905F904F903F9049
:101F60002F9008958F929F92AF92BF92CF92DF925F
:101F7000EF92FF92CF93DF93EC01EC8DFD8DC0804B
:101F8000D180E280F380CCA2DDA2EEA2FFA2EA8D96
:101F9000FB8D80819181A281B38188A799A7AAA78F
:101FA000BBA78CA89DA8AEA8BFA8A5019401C70196
:101FB000B6010E94791F181664F088A899A8AAA8EB
:101FC000BBA8A5019401C701B6010E942A1E87FF84
:101FD00004C08CA29DA2AEA2BFA2DF91CF91FF90C0
:101FE000EF90DF90CF90BF90AF909F908F9008952B
:101FF0001F93CF93DF93EC0111E06130710509F07D
:1020000010E088AD91E08927181303C0CE010E942B
:10201000B20F18AFDF91CF911F9108950F931F93C7
:10202000CF93DF93EC018B0188AD882361F1888D1C
:10203000998D6817790739F12C853D854E855F8527
:1020400060E070E0CB010E94C51D6C877D878E87A4
:102050009F87288939894A895B8960E070E0CB01D4
:102060000E94C51D688B798B8A8B9B8B2C893D893F
:102070004E895F8960E070E0CB010E94C51D6C8BCA
:102080007D8B8E8B9F8B198F088FDF91CF911F9146
:102090000F9108954F925F926F927F928F929F92CD
:1020A000AF92BF92CF92DF92EF92FF920F931F9366
:1020B000CF93DF9300D01F92CDB7DEB74C0127013D
:1020C0003801A982BA82CB82DC82FC01558F448F11
:1020D000738F628F378F268F10AE10AA11AA12AAA3
:1020E00013AA80E090E0AFE7B3E484AB95ABA6AB76
:1020F000B7AB84E690E0A0E0B0E084A795A7A6A7E0
:10210000B7A76C8D7D8DC4010E940E10C88CD98C30
:10211000EA8CFB8C09811A812B813C81B301A201DD
:10212000C4010E94FF0E0E940316F40144A455A4AA
:1021300066A477A4641975098609970960A371A339
:1021400082A393A30F900F900F900F90DF91CF91E8
:102150001F910F91FF90EF90DF90CF90BF90AF90C5
:102160009F908F907F906F905F904F900895CF9346
:10217000DF93EC01842F7B836A834C835D8360E073
:102180000E94D61719821882DF91CF910895CF93BC
:10219000DF93EC0120E432E44FE050E061E08C8119
:1021A0000E946E182A813B81CB01B9010E94FC1F5D
:1021B000CB0179836883DF91CF910895CF92DF922D
:1021C000EF92FF920F931F93CF93DF936C018B01DC
:1021D0007A01EC01C650DD4F888187FF04C0FB0106
:1021E0001182108223C02CE02C9DC0012D9D900DEA
:1021F00011242881AC01420F511D27FD5A952091D1
:10220000F90230E0421753078CF42881AC01420FE9
:10221000511D27FD5A959A01FA01EE0FFF1FE20F9B
:10222000F31FE250FD4F208126FD19C088818F5F8A
:1022300088838CE08C9D90018D9D300D11248881C8
:10224000A901480F511D87FD5A958091F90290E030
:1022500048175907B4F488818C303CF112C02881AA
:10226000820F911D27FD9A95FC01EE0FFF1FE80FCD
:10227000F91FE250FD4F808160E08F730E940F18BC
:10228000D5CFF80180819181049680349C4918F45F
:1022900080E49CE904C0F801808191810496F701F3
:1022A000918380838FEF888341C0F8018081918181
:1022B0004881B901640F711D47FD7A95AB01FB019F
:1022C000EE0FFF1FE40FF51FE250FD4F41815281D9
:1022D000840F951FF701918380838881A901480F9E
:1022E000511D87FD5A95FA01EE0FFF1FE40FF51FF0
:1022F000E250FD4F808186FF19C08881280F311D73
:1023000087FD3A95F901EE0FFF1FE20FF31FE25030
:10231000FD4F808161E08F73DF91CF911F910F910D
:10232000FF90EF90DF90CF900C940F18DF91CF913A
:102330001F910F91FF90EF90DF90CF9008951F9223
:102340000F920FB60F9211240BB60F922F933F935B
:102350004F935F936F937F938F939F93AF93BF93AD
:10236000EF93FF9348E850E064E870E081E090E08C
:102370000E94DE10FF91EF91BF91AF919F918F91DD
:102380007F916F915F914F913F912F910F900BBE75
:102390000F900FBE0F901F9018951F920F920FB6BF
:1023A0000F9211240BB60F922F933F934F935F938D
:1023B0006F937F938F939F93AF93BF93EF93FF930D
:1023C00048E950E064E970E082E090E00E94DE10AD
:1023D000FF91EF91BF91AF919F918F917F916F91FD
:1023E0005F914F913F912F910F900BBE0F900FBEB9
:1023F0000F901F9018951F920F920FB60F921124F5
:102400000BB60F922F933F934F935F936F937F93EE
:102410008F939F93AF93BF93EF93FF9348EA50E05E
:1024200064EA70E083E090E00E94DE10FF91EF919B
:10243000BF91AF919F918F917F916F915F914F91DC
:102440003F912F910F900BBE0F900FBE0F901F90DA
:1024500018951F920F920FB60F9211240BB60F9280
:102460002F933F934F935F936F937F938F939F939C
:10247000AF93BF93EF93FF9348E251E064E271E0C2
:1024800080E090E00E94DE10FF91EF91BF91AF914C
:102490009F918F917F916F915F914F913F912F917C
:1024A0000F900BBE0F900FBE0F901F9018952091AC
:1024B000F9022033A0F431E0320F3093F902FC012D
:1024C0002083822F90E0FC01EE0FFF1FE80FF91F21
:1024D000E250FD4F88EB9BE09283818308952FEFBC
:1024E000FC0120830895DF92EF92FF920F931F93D8
:1024F000CF93DF93EC01D62E7A0189018881803356
:1025000008F068C061E08D2D0E94D6178881A82F41
:10251000B0E0FD01EE0FFF1FEA0FFB1FE250FD4F81
:102520002D2D2F739081907C922B908360E272E02E
:102530006E197F0977FF02C06D5F7F4F75956795B4
:1025400075956795698340E659E0401B510B57FF2D
:1025500002C04D5F5F4F55954795559547954A8306
:102560006CE00E94F01F9CE0899FB001112420E0E4
:1025700030E0A901460F571FFA01EE0FFF1FE40FCD
:10258000F51FE250FD4F908196FD18C02F5F3F4F21
:102590002C30310571F790E08130910521F51092D2
:1025A000800082E080938100109285001092840068
:1025B000B19A80916F00826080936F00888190E073
:1025C000FC01EE0FFF1FE80FF91FE250FD4F808165
:1025D000806480838881DF91CF911F910F91FF905C
:1025E000EF90DF9008958230910569F41092900089
:1025F00082E080939100109295001092940088BB25
:1026000080937100DBCF8330910569F41092A000B4
:1026100082E08093A1001092A5001092A40089BBD3
:1026200080937200CBCF892B49F61092200182E073
:102630008093210110922501109224018ABB80937E
:102640007300BCCF20E639E040E252E00C947312F4
:10265000FC018081803370F5918128E830E0291BEE
:10266000310997FD3395220F331F220F331F621755
:1026700073077CF0928128E532E0291B310997FD30
:102680003395220F331F220F331F621773070CF489
:102690009B014FB7F89490E0FC01EE0FFF1FE80F8D
:1026A000F91FE250FD4F22503109220F331F3283B0
:1026B00021834FBF08954F925F926F927F92AF92A6
:1026C000BF92CF92DF92EF92FF920F931F93CF931F
:1026D000DF93EC01603282E078070CF040C077FDB8
:1026E00006C0653B71052CF064EB70E002C060E051
:1026F00070E0898128E830E0281B310987FD339597
:10270000220F331F220F331F5901CC24B7FCC09472
:10271000DC2C882777FD8095982F2A8148E552E0A8
:10272000421B510927FD5395440F551F440F551F58
:102730002A01662457FC6094762C7F926F925F92F8
:102740004F9214EBE12EF12C00E010E020E030E09D
:10275000A9010E949F1B0F900F900F900F90CE0128
:10276000DF91CF911F910F91FF90EF90DF90CF906D
:10277000BF90AF907F906F905F904F900C94281314
:10278000883008F06DC0E82FF0E0EE0FFF1FE25731
:10279000FC4F7183608390E0FC013197E730F105D5
:1027A00090F5EE58FF4F0C945120809169008C7F7A
:1027B000842B80936900E89A089580916900440F02
:1027C000551F440F551F837F842B80936900E99A1E
:1027D00008958091690074E0440F551F7A95E1F7E0
:1027E0008F7C842B80936900EA9A08958091690018
:1027F00066E0440F551F6A95E1F78F73842B809331
:102800006900EB9A089580916A008C7F842B8093F5
:102810006A00EC9A089580916A00440F551F440F96
:10282000551F837F842B80936A00ED9A08958091D1
:102830006A0024E0440F551F2A95E1F78F7C842B12
:1028400080936A00EE9A089580916A0096E0440FA2
:10285000551F9A95E1F78F73842B80936A00EF9A46
:1028600008951F920F920FB60F9211240BB60F927C
:102870002F933F934F935F936F937F938F939F9388
:10288000AF93BF93EF93FF93809192039091930343
:10289000892B29F0E0919203F09193031995FF9110
:1028A000EF91BF91AF919F918F917F916F915F91C8
:1028B0004F913F912F910F900BBE0F900FBE0F9035
:1028C0001F9018951F920F920FB60F9211240BB6FE
:1028D0000F922F933F934F935F936F937F938F93B9
:1028E0009F93AF93BF93EF93FF9380919403909145
:1028F0009503892B29F0E0919403F09195031995A4
:10290000FF91EF91BF91AF919F918F917F916F91C7
:102910005F914F913F912F910F900BBE0F900FBE83
:102920000F901F9018951F920F920FB60F921124BF
:102930000BB60F922F933F934F935F936F937F93B9
:102940008F939F93AF93BF93EF93FF9380919603E1
:1029500090919703892B29F0E0919603F0919703CA
:102960001995FF91EF91BF91AF919F918F917F91B9
:102970006F915F914F913F912F910F900BBE0F90F0
:102980000FBE0F901F9018951F920F920FB60F92C7
:1029900011240BB60F922F933F934F935F936F9336
:1029A0007F938F939F93AF93BF93EF93FF93809108
:1029B000980390919903892B29F0E0919803F09165
:1029C00099031995FF91EF91BF91AF919F918F91CD
:1029D0007F916F915F914F913F912F910F900BBE1F
:1029E0000F900FBE0F901F9018951F920F920FB669
:1029F0000F9211240BB60F922F933F934F935F9337
:102A00006F937F938F939F93AF93BF93EF93FF93B6
:102A100080918E0390918F03892B29F0E0918E0392
:102A2000F0918F031995FF91EF91BF91AF919F9115
:102A30008F917F916F915F914F913F912F910F9067
:102A40000BBE0F900FBE0F901F9018951F920F9204
:102A50000FB60F9211240BB60F922F933F934F9303
:102A60005F936F937F938F939F93AF93BF93EF93F6
:102A7000FF938091900390919103892B29F0E0912D
:102A80009003F09191031995FF91EF91BF91AF9150
:102A90009F918F917F916F915F914F913F912F9176
:102AA0000F900BBE0F900FBE0F901F9018951F92A6
:102AB0000F920FB60F9211240BB60F922F933F93E4
:102AC0004F935F936F937F938F939F93AF93BF9336
:102AD000EF93FF9380919A0390919B03892B29F0A8
:102AE000E0919A03F0919B031995FF91EF91BF91AB
:102AF000AF919F918F917F916F915F914F913F9196
:102B00002F910F900BBE0F900FBE0F901F90189536
:102B10001F920F920FB60F9211240BB60F922F93A4
:102B20003F934F935F936F937F938F939F93AF9355
:102B3000BF93EF93FF9380919C0390919D03892B0A
:102B400029F0E0919C03F0919D031995FF91EF917D
:102B5000BF91AF919F918F917F916F915F914F91B5
:102B60003F912F910F900BBE0F900FBE0F901F90B3
:102B700018951F920F920FB60F9211242F933F9327
:102B80008F939F93AF93BF9380919F039091A003E6
:102B9000A091A103B091A20330919E0323E0230FE3
:102BA0002D3720F40196A11DB11D05C026E8230F85
:102BB0000296A11DB11D20939E0380939F039093C5
:102BC000A003A093A103B093A2038091A3039091CB
:102BD000A403A091A503B091A6030196A11DB11D68
:102BE0008093A3039093A403A093A503B093A6039B
:102BF000BF91AF919F918F913F912F910F900FBEF9
:102C00000F901F9018952FB7F89460919F037091C3
:102C1000A0038091A1039091A2032FBF08953FB715
:102C2000F8948091A3039091A403A091A503B0917F
:102C3000A60326B5A89B05C02F3F19F00196A11D3C
:102C4000B11D3FBF6627782F892F9A2F620F711D04
:102C5000811D911D42E0660F771F881F991F4A95BD
:102C6000D1F70895CF92DF92EF92FF92CF93DF9347
:102C70006B017C010E940F16EB01C114D104E10429
:102C8000F10489F00E94C41D0E940F166C1B7D0B7D
:102C9000683E734090F381E0C81AD108E108F1085A
:102CA000C851DC4FEACFDF91CF91FF90EF90DF90DA
:102CB000CF900895789484B5826084BD84B5816096
:102CC00084BD85B5826085BD85B5816085BDEEE634
:102CD000F0E0808181608083E1E8F0E01082808113
:102CE00082608083808181608083E0E8F0E0808181
:102CF00081608083E1EBF0E0808184608083E0EBA1
:102D0000F0E0808181608083E1E9F0E08081826091
:102D10008083808181608083E0E9F0E08081816050
:102D20008083E1EAF0E0808182608083808181603D
:102D30008083E0EAF0E0808181608083E1E2F1E07D
:102D4000808182608083808181608083E0E2F1E025
:102D5000808181608083EAE7F0E080818460808305
:102D600080818260808380818160808380818068AF
:102D700080831092C10008951F93CF93DF93182F83
:102D8000EB0161E00E94D617209711F460E004C0C7
:102D9000CF3FD10539F461E0812FDF91CF911F91B1
:102DA0000C940F18E12FF0E0E65EFD4F449150E0E7
:102DB000FA013197E231F10508F09BC0E758FF4F67
:102DC0000C94512084B5806884BDC7BD97C084B57C
:102DD000806284BDC8BD92C080918000806880936D
:102DE0008000D0938900C093880088C080918000C3
:102DF000806280938000D0938B00C0938A007EC055
:102E000080918000886080938000D0938D00C09373
:102E10008C0074C08091B00080688093B000C09333
:102E2000B3006CC08091B00080628093B000C0930A
:102E3000B40064C080919000806880939000D0932B
:102E40009900C09398005AC080919000806280934E
:102E50009000D0939B00C0939A0050C08091900046
:102E6000886080939000D0939D00C0939C0046C0E2
:102E70008091A00080688093A0008091A0008F7B4B
:102E80008093A000D093A900C093A80037C0809180
:102E9000A00080628093A000D093AB00C093AA00F2
:102EA0002DC08091A00088608093A000D093AD00D9
:102EB000C093AC0023C080912001806880932001E2
:102EC000D0932901C093280119C08091200180620C
:102ED00080932001D0932B01C0932A010FC08091D1
:102EE0002001886080932001D0932D01C0932C0194
:102EF00005C0C038D1050CF04ECF48CFDF91CF913F
:102F00001F91089590E0FC013197E231F10508F03E
:102F10004CC0E557FF4F0C945120809180008F7773
:102F200003C0809180008F7D809380000895809100
:102F30008000877FF9CF84B58F7702C084B58F7DFD
:102F400084BD08958091B0008F7703C08091B00058
:102F50008F7D8093B0000895809190008F7707C097
:102F6000809190008F7D03C080919000877F809337
:102F7000900008958091A0008F7707C08091A000F5
:102F80008F7D03C08091A000877F8093A00008956B
:102F9000809120018F7707C0809120018F7D03C031
:102FA00080912001877F809320010895CF93DF9344
:102FB00090E0FC01E05AFD4F2491FC01EA55FD4FE1
:102FC0008491882349F190E0880F991FFC01E05E0D
:102FD000FC4FA591B4918A5F9C4FFC01C591D4919F
:102FE0009FB7611108C0F8948C91209582238C932F
:102FF000888182230AC0623051F4F8948C91322F78
:10300000309583238C938881822B888304C0F89425
:103010008C91822B8C939FBFDF91CF9108950F935A
:103020001F93CF93DF931F92CDB7DEB7282F30E0E9
:10303000F901E65EFD4F8491F901E05AFD4F1491CC
:10304000F901EA55FD4F04910023C9F0882321F0CE
:1030500069830E9482176981E02FF0E0EE0FFF1F65
:10306000EA5FFC4FA591B4919FB7F8948C916111E0
:1030700003C01095812301C0812B8C939FBF0F90BB
:10308000DF91CF911F910F910895CF93DF93282F58
:1030900030E0F901E65EFD4F8491F901E05AFD4F01
:1030A000D491F901EA55FD4FC491CC2391F08111DF
:1030B0000E948217EC2FF0E0EE0FFF1FE451FD4F4E
:1030C000A591B4912C912D2381E090E021F480E032
:1030D00002C080E090E0DF91CF910895CF92DF921F
:1030E000EF92FF920F931F93CF93DF9390E0FC0139
:1030F000E05AFD4FD491FC01EA55FD4F74916111E6
:1031000002C0C0E001C0CD2FDA01C901BF70672F36
:1031100070E0660F771F64517D4F00E010E098016A
:10312000FB01E590F490F70140814D234C131EC044
:10313000680179014FEFC41AD40AE40AF40A0817A7
:1031400019072A073B0709F442C097018601E8CF17
:1031500068017901FFEFCF1ADF0AEF0AFF0A0817AB
:1031600019072A073B0799F197018601FB01E590B2
:10317000F490F70140814D234C13EACF801B910B53
:10318000A20BB30B20E030E0A901FB01E590F49025
:10319000F701F080FD22FC120AC0281739074A0700
:1031A0005B07A9F02F5F3F4F4F4F5F4FEECFA8E176
:1031B000B0E00E945720605F7F4F8F4F9F4F24E009
:1031C00096958795779567952A95D1F703C060E026
:1031D00070E0CB01DF91CF911F910F91FF90EF90A5
:1031E000DF90CF900895FC01818D228D90E0805C6E
:1031F0009F4F821B91098F7399270895FC01918D30
:10320000828D981731F0828DE80FF11D858D90E049
:1032100008958FEF9FEF0895FC01918D828D98178F
:1032200061F0828DDF01A80FB11D5D968C91928DAA
:103230009F5F9F73928F90E008958FEF9FEF0895A7
:1032400087EC9AE1892B41F080E090E0892B21F016
:103250000E94C71A811125C080E090E0892B41F0BF
:1032600080E090E0892B21F00E94000081111CC0B9
:1032700080E090E0892B41F080E090E0892B21F004
:103280000E940000811113C080E090E0892BA1F022
:1032900080E090E0892B81F00E94000081110AC03B
:1032A00008950E940000D8CF0E940000E1CF0E9444
:1032B0000000EACF0C9400000895FC01848DDF012A
:1032C000A80FB11DA35ABF4F2C91848D90E0019699
:1032D0008F739927848FA689B7892C93A089B18988
:1032E0008C9180648C93938D848D981306C0028892
:1032F000F389E02D80818F7D80830895CF93DF93C4
:10330000EC01888D8823C9F0EA89FB89808185FDDD
:1033100005C0A889B9898C9186FD0FC00FB607FC3E
:10332000F5CF808185FFF2CFA889B9898C9185FF7F
:10333000EDCFCE010E945D19E7CFDF91CF910895C7
:10334000CF92DF92FF920F931F93CF93DF931F9241
:10335000CDB7DEB76C01DC015B969C915B975C9608
:103360008C915C97981307C05096ED91FC91519702
:10337000808185FD32C0F601038D10E00F5F1F4F85
:103380000F731127F02EF601848DF81211C00FB6BD
:1033900007FCF9CFD6015096ED91FC9151978081B1
:1033A00085FFF1CFC60169830E945D196981EBCF6A
:1033B000838DE80FF11DE35AFF4F6083D6015B96C2
:1033C0000C935B975296ED91FC91539780818062AC
:1033D000808381E058968C930DC0D6015696ED916E
:1033E000FC91579760835096ED91FC9151978081A5
:1033F0008064808381E090E00F90DF91CF911F91F6
:103400000F91FF90DF90CF900895BF92CF92DF92FF
:10341000EF92FF92CF93DF93EC016A017B01B22E12
:10342000E889F98982E08083411581EE58076105BA
:103430007105A1F060E079E08DE390E0A7019601CD
:103440000E94102021503109410951095695479594
:1034500037952795211580E1380798F0E889F98993
:10346000108260E874E88EE190E0A70196010E9466
:10347000102021503109410951095695479537953A
:103480002795EC85FD853083EE85FF852083188E9A
:10349000EC89FD89B082EA89FB8980818061808323
:1034A000EA89FB89808188608083EA89FB89808141
:1034B00080688083EA89FB8980818F7D8083DF91AA
:1034C000CF91FF90EF90DF90CF90BF9008951F9223
:1034D0000F920FB60F9211240BB60F922F938F936A
:1034E0009F93EF93FF93E091B703F091B80380812E
:1034F000E091BD03F091BE0382FD12C090818091E6
:10350000C0038F5F8F732091C103821751F0E09148
:10351000C003F0E0E955FC4F958F8093C00301C0D4
:103520008081FF91EF919F918F912F910F900BBE12
:103530000F900FBE0F901F9018951F920F920FB60D
:103540000F9211240BB60F922F933F934F935F93DB
:103550006F937F938F939F93AF93BF93EF93FF935B
:1035600087EA93E00E945D19FF91EF91BF91AF91BF
:103570009F918F917F916F915F914F913F912F918B
:103580000F900BBE0F900FBE0F901F90189587EAFB
:1035900093E00E94F31821E0892B09F420E0822FA8
:1035A00008951092AA031092A90388EE93E0A0E078
:1035B000B0E08093AB039093AC03A093AD03B093C2
:1035C000AE0388E692E09093A8038093A70385EC6E
:1035D00090E09093B4038093B30384EC90E09093D5
:1035E000B6038093B50380EC90E09093B80380938A
:1035F000B70381EC90E09093BA038093B90382EC17
:1036000090E09093BC038093BB0386EC90E0909392
:10361000BE038093BD031092C0031092C1031092A9
:10362000C2031092C303089508950E945A160E947F
:10363000141B0E946002C0E2D9E10E948002209720
:10364000E1F30E942019F9CFCF92DF92EF92FF921F
:103650000F931F93CF93DF936C017A01EB01E60E7A
:10366000F71E00E010E0CE15DF0561F06991D6018C
:10367000ED91FC910190F081E02DC6011995080FA4
:10368000191FF1CFC801DF91CF911F910F91FF90CA
:10369000EF90DF90CF9008956115710581F0DB0107
:1036A0000D900020E9F7AD0141505109461B570B21
:1036B000DC01ED91FC910280F381E02D199480E012
:1036C00090E00895DC01ED91FC91DB0114964D91A1
:1036D0005C9115976D917C910280F381E02D199496
:1036E0000C944C1BDC01ED91FC910190F081E02DDC
:1036F00019940F931F93CF93DF93EC016DE00E9419
:10370000721B8C016AE0CE010E94721B800F911F18
:10371000DF91CF911F910F9108950F931F93CF9336
:10372000DF93EC010E94621B8C01CE010E94791B89
:10373000800F911FDF91CF911F910F9108954F92AC
:103740005F926F927F92AF92BF92CF92DF92EF9291
:10375000FF920F931F93CF93DF93CDB7DEB729016D
:103760003A01621B730B840B950B2A893B894C89A8
:103770005D892A193B094C095D092A8B3B8B4C8BCF
:103780005D8B9B01AC016A897B898C899D890E9434
:10379000E01FE418F50806091709A80197010E941F
:1037A00032202A0D3B1D4C1D5D1DCA01B901DF9160
:1037B000CF911F910F91FF90EF90DF90CF90BF902E
:1037C000AF907F906F905F904F900895FC01808143
:1037D00091810C944221CF93DF93EC0188819981F0
:1037E000009711F00E944221198218821D821C82CA
:1037F0001B821A82DF91CF9108950F931F93CF936D
:10380000DF93EC018B016F5F7F4F888199810E946C
:10381000D121009731F0998388831B830A8381E04B
:1038200001C080E0DF91CF911F910F910895CF9358
:10383000DF93EC0188819981892B29F08A819B8112
:103840008617970760F4CE010E94FD1B882341F084
:103850008C819D81892B19F4E881F981108281E0A6
:10386000DF91CF910895EF92FF920F931F93CF9323
:10387000DF93EC017B018A01BA010E94171C8111C0
:1038800004C0CE010E94EB1B07C01D830C83B7014F
:10389000888199810E94EA22CE01DF91CF911F9108
:1038A0000F91FF90EF900895FC0111821082138216
:1038B0001282158214826115710559F0FB01019085
:1038C0000020E9F7AF0141505109461B570B0C94FA
:1038D000331C0895CF93DF93EC01FB018617970704
:1038E00061F0608171816115710529F04481558114
:1038F0000E94331C02C00E94EB1BCE01DF91CF91CE
:103900000895CF93DF93EC016115710561F0FB0120
:1039100001900020E9F7AF0141505109461B570BB8
:103920000E94331C02C00E94EB1BCE01DF91CF919D
:1039300008950F931F93CF93DF93CDB7DEB76297B0
:103940000FB6F894DEBF0FBECDBF8C01CB01F801DE
:1039500011821082138212821582148250E0BE01FD
:103960006F5F7F4F0E94F122BE016F5F7F4FC801E2
:103970000E94811C62960FB6F894DEBF0FBECDBFC9
:10398000DF91CF911F910F910895EF92FF920F93C6
:103990001F93CF93DF93CDB7DEB7A1970FB6F894FF
:1039A000DEBF0FBECDBF7C01CB01BA01F701118292
:1039B0001082138212821582148242E0420F8E011D
:1039C0000F5F1F4F0E948920BC01C7010E94811C0C
:1039D000A1960FB6F894DEBF0FBECDBFDF91CF9199
:1039E0001F910F91FF90EF900895EF92FF920F9328
:1039F0001F93CF93DF93EC017B010C811D81611537
:103A0000710511F480E016C04115510591F0040FC5
:103A1000151FB8010E94171C8823A1F32881398142
:103A20008C819D81B701820F931F0E94EA221D8322
:103A30000C8381E0DF91CF911F910F91FF90EF9068
:103A40000895CF93DF931F921F92CDB7DEB769839E
:103A50001A8241E050E0BE016F5F7F4F0E94F51C6B
:103A60000F900F90DF91CF910895CF93DF93EC01EA
:103A7000FB0144815581608171810E94F51C811197
:103A800003C0CE010E94EB1BCE01DF91CF910895C0
:103A9000CF93DF93EC016115710569F0FB01019093
:103AA0000020E9F7AF0141505109461B570B0E9416
:103AB000F51C811103C0CE010E94EB1BCE01DF91EA
:103AC000CF910895FC01848195816817790720F4CE
:103AD00080819181009729F41092440484E494E059
:103AE0000895860F971F0895BF92CF92DF92EF92AD
:103AF000FF920F931F93CF93DF936C017B01EA0139
:103B000089012417350720F48D2FE901042F182F80
:103B10006AE472E0C6010E94541CD70114968D918C
:103B20009C911597C817D907C8F48017910708F416
:103B30008C01D701ED91FC911197E00FF11FB0803E
:103B400010826D917C916C0F7D1FC6010E94811CBB
:103B5000D701ED91FC91E00FF11FB082C601DF911A
:103B6000CF911F910F91FF90EF90DF90CF90BF907A
:103B70000895FC0180819181009711F00C94BA2284
:103B800060E070E0CB01089508955058BB27AA2744
:103B90000ED075C166D130F06BD120F031F49F3F6B
:103BA00011F41EF45BC10EF4E095E7FB51C1E92F5F
:103BB00077D180F3BA17620773078407950718F067
:103BC00071F49EF58FC10EF4E0950B2EBA2FA02D47
:103BD0000B01B90190010C01CA01A0011124FF27BA
:103BE000591B99F0593F50F4503E68F11A16F040B5
:103BF000A22F232F342F4427585FF3CF46953795B4
:103C00002795A795F0405395C9F77EF41F16BA0B78
:103C1000620B730B840BBAF09150A1F0FF0FBB1F26
:103C2000661F771F881FC2F70EC0BA0F621F731F6F
:103C3000841F48F4879577956795B795F7959E3FCC
:103C400008F0B3CF9395880F08F09927EE0F97955A
:103C500087950895D9D008F481E008950CD00FC15C
:103C600007D140F0FED030F021F45F3F19F0F0C0F2
:103C7000511139C1F3C014D198F39923C9F35523D5
:103C8000B1F3951B550BBB27AA276217730784074F
:103C900038F09F5F5F4F220F331F441FAA1FA9F305
:103CA00033D00E2E3AF0E0E830D091505040E695F7
:103CB000001CCAF729D0FE2F27D0660F771F881F58
:103CC000BB1F261737074807AB07B0E809F0BB0B47
:103CD000802DBF01FF2793585F4F2AF09E3F51056B
:103CE00068F0B6C000C15F3FECF3983EDCF3869508
:103CF00077956795B795F7959F5FC9F7880F911DE1
:103D00009695879597F90895E1E0660F771F881FCC
:103D1000BB1F621773078407BA0720F0621B730B7F
:103D2000840BBA0BEE1F88F7E095089504D06894D1
:103D3000B111D9C00895BCD088F09F5790F0B92F29
:103D40009927B751A0F0D1F0660F771F881F991FF0
:103D50001AF0BA95C9F712C0B13081F0C3D0B1E002
:103D60000895C0C0672F782F8827B85F39F0B93F12
:103D7000CCF3869577956795B395D9F73EF49095F2
:103D80008095709561957F4F8F4F9F4F0895E89470
:103D900009C097FB3EF490958095709561957F4F93
:103DA0008F4F9F4F9923A9F0F92F96E9BB27939541
:103DB000F695879577956795B795F111F8CFFAF451
:103DC000BB0F11F460FF1BC06F5F7F4F8F4F9F4F82
:103DD00016C0882311F096E911C0772321F09EE8E0
:103DE000872F762F05C0662371F096E8862F70E046
:103DF00060E02AF09A95660F771F881FDAF7880F20
:103E00009695879597F90895990F0008550FAA0B75
:103E1000E0E8FEEF16161706E807F907C0F01216DD
:103E20001306E407F50798F0621B730B840B950BE0
:103E300039F40A2661F0232B242B252B21F4089535
:103E40000A2609F4A140A6958FEF811D811D0895D2
:103E500097F99F6780E870E060E008959FEF80EC3D
:103E6000089500240A9416161706180609060895E0
:103E700000240A9412161306140605060895092E46
:103E80000394000C11F4882352F0BB0F40F4BF2BB5
:103E900011F460FF04C06F5F7F4F8F4F9F4F0895F5
:103EA00057FD9058440F551F59F05F3F71F04795EB
:103EB000880F97FB991F61F09F3F79F087950895D0
:103EC000121613061406551FF2CF4695F1DF08C0EF
:103ED000161617061806991FF1CF8695710561050C
:103EE00008940895E894BB2766277727CB0197F9B4
:103EF00008958ADF08F48FEF08950BD0C0CFB1DFAB
:103F000028F0B6DF18F0952309F0A2CFA7CF11242F
:103F1000EACFC6DFA0F3959FD1F3950F50E0551F70
:103F2000629FF001729FBB27F00DB11D639FAA270E
:103F3000F00DB11DAA1F649F6627B00DA11D661F5D
:103F4000829F2227B00DA11D621F739FB00DA11D7E
:103F5000621F839FA00D611D221F749F3327A00D38
:103F6000611D231F849F600D211D822F762F6A2FD4
:103F700011249F5750408AF0E1F088234AF0EE0F59
:103F8000FF1FBB1F661F771F881F91505040A9F766
:103F90009E3F510570F05CCFA6CF5F3FECF3983E9B
:103FA000DCF3869577956795B795F795E7959F5FCD
:103FB000C1F7FE2B880F911D9695879597F9089567
:103FC000DB018F939F930E945720BF91AF91A29FD7
:103FD000800D911DA39F900DB29F900D1124089507
:103FE000991B79E004C0991F961708F0961B881F4B
:103FF0007A95C9F78095089597FB072E16F40094DB
:1040000007D077FD09D00E94662007FC05D03EF45A
:10401000909581959F4F0895709561957F4F089574
:10402000A1E21A2EAA1BBB1BFD010DC0AA1FBB1FBC
:10403000EE1FFF1FA217B307E407F50720F0A21B2E
:10404000B30BE40BF50B661F771F881F991F1A949B
:1040500069F760957095809590959B01AC01BD01C5
:10406000CF010895052E97FB1EF400940E9449206D
:1040700057FD07D00E94102007FC03D04EF40C948B
:10408000492050954095309521953F4F4F4F5F4FB8
:10409000089590958095709561957F4F8F4F9F4FB4
:1040A0000895EE0FFF1F0590F491E02D19940E94E2
:1040B0007A20A59F900DB49F900DA49F800D911D17
:1040C000112408950790F691E02D1994AA1BBB1BAB
:1040D00051E107C0AA1FBB1FA617B70710F0A61B08
:1040E000B70B881F991F5A95A9F780959095BC0129
:1040F000CD010895A29FB001B39FC001A39F700D91
:10410000811D1124911DB29F700D811D1124911DDF
:104110000895EF920F931F93CF93DF93E80147FF2A
:1041200002C034E101C034E0E42FFF27E7FDF09541
:10413000F7FF03C0F195E195F109E32E022F2E2F31
:10414000AE010E943623CE01DF91CF911F910F91D6
:10415000EF900895CF93DF938230910510F482E0C1
:1041600090E0E0914704F091480420E030E0A0E0C6
:10417000B0E0309739F14081518148175907B8F0C4
:104180004817590771F482819381109729F013968B
:104190009C938E9312972CC090934804809347046D
:1041A00027C02115310531F04217530718F0A90136
:1041B000DB0101C0EF019A01BD01DF010280F38143
:1041C000E02DD7CF21153105F9F0281B390B24300C
:1041D000310580F48A819B816115710521F0FB0115
:1041E0009383828304C09093480480934704FE0124
:1041F000329644C0FE01E20FF31F81939193225047
:104200003109398328833AC020914504309146040E
:10421000232B41F420910202309103023093460493
:1042200020934504209100023091010221153105AF
:1042300041F42DB73EB74091040250910502241B72
:10424000350BE0914504F0914604E217F307A0F422
:104250002E1B3F0B2817390778F0AC014E5F5F4FDC
:104260002417350748F04E0F5F1F509346044093C4
:1042700045048193919302C0E0E0F0E0CF01DF912B
:10428000CF910895CF93DF93009709F487C0FC0185
:10429000329713821282C0914704D091480420972C
:1042A00081F420813181280F391F8091450490913C
:1042B00046048217930779F5F0934604E09345048A
:1042C0006DC0DE0120E030E0AE17BF0750F412965B
:1042D0004D915C9113979D014115510509F1DA014A
:1042E000F3CFB383A28340815181840F951F8A1736
:1042F0009B0771F48D919C911197840F951F0296E5
:104300009183808312968D919C91139793838283DE
:104310002115310529F4F0934804E09347043EC089
:10432000D9011396FC93EE9312974D915D91A40FD2
:10433000B51FEA17FB0779F480819181840F951FDF
:104340000296D90111969C938E9382819381139644
:104350009C938E931297E0E0F0E08A819B81009716
:1043600019F0FE01EC01F9CFCE01029628813981C6
:10437000820F931F20914504309146042817390776
:1043800069F4309729F4109248041092470402C04F
:1043900013821282D0934604C0934504DF91CF91DB
:1043A00008956F927F928F929F92AF92BF92CF9219
:1043B000DF92EF92FF920F931F93CF93DF93EC0165
:1043C000CB01209781F4DF91CF911F910F91FF9046
:1043D000EF90DF90CF90BF90AF909F908F907F90A5
:1043E0006F900C94AA20FE01E60FF71F9E01225049
:1043F0003109E217F30708F4ACC0D9010D911C9103
:10440000119706171707B8F00530110508F49FC07B
:10441000A801445051094617570708F498C00250A4
:104420001109061B170B019311936D937C93CF0118
:104430000E9442218CC05B01A01AB10A4E01800E7D
:10444000911EA0914704B0914804612C712C60E04A
:1044500070E0109709F449C0A815B905C9F5ED90A9
:10446000FC901197670142E0C40ED11CCA14DB0412
:1044700078F147018A189B08640142E0C40ED11C00
:104480001296BC9012971396AC91B5E0CB16D1045E
:1044900040F0B282A38391828082D9018D939C9354
:1044A00009C00E5F1F4F0E0D1F1DF9011183008300
:1044B000EB2DFA2F6115710531F0DB011396FC939A
:1044C000EE93129744C0F0934804E09347043FC032
:1044D0006D917C9111976616770608F43B01BD013A
:1044E00012960D90BC91A02DB4CF609145047091AF
:1044F000460468157905E9F468167906D0F4409108
:104500000002509101024115510541F44DB75EB7CB
:104510006091040270910502461B570BE417F507E2
:10452000C0F4F0934604E0934504F901918380833D
:104530000EC00E94AA207C01009759F0A801BE017C
:104540000E94E122CE010E944221C70104C0CE0197
:1045500002C080E090E0DF91CF911F910F91FF901A
:10456000EF90DF90CF90BF90AF909F908F907F9013
:104570006F9008951F93FC0199278827BC01E89448
:1045800011911032E9F3193010F01E30C8F31B32CC
:1045900051F01D3249F4689406C00E940723610F50
:1045A000711D811D911D119110531A30B0F33EF40D
:1045B00090958095709561957F4F8F4F9F4F1F917C
:1045C0000895FB01DC0102C001900D924150504062
:1045D000D8F70895FB01DC0101900D920020E1F76E
:1045E00008954532510520F4423010F00C94FC221D
:1045F000FB011082CB010895BB274A3031F4992387
:1046000022F4BDE2909581959F4F0C941D23592F64
:10461000482F372F262F660F771F881F991F660F89
:10462000771F881F991F620F731F841F951F660FC6
:10463000771F881F991F0895BB27FB015527AA27BD
:10464000880F991FAA1FA41710F0A41B839550511F
:10465000B9F7A05DAA3308F0A95DA193009779F797
:10466000B111B1931192CB010C948C256F927F9272
:104670009F92AF92BF92CF92DF92EF92FF920F93F1
:104680001F93CF93DF93CDB7DEB729970FB6F8947A
:10469000DEBF0FBECDBF6A01B22E102F0C3320F447
:1046A000FF24F394F00E02C04CE3F42E0F2D27E00C
:1046B000AE014F5F5F4F0E94B4247981272F29708C
:1046C000213031F0E1FC06C0E0FC06C060E005C02E
:1046D0006DE203C06BE201C060E2AE2DA07173FF1A
:1046E00036C0662311F084E001C083E08B1510F41E
:1046F000B81A01C0B12CA1110BC0F6018B2D90E2AC
:10470000882319F091938150FBCFCB0CD11CB12C95
:10471000662331F0F601608396012F5F3F4F6901F8
:10472000C6010396E2FE05C02EE4F601208331E4C3
:1047300004C02EE6F601208331E631832283FC019A
:104740002B2D30E22223F1F131932150FBCF72FF68
:1047500040C0662311F084E001C083E08B1510F4A3
:10476000B81A01C0B12CA1110BC0F6018B2D90E23B
:10477000882319F091938150FBCFCB0CD11CB12C25
:10478000662331F0F601608396012F5F3F4F690188
:10479000C6010396E2FE07C029E4F60120832EE459
:1047A000218326E406C029E6F60120832EE6218334
:1047B00026E62283FC012B2D30E2222319F03193CF
:1047C0002150FBCFFC01EB0DF11D10828EEF9FEF0E
:1047D000B7C0B1E0611101C0B0E04B2F50E0181636
:1047E000190624F49C012F5F3F4F02C021E030E006
:1047F000240F351F112329F0412F50E04F5F5F4FE9
:1048000002C040E050E0420F531F2B2D30E0421712
:10481000530714F4B41A01C0B12C2E2D287159F489
:10482000F6012B2D30E2222319F031932150FBCFDA
:10483000CB0CD11CB12CBB2331F0F6016083960167
:104840002F5F3F4F6901A1110BC0F6012B2D30E303
:10485000222319F031932150FBCFCB0CD11CB12C6A
:10486000F80E0A81372F3071A32E74FF03C0013375
:1048700009F4FA941F142CF42F2D293018F028E095
:1048800001C021E0682F392F97FF02C060E030E0BF
:10489000462F532F612C712C3EE2932EBC01621BDC
:1048A00071099B01DC01A41BB50BE1E0F0E0EC0F0A
:1048B000FD1FAE0FBF1FE12EF12CF194E194F10822
:1048C0004F3FFFEF5F0731F4F6019082B6016F5F53
:1048D0007F4F6B01841795074CF02417350734F48C
:1048E000BD01660D771DFB01118101C010E3415030
:1048F0005109FFEF6F1A7F0AB6016F5F7F4F4E15A8
:104900005F0524F0F60110836B01DACF48175907D1
:1049100039F4063320F4053319F4A11001C011E372
:10492000F6011083FB018B2D90E2882319F09193FF
:104930008150FBCFFB01EB0DF11D108280E090E078
:1049400029960FB6F894DEBF0FBECDBFDF91CF9191
:104950001F910F91FF90EF90DF90CF90BF90AF909D
:104960009F907F906F900895283008F027E03327BC
:10497000DA01990F311D87FD91600096610571057F
:1049800039F432602E5F3D9330E32A95E1F70895C4
:104990009F3F30F080387105610509F03C5F3C5F56
:1049A0003D93913008F08068911DDF93CF931F9362
:1049B0000F93FF92EF92192F987F9695E92F969576
:1049C0009695E90FFF27EC56FC4F99273327EE24E5
:1049D000FF24A701E70105900894079428F4360FF7
:1049E000E71EF81E491F511D660F771F881F991F6C
:1049F0000694A1F70590079428F4E70EF81E491FC6
:104A0000561FC11D770F881F991F661F0694A1F7B7
:104A10000590079428F4F80E491F561FC71FD11D93
:104A2000880F991F661F771F0694A1F705900794BA
:104A300020F4490F561FC71FD81F990F661F771FF5
:104A4000881F0694A9F784911095177041F0D695A8
:104A5000C79557954795F794E7941A95C1F7EAE3F8
:104A6000F3E06894159015913591659195910590B5
:104A70007FE27395E118F10A430B560BC90BD0097D
:104A8000C0F7E10CF11E431F561FC91FD01D7EF455
:104A9000703311F48A95E6CFE894015030F0080F96
:104AA0000AF40027021708F4202F2395022F7A33E7
:104AB00028F079E37D932A95E9F710C07D932A9534
:104AC00089F6069497956795379517951794E11889
:104AD000F10A430B560BC90BD00998F023957E9130
:104AE00073957A3308F070E37C932013B8F77E91C6
:104AF00070617D9330F0839571E37D9370E32A9527
:104B0000E1F71124EF90FF900F911F91CF91DF916A
:104B1000992787FD90950895DC01FC01672F71911D
:104B20007723E1F7329704C07C916D937083629193
:104B3000AE17BF07C8F3089514E0C8E3D4E000E05F
:104B400006C022970109FE010BBF0E946220CA33F2
:0C4B5000D10780E00807A9F7F894FFCF18
:104B5C0000004904800001000000464C3A20004649
:104B6C00523A20004F3A2000464C443A00465244F8
:104B7C003A00424C443A004252443A00464C533AB2
:104B8C0020004652533A200070776D4C3A2000704A
:104B9C00776D523A20002444500A002452500024CD
:104BAC00525030002452503030002453500A00240C
:104BBC0049500A0000000000A019241BF3180C191E
:044BCC00FE187E1938
:00000001FF
