:100000000C94A0010C940F130C9440130C947113D6
:100010000C94A2130C94D3130C9404140C94351464
:100020000C9466140C94D1010C94D1010C94D10160
:100030000C94D1010C94D1010C94D1010C94D101F8
:100040000C94D1010C947D100C94D1010C94D1012D
:100050000C94D1010C94D1010C94D1010C949714FF
:100060000C94D1010C9445190C947B190C94D1017A
:100070000C94D1010C94D1010C94D1010C94D101B8
:100080000C94AB100C94D1010C94D1010C94D101BF
:100090000C94D1010C94D1010C94D1010C94D10198
:1000A0000C94D1010C94D1010C94D9100C94D10171
:1000B0000C94D1010C94D1010C94D1010C94071132
:1000C0000C94D1010C94D1010C94D1010C94D10168
:1000D0000C94D1010C94D1010C94D1010C94D10158
:1000E0000C94D101E912B312BB12C712D412F5124B
:1000F0000213C015C515CA15D415DE155716E81517
:10010000F015F81502160C16161625162F1657168A
:10011000391643164D1679167C166B166F16751622
:10012000B316801684168A168E16921698169C168A
:10013000A016B316A616AA16AE160C94EA170C94BF
:1001400002130C9484160C948D030C947C160C945E
:10015000DB010C94D7010C94D3010C9416160C946B
:10016000F5120C9457160C94F8150C9425160C9453
:100170004D160C94C0150C94DF010C94D4150C94FE
:1001800092160C94A0160C9479160C948E160C945E
:1001900075160C94A5190C94D1170C945C180C943A
:1001A0000C160C94DC170C946B160C94E8150C943C
:1001B000AF190C9443160C94F0150C94A6160C94DD
:1001C0008A160C94CA150C949F030C94B3120C94C9
:1001D000BB120C94B3160C94021A0C942F160C94A8
:1001E000DE150C9498160C9480160C94FE170C9443
:1001F00002160C949C160C94C7120C94C5150C9402
:100200006F160C947E180C94E9120C94AA160C9498
:10021000AE160C9439160C94D41200000A0B020985
:100220000C0D0E0807030401000000000000000090
:1002300000000000000000000000000000000000BE
:10024000000000000000121110000000000000007B
:10025000000000000000000000000000000000009E
:1002600001021020200808102040102040800201C8
:1002700002010804020101020408102040808040AD
:1002800020100804020180040201804020100804AC
:10029000020108040201010204081020408001024A
:1002A0000408102040800505050507050808080812
:1002B000020202020A0A08080404040401010101FE
:1002C00001010101030303030303030304070707F9
:1002D0000C0C0C0C0C0C0C0C02020202060606069E
:1002E000060606060B0B0B0B0B0B0B0B000020007E
:1002F0002300260029002C002F00320000010000FE
:1003000003010601090100002200250028002B003E
:100310002E003100340002010000050108010B012C
:1003200000002100240027002A002D0030003300A7
:1003300001010000040107010A018D03AF199F03A9
:1003400011241FBECFEFD1E2DEBFCDBF00E00CBF56
:1003500012E0A0E0B2E0E0ECF3E400E00BBF02C08A
:1003600007900D92AC33B107D9F724E0ACE3B2E0CB
:1003700001C01D92A931B207E1F713E0CEE3D3E04B
:1003800000E006C022970109FE010BBF0E94021F78
:10039000CA33D10780E00807A9F70E94F3190C942B
:1003A000CE210C9400008CE392E00C9480038CE34B
:1003B00092E00C9483038CE392E00C9486038CE32C
:1003C00092E00C9489038CE392E00E94070242E0E1
:1003D00050E063ED71E082E00E949E1242E050E046
:1003E00067ED71E083E00E949E1242E050E06BED09
:1003F00071E085E00E949E1242E050E06FED71E0F6
:1004000084E00C949E128CE392E00C94580BAF9213
:10041000BF92CF92DF92EF92FF920F931F93CF93F1
:10042000DF93CDB7DEB72E970FB6F894DEBF0FBEC1
:10043000CDBF5C01CE0101960E94B50B8EE0FE019E
:100440003196D50101900D928A95E1F7F501EC5AAC
:10045000FF4F1182108224E030E040E050E068E677
:1004600072E481EC92E00E948B0FF501E658FF4F99
:1004700011821082329611821082329681E080833E
:10048000319611821082329610821182128213826A
:1004900085E1C82ED12C98E1E92EF12C00E010E086
:1004A00021E030E040E058E062E070E0C5014096B5
:1004B0000E94040C24E1C22ED12C39E1E32EF12C50
:1004C00001E010E021E030E040E058E063E070E05F
:1004D000C50181960E94040C43E1C42ED12C5BE13E
:1004E000E52EF12C00E010E020E030E040E250E0AA
:1004F00064E070E0C501C2960E94040C62E1C62E61
:10050000D12C7AE1E72EF12C01E010E020E030E080
:1005100040E250E065E070E0C5018D5B9F4F0E94B6
:10052000040C00E010E02FE130E04EE150E067E025
:1005300070E0C5018A5A9F4F0E94E90B01E010E06C
:1005400021E230E040E250E068E070E0C5018F5900
:100550009F4F0E94E90B61E087E00E94B41661E0C2
:100560008EE10E94B41661E088E00E94B41661E05A
:1005700080E20E94B41660E087E00E94ED1660E021
:1005800088E00E94ED1675018FE6E80EF11C69E027
:1005900070E0C7010E940012850104591F4F6AE0F4
:1005A00070E0C8010E94001265E070E0C7010E947F
:1005B00039126AE570E0C8010E94391261E08DE0ED
:1005C0000E94B416F501E758FF4F10826EE072E00A
:1005D000C5018E589F4F0E94321BF501E858FF4F0E
:1005E000108226E040E052EC61E070E087E793E0A3
:1005F0000E94E3182E960FB6F894DEBF0FBECDBF53
:10060000DF91CF911F910F91FF90EF90DF90CF90EE
:10061000BF90AF9008950F931F93CF93DF938B01FB
:1006200064EF71E080E090E00E941015C0E0D0E03F
:10063000C017D10704F560E08DE00E94ED166AEF67
:1006400070E080E090E00E94101561E08DE00E9473
:10065000ED166AEF70E080E090E00E94101560E017
:100660008DE00E94ED166AEF70E080E090E00E945D
:1006700010152196DDCFDF91CF911F910F91089535
:100680000F931F93CF93DF93EC018C010A5A1F4FF6
:1006900060E070E0C8010E94FE0BCF59DF4F61E0BF
:1006A00070E0CE010E94FE0B67E370E0C8010E947B
:1006B000FA0B62E370E0CE010E94FA0B6AE072E08E
:1006C00087E793E0DF91CF911F910F910C944E1A21
:1006D000CF93DF93EC0160E070E08A5A9F4F0E9455
:1006E000FA0B60E070E0CE018F599F4F0E94FA0B29
:1006F0006AE072E087E793E0DF91CF910C944E1AA5
:1007000040960C942F0C81960C942F0CC2960C944E
:100710002F0C8D5B9F4F0C942F0C8CE392E00E946A
:10072000B50B88EA92E00E9435118BEA92E00E94B4
:1007300035116EE072E08EEA92E00C94051B8EEAB1
:1007400092E00C94971A8F929F92AF92BF92CF92A1
:10075000DF92EF92FF920F931F93CF93DF93CDB76A
:10076000DEB72C970FB6F894DEBF0FBECDBF8C015D
:100770006EE072E0CE0107960E94051B81EC92E0CC
:100780000E949D0F6C0158012EE7A20EB11CF501CD
:100790008081980124583F4F79018823D1F081EC62
:1007A00092E00E949D0F4C0181EC92E00E949D0F0F
:1007B0009601280D391D280F391FC90163E070E02B
:1007C0000E949C1E64517109F70171836083F501D9
:1007D0001082F701208131812C193D09F801E6587A
:1007E000FF4F37FD03C03183208302C01182108286
:1007F000608171814AE0CE0101960E944A1BBE01D0
:100800006F5F7F4FCE0107960E941B1BCE010196A2
:100810000E94971A8B859C858330910519F46FE0AF
:1008200072E007C0029719F463E172E002C068E168
:1008300072E0CE0101960E94051BBE01695F7F4FE9
:10084000CE0101960E94B61B6DE072E00E94C91BAA
:10085000BC0187E793E00E94401ACE0101960E94F6
:10086000971A87E793E00E945C18CE0107960E94D2
:10087000971A2C960FB6F894DEBF0FBECDBFDF914E
:10088000CF911F910F91FF90EF90DF90CF90BF908D
:10089000AF909F908F900895CF93DF93CDB7DEB741
:1008A0002C970FB6F894DEBF0FBECDBF6EE072E09E
:1008B000CE0107960E94051B81EC92E00E949D0FDD
:1008C0004AE0BC01CE0101960E944A1BBE016F5F47
:1008D0007F4FCE0107960E941B1BCE0101960E94FE
:1008E000971A8B859C858330910519F46FE072E02F
:1008F00007C0029719F463E172E002C068E172E098
:10090000CE0101960E94051BBE01695F7F4FCE019B
:1009100001960E94B61B6DE072E00E94C91BBC01EB
:1009200087E793E00E94401ACE0101960E94971A31
:1009300087E793E00E945C18CE0107960E94971A01
:100940002C960FB6F894DEBF0FBECDBFDF91CF91CE
:10095000089563E070E00E940B036EE172E087E7A8
:1009600093E00E944E1A87E793E00C945C184F9234
:100970005F926F927F928F929F92AF92BF92CF922F
:10098000DF92EF92FF920F931F93CF93DF93CDB738
:10099000DEB72C970FB6F894DEBF0FBECDBF8C012B
:1009A0007C0182E7E80EF11C25E030E043E050E0F6
:1009B000B701CE0107960E94141CCE0107960E9433
:1009C000591C0E94691D2B013C0127E030E045E0E5
:1009D00050E0B701CE0101960E94141CBE016F5F6A
:1009E0007F4FCE0107960E941B1BCE0101960E94ED
:1009F000971ACE0107960E94591C0E94691D4B014F
:100A00005C0162E070E0C7010E94021CFC01808171
:100A10008B3249F420E030E044EB52E4C301B201F0
:100A20000E94661C08C0A301920160E070E084EBA4
:100A300092E40E94651C6B017C0120E030E040E103
:100A400051E4C501B4010E941D1E4B015C0125E566
:100A500035E54DEA50E4C701B6010E941D1E20E0B5
:100A600030E84DE654E40E94661C0E94361DC80121
:100A700084599F4F0E9439126FE070E080E090E04F
:100A80000E94101520E030E842E254E4C501B401B0
:100A90000E94661C0E94361DC80181599F4F0E940A
:100AA00039126FE070E080E090E00E94101563E280
:100AB00072E087E793E00E944E1A87E793E00E9476
:100AC0005C18CE0107960E94971A2C960FB6F894E0
:100AD000DEBF0FBECDBFDF91CF911F910F91FF9071
:100AE000EF90DF90CF90BF90AF909F908F907F90CE
:100AF0006F905F904F900895AF92BF92CF92DF9228
:100B0000EF92FF920F931F93CF93DF93EC015C0161
:100B100081E2A80EB11CC5010E949D0C6E0180E10E
:100B2000C80ED11CC6010E949D0C7E0181E6E80E14
:100B3000F11C60E070E0C7010E94FE0B8E010A5AB2
:100B40001F4F61E070E0C8010E94FE0B66E470E098
:100B5000C7010E94FA0B66E470E0C8010E94FA0B1C
:100B600068E57BE180E090E00E94101560E070E0B5
:100B7000C7010E94FA0B60E070E0C8010E94FA0B06
:100B800060E070E0CE018D5B9F4F0E94A80C60E09A
:100B900070E0CE01C2960E94A80C60E070E0C50132
:100BA0000E94A80C60E070E0C6010E94A80CC15829
:100BB000DF4F198218826AE072E087E793E00E94B3
:100BC0004E1A87E793E0DF91CF911F910F91FF902D
:100BD000EF90DF90CF90BF90AF900C945C182F9265
:100BE0003F924F925F926F927F928F929F92AF92BD
:100BF000BF92CF92DF92EF92FF920F931F93CF930A
:100C0000DF93CDB7DEB7C65AD1090FB6F894DEBF71
:100C10000FBECDBF1C016EE072E0CE0187589F4F22
:100C20000E94051B3E012FE8620E711CF301108229
:100C30001182128213824E01FBE88F0E911CF40187
:100C400010821182128213829E0129573F4FCD5686
:100C5000DF4F39832883C359D040C957DF4F1882EB
:100C600019821A821B82C758D0402E0133E8430EE6
:100C7000511CF201108211821282138280E090E0F6
:100C8000A6E9B3E4C158DF4F88839983AA83BB8365
:100C9000CF57D04091012E583F4FCB56DF4F39836D
:100CA0002883C559D04062E070E0C9010E94021C4F
:100CB000FC0180818C3439F0823509F4D0C0823453
:100CC00009F0EAC152C44101F0E18F0E911CC40148
:100CD0000E94A50C91012F5D3F4FC956DF4F39830C
:100CE0002883C759D040C9010E94A50C510131E6A3
:100CF000A30EB11C61E070E0C5010E94FE0B610112
:100D000046E5C40ED11C61E070E0C6010E94FE0BF6
:100D100026E030E043E050E0CB56DF4F6881798138
:100D2000C559D040CE0101960E94141CBE016F5FD0
:100D30007F4FCE0187589F4F0E941B1BCE0101960B
:100D40000E94971ACE0187589F4F0E94591CF101AB
:100D5000EF57FF4FCB56DF4FF983E883C559D0409B
:100D60000E94691D20E030E04AE754E40E941D1E05
:100D700025E33AEF4EE85CE30E941D1E9B01AC01A7
:100D8000CB56DF4FE881F981C559D0406081718130
:100D9000828193810E94651C2B013C0191012E5C94
:100DA0003F4F790181010D5B1F4FA3019201CB568B
:100DB000DF4FE881F981C559D0406081718182811E
:100DC00093810E94191E18160CF012C169E170E09F
:100DD00080E090E00E941015C7010E945C0CC801E1
:100DE0000E945C0CC7010E945C0C1C01C8010E949F
:100DF0005C0CB101681B790B882777FD8095982FD3
:100E00000E94691D20E030E040E05FE30E941D1E6B
:100E100020E030E04AE754E40E941D1E20E030E06C
:100E20004CE553E40E94CE1C2DEC3CEC4CE050E42D
:100E30000E94CE1CCB56DF4FE881F981C559D040C6
:100E400060837183828393836FEF70E0C5010E949A
:100E5000FA0B6FEF70E0C6010E94FA0BA6CF4101BA
:100E6000F0E18F0E911CC4010E94A50C91012F5D31
:100E70003F4FC956DF4F39832883C759D040C90136
:100E80000E94A50C510131E6A30EB11C60E070E098
:100E9000C5010E94FE0B610146E5C40ED11C60E055
:100EA00070E0C6010E94FE0B26E030E043E050E017
:100EB000CB56DF4F68817981C559D040CE0101966C
:100EC0000E94141CBE016F5F7F4FCE0187589F4F59
:100ED0000E941B1BCE0101960E94971ACE018758D3
:100EE0009F4F0E94591CF101EF57FF4FCB56DF4F28
:100EF000F983E883C559D0400E94691D20E030E0A5
:100F00004AE754E40E941D1E25E33AEF4EE85CE3F5
:100F10000E941D1ECB56DF4FE881F981C559D04094
:100F200020813181428153810E94661C2B013C014A
:100F300091012E5C3F4F790181010D5B1F4FA30191
:100F40009201CB56DF4FE881F981C559D0406081CD
:100F50007181828193810E94CA1C87FF49C069E127
:100F600070E080E090E00E941015C7010E945C0CC8
:100F7000C8010E945C0CC7010E945C0C1C01C801E6
:100F80000E945C0CB101681B790B882777FD809566
:100F9000982F0E94691D20E030E040E05FE30E944E
:100FA0001D1E20E030E04AE754E40E941D1E20E0B0
:100FB00030E04CE553E40E94CE1C2DEC3CEC4CE0C0
:100FC00050E40E94CE1CCB56DF4FE881F981C55911
:100FD000D04060837183828393836FEF70E0C5019B
:100FE0000E94FA0B6FEF70E0C6010E94FA0BA7CFC8
:100FF00060E070E0C5010E94FA0B60E070E0C6019D
:101000000E94FA0B68EC70E080E090E00E941015FE
:10101000C7010E945C0CC8010E945C0CC7010E94C1
:101020005C0C7C01C8010E945C0CB701681B790B49
:10103000882777FD8095982F0E94691D20E030E079
:1010400040E05FE30E941D1E20E030E04AE754E4E8
:101050000E941D1E20E030E04CE553E40E94CE1CAF
:101060002DEC3CEC4CE050E40E94CE1CCB56DF4F04
:10107000E881F981C559D04060837183828393836D
:10108000C4010E94A10CC956DF4F88819981C759BC
:10109000D0400E94A10C69C21F921F92FCE3FF93F3
:1010A00023E22F9337ED3F934AE04F93ADECAA2E06
:1010B000ACECBA2ECB2CADE3DA2EE12CF12C00E017
:1010C0001FE39E0121583F4FAE0149575F4FB301C7
:1010D000CE01CA960E941E0F1F921F925CE35F937F
:1010E00083E28F9397ED9F93EAE0EF939E0121585F
:1010F0003F4FA201B401CE0101960E941E0F61E094
:1011000070E0CE01CA960E94CC0E61E070E0CE0184
:1011100001960E94CC0E91012F593F4FC956DF4FC7
:1011200039832883C759D04061E070E0C9010E942B
:10113000FE0B81010A5A1F4F60E070E0C8010E9457
:10114000FE0B60E070E0C956DF4F88819981C75976
:10115000D0400E94FA0B60E070E0C8010E94FA0BD8
:1011600026E030E043E050E0CB56DF4F68817981E4
:10117000C559D040CE018D589F4F0E94141CBE010E
:101180006D587F4FCE0187589F4F0E941B1BCE0189
:101190008D589F4F0E94971A68E272E0CE018758DF
:1011A0009F4F0E94E31B0FB6F894DEBF0FBECDBF6A
:1011B000882339F0C1010E947C05CE0187589F4FDA
:1011C000E7C1CE0187589F4F0E94591C2AE0269FF5
:1011D000F001279FF00D1124C556DF4FF983E883F6
:1011E000CB59D040F101E158FF4F80819181C55624
:1011F000DF4F48815981CB59D040480F591FC55600
:10120000DF4F59834883CB59D040C756DF4FF9830E
:10121000E883C959D040C1014096CF55DF4F99832B
:101220008883C15AD040EE55F109CD55DF4FF9837F
:10123000E883C35AD04091012E5C3F4FCB55DF4F1E
:1012400039832883C55AD040A1014D5B5F4FC356F7
:10125000DF4F59834883CD59D040C756DF4FE881CF
:10126000F981C959D04080819181C556DF4F2881CD
:101270003981CB59D040821793070CF067C162E3E4
:1012800070E080E090E00E941015CF55DF4F88811C
:101290009981C15AD0400E945C0C5C01CD55DF4F52
:1012A00088819981C35AD0400E945C0C6C01CB5557
:1012B000DF4F88819981C55AD0400E945C0C4C0157
:1012C000C356DF4F88819981CD59D0400E945C0C74
:1012D0007C0166E070E0CB56DF4F88819981C5596B
:1012E000D0400E94021CFC0180818634A1F461E0A0
:1012F0008DE00E94ED16C4018E0D9F1D97FD019695
:1013000095958795C756DF4FE881F981C959D04037
:101310009183808315C060E08DE00E94ED16CA0CB9
:10132000DB1CD7FE03C0FFEFCF1ADF0AD594C794AA
:10133000C756DF4FE881F981C959D040D182C082B8
:10134000C356DF4F88819981CD59D0400E949D0CB2
:10135000C1010E94CD0B6401C81AD90AC1010E94C3
:10136000D10B9701281B390BC156DF4F39832883D6
:10137000CF59D040B701C1010E94D90BB401C101BE
:101380000E94D50B0E94ED142B013C01C1010E946B
:10139000E30BA3019201261B370B480B590BCA0123
:1013A000B9010E94671D20E030E04AE754E40E9442
:1013B000CE1C4B015C01B301A201C1010E94DD0BF7
:1013C000B601882777FD8095982F0E94691D20E03F
:1013D00030E04AE754E40E941D1EA50194010E94DA
:1013E000CE1CC157DF4F688379838A839B83CF5894
:1013F000D040C156DF4F48815981CF59D040BA0102
:10140000882777FD8095982F0E94691D20E030E0A5
:101410004AE754E40E941D1EA50194010E94CE1CBF
:10142000C557DF4F688379838A839B83CB58D0402D
:10143000CE01CA960E94B30CCE0101960E94B30C55
:1014400020E030E04AE753E4C957DF4F68817981F3
:101450008A819B81C758D0400E94191E181664F4D7
:1014600080E090E0AAE7B3E4C957DF4F888399830F
:10147000AA83BB83C758D04020E030E04AE753E45A
:10148000CD57DF4F688179818A819B81C358D040D5
:101490000E94191E181664F480E090E0AAE7B3E4F5
:1014A000CD57DF4F88839983AA83BB83C358D0402D
:1014B00020E030E0A901C957DF4F688179818A8136
:1014C0009B81C758D0400E94CA1C87FF08C0C957DB
:1014D000DF4F188219821A821B82C758D04020E041
:1014E00030E0A901CD57DF4F688179818A819B81E6
:1014F000C358D0400E94CA1C87FF08C0CD57DF4F99
:10150000188219821A821B82C358D040C957DF4FF4
:10151000688179818A819B81C758D0400E94361D9D
:10152000C8010E94FA0BCD57DF4F688179818A810B
:101530009B81C358D0400E94361DC956DF4F888119
:101540009981C759D0400E94FA0B87CE60E070E0C5
:10155000C956DF4F88819981C759D0400E94FA0B44
:1015600060E070E0C8010E94FA0B68EC70E080E077
:1015700090E00E9410156AE072E087E793E00E9415
:101580004E1A87E793E00E945C18CE0187589F4F60
:101590000E94971ACA55DF4F0FB6F894DEBF0FBEF0
:1015A000CDBFDF91CF911F910F91FF90EF90DF9012
:1015B000CF90BF90AF909F908F907F906F905F90F3
:1015C0004F903F902F9008950F931F93CF93DF93E9
:1015D000EC018C010E581F4F61E070E0C8010E94C1
:1015E000021CFC018081893409F454C0823521F049
:1015F000843409F056C017C062E070E0C8010E9450
:10160000021CFC018081843439F4CE01DF91CF913A
:101610001F910F910C944C04CE01DF91CF911F913B
:101620000F910C94A30362E070E0C8010E94021CB9
:10163000FC018081843539F563E070E0C8010E94C7
:10164000021CFC018081873439F4CE01DF91CF91F7
:101650001F910F910C94400363E070E0C8010E9459
:10166000021CFC018081833539F4CE01DF91CF91DA
:101670001F910F910C946803CE01DF91CF911F91C0
:101680000F910C947C05CE01DF91CF911F910F91AA
:101690000C94EF05CE01DF91CF911F910F910C9427
:1016A000B704CE01DF91CF911F910F910C94A90443
:1016B000BF92CF92DF92EF92FF920F931F93CF933F
:1016C000DF93EC018C0107581F4F7C0182E7E80E85
:1016D000F11C6E01E8E7CE0ED11CBB24B39487E762
:1016E00093E00E94D117181619068CF487E793E04F
:1016F0000E94EA17F8018083682FC7010E94A21B8D
:10170000F80180818A3059F7F601B082E8CF64E6AB
:1017100070E080E090E00E9410158E0108581F4F85
:10172000F80180818823B9F07E01F2E7EF0EF11C09
:1017300060E070E0C7010E94021CFC0180818432DD
:1017400051F4CE010E94E40A6EE072E0C7010E94EB
:10175000321BF8011082DF91CF911F910F91FF9002
:10176000EF90DF90CF90BF900895CF93DF93EC017F
:1017700081E090E0998388831B821A821D821C82FB
:101780001F821E82198618860E94ED146A877B8745
:101790008C879D87DF91CF910895FC018281938191
:1017A0000895FC01848195810895FC01738362830F
:1017B0000895FC01758364830895FC014287538773
:1017C000648775870895FC01628573858485958596
:1017D00008950F931F93FC017183608353834283A9
:1017E00035832483178216821286118700871F9102
:1017F0000F910895FC0180810C949A15FC0160877B
:10180000718782810C94ED16CF92DF92EF92FF9256
:101810000F931F93FC01718360835383428331874D
:10182000208713870287E686F786C486D5861482CA
:1018300015821682178281E0808B60E08C2D0E94D9
:10184000B41661E08C2D0E94ED1660E08E2D1F9184
:101850000F91FF90EF90DF90CF900C94B416CF9340
:10186000DF93EC018889882321F18A859B85892B68
:1018700051F48E850E9423174C815D816E817F819A
:10188000019751F40EC08E850E9423174C815D8113
:101890006E817F81019729F44F5F5F4F6F4F7F4FBC
:1018A00004C041505109610971094C835D836E8305
:1018B0007F83DF91CF910895CF92DF92EF92FF92D5
:1018C000CF93DF93EC016C817D818E819F81660FC8
:1018D000771F881F991F0E94691D2BED3FE049E487
:1018E00050E40E941D1E6B017C016A817B81882768
:1018F00077FD8095982F0E94691D9B01AC01C7015F
:10190000B6010E94CE1C28853985232B31F420E0B6
:1019100030E04CE852E40E94CE1C20E030E04FEB77
:1019200052E40E941D1E0E94361DCB01DF91CF9113
:10193000FF90EF90DF90CF900895FC018481958116
:10194000089521E0FC01208B0895FC01108A089580
:10195000AB01662757FD6095762FFC0144835583C4
:101960006683778308952F923F924F925F926F9292
:101970007F928F929F92AF92BF92CF92DF92EF921F
:10198000FF920F931F93CF93DF93CDB7DEB72B97C3
:101990000FB6F894DEBF0FBECDBF9B878A87DC01F0
:1019A000D896BC91B983B11102C01982E2C00E94DD
:1019B000E1146A837B838C839D83EA85FB8580A108
:1019C00091A1A2A1B3A14A815B816C817D81481B59
:1019D000590B6A0B7B0B84A595A5A6A5B7A548173F
:1019E00059076A077B0708F3028CF38DE02D80808E
:1019F0009180A280B380AA85BB855E96ED91FC9113
:101A00005F97A501940160817181828193810E9419
:101A1000651C2B013C01EA85FB85208931894289BF
:101A200053890E941D1EAA85BB8594962D913D91D8
:101A30004D915C9197970E94661C6B017C01EA8531
:101A4000FB8564A375A386A397A324A835A806A93C
:101A500017A99101A8010E94191E18161CF4C101B2
:101A6000D80118C0AA85BB85D0968D919D910D9007
:101A7000BC91A02D8E839F83A887B9879C01AD015F
:101A8000C701B6010E94CA1C87FF0AC08E819F81D0
:101A9000A885B985EA85FB8584A395A3A6A3B7A3EA
:101AA000AA85BB851C962D913D914D915C911F9708
:101AB000C301B2010E941D1EEA85FB8524A135A148
:101AC00046A157A10E94661C6B017C01AA85BB85BB
:101AD00098962D913D914D915C919B97C501B401D4
:101AE0000E94651CEA85FB852489358946895789CA
:101AF0000E941D1E9B01AC01C701B6010E94651C1E
:101B00006B017C019101A8010E94191E1816BCF0FE
:101B1000AA85BB85D0962C90D097D1963C90D19732
:101B2000D2960C91D297D3961C919101A801B6013F
:101B3000C7010E94CA1C87FD02C016018701AA8541
:101B4000BB855C96ED91FC915D97C101D8018083C6
:101B50009183A283B383EA85FB8580A691A6A2A682
:101B6000B3A68A819B81AC81BD8180A391A3A2A3EE
:101B7000B3A389812B960FB6F894DEBF0FBECDBFFD
:101B8000DF91CF911F910F91FF90EF90DF90CF9059
:101B9000BF90AF909F908F907F906F905F904F908D
:101BA0003F902F9008952F923F924F925F926F92A5
:101BB0007F928F929F92AF92BF92CF92DF92EF92DD
:101BC000FF920F931F93CF93DF9300D01F92CDB757
:101BD000DEB71C012A013B014801590120E030E039
:101BE000A901C301B2010E94CA1C87FD78C020E090
:101BF00030E0A901C501B4010E94CA1C87FD6FC075
:101C000020E030E0A901C701B6010E94CA1C87FD8F
:101C100066C0F10140825182628273828482958221
:101C2000A682B782C086D186E286F38664A575A5B2
:101C300086A597A50E94671D20E030E04AE754E49E
:101C40000E94CE1C69837A838B839C83F101448636
:101C50005586668677869B01AC01C501B4010E945A
:101C60001D1E4B015C01F101608B718B828B938B8C
:101C700029813A814B815C81C701B6010E94CE1C4B
:101C80006B017C01F101648B758B868B978B808D4A
:101C9000918D019721F5A301920160E070E0CB01E5
:101CA0000E94651CF1016487758786879787A50167
:101CB000940160E070E0CB010E94651CF101608B33
:101CC000718B828B938BA701960160E070E0CB0152
:101CD0000E94651CF101648B758B868B978B0F902E
:101CE0000F900F900F90DF91CF911F910F91FF9068
:101CF000EF90DF90CF90BF90AF909F908F907F90AC
:101D00006F905F904F903F902F9008958F929F9289
:101D1000AF92BF92CF92DF92EF92FF92CF93DF9379
:101D2000EC01EC8DFD8DC080D180E280F380CCA2EF
:101D3000DDA2EEA2FFA2EA8DFB8D80819181A281BE
:101D4000B38188A799A7AAA7BBA78CA89DA8AEA86E
:101D5000BFA8A5019401C701B6010E94191E18165B
:101D600064F088A899A8AAA8BBA8A5019401C701F6
:101D7000B6010E94CA1C87FF04C08CA29DA2AEA21D
:101D8000BFA2DF91CF91FF90EF90DF90CF90BF90F7
:101D9000AF909F908F9008951F93CF93DF93EC01A6
:101DA00011E06130710509F010E088AD91E08927FC
:101DB000181303C0CE010E94860E18AFDF91CF9199
:101DC0001F9108950F931F93CF93DF93EC018B0125
:101DD00088AD882361F1888D998D6817790739F16D
:101DE0002C853D854E855F8560E070E0CB010E94CB
:101DF000651C6C877D878E879F87288939894A89EA
:101E00005B8960E070E0CB010E94651C688B798B78
:101E10008A8B9B8B2C893D894E895F8960E070E0BD
:101E2000CB010E94651C6C8B7D8B8E8B9F8B198FD9
:101E3000088FDF91CF911F910F9108954F925F927C
:101E40006F927F928F929F92AF92BF92CF92DF92CA
:101E5000EF92FF920F931F93CF93DF9300D01F92C7
:101E6000CDB7DEB74C0127013801A982BA82CB82F7
:101E7000DC82FC01558F448F738F628F378F268FE2
:101E800010AE10AA11AA12AA13AA80E090E0AFE740
:101E9000B3E484AB95ABA6ABB7AB84E690E0A0E02F
:101EA000B0E084A795A7A6A7B7A76C8D7D8DC401C8
:101EB0000E94E20EC88CD98CEA8CFB8C09811A81B5
:101EC0002B813C81B301A201C4010E94D30D0E9469
:101ED000E114F40144A455A466A477A46419750917
:101EE0008609970960A371A382A393A30F900F9013
:101EF0000F900F90DF91CF911F910F91FF90EF9076
:101F0000DF90CF90BF90AF909F908F907F906F9019
:101F10005F904F900895CF93DF93EC01822F4A8317
:101F20005B836C837D832E833F8360E00E94B416C5
:101F300019821882DF91CF910895CF93DF93EC013E
:101F400020E432E44FE050E061E08E810E944C17C3
:101F5000882777FD8095982F0E94691D2A813B81F3
:101F60004C815D810E94CE1C0E94361D798368835E
:101F7000CB01DF91CF910895CF92DF92EF92FF9244
:101F80000F931F93CF93DF936C018B017A01EC01C8
:101F9000C653DD4F888187FF04C0FB011182108288
:101FA00023C02CE02C9DC0012D9D900D1124288173
:101FB000AC01420F511D27FD5A952091C90230E016
:101FC000421753078CF42881AC01420F511D27FDA5
:101FD0005A959A01FA01EE0FFF1FE20FF31FE25329
:101FE000FD4F208126FD19C088818F5F88838CE09A
:101FF0008C9D90018D9D300D11248881A901480F81
:10200000511D87FD5A958091C90290E048175907E4
:10201000B4F488818C303CF112C02881820F911D6C
:1020200027FD9A95FC01EE0FFF1FE80FF91FE25301
:10203000FD4F808160E08F730E94ED16D5CFF801CF
:1020400080819181049680349C4918F480E49CE955
:1020500004C0F801808191810496F7019183808307
:102060008FEF888341C0F801808191814881B90157
:10207000640F711D47FD7A95AB01FB01EE0FFF1F49
:10208000E40FF51FE253FD4F41815281840F951FEC
:10209000F701918380838881A901480F511D87FD35
:1020A0005A95FA01EE0FFF1FE40FF51FE253FD4FA3
:1020B000808186FF19C08881280F311D87FD3A95E0
:1020C000F901EE0FFF1FE20FF31FE253FD4F808176
:1020D00061E08F73DF91CF911F910F91FF90EF908F
:1020E000DF90CF900C94ED16DF91CF911F910F915F
:1020F000FF90EF90DF90CF9008951F920F920FB650
:102100000F9211240BB60F922F933F934F935F932F
:102110006F937F938F939F93AF93BF93EF93FF93AF
:1021200048E850E064E870E081E090E00E94BC0F75
:10213000FF91EF91BF91AF919F918F917F916F919F
:102140005F914F913F912F910F900BBE0F900FBE5B
:102150000F901F9018951F920F920FB60F92112497
:102160000BB60F922F933F934F935F936F937F9391
:102170008F939F93AF93BF93EF93FF9348E950E002
:1021800064E970E082E090E00E94BC0FFF91EF9163
:10219000BF91AF919F918F917F916F915F914F917F
:1021A0003F912F910F900BBE0F900FBE0F901F907D
:1021B00018951F920F920FB60F9211240BB60F9223
:1021C0002F933F934F935F936F937F938F939F933F
:1021D000AF93BF93EF93FF9348EA50E064EA70E057
:1021E00083E090E00E94BC0FFF91EF91BF91AF910F
:1021F0009F918F917F916F915F914F913F912F911F
:102200000F900BBE0F900FBE0F901F9018951F924E
:102210000F920FB60F9211240BB60F922F933F938C
:102220004F935F936F937F938F939F93AF93BF93DE
:10223000EF93FF9348E251E064E271E080E090E0C8
:102240000E94BC0FFF91EF91BF91AF919F918F9131
:102250007F916F915F914F913F912F910F900BBEA6
:102260000F900FBE0F901F9018952091C902203338
:10227000A0F431E0320F3093C902FC012083822F99
:1022800090E0FC01EE0FFF1FE80FF91FE253FD4F36
:1022900088EB9BE09283818308952FEFFC012083DC
:1022A0000895DF92EF92FF920F931F93CF93DF93E6
:1022B000EC01D62E7A0189018881803308F068C04C
:1022C00061E08D2D0E94B4168881A82FB0E0FD0139
:1022D000EE0FFF1FEA0FFB1FE253FD4F2D2D2F7353
:1022E0009081907C922B908360E272E06E197F095E
:1022F00077FF02C06D5F7F4F759567957595679500
:10230000698340E659E0401B510B57FF02C04D5F07
:102310005F4F55954795559547954A836CE00E94C8
:10232000901E9CE0899FB001112420E030E0A901BB
:10233000460F571FFA01EE0FFF1FE40FF51FE25380
:10234000FD4F908196FD18C02F5F3F4F2C30310517
:1023500071F790E08130910521F51092800082E0C4
:10236000809381001092850010928400B19A809130
:102370006F00826080936F00888190E0FC01EE0F17
:10238000FF1FE80FF91FE253FD4F808180648083B7
:102390008881DF91CF911F910F91FF90EF90DF9097
:1023A00008958230910569F41092900082E0809344
:1023B0009100109295001092940088BB8093710058
:1023C000DBCF8330910569F41092A00082E0809306
:1023D000A1001092A5001092A40089BB8093720006
:1023E000CBCF892B49F61092200182E08093210106
:1023F00010922501109224018ABB80937300BCCFF8
:1024000020E639E040E252E00C945111FC01808159
:10241000803370F5918128E830E0291B310997FD60
:102420003395220F331F220F331F621773077CF07F
:10243000928128E532E0291B310997FD3395220F5F
:10244000331F220F331F621773070CF49B014FB722
:10245000F89490E0FC01EE0FFF1FE80FF91FE25324
:10246000FD4F22503109220F331F328321834FBF8A
:1024700008954F925F926F927F92AF92BF92CF92E8
:10248000DF92EF92FF920F931F93CF93DF93EC01B4
:10249000603282E078070CF040C077FD06C0653BF3
:1024A00071052CF064EB70E002C060E070E089819F
:1024B00028E830E0281B310987FD3395220F331FB0
:1024C000220F331F5901CC24B7FCC094DC2C882781
:1024D00077FD8095982F2A8148E552E0421B5109EB
:1024E00027FD5395440F551F440F551F2A0166249D
:1024F00057FC6094762C7F926F925F924F9214EB10
:10250000E12EF12C00E010E020E030E0A9010E9473
:10251000501A0F900F900F900F90CE01DF91CF9136
:102520001F910F91FF90EF90DF90CF90BF90AF90F1
:102530007F906F905F904F900C940612883008F057
:102540006DC0E82FF0E0EE0FFF1FE25AFC4F7183E1
:10255000608390E0FC013197E730F10590F5EE588B
:10256000FF4F0C94F11E809169008C7F842B809327
:102570006900E89A089580916900440F551F440F3F
:10258000551F837F842B80936900E99A0895809179
:10259000690074E0440F551F7A95E1F78F7C842B16
:1025A00080936900EA9A08958091690066E0440F7B
:1025B000551F6A95E1F78F73842B80936900EB9A1E
:1025C000089580916A008C7F842B80936A00EC9A36
:1025D000089580916A00440F551F440F551F837F53
:1025E000842B80936A00ED9A089580916A0024E01C
:1025F000440F551F2A95E1F78F7C842B80936A0046
:10260000EE9A089580916A0096E0440F551F9A95BE
:10261000E1F78F73842B80936A00EF9A08951F92DD
:102620000F920FB60F9211240BB60F922F933F9378
:102630004F935F936F937F938F939F93AF93BF93CA
:10264000EF93FF938091620390916303892B29F0AC
:10265000E0916203F09163031995FF91EF91BF91AF
:10266000AF919F918F917F916F915F914F913F912A
:102670002F910F900BBE0F900FBE0F901F901895CB
:102680001F920F920FB60F9211240BB60F922F9339
:102690003F934F935F936F937F938F939F93AF93EA
:1026A000BF93EF93FF938091640390916503892B0F
:1026B00029F0E0916403F09165031995FF91EF9182
:1026C000BF91AF919F918F917F916F915F914F914A
:1026D0003F912F910F900BBE0F900FBE0F901F9048
:1026E00018951F920F920FB60F9211240BB60F92EE
:1026F0002F933F934F935F936F937F938F939F930A
:10270000AF93BF93EF93FF9380916603909167031C
:10271000892B29F0E0916603F09167031995FF91E9
:10272000EF91BF91AF919F918F917F916F915F9149
:102730004F913F912F910F900BBE0F900FBE0F90B6
:102740001F9018951F920F920FB60F9211240BB67F
:102750000F922F933F934F935F936F937F938F933A
:102760009F93AF93BF93EF93FF93809168039091F2
:102770006903892B29F0E0916803F09169031995A9
:10278000FF91EF91BF91AF919F918F917F916F9149
:102790005F914F913F912F910F900BBE0F900FBE05
:1027A0000F901F9018951F920F920FB60F92112441
:1027B0000BB60F922F933F934F935F936F937F933B
:1027C0008F939F93AF93BF93EF93FF9380915E039B
:1027D00090915F03892B29F0E0915E03F0915F03F4
:1027E0001995FF91EF91BF91AF919F918F917F913B
:1027F0006F915F914F913F912F910F900BBE0F9072
:102800000FBE0F901F9018951F920F920FB60F9248
:1028100011240BB60F922F933F934F935F936F93B7
:102820007F938F939F93AF93BF93EF93FF93809189
:10283000600390916103892B29F0E0916003F0918E
:1028400061031995FF91EF91BF91AF919F918F9186
:102850007F916F915F914F913F912F910F900BBEA0
:102860000F900FBE0F901F9018951F920F920FB6EA
:102870000F9211240BB60F922F933F934F935F93B8
:102880006F937F938F939F93AF93BF93EF93FF9338
:1028900080916A0390916B03892B29F0E0916A0380
:1028A000F0916B031995FF91EF91BF91AF919F91BB
:1028B0008F917F916F915F914F913F912F910F90E9
:1028C0000BBE0F900FBE0F901F9018951F920F9286
:1028D0000FB60F9211240BB60F922F933F934F9385
:1028E0005F936F937F938F939F93AF93BF93EF9378
:1028F000FF9380916C0390916D03892B29F0E091F7
:102900006C03F0916D031995FF91EF91BF91AF9119
:102910009F918F917F916F915F914F913F912F91F7
:102920000F900BBE0F900FBE0F901F9018951F9227
:102930000F920FB60F9211242F933F938F939F9373
:10294000AF93BF9380916F0390917003A091710337
:10295000B091720330916E0323E0230F2D3720F4E2
:102960000196A11DB11D05C026E8230F0296A11DE9
:10297000B11D20936E0380936F0390937003A09317
:102980007103B09372038091730390917403A091CB
:102990007503B09176030196A11DB11D8093730359
:1029A00090937403A0937503B0937603BF91AF9196
:1029B0009F918F913F912F910F900FBE0F901F907D
:1029C00018952FB7F89460916F0370917003809100
:1029D0007103909172032FBF08953FB7F8948091CF
:1029E000730390917403A0917503B091760326B59B
:1029F000A89B05C02F3F19F00196A11DB11D3FBF37
:102A00006627782F892F9A2F620F711D811D911DC6
:102A100042E0660F771F881F991F4A95D1F70895E6
:102A2000CF92DF92EF92FF92CF93DF936B017C0105
:102A30000E94ED14EB01C114D104E104F10489F00A
:102A40000E94641C0E94ED146C1B7D0B683E734059
:102A500090F381E0C81AD108E108F108C851DC4FB1
:102A6000EACFDF91CF91FF90EF90DF90CF90089564
:102A7000789484B5826084BD84B5816084BD85B559
:102A8000826085BD85B5816085BDEEE6F0E0808120
:102A900081608083E1E8F0E0108280818260808341
:102AA000808181608083E0E8F0E0808181608083C4
:102AB000E1EBF0E0808184608083E0EBF0E08081F6
:102AC00081608083E1E9F0E08081826080838081A1
:102AD00081608083E0E9F0E0808181608083E1EAC9
:102AE000F0E0808182608083808181608083E0EA81
:102AF000F0E0808181608083E1E2F1E080818260AA
:102B00008083808181608083E0E2F1E08081816068
:102B10008083EAE7F0E08081846080838081826046
:102B2000808380818160808380818068808310922F
:102B3000C10008951F93CF93DF93182FEB0161E03D
:102B40000E94B416209711F460E004C0CF3FD10575
:102B500039F461E0812FDF91CF911F910C94ED1634
:102B6000E12FF0E0E65EFD4F449150E0FA0131972D
:102B7000E231F10508F09BC0E758FF4F0C94F11EBD
:102B800084B5806884BDC7BD97C084B5806284BDAC
:102B9000C8BD92C080918000806880938000D093EF
:102BA0008900C093880088C08091800080628093F3
:102BB0008000D0938B00C0938A007EC080918000FB
:102BC000886080938000D0938D00C0938C0074C087
:102BD0008091B00080688093B000C093B3006CC057
:102BE0008091B00080628093B000C093B40064C054
:102BF00080919000806880939000D0939900C0935A
:102C000098005AC080919000806280939000D09389
:102C10009B00C0939A0050C0809190008860809380
:102C20009000D0939D00C0939C0046C08091A0006E
:102C300080688093A0008091A0008F7B8093A0008B
:102C4000D093A900C093A80037C08091A0008062F3
:102C50008093A000D093AB00C093AA002DC08091B8
:102C6000A00088608093A000D093AD00C093AC001A
:102C700023C080912001806880932001D093290196
:102C8000C093280119C080912001806280932001A7
:102C9000D0932B01C0932A010FC08091200188603E
:102CA00080932001D0932D01C0932C0105C0C03822
:102CB000D1050CF04ECF48CFDF91CF911F910895F1
:102CC00090E0FC013197E231F10508F04CC0E55786
:102CD000FF4F0C94F11E809180008F7703C080918C
:102CE00080008F7D80938000089580918000877F91
:102CF000F9CF84B58F7702C084B58F7D84BD0895E8
:102D00008091B0008F7703C08091B0008F7D809359
:102D1000B0000895809190008F7707C08091900057
:102D20008F7D03C080919000877F809390000895ED
:102D30008091A0008F7707C08091A0008F7D03C095
:102D40008091A000877F8093A0000895809120014A
:102D50008F7707C0809120018F7D03C08091200173
:102D6000877F809320010895CF93DF9390E0FC014B
:102D7000E05AFD4F2491FC01EA55FD4F84918823D0
:102D800049F190E0880F991FFC01E05EFC4FA5918E
:102D9000B4918A5F9C4FFC01C591D4919FB761119A
:102DA00008C0F8948C91209582238C93888182238B
:102DB0000AC0623051F4F8948C91322F30958323FD
:102DC0008C938881822B888304C0F8948C91822B09
:102DD0008C939FBFDF91CF9108950F931F93CF9353
:102DE000DF931F92CDB7DEB7282F30E0F901E65E02
:102DF000FD4F8491F901E05AFD4F1491F901EA5514
:102E0000FD4F04910023C9F0882321F069830E94BB
:102E100060166981E02FF0E0EE0FFF1FEA5FFC4FC4
:102E2000A591B4919FB7F8948C91611103C010954E
:102E3000812301C0812B8C939FBF0F90DF91CF9195
:102E40001F910F910895CF93DF93282F30E0F90160
:102E5000E65EFD4F8491F901E05AFD4FD491F901EE
:102E6000EA55FD4FC491CC2391F081110E94601668
:102E7000EC2FF0E0EE0FFF1FE451FD4FA591B49150
:102E80002C912D2381E090E021F480E002C080E0CD
:102E900090E0DF91CF910895CF92DF92EF92FF9271
:102EA0000F931F93CF93DF9390E0FC01E05AFD4F07
:102EB000D491FC01EA55FD4F7491611102C0C0E04C
:102EC00001C0CD2FDA01C901BF70672F70E0660F16
:102ED000771F64517D4F00E010E09801FB01E59001
:102EE000F490F70140814D234C131EC06801790115
:102EF0004FEFC41AD40AE40AF40A081719072A077C
:102F00003B0709F442C097018601E8CF68017901C7
:102F1000FFEFCF1ADF0AEF0AFF0A081719072A077F
:102F20003B0799F197018601FB01E590F490F701C9
:102F300040814D234C13EACF801B910BA20BB30BA6
:102F400020E030E0A901FB01E590F490F701F0806A
:102F5000FD22FC120AC0281739074A075B07A9F0AF
:102F60002F5F3F4F4F4F5F4FEECFA8E1B0E00E9481
:102F7000F71E605F7F4F8F4F9F4F24E09695879598
:102F8000779567952A95D1F703C060E070E0CB0193
:102F9000DF91CF911F910F91FF90EF90DF90CF9035
:102FA0000895FC01818D228D90E0805C9F4F821BF3
:102FB00091098F7399270895FC01918D828D98173F
:102FC00031F0828DE80FF11D858D90E008958FEF2F
:102FD0009FEF0895FC01918D828D981761F0828D8D
:102FE000DF01A80FB11D5D968C91928D9F5F9F733D
:102FF000928F90E008958FEF9FEF089585EA99E111
:10300000892B41F080E090E0892B21F00E94A519E6
:10301000811125C080E090E0892B41F080E090E0B4
:10302000892B21F00E94000081111CC080E090E0FB
:10303000892B41F080E090E0892B21F00E94000074
:10304000811113C080E090E0892BA1F080E090E036
:10305000892B81F00E94000081110AC008950E940E
:103060000000D8CF0E940000E1CF0E940000EACF0C
:103070000C9400000895FC01848DDF01A80FB11DA0
:10308000A35ABF4F2C91848D90E001968F7399279E
:10309000848FA689B7892C93A089B1898C9180648B
:1030A0008C93938D848D981306C00288F389E02D4C
:1030B00080818F7D80830895CF93DF93EC01888D8D
:1030C0008823C9F0EA89FB89808185FD05C0A8892C
:1030D000B9898C9186FD0FC00FB607FCF5CF8081B2
:1030E00085FFF2CFA889B9898C9185FFEDCFCE01FC
:1030F0000E943B18E7CFDF91CF910895CF92DF92E6
:10310000FF920F931F93CF93DF931F92CDB7DEB73C
:103110006C01DC015B969C915B975C968C915C9753
:10312000981307C05096ED91FC915197808185FDD1
:1031300032C0F601038D10E00F5F1F4F0F73112790
:10314000F02EF601848DF81211C00FB607FCF9CFEE
:10315000D6015096ED91FC915197808185FFF1CF7A
:10316000C60169830E943B186981EBCF838DE80F0C
:10317000F11DE35AFF4F6083D6015B960C935B977A
:103180005296ED91FC91539780818062808381E01B
:1031900058968C930DC0D6015696ED91FC91579799
:1031A00060835096ED91FC9151978081806480837B
:1031B00081E090E00F90DF91CF911F910F91FF90F0
:1031C000DF90CF900895BF92CF92DF92EF92FF925F
:1031D000CF93DF93EC016A017B01B22EE889F98974
:1031E00082E08083411581EE580761057105A1F0E9
:1031F00060E079E08DE390E0A70196010E94B01EA7
:103200002150310941095109569547953795279520
:10321000211580E1380798F0E889F989108260E883
:1032200074E88EE190E0A70196010E94B01E215043
:103230003109410951095695479537952795EC85F0
:10324000FD853083EE85FF852083188EEC89FD890E
:10325000B082EA89FB89808180618083EA89FB8969
:10326000808188608083EA89FB898081806880838F
:10327000EA89FB8980818F7D8083DF91CF91FF90E8
:10328000EF90DF90CF90BF9008951F920F920FB6EE
:103290000F9211240BB60F922F938F939F93EF935E
:1032A000FF93E0918703F09188038081E0918D0383
:1032B000F0918E0382FD12C09081809190038F5F08
:1032C0008F7320919103821751F0E0919003F0E009
:1032D000E958FC4F958F8093900301C08081FF9146
:1032E000EF919F918F912F910F900BBE0F900FBE7A
:1032F0000F901F9018951F920F920FB60F921124E6
:103300000BB60F922F933F934F935F936F937F93DF
:103310008F939F93AF93BF93EF93FF9387E793E0D0
:103320000E943B18FF91EF91BF91AF919F918F91B8
:103330007F916F915F914F913F912F910F900BBEB5
:103340000F900FBE0F901F90189587E793E00E9493
:10335000D11721E0892B09F420E0822F08951092E3
:103360007A031092790388EE93E0A0E0B0E08093B6
:103370007B0390937C03A0937D03B0937E0380E353
:1033800092E0909378038093770385EC90E090939C
:1033900084038093830384EC90E09093860380936E
:1033A000850380EC90E0909388038093870381EC01
:1033B00090E090938A038093890382EC90E090934D
:1033C0008C0380938B0386EC90E090938E03809324
:1033D0008D03109290031092910310929203109219
:1033E0009303089508950E9438150E94F2190E94CF
:1033F000E301CEEFD7E10E9403022097E1F30E94A0
:10340000FE17F9CFCF92DF92EF92FF920F931F93A7
:10341000CF93DF936C017A01EB01E60EF71E00E01B
:1034200010E0CE15DF0561F06991D601ED91FC91B8
:103430000190F081E02DC6011995080F191FF1CFF9
:10344000C801DF91CF911F910F91FF90EF90DF9016
:10345000CF9008956115710581F0DB010D9000207A
:10346000E9F7AD0141505109461B570BDC01ED91C5
:10347000FC910280F381E02D199480E090E00895A2
:10348000DC01ED91FC91DB0114964D915C91159757
:103490006D917C910280F381E02D19940C942A1A8D
:1034A0004F925F926F927F92AF92BF92CF92DF92D4
:1034B000EF92FF920F931F93CF93DF93CDB7DEB7B9
:1034C00029013A01621B730B840B950B2A893B89F6
:1034D0004C895D892A193B094C095D092A8B3B8B74
:1034E0004C8B5D8B9B01AC016A897B898C899D89A2
:1034F0000E94801EE418F50806091709A801970123
:103500000E94D21E2A0D3B1D4C1D5D1DCA01B90132
:10351000DF91CF911F910F91FF90EF90DF90CF90AF
:10352000BF90AF907F906F905F904F900895FC0197
:10353000808191810C94C11FCF93DF93EC0188812E
:103540009981009711F00E94C11F198218821D8273
:103550001C821B821A82DF91CF9108950F931F93D3
:10356000CF93DF93EC018B016F5F7F4F888199814F
:103570000E945020009731F0998388831B830A832F
:1035800081E001C080E0DF91CF911F910F910895FC
:10359000CF93DF93EC0188819981892B29F08A816F
:1035A0009B818617970760F4CE010E94AE1A88238C
:1035B00041F08C819D81892B19F4E881F981108279
:1035C00081E0DF91CF910895EF92FF920F931F93C7
:1035D000CF93DF93EC017B018A01BA010E94C81AE4
:1035E000811104C0CE010E949C1A07C01D830C8368
:1035F000B701888199810E947221CE01DF91CF911C
:103600001F910F91FF90EF900895FC01118210829D
:1036100013821282158214826115710559F0FB0123
:1036200001900020E9F7AF0141505109461B570BAB
:103630000C94E41A0895CF93DF93EC01FB018617F5
:10364000970761F0608171816115710529F04481EE
:1036500055810E94E41A02C00E949C1ACE01DF919B
:10366000CF910895CF93DF93EC016115710561F05F
:10367000FB0101900020E9F7AF0141505109461BC1
:10368000570B0E94E41A02C00E949C1ACE01DF91DF
:10369000CF9108950F931F93CF93DF93CDB7DEB7EC
:1036A00062970FB6F894DEBF0FBECDBF8C01CB0181
:1036B000F80111821082138212821582148250E066
:1036C000BE016F5F7F4F0E947921BE016F5F7F4F08
:1036D000C8010E94321B62960FB6F894DEBF0FBE7F
:1036E000CDBFDF91CF911F910F910895EF92FF927F
:1036F0000F931F93CF93DF93EC017B010C811D810E
:103700006115710511F480E016C04115510591F065
:10371000040F151FB8010E94C81A8823A1F328813D
:1037200039818C819D81B701820F931F0E94722184
:103730001D830C8381E0DF91CF911F910F91FF904A
:10374000EF900895CF93DF931F921F92CDB7DEB70E
:1037500069831A8241E050E0BE016F5F7F4F0E9493
:10376000761B0F900F90DF91CF910895CF93DF9349
:10377000EC01FB0144815581608171810E94761BBF
:10378000811103C0CE010E949C1ACE01DF91CF911E
:103790000895CF93DF93EC016115710569F0FB018A
:1037A00001900020E9F7AF0141505109461B570B2A
:1037B0000E94761B811103C0CE010E949C1ACE018B
:1037C000DF91CF910895FC0124813581232B31F4C1
:1037D00021E061157105A1F0FB0108C0FC018081A9
:1037E00091816115710531F421E0FC01808188230C
:1037F00039F005C00E94692121E0892B09F020E001
:10380000822F0895FC01848195816817790720F43F
:1038100080819181009729F41092140484E194E04E
:103820000895860F971F0895BF92CF92DF92EF926F
:10383000FF920F931F93CF93DF936C017B01EA01FB
:1038400089012417350720F48D2FE901042F182F43
:103850006EE072E0C6010E94051BD70114968D919F
:103860009C911597C817D907C8F48017910708F4D9
:103870008C01D701ED91FC911197E00FF11FB08001
:1038800010826D917C916C0F7D1FC6010E94321BCE
:10389000D701ED91FC91E00FF11FB082C601DF91DD
:1038A000CF911F910F91FF90EF90DF90CF90BF903D
:1038B0000895FC0180819181009711F00C943921C9
:1038C00060E070E0CB01089508955058BB27AA2707
:1038D0000ED075C166D130F06BD120F031F49F3F2E
:1038E00011F41EF45BC10EF4E095E7FB51C1E92F22
:1038F00077D180F3BA17620773078407950718F02A
:1039000071F49EF58FC10EF4E0950B2EBA2FA02D09
:103910000B01B90190010C01CA01A0011124FF277C
:10392000591B99F0593F50F4503E68F11A16F04077
:10393000A22F232F342F4427585FF3CF4695379576
:103940002795A795F0405395C9F77EF41F16BA0B3B
:10395000620B730B840BBAF09150A1F0FF0FBB1FE9
:10396000661F771F881FC2F70EC0BA0F621F731F32
:10397000841F48F4879577956795B795F7959E3F8F
:1039800008F0B3CF9395880F08F09927EE0F97951D
:1039900087950895D9D008F481E008950CD00FC11F
:1039A00007D140F0FED030F021F45F3F19F0F0C0B5
:1039B000511139C1F3C014D198F39923C9F3552398
:1039C000B1F3951B550BBB27AA2762177307840712
:1039D00038F09F5F5F4F220F331F441FAA1FA9F3C8
:1039E00033D00E2E3AF0E0E830D091505040E695BA
:1039F000001CCAF729D0FE2F27D0660F771F881F1B
:103A0000BB1F261737074807AB07B0E809F0BB0B09
:103A1000802DBF01FF2793585F4F2AF09E3F51052D
:103A200068F0B6C000C15F3FECF3983EDCF38695CA
:103A300077956795B795F7959F5FC9F7880F911DA3
:103A40009695879597F90895E1E0660F771F881F8F
:103A5000BB1F621773078407BA0720F0621B730B42
:103A6000840BBA0BEE1F88F7E095089504D0689494
:103A7000B111D9C00895BCD088F09F5790F0B92FEC
:103A80009927B751A0F0D1F0660F771F881F991FB3
:103A90001AF0BA95C9F712C0B13081F0C3D0B1E0C5
:103AA0000895C0C0672F782F8827B85F39F0B93FD5
:103AB000CCF3869577956795B395D9F73EF49095B5
:103AC0008095709561957F4F8F4F9F4F0895E89433
:103AD00009C097FB3EF490958095709561957F4F56
:103AE0008F4F9F4F9923A9F0F92F96E9BB27939504
:103AF000F695879577956795B795F111F8CFFAF414
:103B0000BB0F11F460FF1BC06F5F7F4F8F4F9F4F44
:103B100016C0882311F096E911C0772321F09EE8A2
:103B2000872F762F05C0662371F096E8862F70E008
:103B300060E02AF09A95660F771F881FDAF7880FE2
:103B40009695879597F90895990F0008550FAA0B38
:103B5000E0E8FEEF16161706E807F907C0F01216A0
:103B60001306E407F50798F0621B730B840B950BA3
:103B700039F40A2661F0232B242B252B21F40895F8
:103B80000A2609F4A140A6958FEF811D811D089595
:103B900097F99F6780E870E060E008959FEF80EC00
:103BA000089500240A9416161706180609060895A3
:103BB00000240A9412161306140605060895092E09
:103BC0000394000C11F4882352F0BB0F40F4BF2B78
:103BD00011F460FF04C06F5F7F4F8F4F9F4F0895B8
:103BE00057FD9058440F551F59F05F3F71F04795AE
:103BF000880F97FB991F61F09F3F79F08795089593
:103C0000121613061406551FF2CF4695F1DF08C0B1
:103C1000161617061806991FF1CF869571056105CE
:103C200008940895E894BB2766277727CB0197F976
:103C300008958ADF08F48FEF08950BD0C0CFB1DF6D
:103C400028F0B6DF18F0952309F0A2CFA7CF1124F2
:103C5000EACFC6DFA0F3959FD1F3950F50E0551F33
:103C6000629FF001729FBB27F00DB11D639FAA27D1
:103C7000F00DB11DAA1F649F6627B00DA11D661F20
:103C8000829F2227B00DA11D621F739FB00DA11D41
:103C9000621F839FA00D611D221F749F3327A00DFB
:103CA000611D231F849F600D211D822F762F6A2F97
:103CB00011249F5750408AF0E1F088234AF0EE0F1C
:103CC000FF1FBB1F661F771F881F91505040A9F729
:103CD0009E3F510570F05CCFA6CF5F3FECF3983E5E
:103CE000DCF3869577956795B795F795E7959F5F90
:103CF000C1F7FE2B880F911D9695879597F908952A
:103D0000DB018F939F930E94F71EBF91AF91A29FFB
:103D1000800D911DA39F900DB29F900D11240895C9
:103D2000991B79E004C0991F961708F0961B881F0D
:103D30007A95C9F78095089597FB072E16F400949D
:103D400007D077FD09D00E94061F07FC05D03EF47E
:103D5000909581959F4F0895709561957F4F089537
:103D6000A1E21A2EAA1BBB1BFD010DC0AA1FBB1F7F
:103D7000EE1FFF1FA217B307E407F50720F0A21BF1
:103D8000B30BE40BF50B661F771F881F991F1A945E
:103D900069F760957095809590959B01AC01BD0188
:103DA000CF010895052E97FB1EF400940E94E91E92
:103DB00057FD07D00E94B01E07FC03D04EF40C94B0
:103DC000E91E50954095309521953F4F4F4F5F4FDD
:103DD000089590958095709561957F4F8F4F9F4F77
:103DE0000895EE0FFF1F0590F491E02D19940E94A5
:103DF0001A1FA59F900DB49F900DA49F800D911D3B
:103E0000112408950790F691E02D1994AA1BBB1B6D
:103E100051E107C0AA1FBB1FA617B70710F0A61BCA
:103E2000B70B881F991F5A95A9F780959095BC01EB
:103E3000CD010895A29FB001B39FC001A39F700D53
:103E4000811D1124911DB29F700D811D1124911DA2
:103E50000895CF93DF938230910510F482E090E0D3
:103E6000E0911704F091180420E030E0A0E0B0E009
:103E7000309739F14081518148175907B8F04817F8
:103E8000590771F482819381109729F013969C93BE
:103E90008E9312972CC0909318048093170427C018
:103EA0002115310531F04217530718F0A901DB0144
:103EB00001C0EF019A01BD01DF010280F381E02D15
:103EC000D7CF21153105F9F0281B390B24303105E6
:103ED00080F48A819B816115710521F0FB01938338
:103EE000828304C09093180480931704FE013296D5
:103EF00044C0FE01E20FF31F8193919322503109D8
:103F0000398328833AC02091150430911604232B5D
:103F100041F4209102023091030230931604209361
:103F2000150420910002309101022115310541F460
:103F30002DB73EB74091040250910502241B350B6A
:103F4000E0911504F0911604E217F307A0F42E1B7C
:103F50003F0B2817390778F0AC014E5F5F4F2417ED
:103F6000350748F04E0F5F1F509316044093150419
:103F70008193919302C0E0E0F0E0CF01DF91CF9117
:103F80000895CF93DF93009709F487C0FC0132971F
:103F900013821282C0911704D0911804209781F4E3
:103FA00020813181280F391F8091150490911604CA
:103FB0008217930779F5F0931604E09315046DC00A
:103FC000DE0120E030E0AE17BF0750F412964D91AD
:103FD0005C9113979D014115510509F1DA01F3CF69
:103FE000B383A28340815181840F951F8A179B0759
:103FF00071F48D919C911197840F951F0296918376
:10400000808312968D919C911397938382832115BF
:10401000310529F4F0931804E09317043EC0D90148
:104020001396FC93EE9312974D915D91A40FB51FDB
:10403000EA17FB0779F480819181840F951F02961E
:10404000D90111969C938E938281938113969C93B0
:104050008E931297E0E0F0E08A819B81009719F03F
:10406000FE01EC01F9CFCE01029628813981820F41
:10407000931F20911504309116042817390769F40D
:10408000309729F4109218041092170402C013827A
:104090001282D0931604C0931504DF91CF91089536
:1040A0006F927F928F929F92AF92BF92CF92DF9248
:1040B000EF92FF920F931F93CF93DF93EC01CB010D
:1040C000209781F4DF91CF911F910F91FF90EF9096
:1040D000DF90CF90BF90AF909F908F907F906F9028
:1040E0000C94291FFE01E60FF71F9E012250310993
:1040F000E217F30708F4ACC0D9010D911C91119798
:1041000006171707B8F00530110508F49FC0A8017D
:10411000445051094617570708F498C00250110936
:10412000061B170B019311936D937C93CF010E9493
:10413000C11F8CC05B01A01AB10A4E01800E911EF6
:10414000A0911704B0911804612C712C60E070E00C
:10415000109709F449C0A815B905C9F5ED90FC9070
:104160001197670142E0C40ED11CCA14DB0478F138
:1041700047018A189B08640142E0C40ED11C1296C4
:10418000BC9012971396AC91B5E0CB16D10440F0D9
:10419000B282A38391828082D9018D939C9309C0BE
:1041A0000E5F1F4F0E0D1F1DF90111830083EB2DB4
:1041B000FA2F6115710531F0DB011396FC93EE9334
:1041C000129744C0F0931804E09317043FC06D9118
:1041D0007C9111976616770608F43B01BD01129693
:1041E0000D90BC91A02DB4CF609115047091160470
:1041F00068157905E9F468167906D0F44091000253
:10420000509101024115510541F44DB75EB76091DF
:10421000040270910502461B570BE417F507C0F422
:10422000F0931604E0931504F901918380830EC086
:104230000E94291F7C01009759F0A801BE010E942D
:104240006021CE010E94C11FC70104C0CE0102C07F
:1042500080E090E0DF91CF911F910F91FF90EF9060
:10426000DF90CF90BF90AF909F908F907F906F9096
:1042700008951F93FC0199278827BC01E8941191A8
:104280001032E9F3193010F01E30C8F31B3251F030
:104290001D3249F4689406C00E948F21610F711D80
:1042A000811D911D119110531A30B0F33EF4909579
:1042B0008095709561957F4F8F4F9F4F1F91089507
:1042C000FB01DC0102C001900D9241505040D8F733
:1042D0000895FB01DC018D91019080190110D9F343
:1042E000990B0895FB01DC0101900D920020E1F78C
:1042F00008954532510520F4423010F00C94842189
:10430000FB011082CB010895BB274A3031F4992379
:1043100022F4BDE2909581959F4F0C94A521592FD1
:10432000482F372F262F660F771F881F991F660F7C
:10433000771F881F991F620F731F841F951F660FB9
:10434000771F881F991F0895BB27FB015527AA27B0
:10435000880F991FAA1FA41710F0A41B8395505112
:10436000B9F7A05DAA3308F0A95DA193009779F78A
:10437000B111B1931192CB010C94BE21DC01FC016F
:10438000672F71917723E1F7329704C07C916D9389
:1043900070836291AE17BF07C8F3089513E0CEE3B0
:1043A000D3E000E006C022970109FE010BBF0E9486
:1043B000021FC034D10780E00807A9F7F894FFCFA7
:1043C000000019048000010000002444500A002469
:1043D00052500024525030002452503030002453A8
:1043E000500A002449500A005452410000000000C5
:0C43F0007E18021AD117EA17DC175C18BF
:00000001FF
