:1000000004C100002FC100002DC100002BC1000061
:1000100029C1000027C1000025C1000023C1000044
:1000200021C100001FC100001DC100001BC1000054
:1000300019C1000017C1000015C1000013C1000064
:1000400011C100000C94240B0DC100000BC1000075
:1000500009C1000007C1000005C100000C94510B4C
:1000600001C100000C94B40E0C940810FBC00000F9
:10007000F9C00000F7C00000F5C00000F3C00000A8
:100080000C94F70AEFC00000EDC00000EBC00000C8
:100090000C94F40E0C944710E5C00000E3C000007F
:1000A000E1C00000DFC000000C94CA0ADBC0000001
:1000B000D9C00000D7C00000D5C000000C949D0A34
:1000C000D1C00000CFC00000CDC000000C94340FA0
:1000D0000C948610C7C000000C94740F0C94C510CB
:1000E000C1C0000000002100240027002A002D00CC
:1000F0003000330001010000040107010A01000083
:100100002200250028002B002E00310034000201BF
:100110000000050108010B0100002000230026005B
:1001200029002C002F00320000010000030106010D
:10013000090105050505070508080808020202026D
:100140000A0A080804040404010101010101010173
:100150000303030303030303040707070C0C0C0C3E
:100160000C0C0C0C02020202060606060606060627
:100170000B0B0B0B0B0B0B0B0102102020080810B4
:100180002040102040800201020108040201010207
:1001900004081020408080402010080402018004E0
:1001A000020180402010080402010804020101023B
:1001B0000408102040800102040810204080000044
:1001C000090A02080B0C0D070603040100000000D9
:1001D000000000000000000000000000000000001F
:1001E0000000000000000000000011100F000000DF
:1001F00000000000000000000000000000000000FF
:1002000000000000D8013712D30111241FBECFEF28
:10021000D1E2DEBFCDBF00E00CBF12E0A0E0B2E053
:10022000E6EBF4E300E00BBF02C007900D92A435AB
:10023000B107D9F71BBE16E0A4E5B2E001C01D92DC
:10024000A032B107E1F712E0C8E0D2E004C0229783
:10025000FE010E944B1AC430D107C9F70E946E13E9
:100260000C944F1ACDCE1F93FC0199278827BC010F
:10027000E89411911032E9F3193010F01E30C8F3F0
:100280001B3249F01D3241F4689405C042D0610F21
:10029000711D811D911D119110531A30B8F33EF458
:1002A00090958095709561957F4F8F4F9F4F1F91CF
:1002B0000895FB01DC0102C001900D9241505040B5
:1002C000D8F70895FB01DC0101900D920020E1F7C1
:1002D0000895FB019F01E8944230C4F04532B4F424
:1002E0004A3029F497FB1EF4909581959F4F642F17
:1002F00077270E94351A805D8A330CF0895D8193DF
:10030000CB010097A1F716F45DE251931082C90169
:1003100015C0592F482F372F262F660F771F881F9C
:10032000991F660F771F881F991F620F731F841F05
:10033000951F660F771F881F991F0895DC01FC0128
:10034000672F71917723E1F7329704C07C916D9309
:1003500070836291AE17BF07C8F3089584E592E0F9
:10036000ABC484E592E003C58130910591F46F5FE1
:100370007F4FC1F484E592E0E8D588EB92E0ACD6FB
:100380008BEB92E0A9D68EEB92E060E072E00C94E9
:100390004615892B39F46F5F7F4F21F48EEB92E085
:1003A0000C941616089580E090E06FEF7FEFDCCF9D
:1003B00081E090E06FEF7FEFD7CF0F931F93CF9344
:1003C000DF938B0164EF71E080E090E00E94990B75
:1003D000C0E0D0E01FC08DE060E00E94E50D6AEF54
:1003E00070E080E090E00E94990B8DE061E00E9457
:1003F000E50D6AEF70E080E090E00E94990B8DE0DF
:1004000060E00E94E50D6AEF70E080E090E00E94FD
:10041000990B2196C017D107F4F2DF91CF911F916C
:100420000F9108958F929F92AF92BF92CF92DF92D9
:10043000EF92FF920F931F93DF93CF93CDB7DEB769
:100440002C970FB6F894DEBF0FBECDBF4C018AE6E5
:10045000C82ED12CC80CD91C7E010894E11CF11CBB
:10046000C701B60143E050E024E030E00E94BC1533
:10047000C7010E9464145B018E01095F1F4FC80110
:10048000B60145E050E026E030E00E94BC15C7010F
:10049000B8010E940116C8010E941616C7010E94E9
:1004A00064147B018C01C60162E070E00E944F146D
:1004B000FC0180818B3221F48AE590E0A80EB91E00
:1004C000C4018C599F4FB5015DD66FE070E080E0AC
:1004D00090E00E94990BC40189599F4FB70152D6F1
:1004E0006FE070E080E090E00E94990B83E995E076
:1004F00061E072E00E94061483E995E00E94E71132
:10050000CE0101960E9416162C960FB6F894DEBF07
:100510000FBECDBFCF91DF911F910F91FF90EF9054
:10052000DF90CF90BF90AF909F908F9008950F93E2
:100530001F9363E070E041DF03E915E0C80166E066
:1005400072E00E940614C8010E94E7111F910F91EA
:100550000895AF92BF92CF92DF92EF92FF920F93E6
:100560001F93DF93CF93CDB7DEB76E970FB6F89496
:10057000DEBF0FBECDBF7C01CE01019660E072E010
:100580000E9446158FEC92E07ED55C0196E7C92E5D
:10059000D12CCE0CDF1CF60180818823F9F08FEC82
:1005A00092E071D58C018FEC92E06DD524E730E0BC
:1005B000E20EF31E080F191FC8018A0D9B1D63E090
:1005C00070E00E94E51964517040F7017183608307
:1005D0002CE83FEFE20EF31EF601108224E730E034
:1005E000E20EF31EF701808191812CE83FEFE20ECD
:1005F000F31E8A199B09F701EE58FF4F9183808300
:1006000097FF02C0118210828E01095F1F4F82E79F
:1006100090E0E80EF91EF70160817181C8014AE09F
:100620000E948D157E010894E11CF11CC701B801E0
:100630000E940116C8010E9416168D819E8183308A
:10064000910539F48E01035F1F4FC8016BE072E022
:100650000FC0029739F48E010D5E1F4FC80161E192
:1006600072E006C08E01075E1F4FC80166E172E0AE
:100670000E945E15C801B7010E9413156FE072E079
:100680000E94F914BC0183E995E00E94A613C801F9
:100690000E941A1683E995E00E94E711CE010196A7
:1006A0000E9416166E960FB6F894DEBF0FBECDBF31
:1006B000CF91DF911F910F91FF90EF90DF90CF903E
:1006C000BF90AF9008952F923F924F925F926F929A
:1006D0007F928F929F92AF92BF92CF92DF92EF92D2
:1006E000FF920F931F93DF93CF93CDB7DEB7CA5618
:1006F000D0400FB6F894DEBF0FBECDBF7C015E01C7
:100700000894A11CB11CC50160E072E00E9446156E
:100710007AE6C72ED12CCE0CDF1CC60162E070E059
:100720000E944F14FC01E081EC3439F0E23509F409
:100730008CC0E23409F005C183C069E5662E712CD6
:100740006E0C7F1CC30160E070E01ED45EE4852E59
:10075000912C8E0C9F1CC40161E070E015D48E01B9
:10076000095F1F4FC801B60143E050E025E030E0CB
:100770000E94BC15C501B8010E940116C8010E9463
:100780001616C5010E946414870107581F4F28EEF2
:1007900033E0AB01429FB001439F700D529F700D3B
:1007A0001124882777FD8095982F0E94CB1825E388
:1007B0003AEF4EE85CE30E9457190E949818F8013E
:1007C000C080D180C61AD70A4CE2442E512C4E0C60
:1007D0005F1C3CE3A32EB12CAE0CBF1C780122C0E1
:1007E00064E670E080E090E0A4D7C201D5D38C012C
:1007F000C501D2D3800F911F62E070E00E94E5191D
:10080000CB01880F991F880F991F860F971FF7013B
:1008100091838083C30164E670E0BBD3C40164E6C6
:1008200070E0B7D3F70180819181C816D906C4F270
:10083000C30160E070E0ADD3C40160E070E0A9D313
:10084000AA24BB24CC24DD24ADC109E5602E712C83
:100850006E0C7F1CC30160E070E096D31EE4812E15
:10086000912C8E0C9F1CC40160E070E08DD38E0132
:10087000035F1F4FC801B60143E050E025E030E0C0
:100880000E94BC15C501B8010E940116C8010E9452
:100890001616C5010E94641428EE33E0AB01429F96
:1008A000B001439F700D529F700D1124882777FD72
:1008B0008095982F0E94CB1825E33AEF4EE85CE331
:1008C0000E9457190E9498186B01F701E758FF4FD3
:1008D00080819181C80ED91EBCE24B2E512C4E0C4A
:1008E0005F1CACE3AA2EB12CAE0CBF1C7F0122C052
:1008F00064E670E080E090E01CD7C2014DD38C012B
:10090000C5014AD3800F911F62E070E00E94E51993
:10091000CB01880F991F880F991F860F971FF7012A
:1009200091838083C30164E670E033D3C40164E63D
:1009300070E02FD3F701808191818C159D05C4F261
:1009400077CFE9E54E2E512C4E0C5F1CC20160E0C2
:1009500070E01AD37EE4672E712C6E0C7F1CC301ED
:1009600061E070E011D3C20160E070E012D3C30116
:1009700060E070E00ED38E010D5E1F4FC801B6011E
:1009800043E050E026E030E00E94BC15C501B8010C
:100990000E940116C8010E941616C5010E94641427
:1009A000CB014B0163E0880C991C6A95E1F7880F35
:1009B000991F880E991EF701E958FF4F8081918198
:1009C000880E991EA701445F5F4FA9965FAF4EAF97
:1009D000A997C7014C96A7969FAF8EAFA797A7017F
:1009E000445D5F4FA5965FAF4EAFA597C701CC960C
:1009F000A3969FAF8EAFA397AA24BB24CC24DD245B
:100A0000AB96FFAFEEAFAB974DE3242E312C2C0EFF
:100A10003D1EB6C068EC70E080E090E08AD6A996F2
:100A20008EAD9FADA997B8D28C01A7968EAD9FAD24
:100A3000A797B2D27C01A5968EAD9FADA597ACD2FB
:100A40006C01A3968EAD9FADA397A6D25C01C701A2
:100A5000800F911F62E070E00E94E519AB96EEAD49
:100A6000FFADAB9771836083A3968EAD9FADA397C7
:100A7000DFD2CE014F966CE172E00E945E15CE018E
:100A80004996B6014AE00E948D15CE014F96BE01EF
:100A9000675E7F4F0E941315BC0183E995E00E94B9
:100AA000D813CE0149960E941616CE014F960E9489
:100AB0001A16CE018B9661E272E00E945E15CE019D
:100AC0008596B5014AE00E948D15CE018B96BE0138
:100AD0006B5D7F4F0E941315BC0183E995E00E9476
:100AE000D813CE0185960E941616CE018B960E94D1
:100AF0001A16CE01C79666E272E00E945E15CE011C
:100B0000C196B8014AE00E948D15CE01C796BE017C
:100B10006F5C7F4F0E941315BC0183E995E00E9432
:100B2000D813CE01C1960E941616CE01C7960E9418
:100B30001A16CE018D5B9F4F6BE272E00E945E152C
:100B4000C101B7014AE00E948D15CE018D5B9F4F18
:100B5000B1010E941315BC0183E995E00E94D813EE
:100B6000C1010E941616CE018D5B9F4F0E941A167E
:100B7000C30162E370E00DD2C20162E370E009D20A
:100B8000AB96EEADFFADAB9780819181881599054D
:100B90000CF440CFC20160E070E0FBD1C30160E023
:100BA00070E0F7D13FE4E32EF12CEC0EFD1EC701FF
:100BB00060E372E00E945E158E01075B1F4FC80163
:100BC000B6014AE00E948D15C701B8010E941315B5
:100BD000BC0183E995E00E94D813C8010E94161653
:100BE000C7010E941A162BE5E22EF12CEC0EFD1E19
:100BF000C70164E372E00E945E158E010B5A1F4F1D
:100C0000C801B5014AE00E948D15C701B8010E94D4
:100C10001315BC0183E995E00E94D813C8010E9416
:100C20001616C7010E941A1683E995E068E372E080
:100C30000E94061483E995E00E94E711CE01019617
:100C40000E941616C659DF4F0FB6F894DEBF0FBECE
:100C5000CDBFCF91DF911F910F91FF90EF90DF906B
:100C6000CF90BF90AF909F908F907F906F905F904C
:100C70004F903F902F900895CF93DF93EC018659CA
:100C80009F4F61E070E00E944F14FC01E081E93465
:100C900059F0E23519F0E43451F403C0CE0159DCC7
:100CA00008C0CE0110DD05C0CE01BCDB02C0CE0104
:100CB0003EDCDF91CF910895BF92CF92DF92EF9209
:100CC000FF920F931F93CF93DF93EC018C01065992
:100CD0001F4FA1E7EA2EF12CE80EF91EF0E7CF2E08
:100CE000D12CC80ED91EBB24B39410C083E995E063
:100CF0000E94BE11682FF7018083C8010E94D5149D
:100D0000F70180818A3011F4F601B08283E995E021
:100D10000E948B11181619064CF364E670E080E00F
:100D200090E007D5E0E7EE2EF12CEC0EFD1EF7016A
:100D30008081882391F0C80160E070E00E944F1428
:100D4000FC018081843249F4CE0196DFC80160E065
:100D500072E00E947615F7011082DF91CF911F910A
:100D60000F91FF90EF90DF90CF90BF900895AF92DA
:100D7000BF92CF92DF92EF92FF920F931F93DF9378
:100D8000CF93CDB7DEB72A970FB6F894DEBF0FBE6C
:100D9000CDBF5C018E010F5F1F4FC801D6D0D501BA
:100DA000F8018AE001900D928150E1F78CE490E027
:100DB000A80EB91EF501118210828FEC92E06AE351
:100DC00070E044E050E077D186E290E0A80EB91ED2
:100DD000F501119211921192119281E08193119279
:100DE00011925F011182108287E89FEFA80EB91E51
:100DF000C5010C9662E070E040E058E021E030E090
:100E000000E010E0A8E1EA2EF12CF5E1CF2ED12C84
:100E100013D1C5014C9663E070E040E058E021E05A
:100E200030E001E010E0E9E1EE2EF12CB4E1CB2E50
:100E3000D12C02D1C5018C9664E070E040E250E014
:100E400020E030E000E010E0AAE1EA2EF12CF3E12E
:100E5000CF2ED12CF1D0C501CC9665E070E040E2F8
:100E600050E020E030E001E010E0EBE1EE2EF12C6C
:100E7000B2E1CB2ED12CE0D0C501825B9F4F67E061
:100E800070E04EE150E02FE130E000E010E06BD088
:100E9000C501875A9F4F68E070E040E250E021E2D0
:100EA00030E001E010E05FD087E061E0DBD58EE16B
:100EB00061E0D8D588E061E0D5D580E261E0D2D5A7
:100EC00087E060E082D688E060E07FD6C50189597E
:100ED0009F4F69E070E06CD2C5018C599F4F6AE06A
:100EE00070E066D28DE061E0BDD5E1E7F0E0AE0EE6
:100EF000BF1EF50110828FE89FEFA80EB91EC50135
:100F000086599F4F60E072E00E947615E0E7F0E0BE
:100F1000AE0EBF1EF501108283E995E040E052EC71
:100F200061E070E00E9404112A960FB6F894DEBFCB
:100F30000FBECDBFCF91DF911F910F91FF90EF902A
:100F4000DF90CF90BF90AF900895FC0181E090E0DA
:100F500091838083138212821582148217821682F3
:100F60001186108608950F931F93FC01718360838F
:100F70005383428335832483178216821286118716
:100F800000871F910F910895FC016087718782810E
:100F90001CC6FC01808188C4CF92DF92EF92FF9241
:100FA0000F931F936C01FC01648175818681978189
:100FB000660F771F881F991F0E94CB182BED3FE00B
:100FC00049E450E40E9457197B018C01F6016281CB
:100FD0007381882777FD8095982F0E94CB189B01FD
:100FE000AC01C801B7010E9430189B01AC01F601A9
:100FF00080859185892B51F4CA01B90120E030E048
:101000004CE852E40E9430189B01AC01CA01B901BE
:1010100020E030E04EEB52E40E9457190E949818ED
:10102000CB011F910F91FF90EF90DF90CF9008952B
:10103000FC01848195810895CF92DF92EF92FF9217
:101040000F931F93FC017183608353834283318725
:10105000208713870287E686F786C486D5861482A2
:101060001582168217828C2D60E0FCD48C2D61E0F5
:10107000ACD58E2D60E0F6D41F910F91FF90EF90CC
:10108000DF90CF9008950F931F938C01FC01848112
:1010900061E020E432E44FE050E0C9D5DC01CB014F
:1010A000F801628173810E94E519CB01608391830D
:1010B0001F910F9108950F931F938C01842FF801B6
:1010C000738362834483558360E0CCD4F80111823A
:1010D00010821F910F910895FC018091D5028033F9
:1010E00090F480838F5F8093D502815090E0FC0163
:1010F000EE0FFF1FE80FF91FEA52FD4F88EB9BE050
:101100009283818308958FEF80830895FC0120816D
:101110002033B8F58181992787FD909548E850E004
:10112000481B590B440F551F440F551F6417750773
:1011300084F08281992787FD909548E552E0481B0D
:10114000590B440F551F440F551F641775070CF4B6
:10115000AB0142505040CA01AA2797FDA095BA2F73
:10116000880F991FAA1FBB1F4FB7F89430E0F901F1
:10117000EE0FFF1FE20FF31FEA52FD4F92838183B0
:101180004FBF0895AF92BF92CF92DF92EF92FF923E
:101190000F931F93CF93DF93EC019B0182E06032AA
:1011A00078070CF048C077FF03C020E030E005C0AE
:1011B000653B710514F024EB30E000D00F92B901CB
:1011C000882777FD8095982F2981332727FD309533
:1011D000E8E8AE2EB12CA21AB30AAA0CBB1CAA0CCA
:1011E000BB1CCC24B7FCC094DC2CEA81FF27E7FDB4
:1011F000F09528E532E02E1B3F0B220F331F220F04
:10120000331F442737FD4095542FEDB7FEB7218398
:1012100032834383548320E030E040E050E004EB2D
:10122000E02EF12C012D112D0E9408149B010F902E
:101230000F900F900F90CE01B90168DFDF91CF9131
:101240001F910F91FF90EF90DF90CF90BF90AF90E4
:101250000895CF92DF92EF92FF921F93CF93DF9387
:10126000EC01162F7A0169018881803308F092C061
:10127000862F61E0F7D3888190E0FC01EE0FFF1F1D
:10128000E80FF91FEA52FD4F1F738081807C812B8C
:10129000808380E292E08E199F0964E070E00E94F2
:1012A000E519698380E699E08C199D0964E070E096
:1012B0000E94E5196A83A8818A2F6CE00E94D919DF
:1012C000682F70E0AB01440F551F460F571F440FA6
:1012D000551F440F551F20E030E0C901840F951FB2
:1012E000FC01EE0FFF1FE80FF91FEA52FD4F80814E
:1012F00086FD44C02F5F3F4F2C30310571F753C03E
:101300001092800082E080938100109285001092FC
:101310008400B19A80916F00826080936F002EC02C
:101320006230710569F41092900082E08093910020
:10133000109295001092940088BB809371001EC09B
:101340006330710569F41092A00082E08093A100DF
:101350001092A5001092A40089BB809372000EC069
:10136000672B61F41092200182E08093210110929A
:101370002501109224018ABB809373008A2F90E08C
:10138000FC01EE0FFF1FE80FF91FEA52FD4F8081AD
:10139000806480838881DF91CF911F91FF90EF90CF
:1013A000DF90CF9008956130710509F0B9CFA8CFD3
:1013B00040E252E020E639E04CCFEF92FF920F93EB
:1013C0001F93CF93DF938B017A01EC01DC01AA59C3
:1013D000BC4F8C9187FF04C0FB011182108236C084
:1013E000AE01440F551F4C0F5D1F440F551F440F96
:1013F000551F2C91332727FD3095240F351F8091E1
:10140000D50290E0281739070CF58C91992787FDB4
:101410009095840F951FFC01EE0FFF1FE80FF91F39
:10142000EA52FD4F808186FF11C08C91992787FD7C
:101430009095840F951FFC01EE0FFF1FE80FF91F19
:10144000EA52FD4F80818F7360E0BFD3DE01AA595D
:10145000BC4F8C918F5F8C93AE01440F551F4C0F86
:101460005D1F440F551F440F551F2C91332727FD37
:101470003095240F351F8091D50290E02817390749
:101480000CF04CC08C918C300CF048C0F8012081DD
:1014900031818C91992787FD9095840F951FFC01D0
:1014A000EE0FFF1FE80FF91FEA52FD4F8181928175
:1014B000280F391FF701318320838C91992787FDED
:1014C0009095840F951FFC01EE0FFF1FE80FF91F89
:1014D000EA52FD4F808186FF29C08C91992787FDB4
:1014E0009095840F951FFC01EE0FFF1FE80FF91F69
:1014F000EA52FD4F80818F7361E067D317C080E4AB
:101500009CE904C0F801808191810496F7019183E0
:101510008083CA59DC4F8FEF888308C0F80180812F
:101520009181049680549C4950F3ECCFDF91CF9188
:101530001F910F91FF90EF9008951F920F920FB699
:101540000F920BB60F9211242F933F934F935F93FB
:101550006F937F938F939F93AF93BF93EF93FF937B
:1015600080E090E064E271E048E251E026DFFF9124
:10157000EF91BF91AF919F918F917F916F915F910B
:101580004F913F912F910F900BBE0F900FBE0F9078
:101590001F9018951F920F920FB60F920BB60F92D5
:1015A00011242F933F934F935F936F937F938F9368
:1015B0009F93AF93BF93EF93FF9383E090E064EA30
:1015C00070E048EA50E0F9DEFF91EF91BF91AF91F2
:1015D0009F918F917F916F915F914F913F912F914B
:1015E0000F900BBE0F900FBE0F901F9018951F927B
:1015F0000F920FB60F920BB60F9211242F933F93B9
:101600004F935F936F937F938F939F93AF93BF930A
:10161000EF93FF9382E090E064E970E048E950E0E6
:10162000CCDEFF91EF91BF91AF919F918F917F9110
:101630006F915F914F913F912F910F900BBE0F9043
:101640000FBE0F901F9018951F920F920FB60F921A
:101650000BB60F9211242F933F934F935F936F9389
:101660007F938F939F93AF93BF93EF93FF9381E00B
:1016700090E064E870E048E850E09FDEFF91EF9171
:10168000BF91AF919F918F917F916F915F914F919A
:101690003F912F910F900BBE0F900FBE0F901F9098
:1016A00018951F920F920FB60F9211242F933F930C
:1016B0008F939F93AF93BF9380916E0390916F032D
:1016C000A0917003B0917103309172030196A11D36
:1016D000B11D232F2D5F2D3720F02D570196A11D11
:1016E000B11D2093720380936E0390936F03A093B8
:1016F0007003B093710380916A0390916B03A09182
:101700006C03B0916D030196A11DB11D80936A0316
:1017100090936B03A0936C03B0936D03BF91AF9153
:101720009F918F913F912F910F900FBE0F901F901F
:1017300018959B01AC017FB7F89480916A03909152
:101740006B03A0916C03B0916D0366B5A89B05C0B7
:101750006F3F19F00196A11DB11D7FBFBA2FA92FB0
:10176000982F8827860F911DA11DB11D62E0880F5B
:10177000991FAA1FBB1F6A95D1F7BC012DC0FFB7E7
:10178000F89480916A0390916B03A0916C03B091DF
:101790006D03E6B5A89B05C0EF3F19F00196A11DAA
:1017A000B11DFFBFBA2FA92F982F88278E0F911D2B
:1017B000A11DB11DE2E0880F991FAA1FBB1FEA956A
:1017C000D1F7861B970B885E9340C8F221503040BA
:1017D0004040504068517C4F21153105410551056D
:1017E00071F60895789484B5826084BD84B5816073
:1017F00084BD85B5826085BD85B5816085BDEEE619
:10180000F0E0808181608083E1E8F0E010828081F7
:1018100082608083808181608083E0E8F0E0808165
:1018200081608083E1EBF0E0808184608083E0EB85
:10183000F0E0808181608083E1E9F0E08081826076
:101840008083808181608083E0E9F0E08081816035
:101850008083E1EAF0E08081826080838081816022
:101860008083E0EAF0E0808181608083E1E2F1E062
:10187000808182608083808181608083E0E2F1E00A
:10188000808181608083EAE7F0E0808184608083EA
:101890008081826080838081816080838081806894
:1018A00080831092C10008951F93CF93DF93182F68
:1018B000EB0161E0D7D0209709F4CAC0CF3FD10532
:1018C00009F4C9C0E12FF0E0E254FE4F8491893061
:1018D00009F466C08A30B0F48430F1F1853040F408
:1018E000823059F1833070F5813009F0AEC020C0EC
:1018F000873009F443C0883008F048C0863009F0CA
:10190000A4C034C08D3009F478C08E3038F48B30E8
:1019100009F45AC08C3008F066C04CC0803109F41C
:1019200080C0813109F487C08F3009F08EC06FC04C
:1019300084B5806884BDC7BD91C084B5806284BD14
:10194000C8BD8CC080918000806880938000D09357
:101950008900C093880082C080918000806280935B
:101960008000D0938B00C0938A0078C08091B00033
:1019700080688093B000C093B30070C08091B000C5
:1019800080628093B000C093B40068C080919000E2
:10199000806880939000D0939900C09398005EC0B7
:1019A00080919000806280939000D0939B00C093C0
:1019B0009A0054C080919000886080939000D093EA
:1019C0009D00C0939C004AC08091A00080688093D5
:1019D000A0008091A0008F7B8093A000D093A900ED
:1019E000C093A8003BC08091A00080628093A000BB
:1019F000D093AB00C093AA0031C08091A000886052
:101A00008093A000D093AD00C093AC0027C080911C
:101A10002001806880932001D0932901C093280180
:101A20001DC080912001806280932001D0932B0102
:101A3000C0932A0113C08091200188608093200107
:101A4000D0932D01C0932C0109C0C038D1051CF4DE
:101A5000812F60E002C0812F61E0B7D0DF91CF918C
:101A60001F910895CF93DF93482F50E0CA01885803
:101A70009E4FFC0134914E5C5E4FFA0184918823A5
:101A800069F190E0880F991FFC01EC51FF4FA5917F
:101A9000B491FC01E250FF4FC591D491662351F4FB
:101AA0002FB7F8948C91932F909589238C938881EC
:101AB00089230BC0623061F42FB7F8948C91932F77
:101AC000909589238C938881832B88832FBF06C0B0
:101AD0009FB7F8948C91832B8C939FBFDF91CF910C
:101AE0000895893009F449C08A30A0F4843051F156
:101AF000853040F4823079F1833000F5813009F08F
:101B000063C026C0873079F1883098F5863009F0B7
:101B10005BC025C08D3009F442C08E3028F48B3074
:101B2000B1F18C30C0F52DC0803109F442C0813153
:101B300009F445C08F3009F047C037C0809180005C
:101B40008F7703C0809180008F7D809380000895FF
:101B500084B58F7702C084B58F7D84BD0895809150
:101B6000B0008F7703C08091B0008F7D8093B0006C
:101B70000895809190008F7707C0809190008F7DAD
:101B800003C080919000877F80939000089580919A
:101B9000A0008F7707C08091A0008F7D03C0809147
:101BA000A000877F8093A0000895809120018F7707
:101BB00003C0809120018F7D809320010895809142
:101BC0002001877F809320010895FF920F931F9338
:101BD000F62E482F50E0CA0182549E4FFC012491FA
:101BE000CA0188589E4FFC0114914E5C5E4FFA0169
:101BF00004910023C1F0222311F0822F72DFE02F25
:101C0000F0E0EE0FFF1FE250FF4FA591B4919FB798
:101C1000F894FF2021F48C911095812302C08C91BF
:101C2000812B8C939FBF1F910F91FF9008958F92EE
:101C30009F92AF92BF92CF92DF92EF92FF920F935B
:101C40001F93CF93DF93A82FB0E0CD0188589E4F0C
:101C5000FC018490AE5CBE4FFD018491662311F4BB
:101C6000992401C0982C6FEFA62E6FEFB62E6FEF60
:101C7000C62E6FE0D62EA222B322C422D522682F10
:101C800070E0660F771F685E7E4FEE24FF248701A9
:101C9000FB01A591B4910BC0EA14FB040C051D05D2
:101CA00009F44EC00894E11CF11C011D111D8C911A
:101CB0008821891589F30CC0EA14FB040C051D0565
:101CC00009F43EC00894E11CF11C011D111D03C064
:101CD000FB01A591B4918C918821891569F720E0C9
:101CE00030E040E050E0FB01C591D4910FC0DA0133
:101CF000C9018E0D9F1DA01FB11F8A159B05AC0544
:101D0000BD05F1F02F5F3F4F4F4F5F4F8881882116
:101D1000891569F3CA01B90125E130E040E050E0DE
:101D20000E94BA199B01AC01205F3F4F4F4F5F4F9C
:101D300084E056954795379527958A95D1F704C045
:101D400020E030E040E050E0B901CA01DF91CF91DE
:101D50001F910F91FF90EF90DF90CF90BF90AF90C9
:101D60009F908F90089508951F920F920FB60F9233
:101D70000BB60F9211242F933F934F938F939F9302
:101D8000EF93FF938091C00082FD1DC04091C6007B
:101D90002091B3033091B4032F5F3F4F2F73307006
:101DA0008091B5039091B6032817390771F0E0913F
:101DB000B303F091B403ED58FC4F40833093B40368
:101DC0002093B30302C08091C600FF91EF919F91D1
:101DD0008F914F913F912F910F900BBE0F900FBE9F
:101DE0000F901F90189508951F920F920FB60F92A3
:101DF0000BB60F9211242F933F934F938F939F9382
:101E0000EF93FF938091C80082FD1DC04091CE00EA
:101E100020913B0430913C042F5F3F4F2F73307073
:101E200080913D0490913E042817390771F0E091AC
:101E30003B04F0913C04E550FC4F408330933C045C
:101E400020933B0402C08091CE00FF91EF919F91BF
:101E50008F914F913F912F910F900BBE0F900FBE1E
:101E60000F901F90189508951F920F920FB60F9222
:101E70000BB60F9211242F933F934F938F939F9301
:101E8000EF93FF938091D00082FD1DC04091D6005A
:101E90002091C3043091C4042F5F3F4F2F733070E3
:101EA0008091C5049091C6042817390771F0E0911C
:101EB000C304F091C404ED57FB4F40833093C40436
:101EC0002093C30402C08091D600FF91EF919F91AF
:101ED0008F914F913F912F910F900BBE0F900FBE9E
:101EE0000F901F90189508951F920F920FB60F92A2
:101EF0000BB60F9211242F933F934F938F939F9381
:101F0000EF93FF938091300182FD1DC04091360117
:101F100020914B0530914C052F5F3F4F2F73307050
:101F200080914D0590914E052817390771F0E09189
:101F30004B05F0914C05E55FFA4F408330934C051B
:101F400020934B0502C080913601FF91EF919F9144
:101F50008F914F913F912F910F900BBE0F900FBE1D
:101F60000F901F901895E0919F05F091A005E05CFF
:101F7000FF4F8191919120813181805C9F4F821B25
:101F8000930B60E470E00E94E519892B09F0EBDE09
:101F9000E091C105F091C205E05CFF4F8191919104
:101FA00020813181805C9F4F821B930B60E470E045
:101FB0000E94E519892B09F016DFE091E305F09105
:101FC000E405E05CFF4F8191919120813181805C3B
:101FD0009F4F821B930B60E470E00E94E519892BF0
:101FE00009F041DFE0910506F0910606E05CFF4F45
:101FF0008191919120813181805C9F4F821B930B55
:1020000060E470E00E94E519892B09F06CCF089517
:102010001F920F920FB60F920BB60F9211242F93AF
:102020003F938F939F93EF93FF932091F70330910A
:10203000F8038091F9039091FA032817390731F4D6
:102040008091C1008F7D8093C10014C0E091F9039D
:10205000F091FA03E954FC4F20818091F9039091AB
:10206000FA0301968F7390709093FA038093F903AB
:102070002093C600FF91EF919F918F913F912F91F7
:102080000F900BBE0F900FBE0F901F9018951F92D0
:102090000F920FB60F920BB60F9211242F933F930E
:1020A0008F939F93EF93FF9320917F04309180044F
:1020B00080918104909182042817390731F480912E
:1020C000C9008F7D8093C90014C0E0918104F09114
:1020D0008204E15CFB4F2081809181049091820415
:1020E00001968F7390709093820480938104209363
:1020F000CE00FF91EF919F918F913F912F910F9083
:102100000BBE0F900FBE0F901F9018951F920F924D
:102110000FB60F920BB60F9211242F933F938F930C
:102120009F93EF93FF9320910705309108058091CD
:10213000090590910A052817390731F48091D100DB
:102140008F7D8093D10014C0E0910905F0910A05BC
:10215000E953FB4F20818091090590910A05019672
:102160008F73907090930A05809309052093D60091
:10217000FF91EF919F918F913F912F910F900BBE07
:102180000F900FBE0F901F9018951F920F920FB6D1
:102190000F920BB60F9211242F933F938F939F931F
:1021A000EF93FF9320918F053091900580919105D9
:1021B000909192052817390731F4809131018F7D74
:1021C0008093310114C0E0919105F0919205E15B9B
:1021D000FA4F2081809191059091920501968F731D
:1021E0009070909392058093910520933601FF9112
:1021F000EF919F918F913F912F910F900BBE0F9078
:102200000FBE0F901F901895AF92BF92DF92EF9282
:10221000FF920F931F93CF93DF93EC017A018B0111
:10222000DD24403081EE580780E0680780E07807C1
:1022300011F0DD24D39491E0A92EB12CEC89FD8915
:10224000DD2069F0C50108A002C0880F991F0A941B
:10225000E2F7808360E079E08DE390E005C01082D2
:1022600060E874E88EE190E0A80197010E94F819F7
:10227000215030404040504056954795379527951E
:1022800080E12030380720F0DD2011F0DD24D6CFAA
:10229000E889F9893083EA89FB89208319A2EE89CC
:1022A000FF89408121E030E0C9010C8C02C0880F19
:1022B000991F0A94E2F7482B4083EE89FF894081F9
:1022C000C9010D8C02C0880F991F0A94E2F7482BB0
:1022D0004083EE89FF894081C9010E8C02C0880FBE
:1022E000991F0A94E2F7482B4083EE89FF89808189
:1022F0000F8C02C0220F331F0A94E2F72095282387
:102300002083DF91CF911F910F91FF90EF90DF908D
:10231000BF90AF900895DC011C96ED91FC911D9744
:10232000E05CFF4F8191919120813181805C9F4FD2
:10233000821B930B60E470E00C94E519DC011C96A1
:10234000ED91FC911D97E05CFF4F20813181E054BD
:10235000F040DF01AE5BBF4F8D919C911197281724
:10236000390719F42FEF3FEF07C08D919C91E80FCB
:10237000F91F8081282F30E0C9010895DC011C96E7
:10238000ED91FC911D97E05CFF4F20813181E0547D
:10239000F040DF01AE5BBF4F8D919C9111972817E4
:1023A000390719F42FEF3FEF10C08D919C911197D1
:1023B000E80FF91F20818D919C91119701968F73E1
:1023C000907011969C938E9330E0C9010895DC01C2
:1023D00091968C919197882339F05496ED91FC91C8
:1023E0005597808186FFF9CF91961C920895CF93DF
:1023F000DF93EC01EE85FF85E05CFF4F20813181AA
:10240000E054F0402F5F3F4F2F733070DF01AE5B21
:10241000BF4F8D919C91119728173907D1F3E05C3C
:10242000FF4F80819181E054F040E80FF91F6083F5
:10243000EE85FF85E05CFF4F31832083EE89FF89C5
:10244000208181E090E00F8C02C0880F991F0A94D0
:10245000E2F7282B208381E089A3EC89FD89808124
:102460008064808381E090E0DF91CF9108951F9395
:10247000109296051092950528EE33E040E050E06A
:1024800020939705309398054093990550939A05AA
:1024900068E472E0709394056093930583E793E09A
:1024A0009093A00580939F0587EB93E09093A205FE
:1024B0008093A10585EC90E09093A4058093A305FB
:1024C00084EC90E09093A6058093A50580EC90E0C5
:1024D0009093A8058093A70581EC90E09093AA05BE
:1024E0008093A90582EC90E09093AC058093AB05B6
:1024F00086EC90E09093AE058093AD0514E01093C8
:10250000AF05B3E0B093B005A7E0A093B105F5E047
:10251000F093B205E1E0E093B3051092B805109294
:10252000B7052093B9053093BA054093BB05509386
:10253000BC057093B6056093B5058BEF93E090935F
:10254000C2058093C1058FE394E09093C405809306
:10255000C3058DEC90E09093C6058093C5058CEC87
:1025600090E09093C8058093C70588EC90E0909325
:10257000CA058093C90589EC90E09093CC058093BF
:10258000CB058AEC90E09093CE058093CD058EEC40
:1025900090E09093D0058093CF051093D105B09330
:1025A000D205A093D305F093D405E093D5051092FE
:1025B000DA051092D9052093DB053093DC054093B2
:1025C000DD055093DE057093D8056093D70583E849
:1025D00094E09093E4058093E30587EC94E0909376
:1025E000E6058093E50585ED90E09093E8058093FE
:1025F000E70584ED90E09093EA058093E90580ED8E
:1026000090E09093EC058093EB0581ED90E0909342
:10261000EE058093ED0582ED90E09093F0058093B8
:10262000EF0586ED90E09093F2058093F10510930D
:10263000F305B093F405A093F505F093F605E09348
:10264000F7051092FC051092FB052093FD053093D1
:10265000FE054093FF05509300067093FA056093C2
:10266000F9058BE095E090930606809305068FE4CC
:1026700095E0909308068093070685E391E0909398
:102680000A068093090684E391E090930C068093F8
:102690000B0680E391E090930E0680930D0681E394
:1026A00091E09093100680930F0682E391E090935F
:1026B00012068093110686E391E0909314068093AE
:1026C000130610931506B0931606A0931706F09301
:1026D0001806E09319061F9108950895CF93DF938C
:1026E00081D8FBDF0E94B101C3EBDFE00E94AE01A5
:1026F0002097E1F338DCFACFCF92DF92EF92FF928E
:102700000F931F93CF93DF937C016B018A01C0E08D
:10271000D0E00FC0D6016D916D01D701ED91FC9114
:102720000190F081E02DC7011995C80FD91F015004
:1027300010400115110571F7CE01DF91CF911F9166
:102740000F91FF90EF90DF90CF900895CF93DF939C
:10275000FB01EC01A881B9816081718144815581BF
:102760001296ED91FC9113971995DF91CF910895F1
:10277000EF92FF920F931F938C01DC01ED91FC917E
:102780000190F081E02D6DE019957C01D801ED916B
:10279000FC910190F081E02DC8016AE019959C013F
:1027A0002E0D3F1DC9011F910F91FF90EF900895CD
:1027B000EF92FF920F931F937C01C8DF8C01C7013A
:1027C000D7DF9C01200F311FC9011F910F91FF908E
:1027D000EF900895CF93DF93EC016115710519F423
:1027E00020E030E00FC0DB010D900020E9F71197E9
:1027F000A61BB70BE881F9810280F381E02DAD01C2
:1028000019959C01C901DF91CF910895E3CF0895F7
:102810002F923F924F925F926F927F928F929F92F0
:10282000AF92BF92CF92DF92EF92FF920F931F93DE
:10283000DF93CF93CDB7DEB73B014C0119012A01DD
:102840006E897F89888D998D6A197B098C099D090C
:10285000621A730A840A950AA40193018BD5E218BF
:10286000F30804091509A8019701E4D52A0D3B1DB9
:102870004C1D5D1DB901CA01CF91DF911F910F91D0
:10288000FF90EF90DF90CF90BF90AF909F908F9090
:102890007F906F905F904F903F902F900895FC0134
:1028A0009B01848195816817790728F46081718183
:1028B0006115710529F410921B066BE176E002C0E8
:1028C000620F731FCB010895FC01808191810097F5
:1028D00029F420E030E040E050E004C00E943301E1
:1028E0009B01AC01B901CA0108950F931F93CF93C7
:1028F000DF93EC018B016F5F7F4F88819981D3D289
:10290000009711F480E005C0998388831B830A83B4
:1029100081E0DF91CF911F910F910895CF93DF93C5
:10292000EC0188819981892B29F08A819B81861706
:10293000970758F4CE01D9DF882341F08C819D811F
:10294000892B19F4E881F981108281E0DF91CF9120
:102950000895EF92FF920F931F93CF93DF93EC01B3
:102960007B016C817D81E114F104B9F041155105C1
:1029700091F08A01060F171FB801D0DF882369F094
:10298000888199812C813D81820F931FB7010E941C
:1029900062011D830C8381E001C080E0DF91CF9153
:1029A0001F910F91FF90EF900895DF93CF930F92B7
:1029B0000F92CDB7DEB769831A82BE016F5F7F4F7A
:1029C00041E050E0C6DF0F900F90CF91DF91089566
:1029D000CF93DF93EC0188819981009709F0CBD1E7
:1029E000198218821D821C821B821A82DF91CF916C
:1029F00008950F931F93182F092F6115710559F032
:102A0000DB010D900020E9F71197A61BB70BAD0174
:102A1000A0DF882319F4812F902FDADF812F902FE8
:102A20001F910F9108950F931F93182F092FFB01EA
:102A300060817181448155818CDF882319F4812F55
:102A4000902FC6DF812F902F1F910F910895EF9245
:102A5000FF920F931F93CF93DF93EC017B018A01C9
:102A6000BA015CDF882319F4CE01B2DF07C01D83F1
:102A70000C8388819981B7010E946201CE01DF91A8
:102A8000CF911F910F91FF90EF900895CF93DF9317
:102A9000EC01198218821B821A821D821C82611528
:102AA000710549F0DB010D900020E9F71197A61B95
:102AB000B70BAD01CCDFDF91CF910895CF93DF93BA
:102AC000EC01198218821B821A821D821C826115F8
:102AD000710549F0DB010D900020E9F71197A61B65
:102AE000B70BAD01B4DFDF91CF9108950F931F9322
:102AF000182F092F6115710551F0DB010D90002091
:102B0000E9F71197A61BB70BAD01A1DF01C060DF8C
:102B1000812F902F1F910F910895EF92FF920F93A5
:102B20001F93DF93CF93CDB7DEB762970FB6F894BC
:102B3000DEBF0FBECDBF8C01CB01F8011182108228
:102B400013821282158214827E010894E11CF11C0A
:102B5000B70150E00E946901C801B701C7DF629662
:102B60000FB6F894DEBF0FBECDBFCF91DF911F919E
:102B70000F91FF90EF900895BF92CF92DF92EF9266
:102B8000FF920F931F93CF93DF93082FB92E6B0102
:102B90007A01E9012417350710F4EA017901802F41
:102BA0009B2D6DE372E072DFD60114968D919C919E
:102BB00015978E159F05C8F08C179D0708F4EC013A
:102BC000D601ED91FC911197EC0FFD1F1081108241
:102BD0006D917C916E0D7F1D802F9B2D87DFD6011F
:102BE000ED91FC91EC0FFD1F1083802F9B2DDF9149
:102BF000CF911F910F91FF90EF90DF90CF90BF90FA
:102C00000895CF93DF93EC01FB018617970751F0EE
:102C1000608171816115710521F04481558117DF53
:102C200001C0D6DECE01DF91CF910895FC018081F5
:102C30009181A1C0FC01808191819DC00F931F9360
:102C4000CF93DF93BC018230910510F462E070E015
:102C5000E0911E06F0911F0640E050E0A0E0B0E0D9
:102C600024C08081918186179707D0F08617970737
:102C700071F482819381109729F013969C938E931F
:102C800012972CC090931F0680931E0627C04115F3
:102C9000510519F08417950718F48D01AC01EF0167
:102CA000DF01828193819C01F9013097D1F64115B2
:102CB0005105F9F0CA01861B970B8430910580F409
:102CC0008A819B810115110521F0F801938382838C
:102CD00004C090931F0680931E06FE01329645C0E5
:102CE000FE01E80FF91F619371930297998388831E
:102CF0003CC080911C0690911D06892B41F4809167
:102D000040029091410290931D0680931C064091D1
:102D10004202509143024115510541F44DB75EB74F
:102D200080913E0290913F02481B590B20911C0656
:102D300030911D0624173507B0F4CA01821B930B8E
:102D40008617970780F0AB014E5F5F4F841795079A
:102D500050F0420F531F50931D0640931C06F9017B
:102D60006193719302C0E0E0F0E0CF01DF91CF9179
:102D70001F910F910895CF93DF939C01009709F461
:102D80008FC0EC0122971B821A8260911E067091FF
:102D90001F066115710581F488819981820F931F47
:102DA00020911C0630911D062817390739F5D0935C
:102DB0001D06C0931C0674C0DB0140E050E0AC1758
:102DC000BD0708F1BB83AA83FE0121913191E20F77
:102DD000F31FAE17BF0779F48D919C911197280FBF
:102DE000391F2E5F3F4F3983288312968D919C9116
:102DF00013979B838A834115510571F4D0931F0665
:102E0000C0931E064DC012968D919C911397AD01F3
:102E1000009711F0DC01D3CFDA011396DC93CE9347
:102E20001297FA0121913191E20FF31FCE17DF07BC
:102E300069F488819981280F391F2E5F3F4FFA016D
:102E4000318320838A819B8193838283E0E0F0E059
:102E5000DB0112968D919C911397009719F0BC019C
:102E6000FD01F6CFAB014E5F5F4FDB018D919C9171
:102E7000840F951F20911C0630911D0628173907D5
:102E800079F4309729F410921F0610921E0602C0A2
:102E9000138212824250504050931D0640931C06EC
:102EA000DF91CF9108956F927F928F929F92AF9210
:102EB000BF92CF92DF92EF92FF920F931F93CF9327
:102EC000DF938C01009721F4CB01B8DE8C01B8C0F0
:102ED0008EEFE82E8FEFF82EE00EF11E4801860EE1
:102EE000971E8E149F0408F4A9C0D7014D915C91E0
:102EF000119746175707B0F04530510508F4A0C0A8
:102F0000CA0104978617970708F49AC042505040A8
:102F1000461B570BF401419351936D937C93CF0162
:102F20002ADF8EC05B01A41AB50A3801640E751E33
:102F3000A0911E06B0911F06E0E0F0E0CC24DD2455
:102F400047C0A615B705A9F5CD91DC911197CE0123
:102F500002968A159B0568F1CE018A199B09029693
:102F600012962C91129713963C91059758F0F40104
:102F700022833383CA19DB09D183C083D7016D93C0
:102F80007C9309C04E5F5F4F4C0F5D1FF70151836B
:102F90004083C901FC01C114D10431F0D60113965C
:102FA000FC93EE9312974CC0F0931F06E0931E061D
:102FB00047C08D919C911197E817F90708F4FC011F
:102FC0006D0112968C91129713969C919C01D901D8
:102FD000109709F0B6CF80911C0690911D068615BA
:102FE0009705E9F4E617F707D0F4209142023091F3
:102FF00043022115310541F42DB73EB780913E02C1
:1030000090913F02281B390B82169306B8F49092D8
:103010001D0680921C06F7017183608311C0CB01ED
:103020000DDEEC01009751F0D7014D915C91B80194
:103030000E945901C8019FDE8E0102C000E010E02D
:10304000C801DF91CF911F910F91FF90EF90DF901A
:10305000CF90BF90AF909F908F907F906F9008958A
:103060000CD0EBC0E3D040F0DAD030F021F45F3F79
:1030700019F0CCC0511115C1CFC0F0D098F39923ED
:10308000C9F35523B1F3951B550BBB27AA2762172C
:103090007307840738F09F5F5F4F220F331F441F71
:1030A000AA1FA9F333D00E2E3AF0E0E830D09150A9
:1030B0005040E695001CCAF729D0FE2F27D0660F96
:1030C000771F881FBB1F261737074807AB07B0E8D5
:1030D00009F0BB0B802DBF01FF2793585F4F2AF0EB
:1030E0009E3F510568F092C0DCC05F3FECF3983E14
:1030F000DCF3869577956795B795F7959F5FC9F748
:10310000880F911D9695879597F90895E1E0660FD0
:10311000771F881FBB1F621773078407BA0720F049
:10312000621B730B840BBA0BEE1F88F7E0950895B2
:1031300004D06894B111B5C0089598D088F09F5715
:1031400090F0B92F9927B751A0F0D1F0660F771FF3
:10315000881F991F1AF0BA95C9F712C0B13081F0D3
:103160009FD0B1E008959CC0672F782F8827B85F63
:1031700039F0B93FCCF3869577956795B395D9F734
:103180003EF490958095709561957F4F8F4F9F4F3E
:103190000895E89409C097FB3EF49095809570954A
:1031A00061957F4F8F4F9F4F9923A9F0F92F96E993
:1031B000BB279395F695879577956795B795F11108
:1031C000F8CFFAF4BB0F11F460FF1BC06F5F7F4FA5
:1031D0008F4F9F4F16C0882311F096E911C07723B7
:1031E00021F09EE8872F762F05C0662371F096E8C0
:1031F000862F70E060E02AF09A95660F771F881F8F
:10320000DAF7880F9695879597F9089597F99F674C
:1032100080E870E060E008959FEF80EC089500245E
:103220000A941616170618060906089500240A942B
:1032300012161306140605060895092E0394000CB1
:1032400011F4882352F0BB0F40F4BF2B11F460FF40
:1032500004C06F5F7F4F8F4F9F4F089557FD905869
:10326000440F551F59F05F3F71F04795880F97FB4A
:10327000991F61F09F3F79F0879508951216130604
:103280001406551FF2CF4695F1DF08C01616170633
:103290001806991FF1CF8695710561050894089568
:1032A000E894BB2766277727CB0197F908950BD0C1
:1032B000C4CFB5DF28F0BADF18F0952309F0A6CF08
:1032C000ABCF1124EECFCADFA0F3959FD1F3950FBA
:1032D00050E0551F629FF001729FBB27F00DB11D9A
:1032E000639FAA27F00DB11DAA1F649F6627B00D2A
:1032F000A11D661F829F2227B00DA11D621F739F13
:10330000B00DA11D621F839FA00D611D221F749F20
:103310003327A00D611D231F849F600D211D822F67
:10332000762F6A2F11249F5750408AF0E1F08823AE
:103330004AF0EE0FFF1FBB1F661F771F881F9150BB
:103340005040A9F79E3F510570F060CFAACF5F3F74
:10335000ECF3983EDCF3869577956795B795F795EE
:10336000E7959F5FC1F7FE2B880F911D9695879576
:1033700097F90895629FD001739FF001829FE00D3D
:10338000F11D649FE00DF11D929FF00D839FF00DE4
:10339000749FF00D659FF00D9927729FB00DE11D90
:1033A000F91F639FB00DE11DF91FBD01CF0111246D
:1033B0000895991B79E004C0991F961708F0961B91
:1033C000881F7A95C9F78095089597FB092E0726DF
:1033D0000AD077FD04D049D006D000201AF47095A9
:1033E00061957F4F0895F6F7909581959F4F0895C9
:1033F000A1E21A2EAA1BBB1BFD010DC0AA1FBB1FF9
:10340000EE1FFF1FA217B307E407F50720F0A21B6A
:10341000B30BE40BF50B661F771F881F991F1A94D7
:1034200069F760957095809590959B01AC01BD0101
:10343000CF01089597FB092E05260ED057FD04D025
:10344000D7DF0AD0001C38F450954095309521956F
:103450003F4F4F4F5F4F0895F6F7909580957095C9
:1034600061957F4F8F4F9F4F0895AA1BBB1B51E162
:1034700007C0AA1FBB1FA617B70710F0A61BB70BE4
:10348000881F991F5A95A9F780959095BC01CD0189
:103490000895EE0FFF1F0590F491E02D199412E0AE
:1034A000C8E0D2E003C0FE01F6DF2296CA30D107A1
:0634B000D1F7F894FFCFF4
:1034B600002449500A002453500A00245250000A9E
:1034C600002452503000245250303000464C443ACA
:1034D600004652443A00424C443A004252443A00B2
:1034E600464C3A0046523A002444500A00008000F6
:1034F6002006000000000000F7117C138B11BE119E
:043506009E11E7111A
:00000001FF
