:100000000C941D020C940A150C943B150C946C1561
:100010000C949D150C94CE150C94FF150C94301671
:100020000C9461160C944E020C944E020C944E02E9
:100030000C944E020C944E020C944E020C944E0200
:100040000C944E020C9478120C944E020C944E02B6
:100050000C944E020C944E020C944E020C94921688
:100060000C944E020C94401B0C94761B0C944E0284
:100070000C944E020C944E020C944E020C944E02C0
:100080000C94A6120C944E020C944E020C944E0248
:100090000C944E020C944E020C944E020C944E02A0
:1000A0000C944E020C944E020C94D4120C944E02FA
:1000B0000C944E020C944E020C944E020C940213BB
:1000C0000C944E020C944E020C944E020C944E0270
:1000D0000C944E020C944E020C944E020C944E0260
:1000E0000C944E02E414AE14B614C214CF14F014DF
:1000F000FD14BB17C017C517CF17D9175218E31730
:10010000EB17F317FD170718111820182A185218A3
:1001100034183E1848187418771866186A1870183A
:10012000AE187B187F18851889188D1893189718A2
:100130009B18AE18A118A518A9180C949B180C941C
:10014000F9190C948D180C9458020C9434180C94D2
:1001500054020C9450020C9466180C943E180C94A3
:10016000FD1B0C947B180C942A180C94F3170C9418
:10017000AE140C94D9170C94C2140C9493180C94CC
:10018000BB170C946A180C94CC190C9477180C9427
:100190005C020C94CF140C9470180C94B6140C944C
:1001A000E3170C94FD140C94AA1B0C94D7190C940F
:1001B000791A0C94E5190C9474180C94571A0C9431
:1001C000A1180C9497180C94C5170C947F180C94D4
:1001D00007180C94EB170C94FD170C94A5180C94AD
:1001E000AC040C9448180C94CF170C94E4140C94A1
:1001F00020180C94A01B0C94A9180C94F0140C94C7
:10020000AE180C9485180C94BE040C9489180C94A8
:1002100011180C94C0170C94521800000A0B020914
:100220000C0D0E0807030401000000000000000090
:1002300000000000000000000000000000000000BE
:10024000000000000000121110000000000000007B
:10025000000000000000000000000000000000009E
:1002600001021020200808102040102040800201C8
:1002700002010804020101020408102040808040AD
:1002800020100804020180040201804020100804AC
:10029000020108040201010204081020408001024A
:1002A0000408102040800505050507050808080812
:1002B000020202020A0A08080404040401010101FE
:1002C00001010101030303030303030304070707F9
:1002D0000C0C0C0C0C0C0C0C02020202060606069E
:1002E000060606060B0B0B0B0B0B0B0B000020007E
:1002F0002300260029002C002F00320000010000FE
:1003000003010601090100002200250028002B003E
:100310002E003100340002010000050108010B012C
:1003200000002100240027002A002D0030003300A7
:1003300001010000040107010A0100407A10F35A8C
:1003400000A0724E18090010A5D4E80000E8764815
:10035000170000E40B54020000CA9A3B000000E1C1
:10036000F505000080969800000040420F00000054
:10037000A08601000000102700000000E803000034
:1003800000006400000000000A00000000000100FE
:10039000000000002C76D888DC674F0823DFC1DF1F
:1003A000AE59E1B1B796E5E3E453C63AE651997622
:1003B00096E8E6C28426EB898C9B62ED407C6FFC5C
:1003C000EFBC9C9F40F2BAA56FA5F490055A2AF79E
:1003D0005C936B6CF9676DC11BFCE0E40D47FEF5A7
:1003E00020E6B500D0ED902E03009435770500800F
:1003F000841E080000204E0A000000C80C3333336E
:10040000330F986E12831141EF8D2114893BE6550D
:1004100016CFFEE6DB18D1844B381BF77C1D901DF0
:10042000A4BBE424203284725E228100C9F124EC52
:10043000A1E53D27AC04AA1BBE0411241FBECFEFCB
:10044000D1E2DEBFCDBF00E00CBF12E0A0E0B2E021
:10045000E2E8FDE400E00BBF02C007900D92AC356E
:10046000B107D9F724E0ACE5B2E001C01D92A73393
:10047000B207E1F714E0C8E3D4E000E006C0229739
:100480000109FE010BBF0E946C21C433D10780E03B
:100490000807A9F70E94EE1B0C94AF260C940000ED
:1004A0008CE592E00C949F048CE592E00C94A204FD
:1004B0008CE592E00C94A5048CE592E00C94A804E1
:1004C0008CE592E00E94840242E050E060E572E038
:1004D00082E00E94991442E050E064E572E083E01B
:1004E0000E94991442E050E068E572E085E00E94C5
:1004F000991442E050E06CE572E084E00C949914A9
:100500008CE592E00C944D0DAF92BF92CF92DF92AA
:10051000EF92FF920F931F93CF93DF93CDB7DEB788
:100520002E970FB6F894DEBF0FBECDBF5C01CE0193
:1005300001960E94AA0D8EE0FE013196D501019030
:100540000D928A95E1F7F501EC5AFF4F1182108266
:1005500044E050E06AE370E081EE92E00E94901186
:10056000F501E658FF4F11821082329611821082F7
:10057000329681E080833196118210823296108209
:1005800011821282138285E1C82ED12C98E1E92EC6
:10059000F12C00E010E021E030E040E058E062E0C3
:1005A00070E0C50140960E94090E24E1C22ED12CB4
:1005B00039E1E32EF12C01E010E021E030E040E0F1
:1005C00058E063E070E0C50181960E94090E43E1A6
:1005D000C42ED12C5BE1E52EF12C00E010E020E0F0
:1005E00030E040E250E064E070E0C501C2960E9455
:1005F000090E62E1C62ED12C7AE1E72EF12C01E042
:1006000010E020E030E040E250E065E070E0C5013D
:100610008D5B9F4F0E94090E00E010E02FE130E05B
:100620004EE150E067E070E0C5018A5A9F4F0E949A
:10063000EE0D01E010E021E230E040E250E068E041
:1006400070E0C5018F599F4F0E94EE0D61E087E079
:100650000E94AF1861E08EE10E94AF1861E088E06F
:100660000E94AF1861E080E20E94AF1860E087E06E
:100670000E94E81860E088E00E94E81869E070E0F5
:10068000C50181599F4F0E94FB136AE070E0C501CC
:1006900084599F4F0E94FB1361E08DE00E94AF18C8
:1006A000F501E758FF4F108261E372E0C5018E58F3
:1006B0009F4F0E946C1DF501E858FF4F108226E005
:1006C00040E052EC61E070E085E993E00E94DE1AC0
:1006D0002E960FB6F894DEBF0FBECDBFDF91CF913F
:1006E0001F910F91FF90EF90DF90CF90BF90AF9050
:1006F00008950F931F93CF93DF938B0164EF71E005
:1007000080E090E00E940B17C0E0D0E0C017D10756
:1007100004F560E08DE00E94E8186AEF70E080E088
:1007200090E00E940B1761E08DE00E94E8186AEFEC
:1007300070E080E090E00E940B1760E08DE00E9486
:10074000E8186AEF70E080E090E00E940B172196B5
:10075000DDCFDF91CF911F910F9108952F923F929E
:100760004F925F926F927F928F929F92AF92BF92C1
:10077000CF92DF92EF92FF920F931F93CF93DF936D
:10078000EC017C0181E2E80EF11CC7010E94A20E7F
:100790006C018E01005F1F4FC8010E94A20E1C0158
:1007A0004E0181E6880E911C60E070E0C4010E9459
:1007B000030E5E0186E5A80EB11C61E070E0C50184
:1007C0000E94030E66E470E0C4010E94FF0D66E41F
:1007D00070E0C5010E94FF0DC8010E94610E8C01EE
:1007E000C7010E94610E7C01CE010E94C20DCE01A4
:1007F0000E94CA0DB701CE010E94DA0DB801CE01E8
:100800000E94D20D0E94E8164B015C01CE010E94AD
:10081000E80D2B013C01B501A401CE010E94E20DBF
:10082000C501B40164197509860997090E94D11F91
:1008300020E030E04AE754E40E94381F0E94A01FE5
:100840000E94D31F9B01AC0160E070E0CB010E94CD
:10085000381F9B01AC010E94D01E20E030E040E038
:100860005FE30E9487202AE037ED43E25CE30E94C9
:10087000832018160CF4B8CFB601CE018D5B9F4FC4
:100880000E94AD0EB101CE01C2960E94AD0E6AE08B
:1008900072E085E993E0DF91CF911F910F91FF9076
:1008A000EF90DF90CF90BF90AF909F908F907F9010
:1008B0006F905F904F903F902F900C94781C0F9307
:1008C0001F93CF93DF93EC018C010A5A1F4F60E016
:1008D00070E0C8010E94030ECF59DF4F61E070E065
:1008E000CE010E94030E62E370E0C8010E94FF0D7A
:1008F00062E370E0CE010E94FF0D6FE072E085E9D7
:1009000093E0DF91CF911F910F910C94491CCF93ED
:10091000DF93EC0160E070E08A5A9F4F0E94FF0D68
:1009200060E070E0CE018F599F4F0E94FF0D6FE095
:1009300072E085E993E0DF91CF910C94491C4096D9
:100940000C94340E81960C94340EC2960C94340E92
:100950008D5B9F4F0C94340E8CE592E00E94AA0DA3
:1009600088EC92E00E9430138BEC92E00E943013EE
:1009700061E372E08EEC92E00C943F1D8EEC92E00D
:100980000C94D11C2F923F924F925F926F927F9264
:100990008F929F92AF92BF92CF92DF92EF92FF928F
:1009A0000F931F93CF93DF93CDB7DEB7C85AD1090A
:1009B0000FB6F894DEBF0FBECDBF1C0161E372E03D
:1009C000CE0187589F4F0E943F1D3E012FE8620EC7
:1009D000711CF30110821182128213824E01FBE816
:1009E0008F0E911CF40110821182128213829E01DB
:1009F00029573F4FCD56DF4F39832883C359D04005
:100A0000C957DF4F188219821A821B82C758D040FB
:100A10002E0133E8430E511CF20110821182128222
:100A2000138280E090E0A6E9B3E4C158DF4F8883E9
:100A30009983AA83BB83CF57D04091012E583F4F53
:100A4000CB56DF4F39832883C559D04062E070E030
:100A5000C9010E946C1EFC0180818C3439F0823502
:100A600009F479C1823409F0A9C311C69101205F4C
:100A70003F4FC556DF4F39832883CB59D040C9013A
:100A80000E94AA0EA1014F5D5F4FC756DF4F5983E9
:100A90004883C959D040CA010E94AA0E410151E6BB
:100AA000850E911C61E070E0C4010E94030EC1013B
:100AB0008A5A9F4FC956DF4F99838883C759D040C0
:100AC00061E070E00E94030E26E030E043E050E079
:100AD000CB56DF4F68817981C559D0408E010F5FB9
:100AE0001F4FC8010E947E1EB801CE0187589F4F3C
:100AF0000E94551DC8010E94D11CCE0187589F4FEE
:100B00000E94C31E0E94D31F5B016C01F101EF57CD
:100B1000FF4FCB56DF4FF983E883C559D04020E023
:100B200030E04AE754E40E94872025E33AEF4EE89C
:100B30005CE30E9487209B01AC01CB56DF4FE8812C
:100B4000F981C559D04060817181828193810E9471
:100B5000CF1E2B013C017E01FAE3EF0EF11C22E0D7
:100B6000B601A501C7010E94B01D65E172E0C80190
:100B70000E943F1DB701C8010E94201EBC0185E9EB
:100B800093E00E94661CC8010E94D11CC7010E940C
:100B9000D11C22E0B301A201C7010E94B01D6AE18D
:100BA00072E0C8010E943F1DB701C8010E94201ECB
:100BB000BC0185E993E00E94661CC8010E94D11C1B
:100BC000C7010E94D11C91012E5C3F4F5901A10128
:100BD0004D5B5F4F6A01A3019201CB56DF4FE88165
:100BE000F981C559D04060817181828193810E94D1
:100BF000832018160CF021C269E170E080E090E0DB
:100C00000E940B17C5010E94610EBC01C601C955A7
:100C1000DF4F6883C75AD040C855DF4F7883C85A22
:100C2000D0400E94610E1C014AE0C955DF4F688127
:100C3000C75AD040C855DF4F7881C85AD040C70145
:100C40000E94841D6FE172E0C8010E943F1DB70140
:100C5000C8010E94201EBC0185E993E00E94661C29
:100C6000C8010E94D11CC7010E94D11C4AE0B101F9
:100C7000C7010E94841D64E272E0C8010E943F1D0A
:100C8000B701C8010E94201EBC0185E993E00E94C3
:100C9000661CC8010E94D11CC7010E94D11CC5015D
:100CA0000E94610E1C01C6010E94610EB101681B09
:100CB000790B882777FD8095982F0E94D31F20E01D
:100CC00030E040E05FE30E94872020E030E04AE728
:100CD00054E40E94872020E030E04CE553E40E9479
:100CE000381F2DEC3CEC4CE050E40E94381FAB0167
:100CF000BC01CB56DF4FE881F981C559D040408314
:100D000051836283738322E0C7010E94B01D66E1B4
:100D100072E0C8010E943F1DB701C8010E94201E59
:100D2000BC0185E993E00E94661CC8010E94D11CA9
:100D3000C7010E94D11C6FEF70E0C4010E94FF0D3B
:100D40006FEF70E0C956DF4F88819981C759D04055
:100D50000E94FF0D40CF9101205F3F4FC556DF4FEE
:100D600039832883CB59D040C9010E94AA0EA10122
:100D70004F5D5F4FC756DF4F59834883C959D040F5
:100D8000CA010E94AA0E410151E6850E911C60E045
:100D900070E0C4010E94030EC1018A5A9F4FC956D8
:100DA000DF4F99838883C759D04060E070E00E948C
:100DB000030E26E030E043E050E0CB56DF4F688181
:100DC0007981C559D0408E010F5F1F4FC8010E9425
:100DD0007E1EB801CE0187589F4F0E94551DC80145
:100DE0000E94D11CCE0187589F4F0E94C31E0E94B3
:100DF000D31F5B016C01F101EF57FF4FCB56DF4F63
:100E0000F983E883C559D04020E030E04AE754E454
:100E10000E94872025E33AEF4EE85CE30E9487209A
:100E2000CB56DF4FE881F981C559D040208131810F
:100E3000428153810E94D01E2B013C017E01FAE3C6
:100E4000EF0EF11C22E0B601A501C7010E94B01D02
:100E500065E172E0C8010E943F1DB701C8010E9410
:100E6000201EBC0185E993E00E94661CC8010E9417
:100E7000D11CC7010E94D11C22E0B301A201C7010D
:100E80000E94B01D6AE172E0C8010E943F1DB701D7
:100E9000C8010E94201EBC0185E993E00E94661CE7
:100EA000C8010E94D11CC7010E94D11C91012E5C77
:100EB0003F4F5901A1014D5B5F4F6A01A3019201B0
:100EC000CB56DF4FE881F981C559D04060817181EF
:100ED000828193810E94341F87FFAFC069E170E077
:100EE00080E090E00E940B17C5010E94610EBC01DA
:100EF000C601C955DF4F6883C75AD040C855DF4F78
:100F00007883C85AD0400E94610E1C014AE0C9553E
:100F1000DF4F6881C75AD040C855DF4F7881C85A23
:100F2000D040C7010E94841D6FE172E0C8010E9499
:100F30003F1DB701C8010E94201EBC0185E993E056
:100F40000E94661CC8010E94D11CC7010E94D11CCE
:100F50004AE0B101C7010E94841D64E272E0C80149
:100F60000E943F1DB701C8010E94201EBC0185E9F7
:100F700093E00E94661CC8010E94D11CC7010E9418
:100F8000D11CC5010E94610E1C01C6010E94610EA8
:100F9000B101681B790B882777FD8095982F0E94F7
:100FA000D31F20E030E040E05FE30E94872020E094
:100FB00030E04AE754E40E94872020E030E04CE52E
:100FC00053E40E94381F2DEC3CEC4CE050E40E94AE
:100FD000381FAB01BC01CB56DF4FE881F981C55901
:100FE000D040408351836283738322E0C7010E9413
:100FF000B01D66E172E0C8010E943F1DB701C80143
:101000000E94201EBC0185E993E00E94661CC80175
:101010000E94D11CC7010E94D11C6FEF70E0C40177
:101020000E94FF0D6FEF70E0C956DF4F88819981F4
:10103000C759D0400E94FF0D41CF60E070E0C4016D
:101040000E94FF0D60E070E0C956DF4F88819981F2
:10105000C759D0400E94FF0D68EC70E080E090E03E
:101060000E940B17C5010E94610E7C01C6010E94FF
:10107000610E8C014AE0B701CE01CA960E94841D20
:101080006FE172E0CE0101960E943F1DBE01665CD9
:101090007F4FCE0101960E94201EBC0185E993E09E
:1010A0000E94661CCE0101960E94D11CCE01CA96F8
:1010B0000E94D11C4AE0B801CE01CA960E94841D4C
:1010C00064E272E0CE0101960E943F1DBE01665CA3
:1010D0007F4FCE0101960E94201EBC0185E993E05E
:1010E0000E94661CCE0101960E94D11CCE01CA96B8
:1010F0000E94D11CC5010E94610E8C01C6010E9494
:10110000610EB801681B790B882777FD8095982FB1
:101110000E94D31F20E030E040E05FE30E94872080
:1011200020E030E04AE754E40E94872020E030E0ED
:101130004CE553E40E94381F2DEC3CEC4CE050E4AD
:101140000E94381FAB01BC01CB56DF4FE881F9810B
:10115000C559D040408351836283738322E0CE011E
:10116000CA960E94B01D66E172E0CE0101960E940F
:101170003F1DBE01665C7F4FCE0101960E94201E7E
:10118000BC0185E993E00E94661CCE0101960E9495
:10119000D11CCE01CA960E94D11CC556DF4F888152
:1011A0009981CB59D0400E94A60EC756DF4F888147
:1011B0009981C959D0400E94A60E69C21F921F9200
:1011C000FCE3FF9323E22F9337ED3F934AE04F93E5
:1011D000ADECAA2EACECBA2ECB2CADE3DA2EE12C82
:1011E000F12C00E01FE39E0121583F4FAE0149570B
:1011F0005F4FB301CE01CA960E9423111F921F9226
:101200005CE35F9383E28F9397ED9F93EAE0EF9324
:101210009E0121583F4FA201B401CE0101960E94C8
:10122000231161E070E0CE01CA960E94D11061E006
:1012300070E0CE0101960E94D11091012F593F4FCD
:10124000C956DF4F39832883C759D04061E070E029
:10125000C9010E94030E81010A5A1F4F60E070E02D
:10126000C8010E94030E60E070E0C956DF4F88811C
:101270009981C759D0400E94FF0D60E070E0C8011D
:101280000E94FF0D26E030E043E050E0CB56DF4FF8
:1012900068817981C559D040CE018D589F4F0E94F9
:1012A0007E1EBE016D587F4FCE0187589F4F0E9412
:1012B000551DCE018D589F4F0E94D11C69E272E0EE
:1012C000CE0187589F4F0E944D1E0FB6F894DEBF87
:1012D0000FBECDBF882339F0C1010E94AE03CE01FD
:1012E00087589F4FE7C1CE0187589F4F0E94C31E6A
:1012F0002AE0269FF001279FF00D1124C556DF4FED
:10130000F983E883CB59D040F101E158FF4F808148
:101310009181C556DF4F48815981CB59D040480F44
:10132000591FC556DF4F59834883CB59D040C75604
:10133000DF4FF983E883C959D040C1014096CF55AA
:10134000DF4F99838883C15AD040EE55F109CD55BE
:10135000DF4FF983E883C35AD04091012E5C3F4FA1
:10136000CB55DF4F39832883C55AD040A1014D5B4F
:101370005F4FC356DF4F59834883CD59D040C7567E
:10138000DF4FE881F981C959D04080819181C556EC
:10139000DF4F28813981CB59D040821793070CF059
:1013A00067C162E370E080E090E00E940B17CF55C8
:1013B000DF4F88819981C15AD0400E94610E5C0143
:1013C000CD55DF4F88819981C35AD0400E94610E6C
:1013D0006C01CB55DF4F88819981C55AD0400E945E
:1013E000610E4C01C356DF4F88819981CD59D040A1
:1013F0000E94610E7C0166E070E0CB56DF4F888171
:101400009981C559D0400E946C1EFC0180818634B0
:10141000A1F461E08DE00E94E818C4018E0D9F1DCB
:1014200097FD019695958795C756DF4FE881F9811D
:10143000C959D0409183808315C060E08DE00E943F
:10144000E818CA0CDB1CD7FE03C0FFEFCF1ADF0A77
:10145000D594C794C756DF4FE881F981C959D04068
:10146000D182C082C356DF4F88819981CD59D04047
:101470000E94A20EC1010E94C60D6401C81AD90AB9
:10148000C1010E94CE0D9701281B390BC156DF4FB9
:1014900039832883CF59D040B701C1010E94DE0DA6
:1014A000B401C1010E94D60D0E94E8162B013C0137
:1014B000C1010E94E80DA3019201261B370B480BC6
:1014C000590BCA01B9010E94D11F20E030E04AE760
:1014D00054E40E94381F4B015C01B301A201C10119
:1014E0000E94E20DB601882777FD8095982F0E9413
:1014F000D31F20E030E04AE754E40E948720A50192
:1015000094010E94381FC157DF4F688379838A8313
:101510009B83CF58D040C156DF4F48815981CF5966
:10152000D040BA01882777FD8095982F0E94D31F5D
:1015300020E030E04AE754E40E948720A5019401AE
:101540000E94381FC557DF4F688379838A839B8346
:10155000CB58D040CE01CA960E94B80ECE0101965B
:101560000E94B80E20E030E04AE753E4C957DF4F4D
:10157000688179818A819B81C758D0400E948320ED
:10158000181664F480E090E0AAE7B3E4C957DF4F8F
:1015900088839983AA83BB83C758D04020E030E07A
:1015A0004AE753E4CD57DF4F688179818A819B8177
:1015B000C358D0400E948320181664F480E090E065
:1015C000AAE7B3E4CD57DF4F88839983AA83BB830F
:1015D000C358D04020E030E0A901C957DF4F6881EF
:1015E00079818A819B81C758D0400E94341F87FF30
:1015F00008C0C957DF4F188219821A821B82C75848
:10160000D04020E030E0A901CD57DF4F68817981DB
:101610008A819B81C358D0400E94341F87FF08C035
:10162000CD57DF4F188219821A821B82C358D040CF
:10163000C957DF4F688179818A819B81C758D04023
:101640000E94A01FC8010E94FF0DCD57DF4F688187
:1016500079818A819B81C358D0400E94A01FC956BE
:10166000DF4F88819981C759D0400E94FF0D87CEF6
:1016700060E070E0C956DF4F88819981C759D0403A
:101680000E94FF0D60E070E0C8010E94FF0D68EC51
:1016900070E080E090E00E940B176DE272E085E957
:1016A00093E00E94491C85E993E00E94571ACE01FD
:1016B00087589F4F0E94D11CC855DF4F0FB6F89432
:1016C000DEBF0FBECDBFDF91CF911F910F91FF9075
:1016D000EF90DF90CF90BF90AF909F908F907F90D2
:1016E0006F905F904F903F902F9008958F929F92B0
:1016F000AF92BF92CF92DF92EF92FF920F931F9320
:10170000CF93DF93CDB7DEB72C970FB6F894DEBF3B
:101710000FBECDBF8C0161E372E0CE0107960E943F
:101720003F1D81EE92E00E94A0116C0158012EE74E
:10173000A20EB11CF5018081980124583F4F790118
:101740008823D1F081EE92E00E94A0114C0181EE3D
:1017500092E00E94A0119601280D391D280F391F13
:10176000C90163E070E00E94062164517109F7012C
:1017700071836083F5011082F701208131812C197A
:101780003D09F801E658FF4F37FD03C03183208340
:1017900002C011821082608171814AE0CE010196FF
:1017A0000E94841DBE016F5F7F4FCE0107960E948D
:1017B000551DCE0101960E94D11C8B859C858330DE
:1017C000910519F462E372E007C0029719F466E329
:1017D00072E002C06BE372E0CE0101960E943F1DF1
:1017E000BE01695F7F4FCE0101960E94201E60E31B
:1017F00072E00E94331EBC0185E993E00E943B1C0D
:10180000CE0101960E94D11C85E993E00E94571AEF
:10181000CE0107960E94D11C2C960FB6F894DEBF1D
:101820000FBECDBFDF91CF911F910F91FF90EF9031
:10183000DF90CF90BF90AF909F908F90089563E01E
:1018400070E00E94790361E472E085E993E00E9410
:10185000491C85E993E00C94571A4F925F926F925E
:101860007F928F929F92AF92BF92CF92DF92EF9230
:10187000FF920F931F93CF93DF93CDB7DEB72C97D3
:101880000FB6F894DEBF0FBECDBF8C015C0182E7BE
:10189000A80EB11C24E030E043E050E0B501CE01D9
:1018A00007960E947E1ECE0107960E94C31E0E94CC
:1018B000D31F6B017C0126E030E045E050E0B5012C
:1018C000CE0101960E947E1EBE016F5F7F4FCE014A
:1018D00007960E94551DCE0101960E94D11CCE0193
:1018E00007960E94C31E0E94D31F2B013C0162E099
:1018F00070E0C5010E946C1EFC0180818B3251F4A6
:1019000020E030E044EB52E4C701B6010E94D01E53
:101910006B017C0120E030E040E151E4C301B20101
:101920000E9487204B015C0122E73CE147E05FE336
:10193000C701B6010E94872020E030E84DE654E45C
:101940000E94D01E0E94A01FC80184599F4F0E9470
:1019500034146FE070E080E090E00E940B1720E00C
:1019600030E842E254E4C501B4010E94D01E0E9456
:10197000A01FC80181599F4F0E9434146FE070E08E
:1019800080E090E00E940B1766E472E085E993E046
:101990000E94491C85E993E00E94571ACE010796E0
:1019A0000E94D11C2C960FB6F894DEBF0FBECDBF9F
:1019B000DF91CF911F910F91FF90EF90DF90CF902B
:1019C000BF90AF909F908F907F906F905F904F905F
:1019D00008950F931F93CF93DF93EC018C010E5862
:1019E0001F4F61E070E0C8010E946C1EFC01808105
:1019F000893409F444C0823521F0843409F046C0AA
:101A000007C0CE01DF91CF911F910F910C94760BFF
:101A100062E070E0C8010E946C1EFC018081843588
:101A200039F563E070E0C8010E946C1EFC01808102
:101A3000873439F4CE01DF91CF911F910F910C942F
:101A40005F0463E070E0C8010E946C1EFC018081AD
:101A5000833539F4CE01DF91CF911F910F910C9412
:101A60008704CE01DF91CF911F910F910C94AE03AB
:101A7000CE01DF91CF911F910F910C94C204CE0142
:101A8000DF91CF911F910F910C942D0CCE01DF911E
:101A9000CF911F910F910C941F0CBF92CF92DF92A8
:101AA000EF92FF920F931F93CF93DF93EC018C0182
:101AB00007581F4F7C0182E7E80EF11C6E01E8E732
:101AC000CE0ED11CBB24B39485E993E00E94CC19BF
:101AD000181619068CF485E993E00E94E519F801BF
:101AE0008083682FC7010E940C1EF80180818A3014
:101AF00059F7F601B082E8CF64E670E080E090E04C
:101B00000E940B178E0108581F4FF801808188230F
:101B1000B9F07E01F2E7EF0EF11C60E070E0C70162
:101B20000E946C1EFC018081843251F4CE010E941F
:101B3000E90C61E372E0C7010E946C1DF80110829C
:101B4000DF91CF911F910F91FF90EF90DF90CF9099
:101B5000BF900895CF93DF93EC0181E090E09983EB
:101B600088831B821A821D821C821F821E82198614
:101B700018860E94E8166A877B878C879D87DF918D
:101B8000CF910895FC01868197810895FC0182819F
:101B900093810895FC01808591850895FC018481DD
:101BA00095810895FC01778366830895FC01738312
:101BB00062830895FC01718760870895FC01758335
:101BC00064830895FC01428753876487758708956D
:101BD000FC01628573858485958508950F931F9315
:101BE000FC0171836083538342833583248317828E
:101BF00016821286118700871F910F910895FC01AC
:101C000080810C949517FC016087718782810C9408
:101C1000E818CF92DF92EF92FF920F931F93FC018F
:101C200071836083538342833187208713870287C0
:101C3000E686F786C486D5861482158216821782B8
:101C400081E0808B60E08C2D0E94AF1861E08C2DCC
:101C50000E94E81860E08E2D1F910F91FF90EF9089
:101C6000DF90CF900C94AF18CF93DF93EC0188896D
:101C7000882321F18A859B85892B51F48E850E94CA
:101C80001E194C815D816E817F81019751F40EC0D8
:101C90008E850E941E194C815D816E817F81019726
:101CA00029F44F5F5F4F6F4F7F4F04C04150510980
:101CB000610971094C835D836E837F83DF91CF91CE
:101CC0000895CF92DF92EF92FF92CF93DF93EC01D2
:101CD0006C817D818E819F81660F771F881F991F80
:101CE0000E94D31F2BED3FE049E450E40E9487207F
:101CF0006B017C016A817B81882777FD8095982F15
:101D00000E94D31F9B01AC01C701B6010E94381F7E
:101D100028853985232B31F420E030E04CE852E46B
:101D20000E94381F20E030E04FEB52E40E948720F1
:101D30000E94A01FCB01DF91CF91FF90EF90DF9029
:101D4000CF900895FC0184819581089521E0FC01E4
:101D5000208B0895FC01108A0895AB01662757FD7A
:101D60006095762FFC0144835583668377830895BD
:101D70002F923F924F925F926F927F928F929F929B
:101D8000AF92BF92CF92DF92EF92FF920F931F9389
:101D9000CF93DF93CDB7DEB72B970FB6F894DEBFA6
:101DA0000FBECDBF9B878A87DC01D896BC91B983D3
:101DB000B11102C01982E2C00E94DC166A837B83E3
:101DC0008C839D83EA85FB8580A191A1A2A1B3A10B
:101DD0004A815B816C817D81481B590B6A0B7B0BAF
:101DE00084A595A5A6A5B7A5481759076A077B0737
:101DF00008F3028CF38DE02D80809180A280B38067
:101E0000AA85BB855E96ED91FC915F97A501940133
:101E100060817181828193810E94CF1E2B013C01E0
:101E2000EA85FB8520893189428953890E94872070
:101E3000AA85BB8594962D913D914D915C91979784
:101E40000E94D01E6B017C01EA85FB8564A375A30B
:101E500086A397A324A835A806A917A99101A801CC
:101E60000E94832018161CF4C101D80118C0AA854D
:101E7000BB85D0968D919D910D90BC91A02D8E83A8
:101E80009F83A887B9879C01AD01C701B6010E9455
:101E9000341F87FF0AC08E819F81A885B985EA8596
:101EA000FB8584A395A3A6A3B7A3AA85BB851C968F
:101EB0002D913D914D915C911F97C301B2010E94FC
:101EC0008720EA85FB8524A135A146A157A10E9460
:101ED000D01E6B017C01AA85BB8598962D913D9102
:101EE0004D915C919B97C501B4010E94CF1EEA857C
:101EF000FB8524893589468957890E9487209B0163
:101F0000AC01C701B6010E94CF1E6B017C0191019B
:101F1000A8010E9483201816BCF0AA85BB85D09624
:101F20002C90D097D1963C90D197D2960C91D29785
:101F3000D3961C919101A801B601C7010E94341FDC
:101F400087FD02C016018701AA85BB855C96ED91CD
:101F5000FC915D97C101D80180839183A283B383F3
:101F6000EA85FB8580A691A6A2A6B3A68A819B815D
:101F7000AC81BD8180A391A3A2A3B3A389812B9639
:101F80000FB6F894DEBF0FBECDBFDF91CF911F918A
:101F90000F91FF90EF90DF90CF90BF90AF909F9008
:101FA0008F907F906F905F904F903F902F9008950B
:101FB0002F923F924F925F926F927F928F929F9259
:101FC000AF92BF92CF92DF92EF92FF920F931F9347
:101FD000CF93DF9300D01F92CDB7DEB71C012A014B
:101FE0003B014801590120E030E0A901C301B201E1
:101FF0000E94341F87FD78C020E030E0A901C501B0
:10200000B4010E94341F87FD6FC020E030E0A901B9
:10201000C701B6010E94341F87FD66C0F1014082EE
:1020200051826282738284829582A682B782C08640
:10203000D186E286F38664A575A586A597A50E943C
:10204000D11F20E030E04AE754E40E94381F698342
:102050007A838B839C83F1014486558666867786D6
:102060009B01AC01C501B4010E9487204B015C01BA
:10207000F101608B718B828B938B29813A814B812B
:102080005C81C701B6010E94381F6B017C01F10120
:10209000648B758B868B978B808D918D019721F545
:1020A000A301920160E070E0CB010E94CF1EF1011C
:1020B0006487758786879787A501940160E070E043
:1020C000CB010E94CF1EF101608B718B828B938BB1
:1020D000A701960160E070E0CB010E94CF1EF101E4
:1020E000648B758B868B978B0F900F900F900F9052
:1020F000DF91CF911F910F91FF90EF90DF90CF90E4
:10210000BF90AF909F908F907F906F905F904F9017
:102110003F902F9008958F929F92AF92BF92CF924F
:10212000DF92EF92FF92CF93DF93EC01EC8DFD8D68
:10213000C080D180E280F380CCA2DDA2EEA2FFA21B
:10214000EA8DFB8D80819181A281B38188A799A7B7
:10215000AAA7BBA78CA89DA8AEA8BFA8A50194015B
:10216000C701B6010E948320181664F088A899A8B8
:10217000AAA8BBA8A5019401C701B6010E94341FFB
:1021800087FF04C08CA29DA2AEA2BFA2DF91CF9117
:10219000FF90EF90DF90CF90BF90AF909F908F9087
:1021A00008951F93CF93DF93EC0111E06130710527
:1021B00009F010E088AD91E08927181303C0CE0123
:1021C0000E948B1018AFDF91CF911F9108950F934C
:1021D0001F93CF93DF93EC018B0188AD882361F1CE
:1021E000888D998D6817790739F12C853D854E8545
:1021F0005F8560E070E0CB010E94CF1E6C877D8719
:102200008E879F87288939894A895B8960E070E0D9
:10221000CB010E94CF1E688B798B8A8B9B8B2C897C
:102220003D894E895F8960E070E0CB010E94CF1E3E
:102230006C8B7D8B8E8B9F8B198F088FDF91CF914D
:102240001F910F9108954F925F926F927F928F929C
:102250009F92AF92BF92CF92DF92EF92FF920F9335
:102260001F93CF93DF9300D01F92CDB7DEB74C0101
:1022700027013801A982BA82CB82DC82FC01558F0A
:10228000448F738F628F378F268F10AE10AA11AADA
:1022900012AA13AA80E090E0AFE7B3E484AB95AB59
:1022A000A6ABB7AB84E690E0A0E0B0E084A795A72A
:1022B000A6A7B7A76C8D7D8DC4010E94E710C88CBE
:1022C000D98CEA8CFB8C09811A812B813C81B3016A
:1022D000A201C4010E94D80F0E94DC16F40144A49C
:1022E00055A466A477A4641975098609970960A3A3
:1022F00071A382A393A30F900F900F900F90DF9183
:10230000CF911F910F91FF90EF90DF90CF90BF90F2
:10231000AF909F908F907F906F905F904F900895B7
:10232000CF93DF93EC01842F7B836A834C835D839F
:1023300060E00E94AF1819821882DF91CF91089552
:10234000CF93DF93EC0120E432E44FE050E061E012
:102350008C810E9447192A813B81CB01B9010E94DF
:102360000621CB0179836883DF91CF910895CF92C5
:10237000DF92EF92FF920F931F93CF93DF936C0145
:102380008B017A01EC01C851DD4F888187FF04C0C1
:10239000FB011182108223C02CE02C9DC0012D9DD9
:1023A000900D11242881AC01420F511D27FD5A9533
:1023B0002091E70230E0421753078CF42881AC01EA
:1023C000420F511D27FD5A959A01FA01EE0FFF1F8A
:1023D000E20FF31FE451FD4F208126FD19C08881D3
:1023E0008F5F88838CE08C9D90018D9D300D112432
:1023F0008881A901480F511D87FD5A958091E702F8
:1024000090E048175907B4F488818C303CF112C031
:102410002881820F911D27FD9A95FC01EE0FFF1F69
:10242000E80FF91FE451FD4F808160E08F730E9437
:10243000E818D5CFF80180819181049680349C49B9
:1024400018F480E49CE904C0F8018081918104962D
:10245000F701918380838FEF888341C0F8018081E9
:1024600091814881B901640F711D47FD7A95AB01D7
:10247000FB01EE0FFF1FE40FF51FE451FD4F4181FB
:102480005281840F951FF701918380838881A90170
:10249000480F511D87FD5A95FA01EE0FFF1FE40FFB
:1024A000F51FE451FD4F808186FF19C08881280FF8
:1024B000311D87FD3A95F901EE0FFF1FE20FF31F63
:1024C000E451FD4F808161E08F73DF91CF911F91C7
:1024D0000F91FF90EF90DF90CF900C94E818DF9170
:1024E000CF911F910F91FF90EF90DF90CF900895C3
:1024F0001F920F920FB60F9211240BB60F922F93CB
:102500003F934F935F936F937F938F939F93AF937B
:10251000BF93EF93FF9348E850E064E870E081E0F8
:1025200090E00E94B711FF91EF91BF91AF919F9101
:102530008F917F916F915F914F913F912F910F906C
:102540000BBE0F900FBE0F901F9018951F920F9209
:102550000FB60F9211240BB60F922F933F934F9308
:102560005F936F937F938F939F93AF93BF93EF93FB
:10257000FF9348E950E064E970E082E090E00E9457
:10258000B711FF91EF91BF91AF919F918F917F9183
:102590006F915F914F913F912F910F900BBE0F90D4
:1025A0000FBE0F901F9018951F920F920FB60F92AB
:1025B00011240BB60F922F933F934F935F936F931A
:1025C0007F938F939F93AF93BF93EF93FF9348EACB
:1025D00050E064EA70E083E090E00E94B711FF9160
:1025E000EF91BF91AF919F918F917F916F915F918B
:1025F0004F913F912F910F900BBE0F900FBE0F90F8
:102600001F9018951F920F920FB60F9211240BB6C0
:102610000F922F933F934F935F936F937F938F937B
:102620009F93AF93BF93EF93FF9348E251E064E22F
:1026300071E080E090E00E94B711FF91EF91BF91AF
:10264000AF919F918F917F916F915F914F913F914A
:102650002F910F900BBE0F900FBE0F901F901895EB
:102660002091E7022033A0F431E0320F3093E702EB
:10267000FC012083822F90E0FC01EE0FFF1FE80F8A
:10268000F91FE451FD4F88EB9BE09283818308950D
:102690002FEFFC0120830895DF92EF92FF920F93BA
:1026A0001F93CF93DF93EC01D62E7A0189018881A5
:1026B000803308F068C061E08D2D0E94AF188881DA
:1026C000A82FB0E0FD01EE0FFF1FEA0FFB1FE45142
:1026D000FD4F2D2D2F739081907C922B908360E283
:1026E00072E06E197F0977FF02C06D5F7F4F7595AD
:1026F000679575956795698340E659E0401B510BD6
:1027000057FF02C04D5F5F4F5595479555954795CB
:102710004A836CE00E94FA209CE0899FB00111245A
:1027200020E030E0A901460F571FFA01EE0FFF1F0E
:10273000E40FF51FE451FD4F908196FD18C02F5F07
:102740003F4F2C30310571F790E08130910521F534
:102750001092800082E08093810010928500109298
:102760008400B19A80916F00826080936F008881AD
:1027700090E0FC01EE0FFF1FE80FF91FE451FD4F41
:102780008081806480838881DF91CF911F910F9138
:10279000FF90EF90DF9008958230910569F41092D8
:1027A000900082E080939100109295001092940026
:1027B00088BB80937100DBCF8330910569F4109260
:1027C000A00082E08093A1001092A5001092A400C6
:1027D00089BB80937200CBCF892B49F610922001E0
:1027E00082E08093210110922501109224018ABB7E
:1027F00080937300BCCF20E639E040E252E00C94B5
:102800004C13FC018081803370F5918128E830E021
:10281000291B310997FD3395220F331F220F331FD8
:10282000621773077CF0928128E532E0291B310999
:1028300097FD3395220F331F220F331F6217730743
:102840000CF49B014FB7F89490E0FC01EE0FFF1FD2
:10285000E80FF91FE451FD4F22503109220F331FB9
:10286000328321834FBF08954F925F926F927F9280
:10287000AF92BF92CF92DF92EF92FF920F931F938E
:10288000CF93DF93EC01603282E078070CF040C018
:1028900077FD06C0653B71052CF064EB70E002C06B
:1028A00060E070E0898128E830E0281B310987FD6D
:1028B0003395220F331F220F331F5901CC24B7FC4D
:1028C000C094DC2C882777FD8095982F2A8148E5D5
:1028D00052E0421B510927FD5395440F551F440FE9
:1028E000551F2A01662457FC6094762C7F926F92C4
:1028F0005F924F9214EBE12EF12C00E010E020E00B
:1029000030E0A9010E948A1C0F900F900F900F9049
:10291000CE01DF91CF911F910F91FF90EF90DF904B
:10292000CF90BF90AF907F906F905F904F900C943E
:102930000114883008F06DC0E82FF0E0EE0FFF1FA3
:10294000E458FC4F7183608390E0FC013197E730DD
:10295000F10590F5EE58FF4F0C945B2180916900D2
:102960008C7F842B80936900E89A08958091690098
:10297000440F551F440F551F837F842B809369009C
:10298000E99A08958091690074E0440F551F7A9583
:10299000E1F78F7C842B80936900EA9A08958091F7
:1029A000690066E0440F551F6A95E1F78F73842B29
:1029B00080936900EB9A089580916A008C7F842B44
:1029C00080936A00EC9A089580916A00440F551F25
:1029D000440F551F837F842B80936A00ED9A0895DE
:1029E00080916A0024E0440F551F2A95E1F78F7CFF
:1029F000842B80936A00EE9A089580916A0096E095
:102A0000440F551F9A95E1F78F73842B80936A00CA
:102A1000EF9A08951F920F920FB60F9211240BB6E2
:102A20000F922F933F934F935F936F937F938F9367
:102A30009F93AF93BF93EF93FF9380918003909107
:102A40008103892B29F0E0918003F091810319958E
:102A5000FF91EF91BF91AF919F918F917F916F9176
:102A60005F914F913F912F910F900BBE0F900FBE32
:102A70000F901F9018951F920F920FB60F9211246E
:102A80000BB60F922F933F934F935F936F937F9368
:102A90008F939F93AF93BF93EF93FF9380918203A4
:102AA00090918303892B29F0E0918203F0918303B5
:102AB0001995FF91EF91BF91AF919F918F917F9168
:102AC0006F915F914F913F912F910F900BBE0F909F
:102AD0000FBE0F901F9018951F920F920FB60F9276
:102AE00011240BB60F922F933F934F935F936F93E5
:102AF0007F938F939F93AF93BF93EF93FF938091B7
:102B0000840390918503892B29F0E0918403F0914F
:102B100085031995FF91EF91BF91AF919F918F918F
:102B20007F916F915F914F913F912F910F900BBECD
:102B30000F900FBE0F901F9018951F920F920FB617
:102B40000F9211240BB60F922F933F934F935F93E5
:102B50006F937F938F939F93AF93BF93EF93FF9365
:102B60008091860390918703892B29F0E091860359
:102B7000F09187031995FF91EF91BF91AF919F91CC
:102B80008F917F916F915F914F913F912F910F9016
:102B90000BBE0F900FBE0F901F9018951F920F92B3
:102BA0000FB60F9211240BB60F922F933F934F93B2
:102BB0005F936F937F938F939F93AF93BF93EF93A5
:102BC000FF9380917C0390917D03892B29F0E09104
:102BD0007C03F0917D031995FF91EF91BF91AF9127
:102BE0009F918F917F916F915F914F913F912F9125
:102BF0000F900BBE0F900FBE0F901F9018951F9255
:102C00000F920FB60F9211240BB60F922F933F9392
:102C10004F935F936F937F938F939F93AF93BF93E4
:102C2000EF93FF9380917E0390917F03892B29F08E
:102C3000E0917E03F0917F031995FF91EF91BF9191
:102C4000AF919F918F917F916F915F914F913F9144
:102C50002F910F900BBE0F900FBE0F901F901895E5
:102C60001F920F920FB60F9211240BB60F922F9353
:102C70003F934F935F936F937F938F939F93AF9304
:102C8000BF93EF93FF938091880390918903892BE1
:102C900029F0E0918803F09189031995FF91EF9154
:102CA000BF91AF919F918F917F916F915F914F9164
:102CB0003F912F910F900BBE0F900FBE0F901F9062
:102CC00018951F920F920FB60F9211240BB60F9208
:102CD0002F933F934F935F936F937F938F939F9324
:102CE000AF93BF93EF93FF9380918A0390918B03EF
:102CF000892B29F0E0918A03F0918B031995FF91BC
:102D0000EF91BF91AF919F918F917F916F915F9163
:102D10004F913F912F910F900BBE0F900FBE0F90D0
:102D20001F9018951F920F920FB60F9211242F9398
:102D30003F938F939F93AF93BF9380918D03909117
:102D40008E03A0918F03B091900330918C0323E008
:102D5000230F2D3720F40196A11DB11D05C026E8D3
:102D6000230F0296A11DB11D20938C0380938D0328
:102D700090938E03A0938F03B0939003809191035F
:102D800090919203A0919303B09194030196A11D99
:102D9000B11D8093910390939203A0939303B093FA
:102DA0009403BF91AF919F918F913F912F910F907D
:102DB0000FBE0F901F9018952FB7F89460918D0358
:102DC00070918E0380918F03909190032FBF08958F
:102DD0003FB7F8948091910390919203A09193034F
:102DE000B091940326B5A89B05C02F3F19F001961A
:102DF000A11DB11D3FBF6627782F892F9A2F620F23
:102E0000711D811D911D42E0660F771F881F991F5C
:102E10004A95D1F70895CF92DF92EF92FF92CF9328
:102E2000DF936B017C010E94E816EB01C114D10411
:102E3000E104F10489F00E94CE1E0E94E8166C1B8A
:102E40007D0B683E734090F381E0C81AD108E10819
:102E5000F108C851DC4FEACFDF91CF91FF90EF909E
:102E6000DF90CF900895789484B5826084BD84B556
:102E7000816084BD85B5826085BD85B5816085BD75
:102E8000EEE6F0E0808181608083E1E8F0E010828E
:102E9000808182608083808181608083E0E8F0E0CF
:102EA000808181608083E1EBF0E0808184608083B9
:102EB000E0EBF0E0808181608083E1E9F0E08081F7
:102EC00082608083808181608083E0E9F0E080819E
:102ED00081608083E1EAF0E080818260808380818C
:102EE00081608083E0EAF0E0808181608083E1E2BC
:102EF000F1E0808182608083808181608083E0E274
:102F0000F1E0808181608083EAE7F0E08081846085
:102F100080838081826080838081816080838081E2
:102F2000806880831092C10008951F93CF93DF9330
:102F3000182FEB0161E00E94AF18209711F460E0B8
:102F400004C0CF3FD10539F461E0812FDF91CF91EB
:102F50001F910C94E818E12FF0E0E65EFD4F4491DC
:102F600050E0FA013197E231F10508F09BC0E758D3
:102F7000FF4F0C945B2184B5806884BDC7BD97C0AA
:102F800084B5806284BDC8BD92C080918000806895
:102F900080938000D0938900C093880088C080917E
:102FA0008000806280938000D0938B00C0938A0061
:102FB0007EC080918000886080938000D0938D00D7
:102FC000C0938C0074C08091B00080688093B00082
:102FD000C093B3006CC08091B00080628093B00059
:102FE000C093B40064C0809190008068809390008A
:102FF000D0939900C09398005AC08091900080624D
:1030000080939000D0939B00C0939A0050C0809111
:103010009000886080939000D0939D00C0939C00A6
:1030200046C08091A00080688093A0008091A0009D
:103030008F7B8093A000D093A900C093A80037C0D5
:103040008091A00080628093A000D093AB00C093D9
:10305000AA002DC08091A00088608093A000D0932A
:10306000AD00C093AC0023C08091200180688093A4
:103070002001D0932901C093280119C0809120011B
:10308000806280932001D0932B01C0932A010FC04E
:1030900080912001886080932001D0932D01C093FE
:1030A0002C0105C0C038D1050CF04ECF48CFDF91C0
:1030B000CF911F91089590E0FC013197E231F10525
:1030C00008F04CC0E557FF4F0C945B2180918000C5
:1030D0008F7703C0809180008F7D8093800008955A
:1030E00080918000877FF9CF84B58F7702C084B547
:1030F0008F7D84BD08958091B0008F7703C080914B
:10310000B0008F7D8093B0000895809190008F77FC
:1031100007C0809190008F7D03C080919000877FD1
:103120008093900008958091A0008F7707C08091D0
:10313000A0008F7D03C08091A000877F8093A000B6
:103140000895809120018F7707C0809120018F7DA5
:1031500003C080912001877F809320010895CF9341
:10316000DF9390E0FC01E05AFD4F2491FC01EA5509
:10317000FD4F8491882349F190E0880F991FFC014D
:10318000E05EFC4FA591B4918A5F9C4FFC01C59114
:10319000D4919FB7611108C0F8948C912095822337
:1031A0008C93888182230AC0623051F4F8948C9108
:1031B000322F309583238C938881822B888304C09F
:1031C000F8948C91822B8C939FBFDF91CF910895BF
:1031D0000F931F93CF93DF931F92CDB7DEB7282FA6
:1031E00030E0F901E65EFD4F8491F901E05AFD4FB0
:1031F0001491F901EA55FD4F04910023C9F0882389
:1032000021F069830E945B186981E02FF0E0EE0FE6
:10321000FF1FEA5FFC4FA591B4919FB7F8948C9182
:10322000611103C01095812301C0812B8C939FBF36
:103230000F90DF91CF911F910F910895CF93DF935E
:10324000282F30E0F901E65EFD4F8491F901E05A44
:10325000FD4FD491F901EA55FD4FC491CC2391F073
:1032600081110E945B18EC2FF0E0EE0FFF1FE4517C
:10327000FD4FA591B4912C912D2381E090E021F494
:1032800080E002C080E090E0DF91CF910895CF927E
:10329000DF92EF92FF920F931F93CF93DF9390E013
:1032A000FC01E05AFD4FD491FC01EA55FD4F7491A9
:1032B000611102C0C0E001C0CD2FDA01C901BF70A9
:1032C000672F70E0660F771F64517D4F00E010E0BC
:1032D0009801FB01E590F490F70140814D234C13D8
:1032E0001EC0680179014FEFC41AD40AE40AF40A37
:1032F000081719072A073B0709F442C097018601FE
:10330000E8CF68017901FFEFCF1ADF0AEF0AFF0A61
:10331000081719072A073B0799F197018601FB0156
:10332000E590F490F70140814D234C13EACF801BC8
:10333000910BA20BB30B20E030E0A901FB01E5905B
:10334000F490F701F080FD22FC120AC0281739071B
:103350004A075B07A9F02F5F3F4F4F4F5F4FEECFFC
:10336000A8E1B0E00E946121605F7F4F8F4F9F4FC7
:1033700024E096958795779567952A95D1F703C0B0
:1033800060E070E0CB01DF91CF911F910F91FF9032
:10339000EF90DF90CF900895FC01818D228D90E019
:1033A000805C9F4F821B91098F7399270895FC01C0
:1033B000918D828D981731F0828DE80FF11D858DEA
:1033C00090E008958FEF9FEF0895FC01918D828D1D
:1033D000981761F0828DDF01A80FB11D5D968C9169
:1033E000928D9F5F9F73928F90E008958FEF9FEF74
:1033F000089580EA9BE1892B41F080E090E0892BE1
:1034000021F00E94A01B811125C080E090E0892B53
:1034100041F080E090E0892B21F00E9400008111B2
:103420001CC080E090E0892B41F080E090E0892B87
:1034300021F00E940000811113C080E090E0892BF0
:10344000A1F080E090E0892B81F00E9400008111C2
:103450000AC008950E940000D8CF0E940000E1CF6A
:103460000E940000EACF0C9400000895FC01848DB6
:10347000DF01A80FB11DA35ABF4F2C91848D90E09E
:1034800001968F739927848FA689B7892C93A08979
:10349000B1898C9180648C93938D848D981306C030
:1034A0000288F389E02D80818F7D80830895CF93FA
:1034B000DF93EC01888D8823C9F0EA89FB8980813C
:1034C00085FD05C0A889B9898C9186FD0FC00FB60E
:1034D00007FCF5CF808185FFF2CFA889B9898C914F
:1034E00085FFEDCFCE010E94361AE7CFDF91CF9155
:1034F0000895CF92DF92FF920F931F93CF93DF93A4
:103500001F92CDB7DEB76C01DC015B969C915B9797
:103510005C968C915C97981307C05096ED91FC9146
:103520005197808185FD32C0F601038D10E00F5F59
:103530001F4F0F731127F02EF601848DF81211C062
:103540000FB607FCF9CFD6015096ED91FC9151973B
:10355000808185FFF1CFC60169830E94361A698197
:10356000EBCF838DE80FF11DE35AFF4F6083D60147
:103570005B960C935B975296ED91FC9153978081EB
:103580008062808381E058968C930DC0D601569658
:10359000ED91FC91579760835096ED91FC91519776
:1035A00080818064808381E090E00F90DF91CF91F3
:1035B0001F910F91FF90DF90CF900895BF92CF920F
:1035C000DF92EF92FF92CF93DF93EC016A017B01D0
:1035D000B22EE889F98982E08083411581EE58078F
:1035E00061057105A1F060E079E08DE390E0A7014D
:1035F00096010E941A21215031094109510956951D
:10360000479537952795211580E1380798F0E88987
:10361000F989108260E874E88EE190E0A7019601D4
:103620000E941A21215031094109510956954795A7
:1036300037952795EC85FD853083EE85FF852083C2
:10364000188EEC89FD89B082EA89FB8980818061CE
:103650008083EA89FB89808188608083EA89FB898D
:10366000808180688083EA89FB8980818F7D808367
:10367000DF91CF91FF90EF90DF90CF90BF900895B2
:103680001F920F920FB60F9211240BB60F922F9329
:103690008F939F93EF93FF93E091A503F091A6037F
:1036A0008081E091AB03F091AC0382FD12C0908168
:1036B0008091AE038F5F8F732091AF03821751F01B
:1036C000E091AE03F0E0EB56FC4F958F8093AE0394
:1036D00001C08081FF91EF919F918F912F910F9069
:1036E0000BBE0F900FBE0F901F9018951F920F9258
:1036F0000FB60F9211240BB60F922F933F934F9357
:103700005F936F937F938F939F93AF93BF93EF9349
:10371000FF9385E993E00E94361AFF91EF91BF91E4
:10372000AF919F918F917F916F915F914F913F9159
:103730002F910F900BBE0F900FBE0F901F901895FA
:1037400085E993E00E94CC1921E0892B09F420E05F
:10375000822F0895109298031092970388EE93E0B9
:10376000A0E0B0E08093990390939A03A0939B0309
:10377000B0939C038FE492E090939603809395031B
:1037800085EC90E09093A2038093A10384EC90E0F9
:103790009093A4038093A30380EC90E09093A603FE
:1037A0008093A50381EC90E09093A8038093A703F6
:1037B00082EC90E09093AA038093A90386EC90E0BA
:1037C0009093AC038093AB031092AE031092AF03BF
:1037D0001092B0031092B103089508950E94331718
:1037E0000E94ED1B0E946002C9EFD9E10E94800295
:1037F0002097E1F30E94F919F9CFCF92DF92EF926F
:10380000FF920F931F93CF93DF936C017A01EB012B
:10381000E60EF71E00E010E0CE15DF0561F06991BD
:10382000D601ED91FC910190F081E02DC601199532
:10383000080F191FF1CFC801DF91CF911F910F9190
:10384000FF90EF90DF90CF9008956115710581F0A2
:10385000DB010D900020E9F7AD0141505109461BF5
:10386000570BDC01ED91FC910280F381E02D19945E
:1038700080E090E00895DC01ED91FC91DB0114966D
:103880004D915C9115976D917C910280F381E02DB3
:1038900019940C94251CDC01ED91FC910190F081B0
:1038A000E02D19940F931F93CF93DF93EC016DE0FC
:1038B0000E944B1C8C016AE0CE010E944B1C800FC1
:1038C000911FDF91CF911F910F9108950F931F9337
:1038D000CF93DF93EC010E943B1C8C01CE010E9430
:1038E000521C800F911FDF91CF911F910F9108956E
:1038F0000F931F93CF93DF93EC010E94251C8C0143
:10390000CE010E94521C800F911FDF91CF911F9119
:103910000F9108954F925F926F927F92AF92BF92F4
:10392000CF92DF92EF92FF920F931F93CF93DF938B
:10393000CDB7DEB729013A01621B730B840B950BDF
:103940002A893B894C895D892A193B094C095D0903
:103950002A8B3B8B4C8B5D8B9B01AC016A897B89ED
:103960008C899D890E94EA20E418F5080609170948
:10397000A80197010E943C212A0D3B1D4C1D5D1D95
:10398000CA01B901DF91CF911F910F91FF90EF9084
:10399000DF90CF90BF90AF907F906F905F904F90EF
:1039A0000895FC01808191810C944C22CF93DF9388
:1039B000EC0188819981009711F00E944C221982B4
:1039C00018821D821C821B821A82DF91CF9108957A
:1039D0000F931F93CF93DF93EC018B016F5F7F4FAA
:1039E000888199810E94DB22009731F09983888336
:1039F0001B830A8381E001C080E0DF91CF911F919A
:103A00000F910895CF93DF93EC0188819981892BE1
:103A100029F08A819B818617970760F4CE010E9466
:103A2000E81C882341F08C819D81892B19F4E88161
:103A3000F981108281E0DF91CF910895EF92FF929A
:103A40000F931F93CF93DF93EC017B018A01BA019F
:103A50000E94021D811104C0CE010E94D61C07C025
:103A60001D830C83B701888199810E94FD23CE01BB
:103A7000DF91CF911F910F91FF90EF900895FC017E
:103A800011821082138212821582148261157105CF
:103A900059F0FB0101900020E9F7AF0141505109B5
:103AA000461B570B0C941E1D0895CF93DF93EC011A
:103AB000FB018617970761F06081718161157105BF
:103AC00029F0448155810E941E1D02C00E94D61C0F
:103AD000CE01DF91CF910895CF93DF93EC01611573
:103AE000710561F0FB0101900020E9F7AF01415041
:103AF0005109461B570B0E941E1D02C00E94D61C76
:103B0000CE01DF91CF9108950F931F93CF93DF9351
:103B1000CDB7DEB762970FB6F894DEBF0FBECDBF4C
:103B20008C01CB01F801118210821382128215825E
:103B3000148250E0BE016F5F7F4F0E940424BE01DB
:103B40006F5F7F4FC8010E946C1D62960FB6F8949C
:103B5000DEBF0FBECDBFDF91CF911F910F910895B2
:103B6000EF92FF920F931F93CF93DF93CDB7DEB702
:103B7000A1970FB6F894DEBF0FBECDBF7C01CB017D
:103B8000BA01F70111821082138212821582148207
:103B900042E0420F8E010F5F1F4F0E949321BC0134
:103BA000C7010E946C1DA1960FB6F894DEBF0FBE30
:103BB000CDBFDF91CF911F910F91FF90EF900895AE
:103BC000EF92FF920F931F93CF93DF93EC017B0152
:103BD0000C811D816115710511F480E016C041153D
:103BE000510591F0040F151FB8010E94021D882392
:103BF000A1F3288139818C819D81B701820F931FA8
:103C00000E94FD231D830C8381E0DF91CF911F91E2
:103C10000F91FF90EF900895CF93DF931F921F9223
:103C2000CDB7DEB769831A8241E050E0BE016F5F15
:103C30007F4F0E94E01D0F900F90DF91CF9108956C
:103C4000CF93DF93EC01FB01448155816081718149
:103C50000E94E01D811103C0CE010E94D61CCE013E
:103C6000DF91CF910895CF93DF93EC01611571053A
:103C700069F0FB0101900020E9F7AF0141505109C3
:103C8000461B570B0E94E01D811103C0CE010E940C
:103C9000D61CCE01DF91CF910895FC01248135819E
:103CA000232B31F421E061157105A1F0FB0108C05F
:103CB000FC01808191816115710531F421E0FC01E5
:103CC0008081882339F005C00E94F42321E0892BEC
:103CD00009F020E0822F0895FC0184819581681706
:103CE000790720F480819181009729F410923204A1
:103CF00082E394E00895860F971F0895BF92CF92B4
:103D0000DF92EF92FF920F931F93CF93DF936C019B
:103D10007B01EA0189012417350720F48D2FE90181
:103D2000042F182F61E372E0C6010E943F1DD701E6
:103D300014968D919C911597C817D907C8F48017D0
:103D4000910708F48C01D701ED91FC911197E00FD8
:103D5000F11FB08010826D917C916C0F7D1FC601A8
:103D60000E946C1DD701ED91FC91E00FF11FB08214
:103D7000C601DF91CF911F910F91FF90EF90DF90DF
:103D8000CF90BF900895FC0180819181009711F040
:103D90000C94C42360E070E0CB010895089550585E
:103DA000BB27AA270ED075C166D130F06BD120F0A9
:103DB00031F49F3F11F41EF45BC10EF4E095E7FB74
:103DC00051C1E92F77D180F3BA17620773078407CF
:103DD000950718F071F49EF58FC10EF4E0950B2E47
:103DE000BA2FA02D0B01B90190010C01CA01A0014D
:103DF0001124FF27591B99F0593F50F4503E68F1A8
:103E00001A16F040A22F232F342F4427585FF3CFE8
:103E1000469537952795A795F0405395C9F77EF4B9
:103E20001F16BA0B620B730B840BBAF09150A1F002
:103E3000FF0FBB1F661F771F881FC2F70EC0BA0F88
:103E4000621F731F841F48F4879577956795B79510
:103E5000F7959E3F08F0B3CF9395880F08F0992708
:103E6000EE0F979587950895D9D008F481E00895CD
:103E70000CD00FC107D140F0FED030F021F45F3FED
:103E800019F0F0C0511139C1F3C014D198F399233E
:103E9000C9F35523B1F3951B550BBB27AA2762170E
:103EA0007307840738F09F5F5F4F220F331F441F53
:103EB000AA1FA9F333D00E2E3AF0E0E830D091508B
:103EC0005040E695001CCAF729D0FE2F27D0660F78
:103ED000771F881FBB1F261737074807AB07B0E8B7
:103EE00009F0BB0B802DBF01FF2793585F4F2AF0CD
:103EF0009E3F510568F0B6C000C15F3FECF3983EAD
:103F0000DCF3869577956795B795F7959F5FC9F729
:103F1000880F911D9695879597F90895E1E0660FB2
:103F2000771F881FBB1F621773078407BA0720F02B
:103F3000621B730B840BBA0BEE1F88F7E095089594
:103F400004D06894B111D9C00895BCD088F09F57AF
:103F500090F0B92F9927B751A0F0D1F0660F771FD5
:103F6000881F991F1AF0BA95C9F712C0B13081F0B5
:103F7000C3D0B1E00895C0C0672F782F8827B85FFD
:103F800039F0B93FCCF3869577956795B395D9F716
:103F90003EF490958095709561957F4F8F4F9F4F20
:103FA0000895E89409C097FB3EF49095809570952C
:103FB00061957F4F8F4F9F4F9923A9F0F92F96E975
:103FC000BB279395F695879577956795B795F111EA
:103FD000F8CFFAF4BB0F11F460FF1BC06F5F7F4F87
:103FE0008F4F9F4F16C0882311F096E911C0772399
:103FF00021F09EE8872F762F05C0662371F096E8A2
:10400000862F70E060E02AF09A95660F771F881F70
:10401000DAF7880F9695879597F90895990F000814
:10402000550FAA0BE0E8FEEF16161706E807F9078A
:10403000C0F012161306E407F50798F0621B730B25
:10404000840B950B39F40A2661F0232B242B252BA6
:1040500021F408950A2609F4A140A6958FEF811D49
:10406000811D089597F99F6780E870E060E00895EA
:104070009FEF80EC089500240A9416161706180680
:104080000906089500240A9412161306140605065C
:104090000895092E0394000C11F4882352F0BB0FED
:1040A00040F4BF2B11F460FF04C06F5F7F4F8F4F50
:1040B0009F4F089557FD9058440F551F59F05F3F8B
:1040C00071F04795880F97FB991F61F09F3F79F03A
:1040D00087950895121613061406551FF2CF4695BC
:1040E000F1DF08C0161617061806991FF1CF86953E
:1040F0007105610508940895E894BB276627772722
:10410000CB0197F908958ADF08F48FEF08950BD05B
:10411000C0CFB1DF28F0B6DF18F0952309F0A2CFA9
:10412000A7CF1124EACFC6DFA0F3959FD1F3950F57
:1041300050E0551F629FF001729FBB27F00DB11D2B
:10414000639FAA27F00DB11DAA1F649F6627B00DBB
:10415000A11D661F829F2227B00DA11D621F739FA4
:10416000B00DA11D621F839FA00D611D221F749FB2
:104170003327A00D611D231F849F600D211D822FF9
:10418000762F6A2F11249F5750408AF0E1F0882340
:104190004AF0EE0FFF1FBB1F661F771F881F91504D
:1041A0005040A9F79E3F510570F05CCFA6CF5F3F0E
:1041B000ECF3983EDCF3869577956795B795F79580
:1041C000E7959F5FC1F7FE2B880F911D9695879508
:1041D00097F90895DB018F939F930E946121BF910E
:1041E000AF91A29F800D911DA39F900DB29F900D46
:1041F00011240895991B79E004C0991F961708F0BF
:10420000961B881F7A95C9F78095089597FB072E0E
:1042100016F4009407D077FD09D00E94702107FCA6
:1042200005D03EF4909581959F4F089570956195C6
:104230007F4F0895A1E21A2EAA1BBB1BFD010DC0E2
:10424000AA1FBB1FEE1FFF1FA217B307E407F50746
:1042500020F0A21BB30BE40BF50B661F771F881F22
:10426000991F1A9469F760957095809590959B01B8
:10427000AC01BD01CF010895052E97FB1EF40094FB
:104280000E94532157FD07D00E941A2107FC03D03A
:104290004EF40C94532150954095309521953F4F05
:1042A0004F4F5F4F089590958095709561957F4F22
:1042B0008F4F9F4F0895EE0FFF1F0590F491E02D53
:1042C00019940E948421A59F900DB49F900DA49FE6
:1042D000800D911D112408950790F691E02D1994F9
:1042E000AA1BBB1B51E107C0AA1FBB1FA617B7071C
:1042F00010F0A61BB70B881F991F5A95A9F7809538
:104300009095BC01CD010895A29FB001B39FC0015B
:10431000A39F700D811D1124911DB29F700D811DF1
:104320001124911D0895EF920F931F93CF93DF9364
:10433000E80147FF02C034E101C034E0E42FFF2769
:10434000E7FDF095F7FF03C0F195E195F109E32E44
:10435000022F2E2FAE010E944924CE01DF91CF9172
:104360001F910F91EF900895CF93DF9382309105C5
:1043700010F482E090E0E0913504F091360420E002
:1043800030E0A0E0B0E0309739F14081518148172A
:104390005907B8F04817590771F482819381109733
:1043A00029F013969C938E9312972CC09093360409
:1043B0008093350427C02115310531F0421753078A
:1043C00018F0A901DB0101C0EF019A01BD01DF0175
:1043D0000280F381E02DD7CF21153105F9F0281B9C
:1043E000390B2430310580F48A819B816115710578
:1043F00021F0FB019383828304C090933604809361
:104400003504FE01329644C0FE01E20FF31F819392
:10441000919322503109398328833AC02091330483
:1044200030913404232B41F4209102023091030295
:104430003093340420933304209100023091010220
:104440002115310541F42DB73EB74091040250913A
:104450000502241B350BE0913304F0913404E2177C
:10446000F307A0F42E1B3F0B2817390778F0AC0197
:104470004E5F5F4F2417350748F04E0F5F1F509374
:104480003404409333048193919302C0E0E0F0E060
:10449000CF01DF91CF910895CF93DF93009709F477
:1044A00087C0FC01329713821282C0913504D091EB
:1044B0003604209781F420813181280F391F8091A3
:1044C0003304909134048217930779F5F093340400
:1044D000E09333046DC0DE0120E030E0AE17BF078B
:1044E00050F412964D915C9113979D014115510521
:1044F00009F1DA01F3CFB383A28340815181840FA4
:10450000951F8A179B0771F48D919C911197840FC9
:10451000951F02969183808312968D919C9113979B
:10452000938382832115310529F4F0933604E093B7
:1045300035043EC0D9011396FC93EE9312974D912A
:104540005D91A40FB51FEA17FB0779F48081918173
:10455000840F951F0296D90111969C938E938281A8
:10456000938113969C938E931297E0E0F0E08A81FA
:104570009B81009719F0FE01EC01F9CFCE01029664
:1045800028813981820F931F2091330430913404A4
:104590002817390769F4309729F4109236041092DD
:1045A000350402C013821282D0933404C0933304C2
:1045B000DF91CF9108956F927F928F929F92AF92E9
:1045C000BF92CF92DF92EF92FF920F931F93CF9300
:1045D000DF93EC01CB01209781F4DF91CF911F9104
:1045E0000F91FF90EF90DF90CF90BF90AF909F9092
:1045F0008F907F906F900C94B421FE01E60FF71F0F
:104600009E0122503109E217F30708F4ACC0D9012A
:104610000D911C91119706171707B8F00530110579
:1046200008F49FC0A801445051094617570708F4E1
:1046300098C002501109061B170B019311936D933B
:104640007C93CF010E944C228CC05B01A01AB10A5E
:104650004E01800E911EA0913504B0913604612C5C
:10466000712C60E070E0109709F449C0A815B905F5
:10467000C9F5ED90FC901197670142E0C40ED11C82
:10468000CA14DB0478F147018A189B08640142E0F0
:10469000C40ED11C1296BC9012971396AC91B5E043
:1046A000CB16D10440F0B282A38391828082D901DB
:1046B0008D939C9309C00E5F1F4F0E0D1F1DF901B6
:1046C00011830083EB2DFA2F6115710531F0DB01A9
:1046D0001396FC93EE93129744C0F0933604E09344
:1046E00035043FC06D917C9111976616770608F4EA
:1046F0003B01BD0112960D90BC91A02DB4CF6091ED
:1047000033047091340468157905E9F46816790664
:10471000D0F440910002509101024115510541F43D
:104720004DB75EB76091040270910502461B570BAE
:10473000E417F507C0F4F0933404E0933304F9016F
:10474000918380830EC00E94B4217C01009759F0B0
:10475000A801BE010E94EB23CE010E944C22C7019A
:1047600004C0CE0102C080E090E0DF91CF911F91A4
:104770000F91FF90EF90DF90CF90BF90AF909F9000
:104780008F907F906F9008951F93FC019927882741
:10479000BC01E89411911032E9F3193010F01E3089
:1047A000C8F31B3251F01D3249F4689406C00E94D0
:1047B0001A24610F711D811D911D119110531A3022
:1047C000B0F33EF490958095709561957F4F8F4F33
:1047D0009F4F1F910895FB01DC0102C001900D92D3
:1047E00041505040D8F70895FB01DC018D910190B4
:1047F00080190110D9F3990B0895FB01DC01019098
:104800000D920020E1F708954532510520F4423021
:1048100010F00C940F24FB011082CB010895BB27EC
:104820004A3031F4992322F4BDE2909581959F4F4F
:104830000C943024592F482F372F262F660F771FBF
:10484000881F991F660F771F881F991F620F731F9C
:10485000841F951F660F771F881F991F0895BB2718
:10486000FB015527AA27880F991FAA1FA41710F02C
:10487000A41B83955051B9F7A05DAA3308F0A95D38
:10488000A193009779F7B111B1931192CB010C94D8
:104890009F266F927F929F92AF92BF92CF92DF92AC
:1048A000EF92FF920F931F93CF93DF93CDB7DEB7B5
:1048B00029970FB6F894DEBF0FBECDBF6A01B22EA6
:1048C000102F0C3320F4FF24F394F00E02C04CE3BD
:1048D000F42E0F2D27E0AE014F5F5F4F0E94C725DA
:1048E0007981272F2970213031F0E1FC06C0E0FCEE
:1048F00006C060E005C06DE203C06BE201C060E28B
:10490000AE2DA07173FF36C0662311F084E001C0A4
:1049100083E08B1510F4B81A01C0B12CA1110BC0A3
:10492000F6018B2D90E2882319F091938150FBCFF3
:10493000CB0CD11CB12C662331F0F60160839601BB
:104940002F5F3F4F6901C6010396E2FE05C02EE4CA
:10495000F601208331E404C02EE6F601208331E61F
:1049600031832283FC012B2D30E22223F1F131939C
:104970002150FBCF72FF40C0662311F084E001C0DC
:1049800083E08B1510F4B81A01C0B12CA1110BC033
:10499000F6018B2D90E2882319F091938150FBCF83
:1049A000CB0CD11CB12C662331F0F601608396014B
:1049B0002F5F3F4F6901C6010396E2FE07C029E45D
:1049C000F60120832EE4218326E406C029E6F601C1
:1049D00020832EE6218326E62283FC012B2D30E264
:1049E000222319F031932150FBCFFC01EB0DF11D77
:1049F00010828EEF9FEFB7C0B1E0611101C0B0E04F
:104A00004B2F50E01816190624F49C012F5F3F4FDE
:104A100002C021E030E0240F351F112329F0412F7F
:104A200050E04F5F5F4F02C040E050E0420F531F25
:104A30002B2D30E04217530714F4B41A01C0B12CE7
:104A40002E2D287159F4F6012B2D30E2222319F076
:104A500031932150FBCFCB0CD11CB12CBB2331F0B7
:104A6000F601608396012F5F3F4F6901A1110BC0D2
:104A7000F6012B2D30E3222319F031932150FBCF87
:104A8000CB0CD11CB12CF80E0A81372F3071A32E1C
:104A900074FF03C0013309F4FA941F142CF42F2D72
:104AA000293018F028E001C021E0682F392F97FF46
:104AB00002C060E030E0462F532F612C712C3EE2A3
:104AC000932EBC01621B71099B01DC01A41BB50B79
:104AD000E1E0F0E0EC0FFD1FAE0FBF1FE12EF12C67
:104AE000F194E194F1084F3FFFEF5F0731F4F601D5
:104AF0009082B6016F5F7F4F6B01841795074CF072
:104B00002417350734F4BD01660D771DFB011181B3
:104B100001C010E341505109FFEF6F1A7F0AB6013F
:104B20006F5F7F4F4E155F0524F0F60110836B0118
:104B3000DACF4817590739F4063320F4053319F44E
:104B4000A11001C011E3F6011083FB018B2D90E24F
:104B5000882319F091938150FBCFFB01EB0DF11DE0
:104B6000108280E090E029960FB6F894DEBF0FBE69
:104B7000CDBFDF91CF911F910F91FF90EF90DF900C
:104B8000CF90BF90AF909F907F906F900895283006
:104B900008F027E03327DA01990F311D87FD916076
:104BA00000966105710539F432602E5F3D9330E364
:104BB0002A95E1F708959F3F30F08038710561052F
:104BC00009F03C5F3C5F3D93913008F08068911D97
:104BD000DF93CF931F930F93FF92EF92192F987F3C
:104BE0009695E92F96959695E90FFF27EC56FC4F81
:104BF00099273327EE24FF24A701E70105900894A5
:104C0000079428F4360FE71EF81E491F511D660F42
:104C1000771F881F991F0694A1F70590079428F421
:104C2000E70EF81E491F561FC11D770F881F991FD9
:104C3000661F0694A1F70590079428F4F80E491F03
:104C4000561FC71FD11D880F991F661F771F069417
:104C5000A1F70590079420F4490F561FC71FD81FCE
:104C6000990F661F771F881F0694A9F784911095E6
:104C7000177041F0D695C79557954795F794E794E7
:104C80001A95C1F7EAE3F3E0689415901591359110
:104C90006591959105907FE27395E118F10A430BB8
:104CA000560BC90BD009C0F7E10CF11E431F561F6C
:104CB000C91FD01D7EF4703311F48A95E6CFE894B5
:104CC000015030F0080F0AF40027021708F4202FD3
:104CD0002395022F7A3328F079E37D932A95E9F71B
:104CE00010C07D932A9589F6069497956795379518
:104CF00017951794E118F10A430B560BC90BD0090D
:104D000098F023957E9173957A3308F070E37C9345
:104D10002013B8F77E9170617D9330F0839571E335
:104D20007D9370E32A95E1F71124EF90FF900F91A6
:104D30001F91CF91DF91992787FD90950895DC0110
:104D4000FC01672F71917723E1F7329704C07C91C2
:104D50006D9370836291AE17BF07C8F3089514E096
:104D6000C8E3D4E000E006C022970109FE010BBFB2
:104D70000E946C21CA33D10780E00807A9F7F89494
:024D8000FFCF63
:104D82000000370480000100000024445450002435
:104D92004454500A00444F3A2000544F3A200046EF
:104DA2004C3A200046523A200054524100244450CA
:104DB2000A00245250002452503000245250303005
:104DC200002453500A002449500A000000000079D0
:0C4DD2001AFD1BCC19E519D719571A005F
:00000001FF
