:100000000C94A0010C941D0C0C944E0C0C947F0CC1
:100010000C94B00C0C94E10C0C94120D0C94430D48
:100020000C94740D0C94D1010C94D1010C94D10159
:100030000C94D1010C94D1010C94D1010C94D101F8
:100040000C94D1010C948B090C94D1010C94D10126
:100050000C94D1010C94D1010C94D1010C94A50DF8
:100060000C94D1010C9447120C947D120C94D10184
:100070000C94D1010C94D1010C94D1010C94D101B8
:100080000C94B9090C94D1010C94D1010C94D101B8
:100090000C94D1010C94D1010C94D1010C94D10198
:1000A0000C94D1010C94D1010C94E7090C94D1016A
:1000B0000C94D1010C94D1010C94D1010C94150A2B
:1000C0000C94D1010C94D1010C94D1010C94D10168
:1000D0000C94D1010C94D1010C94D1010C94D10158
:1000E0000C94D101F70BC10BC90BD50BE20B030C20
:1000F000100CC20EC70ECC0ED60EE00E590FEA0E33
:10010000F20EFA0E040F0E0F180F270F310F590FB2
:100110003B0F450F4F0F7B0F7E0F6D0F710F770F4A
:10012000B50F820F860F8C0F900F940F9A0F9E0FB2
:10013000A20FB50FA80FAC0FB00F0C94C20E0C9409
:10014000B50F0C94C10B0C94CC0E0C94A20F0C9414
:10015000310F0C94590F0C94D50B0C94770F0C9411
:100160004C030C94FA0E0C94DB010C940E0F0C94BF
:10017000D7010C944F0F0C94D3010C94EA0E0C94FD
:10018000E20B0C94F20E0C94040F0C94DE100C9401
:10019000AC0F0C94270F0C949E0F0C94180F0C941A
:1001A000EC100C94100C0C94DF010C94B00F0C9418
:1001B000940F0C947B0F0C948C0F0C9404130C94E0
:1001C000F70B0C94A7120C94E00E0C943A030C94C9
:1001D000C70E0C94820F0C94D60E0C94A80F0C949E
:1001E0005E110C94710F0C94030C0C9400110C9480
:1001F000D3100C947E0F0C9480110C94B1120C94BB
:100200009A0F0C94900F0C946D0F0C94C90B0C94D6
:100210003B0F0C94860F0C94450F00000A0B02094B
:100220000C0D0E0807030401000000000000000090
:1002300000000000000000000000000000000000BE
:10024000000000000000121110000000000000007B
:10025000000000000000000000000000000000009E
:1002600001021020200808102040102040800201C8
:1002700002010804020101020408102040808040AD
:1002800020100804020180040201804020100804AC
:10029000020108040201010204081020408001024A
:1002A0000408102040800505050507050808080812
:1002B000020202020A0A08080404040401010101FE
:1002C00001010101030303030303030304070707F9
:1002D0000C0C0C0C0C0C0C0C02020202060606069E
:1002E000060606060B0B0B0B0B0B0B0B000020007E
:1002F0002300260029002C002F00320000010000FE
:1003000003010601090100002200250028002B003E
:100310002E003100340002010000050108010B012C
:1003200000002100240027002A002D0030003300A7
:1003300001010000040107010A013A03B1124C0354
:1003400011241FBECFEFD1E2DEBFCDBF00E00CBF56
:1003500012E0A0E0B2E0ECEAF4E300E00BBF02C080
:1003600007900D92A435B107D9F724E0A4E5B2E0D7
:1003700001C01D92A532B207E1F713E0CEE3D3E04E
:1003800000E006C022970109FE010BBF0E94811701
:10039000CA33D10780E00807A9F70E94F5120C9430
:1003A000441A0C94000084E592E00C942E0384E53A
:1003B00092E00C94310384E592E00C94340384E5DC
:1003C00092E00C94370384E592E00E94070242E039
:1003D00050E063ED71E082E00E94AC0B42E050E03F
:1003E00067ED71E083E00E94AC0B42E050E06BED02
:1003F00071E085E00E94AC0B42E050E06FED71E0EF
:1004000084E00C94AC0B84E592E00C948507AF92E9
:10041000BF92CF92DF92EF92FF920F931F93CF93F1
:10042000DF93CDB7DEB72A970FB6F894DEBF0FBEC5
:10043000CDBF5C01CE0101960E94E2078AE0FE0179
:100440003196D50101900D928A95E1F7F501E45BB3
:10045000FF4F1182108246E050E06AE370E08FECBB
:1004600092E00E94A308F501EE58FF4F118210821E
:10047000329611821082329681E080833196118209
:10048000108232961182108285E1C82ED12C98E11B
:10049000E92EF12C00E010E021E030E040E058E0EF
:1004A00062E070E0C5010C960E940B0824E1C22EA8
:1004B000D12C39E1E32EF12C01E010E021E030E015
:1004C00040E058E063E070E0C5014C960E940B08E4
:1004D00043E1C42ED12C5AE1E52EF12C00E010E0CE
:1004E00020E030E040E250E064E070E0C5018C962E
:1004F0000E940B0862E1C62ED12C7BE1E72EF12C85
:1005000001E010E020E030E040E250E065E070E023
:10051000C501CC960E940B0800E010E02FE130E00E
:100520004EE150E067E070E0C501825B9F4F0E94A2
:10053000F00701E010E021E230E040E250E068E046
:1005400070E0C501875A9F4F0E94F00761E087E085
:100550000E94B60F61E08EE10E94B60F61E088E074
:100560000E94B60F61E080E20E94B60F60E087E073
:100570000E94EF0F60E088E00E94EF0F69E070E0FA
:10058000C50189599F4F0E940E0B6AE070E0C501BA
:100590008C599F4F0E940E0B61E08DE00E94B60FB8
:1005A000F501EF58FF4F10826AE272E0C5018659EB
:1005B0009F4F0E946114F501E059FF4F108226E021
:1005C00040E052EC61E070E083E893E00E94E511C6
:1005D0002A960FB6F894DEBF0FBECDBFDF91CF9144
:1005E0001F910F91FF90EF90DF90CF90BF90AF9051
:1005F00008950F931F93CF93DF938B0164EF71E006
:1006000080E090E00E94120EC0E0D0E0C017D10759
:1006100004F560E08DE00E94EF0F6AEF70E080E08B
:1006200090E00E94120E61E08DE00E94EF0F6AEFF1
:1006300070E080E090E00E94120E60E08DE00E9489
:10064000EF0F6AEF70E080E090E00E94120E2196BA
:10065000DDCFDF91CF911F910F9108950C960C94EF
:1006600034084C960C9434088C960C943408CC9630
:100670000C94340884E592E00E94E20788EB92E053
:100680000E94430A8BEB92E00E94430A6AE272E006
:100690008EEB92E00C9434148EEB92E00C94C61323
:1006A0002F923F924F925F926F927F928F929F9282
:1006B000AF92BF92CF92DF92EF92FF920F931F9370
:1006C000CF93DF93CDB7DEB76A970FB6F894DEBF4E
:1006D0000FBECDBF8C016AE272E0CE010D960E9482
:1006E000341478012AE6E20EF11C62E070E0C701E2
:1006F0000E941215FC0180818C3409F461C082359E
:1007000009F4DFC0823409F42BC24801F9E58F0EE9
:10071000911C60E070E0C4010E94050858012EE4BD
:10072000A20EB11C61E070E0C5010E94050860E006
:1007300070E0C4010E94010860E070E0C5010E9401
:10074000010826E030E043E050E0B701CE01019619
:100750000E942415BE016F5F7F4FCE010D960E944F
:100760004A14CE0101960E94C613CE010D960E9436
:100770006915980129583F4F3C8B2B8B2AE0269F07
:100780002001279F500C1124EB89FC8980819181E5
:10079000480E591EC12CD12CE12CF12C9801245F5C
:1007A0003F4F3E8B2D8B205F3F4F388F2F8B205F2D
:1007B0003F4F3A8F298F18013CE3230E311CBDC1F6
:1007C0005801F9E5AF0EB11C60E070E0C5010E9470
:1007D000050868012EE4C20ED11C61E070E0C6017C
:1007E0000E94050825E030E043E050E0B701CE016B
:1007F00001960E942415BE016F5F7F4FCE010D96BA
:100800000E944A14CE0101960E94C613CE010D9695
:100810000E946915780139E7E30EF11C48EE53E0B8
:10082000649F9001659F300D749F300D1124B901B4
:10083000882777FD8095982F0E94101625E33AEFC0
:100840004EE85CE30E949C160E94DD15F701808053
:100850009180861A970A2801FCE24F0E511C045C15
:100860001F4F85E0382EF701808191818816990607
:100870000CF0A7C064E670E080E090E00E94120EE9
:10088000C2010E945E083C01C8010E945E08860DFC
:10089000971D97FD01963C0175946794369CC001A5
:1008A000379C900D1124F7019183808364E670E0FA
:1008B000C5010E94010864E670E0C6010E940108BB
:1008C000D2CF5801F9E5AF0EB11C60E070E0C50170
:1008D0000E94050868012EE4C20ED11C60E070E0A1
:1008E000C6010E94050825E030E043E050E0B70172
:1008F000CE0101960E942415BE016F5F7F4FCE018D
:100900000D960E944A14CE0101960E94C613CE0194
:100910000D960E946915780139E7E30EF11C48EE47
:1009200053E0649F9001659F300D749F300D11243A
:10093000B901882777FD8095982F0E94101625E32E
:100940003AEF4EE85CE30E949C160E94DD15F70129
:1009500080809180860E971E2801FCE24F0E511C6C
:10096000045C1F4FA5E03A2EF70180819181881524
:1009700099053CF564E670E080E090E00E94120E7C
:10098000C2010E945E083C01C8010E945E08860DFB
:10099000971D97FD01963C0175946794369CC001A4
:1009A000379C900D1124F7019183808364E670E0F9
:1009B000C5010E94010864E670E0C6010E940108BA
:1009C000D3CF60E070E0C5010E94010860E070E0F4
:1009D000C6010E940108C4C068EC70E080E090E0AD
:1009E0000E94120E8D899E890E945E083C018F89AB
:1009F000988D0E945E088C01898D9A8D0E945E08F8
:100A00006C01C1010E945E087C01C301800F911F2F
:100A100097FD019695958795EB89FC899183808355
:100A2000C1010E949F084AE0B601CE0107960E94CC
:100A300079146AE072E0CE0101960E943414BE017E
:100A4000695F7F4FCE0101960E94E514BC0183E8E7
:100A500093E00E946D13CE0101960E94C613CE0151
:100A600007960E94C6134AE0B701CE0107960E947E
:100A700079146FE072E0CE0101960E943414BE0139
:100A8000695F7F4FCE0101960E94E514BC0183E8A7
:100A900093E00E946D13CE0101960E94C613CE0111
:100AA00007960E94C6134AE0B301CE0107960E9442
:100AB000791464E172E0CE0101960E943414BE0103
:100AC000695F7F4FCE0101960E94E514BC0183E867
:100AD00093E00E946D13CE0101960E94C613CE01D1
:100AE00007960E94C6134AE0B801CE0107960E94FD
:100AF000791469E172E0CE0101960E943414BE01BE
:100B0000695F7F4FCE0101960E94E514BC0183E826
:100B100093E00E946D13CE0101960E94C613CE0190
:100B200007960E94C61362E370E0C5010E940108A7
:100B300062E370E0C4010E940108EB89FC898081B6
:100B40009181841595050CF447CF60E070E0C401F5
:100B50000E94010860E070E0C5010E94010804C025
:100B6000C12CD12CE12CF12C4AE0B601CE01079624
:100B70000E9479146EE172E0CE0101960E94341455
:100B8000BE01695F7F4FCE0101960E94E514BC0152
:100B900083E893E00E946D13CE0101960E94C61374
:100BA000CE0107960E94C6134AE0B701CE01079610
:100BB0000E94791462E272E0CE0101960E94341420
:100BC000BE01695F7F4FCE0101960E94E514BC0112
:100BD00083E893E00E946D13CE0101960E94C61334
:100BE000CE0107960E94C61366E272E083E893E0A6
:100BF0000E94501383E893E00E945E11CE010D968F
:100C00000E94C6136A960FB6F894DEBF0FBECDBF22
:100C1000DF91CF911F910F91FF90EF90DF90CF90D8
:100C2000BF90AF909F908F907F906F905F904F900C
:100C30003F902F9008958F929F92AF92BF92CF9244
:100C4000DF92EF92FF920F931F93CF93DF93CDB775
:100C5000DEB72C970FB6F894DEBF0FBECDBF8C0168
:100C60006AE272E0CE0107960E9434148FEC92E0A3
:100C70000E94B3086C01580126E7A20EB11CF501D1
:100C8000808198012C583F4F79018823D1F08FEC57
:100C900092E00E94B3084C018FEC92E00E94B308EE
:100CA0009601280D391D280F391FC90163E070E036
:100CB0000E941B1764517109F70171836083F5016C
:100CC0001082F701208131812C193D09F801EE587D
:100CD000FF4F37FD03C03183208302C01182108291
:100CE000608171814AE0CE0101960E947914BE01B3
:100CF0006F5F7F4FCE0107960E944A14CE01019686
:100D00000E94C6138B859C858330910519F46BE294
:100D100072E007C0029719F46FE272E002C064E368
:100D200072E0CE0101960E943414BE01695F7F4FCC
:100D3000CE0101960E94E51469E272E00E94F81467
:100D4000BC0183E893E00E944213CE0101960E9409
:100D5000C61383E893E00E945E11CE0107960E94BD
:100D6000C6132C960FB6F894DEBF0FBECDBFDF9131
:100D7000CF911F910F91FF90EF90DF90CF90BF9098
:100D8000AF909F908F90089563E070E00E94F90209
:100D90006AE372E083E893E00E94501383E893E0F3
:100DA0000C945E114F925F926F927F928F929F92FE
:100DB000AF92BF92CF92DF92EF92FF920F931F9369
:100DC000CF93DF93CDB7DEB72C970FB6F894DEBF85
:100DD0000FBECDBF8C015C018AE6A80EB11C24E0D9
:100DE00030E043E050E0B501CE0107960E942415A3
:100DF000CE0107960E9469154B0126E030E045E0E0
:100E000050E0B501CE0101960E942415BE016F5F2E
:100E10007F4FCE0107960E944A14CE0101960E9490
:100E2000C613CE0107960E9469152B013C0162E0B2
:100E300070E0C5010E941215FC0180818B3219F40B
:100E4000FAE58F0E911CB401C8018C599F4F0E9486
:100E5000470B6FE070E080E090E00E94120EB2015C
:100E6000C80189599F4F0E94470B6FE070E080E0F6
:100E700090E00E94120E6FE372E083E893E00E941C
:100E8000501383E893E00E945E11CE0107960E9402
:100E9000C6132C960FB6F894DEBF0FBECDBFDF9100
:100EA000CF911F910F91FF90EF90DF90CF90BF9067
:100EB000AF909F908F907F906F905F904F9008952C
:100EC000CF93DF93EC0161E070E086599F4F0E9461
:100ED0001215FC018081893471F0823539F0843437
:100EE00079F4CE01DF91CF910C945003CE01DF91C4
:100EF000CF910C941B06CE01DF91CF910C94D206BA
:100F0000CE01DF91CF910C94C406BF92CF92DF92B5
:100F1000EF92FF920F931F93CF93DF93EC018C011D
:100F20000F581F4F7C018AE6E80EF11C6E01E0E7C6
:100F3000CE0ED11CBB24B39483E893E00E94D3105F
:100F4000181619068CF483E893E00E94EC10F8015F
:100F50008083682FC7010E94D114F80180818A30F4
:100F600059F7F601B082E8CF64E670E080E090E0E7
:100F70000E94120E8E0100591F4FF80180818823B4
:100F8000B9F07E01FAE6EF0EF11C60E070E0C701F7
:100F90000E941215FC018081843251F4CE010E941E
:100FA00060076AE272E0C7010E946114F8011082D2
:100FB000DF91CF911F910F91FF90EF90DF90CF9035
:100FC000BF900895FC0181E090E0918380831382BB
:100FD0001282158214821782168211861086089555
:100FE0000F931F93FC017183608353834283358386
:100FF0002483178216821286118700871F910F9112
:101000000895FC0180810C949C0EFC01608771871F
:1010100082810C94EF0FCF92DF92EF92FF920F93A9
:101020001F93FC0171836083538342833187208740
:1010300013870287E686F786C486D58614821582D2
:101040001682178260E08C2D0E94B60F61E08C2D15
:101050000E94EF0F60E08E2D1F910F91FF90EF9097
:10106000DF90CF900C94B60FCF93DF93EC018A857D
:101070009B85892B51F48E850E9425104C815D81C2
:101080006E817F81019751F40EC08E850E942510DC
:101090004C815D816E817F81019729F44F5F5F4FA5
:1010A0006F4F7F4F04C041505109610971094C8352
:1010B0005D836E837F83DF91CF910895CF92DF921E
:1010C000EF92FF92CF93DF93EC016C817D818E8153
:1010D0009F81660F771F881F991F0E9410162BEDA6
:1010E0003FE049E450E40E949C166B017C016A8158
:1010F0007B81882777FD8095982F0E9410169B0191
:10110000AC01C701B6010E94751528853985232BCE
:1011100031F420E030E04CE852E40E94751520E004
:1011200030E04EEB52E40E949C160E94DD15CB018C
:10113000DF91CF91FF90EF90DF90CF900895FC0169
:10114000848195810895CF93DF93EC01842F7B8375
:101150006A834C835D8360E00E94B60F1982188217
:10116000DF91CF910895CF93DF93EC0120E432E437
:101170004FE050E061E08C810E944E102A813B815B
:10118000CB01B9010E941B17CB0179836883DF91E2
:10119000CF910895CF92DF92EF92FF920F931F931A
:1011A000CF93DF936C018B017A01EC01CA52DD4FC2
:1011B000888187FF04C0FB011182108223C02CE0CC
:1011C0002C9DC0012D9D900D11242881AC01420F52
:1011D000511D27FD5A952091D50230E04217530743
:1011E0008CF42881AC01420F511D27FD5A959A01BC
:1011F000FA01EE0FFF1FE20FF31FE652FD4F2081B1
:1012000026FD19C088818F5F88838CE08C9D9001BA
:101210008D9D300D11248881A901480F511D87FD36
:101220005A958091D50290E048175907B4F4888107
:101230008C303CF112C02881820F911D27FD9A95B8
:10124000FC01EE0FFF1FE80FF91FE652FD4F8081F2
:1012500060E08F730E94EF0FD5CFF80180819181FC
:10126000049680349C4918F480E49CE904C0F80199
:10127000808191810496F701918380838FEF888329
:1012800041C0F801808191814881B901640F711DCD
:1012900047FD7A95AB01FB01EE0FFF1FE40FF51F31
:1012A000E652FD4F41815281840F951FF7019183D2
:1012B00080838881A901480F511D87FD5A95FA0145
:1012C000EE0FFF1FE40FF51FE652FD4F808186FFF2
:1012D00019C08881280F311D87FD3A95F901EE0F5D
:1012E000FF1FE20FF31FE652FD4F808161E08F7315
:1012F000DF91CF911F910F91FF90EF90DF90CF90F2
:101300000C94EF0FDF91CF911F910F91FF90EF9011
:10131000DF90CF9008951F920F920FB60F92112475
:101320000BB60F922F933F934F935F936F937F93DF
:101330008F939F93AF93BF93EF93FF9348E850E051
:1013400064E870E081E090E00E94CA08FF91EF91AC
:10135000BF91AF919F918F917F916F915F914F91CD
:101360003F912F910F900BBE0F900FBE0F901F90CB
:1013700018951F920F920FB60F9211240BB60F9271
:101380002F933F934F935F936F937F938F939F938D
:10139000AF93BF93EF93FF9348E950E064E970E0A7
:1013A00082E090E00E94CA08FF91EF91BF91AF9157
:1013B0009F918F917F916F915F914F913F912F916D
:1013C0000F900BBE0F900FBE0F901F9018951F929D
:1013D0000F920FB60F9211240BB60F922F933F93DB
:1013E0004F935F936F937F938F939F93AF93BF932D
:1013F000EF93FF9348EA50E064EA70E083E090E006
:101400000E94CA08FF91EF91BF91AF919F918F9178
:101410007F916F915F914F913F912F910F900BBEF4
:101420000F900FBE0F901F9018951F920F920FB63E
:101430000F9211240BB60F922F933F934F935F930C
:101440006F937F938F939F93AF93BF93EF93FF938C
:1014500048E251E064E271E080E090E00E94CA0856
:10146000FF91EF91BF91AF919F918F917F916F917C
:101470005F914F913F912F910F900BBE0F900FBE38
:101480000F901F9018952091D5022033A0F431E0E1
:10149000320F3093D502FC012083822F90E0FC01B3
:1014A000EE0FFF1FE80FF91FE652FD4F88EB9BE0A0
:1014B0009283818308952FEFFC0120830895DF92AA
:1014C000EF92FF920F931F93CF93DF93EC01D62EF1
:1014D0007A0189018881803308F068C061E08D2D30
:1014E0000E94B60F8881A82FB0E0FD01EE0FFF1F0C
:1014F000EA0FFB1FE652FD4F2D2D2F739081907C3C
:10150000922B908360E272E06E197F0977FF02C030
:101510006D5F7F4F7595679575956795698340E613
:1015200059E0401B510B57FF02C04D5F5F4F55956F
:101530004795559547954A836CE00E940F179CE0AC
:10154000899FB001112420E030E0A901460F571F08
:10155000FA01EE0FFF1FE40FF51FE652FD4F9081D9
:1015600096FD18C02F5F3F4F2C30310571F790E08A
:101570008130910521F51092800082E080938100F6
:101580001092850010928400B19A80916F00826061
:1015900080936F00888190E0FC01EE0FFF1FE80F41
:1015A000F91FE652FD4F8081806480838881DF913E
:1015B000CF911F910F91FF90EF90DF9008958230AF
:1015C000910569F41092900082E08093910010924E
:1015D00095001092940088BB80937100DBCF83301C
:1015E000910569F41092A00082E08093A10010920E
:1015F000A5001092A40089BB80937200CBCF892BE9
:1016000049F61092200182E0809321011092250179
:10161000109224018ABB80937300BCCF20E639E08E
:1016200040E252E00C945F0AFC018081803370F547
:10163000918128E830E0291B310997FD3395220F6D
:10164000331F220F331F621773077CF0928128E546
:1016500032E0291B310997FD3395220F331F220FEA
:10166000331F621773070CF49B014FB7F89490E097
:10167000FC01EE0FFF1FE80FF91FE652FD4F22504D
:101680003109220F331F328321834FBF08954F92B8
:101690005F926F927F92AF92BF92CF92DF92EF9262
:1016A000FF920F931F93CF93DF93EC01603282E0A0
:1016B00078070CF040C077FD06C0653B71052CF043
:1016C00064EB70E002C060E070E0898128E830E0FF
:1016D000281B310987FD3395220F331F220F331F3B
:1016E0005901CC24B7FCC094DC2C882777FD809569
:1016F000982F2A8148E552E0421B510927FD539556
:10170000440F551F440F551F2A01662457FC60944F
:10171000762C7F926F925F924F9214EBE12EF12C18
:1017200000E010E020E030E0A9010E947F130F905C
:101730000F900F900F90CE01DF91CF911F910F91DD
:10174000FF90EF90DF90CF90BF90AF907F906F9021
:101750005F904F900C94140B883008F06DC0E82F08
:10176000F0E0EE0FFF1FE659FC4F7183608390E0BD
:10177000FC013197E730F10590F5EE58FF4F0C94DE
:101780007017809169008C7F842B80936900E89AA0
:10179000089580916900440F551F440F551F837FA2
:1017A000842B80936900E99A08958091690074E020
:1017B000440F551F7A95E1F78F7C842B8093690045
:1017C000EA9A08958091690066E0440F551F6A9572
:1017D000E1F78F73842B80936900EB9A08958091D1
:1017E0006A008C7F842B80936A00EC9A0895809124
:1017F0006A00440F551F440F551F837F842B80932D
:101800006A00ED9A089580916A0024E0440F551F04
:101810002A95E1F78F7C842B80936A00EE9A0895D5
:1018200080916A0096E0440F551F9A95E1F78F73F7
:10183000842B80936A00EF9A08951F920F920FB63F
:101840000F9211240BB60F922F933F934F935F93F8
:101850006F937F938F939F93AF93BF93EF93FF9378
:1018600080916E0390916F03892B29F0E0916E03B4
:10187000F0916F031995FF91EF91BF91AF919F91F7
:101880008F917F916F915F914F913F912F910F9029
:101890000BBE0F900FBE0F901F9018951F920F92C6
:1018A0000FB60F9211240BB60F922F933F934F93C5
:1018B0005F936F937F938F939F93AF93BF93EF93B8
:1018C000FF938091700390917103892B29F0E0912F
:1018D0007003F09171031995FF91EF91BF91AF9152
:1018E0009F918F917F916F915F914F913F912F9138
:1018F0000F900BBE0F900FBE0F901F9018951F9268
:101900000F920FB60F9211240BB60F922F933F93A5
:101910004F935F936F937F938F939F93AF93BF93F7
:10192000EF93FF938091720390917303892B29F0B9
:10193000E0917203F09173031995FF91EF91BF91BC
:10194000AF919F918F917F916F915F914F913F9157
:101950002F910F900BBE0F900FBE0F901F901895F8
:101960001F920F920FB60F9211240BB60F922F9366
:101970003F934F935F936F937F938F939F93AF9317
:10198000BF93EF93FF938091740390917503892B1C
:1019900029F0E0917403F09175031995FF91EF918F
:1019A000BF91AF919F918F917F916F915F914F9177
:1019B0003F912F910F900BBE0F900FBE0F901F9075
:1019C00018951F920F920FB60F9211240BB60F921B
:1019D0002F933F934F935F936F937F938F939F9337
:1019E000AF93BF93EF93FF9380916A0390916B0342
:1019F000892B29F0E0916A03F0916B031995FF910F
:101A0000EF91BF91AF919F918F917F916F915F9176
:101A10004F913F912F910F900BBE0F900FBE0F90E3
:101A20001F9018951F920F920FB60F9211240BB6AC
:101A30000F922F933F934F935F936F937F938F9367
:101A40009F93AF93BF93EF93FF9380916C0390911B
:101A50006D03892B29F0E0916C03F0916D031995CA
:101A6000FF91EF91BF91AF919F918F917F916F9176
:101A70005F914F913F912F910F900BBE0F900FBE32
:101A80000F901F9018951F920F920FB60F9211246E
:101A90000BB60F922F933F934F935F936F937F9368
:101AA0008F939F93AF93BF93EF93FF9380917603B0
:101AB00090917703892B29F0E0917603F0917703D9
:101AC0001995FF91EF91BF91AF919F918F917F9168
:101AD0006F915F914F913F912F910F900BBE0F909F
:101AE0000FBE0F901F9018951F920F920FB60F9276
:101AF00011240BB60F922F933F934F935F936F93E5
:101B00007F938F939F93AF93BF93EF93FF938091B6
:101B1000780390917903892B29F0E0917803F09173
:101B200079031995FF91EF91BF91AF919F918F919B
:101B30007F916F915F914F913F912F910F900BBECD
:101B40000F900FBE0F901F9018951F920F920FB617
:101B50000F9211242F933F938F939F93AF93BF9333
:101B600080917B0390917C03A0917D03B0917E03D3
:101B700030917A0323E0230F2D3720F40196A11D25
:101B8000B11D05C026E8230F0296A11DB11D2093AB
:101B90007A0380937B0390937C03A0937D03B0939F
:101BA0007E0380917F0390918003A0918103B09187
:101BB00082030196A11DB11D80937F039093800342
:101BC000A0938103B0938203BF91AF919F918F91B6
:101BD0003F912F910F900FBE0F901F9018953FB718
:101BE000F89480917F0390918003A0918103B0913C
:101BF000820326B5A89B05C02F3F19F00196A11DB1
:101C0000B11D3FBF6627782F892F9A2F620F711D54
:101C1000811D911D42E0660F771F881F991F4A950D
:101C2000D1F70895CF92DF92EF92FF92CF93DF9397
:101C30006B017C010E94EF0DEB01C114D104E104A2
:101C4000F10489F00E9474150E94EF0D6C1B7D0B4E
:101C5000683E734090F381E0C81AD108E108F108AA
:101C6000C851DC4FEACFDF91CF91FF90EF90DF902A
:101C7000CF900895789484B5826084BD84B58160E6
:101C800084BD85B5826085BD85B5816085BDEEE684
:101C9000F0E0808181608083E1E8F0E01082808163
:101CA00082608083808181608083E0E8F0E08081D1
:101CB00081608083E1EBF0E0808184608083E0EBF1
:101CC000F0E0808181608083E1E9F0E080818260E2
:101CD0008083808181608083E0E9F0E080818160A1
:101CE0008083E1EAF0E0808182608083808181608E
:101CF0008083E0EAF0E0808181608083E1E2F1E0CE
:101D0000808182608083808181608083E0E2F1E075
:101D1000808181608083EAE7F0E080818460808355
:101D200080818260808380818160808380818068FF
:101D300080831092C10008951F93CF93DF93182FD3
:101D4000EB0161E00E94B60F209711F460E004C03F
:101D5000CF3FD10539F461E0812FDF91CF911F9101
:101D60000C94EF0FE12FF0E0E65EFD4F449150E060
:101D7000FA013197E231F10508F09BC0E758FF4FB7
:101D80000C94701784B5806884BDC7BD97C084B5B6
:101D9000806284BDC8BD92C08091800080688093BD
:101DA0008000D0938900C093880088C08091800013
:101DB000806280938000D0938B00C0938A007EC0A5
:101DC00080918000886080938000D0938D00C093C4
:101DD0008C0074C08091B00080688093B000C09384
:101DE000B3006CC08091B00080628093B000C0935B
:101DF000B40064C080919000806880939000D0937C
:101E00009900C09398005AC080919000806280939E
:101E10009000D0939B00C0939A0050C08091900096
:101E2000886080939000D0939D00C0939C0046C032
:101E30008091A00080688093A0008091A0008F7B9B
:101E40008093A000D093A900C093A80037C08091D0
:101E5000A00080628093A000D093AB00C093AA0042
:101E60002DC08091A00088608093A000D093AD0029
:101E7000C093AC0023C08091200180688093200132
:101E8000D0932901C093280119C08091200180625C
:101E900080932001D0932B01C0932A010FC0809121
:101EA0002001886080932001D0932D01C0932C01E4
:101EB00005C0C038D1050CF04ECF48CFDF91CF918F
:101EC0001F91089590E0FC013197E231F10508F08F
:101ED0004CC0E557FF4F0C947017809180008F77AE
:101EE00003C0809180008F7D809380000895809151
:101EF0008000877FF9CF84B58F7702C084B58F7D4E
:101F000084BD08958091B0008F7703C08091B000A8
:101F10008F7D8093B0000895809190008F7707C0E7
:101F2000809190008F7D03C080919000877F809387
:101F3000900008958091A0008F7707C08091A00045
:101F40008F7D03C08091A000877F8093A0000895BB
:101F5000809120018F7707C0809120018F7D03C081
:101F600080912001877F809320010895CF93DF9394
:101F700090E0FC01E05AFD4F2491FC01EA55FD4F31
:101F80008491882349F190E0880F991FFC01E05E5D
:101F9000FC4FA591B4918A5F9C4FFC01C591D491EF
:101FA0009FB7611108C0F8948C91209582238C937F
:101FB000888182230AC0623051F4F8948C91322FC8
:101FC000309583238C938881822B888304C0F89476
:101FD0008C91822B8C939FBFDF91CF9108950F93AB
:101FE0001F93CF93DF931F92CDB7DEB7282F30E03A
:101FF000F901E65EFD4F8491F901E05AFD4F14911D
:10200000F901EA55FD4F04910023C9F0882321F01E
:1020100069830E94620F6981E02FF0E0EE0FFF1FDD
:10202000EA5FFC4FA591B4919FB7F8948C91611130
:1020300003C01095812301C0812B8C939FBF0F900B
:10204000DF91CF911F910F910895CF93DF93282FA8
:1020500030E0F901E65EFD4F8491F901E05AFD4F51
:10206000D491F901EA55FD4FC491CC2391F081112F
:102070000E94620FEC2FF0E0EE0FFF1FE451FD4FC6
:10208000A591B4912C912D2381E090E021F480E082
:1020900002C080E090E0DF91CF910895CF92DF926F
:1020A000EF92FF920F931F93CF93DF9390E0FC0189
:1020B000E05AFD4FD491FC01EA55FD4F7491611136
:1020C00002C0C0E001C0CD2FDA01C901BF70672F87
:1020D00070E0660F771F64517D4F00E010E09801BB
:1020E000FB01E590F490F70140814D234C131EC095
:1020F000680179014FEFC41AD40AE40AF40A0817F8
:1021000019072A073B0709F442C097018601E8CF67
:1021100068017901FFEFCF1ADF0AEF0AFF0A0817FB
:1021200019072A073B0799F197018601FB01E59002
:10213000F490F70140814D234C13EACF801B910BA3
:10214000A20BB30B20E030E0A901FB01E590F49075
:10215000F701F080FD22FC120AC0281739074A0750
:102160005B07A9F02F5F3F4F4F4F5F4FEECFA8E1C6
:10217000B0E00E947617605F7F4F8F4F9F4F24E043
:1021800096958795779567952A95D1F703C060E076
:1021900070E0CB01DF91CF911F910F91FF90EF90F5
:1021A000DF90CF900895FC01818D228D90E0805CBE
:1021B0009F4F821B91098F7399270895FC01918D80
:1021C000828D981731F0828DE80FF11D858D90E09A
:1021D00008958FEF9FEF0895FC01918D828D9817E0
:1021E00061F0828DDF01A80FB11D5D968C91928DFB
:1021F0009F5F9F73928F90E008958FEF9FEF0895F8
:1022000087EA92E1892B41F080E090E0892B21F070
:102210000E94A712811125C080E090E0892B41F037
:1022200080E090E0892B21F00E94000081111CC009
:1022300080E090E0892B41F080E090E0892B21F054
:102240000E940000811113C080E090E0892BA1F072
:1022500080E090E0892B81F00E94000081110AC08B
:1022600008950E940000D8CF0E940000E1CF0E9494
:102270000000EACF0C9400000895FC01848DDF017A
:10228000A80FB11DA35ABF4F2C91848D90E00196E9
:102290008F739927848FA689B7892C93A089B189D8
:1022A0008C9180648C93938D848D981306C00288E2
:1022B000F389E02D80818F7D80830895CF93DF9314
:1022C000EC01888D8823C9F0EA89FB89808185FD2E
:1022D00005C0A889B9898C9186FD0FC00FB607FC8F
:1022E000F5CF808185FFF2CFA889B9898C9185FFD0
:1022F000EDCFCE010E943D11E7CFDF91CF91089540
:10230000CF92DF92FF920F931F93CF93DF931F9291
:10231000CDB7DEB76C01DC015B969C915B975C9658
:102320008C915C97981307C05096ED91FC91519752
:10233000808185FD32C0F601038D10E00F5F1F4FD5
:102340000F731127F02EF601848DF81211C00FB60D
:1023500007FCF9CFD6015096ED91FC915197808101
:1023600085FFF1CFC60169830E943D116981EBCFE2
:10237000838DE80FF11DE35AFF4F6083D6015B9612
:102380000C935B975296ED91FC91539780818062FC
:10239000808381E058968C930DC0D6015696ED91BE
:1023A000FC91579760835096ED91FC9151978081F5
:1023B0008064808381E090E00F90DF91CF911F9146
:1023C0000F91FF90DF90CF900895BF92CF92DF9250
:1023D000EF92FF92CF93DF93EC016A017B01B22E63
:1023E000E889F98982E08083411581EE580761050B
:1023F0007105A1F060E079E08DE390E0A70196011E
:102400000E942F17215031094109510956954795CE
:1024100037952795211580E1380798F0E889F989E3
:10242000108260E874E88EE190E0A70196010E94B6
:102430002F17215031094109510956954795379574
:102440002795EC85FD853083EE85FF852083188EEA
:10245000EC89FD89B082EA89FB8980818061808373
:10246000EA89FB89808188608083EA89FB89808191
:1024700080688083EA89FB8980818F7D8083DF91FA
:10248000CF91FF90EF90DF90CF90BF9008951F9273
:102490000F920FB60F9211240BB60F922F938F93BA
:1024A0009F93EF93FF93E0919303F09194038081C6
:1024B000E0919903F0919A0382FD12C0908180917E
:1024C0009C038F5F8F7320919D03821751F0E091E1
:1024D0009C03F0E0ED57FC4F958F80939C0301C067
:1024E0008081FF91EF919F918F912F910F900BBE63
:1024F0000F900FBE0F901F9018951F920F920FB65E
:102500000F9211240BB60F922F933F934F935F932B
:102510006F937F938F939F93AF93BF93EF93FF93AB
:1025200083E893E00E943D11FF91EF91BF91AF913D
:102530009F918F917F916F915F914F913F912F91DB
:102540000F900BBE0F900FBE0F901F90189583E851
:1025500093E00E94D31021E0892B09F420E0822F20
:102560000895109286031092850388EE93E0A0E010
:10257000B0E08093870390938803A0938903B0937E
:102580008A0388E492E0909384038093830385EC2C
:1025900090E09093900380938F0384EC90E090936D
:1025A00092038093910380EC90E090939403809346
:1025B000930381EC90E0909396038093950382ECD3
:1025C00090E0909398038093970386EC90E090932B
:1025D0009A038093990310929C0310929D0310928A
:1025E0009E0310929F03089508950E943A0E0E9440
:1025F000F4120E94E301C0E0D1E10E94030220979F
:10260000E1F30E940011F9CFCF92DF92EF92FF9297
:102610000F931F93CF93DF936C017A01EB01E60ECA
:10262000F71E00E010E0CE15DF0561F06991D601DC
:10263000ED91FC910190F081E02DC6011995080FF4
:10264000191FF1CFC801DF91CF911F910F91FF901A
:10265000EF90DF90CF9008956115710581F0DB0157
:102660000D900020E9F7AD0141505109461B570B71
:10267000DC01ED91FC910280F381E02D199480E062
:1026800090E00895DC01ED91FC91DB0114964D91F1
:102690005C9115976D917C910280F381E02D1994E6
:1026A0000C942C13DC01ED91FC910190F081E02D54
:1026B00019940F931F93CF93DF93EC016DE00E9469
:1026C00052138C016AE0CE010E945213800F911FB9
:1026D000DF91CF911F910F9108950F931F93CF9387
:1026E000DF93EC010E9442138C01CE010E9459132A
:1026F000800F911FDF91CF911F910F9108954F92FD
:102700005F926F927F92AF92BF92CF92DF92EF92E1
:10271000FF920F931F93CF93DF93CDB7DEB72901BD
:102720003A01621B730B840B950B2A893B894C89F8
:102730005D892A193B094C095D092A8B3B8B4C8B1F
:102740005D8B9B01AC016A897B898C899D890E9484
:10275000FF16E418F50806091709A80197010E9459
:1027600051172A0D3B1D4C1D5D1DCA01B901DF919A
:10277000CF911F910F91FF90EF90DF90CF90BF907E
:10278000AF907F906F905F904F900895FC01808193
:1027900091810C944018CF93DF93EC01888199814B
:1027A000009711F00E944018198218821D821C8225
:1027B0001B821A82DF91CF9108950F931F93CF93BD
:1027C000DF93EC018B016F5F7F4F888199810E94BD
:1027D000CF18009731F0998388831B830A8381E0A7
:1027E00001C080E0DF91CF911F910F910895CF93A9
:1027F000DF93EC0188819981892B29F08A819B8163
:102800008617970760F4CE010E94DD13882341F0FC
:102810008C819D81892B19F4E881F981108281E0F6
:10282000DF91CF910895EF92FF920F931F93CF9373
:10283000DF93EC017B018A01BA010E94F713811139
:1028400004C0CE010E94CB1307C01D830C83B701C7
:10285000888199810E94E819CE01DF91CF911F9163
:102860000F91FF90EF900895FC0111821082138266
:102870001282158214826115710559F0FB010190D5
:102880000020E9F7AF0141505109461B570B0C944A
:1028900013140895CF93DF93EC01FB01861797077C
:1028A00061F0608171816115710529F04481558164
:1028B0000E94131402C00E94CB13CE01DF91CF916E
:1028C0000895CF93DF93EC016115710561F0FB0171
:1028D00001900020E9F7AF0141505109461B570B09
:1028E0000E94131402C00E94CB13CE01DF91CF913E
:1028F00008950F931F93CF93DF93CDB7DEB7629701
:102900000FB6F894DEBF0FBECDBF8C01CB01F8012E
:1029100011821082138212821582148250E0BE014D
:102920006F5F7F4F0E94EF19BE016F5F7F4FC8013D
:102930000E94611462960FB6F894DEBF0FBECDBF41
:10294000DF91CF911F910F910895EF92FF920F9316
:102950001F93CF93DF93EC017B010C811D816115E7
:10296000710511F480E016C04115510591F0040F76
:10297000151FB8010E94F7138823A1F3288139811C
:102980008C819D81B701820F931F0E94E8191D83DE
:102990000C8381E0DF91CF911F910F91FF90EF9019
:1029A0000895CF93DF931F921F92CDB7DEB769834F
:1029B0001A8241E050E0BE016F5F7F4F0E94A51474
:1029C0000F900F90DF91CF910895CF93DF93EC019B
:1029D000FB0144815581608171810E94A5148111A0
:1029E00003C0CE010E94CB13CE01DF91CF91089599
:1029F000CF93DF93EC016115710569F0FB01019044
:102A00000020E9F7AF0141505109461B570B0E94C6
:102A1000A514811103C0CE010E94CB13CE01DF911A
:102A2000CF910895FC01848195816817790720F47E
:102A300080819181009729F41092200480E294E033
:102A40000895860F971F0895BF92CF92DF92EF925D
:102A5000FF920F931F93CF93DF936C017B01EA01E9
:102A600089012417350720F48D2FE901042F182F31
:102A70006AE272E0C6010E943414D70114968D9167
:102A80009C911597C817D907C8F48017910708F4C7
:102A90008C01D701ED91FC911197E00FF11FB080EF
:102AA00010826D917C916C0F7D1FC6010E94611494
:102AB000D701ED91FC91E00FF11FB082C601DF91CB
:102AC000CF911F910F91FF90EF90DF90CF90BF902B
:102AD0000895FC0180819181009711F00C94B81940
:102AE00060E070E0CB01089508950CD0EBC0E3D016
:102AF00040F0DAD030F021F45F3F19F0CCC0511132
:102B000015C1CFC0F0D098F39923C9F35523B1F381
:102B1000951B550BBB27AA2762177307840738F04C
:102B20009F5F5F4F220F331F441FAA1FA9F333D0AB
:102B30000E2E3AF0E0E830D091505040E695001C5F
:102B4000CAF729D0FE2F27D0660F771F881FBB1F1B
:102B5000261737074807AB07B0E809F0BB0B802DF5
:102B6000BF01FF2793585F4F2AF09E3F510568F041
:102B700092C0DCC05F3FECF3983EDCF3869577951E
:102B80006795B795F7959F5FC9F7880F911D969543
:102B9000879597F90895E1E0660F771F881FBB1F9F
:102BA000621773078407BA0720F0621B730B840B4C
:102BB000BA0BEE1F88F7E095089504D06894B11120
:102BC000B5C0089598D088F09F5790F0B92F9927F5
:102BD000B751A0F0D1F0660F771F881F991F1AF028
:102BE000BA95C9F712C0B13081F09FD0B1E0089515
:102BF0009CC0672F782F8827B85F39F0B93FCCF396
:102C0000869577956795B395D9F73EF4909580951D
:102C1000709561957F4F8F4F9F4F0895E89409C03D
:102C200097FB3EF490958095709561957F4F8F4FFF
:102C30009F4F9923A9F0F92F96E9BB279395F69515
:102C4000879577956795B795F111F8CFFAF4BB0F93
:102C500011F460FF1BC06F5F7F4F8F4F9F4F16C0F7
:102C6000882311F096E911C0772321F09EE8872F81
:102C7000762F05C0662371F096E8862F70E060E03D
:102C80002AF09A95660F771F881FDAF7880F9695B6
:102C9000879597F9089597F99F6780E870E060E05D
:102CA00008959FEF80EC089500240A9416161706E5
:102CB00018060906089500240A941216130614062D
:102CC00005060895092E0394000C11F4882352F090
:102CD000BB0F40F4BF2B11F460FF04C06F5F7F4F48
:102CE0008F4F9F4F089557FD9058440F551F59F02F
:102CF0005F3F71F04795880F97FB991F61F09F3FE9
:102D000079F087950895121613061406551FF2CF11
:102D10004695F1DF08C0161617061806991FF1CF61
:102D200086957105610508940895E894BB27662788
:102D30007727CB0197F908950BD0C4CFB5DF28F0E2
:102D4000BADF18F0952309F0A6CFABCF1124EECF50
:102D5000CADFA0F3959FD1F3950F50E0551F629FF6
:102D6000F001729FBB27F00DB11D639FAA27F00DE4
:102D7000B11DAA1F649F6627B00DA11D661F829F0B
:102D80002227B00DA11D621F739FB00DA11D621FF0
:102D9000839FA00D611D221F749F3327A00D611D0D
:102DA000231F849F600D211D822F762F6A2F1124EF
:102DB0009F5750408AF0E1F088234AF0EE0FFF1F42
:102DC000BB1F661F771F881F91505040A9F79E3F79
:102DD000510570F060CFAACF5F3FECF3983EDCF373
:102DE000869577956795B795F795E7959F5FC1F7B6
:102DF000FE2B880F911D9695879597F90895DB0115
:102E00008F939F930E947617BF91AF91A29F800DE1
:102E1000911DA39F900DB29F900D11240895991BB1
:102E200079E004C0991F961708F0961B881F7A95C1
:102E3000C9F78095089597FB072E16F4009407D0E4
:102E400077FD09D00E94851707FC05D03EF49095C8
:102E500081959F4F0895709561957F4F0895A1E2E8
:102E60001A2EAA1BBB1BFD010DC0AA1FBB1FEE1F04
:102E7000FF1FA217B307E407F50720F0A21BB30B4F
:102E8000E40BF50B661F771F881F991F1A9469F7CB
:102E900060957095809590959B01AC01BD01CF0127
:102EA0000895052E97FB1EF400940E94681757FDA5
:102EB00007D00E942F1707FC03D04EF40C9468171C
:102EC00050954095309521953F4F4F4F5F4F089556
:102ED00090958095709561957F4F8F4F9F4F089586
:102EE000EE0FFF1F0590F491E02D19940E949917A1
:102EF000A59F900DB49F900DA49F800D911D11244E
:102F000008950790F691E02D1994AA1BBB1B51E17F
:102F100007C0AA1FBB1FA617B70710F0A61BB70B49
:102F2000881F991F5A95A9F780959095BC01CD01EE
:102F30000895A29FB001B39FC001A39F700D811D92
:102F40001124911DB29F700D811D1124911D0895B2
:102F5000CF93DF938230910510F482E090E0E0910E
:102F60002304F091240420E030E0A0E0B0E03097AA
:102F700039F14081518148175907B8F0481759076E
:102F800071F482819381109729F013969C938E930C
:102F900012972CC0909324048093230427C02115FA
:102FA000310531F04217530718F0A901DB0101C0C8
:102FB000EF019A01BD01DF010280F381E02DD7CF3F
:102FC00021153105F9F0281B390B2430310580F427
:102FD0008A819B816115710521F0FB0193838283B6
:102FE00004C09093240480932304FE01329644C0CD
:102FF000FE01E20FF31F819391932250310939832F
:1030000028833AC02091210430912204232B41F4DB
:103010002091020230910302309322042093210474
:1030200020910002309101022115310541F42DB7A4
:103030003EB74091040250910502241B350BE091EC
:103040002104F0912204E217F307A0F42E1B3F0B9A
:103050002817390778F0AC014E5F5F4F241735070A
:1030600048F04E0F5F1F5093220440932104819338
:10307000919302C0E0E0F0E0CF01DF91CF9108959D
:10308000CF93DF93009709F487C0FC013297138236
:103090001282C0912304D0912404209781F42081CE
:1030A0003181280F391F80912104909122048217C9
:1030B000930779F5F0932204E09321046DC0DE01BB
:1030C00020E030E0AE17BF0750F412964D915C91AE
:1030D00013979D014115510509F1DA01F3CFB3832F
:1030E000A28340815181840F951F8A179B0771F439
:1030F0008D919C911197840F951F029691838083E7
:1031000012968D919C91139793838283211531059B
:1031100029F4F0932404E09323043EC0D9011396CC
:10312000FC93EE9312974D915D91A40FB51FEA1792
:10313000FB0779F480819181840F951F0296D90154
:1031400011969C938E938281938113969C938E9378
:103150001297E0E0F0E08A819B81009719F0FE0170
:10316000EC01F9CFCE01029628813981820F931F9D
:1031700020912104309122042817390769F43097EF
:1031800029F4109224041092230402C013821282A4
:10319000D0932204C0932104DF91CF9108956F92C0
:1031A0007F928F929F92AF92BF92CF92DF92EF92D7
:1031B000FF920F931F93CF93DF93EC01CB012097E6
:1031C00081F4DF91CF911F910F91FF90EF90DF90ED
:1031D000CF90BF90AF909F908F907F906F900C9406
:1031E000A817FE01E60FF71F9E0122503109E217D2
:1031F000F30708F4ACC0D9010D911C911197061783
:103200001707B8F00530110508F49FC0A801445015
:1032100051094617570708F498C002501109061BB8
:10322000170B019311936D937C93CF010E9440186B
:103230008CC05B01A01AB10A4E01800E911EA091B4
:103240002304B0912404612C712C60E070E010978D
:1032500009F449C0A815B905C9F5ED90FC9011977E
:10326000670142E0C40ED11CCA14DB0478F14701A7
:103270008A189B08640142E0C40ED11C1296BC90CF
:1032800012971396AC91B5E0CB16D10440F0B28200
:10329000A38391828082D9018D939C9309C00E5F94
:1032A0001F4F0E0D1F1DF90111830083EB2DFA2F07
:1032B0006115710531F0DB011396FC93EE931297C3
:1032C00044C0F0932404E09323043FC06D917C91AB
:1032D00011976616770608F43B01BD0112960D9012
:1032E000BC91A02DB4CF6091210470912204681587
:1032F0007905E9F468167906D0F4409100025091FE
:1033000001024115510541F44DB75EB760910402C9
:1033100070910502461B570BE417F507C0F4F093B4
:103320002204E0932104F901918380830EC00E945E
:10333000A8177C01009759F0A801BE010E94DF196F
:10334000CE010E944018C70104C0CE0102C080E037
:1033500090E0DF91CF911F910F91FF90EF90DF9060
:10336000CF90BF90AF909F908F907F906F90089577
:103370001F93FC0199278827BC01E8941191103212
:10338000E9F3193010F01E30C8F31B3251F01D3232
:1033900049F4689406C00E94051A610F711D811DD1
:1033A000911D119110531A30B0F33EF49095809511
:1033B000709561957F4F8F4F9F4F1F910895FB012F
:1033C000DC0102C001900D9241505040D8F70895A1
:1033D000FB01DC0101900D920020E1F708954532D8
:1033E000510520F4423010F00C94FA19FB011082C0
:1033F000CB010895BB274A3031F4992322F4BDE272
:10340000909581959F4F0C941B1A592F482F372F59
:10341000262F660F771F881F991F660F771F881F3B
:10342000991F620F731F841F951F660F771F881FD8
:10343000991F0895BB27FB015527AA27880F991FBD
:10344000AA1FA41710F0A41B83955051B9F7A05DD3
:10345000AA3308F0A95DA193009779F7B111B19350
:103460001192CB010C94341ADC01FC01672F71918D
:103470007723E1F7329704C07C916D93708362915A
:10348000AE17BF07C8F3089513E0CEE3D3E000E022
:1034900006C022970109FE010BBF0E948117C034AC
:0C34A000D10780E00807A9F7F894FFCFDF
:1034AC0000002504800001000000464C443A004610
:1034BC0052443A00424C443A004252443A00464C80
:1034CC003A0046523A002444500A00245250002438
:1034DC00525030002452503030002453500A0024F3
:1034EC0049500A000000000080110413D310EC10A6
:0434FC00DE105E116F
:00000001FF
