:100000000C94A0010C94480D0C94790D0C94AA0D3D
:100010000C94DB0D0C940C0E0C943D0E0C946E0E97
:100020000C949F0E0C94D1010C94D1010C94D1012D
:100030000C94D1010C94D1010C94D1010C94D101F8
:100040000C94D1010C94B60A0C94D1010C94D101FA
:100050000C94D1010C94D1010C94D1010C94D00ECC
:100060000C94D1010C9472130C94A8130C94D1012C
:100070000C94D1010C94D1010C94D1010C94D101B8
:100080000C94E40A0C94D1010C94D1010C94D1018C
:100090000C94D1010C94D1010C94D1010C94D10198
:1000A0000C94D1010C94D1010C94120B0C94D1013D
:1000B0000C94D1010C94D1010C94D1010C94400BFF
:1000C0000C94D1010C94D1010C94D1010C94D10168
:1000D0000C94D1010C94D1010C94D1010C94D10158
:1000E0000C94D101220DEC0CF40C000D0D0D2E0D15
:1000F0003B0DED0FF20FF70F01100B1084101510D0
:100100001D1025102F103910431052105C10841050
:10011000661070107A10A610A91098109C10A210EA
:10012000E010AD10B110B710BB10BF10C510C91052
:10013000CD10E010D310D710DB100C9484100C9469
:10014000C9100C94FE110C94D3100C940B100C9449
:1001500009120C94CD100C944E030C94AB120C9419
:1001600043100C94DB010C9425100C94D7010C94D3
:100170002E0D0C94DC130C94D3010C94AD100C9444
:10018000EC0C0C94B1100C94A9100C941D100C9450
:10019000D7100C9466100C949C100C94DF010C94F6
:1001A000000D0C94ED0F0C940D0D0C94A2100C94FA
:1001B00039100C9401100C94BF100C9489120C94FB
:1001C0007A100C942F140C9417120C94F20F0C94B8
:1001D000A6100C943C030C9498100C94D2130C941D
:1001E0002F100C9452100C945C100C94B7100C94BB
:1001F00015100C94E0100C9470100C94F70F0C94E4
:10020000F40C0C94BB100C942B120C943B0D0C941E
:10021000C5100C94220D0C94DB1000000A0B02098F
:100220000C0D0E0807030401000000000000000090
:1002300000000000000000000000000000000000BE
:10024000000000000000121110000000000000007B
:10025000000000000000000000000000000000009E
:1002600001021020200808102040102040800201C8
:1002700002010804020101020408102040808040AD
:1002800020100804020180040201804020100804AC
:10029000020108040201010204081020408001024A
:1002A0000408102040800505050507050808080812
:1002B000020202020A0A08080404040401010101FE
:1002C00001010101030303030303030304070707F9
:1002D0000C0C0C0C0C0C0C0C02020202060606069E
:1002E000060606060B0B0B0B0B0B0B0B000020007E
:1002F0002300260029002C002F00320000010000FE
:1003000003010601090100002200250028002B003E
:100310002E003100340002010000050108010B012C
:1003200000002100240027002A002D0030003300A7
:1003300001010000040107010A013C03DC134E0324
:1003400011241FBECFEFD1E2DEBFCDBF00E00CBF56
:1003500012E0A0E0B2E0ECECF7E300E00BBF02C07B
:1003600007900D92A236B107D9F724E0A2E6B2E0D9
:1003700001C01D92A733B207E1F713E0CEE3D3E04B
:1003800000E006C022970109FE010BBF0E9411196F
:10039000CA33D10780E00807A9F70E9420140C9403
:1003A000D41B0C94000082E692E00C942F0382E6AA
:1003B00092E00C94320382E692E00C94350382E6DC
:1003C00092E00C94380382E692E00E94070242E039
:1003D00050E063ED71E082E00E94D70C42E050E013
:1003E00067ED71E083E00E94D70C42E050E06BEDD6
:1003F00071E085E00E94D70C42E050E06FED71E0C3
:1004000084E00C94D70C82E692E00C94A608AF929C
:10041000BF92CF92DF92EF92FF920F931F93CF93F1
:10042000DF93CDB7DEB72E970FB6F894DEBF0FBEC1
:10043000CDBF5C01CE0101960E9403098EE0FE0152
:100440003196D50101900D928A95E1F7F501E05BB7
:10045000FF4F1182108244E050E06AE370E081EEC9
:1004600092E00E94CE09F501EA58FF4F11821082F6
:10047000329611821082329681E080833196118209
:10048000108232961182108285E1C82ED12C98E11B
:10049000E92EF12C00E010E021E030E040E058E0EF
:1004A00062E070E0C50140960E94360924E1C22E48
:1004B000D12C39E1E32EF12C01E010E021E030E015
:1004C00040E058E063E070E0C50180960E94360984
:1004D00043E1C42ED12C5AE1E52EF12C00E010E0CE
:1004E00020E030E040E250E064E070E0C501C096FA
:1004F0000E94360962E1C62ED12C7BE1E72EF12C59
:1005000001E010E020E030E040E250E065E070E023
:10051000C501805C9F4F0E94360900E010E02FE18A
:1005200030E04EE150E067E070E0C5018E5A9F4F29
:100530000E941B0901E010E021E230E040E250E0BF
:1005400068E070E0C501835A9F4F0E941B0961E07B
:1005500087E00E94E11061E08EE10E94E11061E01D
:1005600088E00E94E11061E080E20E94E11060E01A
:1005700087E00E941A1160E088E00E941A1169E089
:1005800070E0C50185599F4F0E94390C6AE070E008
:10059000C50188599F4F0E94390C61E08DE00E948F
:1005A000E110F501EB58FF4F108268E372E0C501DE
:1005B00082599F4F0E948C15F501EC58FF4F108215
:1005C00026E040E052EC61E070E085E993E00E94B3
:1005D00010132E960FB6F894DEBF0FBECDBFDF917D
:1005E000CF911F910F91FF90EF90DF90CF90BF9030
:1005F000AF9008950F931F93CF93DF938B0164EF18
:1006000071E080E090E00E943D0FC0E0D0E0C017B4
:10061000D10704F560E08DE00E941A116AEF70E0E6
:1006200080E090E00E943D0F61E08DE00E941A1191
:100630006AEF70E080E090E00E943D0F60E08DE0A6
:100640000E941A116AEF70E080E090E00E943D0F76
:100650002196DDCFDF91CF911F910F9108954096A4
:100660000C945F0980960C945F09C0960C945F0906
:10067000805C9F4F0C945F0982E692E00E94030920
:100680008AEC92E00E946E0B8DEC92E00E946E0B61
:1006900068E372E080ED92E00C945F1580ED92E0EB
:1006A0000C94F1142F923F924F925F926F927F922F
:1006B0008F929F92AF92BF92CF92DF92EF92FF9272
:1006C0000F931F93CF93DF93CDB7DEB76A970FB623
:1006D000F894DEBF0FBECDBF8C0168E372E0CE019F
:1006E0000D960E945F1578012EE6E20EF11C62E085
:1006F00070E0C7010E943D16FC0180818C3409F432
:100700005FC0823509F457C1823409F41CC3480123
:10071000FDE58F0E911C60E070E0C4010E9430097D
:10072000580122E5A20EB11C61E070E0C5010E94F3
:10073000300960E070E0C4010E942C0960E070E0C4
:10074000C5010E942C0926E030E043E050E0B701EB
:10075000CE0101960E944F16BE016F5F7F4FCE0102
:100760000D960E947515CE0101960E94F114CE01DE
:100770000D960E949416F801E558FF4F2AE0269F37
:100780002001279F500C112480819181480E591E11
:10079000C12CD12CE12CF12CFC8BEB8B9801205F30
:1007A0003F4F3E8B2D8B205F3F4F388F2F8B205F2D
:1007B0003F4F3A8F298F180130E4230E311CB0C20D
:1007C0005801FDE5AF0EB11C61E070E0C5010E946B
:1007D0003009480122E5820E911C61E070E0C401FD
:1007E0000E94300925E030E043E050E0B701CE013F
:1007F00001960E944F16BE016F5F7F4FCE010D968E
:100800000E947515CE0101960E94F114CE010D963D
:100810000E94941628013DE7430E511C48EE53E018
:10082000649F9001659F300D749F300D1124B901B4
:10083000882777FD8095982F0E94A01725E33AEF2F
:100840004EE85CE30E942C180E946D17F201608054
:100850007180661A770AC12CD12CE12CF12C5C8AAC
:100860004B8A1801F0E32F0E311C280120E4420EC0
:10087000511CEB89FC8980819181681679060CF006
:1008800095C164E670E080E090E00E943D0FC101F8
:100890000E9489096C01C2010E948909EE24FF248B
:1008A000E81AF90A4AE0B601CE0107960E94A4159B
:1008B0006AE072E0CE0101960E945F15BE01695F99
:1008C0007F4FCE0101960E941016BC0185E993E08E
:1008D0000E949814CE0101960E94F114CE01079651
:1008E0000E94F1144AE0B701CE0107960E94A415B8
:1008F0006FE072E0CE0101960E945F15BE01695F54
:100900007F4FCE0101960E941016BC0185E993E04D
:100910000E949814CE0101960E94F114CE01079610
:100920000E94F114C1010E9489098C01C2010E9438
:100930008909800F911F97FD01968C0115950795E8
:10094000E8EEF3E00E9FC0010F9F900D1E9F900DEB
:1009500011246CED70E00E94AB18EB89FC89718367
:1009600060834AE0CE0107960E94A41564E172E01C
:10097000CE0101960E945F15BE01695F7F4FCE01D7
:1009800001960E941016BC0185E993E00E9498141C
:10099000CE0101960E94F114CE0107960E94F11437
:1009A00064E670E0C5010E942C0964E670E0C401B1
:1009B0000E942C095ECF5801FDE5AF0EB11C60E02E
:1009C00070E0C5010E943009480122E5820E911CA9
:1009D00060E070E0C4010E94300925E030E043E0AF
:1009E00050E0B701CE0101960E944F16BE016F5F25
:1009F0007F4FCE010D960E947515CE0101960E9483
:100A0000F114CE010D960E94941628013DE7430E85
:100A1000511C48EE53E0649F9001659F300D749F18
:100A2000300D1124B901882777FD8095982F0E94F9
:100A3000A01725E33AEF4EE85CE30E942C180E94D1
:100A40006D17F20160807180660E771EC12CD12C6B
:100A5000E12CF12C5C8A4B8A1801F0E32F0E311C3B
:100A6000280120E4420E511CEB89FC898081918190
:100A7000861597050CF09AC064E670E080E090E07F
:100A80000E943D0FC1010E948909CC24DD24C81AAF
:100A9000D90AC2010E9489097C014AE0B601CE014F
:100AA00007960E94A4156AE072E0CE0101960E94AA
:100AB0005F15BE01695F7F4FCE0101960E9410163F
:100AC000BC0185E993E00E949814CE0101960E9432
:100AD000F114CE0107960E94F1144AE0B701CE014D
:100AE00007960E94A4156FE072E0CE0101960E9465
:100AF0005F15BE01695F7F4FCE0101960E941016FF
:100B0000BC0185E993E00E949814CE0101960E94F1
:100B1000F114CE0107960E94F114C1010E948909C7
:100B20008C01C2010E948909800F911F97FD0196D7
:100B30008C0115950795E8EEF3E00E9FC0010F9F1D
:100B4000900D1E9F900D11246CED70E00E94AB186B
:100B5000EB89FC89718360834AE0CE0107960E948D
:100B6000A41564E172E0CE0101960E945F15BE01FA
:100B7000695F7F4FCE0101960E941016BC0185E986
:100B800093E00E949814CE0101960E94F114CE01C8
:100B900007960E94F11464E670E0C5010E942C09DA
:100BA00064E670E0C4010E942C095ECF60E070E052
:100BB000C5010E942C0960E070E0C401C1C068EC6E
:100BC00070E080E090E00E943D0F8D899E890E9438
:100BD00089093C018F89988D0E9489098C01898D32
:100BE0009A8D0E9489096C01C1010E9489097C01CA
:100BF000C301800F911F97FD019695958795EB890D
:100C0000FC8991838083C1010E94CA094AE0B60130
:100C1000CE0107960E94A41568E172E0CE0101960C
:100C20000E945F15BE01695F7F4FCE0101960E9451
:100C30001016BC0185E993E00E949814CE0101963C
:100C40000E94F114CE0107960E94F1144AE0B70108
:100C5000CE0107960E94A4156DE172E0CE010196C7
:100C60000E945F15BE01695F7F4FCE0101960E9411
:100C70001016BC0185E993E00E949814CE010196FC
:100C80000E94F114CE0107960E94F1144AE0B301CC
:100C9000CE0107960E94A41562E272E0CE01019691
:100CA0000E945F15BE01695F7F4FCE0101960E94D1
:100CB0001016BC0185E993E00E949814CE010196BC
:100CC0000E94F114CE0107960E94F1144AE0B80187
:100CD000CE0107960E94A41567E272E0CE0101964C
:100CE0000E945F15BE01695F7F4FCE0101960E9491
:100CF0001016BC0185E993E00E949814CE0101967C
:100D00000E94F114CE0107960E94F11462E370E094
:100D1000C5010E942C0962E370E0C4010E942C0905
:100D2000EB89FC8980819181841595050CF447CF6E
:100D300060E070E0C4010E942C0960E070E0C50131
:100D40000E942C0904C0C12CD12CE12CF12C4AE0CA
:100D5000B601CE0107960E94A4156CE272E0CE01A6
:100D600001960E945F15BE01695F7F4FCE0101961B
:100D70000E941016BC0185E993E00E949814CE01F0
:100D800001960E94F114CE0107960E94F1144AE0E8
:100D9000B701CE0107960E94A41560E372E0CE0170
:100DA00001960E945F15BE01695F7F4FCE010196DB
:100DB0000E941016BC0185E993E00E949814CE01B0
:100DC00001960E94F114CE0107960E94F11464E38B
:100DD00072E085E993E00E947B1485E993E00E942C
:100DE0008912CE010D960E94F1146A960FB6F894FE
:100DF000DEBF0FBECDBFDF91CF911F910F91FF904E
:100E0000EF90DF90CF90BF90AF909F908F907F90AA
:100E10006F905F904F903F902F9008958F929F9288
:100E2000AF92BF92CF92DF92EF92FF920F931F93F8
:100E3000CF93DF93CDB7DEB72C970FB6F894DEBF14
:100E40000FBECDBF8C0168E372E0CE0107960E9411
:100E50005F1581EE92E00E94DE096C0158012AE7DD
:100E6000A20EB11CF5018081980128583F4F7901ED
:100E70008823D1F081EE92E00E94DE094C0181EEE0
:100E800092E00E94DE099601280D391D280F391FB6
:100E9000C90163E070E00E94AB1864517109F70169
:100EA00071836083F5011082F701208131812C1953
:100EB0003D09F801EA58FF4F37FD03C03183208315
:100EC00002C011821082608171814AE0CE010196D8
:100ED0000E94A415BE016F5F7F4FCE0107960E944E
:100EE0007515CE0101960E94F1148B859C85833087
:100EF000910519F469E372E007C0029719F46DE3F4
:100F000072E002C062E472E0CE0101960E945F15B9
:100F1000BE01695F7F4FCE0101960E94101667E304
:100F200072E00E942316BC0185E993E00E946D14D3
:100F3000CE0101960E94F11485E993E00E94891286
:100F4000CE0107960E94F1142C960FB6F894DEBFDE
:100F50000FBECDBFDF91CF911F910F91FF90EF900A
:100F6000DF90CF90BF90AF909F908F90089563E0F7
:100F700070E00E94FA0268E472E085E993E00E9462
:100F80007B1485E993E00C9489124F925F926F92E3
:100F90007F928F929F92AF92BF92CF92DF92EF9209
:100FA000FF920F931F93CF93DF93CDB7DEB72C97AC
:100FB0000FB6F894DEBF0FBECDBF8C015C018EE68C
:100FC000A80EB11C24E030E043E050E0B501CE01B2
:100FD00007960E944F16CE0107960E9494160E9413
:100FE000A0176B017C0126E030E045E050E0B50140
:100FF000CE0101960E944F16BE016F5F7F4FCE015A
:1010000007960E947515CE0101960E94F114CE013B
:1010100007960E9494160E94A0172B013C0162E0E3
:1010200070E0C5010E943D16FC0180818B3251F4B5
:1010300020E030E044EB52E4C701B6010E94A11663
:101040006B017C0120E030E040E151E4C301B201DA
:101050000E942C184B015C0122E73CE147E05FE372
:10106000C701B6010E942C1820E030E84DE654E498
:101070000E94A1160E946D17C80188599F4F0E94B7
:10108000720C6FE070E080E090E00E943D0F20E085
:1010900030E842E254E4C501B4010E94A1160E9466
:1010A0006D17C80185599F4F0E94720C6FE070E068
:1010B00080E090E00E943D0F6DE472E085E993E0EE
:1010C0000E947B1485E993E00E948912CE01079665
:1010D0000E94F1142C960FB6F894DEBF0FBECDBF60
:1010E000DF91CF911F910F91FF90EF90DF90CF9004
:1010F000BF90AF909F908F907F906F905F904F9038
:101100000895CF93DF93EC0161E070E082599F4F27
:101110000E943D16FC018081893471F0823539F0DE
:10112000843479F4CE01DF91CF910C945203CE0137
:10113000DF91CF910C940E07CE01DF91CF910C94EB
:10114000C507CE01DF91CF910C94B707BF92CF9224
:10115000DF92EF92FF920F931F93CF93DF93EC01F7
:101160008C010B581F4F7C018EE6E80EF11C6E01BE
:10117000E4E7CE0ED11CBB24B39485E993E00E9432
:10118000FE11181619068CF485E993E00E941712D7
:10119000F8018083682FC7010E94FC15F801808147
:1011A0008A3059F7F601B082E8CF64E670E080E05B
:1011B00090E00E943D0F8E010C581F4FF801808176
:1011C0008823B9F07E01FEE6EF0EF11C60E070E0CE
:1011D000C7010E943D16FC018081843251F4CE018A
:1011E0000E94810868E372E0C7010E948C15F80133
:1011F0001082DF91CF911F910F91FF90EF90DF90C0
:10120000CF90BF900895CF93DF93EC0181E090E001
:10121000998388831B821A821D821C821F821E82F0
:10122000198618860E941A0F6A877B878C879D878C
:10123000DF91CF9108950F931F93FC017183608319
:101240005383428335832483178216821286118743
:1012500000871F910F910895FC0180810C94C70FA6
:10126000FC016087718782810C941A11CF92DF9202
:10127000EF92FF920F931F93FC017183608353835E
:1012800042833187208713870287E686F786C486E4
:10129000D586148215821682178260E08C2D0E94FA
:1012A000E11061E08C2D0E941A1160E08E2D1F91DB
:1012B0000F91FF90EF90DF90CF900C94E110CF93BF
:1012C000DF93EC018A859B85892B51F48E850E94E2
:1012D00050114C815D816E817F81892B51F40EC04C
:1012E0008E850E9450114C815D816E817F81892B9A
:1012F00029F44F5F5F4F6F4F7F4F04C0415051093A
:10130000610971094C835D836E837F83DF91CF9187
:101310000895CF92DF92EF92FF92CF93DF93EC018B
:101320006C817D818E819F81660F771F881F991F39
:101330000E94A0172BED3FE049E450E40E942C18D6
:101340006B017C016A817B81882777FD8095982FCE
:101350000E94A0179B01AC01C701B6010E940517AE
:1013600028853985232B31F420E030E04CE852E425
:101370000E94051720E030E04EEB52E40E942C184A
:101380000E946D17CB01DF91CF91FF90EF90DF901E
:10139000CF900895FC01848195810895CF93DF93C8
:1013A000EC01842F7B836A834C835D8360E00E9421
:1013B000E11019821882DF91CF910895CF93DF93C6
:1013C000EC0120E432E44FE050E061E08C810E94C7
:1013D00079112A813B81CB01B9010E94AB18CB0165
:1013E00079836883DF91CF910895CF92DF92EF9256
:1013F000FF920F931F93CF93DF936C018B017A01C0
:10140000EC01C851DD4F888187FF04C0FB011182C8
:10141000108223C02CE02C9DC0012D9D900D112425
:101420002881AC01420F511D27FD5A952091E702FA
:1014300030E0421753078CF42881AC01420F511D54
:1014400027FD5A959A01FA01EE0FFF1FE20FF31FD5
:10145000E451FD4F208126FD19C088818F5F88836C
:101460008CE08C9D90018D9D300D11248881A90107
:10147000480F511D87FD5A958091E70290E048176B
:101480005907B4F488818C303CF112C02881820F56
:10149000911D27FD9A95FC01EE0FFF1FE80FF91F24
:1014A000E451FD4F808160E08F730E941A11D5CF07
:1014B000F80180819181049680349C4918F480E47D
:1014C0009CE904C0F801808191810496F701918321
:1014D00080838FEF888341C0F801808191814881AA
:1014E000B901640F711D47FD7A95AB01FB01EE0F49
:1014F000FF1FE40FF51FE451FD4F41815281840F1E
:10150000951FF701918380838881A901480F511DA0
:1015100087FD5A95FA01EE0FFF1FE40FF51FE45106
:10152000FD4F808186FF19C08881280F311D87FDFE
:101530003A95F901EE0FFF1FE20FF31FE451FD4F43
:10154000808161E08F73DF91CF911F910F91FF90A8
:10155000EF90DF90CF900C941A11DF91CF911F91F3
:101560000F91FF90EF90DF90CF9008951F920F9210
:101570000FB60F9211240BB60F922F933F934F93F8
:101580005F936F937F938F939F93AF93BF93EF93EB
:10159000FF9348E850E064E870E081E090E00E944A
:1015A000F509FF91EF91BF91AF919F918F917F913D
:1015B0006F915F914F913F912F910F900BBE0F90C4
:1015C0000FBE0F901F9018951F920F920FB60F929B
:1015D00011240BB60F922F933F934F935F936F930A
:1015E0007F938F939F93AF93BF93EF93FF9348E9BC
:1015F00050E064E970E082E090E00E94F509FF911C
:10160000EF91BF91AF919F918F917F916F915F917A
:101610004F913F912F910F900BBE0F900FBE0F90E7
:101620001F9018951F920F920FB60F9211240BB6B0
:101630000F922F933F934F935F936F937F938F936B
:101640009F93AF93BF93EF93FF9348EA50E064EA10
:1016500070E083E090E00E94F509FF91EF91BF9167
:10166000AF919F918F917F916F915F914F913F913A
:101670002F910F900BBE0F900FBE0F901F901895DB
:101680001F920F920FB60F9211240BB60F922F9349
:101690003F934F935F936F937F938F939F93AF93FA
:1016A000BF93EF93FF9348E251E064E271E080E082
:1016B00090E00E94F509FF91EF91BF91AF919F914A
:1016C0008F917F916F915F914F913F912F910F90EB
:1016D0000BBE0F900FBE0F901F9018952091E70240
:1016E0002033A0F431E0320F3093E702FC01208375
:1016F000822F90E0FC01EE0FFF1FE80FF91FE4516D
:10170000FD4F88EB9BE09283818308952FEFFC01CE
:1017100020830895DF92EF92FF920F931F93CF9350
:10172000DF93EC01D62E7A0189018881803308F09D
:1017300068C061E08D2D0E94E1108881A82FB0E083
:10174000FD01EE0FFF1FEA0FFB1FE451FD4F2D2D92
:101750002F739081907C922B908360E272E06E19DF
:101760007F0977FF02C06D5F7F4F7595679575950F
:101770006795698340E659E0401B510B57FF02C053
:101780004D5F5F4F55954795559547954A836CE05A
:101790000E949F189CE0899FB001112420E030E056
:1017A000A901460F571FFA01EE0FFF1FE40FF51FA7
:1017B000E451FD4F908196FD18C02F5F3F4F2C30B4
:1017C000310571F790E08130910521F5109280008C
:1017D00082E0809381001092850010928400B19A7B
:1017E00080916F00826080936F00888190E0FC019F
:1017F000EE0FFF1FE80FF91FE451FD4F8081806459
:1018000080838881DF91CF911F910F91FF90EF909E
:10181000DF9008958230910569F41092900082E083
:1018200080939100109295001092940088BB809351
:101830007100DBCF8330910569F41092A00082E043
:101840008093A1001092A5001092A40089BB809300
:101850007200CBCF892B49F61092200182E0809351
:10186000210110922501109224018ABB80937300FC
:10187000BCCF20E639E040E252E00C948A0BFC0138
:101880008081803370F5918128E830E0291B31098F
:1018900097FD3395220F331F220F331F62177307F3
:1018A0007CF0928128E532E0291B310997FD3395C0
:1018B000220F331F220F331F621773070CF49B0193
:1018C0004FB7F89490E0FC01EE0FFF1FE80FF91FEF
:1018D000E451FD4F22503109220F331F32832183FF
:1018E0004FBF08954F925F926F927F92AF92BF92D7
:1018F000CF92DF92EF92FF920F931F93CF93DF93DC
:10190000EC01603282E078070CF040C077FD06C041
:10191000653B71052CF064EB70E002C060E070E0A4
:10192000898128E830E0281B310987FD3395220F93
:10193000331F220F331F5901CC24B7FCC094DC2C79
:10194000882777FD8095982F2A8148E552E0421B31
:10195000510927FD5395440F551F440F551F2A0168
:10196000662457FC6094762C7F926F925F924F9220
:1019700014EBE12EF12C00E010E020E030E0A901B2
:101980000E94AA140F900F900F900F90CE01DF913C
:10199000CF911F910F91FF90EF90DF90CF90BF906C
:1019A000AF907F906F905F904F900C943F0C883079
:1019B00008F06DC0E82FF0E0EE0FFF1FE458FC4F79
:1019C0007183608390E0FC013197E730F10590F579
:1019D000EE58FF4F0C940019809169008C7F842B86
:1019E00080936900E89A089580916900440F551F1B
:1019F000440F551F837F842B80936900E99A0895D3
:101A00008091690074E0440F551F7A95E1F78F7C4F
:101A1000842B80936900EA9A08958091690066E0BA
:101A2000440F551F6A95E1F78F73842B80936900EB
:101A3000EB9A089580916A008C7F842B80936A00D2
:101A4000EC9A089580916A00440F551F440F551F6A
:101A5000837F842B80936A00ED9A089580916A00B9
:101A600024E0440F551F2A95E1F78F7C842B809347
:101A70006A00EE9A089580916A0096E0440F551F1F
:101A80009A95E1F78F73842B80936A00EF9A0895FB
:101A90001F920F920FB60F9211240BB60F922F9335
:101AA0003F934F935F936F937F938F939F93AF93E6
:101AB000BF93EF93FF938091800390918103892BD3
:101AC00029F0E0918003F09181031995FF91EF9146
:101AD000BF91AF919F918F917F916F915F914F9146
:101AE0003F912F910F900BBE0F900FBE0F901F9044
:101AF00018951F920F920FB60F9211240BB60F92EA
:101B00002F933F934F935F936F937F938F939F9305
:101B1000AF93BF93EF93FF938091820390918303E0
:101B2000892B29F0E0918203F09183031995FF91AD
:101B3000EF91BF91AF919F918F917F916F915F9145
:101B40004F913F912F910F900BBE0F900FBE0F90B2
:101B50001F9018951F920F920FB60F9211240BB67B
:101B60000F922F933F934F935F936F937F938F9336
:101B70009F93AF93BF93EF93FF93809184039091D2
:101B80008503892B29F0E0918403F0918503199551
:101B9000FF91EF91BF91AF919F918F917F916F9145
:101BA0005F914F913F912F910F900BBE0F900FBE01
:101BB0000F901F9018951F920F920FB60F9211243D
:101BC0000BB60F922F933F934F935F936F937F9337
:101BD0008F939F93AF93BF93EF93FF93809186036F
:101BE00090918703892B29F0E0918603F091870378
:101BF0001995FF91EF91BF91AF919F918F917F9137
:101C00006F915F914F913F912F910F900BBE0F906D
:101C10000FBE0F901F9018951F920F920FB60F9244
:101C200011240BB60F922F933F934F935F936F93B3
:101C30007F938F939F93AF93BF93EF93FF93809185
:101C40007C0390917D03892B29F0E0917C03F09136
:101C50007D031995FF91EF91BF91AF919F918F9166
:101C60007F916F915F914F913F912F910F900BBE9C
:101C70000F900FBE0F901F9018951F920F920FB6E6
:101C80000F9211240BB60F922F933F934F935F93B4
:101C90006F937F938F939F93AF93BF93EF93FF9334
:101CA00080917E0390917F03892B29F0E0917E0340
:101CB000F0917F031995FF91EF91BF91AF919F91A3
:101CC0008F917F916F915F914F913F912F910F90E5
:101CD0000BBE0F900FBE0F901F9018951F920F9282
:101CE0000FB60F9211240BB60F922F933F934F9381
:101CF0005F936F937F938F939F93AF93BF93EF9374
:101D0000FF938091880390918903892B29F0E091BA
:101D10008803F09189031995FF91EF91BF91AF91DD
:101D20009F918F917F916F915F914F913F912F91F3
:101D30000F900BBE0F900FBE0F901F9018951F9223
:101D40000F920FB60F9211240BB60F922F933F9361
:101D50004F935F936F937F938F939F93AF93BF93B3
:101D6000EF93FF9380918A0390918B03892B29F045
:101D7000E0918A03F0918B031995FF91EF91BF9148
:101D8000AF919F918F917F916F915F914F913F9113
:101D90002F910F900BBE0F900FBE0F901F901895B4
:101DA0001F920F920FB60F9211242F933F938F9390
:101DB0009F93AF93BF9380918D0390918E03A091D9
:101DC0008F03B091900330918C0323E0230F2D37C4
:101DD00020F40196A11DB11D05C026E8230F02962F
:101DE000A11DB11D20938C0380938D0390938E03CE
:101DF000A0938F03B09390038091910390919203ED
:101E0000A0919303B09194030196A11DB11D8093FD
:101E1000910390939203A0939303B0939403BF9183
:101E2000AF919F918F913F912F910F900FBE0F9087
:101E30001F9018953FB7F894809191039091920369
:101E4000A0919303B091940326B5A89B05C02F3FA2
:101E500019F00196A11DB11D3FBF6627782F892F6C
:101E60009A2F620F711D811D911D42E0660F771F31
:101E7000881F991F4A95D1F70895CF92DF92EF926C
:101E8000FF92CF93DF936B017C010E941A0FEB014D
:101E9000C114D104E104F10489F00E949F160E944C
:101EA0001A0F6C1B7D0B683E734090F381E0C81ADB
:101EB000D108E108F108C851DC4FEACFDF91CF919A
:101EC000FF90EF90DF90CF900895789484B5826072
:101ED00084BD84B5816084BD85B5826085BD85B5CE
:101EE000816085BDEEE6F0E0808181608083E1E87D
:101EF000F0E01082808182608083808181608083B5
:101F0000E0E8F0E0808181608083E1EBF0E08081B7
:101F100084608083E0EBF0E0808181608083E1E990
:101F2000F0E0808182608083808181608083E0E94D
:101F3000F0E0808181608083E1EAF0E0808182606E
:101F40008083808181608083E0EAF0E0808181602D
:101F50008083E1E2F1E08081826080838081816022
:101F60008083E0E2F1E0808181608083EAE7F0E055
:101F700080818460808380818260808380818160B1
:101F800080838081806880831092C10008951F93B0
:101F9000CF93DF93182FEB0161E00E94E1102097AF
:101FA00011F460E004C0CF3FD10539F461E0812F26
:101FB000DF91CF911F910C941A11E12FF0E0E65EB2
:101FC000FD4F449150E0FA013197E231F10508F0FC
:101FD0009BC0E758FF4F0C94001984B5806884BDFE
:101FE000C7BD97C084B5806284BDC8BD92C08091D2
:101FF0008000806880938000D0938900C09388001F
:1020000088C080918000806280938000D0938B0094
:10201000C0938A007EC08091800088608093800099
:10202000D0938D00C0938C0074C08091B000806804
:102030008093B000C093B3006CC08091B000806208
:102040008093B000C093B40064C080919000806819
:1020500080939000D0939900C09398005AC08091CB
:102060009000806280939000D0939B00C0939A0070
:1020700050C080919000886080939000D0939D0024
:10208000C0939C0046C08091A00080688093A0000F
:102090008091A0008F7B8093A000D093A900C09373
:1020A000A80037C08091A00080628093A000D093E8
:1020B000AB00C093AA002DC08091A00088608093DF
:1020C000A000D093AD00C093AC0023C0809120014C
:1020D000806880932001D0932901C093280119C002
:1020E00080912001806280932001D0932B01C093C6
:1020F0002A010FC080912001886080932001D09335
:102100002D01C0932C0105C0C038D1050CF04ECF75
:1021100048CFDF91CF911F91089590E0FC01319756
:10212000E231F10508F04CC0E557FF4F0C9400195F
:10213000809180008F7703C0809180008F7D809395
:102140008000089580918000877FF9CF84B58F77D4
:1021500002C084B58F7D84BD08958091B0008F77D3
:1021600003C08091B0008F7D8093B000089580916E
:1021700090008F7707C0809190008F7D03C0809181
:102180009000877F8093900008958091A0008F77C2
:1021900007C08091A0008F7D03C08091A000877F41
:1021A0008093A0000895809120018F7707C08091CF
:1021B00020018F7D03C080912001877F80932001C3
:1021C0000895CF93DF9390E0FC01E05AFD4F2491F6
:1021D000FC01EA55FD4F8491882349F190E0880F76
:1021E000991FFC01E05EFC4FA591B4918A5F9C4F62
:1021F000FC01C591D4919FB7611108C0F8948C91EE
:10220000209582238C93888182230AC0623051F406
:10221000F8948C91322F309583238C938881822B74
:10222000888304C0F8948C91822B8C939FBFDF919C
:10223000CF9108950F931F93CF93DF931F92CDB744
:10224000DEB7282F30E0F901E65EFD4F8491F901F9
:10225000E05AFD4F1491F901EA55FD4F0491002316
:10226000C9F0882321F069830E948D106981E02FD5
:10227000F0E0EE0FFF1FEA5FFC4FA591B4919FB70E
:10228000F8948C91611103C01095812301C0812BBA
:102290008C939FBF0F90DF91CF911F910F91089565
:1022A000CF93DF93282F30E0F901E65EFD4F849154
:1022B000F901E05AFD4FD491F901EA55FD4FC4915F
:1022C000CC2391F081110E948D10EC2FF0E0EE0FE5
:1022D000FF1FE451FD4FA591B4912C912D2381E076
:1022E00090E021F480E002C080E090E0DF91CF91A7
:1022F0000895CF92DF92EF92FF920F931F93CF93A7
:10230000DF9390E0FC01E05AFD4FD491FC01EA55C7
:10231000FD4F7491611102C0C0E001C0CD2FDA0100
:10232000C901BF70672F70E0660F771F64517D4F42
:1023300000E010E09801FB01E590F490F701408186
:102340004D234C131EC0680179014FEFC41AD40A03
:10235000E40AF40A081719072A073B0709F442C0E0
:1023600097018601E8CF68017901FFEFCF1ADF0AF4
:10237000EF0AFF0A081719072A073B0799F1970187
:102380008601FB01E590F490F70140814D234C1349
:10239000EACF801B910BA20BB30B20E030E0A90128
:1023A000FB01E590F490F701F080FD22FC120AC0D9
:1023B000281739074A075B07A9F02F5F3F4F4F4F98
:1023C0005F4FEECFA8E1B0E00E940619605F7F4F3B
:1023D0008F4F9F4F24E096958795779567952A951F
:1023E000D1F703C060E070E0CB01DF91CF911F9186
:1023F0000F91FF90EF90DF90CF900895FC01818DB9
:10240000228D90E0805C9F4F821B91098F739927EA
:102410000895FC01918D828D981731F0828DE80F1F
:10242000F11D858D90E008958FEF9FEF0895FC01D9
:10243000918D828D981761F0828DDF01A80FB11DFB
:102440005D968C91928D9F5F9F73928F90E008951F
:102450008FEF9FEF089582ED93E1892B41F080E0AB
:1024600090E0892B21F00E94D213811125C080E0D9
:1024700090E0892B41F080E090E0892B21F00E94D0
:10248000000081111CC080E090E0892B41F080E0C9
:1024900090E0892B21F00E940000811113C080E0A0
:1024A00090E0892BA1F080E090E0892B81F00E94E0
:1024B000000081110AC008950E940000D8CF0E9438
:1024C0000000E1CF0E940000EACF0C9400000895C4
:1024D000FC01848DDF01A80FB11DA35ABF4F2C91C1
:1024E000848D90E001968F739927848FA689B78990
:1024F0002C93A089B1898C9180648C93938D848D69
:10250000981306C00288F389E02D80818F7D808337
:102510000895CF93DF93EC01888D8823C9F0EA8971
:10252000FB89808185FD05C0A889B9898C9186FDCC
:102530000FC00FB607FCF5CF808185FFF2CFA889C9
:10254000B9898C9185FFEDCFCE010E946812E7CF4B
:10255000DF91CF910895CF92DF92FF920F931F9357
:10256000CF93DF931F92CDB7DEB76C01DC015B9692
:102570009C915B975C968C915C97981307C05096E2
:10258000ED91FC915197808185FD32C0F601038D5C
:1025900010E00F5F1F4F0F731127F02EF601848D8F
:1025A000F81211C00FB607FCF9CFD6015096ED9185
:1025B000FC915197808185FFF1CFC60169830E940C
:1025C00068126981EBCF838DE80FF11DE35AFF4F4D
:1025D0006083D6015B960C935B975296ED91FC91CC
:1025E000539780818062808381E058968C930DC0E0
:1025F000D6015696ED91FC91579760835096ED91D8
:10260000FC91519780818064808381E090E00F90FD
:10261000DF91CF911F910F91FF90DF90CF900895A0
:10262000BF92CF92DF92EF92FF92CF93DF93EC01B4
:102630006A017B01B22EE889F98982E08083411525
:1026400081EE580761057105A1F060E079E08DE346
:1026500090E0A70196010E94BF182150310941095D
:1026600051095695479537952795211580E13807EB
:1026700098F0E889F989108260E874E88EE190E0CA
:10268000A70196010E94BF18215031094109510943
:102690005695479537952795EC85FD853083EE85D2
:1026A000FF852083188EEC89FD89B082EA89FB8939
:1026B000808180618083EA89FB8980818860808352
:1026C000EA89FB89808180688083EA89FB8980812F
:1026D0008F7D8083DF91CF91FF90EF90DF90CF903F
:1026E000BF9008951F920F920FB60F9211240BB650
:1026F0000F922F938F939F93EF93FF93E091A503F6
:10270000F091A6038081E091AB03F091AC0382FDD0
:1027100012C090818091AE038F5F8F732091AF03C1
:10272000821751F0E091AE03F0E0EB56FC4F958F2D
:102730008093AE0301C08081FF91EF919F918F91B3
:102740002F910F900BBE0F900FBE0F901F901895FA
:102750001F920F920FB60F9211240BB60F922F9368
:102760003F934F935F936F937F938F939F93AF9319
:10277000BF93EF93FF9385E993E00E946812FF9166
:10278000EF91BF91AF919F918F917F916F915F91E9
:102790004F913F912F910F900BBE0F900FBE0F9056
:1027A0001F90189585E993E00E94FE1121E0892B86
:1027B00009F420E0822F0895109298031092970355
:1027C00088EE93E0A0E0B0E08093990390939A03A1
:1027D000A0939B03B0939C0386E592E090939603AD
:1027E0008093950385EC90E09093A2038093A103DE
:1027F00084EC90E09093A4038093A30380EC90E09A
:102800009093A6038093A50381EC90E09093A80396
:102810008093A70382EC90E09093AA038093A9038E
:1028200086EC90E09093AC038093AB031092AE03E0
:102830001092AF031092B0031092B103089508955F
:102840000E94650F0E941F140E94E301CBE2D2E1B7
:102850000E9403022097E1F30E942B12F9CFCF923E
:10286000DF92EF92FF920F931F93CF93DF936C0150
:102870007A01EB01E60EF71E00E010E0CE15DF0551
:1028800061F06991D601ED91FC910190F081E02D0C
:10289000C6011995080F191FF1CFC801DF91CF911B
:1028A0001F910F91FF90EF90DF90CF9008956115E9
:1028B000710581F0DB010D900020E9F7AD01415079
:1028C0005109461B570BDC01ED91FC910280F3810D
:1028D000E02D199480E090E00895DC01ED91FC91E9
:1028E000DB0114964D915C9115976D917C9102805E
:1028F000F381E02D19940C945714DC01ED91FC91B7
:102900000190F081E02D19940F931F93CF93DF93E3
:10291000EC016DE00E947D148C016AE0CE010E9402
:102920007D14800F911FDF91CF911F910F9108951A
:102930000F931F93CF93DF93EC010E946D148C01D2
:10294000CE010E948414800F911FDF91CF911F91BF
:102950000F9108954F925F926F927F92AF92BF92C4
:10296000CF92DF92EF92FF920F931F93CF93DF935B
:10297000CDB7DEB729013A01621B730B840B950BAF
:102980002A893B894C895D892A193B094C095D09D3
:102990002A8B3B8B4C8B5D8B9B01AC016A897B89BD
:1029A0008C899D890E948F18E418F508060917097B
:1029B000A80197010E94E1182A0D3B1D4C1D5D1DC9
:1029C000CA01B901DF91CF911F910F91FF90EF9054
:1029D000DF90CF90BF90AF907F906F905F904F90BF
:1029E0000895FC01808191810C94D019CF93DF93DD
:1029F000EC0188819981009711F00E94D019198209
:102A000018821D821C821B821A82DF91CF91089549
:102A10000F931F93CF93DF93EC018B016F5F7F4F79
:102A2000888199810E945F1A009731F09983888389
:102A30001B830A8381E001C080E0DF91CF911F9169
:102A40000F910895CF93DF93EC0188819981892BB1
:102A500029F08A819B818617970760F4CE010E9436
:102A60000815882341F08C819D81892B19F4E88118
:102A7000F981108281E0DF91CF910895EF92FF926A
:102A80000F931F93CF93DF93EC017B018A01BA016F
:102A90000E942215811104C0CE010E94F61407C0C5
:102AA0001D830C83B701888199810E94781BCE0118
:102AB000DF91CF911F910F91FF90EF900895FC014E
:102AC000118210821382128215821482611571059F
:102AD00059F0FB0101900020E9F7AF014150510985
:102AE000461B570B0C943E150895CF93DF93EC01D2
:102AF000FB018617970761F060817181611571058F
:102B000029F0448155810E943E1502C00E94F614AE
:102B1000CE01DF91CF910895CF93DF93EC01611542
:102B2000710561F0FB0101900020E9F7AF01415010
:102B30005109461B570B0E943E1502C00E94F61415
:102B4000CE01DF91CF9108950F931F93CF93DF9321
:102B5000CDB7DEB762970FB6F894DEBF0FBECDBF1C
:102B60008C01CB01F801118210821382128215822E
:102B7000148250E0BE016F5F7F4F0E947F1BBE0139
:102B80006F5F7F4FC8010E948C1562960FB6F89454
:102B9000DEBF0FBECDBFDF91CF911F910F91089582
:102BA000EF92FF920F931F93CF93DF93EC017B0182
:102BB0000C811D816115710511F480E016C041156D
:102BC000510591F0040F151FB8010E9422158823AA
:102BD000A1F3288139818C819D81B701820F931FD8
:102BE0000E94781B1D830C8381E0DF91CF911F91A0
:102BF0000F91FF90EF900895CF93DF931F921F9254
:102C0000CDB7DEB769831A8241E050E0BE016F5F45
:102C10007F4F0E94D0150F900F90DF91CF910895B4
:102C2000CF93DF93EC01FB01448155816081718179
:102C30000E94D015811103C0CE010E94F614CE016E
:102C4000DF91CF910895CF93DF93EC01611571056A
:102C500069F0FB0101900020E9F7AF0141505109F3
:102C6000461B570B0E94D015811103C0CE010E9454
:102C7000F614CE01DF91CF910895FC0184819581F6
:102C80006817790720F480819181009729F41092C8
:102C9000320482E394E00895860F971F0895BF924F
:102CA000CF92DF92EF92FF920F931F93CF93DF9318
:102CB0006C017B01EA0189012417350720F48D2F6F
:102CC000E901042F182F68E372E0C6010E945F1526
:102CD000D70114968D919C911597C817D907C8F400
:102CE0008017910708F48C01D701ED91FC911197A1
:102CF000E00FF11FB08010826D917C916C0F7D1FF1
:102D0000C6010E948C15D701ED91FC91E00FF11FD7
:102D1000B082C601DF91CF911F910F91FF90EF908C
:102D2000DF90CF90BF900895FC0180819181009742
:102D300011F00C94481B60E070E0CB0108950895F9
:102D40005058BB27AA270ED04DC13ED130F043D1F9
:102D500020F031F49F3F11F41EF433C10EF4E095DE
:102D6000E7FB29C1E92F4FD180F3BA176207730738
:102D70008407950718F071F49EF567C10EF4E0958D
:102D80000B2EBA2FA02D0B01B90190010C01CA0125
:102D9000A0011124FF27591B99F0593F50F4503ED0
:102DA00068F11A16F040A22F232F342F4427585FC2
:102DB000F3CF469537952795A795F0405395C9F7DA
:102DC0007EF41F16BA0B620B730B840BBAF0915092
:102DD000A1F0FF0FBB1F661F771F881FC2F70EC031
:102DE000BA0F621F731F841F48F487957795679504
:102DF000B795F7959E3F08F0B3CF9395880F08F0ED
:102E00009927EE0F9795879508950CD0EBC0E3D0E6
:102E100040F0DAD030F021F45F3F19F0CCC051110E
:102E200015C1CFC0F0D098F39923C9F35523B1F35E
:102E3000951B550BBB27AA2762177307840738F029
:102E40009F5F5F4F220F331F441FAA1FA9F333D088
:102E50000E2E3AF0E0E830D091505040E695001C3C
:102E6000CAF729D0FE2F27D0660F771F881FBB1FF8
:102E7000261737074807AB07B0E809F0BB0B802DD2
:102E8000BF01FF2793585F4F2AF09E3F510568F01E
:102E900092C0DCC05F3FECF3983EDCF386957795FB
:102EA0006795B795F7959F5FC9F7880F911D969520
:102EB000879597F90895E1E0660F771F881FBB1F7C
:102EC000621773078407BA0720F0621B730B840B29
:102ED000BA0BEE1F88F7E095089504D06894B111FD
:102EE000B5C0089598D088F09F5790F0B92F9927D2
:102EF000B751A0F0D1F0660F771F881F991F1AF005
:102F0000BA95C9F712C0B13081F09FD0B1E00895F1
:102F10009CC0672F782F8827B85F39F0B93FCCF372
:102F2000869577956795B395D9F73EF490958095FA
:102F3000709561957F4F8F4F9F4F0895E89409C01A
:102F400097FB3EF490958095709561957F4F8F4FDC
:102F50009F4F9923A9F0F92F96E9BB279395F695F2
:102F6000879577956795B795F111F8CFFAF4BB0F70
:102F700011F460FF1BC06F5F7F4F8F4F9F4F16C0D4
:102F8000882311F096E911C0772321F09EE8872F5E
:102F9000762F05C0662371F096E8862F70E060E01A
:102FA0002AF09A95660F771F881FDAF7880F969593
:102FB000879597F9089597F99F6780E870E060E03A
:102FC00008959FEF80EC089500240A9416161706C2
:102FD00018060906089500240A941216130614060A
:102FE00005060895092E0394000C11F4882352F06D
:102FF000BB0F40F4BF2B11F460FF04C06F5F7F4F25
:103000008F4F9F4F089557FD9058440F551F59F00B
:103010005F3F71F04795880F97FB991F61F09F3FC5
:1030200079F087950895121613061406551FF2CFEE
:103030004695F1DF08C0161617061806991FF1CF3E
:1030400086957105610508940895E894BB27662765
:103050007727CB0197F908950BD0C4CFB5DF28F0BF
:10306000BADF18F0952309F0A6CFABCF1124EECF2D
:10307000CADFA0F3959FD1F3950F50E0551F629FD3
:10308000F001729FBB27F00DB11D639FAA27F00DC1
:10309000B11DAA1F649F6627B00DA11D661F829FE8
:1030A0002227B00DA11D621F739FB00DA11D621FCD
:1030B000839FA00D611D221F749F3327A00D611DEA
:1030C000231F849F600D211D822F762F6A2F1124CC
:1030D0009F5750408AF0E1F088234AF0EE0FFF1F1F
:1030E000BB1F661F771F881F91505040A9F79E3F56
:1030F000510570F060CFAACF5F3FECF3983EDCF350
:10310000869577956795B795F795E7959F5FC1F792
:10311000FE2B880F911D9695879597F90895DB01F1
:103120008F939F930E940619BF91AF91A29F800D2C
:10313000911DA39F900DB29F900D11240895991B8E
:1031400079E004C0991F961708F0961B881F7A959E
:10315000C9F78095089597FB072E16F4009407D0C1
:1031600077FD09D00E94151907FC05D03EF4909513
:1031700081959F4F0895709561957F4F0895A1E2C5
:103180001A2EAA1BBB1BFD010DC0AA1FBB1FEE1FE1
:10319000FF1FA217B307E407F50720F0A21BB30B2C
:1031A000E40BF50B661F771F881F991F1A9469F7A8
:1031B00060957095809590959B01AC01BD01CF0104
:1031C0000895052E97FB1EF400940E94F81857FDF1
:1031D00007D00E94BF1807FC03D04EF40C94F818D7
:1031E00050954095309521953F4F4F4F5F4F089533
:1031F00090958095709561957F4F8F4F9F4F089563
:10320000EE0FFF1F0590F491E02D19940E942919EB
:10321000A59F900DB49F900DA49F800D911D11242A
:1032200008950790F691E02D1994AA1BBB1B51E15C
:1032300007C0AA1FBB1FA617B70710F0A61BB70B26
:10324000881F991F5A95A9F780959095BC01CD01CB
:103250000895A29FB001B39FC001A39F700D811D6F
:103260001124911DB29F700D811D1124911D08958F
:10327000CF93DF938230910510F482E090E0E091EB
:103280003504F091360420E030E0A0E0B0E0309763
:1032900039F14081518148175907B8F0481759074B
:1032A00071F482819381109729F013969C938E93E9
:1032B00012972CC0909336048093350427C02115B3
:1032C000310531F04217530718F0A901DB0101C0A5
:1032D000EF019A01BD01DF010280F381E02DD7CF1C
:1032E00021153105F9F0281B390B2430310580F404
:1032F0008A819B816115710521F0FB019383828393
:1033000004C09093360480933504FE01329644C085
:10331000FE01E20FF31F819391932250310939830B
:1033200028833AC02091330430913404232B41F494
:10333000209102023091030230933404209333042D
:1033400020910002309101022115310541F42DB781
:103350003EB74091040250910502241B350BE091C9
:103360003304F0913404E217F307A0F42E1B3F0B53
:103370002817390778F0AC014E5F5F4F24173507E7
:1033800048F04E0F5F1F50933404409333048193F1
:10339000919302C0E0E0F0E0CF01DF91CF9108957A
:1033A000CF93DF93009709F487C0FC013297138213
:1033B0001282C0913504D0913604209781F4208187
:1033C0003181280F391F8091330490913404821782
:1033D000930779F5F0933404E09333046DC0DE0174
:1033E00020E030E0AE17BF0750F412964D915C918B
:1033F00013979D014115510509F1DA01F3CFB3830C
:10340000A28340815181840F951F8A179B0771F415
:103410008D919C911197840F951F029691838083C3
:1034200012968D919C911397938382832115310578
:1034300029F4F0933604E09335043EC0D901139685
:10344000FC93EE9312974D915D91A40FB51FEA176F
:10345000FB0779F480819181840F951F0296D90131
:1034600011969C938E938281938113969C938E9355
:103470001297E0E0F0E08A819B81009719F0FE014D
:10348000EC01F9CFCE01029628813981820F931F7A
:1034900020913304309134042817390769F43097A8
:1034A00029F4109236041092350402C0138212825D
:1034B000D0933404C0933304DF91CF9108956F9279
:1034C0007F928F929F92AF92BF92CF92DF92EF92B4
:1034D000FF920F931F93CF93DF93EC01CB012097C3
:1034E00081F4DF91CF911F910F91FF90EF90DF90CA
:1034F000CF90BF90AF909F908F907F906F900C94E3
:103500003819FE01E60FF71F9E0122503109E2171C
:10351000F30708F4ACC0D9010D911C91119706175F
:103520001707B8F00530110508F49FC0A8014450F2
:1035300051094617570708F498C002501109061B95
:10354000170B019311936D937C93CF010E94D019B7
:103550008CC05B01A01AB10A4E01800E911EA09191
:103560003504B0913604612C712C60E070E0109746
:1035700009F449C0A815B905C9F5ED90FC9011975B
:10358000670142E0C40ED11CCA14DB0478F1470184
:103590008A189B08640142E0C40ED11C1296BC90AC
:1035A00012971396AC91B5E0CB16D10440F0B282DD
:1035B000A38391828082D9018D939C9309C00E5F71
:1035C0001F4F0E0D1F1DF90111830083EB2DFA2FE4
:1035D0006115710531F0DB011396FC93EE931297A0
:1035E00044C0F0933604E09335043FC06D917C9164
:1035F00011976616770608F43B01BD0112960D90EF
:10360000BC91A02DB4CF609133047091340468153F
:103610007905E9F468167906D0F4409100025091DA
:1036200001024115510541F44DB75EB760910402A6
:1036300070910502461B570BE417F507C0F4F09391
:103640003404E0933304F901918380830EC00E9417
:1036500038197C01009759F0A801BE010E946F1B28
:10366000CE010E94D019C70104C0CE0102C080E083
:1036700090E0DF91CF911F910F91FF90EF90DF903D
:10368000CF90BF90AF909F908F907F906F90089554
:103690001F93FC0199278827BC01E89411911032EF
:1036A000E9F3193010F01E30C8F31B3251F01D320F
:1036B00049F4689406C00E94951B610F711D811D1D
:1036C000911D119110531A30B0F33EF490958095EE
:1036D000709561957F4F8F4F9F4F1F910895FB010C
:1036E000DC0102C001900D9241505040D8F708957E
:1036F000FB01DC0101900D920020E1F708954532B5
:10370000510520F4423010F00C948A1BFB0110820A
:10371000CB010895BB274A3031F4992322F4BDE24E
:10372000909581959F4F0C94AB1B592F482F372FA5
:10373000262F660F771F881F991F660F771F881F18
:10374000991F620F731F841F951F660F771F881FB5
:10375000991F0895BB27FB015527AA27880F991F9A
:10376000AA1FA41710F0A41B83955051B9F7A05DB0
:10377000AA3308F0A95DA193009779F7B111B1932D
:103780001192CB010C94C41BDC01FC01672F7191D9
:103790007723E1F7329704C07C916D937083629137
:1037A000AE17BF07C8F3089513E0CEE3D3E000E0FF
:1037B00006C022970109FE010BBF0E941119C034F7
:0C37C000D10780E00807A9F7F894FFCFBC
:1037CC0000003704800001000000464C3A200046FF
:1037DC00523A20004F3A2000464C443A004652449C
:1037EC003A00424C443A004252443A00464C3A00A9
:1037FC0046523A002444500A00245250002452509D
:10380C0030002452503030002453500A00244950C8
:10381C000A0000000000AB122F14FE11171209123F
:02382C008912FF
:00000001FF
