:100000000C941D020C94C8140C94F9140C942A1529
:100010000C945B150C948C150C94BD150C94EE157A
:100020000C941F160C944E020C944E020C944E022B
:100030000C944E020C944E020C944E020C944E0200
:100040000C944E020C9436120C944E020C944E02F8
:100050000C944E020C944E020C944E020C945016CA
:100060000C944E020C94FE1A0C94341B0C944E0209
:100070000C944E020C944E020C944E020C944E02C0
:100080000C9464120C944E020C944E020C944E028A
:100090000C944E020C944E020C944E020C944E02A0
:1000A0000C944E020C944E020C9492120C944E023C
:1000B0000C944E020C944E020C944E020C94C012FE
:1000C0000C944E020C944E020C944E020C944E0270
:1000D0000C944E020C944E020C944E020C944E0260
:1000E0000C944E02A2146C14741480148D14AE146B
:1000F000BB1479177E1783178D1797171018A11740
:10010000A917B117BB17C517CF17DE17E8171018B7
:10011000F217FC17061832183518241828182E184C
:100120006C1839183D18431847184B1851185518B2
:1001300059186C185F18631867180C9439180C94C8
:1001400059180C9428180C948A190C94CD030C940B
:1001500080140C9458020C9454020C9450020C9489
:1001600055180C94A2140C9479170C9495190C94AE
:10017000B1170C9474140C9410180C9435180C943A
:10018000AE140C94BB140C94E8170C94A3190C94A3
:1001900051180C94C5170C945C020C9424180C9400
:1001A0008D170C944B180C94151A0C948D140C94F8
:1001B000371A0C946C180C9406180C9467180C944D
:1001C000FC170C94BB030C94A9170C942E180C94D8
:1001D000CF170C9463180C945F180C9497170C9419
:1001E00043180C945E1B0C94B7190C94BB1B0C9415
:1001F000F2170C94681B0C94DE170C947E170C9469
:10020000A1170C94BB170C9447180C946C140C9405
:1002100032180C943D180C94831700000A0B020945
:100220000C0D0E0807030401000000000000000090
:1002300000000000000000000000000000000000BE
:10024000000000000000121110000000000000007B
:10025000000000000000000000000000000000009E
:1002600001021020200808102040102040800201C8
:1002700002010804020101020408102040808040AD
:1002800020100804020180040201804020100804AC
:10029000020108040201010204081020408001024A
:1002A0000408102040800505050507050808080812
:1002B000020202020A0A08080404040401010101FE
:1002C00001010101030303030303030304070707F9
:1002D0000C0C0C0C0C0C0C0C02020202060606069E
:1002E000060606060B0B0B0B0B0B0B0B000020007E
:1002F0002300260029002C002F00320000010000FE
:1003000003010601090100002200250028002B003E
:100310002E003100340002010000050108010B012C
:1003200000002100240027002A002D0030003300A7
:1003300001010000040107010A0100407A10F35A8C
:1003400000A0724E18090010A5D4E80000E8764815
:10035000170000E40B54020000CA9A3B000000E1C1
:10036000F505000080969800000040420F00000054
:10037000A08601000000102700000000E803000034
:1003800000006400000000000A00000000000100FE
:10039000000000002C76D888DC674F0823DFC1DF1F
:1003A000AE59E1B1B796E5E3E453C63AE651997622
:1003B00096E8E6C28426EB898C9B62ED407C6FFC5C
:1003C000EFBC9C9F40F2BAA56FA5F490055A2AF79E
:1003D0005C936B6CF9676DC11BFCE0E40D47FEF5A7
:1003E00020E6B500D0ED902E03009435770500800F
:1003F000841E080000204E0A000000C80C3333336E
:10040000330F986E12831141EF8D2114893BE6550D
:1004100016CFFEE6DB18D1844B381BF77C1D901DF0
:10042000A4BBE424203284725E228100C9F124EC52
:10043000A1E53D27BB03681BCD0311241FBECFEFF1
:10044000D1E2DEBFCDBF00E00CBF12E0A0E0B2E021
:10045000EAE8FCE400E00BBF02C007900D92AA3866
:10046000B107D9F724E0AAE8B2E001C01D92A53691
:10047000B207E1F714E0C8E3D4E000E006C0229739
:100480000109FE010BBF0E94F920C433D10780E0AF
:100490000807A9F70E94AC1B0C9433260C940000AB
:1004A0008AE892E00C94AE038AE892E00C94B103DF
:1004B0008AE892E00C94B4038AE892E00C94B703C3
:1004C0008AE892E00E94840242E050E060E572E037
:1004D00082E00E94571442E050E064E572E083E05D
:1004E0000E94571442E050E068E572E085E00E9407
:1004F000571442E050E06CE572E084E00C9457142D
:100500008AE892E00C94260DAF92BF92CF92DF92D0
:10051000EF92FF920F931F93CF93DF93CDB7DEB788
:100520002E970FB6F894DEBF0FBECDBF5C01CE0193
:1005300001960E94830D8EE0FE013196D501019057
:100540000D928A95E1F7F501EC5AFF4F1182108266
:1005500044E050E06AE370E08FE093E00E944E11C7
:10056000F501E658FF4F11821082329611821082F7
:10057000329681E080833196118210823296108209
:1005800011821282138285E1C82ED12C98E1E92EC6
:10059000F12C00E010E021E030E040E058E062E0C3
:1005A00070E0C50140960E94D20D24E1C22ED12CEC
:1005B00039E1E32EF12C01E010E021E030E040E0F1
:1005C00058E063E070E0C50181960E94D20D43E1DE
:1005D000C42ED12C5BE1E52EF12C00E010E020E0F0
:1005E00030E040E250E064E070E0C501C2960E9455
:1005F000D20D62E1C62ED12C7AE1E72EF12C01E07A
:1006000010E020E030E040E250E065E070E0C5013D
:100610008D5B9F4F0E94D20D00E010E02FE130E093
:100620004EE150E067E070E0C5018A5A9F4F0E949A
:10063000B70D01E010E021E230E040E250E068E078
:1006400070E0C5018F599F4F0E94B70D61E087E0B0
:100650000E946D1861E08EE10E946D1861E088E0F3
:100660000E946D1861E080E20E946D1860E087E0F2
:100670000E94A61860E088E00E94A61869E070E079
:10068000C50181599F4F0E94B9136AE070E0C5010E
:1006900084599F4F0E94B91361E08DE00E946D184C
:1006A000F501E758FF4F108260E672E0C5018E58F1
:1006B0009F4F0E94181DF501E858FF4F108226E059
:1006C00040E052EC61E070E083EC93E00E949C1A01
:1006D0002E960FB6F894DEBF0FBECDBFDF91CF913F
:1006E0001F910F91FF90EF90DF90CF90BF90AF9050
:1006F00008950F931F93CF93DF938B0164EF71E005
:1007000080E090E00E94C916C0E0D0E0C017D10799
:1007100004F560E08DE00E94A6186AEF70E080E0CA
:1007200090E00E94C91661E08DE00E94A6186AEF71
:1007300070E080E090E00E94C91660E08DE00E94C9
:10074000A6186AEF70E080E090E00E94C91621963A
:10075000DDCFDF91CF911F910F91089540960C94BA
:10076000FD0D81960C94FD0DC2960C94FD0D8D5BD4
:100770009F4F0C94FD0D8AE892E00E94830D86EF56
:1007800092E00E94EE1289EF92E00E94EE1260E683
:1007900072E08CEF92E00C94EB1C8CEF92E00C94E6
:1007A0007D1C2F923F924F925F926F927F928F9219
:1007B0009F92AF92BF92CF92DF92EF92FF920F93F0
:1007C0001F93CF93DF93CDB7DEB7C25BD1090FB6CE
:1007D000F894DEBF0FBECDBF4C0160E672E0CE01E3
:1007E00081589F4F0E94EB1C9E012B563F4FC756CE
:1007F000DF4F39832883C959D040CB56DF4F188249
:1008000019821A821B82C559D040AE014F565F4FE4
:10081000C556DF4F59834883CB59D040CF56DF4F61
:10082000188219821A821B82C159D040CE01835787
:100830009F4FC356DF4F99838883CD59D040C3570C
:10084000DF4F188219821A821B82CD58D0402E01A8
:1008500099E8490E511CF201108211821282138212
:1008600080E090E0A6E9B3E4CB57DF4F888399831B
:10087000AA83BB83C558D0403401F2E76F0E711CC8
:1008800062E070E0C3010E94F91DFC0180818C349C
:1008900009F4D6C0823509F443C2823409F40FC783
:1008A0001F921F92FCE32F2E2F92A3E23A2E3F922B
:1008B000F7EDFF932AE02F93A12CB12CC12CBFE3BD
:1008C000DB2EE12CF12C00E81EE39E012B573F4F5D
:1008D000AE0143575F4FBE016B567F4FCE01CA96A4
:1008E0000E94E1101F921F922F923F9237ED3F938B
:1008F0004AE04F939E012B573F4FA201BE016F5616
:100900007F4FCE0101960E94E11061E070E0CE01C0
:10091000CA960E948F1061E070E0CE0101960E949D
:100920008F10C4018F599F4FC156DF4F9983888321
:10093000CF59D04061E070E00E94CC0DF401EA5A3A
:10094000FF4FCF55DF4FF983E883C15AD04060E0B5
:1009500070E0CF010E94CC0D60E070E0C156DF4F27
:1009600088819981CF59D0400E94C80D60E070E025
:10097000CF55DF4F88819981C15AD0400E94C80D60
:100980001E01F3E72F0E311C26E030E043E050E07B
:10099000B301C1010E940B1EB101CE0181589F4FCE
:1009A0000E94011DC1010E947D1CCE0181589F4FF4
:1009B0000E94501E4AE0469F9001479F300D11242F
:1009C000F401E158FF4F80819181280F391FCB55E9
:1009D000DF4F39832883C55AD0400FB6F894DEBF65
:1009E0000FBECDBF00E010E0CD55DF4FF983E883A7
:1009F000C35AD040EF56F109C555DF4FF983E8835C
:100A0000CB5AD04094012F5D3F4FC355DF4F398300
:100A10002883CD5AD040A4014E5C5F4FC155DF4FB3
:100A200059834883CF5AD040C4018D5B9F4FC9552D
:100A3000DF4F99838883C75AD040B22CA32C19C6A4
:100A40009401205F3F4FCB55DF4F39832883C55A30
:100A5000D040C9010E94730EA4014F5D5F4FCD5578
:100A6000DF4F59834883C35AD040CA010E94730E96
:100A7000C4018F599F4FCF55DF4F99838883C15A47
:100A8000D04061E070E00E94CC0D140196E5290E83
:100A9000311C61E070E0C1010E94CC0D26E030E025
:100AA00043E050E0B3018E010F5F1F4FC8010E9469
:100AB0000B1EB801CE0181589F4F0E94011DC80135
:100AC0000E947D1CCE0181589F4F0E94501E0E94A3
:100AD000601F5B016C01F401EF57FF4FC156DF4F00
:100AE000F983E883CF59D04020E030E04AE754E46E
:100AF0000E94142025E33AEF4EE85CE30E941420A4
:100B00009B01AC01C156DF4FE881F981CF59D0403C
:100B100060817181828193810E945C1E2B013C0166
:100B20007E01FAE3EF0EF11C22E0B601A501C70138
:100B30000E945C1D6AE072E0C8010E94EB1CB701D4
:100B4000C8010E94CC1DBC0183EC93E00E94241CD0
:100B5000C8010E947D1CC7010E947D1C22E0B301D8
:100B6000A201C7010E945C1D6FE072E0C8010E94F3
:100B7000EB1CB701C8010E94CC1DBC0183EC93E0C3
:100B80000E94241CC8010E947D1CC7010E947D1C7C
:100B900094012E5C3F4F5901A4014D5B5F4F6A01E8
:100BA000A3019201C156DF4FE881F981CF59D040AE
:100BB00060817181828193810E94102018160CF04F
:100BC0001CC269E170E080E090E00E94C916C50196
:100BD0000E942A0EBC01C601CF54DF4F6883C15B5F
:100BE000D040CE54DF4F7883C25BD0400E942A0EA3
:100BF0004C014AE0CF54DF4F6881C15BD040CE54F6
:100C0000DF4F7881C25BD040C7010E94301D64E194
:100C100072E0C8010E94EB1CB701C8010E94CC1D04
:100C2000BC0183EC93E00E94241CC8010E947D1C3F
:100C3000C7010E947D1C4AE0B401C7010E94301D1B
:100C400069E172E0C8010E94EB1CB701C8010E9473
:100C5000CC1DBC0183EC93E00E94241CC8010E94BF
:100C60007D1CC7010E947D1CC5010E942A0E4C01FB
:100C7000C6010E942A0EB401681B790B882777FDF4
:100C80008095982F0E94601F20E030E040E05FE3F5
:100C90000E94142020E030E04AE754E40E9414202F
:100CA00020E030E04CE553E40E94C51E2DEC3CEC06
:100CB0004CE050E40E94C51EAB01BC01C156DF4FA1
:100CC000E881F981CF59D040408351836283738397
:100CD00022E0C7010E945C1D6BE072E0C8010E9427
:100CE000EB1CB701C8010E94CC1DBC0183EC93E052
:100CF0000E94241CC8010E947D1CC7010E947D1C0B
:100D00006FEF70E0CF55DF4F88819981C15AD04095
:100D10000E94C80D6FEF70E0C1010E94C80D40CF66
:100D20009401205F3F4FCB55DF4F39832883C55A4D
:100D3000D040C9010E94730EA4014F5D5F4FCD5595
:100D4000DF4F59834883C35AD040CA010E94730EB3
:100D5000C4018F599F4FCF55DF4F99838883C15A64
:100D6000D04060E070E00E94CC0D140196E5290EA1
:100D7000311C60E070E0C1010E94CC0D26E030E043
:100D800043E050E0B3018E010F5F1F4FC8010E9486
:100D90000B1EB801CE0181589F4F0E94011DC80152
:100DA0000E947D1CCE0181589F4F0E94501E0E94C0
:100DB000601F5B016C01F401EF57FF4FC156DF4F1D
:100DC000F983E883CF59D04020E030E04AE754E48B
:100DD0000E94142025E33AEF4EE85CE30E941420C1
:100DE000C156DF4FE881F981CF59D0402081318150
:100DF000428153810E945D1E2B013C017E01FAE37A
:100E0000EF0EF11C22E0B601A501C7010E945C1D96
:100E10006AE072E0C8010E94EB1CB701C8010E94A1
:100E2000CC1DBC0183EC93E00E94241CC8010E94ED
:100E30007D1CC7010E947D1C22E0B301A201C701F5
:100E40000E945C1D6FE072E0C8010E94EB1CB701BC
:100E5000C8010E94CC1DBC0183EC93E00E94241CBD
:100E6000C8010E947D1CC7010E947D1C94012E5C5C
:100E70003F4F5901A4014D5B5F4F6A01A3019201ED
:100E8000C156DF4FE881F981CF59D040608171812F
:100E9000828193810E94C11E87FFAFC069E170E02B
:100EA00080E090E00E94C916C5010E942A0EBC0194
:100EB000C601CF54DF4F6883C15BD040CE54DF4FB3
:100EC0007883C25BD0400E942A0E4C014AE0CF5486
:100ED000DF4F6881C15BD040CE54DF4F7881C25B69
:100EE000D040C7010E94301D64E172E0C8010E9439
:100EF000EB1CB701C8010E94CC1DBC0183EC93E040
:100F00000E94241CC8010E947D1CC7010E947D1CF8
:100F10004AE0B401C7010E94301D69E172E0C801D6
:100F20000E94EB1CB701C8010E94CC1DBC0183ECE0
:100F300093E00E94241CC8010E947D1CC7010E94EE
:100F40007D1CC5010E942A0E4C01C6010E942A0E7A
:100F5000B401681B790B882777FD8095982F0E9434
:100F6000601F20E030E040E05FE30E94142020E0BA
:100F700030E04AE754E40E94142020E030E04CE5E1
:100F800053E40E94C51E2DEC3CEC4CE050E40E9462
:100F9000C51EAB01BC01C156DF4FE881F981CF59B5
:100FA000D040408351836283738322E0C7010E9453
:100FB0005C1D6BE072E0C8010E94EB1CB701C80128
:100FC0000E94CC1DBC0183EC93E00E94241CC8014C
:100FD0000E947D1CC7010E947D1C6FEF70E0CF5501
:100FE000DF4F88819981C15AD0400E94C80D6FEFB0
:100FF00070E0C1010E94C80D41CF60E070E0CF55A4
:10100000DF4F88819981C15AD0400E94C80D60E0AD
:1010100070E0C1010E94C80D68EC70E080E090E0D3
:101020000E94C916C5010E942A0E7C01C6010E94B9
:101030002A0E8C014AE0B701CE01CA960E94301DEB
:1010400064E172E0CE0101960E94EB1CBE01665C79
:101050007F4FCE0101960E94CC1DBC0183EC93E032
:101060000E94241CCE0101960E947D1CCE01CA96CE
:101070000E947D1C4AE0B801CE01CA960E94301D34
:1010800069E172E0CE0101960E94EB1CBE01665C34
:101090007F4FCE0101960E94CC1DBC0183EC93E0F2
:1010A0000E94241CCE0101960E947D1CCE01CA968E
:1010B0000E947D1CC5010E942A0E8C01C6010E945F
:1010C0002A0EB801681B790B882777FD8095982F29
:1010D0000E94601F20E030E040E05FE30E941420A7
:1010E00020E030E04AE754E40E94142020E030E0A1
:1010F0004CE553E40E94C51E2DEC3CEC4CE050E462
:101100000E94C51EAB01BC01C156DF4FE881F981C9
:10111000CF59D040408351836283738322E0CE0154
:10112000CA960E945C1D6BE072E0CE0101960E949F
:10113000EB1CBE01665C7F4FCE0101960E94CC1D68
:10114000BC0183EC93E00E94241CCE0101960E9416
:101150007D1CCE01CA960E947D1CCB55DF4F888135
:101160009981C55AD0400E946F0ECD55DF4F8881BE
:101170009981C35AD0400E946F0EA1C262E370E011
:1011800080E090E00E94C916C555DF4F88819981A3
:10119000CB5AD0400E942A0E2C01C355DF4F8881C4
:1011A0009981CD5AD0400E942A0E7C01C155DF4F53
:1011B00088819981CF5AD0400E942A0E3C01C9559E
:1011C000DF4F88819981C75AD0400E942A0E6C0156
:1011D000C2018E0D9F1D97FD019695958795CD5562
:1011E000DF4FE881F981C35AD04091838083C9558C
:1011F000DF4F88819981C75AD0400E946B0E03301F
:10120000110509F088C04AE0B301CE0187589F4F0D
:101210000E94301D6EE172E08B2D9A2D0E94EB1C16
:10122000BE0167587F4F8B2D9A2D0E94CC1DBC01AB
:1012300083EC93E00E94241C8B2D9A2D0E947D1C30
:10124000CE0187589F4F0E947D1C4AE0B601CE0117
:1012500087589F4F0E94301D65E272E08B2D9A2DBA
:101260000E94EB1CBE0167587F4F8B2D9A2D0E9468
:10127000CC1DBC0183EC93E00E94241C8B2D9A2D85
:101280000E947D1CCE0187589F4F0E947D1C4AE022
:10129000B201CE0187589F4F0E94301D6CE272E070
:1012A0008B2D9A2D0E94EB1CBE0167587F4F8B2D12
:1012B0009A2D0E94CC1DBC0183EC93E00E94241C5B
:1012C0008B2D9A2D0E947D1CCE0187589F4F0E9426
:1012D0007D1C4AE0B701CE0187589F4F0E94301D08
:1012E00063E372E08B2D9A2D0E94EB1CBE016758C0
:1012F0007F4F8B2D9A2D0E94CC1DBC0183EC93E077
:101300000E94241C8B2D9A2D0E947D1CCE01875893
:101310009F4F0E947D1CC4010E949B0D9301281BBE
:10132000390BC401CF54DF4F2883C15BD040CE546A
:10133000DF4F3883C25BD0400E949F0DA601481B3F
:10134000590BC755DF4F59834883C95AD040B6015E
:10135000C4010E94A70DB301C4010E94A30D0E9405
:101360009A166B017C01C4010E94B10D2601370160
:10137000461A570A680A790AB701A601C4010E94F1
:10138000AB0DCF54DF4F2881C15BD040CE54DF4F2F
:101390003881C25BD04088EE93E0289FB001299F3E
:1013A000700D389F700D1124882777FD8095982F38
:1013B000A30192010E94A720CA01B9010E945E1FE9
:1013C0006B017C01CB56DF4F688379838A839B83D3
:1013D000C559D040C755DF4FE881F981C95AD0407F
:1013E00028EE33E0E29FB001E39F700DF29F700D95
:1013F0001124882777FD8095982FA30192010E94E0
:10140000A720CA01B9010E945E1FCF56DF4F688333
:1014100079838A839B83C159D0400330110509F039
:1014200094C022E0B701A601CE0187589F4F0E94C9
:101430005C1D6AE372E0C1010E94EB1CBE016758AB
:101440007F4FC1010E94CC1DBC0183EC93E00E9440
:10145000241CC1010E947D1CCE0187589F4F0E9411
:101460007D1CCF56DF4F488159816A817B81C159EC
:10147000D04022E0CE0187589F4F0E945C1D62E45D
:1014800072E0C1010E94EB1CBE0167587F4FC10191
:101490000E94CC1DBC0183EC93E00E94241CC1017E
:1014A0000E947D1CCE0187589F4F0E947D1CC35710
:1014B000DF4F488159816A817B81CD58D04022E03D
:1014C000CE0187589F4F0E945C1D6AE472E0C10103
:1014D0000E94EB1CBE0167587F4FC1010E94CC1DCA
:1014E000BC0183EC93E00E94241CC1010E947D1C7E
:1014F000CE0187589F4F0E947D1CC757DF4F488100
:1015000059816A817B81C958D04022E0CE01875839
:101510009F4F0E945C1D63E572E0C1010E94EB1CBD
:10152000BE0167587F4FC1010E94CC1DBC0183ECF6
:1015300093E00E94241CC1010E947D1CCE018758AB
:101540009F4F0E947D1C00E010E0CE01CA960E94D1
:10155000760ECE0101960E94760E20E030E04AE73A
:1015600053E4C357DF4F688179818A819B81CD58CD
:10157000D0400E941020181664F480E090E0AAE7A2
:10158000B3E4C357DF4F88839983AA83BB83CD58C5
:10159000D04020E030E04AE753E4C757DF4F68818E
:1015A00079818A819B81C958D0400E9410201816E9
:1015B00064F480E090E0AAE7B3E4C757DF4F888384
:1015C0009983AA83BB83C958D04020E030E0A901A9
:1015D000C357DF4F688179818A819B81CD58D04084
:1015E0000E94C11E87FF08C0C357DF4F18821982AF
:1015F0001A821B82CD58D04020E030E0A901C757A5
:10160000DF4F688179818A819B81C958D0400E94CF
:10161000C11E87FF08C0C757DF4F188219821A8280
:101620001B82C958D040C357DF4F688179818A81B6
:101630009B81CD58D0400E942D1FCF55DF4F888110
:101640009981C15AD0400E94C80DC757DF4F6881A9
:1016500079818A819B81C958D0400E942D1FC15633
:10166000DF4F88819981CF59D0400E94C80D0F5F0C
:101670001F4FCD55DF4FE881F981C35AD04080819B
:101680009181CB55DF4F28813981C55AD0408217CF
:1016900093070CF473CD60E070E0C156DF4F888192
:1016A0009981CF59D0400E94C80D60E070E0CF55BD
:1016B000DF4F88819981C15AD0400E94C80D68ECE3
:1016C00070E080E090E00E94C9166CE572E083EC67
:1016D00093E00E94071C83EC93E00E94151ACE0150
:1016E00081589F4F0E947D1CCE54DF4F0FB6F89457
:1016F000DEBF0FBECDBFDF91CF911F910F91FF9045
:10170000EF90DF90CF90BF90AF909F908F907F90A1
:101710006F905F904F903F902F9008958F929F927F
:10172000AF92BF92CF92DF92EF92FF920F931F93EF
:10173000CF93DF93CDB7DEB72C970FB6F894DEBF0B
:101740000FBECDBF8C0160E672E0CE0107960E940D
:10175000EB1C8FE093E00E945E116C0158012EE7B4
:10176000A20EB11CF5018081980124583F4F7901E8
:101770008823D1F08FE093E00E945E114C018FE04E
:1017800093E00E945E119601280D391D280F391F24
:10179000C90163E070E00E94932064517109F70170
:1017A00071836083F5011082F701208131812C194A
:1017B0003D09F801E658FF4F37FD03C03183208310
:1017C00002C011821082608171814AE0CE010196CF
:1017D0000E94301DBE016F5F7F4FCE0107960E94B1
:1017E000011DCE0101960E947D1C8B859C85833056
:1017F000910519F461E672E007C0029719F465E6F5
:1018000072E002C06AE672E0CE0101960E94EB1C13
:10181000BE01695F7F4FCE0101960E94CC1D6FE52E
:1018200072E00E94DF1DBC0183EC93E00E94F91B73
:10183000CE0101960E947D1C83EC93E00E94151A54
:10184000CE0107960E947D1C2C960FB6F894DEBF41
:101850000FBECDBFDF91CF911F910F91FF90EF9001
:10186000DF90CF90BF90AF909F908F90089563E0EE
:1018700070E00E94790360E772E083EC93E00E94DD
:10188000071C83EC93E00C94151A4F925F926F92B1
:101890007F928F929F92AF92BF92CF92DF92EF9200
:1018A000FF920F931F93CF93DF93CDB7DEB72C97A3
:1018B0000FB6F894DEBF0FBECDBF8C015C0182E78E
:1018C000A80EB11C24E030E043E050E0B501CE01A9
:1018D00007960E940B1ECE0107960E94501E0E9482
:1018E000601F6B017C0126E030E045E050E0B5016F
:1018F000CE0101960E940B1EBE016F5F7F4FCE018D
:1019000007960E94011DCE0101960E947D1CCE010A
:1019100007960E94501E0E94601F2B013C0162E04E
:1019200070E0C5010E94F91DFC0180818B3251F4E9
:1019300020E030E044EB52E4C701B6010E945D1E96
:101940006B017C0120E030E040E151E4C301B201D1
:101950000E9414204B015C0122E73CE147E05FE379
:10196000C701B6010E94142020E030E84DE654E49F
:101970000E945D1E0E942D1FC80184599F4F0E9426
:10198000F2136FE070E080E090E00E94C91620E062
:1019900030E842E254E4C501B4010E945D1E0E9499
:1019A0002D1FC80181599F4F0E94F2136FE070E014
:1019B00080E090E00E94C91665E772E083EC93E056
:1019C0000E94071C83EC93E00E94151ACE01079633
:1019D0000E947D1C2C960FB6F894DEBF0FBECDBFC3
:1019E000DF91CF911F910F91FF90EF90DF90CF90FB
:1019F000BF90AF909F908F907F906F905F904F902F
:101A00000895CF93DF93EC0161E070E08E589F4F13
:101A10000E94F91DFC018081893471F0823539F012
:101A2000843479F4CE01DF91CF910C94D103CE01AF
:101A3000DF91CF910C948E0BCE01DF91CF910C945E
:101A4000450CCE01DF91CF910C94370CBF92CF9211
:101A5000DF92EF92FF920F931F93CF93DF93EC01EE
:101A60008C0107581F4F7C0182E7E80EF11C6E01C4
:101A7000E8E7CE0ED11CBB24B39483EC93E00E9424
:101A80008A19181619068CF483EC93E00E94A319A6
:101A9000F8018083682FC7010E94B81DF80180817A
:101AA0008A3059F7F601B082E8CF64E670E080E052
:101AB00090E00E94C9168E0108581F4FF8018081DE
:101AC0008823B9F07E01F2E7EF0EF11C60E070E0D0
:101AD000C7010E94F91DFC018081843251F4CE01BE
:101AE0000E94010D60E672E0C7010E94181DF80116
:101AF0001082DF91CF911F910F91FF90EF90DF90B7
:101B0000CF90BF900895CF93DF93EC0181E090E0F8
:101B1000998388831B821A821D821C821F821E82E7
:101B2000198618860E949A166A877B878C879D87FC
:101B3000DF91CF910895FC01828193810895FC018A
:101B4000848195810895FC01738362830895FC016B
:101B5000758364830895FC01428753876487758782
:101B60000895FC01628573858485958508950F939A
:101B70001F93FC01718360835383428335832483E5
:101B8000178216821286118700871F910F91089580
:101B9000FC0180810C945317FC016087718782815E
:101BA0000C94A618CF92DF92EF92FF920F931F939F
:101BB000FC017183608353834283318720871387BD
:101BC0000287E686F786C486D58614821582168239
:101BD000178281E0808B60E08C2D0E946D1861E09F
:101BE0008C2D0E94A61860E08E2D1F910F91FF9002
:101BF000EF90DF90CF900C946D18CF93DF93EC01B2
:101C00008889882321F18A859B85892B51F48E85CB
:101C10000E94DC184C815D816E817F81019751F4B7
:101C20000EC08E850E94DC184C815D816E817F81A3
:101C3000019729F44F5F5F4F6F4F7F4F04C04150B2
:101C40005109610971094C835D836E837F83DF9144
:101C5000CF910895CF92DF92EF92FF92CF93DF93CF
:101C6000EC016C817D818E819F81660F771F881FBB
:101C7000991F0E94601F2BED3FE049E450E40E9451
:101C800014206B017C016A817B81882777FD809518
:101C9000982F0E94601F9B01AC01C701B6010E94F2
:101CA000C51E28853985232B31F420E030E04CE82F
:101CB00052E40E94C51E20E030E04FEB52E40E9447
:101CC00014200E942D1FCB01DF91CF91FF90EF9048
:101CD000DF90CF900895FC0184819581089521E0E3
:101CE000FC01208B0895FC01108A08952F923F92E9
:101CF0004F925F926F927F928F929F92AF92BF921C
:101D0000CF92DF92EF92FF920F931F93CF93DF93C7
:101D1000CDB7DEB72B970FB6F894DEBF0FBECDBFA1
:101D20009B878A87DC01D896BC91B983B11102C028
:101D30001982E2C00E949A166A837B838C839D83FA
:101D4000EA85FB8580A191A1A2A1B3A14A815B8113
:101D50006C817D81481B590B6A0B7B0B84A595A573
:101D6000A6A5B7A5481759076A077B0708F3028C91
:101D7000F38DE02D80809180A280B380AA85BB8501
:101D80005E96ED91FC915F97A50194016081718150
:101D9000828193810E945C1E2B013C01EA85FB85B8
:101DA00020893189428953890E941420AA85BB85E4
:101DB00094962D913D914D915C9197970E945D1E57
:101DC0006B017C01EA85FB8564A375A386A397A3B9
:101DD00024A835A806A917A99101A8010E941020DE
:101DE00018161CF4C101D80118C0AA85BB85D0966D
:101DF0008D919D910D90BC91A02D8E839F83A8877E
:101E0000B9879C01AD01C701B6010E94C11E87FFC1
:101E10000AC08E819F81A885B985EA85FB8584A348
:101E200095A3A6A3B7A3AA85BB851C962D913D912A
:101E30004D915C911F97C301B2010E941420EA8565
:101E4000FB8524A135A146A157A10E945D1E6B010F
:101E50007C01AA85BB8598962D913D914D915C9111
:101E60009B97C501B4010E945C1EEA85FB8524890D
:101E70003589468957890E9414209B01AC01C7010E
:101E8000B6010E945C1E6B017C019101A8010E94B9
:101E900010201816BCF0AA85BB85D0962C90D09740
:101EA000D1963C90D197D2960C91D297D3961C9113
:101EB0009101A801B601C7010E94C11E87FD02C0A1
:101EC00016018701AA85BB855C96ED91FC915D9713
:101ED000C101D80180839183A283B383EA85FB8506
:101EE00080A691A6A2A6B3A68A819B81AC81BD8162
:101EF00080A391A3A2A3B3A389812B960FB6F894D4
:101F0000DEBF0FBECDBFDF91CF911F910F91FF902C
:101F1000EF90DF90CF90BF90AF909F908F907F9089
:101F20006F905F904F903F902F9008952F923F9227
:101F30004F925F926F927F928F929F92AF92BF92D9
:101F4000CF92DF92EF92FF920F931F93CF93DF9385
:101F500000D01F92CDB7DEB71C012A013B0148011A
:101F6000590120E030E0A901C301B2010E94C11E65
:101F700087FD78C020E030E0A901C501B4010E94CE
:101F8000C11E87FD6FC020E030E0A901C701B60186
:101F90000E94C11E87FD66C0F101408251826282AB
:101FA000738284829582A682B782C086D186E286B9
:101FB000F38664A575A586A597A50E945E1F20E0FF
:101FC00030E04AE754E40E94C51E69837A838B831C
:101FD0009C83F10144865586668677869B01AC0119
:101FE000C501B4010E9414204B015C01F101608B1A
:101FF000718B828B938B29813A814B815C81C701E4
:10200000B6010E94C51E6B017C01F101648B758BCA
:10201000868B978B808D918D019721F5A30192017D
:1020200060E070E0CB010E945C1EF101648775875F
:1020300086879787A501940160E070E0CB010E943C
:102040005C1EF101608B718B828B938BA7019601D3
:1020500060E070E0CB010E945C1EF101648B758B27
:10206000868B978B0F900F900F900F90DF91CF91F1
:102070001F910F91FF90EF90DF90CF90BF90AF90A6
:102080009F908F907F906F905F904F903F902F9098
:1020900008958F929F92AF92BF92CF92DF92EF926C
:1020A000FF92CF93DF93EC01EC8DFD8DC080D1804A
:1020B000E280F380CCA2DDA2EEA2FFA2EA8DFB8D2E
:1020C00080819181A281B38188A799A7AAA7BBA784
:1020D0008CA89DA8AEA8BFA8A5019401C701B60110
:1020E0000E941020181664F088A899A8AAA8BBA876
:1020F000A5019401C701B6010E94C11E87FF04C05B
:102100008CA29DA2AEA2BFA2DF91CF91FF90EF90D3
:10211000DF90CF90BF90AF909F908F9008951F93C6
:10212000CF93DF93EC0111E06130710509F010E00D
:1021300088AD91E08927181303C0CE010E94491091
:1021400018AFDF91CF911F9108950F931F93CF93F5
:10215000DF93EC018B0188AD882361F1888D998D27
:102160006817790739F12C853D854E855F8560E0DC
:1021700070E0CB010E945C1E6C877D878E879F87F5
:10218000288939894A895B8960E070E0CB010E9427
:102190005C1E688B798B8A8B9B8B2C893D894E8941
:1021A0005F8960E070E0CB010E945C1E6C8B7D8BD0
:1021B0008E8B9F8B198F088FDF91CF911F910F917D
:1021C00008954F925F926F927F928F929F92AF92FB
:1021D000BF92CF92DF92EF92FF920F931F93CF9314
:1021E000DF9300D01F92CDB7DEB74C012701380135
:1021F000A982BA82CB82DC82FC01558F448F738F17
:10220000628F378F268F10AE10AA11AA12AA13AAB6
:1022100080E090E0AFE7B3E484AB95ABA6ABB7AB9F
:1022200084E690E0A0E0B0E084A795A7A6A7B7A7B2
:102230006C8D7D8DC4010E94A510C88CD98CEA8C50
:10224000FB8C09811A812B813C81B301A201C4015D
:102250000E94960F0E949A16F40144A455A466A405
:1022600077A4641975098609970960A371A382A3ED
:1022700093A30F900F900F900F90DF91CF911F912C
:102280000F91FF90EF90DF90CF90BF90AF909F9015
:102290008F907F906F905F904F900895CF93DF93D2
:1022A000EC01842F7B836A834C835D8360E00E9412
:1022B0006D1819821882DF91CF910895CF93DF9323
:1022C000EC0120E432E44FE050E061E08C810E94B8
:1022D00005192A813B81CB01B9010E949320CB01D2
:1022E00079836883DF91CF910895CF92DF92EF9247
:1022F000FF920F931F93CF93DF936C018B017A01B1
:10230000EC01CA5EDC4F888187FF04C0FB011182AB
:10231000108223C02CE02C9DC0012D9D900D112416
:102320002881AC01420F511D27FD5A9520911503BC
:1023300030E0421753078CF42881AC01420F511D45
:1023400027FD5A959A01FA01EE0FFF1FE20FF31FC6
:10235000E65EFC4F208126FD19C088818F5F88834F
:102360008CE08C9D90018D9D300D11248881A901F8
:10237000480F511D87FD5A958091150390E048172D
:102380005907B4F488818C303CF112C02881820F47
:10239000911D27FD9A95FC01EE0FFF1FE80FF91F15
:1023A000E65EFC4F808160E08F730E94A618D5CF57
:1023B000F80180819181049680349C4918F480E46E
:1023C0009CE904C0F801808191810496F701918312
:1023D00080838FEF888341C0F8018081918148819B
:1023E000B901640F711D47FD7A95AB01FB01EE0F3A
:1023F000FF1FE40FF51FE65EFC4F41815281840F01
:10240000951FF701918380838881A901480F511D91
:1024100087FD5A95FA01EE0FFF1FE40FF51FE65EE8
:10242000FC4F808186FF19C08881280F311D87FDF0
:102430003A95F901EE0FFF1FE20FF31FE65EFC4F26
:10244000808161E08F73DF91CF911F910F91FF9099
:10245000EF90DF90CF900C94A618DF91CF911F9151
:102460000F91FF90EF90DF90CF9008951F920F9201
:102470000FB60F9211240BB60F922F933F934F93E9
:102480005F936F937F938F939F93AF93BF93EF93DC
:10249000FF9348E850E064E870E081E090E00E943B
:1024A0007511FF91EF91BF91AF919F918F917F91A6
:1024B0006F915F914F913F912F910F900BBE0F90B5
:1024C0000FBE0F901F9018951F920F920FB60F928C
:1024D00011240BB60F922F933F934F935F936F93FB
:1024E0007F938F939F93AF93BF93EF93FF9348E9AD
:1024F00050E064E970E082E090E00E947511FF9185
:10250000EF91BF91AF919F918F917F916F915F916B
:102510004F913F912F910F900BBE0F900FBE0F90D8
:102520001F9018951F920F920FB60F9211240BB6A1
:102530000F922F933F934F935F936F937F938F935C
:102540009F93AF93BF93EF93FF9348EA50E064EA01
:1025500070E083E090E00E947511FF91EF91BF91D0
:10256000AF919F918F917F916F915F914F913F912B
:102570002F910F900BBE0F900FBE0F901F901895CC
:102580001F920F920FB60F9211240BB60F922F933A
:102590003F934F935F936F937F938F939F93AF93EB
:1025A000BF93EF93FF9348E251E064E271E080E073
:1025B00090E00E947511FF91EF91BF91AF919F91B3
:1025C0008F917F916F915F914F913F912F910F90DC
:1025D0000BBE0F900FBE0F901F9018952091150302
:1025E0002033A0F431E0320F30931503FC01208337
:1025F000822F90E0FC01EE0FFF1FE80FF91FE65E4F
:10260000FC4F88EB9BE09283818308952FEFFC01C0
:1026100020830895DF92EF92FF920F931F93CF9341
:10262000DF93EC01D62E7A0189018881803308F08E
:1026300068C061E08D2D0E946D188881A82FB0E0E0
:10264000FD01EE0FFF1FEA0FFB1FE65EFC4F2D2D75
:102650002F739081907C922B908360E272E06E19D0
:102660007F0977FF02C06D5F7F4F75956795759500
:102670006795698340E659E0401B510B57FF02C044
:102680004D5F5F4F55954795559547954A836CE04B
:102690000E9487209CE0899FB001112420E030E057
:1026A000A901460F571FFA01EE0FFF1FE40FF51F98
:1026B000E65EFC4F908196FD18C02F5F3F4F2C3097
:1026C000310571F790E08130910521F5109280007D
:1026D00082E0809381001092850010928400B19A6C
:1026E00080916F00826080936F00888190E0FC0190
:1026F000EE0FFF1FE80FF91FE65EFC4F808180643C
:1027000080838881DF91CF911F910F91FF90EF908F
:10271000DF9008958230910569F41092900082E074
:1027200080939100109295001092940088BB809342
:102730007100DBCF8330910569F41092A00082E034
:102740008093A1001092A5001092A40089BB8093F1
:102750007200CBCF892B49F61092200182E0809342
:10276000210110922501109224018ABB80937300ED
:10277000BCCF20E639E040E252E00C940A13FC01A1
:102780008081803370F5918128E830E0291B310980
:1027900097FD3395220F331F220F331F62177307E4
:1027A0007CF0928128E532E0291B310997FD3395B1
:1027B000220F331F220F331F621773070CF49B0184
:1027C0004FB7F89490E0FC01EE0FFF1FE80FF91FE0
:1027D000E65EFC4F22503109220F331F32832183E2
:1027E0004FBF08954F925F926F927F92AF92BF92C8
:1027F000CF92DF92EF92FF920F931F93CF93DF93CD
:10280000EC01603282E078070CF040C077FD06C032
:10281000653B71052CF064EB70E002C060E070E095
:10282000898128E830E0281B310987FD3395220F84
:10283000331F220F331F5901CC24B7FCC094DC2C6A
:10284000882777FD8095982F2A8148E552E0421B22
:10285000510927FD5395440F551F440F551F2A0159
:10286000662457FC6094762C7F926F925F924F9211
:1028700014EBE12EF12C00E010E020E030E0A901A3
:102880000E94361C0F900F900F900F90CE01DF9199
:10289000CF911F910F91FF90EF90DF90CF90BF905D
:1028A000AF907F906F905F904F900C94BF138830E3
:1028B00008F06DC0E82FF0E0EE0FFF1FE655FC4F6B
:1028C0007183608390E0FC013197E730F10590F56A
:1028D000EE58FF4F0C94E820809169008C7F842B88
:1028E00080936900E89A089580916900440F551F0C
:1028F000440F551F837F842B80936900E99A0895C4
:102900008091690074E0440F551F7A95E1F78F7C40
:10291000842B80936900EA9A08958091690066E0AB
:10292000440F551F6A95E1F78F73842B80936900DC
:10293000EB9A089580916A008C7F842B80936A00C3
:10294000EC9A089580916A00440F551F440F551F5B
:10295000837F842B80936A00ED9A089580916A00AA
:1029600024E0440F551F2A95E1F78F7C842B809338
:102970006A00EE9A089580916A0096E0440F551F10
:102980009A95E1F78F73842B80936A00EF9A0895EC
:102990001F920F920FB60F9211240BB60F922F9326
:1029A0003F934F935F936F937F938F939F93AF93D7
:1029B000BF93EF93FF938091AE039091AF03892B68
:1029C00029F0E091AE03F091AF031995FF91EF91DB
:1029D000BF91AF919F918F917F916F915F914F9137
:1029E0003F912F910F900BBE0F900FBE0F901F9035
:1029F00018951F920F920FB60F9211240BB60F92DB
:102A00002F933F934F935F936F937F938F939F93F6
:102A1000AF93BF93EF93FF938091B0039091B10375
:102A2000892B29F0E091B003F091B1031995FF9142
:102A3000EF91BF91AF919F918F917F916F915F9136
:102A40004F913F912F910F900BBE0F900FBE0F90A3
:102A50001F9018951F920F920FB60F9211240BB66C
:102A60000F922F933F934F935F936F937F938F9327
:102A70009F93AF93BF93EF93FF938091B203909195
:102A8000B303892B29F0E091B203F091B3031995B8
:102A9000FF91EF91BF91AF919F918F917F916F9136
:102AA0005F914F913F912F910F900BBE0F900FBEF2
:102AB0000F901F9018951F920F920FB60F9211242E
:102AC0000BB60F922F933F934F935F936F937F9328
:102AD0008F939F93AF93BF93EF93FF938091B40332
:102AE0009091B503892B29F0E091B403F091B503DF
:102AF0001995FF91EF91BF91AF919F918F917F9128
:102B00006F915F914F913F912F910F900BBE0F905E
:102B10000FBE0F901F9018951F920F920FB60F9235
:102B200011240BB60F922F933F934F935F936F93A4
:102B30007F938F939F93AF93BF93EF93FF93809176
:102B4000AA039091AB03892B29F0E091AA03F0919D
:102B5000AB031995FF91EF91BF91AF919F918F9129
:102B60007F916F915F914F913F912F910F900BBE8D
:102B70000F900FBE0F901F9018951F920F920FB6D7
:102B80000F9211240BB60F922F933F934F935F93A5
:102B90006F937F938F939F93AF93BF93EF93FF9325
:102BA0008091AC039091AD03892B29F0E091AC03A7
:102BB000F091AD031995FF91EF91BF91AF919F9166
:102BC0008F917F916F915F914F913F912F910F90D6
:102BD0000BBE0F900FBE0F901F9018951F920F9273
:102BE0000FB60F9211240BB60F922F933F934F9372
:102BF0005F936F937F938F939F93AF93BF93EF9365
:102C0000FF938091B6039091B703892B29F0E0914F
:102C1000B603F091B7031995FF91EF91BF91AF9172
:102C20009F918F917F916F915F914F913F912F91E4
:102C30000F900BBE0F900FBE0F901F9018951F9214
:102C40000F920FB60F9211240BB60F922F933F9352
:102C50004F935F936F937F938F939F93AF93BF93A4
:102C6000EF93FF938091B8039091B903892B29F0DA
:102C7000E091B803F091B9031995FF91EF91BF91DD
:102C8000AF919F918F917F916F915F914F913F9104
:102C90002F910F900BBE0F900FBE0F901F901895A5
:102CA0001F920F920FB60F9211242F933F938F9381
:102CB0009F93AF93BF938091BB039091BC03A0916E
:102CC000BD03B091BE033091BA0323E0230F2D372B
:102CD00020F40196A11DB11D05C026E8230F029620
:102CE000A11DB11D2093BA038093BB039093BC0335
:102CF000A093BD03B093BE038091BF039091C00326
:102D0000A091C103B091C2030196A11DB11D809392
:102D1000BF039093C003A093C103B093C203BF91BC
:102D2000AF919F918F913F912F910F900FBE0F9078
:102D30001F9018952FB7F8946091BB037091BC0356
:102D40008091BD039091BE032FBF08953FB7F894C3
:102D50008091BF039091C003A091C103B091C203C1
:102D600026B5A89B05C02F3F19F00196A11DB11DE6
:102D70003FBF6627782F892F9A2F620F711D811D03
:102D8000911D42E0660F771F881F991F4A95D1F762
:102D90000895CF92DF92EF92FF92CF93DF936B0172
:102DA0007C010E94A616EB01C114D104E104F104D8
:102DB00089F00E945B1E0E94A6166C1B7D0B683E6C
:102DC000734090F381E0C81AD108E108F108C851B6
:102DD000DC4FEACFDF91CF91FF90EF90DF90CF9063
:102DE0000895789484B5826084BD84B5816084BD83
:102DF00085B5826085BD85B5816085BDEEE6F0E074
:102E0000808181608083E1E8F0E0108280818260CF
:102E10008083808181608083E0E8F0E08081816050
:102E20008083E1EBF0E0808184608083E0EBF0E080
:102E3000808181608083E1E9F0E08081826080832D
:102E4000808181608083E0E9F0E08081816080831F
:102E5000E1EAF0E08081826080838081816080830C
:102E6000E0EAF0E0808181608083E1E2F1E080814E
:102E700082608083808181608083E0E2F1E08081F4
:102E800081608083EAE7F0E08081846080838081D4
:102E9000826080838081816080838081806880837C
:102EA0001092C10008951F93CF93DF93182FEB0169
:102EB00061E00E946D18209711F460E004C0CF3FDC
:102EC000D10539F461E0812FDF91CF911F910C94EE
:102ED000A618E12FF0E0E65EFD4F449150E0FA01C4
:102EE0003197E231F10508F09BC0E758FF4F0C9491
:102EF000E82084B5806884BDC7BD97C084B5806272
:102F000084BDC8BD92C0809180008068809380009D
:102F1000D0938900C093880088C08091800080622F
:102F200080938000D0938B00C0938A007EC08091F4
:102F30008000886080938000D0938D00C0938C00C7
:102F400074C08091B00080688093B000C093B300DB
:102F50006CC08091B00080628093B000C093B400D8
:102F600064C080919000806880939000D093990015
:102F7000C09398005AC08091900080628093900026
:102F8000D0939B00C0939A0050C0809190008860BD
:102F900080939000D0939D00C0939C0046C0809188
:102FA000A00080688093A0008091A0008F7B809318
:102FB000A000D093A900C093A80037C08091A000C2
:102FC00080628093A000D093AB00C093AA002DC074
:102FD0008091A00088608093A000D093AD00C09342
:102FE000AC0023C080912001806880932001D093A1
:102FF0002901C093280119C080912001806280932B
:103000002001D0932B01C0932A010FC08091200191
:10301000886080932001D0932D01C0932C0105C0BE
:10302000C038D1050CF04ECF48CFDF91CF911F9122
:10303000089590E0FC013197E231F10508F04CC0B1
:10304000E557FF4F0C94E820809180008F7703C0F4
:10305000809180008F7D8093800008958091800012
:10306000877FF9CF84B58F7702C084B58F7D84BD0B
:1030700008958091B0008F7703C08091B0008F7D5C
:103080008093B0000895809190008F7707C0809161
:1030900090008F7D03C080919000877F8093900087
:1030A00008958091A0008F7707C08091A0008F7D48
:1030B00003C08091A000877F8093A0000895809135
:1030C00020018F7707C0809120018F7D03C0809100
:1030D0002001877F809320010895CF93DF9390E0B4
:1030E000FC01E05AFD4F2491FC01EA55FD4F84910B
:1030F000882349F190E0880F991FFC01E05EFC4FA6
:10310000A591B4918A5F9C4FFC01C591D4919FB762
:10311000611108C0F8948C91209582238C9388814A
:1031200082230AC0623051F4F8948C91322F30958A
:1031300083238C938881822B888304C0F8948C919C
:10314000822B8C939FBFDF91CF9108950F931F9394
:10315000CF93DF931F92CDB7DEB7282F30E0F90170
:10316000E65EFD4F8491F901E05AFD4F1491F9019B
:10317000EA55FD4F04910023C9F0882321F06983AB
:103180000E9419186981E02FF0E0EE0FFF1FEA5F3F
:10319000FC4FA591B4919FB7F8948C91611103C035
:1031A0001095812301C0812B8C939FBF0F90DF91DD
:1031B000CF911F910F910895CF93DF93282F30E087
:1031C000F901E65EFD4F8491F901E05AFD4FD4917B
:1031D000F901EA55FD4FC491CC2391F081110E9471
:1031E0001918EC2FF0E0EE0FFF1FE451FD4FA591F1
:1031F000B4912C912D2381E090E021F480E002C075
:1032000080E090E0DF91CF910895CF92DF92EF922E
:10321000FF920F931F93CF93DF9390E0FC01E05A4E
:10322000FD4FD491FC01EA55FD4F7491611102C02C
:10323000C0E001C0CD2FDA01C901BF70672F70E077
:10324000660F771F64517D4F00E010E09801FB018D
:10325000E590F490F70140814D234C131EC06801A6
:1032600079014FEFC41AD40AE40AF40A08171907BF
:103270002A073B0709F442C097018601E8CF68019D
:103280007901FFEFCF1ADF0AEF0AFF0A08171907C3
:103290002A073B0799F197018601FB01E590F4901D
:1032A000F70140814D234C13EACF801B910BA20BF9
:1032B000B30B20E030E0A901FB01E590F490F701A9
:1032C000F080FD22FC120AC0281739074A075B0765
:1032D000A9F02F5F3F4F4F4F5F4FEECFA8E1B0E017
:1032E0000E94EE20605F7F4F8F4F9F4F24E09695A6
:1032F0008795779567952A95D1F703C060E070E0D0
:10330000CB01DF91CF911F910F91FF90EF90DF9054
:10331000CF900895FC01818D228D90E0805C9F4FBD
:10332000821B91098F7399270895FC01918D828DDD
:10333000981731F0828DE80FF11D858D90E008958A
:103340008FEF9FEF0895FC01918D828D981761F0AA
:10335000828DDF01A80FB11D5D968C91928D9F5FCC
:103360009F73928F90E008958FEF9FEF08958EE501
:103370009BE1892B41F080E090E0892B21F00E94B5
:103380005E1B811125C080E090E0892B41F080E038
:1033900090E0892B21F00E94000081111CC080E088
:1033A00090E0892B41F080E090E0892B21F00E9491
:1033B0000000811113C080E090E0892BA1F080E033
:1033C00090E0892B81F00E94000081110AC00895CD
:1033D0000E940000D8CF0E940000E1CF0E940000B0
:1033E000EACF0C9400000895FC01848DDF01A80F42
:1033F000B11DA35ABF4F2C91848D90E001968F731D
:103400009927848FA689B7892C93A089B1898C913B
:1034100080648C93938D848D981306C00288F38901
:10342000E02D80818F7D80830895CF93DF93EC0121
:10343000888D8823C9F0EA89FB89808185FD05C0D4
:10344000A889B9898C9186FD0FC00FB607FCF5CF0E
:10345000808185FFF2CFA889B9898C9185FFEDCF56
:10346000CE010E94F419E7CFDF91CF910895CF925A
:10347000DF92FF920F931F93CF93DF931F92CDB7ED
:10348000DEB76C01DC015B969C915B975C968C913E
:103490005C97981307C05096ED91FC9151978081ED
:1034A00085FD32C0F601038D10E00F5F1F4F0F73D3
:1034B0001127F02EF601848DF81211C00FB607FC0B
:1034C000F9CFD6015096ED91FC915197808185FFFF
:1034D000F1CFC60169830E94F4196981EBCF838D16
:1034E000E80FF11DE35AFF4F6083D6015B960C9302
:1034F0005B975296ED91FC91539780818062808317
:1035000081E058968C930DC0D6015696ED91FC91B2
:10351000579760835096ED91FC915197808180641C
:10352000808381E090E00F90DF91CF911F910F9108
:10353000FF90DF90CF900895BF92CF92DF92EF92ED
:10354000FF92CF93DF93EC016A017B01B22EE889F1
:10355000F98982E08083411581EE58076105710584
:10356000A1F060E079E08DE390E0A70196010E9470
:10357000A7202150310941095109569547953795A2
:103580002795211580E1380798F0E889F98910829C
:1035900060E874E88EE190E0A70196010E94A72000
:1035A000215031094109510956954795379527957D
:1035B000EC85FD853083EE85FF852083188EEC89B0
:1035C000FD89B082EA89FB89808180618083EA89F4
:1035D000FB89808188608083EA89FB89808180689B
:1035E0008083EA89FB8980818F7D8083DF91CF9101
:1035F000FF90EF90DF90CF90BF9008951F920F92B1
:103600000FB60F9211240BB60F922F938F939F93A7
:10361000EF93FF93E091D303F091D4038081E09185
:10362000D903F091DA0382FD12C090818091DC030E
:103630008F5F8F732091DD03821751F0E091DC03DF
:10364000F0E0ED53FC4F958F8093DC0301C0808147
:10365000FF91EF919F918F912F910F900BBE0F9043
:103660000FBE0F901F9018951F920F920FB60F92DA
:1036700011240BB60F922F933F934F935F936F9349
:103680007F938F939F93AF93BF93EF93FF9383ECBD
:1036900093E00E94F419FF91EF91BF91AF919F9138
:1036A0008F917F916F915F914F913F912F910F90EB
:1036B0000BBE0F900FBE0F901F90189583EC93E0F8
:1036C0000E948A1921E0892B09F420E0822F0895B5
:1036D0001092C6031092C50388EE93E0A0E0B0E01C
:1036E0008093C7039093C803A093C903B093CA0300
:1036F0008EE792E09093C4038093C30385EC90E03F
:103700009093D0038093CF0384EC90E09093D20306
:103710008093D10380EC90E09093D4038093D30303
:1037200081EC90E09093D6038093D50382EC90E0F7
:103730009093D8038093D70386EC90E09093DA03BC
:103740008093D9031092DC031092DD031092DE0304
:103750001092DF03089508950E94F1160E94AB1B9A
:103760000E946002C7EBD9E10E9480022097E1F33A
:103770000E94B719F9CFCF92DF92EF92FF920F9389
:103780001F93CF93DF936C017A01EB01E60EF71ED6
:1037900000E010E0CE15DF0561F06991D601ED91F2
:1037A000FC910190F081E02DC6011995080F191FB9
:1037B000F1CFC801DF91CF911F910F91FF90EF9052
:1037C000DF90CF9008956115710581F0DB010D90B8
:1037D0000020E9F7AD0141505109461B570BDC01B0
:1037E000ED91FC910280F381E02D199480E090E04E
:1037F0000895DC01ED91FC91DB0114964D915C91F3
:1038000015976D917C910280F381E02D19940C94B1
:10381000E31BDC01ED91FC910190F081E02D199406
:103820000F931F93CF93DF93EC016DE00E94091C6F
:103830008C016AE0CE010E94091C800F911FDF916C
:10384000CF911F910F9108950F931F93CF93DF9303
:10385000EC010E94F91B8C01CE010E94101C800F0C
:10386000911FDF91CF911F910F9108954F925F9219
:103870006F927F92AF92BF92CF92DF92EF92FF92C0
:103880000F931F93CF93DF93CDB7DEB729013A0192
:10389000621B730B840B950B2A893B894C895D89CC
:1038A0002A193B094C095D092A8B3B8B4C8B5D8B9C
:1038B0009B01AC016A897B898C899D890E94772054
:1038C000E418F50806091709A80197010E94C92004
:1038D0002A0D3B1D4C1D5D1DCA01B901DF91CF9121
:1038E0001F910F91FF90EF90DF90CF90BF90AF901E
:1038F0007F906F905F904F900895FC01808191813F
:103900000C94D921CF93DF93EC01888199810097A2
:1039100011F00E94D921198218821D821C821B82FB
:103920001A82DF91CF9108950F931F93CF93DF9366
:10393000EC018B016F5F7F4F888199810E94682223
:10394000009731F0998388831B830A8381E001C04B
:1039500080E0DF91CF911F910F910895CF93DF9376
:10396000EC0188819981892B29F08A819B818617B6
:10397000970760F4CE010E94941C882341F08C814B
:103980009D81892B19F4E881F981108281E0DF9112
:10399000CF910895EF92FF920F931F93CF93DF93F0
:1039A000EC017B018A01BA010E94AE1C811104C0A6
:1039B000CE010E94821C07C01D830C83B701888141
:1039C00099810E948123CE01DF91CF911F910F91A8
:1039D000FF90EF900895FC011182108213821282F1
:1039E000158214826115710559F0FB0101900020C8
:1039F000E9F7AF0141505109461B570B0C94CA1C03
:103A00000895CF93DF93EC01FB018617970761F0D0
:103A1000608171816115710529F0448155810E9491
:103A2000CA1C02C00E94821CCE01DF91CF91089572
:103A3000CF93DF93EC016115710561F0FB010190FB
:103A40000020E9F7AF0141505109461B570B0E9476
:103A5000CA1C02C00E94821CCE01DF91CF91089542
:103A60000F931F93CF93DF93CDB7DEB762970FB657
:103A7000F894DEBF0FBECDBF8C01CB01F8011182DF
:103A80001082138212821582148250E0BE016F5F91
:103A90007F4F0E948823BE016F5F7F4FC8010E9445
:103AA000181D62960FB6F894DEBF0FBECDBFDF9132
:103AB000CF911F910F910895EF92FF920F931F9353
:103AC000CF93DF93CDB7DEB7A1970FB6F894DEBFE3
:103AD0000FBECDBF7C01CB01BA01F701118210826C
:103AE000138212821582148242E0420F8E010F5F10
:103AF0001F4F0E942021BC01C7010E94181DA196E2
:103B00000FB6F894DEBF0FBECDBFDF91CF911F91EE
:103B10000F91FF90EF900895EF92FF920F931F93F4
:103B2000CF93DF93EC017B010C811D816115710541
:103B300011F480E016C04115510591F0040F151FD6
:103B4000B8010E94AE1C8823A1F3288139818C81A1
:103B50009D81B701820F931F0E9481231D830C83D7
:103B600081E0DF91CF911F910F91FF90EF90089529
:103B7000CF93DF931F921F92CDB7DEB769831A826E
:103B800041E050E0BE016F5F7F4F0E948C1D0F909F
:103B90000F90DF91CF910895CF93DF93EC01FB015C
:103BA00044815581608171810E948C1D811103C007
:103BB000CE010E94821CCE01DF91CF910895CF9358
:103BC000DF93EC016115710569F0FB0101900020A4
:103BD000E9F7AF0141505109461B570B0E948C1D5C
:103BE000811103C0CE010E94821CCE01DF91CF91D2
:103BF0000895FC01848195816817790720F48081FC
:103C00009181009729F41092600480E694E0089571
:103C1000860F971F0895BF92CF92DF92EF92FF9287
:103C20000F931F93CF93DF936C017B01EA0189010E
:103C30002417350720F48D2FE901042F182F60E693
:103C400072E0C6010E94EB1CD70114968D919C91E5
:103C50001597C817D907C8F48017910708F48C0185
:103C6000D701ED91FC911197E00FF11FB080108208
:103C70006D917C916C0F7D1FC6010E94181DD701AC
:103C8000ED91FC91E00FF11FB082C601DF91CF9161
:103C90001F910F91FF90EF90DF90CF90BF9008950C
:103CA000FC0180819181009711F00C94512360E018
:103CB00070E0CB01089508955058BB27AA270ED075
:103CC00075C166D130F06BD120F031F49F3F11F413
:103CD0001EF45BC10EF4E095E7FB51C1E92F77D1EB
:103CE00080F3BA17620773078407950718F071F419
:103CF0009EF58FC10EF4E0950B2EBA2FA02D0B016F
:103D0000B90190010C01CA01A0011124FF27591B20
:103D100099F0593F50F4503E68F11A16F040A22F26
:103D2000232F342F4427585FF3CF46953795279597
:103D3000A795F0405395C9F77EF41F16BA0B620B96
:103D4000730B840BBAF09150A1F0FF0FBB1F661FDD
:103D5000771F881FC2F70EC0BA0F621F731F841F20
:103D600048F4879577956795B795F7959E3F08F046
:103D7000B3CF9395880F08F09927EE0F9795879505
:103D80000895D9D008F481E008950CD00FC107D16F
:103D900040F0FED030F021F45F3F19F0F0C0511137
:103DA00039C1F3C014D198F39923C9F35523B1F362
:103DB000951B550BBB27AA2762177307840738F09A
:103DC0009F5F5F4F220F331F441FAA1FA9F333D0F9
:103DD0000E2E3AF0E0E830D091505040E695001CAD
:103DE000CAF729D0FE2F27D0660F771F881FBB1F69
:103DF000261737074807AB07B0E809F0BB0B802D43
:103E0000BF01FF2793585F4F2AF09E3F510568F08E
:103E1000B6C000C15F3FECF3983EDCF38695779522
:103E20006795B795F7959F5FC9F7880F911D969590
:103E3000879597F90895E1E0660F771F881FBB1FEC
:103E4000621773078407BA0720F0621B730B840B99
:103E5000BA0BEE1F88F7E095089504D06894B1116D
:103E6000D9C00895BCD088F09F5790F0B92F9927FA
:103E7000B751A0F0D1F0660F771F881F991F1AF075
:103E8000BA95C9F712C0B13081F0C3D0B1E008953E
:103E9000C0C0672F782F8827B85F39F0B93FCCF3BF
:103EA000869577956795B395D9F73EF4909580956B
:103EB000709561957F4F8F4F9F4F0895E89409C08B
:103EC00097FB3EF490958095709561957F4F8F4F4D
:103ED0009F4F9923A9F0F92F96E9BB279395F69563
:103EE000879577956795B795F111F8CFFAF4BB0FE1
:103EF00011F460FF1BC06F5F7F4F8F4F9F4F16C045
:103F0000882311F096E911C0772321F09EE8872FCE
:103F1000762F05C0662371F096E8862F70E060E08A
:103F20002AF09A95660F771F881FDAF7880F969503
:103F3000879597F90895990F0008550FAA0BE0E8A7
:103F4000FEEF16161706E807F907C0F0121613065B
:103F5000E407F50798F0621B730B840B950B39F49B
:103F60000A2661F0232B242B252B21F408950A2601
:103F700009F4A140A6958FEF811D811D089597F941
:103F80009F6780E870E060E008959FEF80EC0895FF
:103F900000240A9416161706180609060895002428
:103FA0000A9412161306140605060895092E0394A2
:103FB000000C11F4882352F0BB0F40F4BF2B11F416
:103FC00060FF04C06F5F7F4F8F4F9F4F089557FD75
:103FD0009058440F551F59F05F3F71F04795880F77
:103FE00097FB991F61F09F3F79F08795089512160E
:103FF00013061406551FF2CF4695F1DF08C01616BA
:1040000017061806991FF1CF86957105610508946A
:104010000895E894BB2766277727CB0197F9089581
:104020008ADF08F48FEF08950BD0C0CFB1DF28F0FE
:10403000B6DF18F0952309F0A2CFA7CF1124EACF5D
:10404000C6DFA0F3959FD1F3950F50E0551F629FF7
:10405000F001729FBB27F00DB11D639FAA27F00DE1
:10406000B11DAA1F649F6627B00DA11D661F829F08
:104070002227B00DA11D621F739FB00DA11D621FED
:10408000839FA00D611D221F749F3327A00D611D0A
:10409000231F849F600D211D822F762F6A2F1124EC
:1040A0009F5750408AF0E1F088234AF0EE0FFF1F3F
:1040B000BB1F661F771F881F91505040A9F79E3F76
:1040C000510570F05CCFA6CF5F3FECF3983EDCF378
:1040D000869577956795B795F795E7959F5FC1F7B3
:1040E000FE2B880F911D9695879597F90895DB0112
:1040F0008F939F930E94EE20BF91AF91A29F800D5E
:10410000911DA39F900DB29F900D11240895991BAE
:1041100079E004C0991F961708F0961B881F7A95BE
:10412000C9F78095089597FB072E16F4009407D0E1
:1041300077FD09D00E94FD2007FC05D03EF4909544
:1041400081959F4F0895709561957F4F0895A1E2E5
:104150001A2EAA1BBB1BFD010DC0AA1FBB1FEE1F01
:10416000FF1FA217B307E407F50720F0A21BB30B4C
:10417000E40BF50B661F771F881F991F1A9469F7C8
:1041800060957095809590959B01AC01BD01CF0124
:104190000895052E97FB1EF400940E94E02057FD21
:1041A00007D00E94A72007FC03D04EF40C94E02017
:1041B00050954095309521953F4F4F4F5F4F089553
:1041C00090958095709561957F4F8F4F9F4F089583
:1041D000EE0FFF1F0590F491E02D19940E9411211C
:1041E000A59F900DB49F900DA49F800D911D11244B
:1041F00008950790F691E02D1994AA1BBB1B51E17D
:1042000007C0AA1FBB1FA617B70710F0A61BB70B46
:10421000881F991F5A95A9F780959095BC01CD01EB
:104220000895A29FB001B39FC001A39F700D811D8F
:104230001124911DB29F700D811D1124911D0895AF
:10424000EF920F931F93CF93DF93E80147FF02C0D4
:1042500034E101C034E0E42FFF27E7FDF095F7FFDC
:1042600003C0F195E195F109E32E022F2E2FAE0147
:104270000E94CD23CE01DF91CF911F910F91EF903E
:104280000895CF93DF938230910510F482E090E09F
:10429000E0916304F091640420E030E0A0E0B0E03D
:1042A000309739F14081518148175907B8F04817C4
:1042B000590771F482819381109729F013969C938A
:1042C0008E9312972CC0909364048093630427C04C
:1042D0002115310531F04217530718F0A901DB0110
:1042E00001C0EF019A01BD01DF010280F381E02DE1
:1042F000D7CF21153105F9F0281B390B24303105B2
:1043000080F48A819B816115710521F0FB01938303
:10431000828304C09093640480936304FE01329608
:1043200044C0FE01E20FF31F8193919322503109A3
:10433000398328833AC02091610430916204232B91
:1043400041F42091020230910302309362042093E1
:10435000610420910002309101022115310541F4E0
:104360002DB73EB74091040250910502241B350B36
:10437000E0916104F0916204E217F307A0F42E1BB0
:104380003F0B2817390778F0AC014E5F5F4F2417B9
:10439000350748F04E0F5F1F50936204409361044D
:1043A0008193919302C0E0E0F0E0CF01DF91CF91E3
:1043B0000895CF93DF93009709F487C0FC013297EB
:1043C00013821282C0916304D0916404209781F417
:1043D00020813181280F391F8091610490916204FE
:1043E0008217930779F5F0936204E09361046DC03E
:1043F000DE0120E030E0AE17BF0750F412964D9179
:104400005C9113979D014115510509F1DA01F3CF34
:10441000B383A28340815181840F951F8A179B0724
:1044200071F48D919C911197840F951F0296918341
:10443000808312968D919C9113979383828321158B
:10444000310529F4F0936404E09363043EC0D9017C
:104450001396FC93EE9312974D915D91A40FB51FA7
:10446000EA17FB0779F480819181840F951F0296EA
:10447000D90111969C938E938281938113969C937C
:104480008E931297E0E0F0E08A819B81009719F00B
:10449000FE01EC01F9CFCE01029628813981820F0D
:1044A000931F20916104309162042817390769F441
:1044B000309729F4109264041092630402C01382AE
:1044C0001282D0936204C0936104DF91CF9108956A
:1044D0006F927F928F929F92AF92BF92CF92DF9214
:1044E000EF92FF920F931F93CF93DF93EC01CB01D9
:1044F000209781F4DF91CF911F910F91FF90EF9062
:10450000DF90CF90BF90AF909F908F907F906F90F3
:104510000C944121FE01E60FF71F9E012250310944
:10452000E217F30708F4ACC0D9010D911C91119763
:1045300006171707B8F00530110508F49FC0A80149
:10454000445051094617570708F498C00250110902
:10455000061B170B019311936D937C93CF010E945F
:10456000D9218CC05B01A01AB10A4E01800E911EA8
:10457000A0916304B0916404612C712C60E070E040
:10458000109709F449C0A815B905C9F5ED90FC903C
:104590001197670142E0C40ED11CCA14DB0478F104
:1045A00047018A189B08640142E0C40ED11C129690
:1045B000BC9012971396AC91B5E0CB16D10440F0A5
:1045C000B282A38391828082D9018D939C9309C08A
:1045D0000E5F1F4F0E0D1F1DF90111830083EB2D80
:1045E000FA2F6115710531F0DB011396FC93EE9300
:1045F000129744C0F0936404E09363043FC06D914C
:104600007C9111976616770608F43B01BD0112965E
:104610000D90BC91A02DB4CF6091610470916204A3
:1046200068157905E9F468167906D0F4409100021E
:10463000509101024115510541F44DB75EB76091AB
:10464000040270910502461B570BE417F507C0F4EE
:10465000F0936204E0936104F901918380830EC0BA
:104660000E9441217C01009759F0A801BE010E94DF
:104670007823CE010E94D921C70104C0CE0102C017
:1046800080E090E0DF91CF911F910F91FF90EF902C
:10469000DF90CF90BF90AF909F908F907F906F9062
:1046A00008951F93FC0199278827BC01E894119174
:1046B0001032E9F3193010F01E30C8F31B3251F0FC
:1046C0001D3249F4689406C00E949E23610F711D3B
:1046D000811D911D119110531A30B0F33EF4909545
:1046E0008095709561957F4F8F4F9F4F1F910895D3
:1046F000FB01DC0102C001900D9241505040D8F7FF
:104700000895FB01DC0101900D920020E1F708956E
:104710004532510520F4423010F00C949323FB01F4
:104720001082CB010895BB274A3031F4992322F43B
:10473000BDE2909581959F4F0C94B423592F482F3B
:10474000372F262F660F771F881F991F660F771F39
:10475000881F991F620F731F841F951F660F771F95
:10476000881F991F0895BB27FB015527AA27880F8B
:10477000991FAA1FA41710F0A41B83955051B9F7D5
:10478000A05DAA3308F0A95DA193009779F7B11154
:10479000B1931192CB010C9423266F927F929F923A
:1047A000AF92BF92CF92DF92EF92FF920F931F933F
:1047B000CF93DF93CDB7DEB729970FB6F894DEBF5E
:1047C0000FBECDBF6A01B22E102F0C3320F4FF2490
:1047D000F394F00E02C04CE3F42E0F2D27E0AE014F
:1047E0004F5F5F4F0E944B257981272F2970213021
:1047F00031F0E1FC06C0E0FC06C060E005C06DE2FF
:1048000003C06BE201C060E2AE2DA07173FF36C041
:10481000662311F084E001C083E08B1510F4B81A10
:1048200001C0B12CA1110BC0F6018B2D90E28823A1
:1048300019F091938150FBCFCB0CD11CB12C662386
:1048400031F0F601608396012F5F3F4F6901C60189
:104850000396E2FE05C02EE4F601208331E404C095
:104860002EE6F601208331E631832283FC012B2DD5
:1048700030E22223F1F131932150FBCF72FF40C08F
:10488000662311F084E001C083E08B1510F4B81AA0
:1048900001C0B12CA1110BC0F6018B2D90E2882331
:1048A00019F091938150FBCFCB0CD11CB12C662316
:1048B00031F0F601608396012F5F3F4F6901C60119
:1048C0000396E2FE07C029E4F60120832EE421834B
:1048D00026E406C029E6F60120832EE6218326E69B
:1048E0002283FC012B2D30E2222319F03193215039
:1048F000FBCFFC01EB0DF11D10828EEF9FEFB7C0D7
:10490000B1E0611101C0B0E04B2F50E0181619065C
:1049100024F49C012F5F3F4F02C021E030E0240FC0
:10492000351F112329F0412F50E04F5F5F4F02C028
:1049300040E050E0420F531F2B2D30E04217530749
:1049400014F4B41A01C0B12C2E2D287159F4F601BB
:104950002B2D30E2222319F031932150FBCFCB0CC9
:10496000D11CB12CBB2331F0F601608396012F5F7F
:104970003F4F6901A1110BC0F6012B2D30E322231B
:1049800019F031932150FBCFCB0CD11CB12CF80E78
:104990000A81372F3071A32E74FF03C0013309F44D
:1049A000FA941F142CF42F2D293018F028E001C0A0
:1049B00021E0682F392F97FF02C060E030E0462FDA
:1049C000532F612C712C3EE2932EBC01621B7109A6
:1049D0009B01DC01A41BB50BE1E0F0E0EC0FFD1F37
:1049E000AE0FBF1FE12EF12CF194E194F1084F3F7F
:1049F000FFEF5F0731F4F6019082B6016F5F7F4FE2
:104A00006B01841795074CF02417350734F4BD016A
:104A1000660D771DFB01118101C010E34150510962
:104A2000FFEF6F1A7F0AB6016F5F7F4F4E155F056C
:104A300024F0F60110836B01DACF4817590739F4D7
:104A4000063320F4053319F4A11001C011E3F60177
:104A50001083FB018B2D90E2882319F091938150F4
:104A6000FBCFFB01EB0DF11D108280E090E0299659
:104A70000FB6F894DEBF0FBECDBFDF91CF911F916F
:104A80000F91FF90EF90DF90CF90BF90AF909F90ED
:104A90007F906F900895283008F027E03327DA01DF
:104AA000990F311D87FD916000966105710539F4FC
:104AB00032602E5F3D9330E32A95E1F708959F3FE2
:104AC00030F080387105610509F03C5F3C5F3D9333
:104AD000913008F08068911DDF93CF931F930F935F
:104AE000FF92EF92192F987F9695E92F96959695BC
:104AF000E90FFF27EC56FC4F99273327EE24FF24BC
:104B0000A701E70105900894079428F4360FE71EE3
:104B1000F81E491F511D660F771F881F991F0694A5
:104B2000A1F70590079428F4E70EF81E491F561FB9
:104B3000C11D770F881F991F661F0694A1F7059066
:104B4000079428F4F80E491F561FC71FD11D880F60
:104B5000991F661F771F0694A1F70590079420F40C
:104B6000490F561FC71FD81F990F661F771F881F31
:104B70000694A9F784911095177041F0D695C795C2
:104B800057954795F794E7941A95C1F7EAE3F3E050
:104B900068941590159135916591959105907FE2F6
:104BA0007395E118F10A430B560BC90BD009C0F7F6
:104BB000E10CF11E431F561FC91FD01D7EF4703338
:104BC00011F48A95E6CFE894015030F0080F0AF40A
:104BD0000027021708F4202F2395022F7A3328F09C
:104BE00079E37D932A95E9F710C07D932A9589F69C
:104BF000069497956795379517951794E118F10ADC
:104C0000430B560BC90BD00998F023957E917395F1
:104C10007A3308F070E37C932013B8F77E917061CB
:104C20007D9330F0839571E37D9370E32A95E1F7EE
:104C30001124EF90FF900F911F91CF91DF91992751
:104C400087FD90950895DC01FC01672F7191772312
:104C5000E1F7329704C07C916D9370836291AE1737
:104C6000BF07C8F3089514E0C8E3D4E000E006C02D
:104C700022970109FE010BBF0E94F920CA33D10718
:0A4C800080E00807A9F7F894FFCFC1
:104C8A0000006504800001000000444F3A200054EF
:104C9A004F3A2000464C3A200046523A200024441B
:104CAA00464C443A0024444652443A002444424C76
:104CBA00443A0024444252443A002444464C533A6B
:104CCA00200024444652533A2000244470776D4C05
:104CDA003A2000244470776D523A20002444500A46
:104CEA0000245250002452503000245250303000D8
:104CFA002453500A002449500A0000000000371AC1
:0A4D0A00BB1B8A19A3199519151A8D
:00000001FF
