:1000000004C100000C94C60A0C94F70A0C94280B47
:100010000C94590B0C948A0B0C94BB0B0C94EC0BAA
:100020000C941D0C1FC100001DC100001BC100006D
:1000300019C1000017C1000015C1000013C1000064
:1000400011C100000C941D0A0DC100000BC100007D
:1000500009C1000007C1000005C100000C944E0C4E
:1000600001C100000C94E00F0C943411FBC000009F
:10007000F9C00000F7C00000F5C00000F3C00000A8
:100080000C94F009EFC00000EDC00000EBC00000D0
:100090000C9420100C947311E5C00000E3C0000024
:1000A000E1C00000DFC000000C94C309DBC0000009
:1000B000D9C00000D7C00000D5C000000C9496093C
:1000C000D1C00000CFC00000CDC000000C94601073
:1000D0000C94B211C7C000000C94A0100C94F11144
:1000E000C1C0000000002100240027002A002D00CC
:1000F0003000330001010000040107010A01000083
:100100002200250028002B002E00310034000201BF
:100110000000050108010B0100002000230026005B
:1001200029002C002F00320000010000030106010D
:10013000090105050505070508080808020202026D
:100140000A0A080804040404010101010101010173
:100150000303030303030303040707070C0C0C0C3E
:100160000C0C0C0C02020202060606060606060627
:100170000B0B0B0B0B0B0B0B0102102020080810B4
:100180002040102040800201020108040201010207
:1001900004081020408080402010080402018004E0
:1001A000020180402010080402010804020101023B
:1001B0000408102040800102040810204080000044
:1001C000090A02080B0C0D070603040100000000D9
:1001D000000000000000000000000000000000001F
:1001E0000000000000000000000011100F000000DF
:1001F00000000000000000000000000000000000FF
:1002000000000000EC016313E70111241FBECFEFD3
:10021000D1E2DEBFCDBF00E00CBF12E0A0E0B2E053
:10022000E2E9F7E300E00BBF02C007900D92A833AC
:10023000B107D9F71BBE16E0A8E3B2E001C01D92DA
:10024000A430B107E1F712E0C8E0D2E004C0229781
:10025000FE010E94B91BC430D107C9F70E949A144D
:100260000C94BD1BCDCE1F93FC0199278827BC01A0
:10027000E89411911032E9F3193010F01E30C8F3F0
:100280001B3249F01D3241F4689405C042D0610F21
:10029000711D811D911D119110531A30B8F33EF458
:1002A00090958095709561957F4F8F4F9F4F1F91CF
:1002B0000895FB01DC0102C001900D9241505040B5
:1002C000D8F70895FB01DC0101900D920020E1F7C1
:1002D0000895FB019F01E8944230C4F04532B4F424
:1002E0004A3029F497FB1EF4909581959F4F642F17
:1002F00077270E94A31B805D8A330CF0895D819370
:10030000CB010097A1F716F45DE251931082C90169
:1003100015C0592F482F372F262F660F771F881F9C
:10032000991F660F771F881F991F620F731F841F05
:10033000951F660F771F881F991F0895DC01FC0128
:10034000672F71917723E1F7329704C07C916D9309
:1003500070836291AE17BF07C8F3089588E392E0F7
:1003600040C088E392E03FC088E392E0D6C388E3D0
:1003700092E02ED482E061EB71E043E050E00E9415
:100380004A0A83E06EEA71E043E050E00C944A0AC6
:100390008130910591F46F5F7F4FC1F488E392E063
:1003A000BFD48CE892E091D58FE892E08ED582E9B7
:1003B00092E060E072E00C941C17892B39F46F5FB7
:1003C0007F4F21F482E992E00C94EC17089580E0CD
:1003D00090E06FEF7FEFDCCF81E090E06FEF7FEF99
:1003E000D7CF4E961DC544961BC50F931F93CF9331
:1003F000DF938B0164EF71E080E090E00E94960C47
:10040000C0E0D0E01FC08DE060E00E94E20E6AEF25
:1004100070E080E090E00E94960C8DE061E00E9428
:10042000E20E6AEF70E080E090E00E94960C8DE0B2
:1004300060E00E94E20E6AEF70E080E090E00E94CF
:10044000960C2196C017D107F4F2DF91CF911F913E
:100450000F9108958F929F92AF92BF92CF92DF92A9
:10046000EF92FF920F931F93DF93CF93CDB7DEB739
:100470002C970FB6F894DEBF0FBECDBF4C018AE5B6
:10048000C82ED12CC80CD91C7E010894E11CF11C8B
:10049000C701B60143E050E024E030E00E9492172B
:1004A000C7010E943A165B018E01095F1F4FC80108
:1004B000B60145E050E026E030E00E949217C70107
:1004C000B8010E94D717C8010E94EC17C7010E940B
:1004D0003A167B018C01C60162E070E00E9425168D
:1004E000FC0180818B3221F48AE590E0A80EB91ED0
:1004F000C4018C5A9F4FB5013ED56FE070E080E09B
:1005000090E00E94960CC401895A9F4FB70133D5E1
:100510006FE070E080E090E00E94960C87E795E045
:1005200061E072E00E94DC1587E795E00E941313FA
:10053000CE0101960E94EC172C960FB6F894DEBF00
:100540000FBECDBFCF91DF911F910F91FF90EF9024
:10055000DF90CF90BF90AF909F908F9008950F93B2
:100560001F9363E070E041DF07E715E0C80166E034
:1005700072E00E94DC15C8010E9413131F910F91B5
:100580000895AF92BF92CF92DF92EF92FF920F93B6
:100590001F93DF93CF93CDB7DEB76E970FB6F89466
:1005A000DEBF0FBECDBF7C01CE01019660E072E0E0
:1005B0000E941C1783EA92E05FD45C0196E6C92E84
:1005C000D12CCE0CDF1CF60180818823F9F083EA60
:1005D00092E052D48C0183EA92E04ED424E630E0DB
:1005E000E20EF31E080F191FC8018A0D9B1D63E060
:1005F00070E00E94531B64517040F7017183608367
:100600002CE93FEFE20EF31EF601108224E630E003
:10061000E20EF31EF701808191812CE93FEFE20E9B
:10062000F31E8A199B09F701EE59FF4F91838083CE
:1006300097FF02C0118210828E01095F1F4F82E670
:1006400090E0E80EF91EF70160817181C8014AE06F
:100650000E9463177E010894E11CF11CC701B801D8
:100660000E94D717C8010E94EC178D819E818330AC
:10067000910539F48E01035F1F4FC8016BE072E0F2
:100680000FC0029739F48E010D5E1F4FC80161E162
:1006900072E006C08E01075E1F4FC80166E172E07E
:1006A0000E943417C801B7010E94E9166FE072E09A
:1006B0000E94CF16BC0187E795E00E94D214C801C2
:1006C0000E94F01787E795E00E941313CE01019670
:1006D0000E94EC176E960FB6F894DEBF0FBECDBF2A
:1006E000CF91DF911F910F91FF90EF90DF90CF900E
:1006F000BF90AF9008952F923F924F925F926F926A
:100700007F928F929F92AF92BF92CF92DF92EF92A1
:10071000FF920F931F93DF93CF93CDB7DEB7689708
:100720000FB6F894DEBF0FBECDBF7C015E0108940A
:10073000A11CB11CC50160E072E00E941C177AE5A3
:10074000C72ED12CCE0CDF1CC60162E070E00E94E7
:100750002516FC01E081EC3439F0E23509F481C062
:10076000E23409F0FBC092C169E4662E712C6E0C74
:100770007F1CC30161E070E0FAD25EE3852E912C0C
:100780008E0C9F1CC40161E070E0F1D28E01095F04
:100790001F4FC801B60143E050E025E030E00E9461
:1007A0009217C501B8010E94D717C8010E94EC1723
:1007B000C5010E943A16870107591F4F28EE33E002
:1007C000AB01429FB001439F700D529F700D1124E9
:1007D000882777FD8095982F0E94391A25E33AEFF4
:1007E0004EE85CE30E94C51A0E94061AF801C08018
:1007F000D180C61AD70A48E2442E512C4E0C5F1CF9
:1008000032E3A32EB12CAE0CBF1C780123C064E6EA
:1008100070E080E090E00E94960CC201B1D28C01A1
:10082000C501AED2800F911F62E070E00E94531BA1
:10083000CB01880F991F880F991F860F971FF7010B
:1008400091838083C30164E670E097D2C40164E6BB
:1008500070E093D2F70180819181C816D906BCF26D
:100860000DC109E4602E712C6E0C7F1CC30160E089
:1008700070E07DD21EE3812E912C8E0C9F1CC40152
:1008800060E070E074D28E01035F1F4FC801B601B3
:1008900043E050E025E030E00E949217C501B80126
:1008A0000E94D717C8010E94EC17C5010E943A1692
:1008B00028EE33E0AB01429FB001439F700D529F81
:1008C000700D1124882777FD8095982F0E94391A82
:1008D00025E33AEF4EE85CE30E94C51A0E94061A2F
:1008E0006B01F701E759FF4F80819181C80ED91E36
:1008F000B8E24B2E512C4E0C5F1CA2E3AA2EB12C59
:10090000AE0CBF1C7F0123C064E670E080E090E085
:100910000E94960CC20134D28C01C50131D2800FE5
:10092000911F62E070E00E94531BCB01880F991F5A
:10093000880F991F860F971FF70191838083C3014A
:1009400064E670E01AD2C40164E670E016D2F701E2
:10095000808191818C159D05BCF290C079E4672E51
:10096000712C6E0C7F1CC30161E070E000D26EE35D
:10097000862E912C8E0C9F1CC40160E070E0F7D194
:100980008E010D5E1F4FC801B60143E050E026E026
:1009900030E00E949217C501B8010E94D717C80124
:1009A0000E94EC17C5010E943A16F701E959FF4F62
:1009B00040805180CB016B0153E0CC0CDD1C5A957B
:1009C000E1F7880F991FC80ED91EC40CD51C3EE153
:1009D000A32EB12CAE0CBF1C7F012FEF222E312C89
:1009E00046C064E670E080E090E0A0D7C50114D274
:1009F000C501C6D1F701918380838C0104191509C3
:100A000087E795E0B8014AE050E00E94BF15043640
:100A100011056CF4029DC001039D900D129D900D77
:100A2000112464E670E00E94531B8B011AC0F70189
:100A3000808191819601281B390B243631051CF0E9
:100A40000FEF10E00EC0229DC001239D900D329D3E
:100A5000900D112464E670E00E94531B8B010F5F20
:100A60001040C301B80189D1C401B80186D1F70192
:100A7000808191818C159D050CF4B3CFC30160E09A
:100A800070E07BD1C40160E070E077D187E795E04A
:100A90006CE172E00E94DC1587E795E00E94131379
:100AA000CE0101960E94EC1768960FB6F894DEBF4F
:100AB0000FBECDBFCF91DF911F910F91FF90EF90AF
:100AC000DF90CF90BF90AF909F908F907F906F906E
:100AD0005F904F903F902F900895CF93DF93EC015C
:100AE000865A9F4F61E070E00E942516FC01E0816C
:100AF000E93459F0E23519F0E43451F403C0CE0181
:100B000040DD08C0CE01F7DD05C0CE01A3DC02C088
:100B1000CE0125DDDF91CF910895BF92CF92DF9274
:100B2000EF92FF920F931F93CF93DF93EC018C0111
:100B3000065A1F4FA1E6EA2EF12CE80EF91EF0E648
:100B4000CF2ED12CC80ED91EBB24B39410C087E77A
:100B500095E00E94EA12682FF7018083C8010E9485
:100B6000AB16F70180818A3011F4F601B08287E775
:100B700095E00E94B712181619064CF364E670E06F
:100B800080E090E0D3D6E0E6EE2EF12CEC0EFD1ED8
:100B9000F7018081882391F0C80160E070E00E9435
:100BA0002516FC018081843249F4CE0196DFC8010C
:100BB00060E072E00E944C17F7011082DF91CF9144
:100BC0001F910F91FF90EF90DF90CF90BF9008950D
:100BD000EF92FF920F931F93DF93CF93CDB7DEB7C2
:100BE00062970FB6F894DEBF0FBECDBF7C018E01B9
:100BF0000F5F1F4FC80194D0D701F80182E1019027
:100C00000D928150E1F7F70115AE14AE83EA92E040
:100C10006AE370E046E050E047D182E690E0E80EFB
:100C2000F91EF701119211921192119281E08193B4
:100C3000119211927F011182108287E99FEFE80ED5
:100C4000F91EC701449662E070E040E054E021E004
:100C500030E001D185E160E00E942F0E88E260E083
:100C6000FED786E161E0FBD786E160E00E94E20EFC
:100C7000C701CE9664E070E04EE150E02FE130E035
:100C800000E010E063D0C701875B9F4F68E070E031
:100C900040E250E021E230E001E010E057D087E090
:100CA00061E0DDD78EE161E0DAD7C701895A9F4F55
:100CB00069E070E076D2C7018C5A9F4F6AE070E01D
:100CC00070D28DE061E0CBD7E1E6F0E0EE0EFF1EE2
:100CD000F70110828FE99FEFE80EF91EC701865ACF
:100CE0009F4F60E072E00E944C17E0E6F0E0EE0EED
:100CF000FF1EF701108287E795E040E052EC61E0CB
:100D000070E00E94301262960FB6F894DEBF0FBEFC
:100D1000CDBFCF91DF911F910F91FF90EF9008957C
:100D2000FC0181E090E0918380831282138214821F
:100D300015821682178210861186128613861486F3
:100D4000158616861786108A118A08950F931F93A9
:100D5000FC0171836083538342833583248317822C
:100D600016821286118700871F910F910895FC014A
:100D70006087718782810C94E20EFC01808191C6AC
:100D8000CF92DF92EF92FF920F931F938C01FC01A1
:100D9000648175818681978120ED37E040E050E0E5
:100DA0000E94281B0E94391A2BED3FE049E450E4D1
:100DB0000E94C51A0E94061A20E034E040E050E08C
:100DC0000E94881BC901DA016C017D01F801808550
:100DD0009185892B61F4C701B60126E330E040E03C
:100DE00050E00E94881BC901DA016C017D01A70156
:100DF000960183E0220F331F441F551F8A95D1F7B8
:100E00002C0D3D1D4E1D5F1DC9011F910F91FF90BF
:100E1000EF90DF90CF900895FC0184819581089533
:100E2000CF93DF93EC0188E1FFD72C813D814E8188
:100E30005F81019729F42F5F3F4F4F4F5F4F04C0F1
:100E400021503040404050402C833D834E835F838F
:100E5000DF91CF910895FC017183608353834283B6
:100E600031872087148215821682178284E160E020
:100E7000F6D684E161E0A6C70F931F938C01FC01B5
:100E8000848161E020E432E44FE050E0FCD7DC01F3
:100E9000CB01F801628173810E94531BCB016083F7
:100EA00091831F910F9108950F931F938C01842FAD
:100EB000F801738362834483558360E0D0D6F801E0
:100EC000118210821F910F910895FC018091A90257
:100ED000803390F480838F5F8093A902815090E0EB
:100EE000FC01EE0FFF1FE80FF91FE655FD4F88EBE1
:100EF0009BE09283818308958FEF80830895FC01A6
:100F000020812033B8F58181992787FD909548E8A5
:100F100050E0481B590B440F551F440F551F6417D1
:100F2000750784F08281992787FD909548E552E006
:100F3000481B590B440F551F440F551F6417750765
:100F40000CF4AB0142505040CA01AA2797FDA0956E
:100F5000BA2F880F991FAA1FBB1F4FB7F89430E014
:100F6000F901EE0FFF1FE20FF31FE655FD4F9283CD
:100F700081834FBF0895AF92BF92CF92DF92EF92DD
:100F8000FF920F931F93CF93DF93EC019B0182E0BD
:100F9000603278070CF048C077FF03C020E030E0F3
:100FA00005C0653B710514F024EB30E000D00F92D2
:100FB000B901882777FD8095982F2981332727FD50
:100FC0003095E8E8AE2EB12CA21AB30AAA0CBB1CCD
:100FD000AA0CBB1CCC24B7FCC094DC2CEA81FF27F4
:100FE000E7FDF09528E532E02E1B3F0B220F331F63
:100FF000220F331F442737FD4095542FEDB7FEB71E
:10100000218332834383548320E030E040E050E08A
:1010100004EBE02EF12C012D112D0E94DE159B0119
:101020000F900F900F900F90CE01B90168DFDF9104
:10103000CF911F910F91FF90EF90DF90CF90BF90D5
:10104000AF900895CF92DF92EF92FF921F93CF93CC
:10105000DF93EC01162F7A0169018881803308F053
:1010600092C0862F61E0FBD5888190E0FC01EE0FF5
:10107000FF1FE80FF91FE655FD4F1F738081807C2D
:10108000812B808380E292E08E199F0964E070E0FA
:101090000E94531B698380E699E08C199D0964E0E6
:1010A00070E00E94531B6A83A8818A2F6CE00E9423
:1010B000471B682F70E0AB01440F551F460F571FA9
:1010C000440F551F440F551F20E030E0C901840F25
:1010D000951FFC01EE0FFF1FE80FF91FE655FD4FAE
:1010E000808186FD44C02F5F3F4F2C30310571F762
:1010F00053C01092800082E080938100109285009E
:1011000010928400B19A80916F00826080936F008A
:101110002EC06230710569F41092900082E08093D5
:101120009100109295001092940088BB80937100FA
:101130001EC06330710569F41092A00082E08093B4
:10114000A1001092A5001092A40089BB80937200A8
:101150000EC0672B61F41092200182E08093210180
:1011600010922501109224018ABB809373008A2F6C
:1011700090E0FC01EE0FFF1FE80FF91FE655FD4F51
:101180008081806480838881DF91CF911F91FF905F
:10119000EF90DF90CF9008956130710509F0B9CFDD
:1011A000A8CF40E252E020E639E04CCFEF92FF9228
:1011B0000F931F93CF93DF938B017A01EC01DC0136
:1011C000A65CBC4F8C9187FF04C0FB01118210828A
:1011D00036C0AE01440F551F4C0F5D1F440F551F05
:1011E000440F551F2C91332727FD3095240F351FB1
:1011F0008091A90290E0281739070CF58C91992766
:1012000087FD9095840F951FFC01EE0FFF1FE80FDF
:10121000F91FE655FD4F808186FF11C08C919927FB
:1012200087FD9095840F951FFC01EE0FFF1FE80FBF
:10123000F91FE655FD4F80818F7360E0C3D5DE0155
:10124000A65CBC4F8C918F5F8C93AE01440F551FF1
:101250004C0F5D1F440F551F440F551F2C91332712
:1012600027FD3095240F351F8091A90290E02817A3
:1012700039070CF04CC08C918C300CF048C0F80150
:10128000208131818C91992787FD9095840F951F3E
:10129000FC01EE0FFF1FE80FF91FE655FD4F81819E
:1012A0009281280F391FF701318320838C91992770
:1012B00087FD9095840F951FFC01EE0FFF1FE80F2F
:1012C000F91FE655FD4F808186FF29C08C91992733
:1012D00087FD9095840F951FFC01EE0FFF1FE80F0F
:1012E000F91FE655FD4F80818F7361E06BD517C004
:1012F00080E49CE904C0F801808191810496F701A3
:1013000091838083C65CDC4F8FEF888308C0F8012F
:1013100080819181049680549C4950F3ECCFDF91F9
:10132000CF911F910F91FF90EF9008951F920F9210
:101330000FB60F920BB60F9211242F933F934F933A
:101340005F936F937F938F939F93AF93BF93EF932D
:10135000FF9380E090E064E271E048E251E026DF34
:10136000FF91EF91BF91AF919F918F917F916F917D
:101370005F914F913F912F910F900BBE0F900FBE39
:101380000F901F9018951F920F920FB60F920BB6E9
:101390000F9211242F933F934F935F936F937F93FB
:1013A0008F939F93AF93BF93EF93FF9383E090E06E
:1013B00064EA70E048EA50E0F9DEFF91EF91BF91F6
:1013C000AF919F918F917F916F915F914F913F91DD
:1013D0002F910F900BBE0F900FBE0F901F9018957E
:1013E0001F920F920FB60F920BB60F9211242F93EC
:1013F0003F934F935F936F937F938F939F93AF939D
:10140000BF93EF93FF9382E090E064E970E048E9D6
:1014100050E0CCDEFF91EF91BF91AF919F918F9102
:101420007F916F915F914F913F912F910F900BBEE4
:101430000F900FBE0F901F9018951F920F920FB62E
:101440000F920BB60F9211242F933F934F935F93FC
:101450006F937F938F939F93AF93BF93EF93FF937C
:1014600081E090E064E870E048E850E09FDEFF91A2
:10147000EF91BF91AF919F918F917F916F915F910C
:101480004F913F912F910F900BBE0F900FBE0F9079
:101490001F901895883008F078C0E82FF0E0EE0F24
:1014A000FF1FE25CFC4F718360838330D9F084308E
:1014B00030F4813009F444C0823060F439C08530A2
:1014C00051F18530D8F0863009F446C0873009F0F4
:1014D0005CC04FC0809169008C7F842B8093690031
:1014E000E89A089580916900440F551F440F551FD5
:1014F000837F842B80936900E99A08958091690025
:1015000074E0440F551F7A95E1F78F7C842B80930C
:101510006900EA9A08958091690066E0440F551FBA
:101520006A95E1F78F73842B80936900EB9A089595
:1015300080916A008C7F842B80936A00EC9A0895D6
:1015400080916A00440F551F440F551F837F842BE1
:1015500080936A00ED9A089580916A0024E0440F18
:10156000551F2A95E1F78F7C842B80936A00EE9AB1
:10157000089580916A0096E0440F551F9A95E1F70F
:101580008F73842B80936A00EF9A08951F920F92B5
:101590000FB60F920BB60F9211242F933F934F93D8
:1015A0005F936F937F938F939F93AF93BF93EF93CB
:1015B000FF938091420390914303892B29F0E0919E
:1015C0004203F09143031995FF91EF91BF91AF91C1
:1015D0009F918F917F916F915F914F913F912F914B
:1015E0000F900BBE0F900FBE0F901F9018951F927B
:1015F0000F920FB60F920BB60F9211242F933F93B9
:101600004F935F936F937F938F939F93AF93BF930A
:10161000EF93FF938091440390914503892B29F028
:10162000E0914403F09145031995FF91EF91BF912B
:10163000AF919F918F917F916F915F914F913F916A
:101640002F910F900BBE0F900FBE0F901F9018950B
:101650001F920F920FB60F920BB60F9211242F9379
:101660003F934F935F936F937F938F939F93AF932A
:10167000BF93EF93FF938091460390914703892B8B
:1016800029F0E0914603F09147031995FF91EF91FE
:10169000BF91AF919F918F917F916F915F914F918A
:1016A0003F912F910F900BBE0F900FBE0F901F9088
:1016B00018951F920F920FB60F920BB60F9211242E
:1016C0002F933F934F935F936F937F938F939F934A
:1016D000AF93BF93EF93FF93809148039091490399
:1016E000892B29F0E0914803F09149031995FF9166
:1016F000EF91BF91AF919F918F917F916F915F918A
:101700004F913F912F910F900BBE0F900FBE0F90F6
:101710001F9018951F920F920FB60F920BB60F9253
:1017200011242F933F934F935F936F937F938F93E6
:101730009F93AF93BF93EF93FF9380913E0390915C
:101740003F03892B29F0E0913E03F0913F03199567
:10175000FF91EF91BF91AF919F918F917F916F9189
:101760005F914F913F912F910F900BBE0F900FBE45
:101770000F901F9018951F920F920FB60F920BB6F5
:101780000F9211242F933F934F935F936F937F9307
:101790008F939F93AF93BF93EF93FF9380914003F9
:1017A00090914103892B29F0E0914003F09141038E
:1017B0001995FF91EF91BF91AF919F918F917F917B
:1017C0006F915F914F913F912F910F900BBE0F90B2
:1017D0000FBE0F901F9018951F920F920FB60F9289
:1017E0000BB60F9211242F933F934F935F936F93F8
:1017F0007F938F939F93AF93BF93EF93FF938091CA
:101800004A0390914B03892B29F0E0914A03F09110
:101810004B031995FF91EF91BF91AF919F918F91DC
:101820007F916F915F914F913F912F910F900BBEE0
:101830000F900FBE0F901F9018951F920F920FB62A
:101840000F920BB60F9211242F933F934F935F93F8
:101850006F937F938F939F93AF93BF93EF93FF9378
:1018600080914C0390914D03892B29F0E0914C031A
:10187000F0914D031995FF91EF91BF91AF919F9119
:101880008F917F916F915F914F913F912F910F9029
:101890000BBE0F900FBE0F901F9018951F920F92C6
:1018A0000FB60F9211242F933F938F939F93AF9373
:1018B000BF938091520390915303A0915403B09130
:1018C0005503309156030196A11DB11D232F2D5FA5
:1018D0002D3720F02D570196A11DB11D20935603E1
:1018E0008093520390935303A0935403B0935503F2
:1018F00080914E0390914F03A0915003B0915103FA
:101900000196A11DB11D80934E0390934F03A093A8
:101910005003B0935103BF91AF919F918F913F912D
:101920002F910F900FBE0F901F9018959B01AC0147
:101930007FB7F89480914E0390914F03A09150038C
:10194000B091510366B5A89B05C06F3F19F0019691
:10195000A11DB11D7FBFBA2FA92F982F8827860FF1
:10196000911DA11DB11D62E0880F991FAA1FBB1F09
:101970006A95D1F7BC012DC0FFB7F89480914E0352
:1019800090914F03A0915003B0915103E6B5A89BED
:1019900005C0EF3F19F00196A11DB11DFFBFBA2F81
:1019A000A92F982F88278E0F911DA11DB11DE2E050
:1019B000880F991FAA1FBB1FEA95D1F7861B970BAB
:1019C000885E9340C8F221503040404050406851FA
:1019D0007C4F211531054105510571F60895789424
:1019E00084B5826084BD84B5816084BD85B5826024
:1019F00085BD85B5816085BDEEE6F0E080818160C2
:101A00008083E1E8F0E010828081826080838081C1
:101A100081608083E0E8F0E0808181608083E1EB99
:101A2000F0E0808184608083E0EBF0E08081816081
:101A30008083E1E9F0E08081826080838081816041
:101A40008083E0E9F0E0808181608083E1EAF0E07A
:101A5000808182608083808181608083E0EAF0E021
:101A6000808181608083E1E2F1E080818260808317
:101A7000808181608083E0E2F1E080818160808309
:101A8000EAE7F0E0808184608083808182608083E7
:101A90008081816080838081806880831092C10012
:101AA00008951F93CF93DF93182FEB0161E0D7D0F8
:101AB000209709F4CAC0CF3FD10509F4C9C0E12F6E
:101AC000F0E0E254FE4F8491893009F466C08A3018
:101AD000B0F48430F1F1853040F4823059F1833034
:101AE00070F5813009F0AEC020C0873009F443C0E2
:101AF000883008F048C0863009F0A4C034C08D306A
:101B000009F478C08E3038F48B3009F45AC08C3028
:101B100008F066C04CC0803109F480C0813109F4FE
:101B200087C08F3009F08EC06FC084B5806884BDD7
:101B3000C7BD91C084B5806284BDC8BD8CC0809192
:101B40008000806880938000D0938900C0938800D3
:101B500082C080918000806280938000D0938B004F
:101B6000C0938A0078C08091B00080688093B000F4
:101B7000C093B30070C08091B00080628093B000C9
:101B8000C093B40068C080919000806880939000FA
:101B9000D0939900C09398005EC0809190008062BD
:101BA00080939000D0939B00C0939A0054C0809182
:101BB0009000886080939000D0939D00C0939C001B
:101BC0004AC08091A00080688093A0008091A0000E
:101BD0008F7B8093A000D093A900C093A8003BC046
:101BE0008091A00080628093A000D093AB00C0934E
:101BF000AA0031C08091A00088608093A000D0939B
:101C0000AD00C093AC0027C0809120018068809314
:101C10002001D0932901C09328011DC0809120018B
:101C2000806280932001D0932B01C0932A0113C0BE
:101C300080912001886080932001D0932D01C09372
:101C40002C0109C0C038D1051CF4812F60E002C00E
:101C5000812F61E0B7D0DF91CF911F910895CF938D
:101C6000DF93482F50E0CA0188589E4FFC01349101
:101C70004E5C5E4FFA018491882369F190E0880FF1
:101C8000991FFC01EC51FF4FA591B491FC01E2506A
:101C9000FF4FC591D491662351F42FB7F8948C91DE
:101CA000932F909589238C93888189230BC0623070
:101CB00061F42FB7F8948C91932F909589238C938E
:101CC0008881832B88832FBF06C09FB7F8948C919F
:101CD000832B8C939FBFDF91CF910895893009F4B6
:101CE00049C08A30A0F4843051F1853040F482300C
:101CF00079F1833000F5813009F063C026C0873068
:101D000079F1883098F5863009F05BC025C08D30B8
:101D100009F442C08E3028F48B30B1F18C30C0F51C
:101D20002DC0803109F442C0813109F445C08F30A3
:101D300009F047C037C0809180008F7703C0809141
:101D400080008F7D80938000089584B58F7702C0D6
:101D500084B58F7D84BD08958091B0008F7703C0D6
:101D60008091B0008F7D8093B000089580919000A5
:101D70008F7707C0809190008F7D03C08091900085
:101D8000877F8093900008958091A0008F7707C08F
:101D90008091A0008F7D03C08091A000877F8093F9
:101DA000A0000895809120018F7703C080912001C9
:101DB0008F7D80932001089580912001877F8093FB
:101DC00020010895FF920F931F93F62E482F50E0A5
:101DD000CA0182549E4FFC012491CA0188589E4F2B
:101DE000FC0114914E5C5E4FFA0104910023C1F096
:101DF000222311F0822F72DFE02FF0E0EE0FFF1FA1
:101E0000E250FF4FA591B4919FB7F894FF2021F4C1
:101E10008C911095812302C08C91812B8C939FBF54
:101E20001F910F91FF9008950F931F93482F50E03B
:101E3000CA0182549E4FFC012491CA0188589E4FCA
:101E4000FC0104914E5C5E4FFA011491112319F4C8
:101E500020E030E014C0222311F0822F3FDF812FD9
:101E600090E0880F991F885E9E4FFC01A591B49168
:101E70008C9120E030E0802311F021E030E0C901B6
:101E80001F910F9108958F929F92AF92BF92CF9220
:101E9000DF92EF92FF920F931F93CF93DF93A82FC0
:101EA000B0E0CD0188589E4FFC018490AE5CBE4FDF
:101EB000FD018491662311F4992401C0982C6FEFE1
:101EC000A62E6FEFB62E6FEFC62E6FE0D62EA22293
:101ED000B322C422D522682F70E0660F771F685E98
:101EE0007E4FEE24FF248701FB01A591B4910BC026
:101EF000EA14FB040C051D0509F44EC00894E11C0E
:101F0000F11C011D111D8C918821891589F30CC0CC
:101F1000EA14FB040C051D0509F43EC00894E11CFD
:101F2000F11C011D111D03C0FB01A591B4918C9101
:101F30008821891569F720E030E040E050E0FB019E
:101F4000C591D4910FC0DA01C9018E0D9F1DA01F4C
:101F5000B11F8A159B05AC05BD05F1F02F5F3F4F02
:101F60004F4F5F4F88818821891569F3CA01B901F4
:101F700025E130E040E050E00E94281B9B01AC01CD
:101F8000205F3F4F4F4F5F4F84E056954795379501
:101F900027958A95D1F704C020E030E040E050E07A
:101FA000B901CA01DF91CF911F910F91FF90EF907E
:101FB000DF90CF90BF90AF909F908F90089508953D
:101FC0001F920F920FB60F920BB60F9211242F9300
:101FD0003F934F938F939F93EF93FF938091C00014
:101FE00082FD1DC04091C600209197033091980357
:101FF0002F5F3F4F2F7330708091990390919A0318
:102000002817390771F0E0919703F0919803E95A86
:10201000FC4F4083309398032093970302C0809134
:10202000C600FF91EF919F918F914F913F912F911A
:102030000F900BBE0F900FBE0F901F901895089534
:102040001F920F920FB60F920BB60F9211242F937F
:102050003F934F938F939F93EF93FF938091C8008B
:1020600082FD1DC04091CE0020911F0430912004BC
:102070002F5F3F4F2F733070809121049091220485
:102080002817390771F0E0911F04F0912004E15204
:10209000FC4F40833093200420931F0402C08091A2
:1020A000CE00FF91EF919F918F914F913F912F9192
:1020B0000F900BBE0F900FBE0F901F9018950895B4
:1020C0001F920F920FB60F920BB60F9211242F93FF
:1020D0003F934F938F939F93EF93FF938091D00003
:1020E00082FD1DC04091D6002091A7043091A80424
:1020F0002F5F3F4F2F7330708091A9049091AA04F5
:102100002817390771F0E091A704F091A804E95964
:10211000FB4F40833093A8042093A70402C0809112
:10212000D600FF91EF919F918F914F913F912F9109
:102130000F900BBE0F900FBE0F901F901895089533
:102140001F920F920FB60F920BB60F9211242F937E
:102150003F934F938F939F93EF93FF938091300121
:1021600082FD1DC04091360120912F053091300530
:102170002F5F3F4F2F733070809131059091320562
:102180002817390771F0E0912F05F0913005E151E2
:10219000FB4F40833093300520932F0502C0809180
:1021A0003601FF91EF919F918F914F913F912F9128
:1021B0000F900BBE0F900FBE0F901F901895E091DF
:1021C0008305F0918405E05CFF4F8191919120811E
:1021D0003181805C9F4F821B930B60E470E00E9412
:1021E000531B892B09F0EBDEE091A505F091A605C4
:1021F000E05CFF4F8191919120813181805C9F4F04
:10220000821B930B60E470E00E94531B892B09F042
:1022100016DFE091C705F091C805E05CFF4F8191A2
:10222000919120813181805C9F4F821B930B60E4F0
:1022300070E00E94531B892B09F041DFE091E90512
:10224000F091EA05E05CFF4F81919191208131810D
:10225000805C9F4F821B930B60E470E00E94531BD5
:10226000892B09F06CCF08951F920F920FB60F9231
:102270000BB60F9211242F933F938F939F93EF935D
:10228000FF932091DB033091DC038091DD0390917B
:10229000DE032817390731F48091C1008F7D8093C8
:1022A000C10014C0E091DD03F091DE03E556FC4F60
:1022B00020818091DD039091DE0301968F739070F1
:1022C0009093DE038093DD032093C600FF91EF918E
:1022D0009F918F913F912F910F900BBE0F900FBE4A
:1022E0000F901F9018951F920F920FB60F920BB67A
:1022F0000F9211242F933F938F939F93EF93FF930C
:102300002091630430916404809165049091660487
:102310002817390731F48091C9008F7D8093C90057
:1023200014C0E0916504F0916604ED5DFB4F2081DF
:10233000809165049091660401968F7390709093DC
:102340006604809365042093CE00FF91EF919F91E6
:102350008F913F912F910F900BBE0F900FBE0F905A
:102360001F9018951F920F920FB60F920BB60F92F7
:1023700011242F933F938F939F93EF93FF9320917B
:10238000EB043091EC048091ED049091EE04281759
:10239000390731F48091D1008F7D8093D10014C032
:1023A000E091ED04F091EE04E555FB4F2081809122
:1023B000ED049091EE0401968F7390709093EE046B
:1023C0008093ED042093D600FF91EF919F918F9120
:1023D0003F912F910F900BBE0F900FBE0F901F904B
:1023E00018951F920F920FB60F920BB60F921124F1
:1023F0002F933F938F939F93EF93FF9320917305B8
:1024000030917405809175059091760528173907EC
:1024100031F4809131018F7D8093310114C0E091BE
:102420007505F0917605ED5CFA4F20818091750578
:102430009091760501968F739070909376058093B6
:10244000750520933601FF91EF919F918F913F91F8
:102450002F910F900BBE0F900FBE0F901F901895ED
:10246000AF92BF92DF92EF92FF920F931F93CF93A1
:10247000DF93EC017A018B01DD24403081EE5807B7
:1024800080E0680780E0780711F0DD24D39491E0C4
:10249000A92EB12CEC89FD89DD2069F0C50108A0C9
:1024A00002C0880F991F0A94E2F7808360E079E008
:1024B0008DE390E005C0108260E874E88EE190E062
:1024C000A80197010E94661B2150304040405040B7
:1024D000569547953795279580E12030380720F0AD
:1024E000DD2011F0DD24D6CFE889F9893083EA892F
:1024F000FB89208319A2EE89FF89408121E030E029
:10250000C9010C8C02C0880F991F0A94E2F7482B6E
:102510004083EE89FF894081C9010D8C02C0880F7C
:10252000991F0A94E2F7482B4083EE89FF89408186
:10253000C9010E8C02C0880F991F0A94E2F7482B3C
:102540004083EE89FF8980810F8C02C0220F331FE8
:102550000A94E2F7209528232083DF91CF911F91E1
:102560000F91FF90EF90DF90BF90AF900895DC0146
:102570001C96ED91FC911D97E05CFF4F819191912C
:1025800020813181805C9F4F821B930B60E470E05F
:102590000C94531BDC011C96ED91FC911D97E05CA3
:1025A000FF4F20813181E054F040DF01AE5BBF4F2F
:1025B0008D919C9111972817390719F42FEF3FEF50
:1025C00007C08D919C91E80FF91F8081282F30E082
:1025D000C9010895DC011C96ED91FC911D97E05C0A
:1025E000FF4F20813181E054F040DF01AE5BBF4FEF
:1025F0008D919C9111972817390719F42FEF3FEF10
:1026000010C08D919C911197E80FF91F20818D9139
:102610009C91119701968F73907011969C938E9355
:1026200030E0C9010895DC0191968C91919788233F
:1026300039F05496ED91FC915597808186FFF9CF42
:1026400091961C920895CF93DF93EC01EE85FF8560
:10265000E05CFF4F20813181E054F0402F5F3F4F1D
:102660002F733070DF01AE5BBF4F8D919C9111973E
:1026700028173907D1F3E05CFF4F80819181E05446
:10268000F040E80FF91F6083EE85FF85E05CFF4FA7
:1026900031832083EE89FF89208181E090E00F8CD7
:1026A00002C0880F991F0A94E2F7282B208381E04B
:1026B00089A3EC89FD8980818064808381E090E03A
:1026C000DF91CF9108951F9310927A0510927905AA
:1026D00028EE33E040E050E020937B0530937C050A
:1026E00040937D0550937E056CE272E0709378050F
:1026F0006093770587E593E0909384058093830545
:102700008BE993E0909386058093850585EC90E0B6
:10271000909388058093870584EC90E090938A05D8
:102720008093890580EC90E090938C0580938B05D5
:1027300081EC90E090938E0580938D0582EC90E083
:102740009093900580938F0586EC90E0909392058E
:102750008093910514E010939305B3E0B093940532
:10276000A7E0A0939505F5E0F0939605E1E0E093EE
:10277000970510929C0510929B0520939D05309320
:102780009E0540939F055093A00570939A05609312
:1027900099058FED93E09093A6058093A50583E2BC
:1027A00094E09093A8058093A7058DEC90E090931A
:1027B000AA058093A9058CEC90E09093AC058093DA
:1027C000AB0588EC90E09093AE058093AD0589EC65
:1027D00090E09093B0058093AF058AEC90E09093E1
:1027E000B2058093B1058EEC90E09093B405809390
:1027F000B3051093B505B093B605A093B705F09354
:10280000B805E093B9051092BE051092BD0520935E
:10281000BF053093C0054093C1055093C205709326
:10282000BC056093BB0587E694E09093C805809350
:10283000C7058BEA94E09093CA058093C90585ED9E
:1028400090E09093CC058093CB0584ED90E090933D
:10285000CE058093CD0580ED90E09093D0058093D8
:10286000CF0581ED90E09093D2058093D10582ED64
:1028700090E09093D4058093D30586ED90E09093FB
:10288000D6058093D5051093D705B093D805A093AE
:10289000D905F093DA05E093DB051092E00510927C
:1028A000DF052093E1053093E2054093E305509363
:1028B000E4057093DE056093DD058FEE94E0909360
:1028C000EA058093E90583E395E09093EC05809316
:1028D000EB0585E391E09093EE058093ED0584E3AD
:1028E00091E09093F0058093EF0580E391E0909361
:1028F000F2058093F10581E391E09093F4058093D4
:10290000F30582E391E09093F6058093F50586E365
:1029100091E09093F8058093F7051093F905B09333
:10292000FA05A093FB05F093FC05E093FD051F91CC
:1029300008950895CF93DF9352D8FBDF0E94B7012B
:10294000CFEDD0E10E94B4012097E1F338DCFACF5B
:10295000CF92DF92EF92FF920F931F93CF93DF936B
:102960007C016B018A01C0E0D0E00FC0D6016D91FF
:102970006D01D701ED91FC910190F081E02DC7012F
:102980001995C80FD91F015010400115110571F795
:10299000CE01DF91CF911F910F91FF90EF90DF90CB
:1029A000CF900895CF93DF93FB01EC01A881B9810B
:1029B00060817181448155811296ED91FC9113974C
:1029C0001995DF91CF910895EF92FF920F931F9386
:1029D0008C01DC01ED91FC910190F081E02D6DE026
:1029E00019957C01D801ED91FC910190F081E02DC9
:1029F000C8016AE019959C012E0D3F1DC9011F9168
:102A00000F91FF90EF900895CF93DF93EC01611544
:102A1000710519F420E030E00FC0DB010D900020BB
:102A2000E9F71197A61BB70BE881F9810280F381C2
:102A3000E02DAD0119959C01C901DF91CF91089559
:102A40004F925F927F928F929F92AF92BF92CF925E
:102A5000DF92EF92FF920F931F93DF93CF93CDB747
:102A6000DEB7A1970FB6F894DEBF0FBECDBF2C0125
:102A7000742ECB01223008F42AE019A231E2C32ED1
:102A8000D12CCC0EDD1E822E9924AA24BB24672DC6
:102A9000752FA50194011AD679018A01C801B701E1
:102AA000A5019401D5D5472D461B0894C108D1082E
:102AB0004A3014F4405D01C0495CF6014083E114E2
:102AC000F1040105110521F07E2C5F2DC801DFCF37
:102AD000C201B60199DFA1960FB6F894DEBF0FBE12
:102AE000CDBFCF91DF911F910F91FF90EF90DF90BD
:102AF000CF90BF90AF909F908F907F905F904F90BE
:102B00000895CF92DF92EF92FF920F931F93CF938E
:102B1000DF93EC016A017B012115310541F4E88165
:102B2000F9810190F081E02D642F19951DC02A30A4
:102B30003105C9F477FF16C0E881F9810190F08171
:102B4000E02D6DE219958C0144275527BA014C19E7
:102B50005D096E097F09CE012AE072DF9801280F16
:102B6000391F03C02AE06CDF9C01C901DF91CF91BE
:102B70001F910F91FF90EF90DF90CF900895CF922B
:102B8000DF92EF92FF920F931F936C017B019A01EA
:102B90000027F7FC0095102FB801A701B2DF8C01C8
:102BA000C60112DF080F191FC8011F910F91FF9076
:102BB000EF90DF90CF90089527CF08952F923F9206
:102BC0004F925F926F927F928F929F92AF92BF923D
:102BD000CF92DF92EF92FF920F931F93DF93CF93E9
:102BE000CDB7DEB73B014C0119012A016E897F89FF
:102BF000888D998D6A197B098C099D09621A730A5F
:102C0000840A950AA401930123D5E218F308040964
:102C10001509A80197017CD52A0D3B1D4C1D5D1D92
:102C2000B901CA01CF91DF911F910F91FF90EF90F1
:102C3000DF90CF90BF90AF909F908F907F906F90DC
:102C40005F904F903F902F900895FC019B018481ED
:102C500095816817790728F4608171816115710584
:102C600029F41092FF056FEF75E002C0620F731F29
:102C7000CB010895FC0180819181009729F420E027
:102C800030E040E050E004C00E9433019B01AC0101
:102C9000B901CA0108950F931F93CF93DF93EC01FD
:102CA0008B016F5F7F4F88819981D3D2009711F498
:102CB00080E005C0998388831B830A8381E0DF91CC
:102CC000CF911F910F910895CF93DF93EC018881ED
:102CD0009981892B29F08A819B818617970758F45F
:102CE000CE01D9DF882341F08C819D81892B19F495
:102CF000E881F981108281E0DF91CF910895EF9210
:102D0000FF920F931F93CF93DF93EC017B016C81B4
:102D10007D81E114F104B9F04115510591F08A016A
:102D2000060F171FB801D0DF882369F088819981C9
:102D30002C813D81820F931FB7010E9462011D8388
:102D40000C8381E001C080E0DF91CF911F910F9152
:102D5000FF90EF900895DF93CF930F920F92CDB72E
:102D6000DEB769831A82BE016F5F7F4F41E050E09A
:102D7000C6DF0F900F90CF91DF910895CF93DF932F
:102D8000EC0188819981009709F0CBD119821882D2
:102D90001D821C821B821A82DF91CF9108950F93AE
:102DA0001F93182F092F6115710559F0DB010D9044
:102DB0000020E9F71197A61BB70BAD01A0DF882310
:102DC00019F4812F902FDADF812F902F1F910F910F
:102DD00008950F931F93182F092FFB0160817181B4
:102DE000448155818CDF882319F4812F902FC6DF11
:102DF000812F902F1F910F910895EF92FF920F93C3
:102E00001F93CF93DF93EC017B018A01BA015CDF52
:102E1000882319F4CE01B2DF07C01D830C8388819B
:102E20009981B7010E946201CE01DF91CF911F917C
:102E30000F91FF90EF900895CF93DF93EC011982EB
:102E400018821B821A821D821C826115710549F04D
:102E5000DB010D900020E9F71197A61BB70BAD0120
:102E6000CCDFDF91CF910895CF93DF93EC011982EE
:102E700018821B821A821D821C826115710549F01D
:102E8000DB010D900020E9F71197A61BB70BAD01F0
:102E9000B4DFDF91CF9108950F931F93182F092F5F
:102EA0006115710551F0DB010D900020E9F71197D4
:102EB000A61BB70BAD01A1DF01C060DF812F902FF2
:102EC0001F910F910895EF92FF920F931F93DF933D
:102ED000CF93CDB7DEB762970FB6F894DEBF0FBEC3
:102EE000CDBF8C01CB01F8011182108213821282B6
:102EF000158214827E010894E11CF11CB70150E098
:102F00000E946901C801B701C7DF62960FB6F89445
:102F1000DEBF0FBECDBFCF91DF911F910F91FF900C
:102F2000EF900895BF92CF92DF92EF92FF920F93AE
:102F30001F93CF93DF93082FB92E6B017A01E9011C
:102F40002417350710F4EA017901802F9B2D61E2E7
:102F500072E072DFD60114968D919C9115978E15B3
:102F60009F05C8F08C179D0708F4EC01D601ED9180
:102F7000FC911197EC0FFD1F108110826D917C91D7
:102F80006E0D7F1D802F9B2D87DFD601ED91FC916B
:102F9000EC0FFD1F1083802F9B2DDF91CF911F9190
:102FA0000F91FF90EF90DF90CF90BF900895CF9357
:102FB000DF93EC01FB018617970751F06081718167
:102FC0006115710521F04481558117DF01C0D6DEFE
:102FD000CE01DF91CF910895FC0180819181A1C044
:102FE000FC01808191819DC00F931F93CF93DF934C
:102FF000BC018230910510F462E070E0E0910206BD
:10300000F091030640E050E0A0E0B0E024C08081F1
:10301000918186179707D0F08617970771F4828100
:103020009381109729F013969C938E9312972CC03E
:10303000909303068093020627C04115510519F0AD
:103040008417950718F48D01AC01EF01DF0182812F
:1030500093819C01F9013097D1F641155105F9F0A2
:10306000CA01861B970B8430910580F48A819B816D
:103070000115110521F0F8019383828304C0909318
:10308000030680930206FE01329645C0FE01E80F5A
:10309000F91F619371930297998388833CC0809153
:1030A000000690910106892B41F4809124029091B1
:1030B00025029093010680930006409126025091CC
:1030C00027024115510541F44DB75EB780912202A8
:1030D00090912302481B590B209100063091010664
:1030E00024173507B0F4CA01821B930B8617970784
:1030F00080F0AB014E5F5F4F8417950750F0420F91
:10310000531F5093010640930006F9016193719398
:1031100002C0E0E0F0E0CF01DF91CF911F910F916D
:103120000895CF93DF939C01009709F48FC0EC01C1
:1031300022971B821A826091020670910306611524
:10314000710581F488819981820F931F2091000677
:10315000309101062817390739F5D0930106C0933D
:10316000000674C0DB0140E050E0AC17BD0708F179
:10317000BB83AA83FE0121913191E20FF31FAE17A9
:10318000BF0779F48D919C911197280F391F2E5FFD
:103190003F4F3983288312968D919C9113979B837F
:1031A0008A834115510571F4D0930306C09302063A
:1031B0004DC012968D919C911397AD01009711F01F
:1031C000DC01D3CFDA011396DC93CE931297FA0188
:1031D00021913191E20FF31FCE17DF0769F4888147
:1031E0009981280F391F2E5F3F4FFA0131832083C9
:1031F0008A819B8193838283E0E0F0E0DB01129679
:103200008D919C911397009719F0BC01FD01F6CFA9
:10321000AB014E5F5F4FDB018D919C91840F951F39
:1032200020910006309101062817390779F430976C
:1032300029F4109203061092020602C01382128231
:10324000425050405093010640930006DF91CF91C9
:1032500008956F927F928F929F92AF92BF92CF927A
:10326000DF92EF92FF920F931F93CF93DF938C0126
:10327000009721F4CB01B8DE8C01B8C08EEFE82EA8
:103280008FEFF82EE00EF11E4801860E971E8E1469
:103290009F0408F4A9C0D7014D915C91119746177E
:1032A0005707B0F04530510508F4A0C0CA01049793
:1032B0008617970708F49AC042505040461B570B98
:1032C000F401419351936D937C93CF012ADF8EC01B
:1032D0005B01A41AB50A3801640E751EA09102069E
:1032E000B0910306E0E0F0E0CC24DD2447C0A61551
:1032F000B705A9F5CD91DC911197CE0102968A15FB
:103300009B0568F1CE018A199B09029612962C91B1
:10331000129713963C91059758F0F401228333835A
:10332000CA19DB09D183C083D7016D937C9309C08F
:103330004E5F5F4F4C0F5D1FF70151834083C90102
:10334000FC01C114D10431F0D6011396FC93EE9325
:1033500012974CC0F0930306E093020647C08D918C
:103360009C911197E817F90708F4FC016D0112967A
:103370008C91129713969C919C01D901109709F09A
:10338000B6CF809100069091010686159705E9F465
:10339000E617F707D0F42091260230912702211575
:1033A000310541F42DB73EB780912202909123025E
:1033B000281B390B82169306B8F49092010680926E
:1033C0000006F7017183608311C0CB010DDEEC01B3
:1033D000009751F0D7014D915C91B8010E945901BD
:1033E000C8019FDE8E0102C000E010E0C801DF913D
:1033F000CF911F910F91FF90EF90DF90CF90BF90F2
:10340000AF909F908F907F906F90089504D06894B4
:10341000B111B5C0089598D088F09F5790F0B92F9A
:103420009927B751A0F0D1F0660F771F881F991F19
:103430001AF0BA95C9F712C0B13081F09FD0B1E04F
:1034400008959CC0672F782F8827B85F39F0B93F5F
:10345000CCF3869577956795B395D9F73EF490951B
:103460008095709561957F4F8F4F9F4F0895E89499
:1034700009C097FB3EF490958095709561957F4FBC
:103480008F4F9F4F9923A9F0F92F96E9BB2793956A
:10349000F695879577956795B795F111F8CFFAF47A
:1034A000BB0F11F460FF1BC06F5F7F4F8F4F9F4FAB
:1034B00016C0882311F096E911C0772321F09EE809
:1034C000872F762F05C0662371F096E8862F70E06F
:1034D00060E02AF09A95660F771F881FDAF7880F49
:1034E0009695879597F9089597F99F6780E870E01A
:1034F00060E008959FEF80EC089500240A9416166A
:10350000170618060906089500240A9412161306D1
:10351000140605060895092E0394000C11F488235F
:1035200052F0BB0F40F4BF2B11F460FF04C06F5F7B
:103530007F4F8F4F9F4F089557FD9058440F551F51
:1035400059F05F3F71F04795880F97FB991F61F025
:103550009F3F79F087950895121613061406551F9C
:10356000F2CF4695F1DF08C0161617061806991F08
:10357000F1CF86957105610508940895E894BB27FD
:1035800066277727CB0197F908950BD0C4CFB5DF15
:1035900028F0BADF18F0952309F0A6CFABCF11249D
:1035A000EECFCADFA0F3959FD1F3950F50E0551FE2
:1035B000629FF001729FBB27F00DB11D639FAA2788
:1035C000F00DB11DAA1F649F6627B00DA11D661FD7
:1035D000829F2227B00DA11D621F739FB00DA11DF8
:1035E000621F839FA00D611D221F749F3327A00DB2
:1035F000611D231F849F600D211D822F762F6A2F4E
:1036000011249F5750408AF0E1F088234AF0EE0FD2
:10361000FF1FBB1F661F771F881F91505040A9F7DF
:103620009E3F510570F060CFAACF5F3FECF3983E0C
:10363000DCF3869577956795B795F795E7959F5F46
:10364000C1F7FE2B880F911D9695879597F90895E0
:10365000629FD001739FF001829FE00DF11D649F76
:10366000E00DF11D929FF00D839FF00D749FF00D02
:10367000659FF00D9927729FB00DE11DF91F639FA3
:10368000B00DE11DF91FBD01CF0111240895991B53
:1036900079E004C0991F961708F0961B881F7A9549
:1036A000C9F78095089597FB092E07260AD077FD64
:1036B00004D049D006D000201AF4709561957F4F50
:1036C0000895F6F7909581959F4F0895A1E21A2EDF
:1036D000AA1BBB1BFD010DC0AA1FBB1FEE1FFF1FB6
:1036E000A217B307E407F50720F0A21BB30BE40B06
:1036F000F50B661F771F881F991F1A9469F760954D
:103700007095809590959B01AC01BD01CF01089506
:1037100097FB092E05260ED057FD04D0D7DF0AD01F
:10372000001C38F450954095309521953F4F4F4FF0
:103730005F4F0895F6F790958095709561957F4F4E
:103740008F4F9F4F0895AA1BBB1B51E107C0AA1FB3
:10375000BB1FA617B70710F0A61BB70B881F991F32
:103760005A95A9F780959095BC01CD010895EE0F6B
:10377000FF1F0590F491E02D199412E0C8E0D2E00B
:1037800003C0FE01F6DF2296CA30D107D1F7F894C4
:02379000FFCF69
:10379200002449500A002453500A00245250000ABF
:1037A2000024525030002452503030002444500A39
:1037B2000000800004060000000000002313A8148B
:0837C200B712EA12CA12131338
:00000001FF
