:1000000004C100000C9460080C9491080C94C20880
:100010000C94F3080C9424090C9455090C9486094B
:100020000C94B7091FC100001DC100001BC10000D6
:1000300019C1000017C1000015C1000013C1000064
:1000400011C1000094C700000DC100000BC10000E9
:1000500009C1000007C1000005C100000C94E809B7
:1000600001C100000C949C0C0C94F00DFBC000002E
:10007000F9C00000F7C00000F5C00000F3C00000A8
:1000800049C70000EFC00000EDC00000EBC0000059
:100090000C94DC0C0C942F0EE5C00000E3C00000B3
:1000A000E1C00000DFC0000008C70000DBC00000A6
:1000B000D9C00000D7C00000D5C00000D1C60000E4
:1000C000D1C00000CFC00000CDC000000C941C0DBA
:1000D0000C946E0EC7C000000C945C0D0C94AD0E19
:1000E000C1C0000000002100240027002A002D00CC
:1000F0003000330001010000040107010A01000083
:100100002200250028002B002E00310034000201BF
:100110000000050108010B0100002000230026005B
:1001200029002C002F00320000010000030106010D
:10013000090105050505070508080808020202026D
:100140000A0A080804040404010101010101010173
:100150000303030303030303040707070C0C0C0C3E
:100160000C0C0C0C02020202060606060606060627
:100170000B0B0B0B0B0B0B0B0102102020080810B4
:100180002040102040800201020108040201010207
:1001900004081020408080402010080402018004E0
:1001A000020180402010080402010804020101023B
:1001B0000408102040800102040810204080000044
:1001C000090A02080B0C0D070603040100000000D9
:1001D000000000000000000000000000000000001F
:1001E0000000000000000000000011100F000000DF
:1001F00000000000000000000000000000000000FF
:1002000000000000F3011D10EE0111241FBECFEF0E
:10021000D1E2DEBFCDBF00E00CBF12E0A0E0B2E053
:10022000EAE0FDE200E00BBF02C007900D92A833A8
:10023000B107D9F71BBE15E0A8E3B2E001C01D92DB
:10024000AC3EB107E1F712E0C8E0D2E004C022976B
:10025000FE010E947516C430D107C9F70E945411DF
:100260000C947916CDCE1F93FC0199278827BC01E9
:10027000E89411911032E9F3193010F01E30C8F3F0
:100280001B3249F01D3241F4689405C042D0610F21
:10029000711D811D911D119110531A30B8F33EF458
:1002A00090958095709561957F4F8F4F9F4F1F91CF
:1002B0000895FB01DC0102C001900D9241505040B5
:1002C000D8F70895FB01DC0101900D920020E1F7C1
:1002D0000895FB019F01E8944230C4F04532B4F424
:1002E0004A3029F497FB1EF4909581959F4F642F17
:1002F00077270E945F16805D8A330CF0895D8193B9
:10030000CB010097A1F716F45DE251931082C90169
:1003100015C0592F482F372F262F660F771F881F9C
:10032000991F660F771F881F991F620F731F841F05
:10033000951F660F771F881F991F0895DC01FC0128
:10034000672F71917723E1F7329704C07C916D9309
:1003500070836291AE17BF07C8F3089588E392E0F7
:1003600047C088E392E0FAC10F931F9388E392E0BD
:1003700050D20EEA11E082E0B80141E050E024D60C
:1003800083E0B80141E050E01FD684E0B80141E0CD
:1003900050E01AD685E0B80141E050E015D61F9133
:1003A0000F9108958130910579F46F5F7F4FA9F423
:1003B00088E792E024D38BE792E021D38EE792E0A6
:1003C00060E072E00C94FA12892B39F46F5F7F4F72
:1003D00021F48EE792E00C94CA13089580E090E037
:1003E0006FEF7FEFDFCF81E090E06FEF7FEFDACF4D
:1003F0000296BFC20F931F93CF93DF938B0164EFDD
:1004000071E080E090E00E94300AC0E0D0E01FC0C0
:100410008DE060E00E949E0B6AEF70E080E090E06B
:100420000E94300A8DE061E00E949E0B6AEF70E04E
:1004300080E090E00E94300A8DE060E00E949E0B18
:100440006AEF70E080E090E00E94300A2196C017C9
:10045000D107F4F2DF91CF911F910F9108958F9200
:100460009F92AF92BF92CF92DF92EF92FF920F9343
:100470001F93DF93CF93CDB7DEB72C970FB6F894C9
:10048000DEBF0FBECDBF4C0186E4C82ED12CC80CF8
:10049000D91C7E010894E11CF11CC701B60143E0A0
:1004A00050E024E030E00E947013C7010E9418124F
:1004B0005B018E01095F1F4FC801B60145E050E0A6
:1004C00026E030E00E947013C701B8010E94B51306
:1004D000C8010E94CA13C7010E9418127B018C0137
:1004E000C60162E070E00E940312FC0180818B3241
:1004F00021F48AE590E0A80EB91EC401805C9F4FEC
:10050000B501D3D26FE070E080E090E0A9D7C401DC
:100510008D5B9F4FB701C9D26FE070E080E090E043
:100520009FD78FE595E061E072E00E94BA118FE5F8
:1005300095E00E94CD0FCE0101960E94CA132C9621
:100540000FB6F894DEBF0FBECDBFCF91DF911F91E4
:100550000F91FF90EF90DF90CF90BF90AF909F9062
:100560008F9008950F931F9363E070E043DF0FE5D2
:1005700015E0C80166E072E00E94BA11C8010E944D
:10058000CD0F1F910F9108950F931F9365E070E0B9
:1005900031DF0FE515E0C8016BE072E00E94BA118F
:1005A000C8010E94CD0F1F910F910895AF92BF9285
:1005B000CF92DF92EF92FF920F931F93DF93CF932F
:1005C000CDB7DEB76E970FB6F894DEBF0FBECDBFC6
:1005D0007C01CE01019660E072E00E94FA128BE885
:1005E00092E0E4D15C0192E5C92ED12CCE0CDF1C47
:1005F000F60180818823E9F08BE892E0D7D18C0165
:100600008BE892E0D3D120E530E0E20EF31E080F34
:10061000191FC8018A0D9B1D63E070E00E940F1630
:10062000F7017183608320EB3FEFE20EF31EF601CA
:10063000108220E530E0E20EF31EF7018081918107
:1006400020EB3FEFE20EF31E8A199B09F701E25BF4
:10065000FF4F9183808397FF02C0118210828E0129
:10066000095F1F4F8EE490E0E80EF91EF7016081EC
:100670007181C8014AE00E9441137E010894E11C87
:10068000F11CC701B8010E94B513C8010E94CA132A
:100690008D819E818330910539F48E01035F1F4F58
:1006A000C80160E172E00FC0029739F48E010D5E5F
:1006B0001F4FC80166E172E006C08E01075E1F4F42
:1006C000C8016BE172E00E941213C801B7010E94D9
:1006D000C71264E172E00E94AD12BC018FE595E0A3
:1006E0000E948C11C8010E94CE138FE595E00E94F4
:1006F000CD0FCE0101960E94CA136E960FB6F894E4
:10070000DEBF0FBECDBFCF91DF911F910F91FF9044
:10071000EF90DF90CF90BF90AF900895CF93DF938D
:10072000EC018A5B9F4F61E070E00E940312FC01C4
:10073000E081E93459F0E23519F0E43451F403C0B2
:10074000CE0134DF08C0CE011FDF05C0CE0187DE39
:1007500002C0CE0107DFDF91CF910895BF92CF9203
:10076000DF92EF92FF920F931F93CF93DF93EC01F1
:100770008C010A5B1F4F4DE4E42EF12CE80EF91EAC
:100780003CE4C32ED12CC80ED91EBB24B39410C098
:100790008FE595E00E94A40F682FF7018083C801C0
:1007A0000E948912F70180818A3011F4F601B0822B
:1007B0008FE595E00E94720F181619064CF36AEF48
:1007C00070E080E090E04CD62CE4E22EF12CEC0EB0
:1007D000FD1EF7018081882391F0C80160E070E080
:1007E0000E940312FC018081843249F4CE0196DF1D
:1007F000C80160E072E00E942A13F7011082DF91C5
:10080000CF911F910F91FF90EF90DF90CF90BF900D
:100810000895EF92FF920F931F937C018BE892E073
:100820006AE370E046E050E0D9D08EE490E0E80E54
:10083000F91EF70111921192119211927F0181E03C
:1008400080838EEA9FEFE80EF91EC701029662E0F0
:1008500070E044EF51E021E030E07FD0C7010C961A
:1008600063E070E044EF51E021E030E076D08701B2
:100870000A5E1F4FC80164E070E044EF51E020E0E1
:1008800030E06BD0C80165E070E044EF51E020E05B
:1008900030E063D088E260E09ED6C7018A9667E0C8
:1008A00070E04EE150E02FE130E000E010E044D095
:1008B000C701C59668E070E040E250E021E230E018
:1008C00001E010E039D087E061E085D68EE161E09B
:1008D00082D6C7018D5B9F4F69E070E0FCD1C701F4
:1008E000805C9F4F6AE070E0F6D18DE061E073D6E6
:1008F000EDE4F0E0EE0EFF1EF701108283EB9FEFB8
:10090000E80EF91EC7018A5B9F4F60E072E00E940B
:100910002A13ECE4F0E0EE0EFF1EF70110828FE5E3
:1009200095E040E052EC61E070E00E94EC0E1F9117
:100930000F91FF90EF9008950F931F93FC01718327
:100940006083538342833583248317821682128601
:10095000118700871F910F910895FC0171836083B7
:10096000538342833187208714821582168217822F
:100970000895CF93DF93EC0188E212D7019741F4F9
:100980008C819D81AE81BF810196A11DB11D07C0E3
:100990008C819D81AE81BF810197A109B1098C83B2
:1009A0009D83AE83BF83DF91CF9108950F931F93F3
:1009B0008C01FC01848161E020E432E44FE050E0EE
:1009C0001ED7DC01CB01F801628173810E940F16F2
:1009D000CB01608391831F910F9108950F931F9313
:1009E0008C01842FF801738362834483558360E014
:1009F000F2D5F801118210821F910F910895FC0128
:100A000080919102803390F480838F5F8093910274
:100A1000815090E0FC01EE0FFF1FE80FF91FEE562A
:100A2000FD4F88EB9BE09283818308958FEF808355
:100A30000895FC0120812033B8F58181992787FD35
:100A4000909548E850E0481B590B440F551F440F40
:100A5000551F6417750784F08281992787FD90954B
:100A600048E552E0481B590B440F551F440F551FD2
:100A7000641775070CF4AB0142505040CA01AA2715
:100A800097FDA095BA2F880F991FAA1FBB1F4FB7BC
:100A9000F89430E0F901EE0FFF1FE20FF31FEE565E
:100AA000FD4F928381834FBF0895AF92BF92CF9243
:100AB000DF92EF92FF920F931F93CF93DF93EC019E
:100AC0009B0182E0603278070CF048C077FF03C0DA
:100AD00020E030E005C0653B710514F024EB30E008
:100AE00000D00F92B901882777FD8095982F298132
:100AF000332727FD3095E8E8AE2EB12CA21AB30AB1
:100B0000AA0CBB1CAA0CBB1CCC24B7FCC094DC2CCC
:100B1000EA81FF27E7FDF09528E532E02E1B3F0B29
:100B2000220F331F220F331F442737FD4095542FC8
:100B3000EDB7FEB7218332834383548320E030E056
:100B400040E050E004EBE02EF12C012D112D0E942D
:100B5000BC119B010F900F900F900F90CE01B90127
:100B600068DFDF91CF911F910F91FF90EF90DF90A1
:100B7000CF90BF90AF900895CF92DF92EF92FF9207
:100B80001F93CF93DF93EC01162F7A0169018881BF
:100B9000803308F092C0862F61E01DD5888190E0F7
:100BA000FC01EE0FFF1FE80FF91FEE56FD4F1F73FC
:100BB0008081807C812B808380E292E08E199F0966
:100BC00064E070E00E940F16698380E699E08C195A
:100BD0009D0964E070E00E940F166A83A8818A2F45
:100BE0006CE00E940316682F70E0AB01440F551FA4
:100BF000460F571F440F551F440F551F20E030E08C
:100C0000C901840F951FFC01EE0FFF1FE80FF91FAC
:100C1000EE56FD4F808186FD44C02F5F3F4F2C3044
:100C2000310571F753C01092800082E080938100FB
:100C30001092850010928400B19A80916F008260BA
:100C400080936F002EC06230710569F4109290009D
:100C500082E080939100109295001092940088BBDE
:100C6000809371001EC06330710569F41092A0007A
:100C700082E08093A1001092A5001092A40089BB8D
:100C8000809372000EC0672B61F41092200182E005
:100C90008093210110922501109224018ABB809338
:100CA00073008A2F90E0FC01EE0FFF1FE80FF91F81
:100CB000EE56FD4F8081806480838881DF91CF91E3
:100CC0001F91FF90EF90DF90CF90089561307105F4
:100CD00009F0B9CFA8CF40E252E020E639E04CCF8E
:100CE000EF92FF920F931F93CF93DF938B017A01C3
:100CF000EC01DC01AE5DBC4F8C9187FF04C0FB01B1
:100D00001182108236C0AE01440F551F4C0F5D1F7B
:100D1000440F551F440F551F2C91332727FD309545
:100D2000240F351F8091910290E0281739070CF5A8
:100D30008C91992787FD9095840F951FFC01EE0FEC
:100D4000FF1FE80FF91FEE56FD4F808186FF11C08F
:100D50008C91992787FD9095840F951FFC01EE0FCC
:100D6000FF1FE80FF91FEE56FD4F80818F7360E083
:100D7000E5D4DE01AE5DBC4F8C918F5F8C93AE01EC
:100D8000440F551F4C0F5D1F440F551F440F551F37
:100D90002C91332727FD3095240F351F8091910228
:100DA00090E0281739070CF04CC08C918C300CF077
:100DB00048C0F801208131818C91992787FD909559
:100DC000840F951FFC01EE0FFF1FE80FF91FEE5671
:100DD000FD4F81819281280F391FF70131832083D4
:100DE0008C91992787FD9095840F951FFC01EE0F3C
:100DF000FF1FE80FF91FEE56FD4F808186FF29C0C7
:100E00008C91992787FD9095840F951FFC01EE0F1B
:100E1000FF1FE80FF91FEE56FD4F80818F7361E0D1
:100E20008DD417C080E49CE904C0F80180819181D1
:100E30000496F70191838083CE5DDC4F8FEF88832A
:100E400008C0F80180819181049680549C4950F338
:100E5000ECCFDF91CF911F910F91FF90EF9008950C
:100E60001F920F920FB60F920BB60F9211242F9371
:100E70003F934F935F936F937F938F939F93AF9322
:100E8000BF93EF93FF9380E090E064E271E048E26B
:100E900051E026DFFF91EF91BF91AF919F918F912C
:100EA0007F916F915F914F913F912F910F900BBE6A
:100EB0000F900FBE0F901F9018951F920F920FB6B4
:100EC0000F920BB60F9211242F933F934F935F9382
:100ED0006F937F938F939F93AF93BF93EF93FF9302
:100EE00083E090E064EA70E048EA50E0F9DEFF91C8
:100EF000EF91BF91AF919F918F917F916F915F9192
:100F00004F913F912F910F900BBE0F900FBE0F90FE
:100F10001F9018951F920F920FB60F920BB60F925B
:100F200011242F933F934F935F936F937F938F93EE
:100F30009F93AF93BF93EF93FF9382E090E064E9B8
:100F400070E048E950E0CCDEFF91EF91BF91AF91A6
:100F50009F918F917F916F915F914F913F912F91D1
:100F60000F900BBE0F900FBE0F901F9018951F9201
:100F70000F920FB60F920BB60F9211242F933F933F
:100F80004F935F936F937F938F939F93AF93BF9391
:100F9000EF93FF9381E090E064E870E048E850E070
:100FA0009FDEFF91EF91BF91AF919F918F917F91C4
:100FB0006F915F914F913F912F910F900BBE0F90CA
:100FC0000FBE0F901F901895883008F078C0E82F5A
:100FD000F0E0EE0FFF1FEA5DFC4F7183608383300A
:100FE000D9F0843030F4813009F444C0823060F4A8
:100FF00039C0853051F18530D8F0863009F446C0CB
:10100000873009F05CC04FC0809169008C7F842BD1
:1010100080936900E89A089580916900440F551FF4
:10102000440F551F837F842B80936900E99A0895AC
:101030008091690074E0440F551F7A95E1F78F7C29
:10104000842B80936900EA9A08958091690066E094
:10105000440F551F6A95E1F78F73842B80936900C5
:10106000EB9A089580916A008C7F842B80936A00AC
:10107000EC9A089580916A00440F551F440F551F44
:10108000837F842B80936A00ED9A089580916A0093
:1010900024E0440F551F2A95E1F78F7C842B809321
:1010A0006A00EE9A089580916A0096E0440F551FF9
:1010B0009A95E1F78F73842B80936A00EF9A0895D5
:1010C0001F920F920FB60F920BB60F9211242F930F
:1010D0003F934F935F936F937F938F939F93AF93C0
:1010E000BF93EF93FF9380912A0390912B03892B59
:1010F00029F0E0912A03F0912B031995FF91EF91CC
:10110000BF91AF919F918F917F916F915F914F911F
:101110003F912F910F900BBE0F900FBE0F901F901D
:1011200018951F920F920FB60F920BB60F921124C3
:101130002F933F934F935F936F937F938F939F93DF
:10114000AF93BF93EF93FF9380912C0390912D0366
:10115000892B29F0E0912C03F0912D031995FF9133
:10116000EF91BF91AF919F918F917F916F915F911F
:101170004F913F912F910F900BBE0F900FBE0F908C
:101180001F9018951F920F920FB60F920BB60F92E9
:1011900011242F933F934F935F936F937F938F937C
:1011A0009F93AF93BF93EF93FF9380912E03909102
:1011B0002F03892B29F0E0912E03F0912F0319952D
:1011C000FF91EF91BF91AF919F918F917F916F911F
:1011D0005F914F913F912F910F900BBE0F900FBEDB
:1011E0000F901F9018951F920F920FB60F920BB68B
:1011F0000F9211242F933F934F935F936F937F939D
:101200008F939F93AF93BF93EF93FF93809130039E
:1012100090913103892B29F0E0913003F091310353
:101220001995FF91EF91BF91AF919F918F917F9110
:101230006F915F914F913F912F910F900BBE0F9047
:101240000FBE0F901F9018951F920F920FB60F921E
:101250000BB60F9211242F933F934F935F936F938D
:101260007F938F939F93AF93BF93EF93FF9380915F
:10127000260390912703892B29F0E0912603F09112
:1012800027031995FF91EF91BF91AF919F918F9196
:101290007F916F915F914F913F912F910F900BBE76
:1012A0000F900FBE0F901F9018951F920F920FB6C0
:1012B0000F920BB60F9211242F933F934F935F938E
:1012C0006F937F938F939F93AF93BF93EF93FF930E
:1012D0008091280390912903892B29F0E09128031C
:1012E000F09129031995FF91EF91BF91AF919F91D3
:1012F0008F917F916F915F914F913F912F910F90BF
:101300000BBE0F900FBE0F901F9018951F920F925B
:101310000FB60F920BB60F9211242F933F934F935A
:101320005F936F937F938F939F93AF93BF93EF934D
:10133000FF938091320390913303892B29F0E09140
:101340003203F09133031995FF91EF91BF91AF9163
:101350009F918F917F916F915F914F913F912F91CD
:101360000F900BBE0F900FBE0F901F9018951F92FD
:101370000F920FB60F920BB60F9211242F933F933B
:101380004F935F936F937F938F939F93AF93BF938D
:10139000EF93FF938091340390913503892B29F0CB
:1013A000E0913403F09135031995FF91EF91BF91CE
:1013B000AF919F918F917F916F915F914F913F91ED
:1013C0002F910F900BBE0F900FBE0F901F9018958E
:1013D0001F920F920FB60F9211242F933F938F936A
:1013E0009F93AF93BF9380913A0390913B03A09159
:1013F0003C03B0913D0330913E030196A11DB11D08
:10140000232F2D5F2D3720F02D570196A11DB11DE3
:1014100020933E0380933A0390933B03A0933C03B5
:10142000B0933D038091360390913703A091380328
:10143000B09139030196A11DB11D8093360390939D
:101440003703A0933803B0933903BF91AF919F91B5
:101450008F913F912F910F900FBE0F901F90189575
:101460009B01AC017FB7F8948091360390913703CC
:10147000A0913803B091390366B5A89B05C06F3FB2
:1014800019F00196A11DB11D7FBFBA2FA92F982F6A
:101490008827860F911DA11DB11D62E0880F991F3D
:1014A000AA1FBB1F6A95D1F7BC012DC0FFB7F894E6
:1014B0008091360390913703A0913803B09139039E
:1014C000E6B5A89B05C0EF3F19F00196A11DB11D1F
:1014D000FFBFBA2FA92F982F88278E0F911DA11D0E
:1014E000B11DE2E0880F991FAA1FBB1FEA95D1F733
:1014F000861B970B885E9340C8F2215030404040D5
:10150000504068517C4F211531054105510571F658
:101510000895789484B5826084BD84B5816084BD6B
:1015200085B5826085BD85B5816085BDEEE6F0E05C
:10153000808181608083E1E8F0E0108280818260B8
:101540008083808181608083E0E8F0E08081816039
:101550008083E1EBF0E0808184608083E0EBF0E069
:10156000808181608083E1E9F0E080818260808316
:10157000808181608083E0E9F0E080818160808308
:10158000E1EAF0E0808182608083808181608083F5
:10159000E0EAF0E0808181608083E1E2F1E0808137
:1015A00082608083808181608083E0E2F1E08081DD
:1015B00081608083EAE7F0E08081846080838081BD
:1015C0008260808380818160808380818068808365
:1015D0001092C1000895CF93DF93482F50E0CA01C5
:1015E00088589E4FFC0134914E5C5E4FFA01849105
:1015F000882369F190E0880F991FFC01EC51FF4F9F
:10160000A591B491FC01E250FF4FC591D49166239E
:1016100051F42FB7F8948C91932F909589238C9344
:10162000888189230BC0623061F42FB7F8948C91C4
:10163000932F909589238C938881832B88832FBF48
:1016400006C09FB7F8948C91832B8C939FBFDF913A
:10165000CF910895893009F449C08A30A0F48430CC
:1016600051F1853040F4823079F1833000F58130DA
:1016700009F063C026C0873079F1883098F586304C
:1016800009F05BC025C08D3009F442C08E3028F4CB
:101690008B30B1F18C30C0F52DC0803109F442C0DF
:1016A000813109F445C08F3009F047C037C08091BF
:1016B00080008F7703C0809180008F7D80938000B1
:1016C000089584B58F7702C084B58F7D84BD089559
:1016D0008091B0008F7703C08091B0008F7D8093A0
:1016E000B0000895809190008F7707C0809190009E
:1016F0008F7D03C080919000877F80939000089534
:101700008091A0008F7707C08091A0008F7D03C0DB
:101710008091A000877F8093A00008958091200190
:101720008F7703C0809120018F7D809320010895E1
:1017300080912001877F809320010895FF920F936D
:101740001F93F62E482F50E0CA0182549E4FFC0191
:101750002491CA0188589E4FFC0114914E5C5E4F43
:10176000FA0104910023C1F0222311F0822F72DFCD
:10177000E02FF0E0EE0FFF1FE250FF4FA591B49174
:101780009FB7F894FF2021F48C911095812302C01B
:101790008C91812B8C939FBF1F910F91FF90089587
:1017A0000F931F93482F50E0CA0182549E4FFC01B3
:1017B0002491CA0188589E4FFC0104914E5C5E4FF3
:1017C000FA011491112319F420E030E014C022230F
:1017D00011F0822F3FDF812F90E0880F991F885EE4
:1017E0009E4FFC01A591B4918C9120E030E08023C4
:1017F00011F021E030E0C9011F910F9108958F92FF
:101800009F92AF92BF92CF92DF92EF92FF920F938F
:101810001F93CF93DF93A82FB0E0CD0188589E4F40
:10182000FC018490AE5CBE4FFD018491662311F4EF
:10183000992401C0982C6FEFA62E6FEFB62E6FEF94
:10184000C62E6FE0D62EA222B322C422D522682F44
:1018500070E0660F771F685E7E4FEE24FF248701DD
:10186000FB01A591B4910BC0EA14FB040C051D0506
:1018700009F44EC00894E11CF11C011D111D8C914E
:101880008821891589F30CC0EA14FB040C051D0599
:1018900009F43EC00894E11CF11C011D111D03C098
:1018A000FB01A591B4918C918821891569F720E0FD
:1018B00030E040E050E0FB01C591D4910FC0DA0167
:1018C000C9018E0D9F1DA01FB11F8A159B05AC0578
:1018D000BD05F1F02F5F3F4F4F4F5F4F888188214B
:1018E000891569F3CA01B90125E130E040E050E013
:1018F0000E94E4159B01AC01205F3F4F4F4F5F4FAB
:1019000084E056954795379527958A95D1F704C079
:1019100020E030E040E050E0B901CA01DF91CF9112
:101920001F910F91FF90EF90DF90CF90BF90AF90FD
:101930009F908F90089508951F920F920FB60F9267
:101940000BB60F9211242F933F934F938F939F9336
:10195000EF93FF938091C00082FD1DC04091C600AF
:1019600020917F03309180032F5F3F4F2F733070A2
:1019700080918103909182032817390771F0E091DB
:101980007F03F0918003E15CFC4F40833093800340
:1019900020937F0302C08091C600FF91EF919F9139
:1019A0008F914F913F912F910F900BBE0F900FBED3
:1019B0000F901F90189508951F920F920FB60F92D7
:1019C0000BB60F9211242F933F934F938F939F93B6
:1019D000EF93FF938091C80082FD1DC04091CE001F
:1019E00020910704309108042F5F3F4F2F73307010
:1019F0008091090490910A042817390771F0E09149
:101A00000704F0910804E953FC4F40833093080425
:101A10002093070402C08091CE00FF91EF919F9127
:101A20008F914F913F912F910F900BBE0F900FBE52
:101A30000F901F90189508951F920F920FB60F9256
:101A40000BB60F9211242F933F934F938F939F9335
:101A5000EF93FF938091D00082FD1DC04091D6008E
:101A600020918F04309190042F5F3F4F2F7330707F
:101A700080919104909192042817390771F0E091B8
:101A80008F04F0919004E15BFB4F4083309390040E
:101A900020938F0402C08091D600FF91EF919F9117
:101AA0008F914F913F912F910F900BBE0F900FBED2
:101AB0000F901F90189508951F920F920FB60F92D6
:101AC0000BB60F9211242F933F934F938F939F93B5
:101AD000EF93FF938091300182FD1DC0409136014C
:101AE00020911705309118052F5F3F4F2F733070ED
:101AF0008091190590911A052817390771F0E09126
:101B00001705F0911805E952FB4F408330931805F3
:101B10002093170502C080913601FF91EF919F91AC
:101B20008F914F913F912F910F900BBE0F900FBE51
:101B30000F901F901895E0916B05F0916C05E05C9B
:101B4000FF4F8191919120813181805C9F4F821B59
:101B5000930B60E470E00E940F16892B09F0EBDE16
:101B6000E0918D05F0918E05E05CFF4F81919191A0
:101B700020813181805C9F4F821B930B60E470E079
:101B80000E940F16892B09F016DFE091AF05F09146
:101B9000B005E05CFF4F8191919120813181805CA3
:101BA0009F4F821B930B60E470E00E940F16892BFD
:101BB00009F041DFE091D105F091D205E05CFF4FE3
:101BC0008191919120813181805C9F4F821B930B89
:101BD00060E470E00E940F16892B09F06CCF089525
:101BE0001F920F920FB60F920BB60F9211242F93E4
:101BF0003F938F939F93EF93FF932091C303309173
:101C0000C4038091C5039091C6032817390731F4A6
:101C10008091C1008F7D8093C10014C0E091C50305
:101C2000F091C603ED57FC4F20818091C503909140
:101C3000C60301968F7390709093C6038093C5037B
:101C40002093C600FF91EF919F918F913F912F912B
:101C50000F900BBE0F900FBE0F901F9018951F9204
:101C60000F920FB60F920BB60F9211242F933F9342
:101C70008F939F93EF93FF9320914B0430914C04EB
:101C800080914D0490914E042817390731F48091CA
:101C9000C9008F7D8093C90014C0E0914D04F0917C
:101CA0004E04E55FFB4F208180914D0490914E04DE
:101CB00001968F73907090934E0480934D042093FF
:101CC000CE00FF91EF919F918F913F912F910F90B7
:101CD0000BBE0F900FBE0F901F9018951F920F9282
:101CE0000FB60F920BB60F9211242F933F938F9341
:101CF0009F93EF93FF932091D3043091D40480916C
:101D0000D5049091D6042817390731F48091D10079
:101D10008F7D8093D10014C0E091D504F091D6045A
:101D2000ED56FB4F20818091D5049091D604019609
:101D30008F7390709093D6048093D5042093D6002F
:101D4000FF91EF919F918F913F912F910F900BBE3B
:101D50000F900FBE0F901F9018951F920F920FB605
:101D60000F920BB60F9211242F933F938F939F9353
:101D7000EF93FF9320915B0530915C0580915D05A9
:101D800090915E052817390731F4809131018F7DDC
:101D90008093310114C0E0915D05F0915E05E55E30
:101DA000FA4F208180915D0590915E0501968F73B9
:101DB000907090935E0580935D0520933601FF91AE
:101DC000EF919F918F913F912F910F900BBE0F90AC
:101DD0000FBE0F901F901895AF92BF92DF92EF92B7
:101DE000FF920F931F93CF93DF93EC017A018B0146
:101DF000DD24403081EE580780E0680780E07807F6
:101E000011F0DD24D39491E0A92EB12CEC89FD8949
:101E1000DD2069F0C50108A002C0880F991F0A944F
:101E2000E2F7808360E079E08DE390E005C0108206
:101E300060E874E88EE190E0A801970103D7215093
:101E4000304040405040569547953795279580E162
:101E50002030380720F0DD2011F0DD24D7CFE889CD
:101E6000F9893083EA89FB89208319A2EE89FF89E9
:101E7000408121E030E0C9010C8C02C0880F991F1D
:101E80000A94E2F7482B4083EE89FF894081C9011B
:101E90000D8C02C0880F991F0A94E2F7482B4083EB
:101EA000EE89FF894081C9010E8C02C0880F991FFD
:101EB0000A94E2F7482B4083EE89FF8980810F8CDA
:101EC00002C0220F331F0A94E2F7209528232083B3
:101ED000DF91CF911F910F91FF90EF90DF90BF9016
:101EE000AF900895DC011C96ED91FC911D97E05C8C
:101EF000FF4F8191919120813181805C9F4F821BA6
:101F0000930B60E470E08BC6DC011C96ED91FC91B4
:101F10001D97E05CFF4F20813181E054F040DF01EC
:101F2000AE5BBF4F8D919C9111972817390719F41B
:101F30002FEF3FEF07C08D919C91E80FF91F808133
:101F4000282F30E0C9010895DC011C96ED91FC9129
:101F50001D97E05CFF4F20813181E054F040DF01AC
:101F6000AE5BBF4F8D919C9111972817390719F4DB
:101F70002FEF3FEF10C08D919C911197E80FF91F43
:101F800020818D919C91119701968F73907011967D
:101F90009C938E9330E0C9010895DC0191968C9159
:101FA0009197882339F05496ED91FC915597808153
:101FB00086FFF9CF91961C920895CF93DF93EC01A1
:101FC000EE85FF85E05CFF4F20813181E054F040D9
:101FD0002F5F3F4F2F733070DF01AE5BBF4F8D918E
:101FE0009C91119728173907D1F3E05CFF4F80814E
:101FF0009181E054F040E80FF91F6083EE85FF8582
:10200000E05CFF4F31832083EE89FF89208181E0EE
:1020100090E00F8C02C0880F991F0A94E2F7282BDA
:10202000208381E089A3EC89FD898081806480839D
:1020300081E090E0DF91CF9108951F9310926205A7
:102040001092610528EE33E040E050E020936305F4
:102050003093640540936505509366056CE272E029
:102060007093600560935F058FE393E090936C0538
:1020700080936B0583E893E090936E0580936D05E4
:1020800085EC90E09093700580936F0584EC90E070
:10209000909372058093710580EC90E090937405A5
:1020A0008093730581EC90E090937605809375059D
:1020B00082EC90E0909378058093770586EC90E031
:1020C00090937A058093790514E010937B05B3E033
:1020D000B0937C05A7E0A0937D05F5E0F0937E0525
:1020E000E1E0E0937F051092840510928305209330
:1020F0008505309386054093870550938805709336
:1021000082056093810587EC93E090938E05809320
:102110008D058BE094E09093900580938F058DEC76
:1021200090E090939205809391058CEC90E09093D1
:1021300094058093930588EC90E0909396058093A6
:10214000950589EC90E090939805809397058AEC2B
:1021500090E090939A05809399058EEC90E090938F
:102160009C0580939B0510939D05B0939E05A093BD
:102170009F05F093A005E093A1051092A60510928B
:10218000A5052093A7053093A8054093A905509372
:10219000AA057093A4056093A3058FE494E090933F
:1021A000B0058093AF0583E994E09093B2058093E6
:1021B000B10585ED90E09093B4058093B30584ED6F
:1021C00090E09093B6058093B50580ED90E09093F4
:1021D000B8058093B70581ED90E09093BA058093A0
:1021E000B90582ED90E09093BC058093BB0586ED28
:1021F00090E09093BE058093BD051093BF05B0930A
:10220000C005A093C105F093C205E093C3051092E9
:10221000C8051092C7052093C9053093CA0540939D
:10222000CB055093CC057093C6056093C50587ED2B
:1022300094E09093D2058093D1058BE195E0909343
:10224000D4058093D30585E391E09093D6058093E0
:10225000D50584E391E09093D8058093D70580E37A
:1022600091E09093DA058093D90581E391E0909312
:10227000DC058093DB0582E391E09093DE0580939B
:10228000DD0586E391E09093E0058093DF051093F0
:10229000E105B093E205A093E305F093E405E09334
:1022A000E5051F9108950895CF93DF9332D9FBDFA1
:1022B0000E94B401CBE9DDE00E94B1012097E1F377
:1022C0003ADCFACFCF92DF92EF92FF920F931F93F7
:1022D000CF93DF937C016B018A01C0E0D0E00FC097
:1022E000D6016D916D01D701ED91FC910190F081C6
:1022F000E02DC7011995C80FD91F015010400115D5
:10230000110571F7CE01DF91CF911F910F91FF90D1
:10231000EF90DF90CF900895CF93DF93FB01EC0116
:10232000A881B98160817181448155811296ED91B6
:10233000FC9113971995DF91CF910895CF93DF9377
:10234000EC016115710519F420E030E00FC0DB01EC
:102350000D900020E9F71197A61BB70BE881F981D2
:102360000280F381E02DAD0119959C01C901DF9137
:10237000CF910895E3CF08952F923F924F925F92AD
:102380006F927F928F929F92AF92BF92CF92DF9285
:10239000EF92FF920F931F93DF93CF93CDB7DEB7EA
:1023A0003B014C0119012A016E897F89888D998D25
:1023B0006A197B098C099D09621A730A840A950AB5
:1023C000A401930101D4E218F30804091509A80136
:1023D00097015AD42A0D3B1D4C1D5D1DB901CA0140
:1023E000CF91DF911F910F91FF90EF90DF90CF90F1
:1023F000BF90AF909F908F907F906F905F904F9025
:102400003F902F900895FC019B018481958168176E
:10241000790728F4608171816115710529F41092A2
:10242000E70567EE75E002C0620F731FCB010895E8
:10243000FC0180819181009729F420E030E040E0A8
:1024400050E004C00E9433019B01AC01B901CA01F4
:1024500008950F931F93CF93DF93EC018B016F5F70
:102460007F4F88819981D3D2009711F480E005C015
:10247000998388831B830A8381E0DF91CF911F9129
:102480000F910895CF93DF93EC0188819981892B77
:1024900029F08A819B818617970758F4CE01D9DFEE
:1024A000882341F08C819D81892B19F4E881F98181
:1024B000108281E0DF91CF910895EF92FF920F9308
:1024C0001F93CF93DF93EC017B016C817D81E1143D
:1024D000F104B9F04115510591F08A01060F171F5B
:1024E000B801D0DF882369F0888199812C813D81F2
:1024F000820F931FB7010E9462011D830C8381E04C
:1025000001C080E0DF91CF911F910F91FF90EF907C
:102510000895DF93CF930F920F92CDB7DEB7698303
:102520001A82BE016F5F7F4F41E050E0C6DF0F901F
:102530000F90CF91DF910895CF93DF93EC018881C5
:102540009981009709F0CBD1198218821D821C82D3
:102550001B821A82DF91CF9108950F931F93182F3A
:10256000092F6115710559F0DB010D900020E9F785
:102570001197A61BB70BAD01A0DF882319F4812F9B
:10258000902FDADF812F902F1F910F9108950F93D5
:102590001F93182F092FFB016081718144815581A0
:1025A0008CDF882319F4812F902FC6DF812F902F85
:1025B0001F910F910895EF92FF920F931F93CF9366
:1025C000DF93EC017B018A01BA015CDF882319F4F7
:1025D000CE01B2DF07C01D830C8388819981B701CA
:1025E0000E946201CE01DF91CF911F910F91FF9068
:1025F000EF900895CF93DF93EC01198218821B822C
:102600001A821D821C826115710549F0DB010D9053
:102610000020E9F71197A61BB70BAD01CCDFDF91C6
:10262000CF910895CF93DF93EC01198218821B821A
:102630001A821D821C826115710549F0DB010D9023
:102640000020E9F71197A61BB70BAD01B4DFDF91AE
:10265000CF9108950F931F93182F092F61157105BE
:1026600051F0DB010D900020E9F71197A61BB70B85
:10267000AD01A1DF01C060DF812F902F1F910F916D
:102680000895EF92FF920F931F93DF93CF93CDB7EF
:10269000DEB762970FB6F894DEBF0FBECDBF8C01D8
:1026A000CB01F801118210821382128215821482EA
:1026B0007E010894E11CF11CB70150E00E94690101
:1026C000C801B701C7DF62960FB6F894DEBF0FBE30
:1026D000CDBFCF91DF911F910F91FF90EF900895A3
:1026E000BF92CF92DF92EF92FF920F931F93CF93FF
:1026F000DF93082FB92E6B017A01E9012417350702
:1027000010F4EA017901802F9B2D61E272E072DF03
:10271000D60114968D919C9115978E159F05C8F042
:102720008C179D0708F4EC01D601ED91FC911197EF
:10273000EC0FFD1F108110826D917C916E0D7F1D3D
:10274000802F9B2D87DFD601ED91FC91EC0FFD1FB3
:102750001083802F9B2DDF91CF911F910F91FF90C0
:10276000EF90DF90CF90BF900895CF93DF93EC016F
:10277000FB018617970751F0608171816115710522
:1027800021F04481558117DF01C0D6DECE01DF91F3
:10279000CF910895FC0180819181A1C0FC018081CD
:1027A00091819DC00F931F93CF93DF93BC01823023
:1027B000910510F462E070E0E091EA05F091EB051C
:1027C00040E050E0A0E0B0E024C080819181861715
:1027D0009707D0F08617970771F48281938110973D
:1027E00029F013969C938E9312972CC09093EB052F
:1027F0008093EA0527C04115510519F08417950704
:1028000018F48D01AC01EF01DF01828193819C01FD
:10281000F9013097D1F641155105F9F0CA01861B2F
:10282000970B8430910580F48A819B8101151105F5
:1028300021F0F8019383828304C09093EB05809389
:10284000EA05FE01329645C0FE01E80FF91F6193CB
:1028500071930297998388833CC08091E805909199
:10286000E905892B41F480912402909125029093EF
:10287000E9058093E8054091260250912702411511
:10288000510541F44DB75EB7809122029091230229
:10289000481B590B2091E8053091E90524173507AD
:1028A000B0F4CA01821B930B8617970780F0AB0127
:1028B0004E5F5F4F8417950750F0420F531F5093A0
:1028C000E9054093E805F9016193719302C0E0E0E6
:1028D000F0E0CF01DF91CF911F910F910895CF9339
:1028E000DF939C01009709F48FC0EC0122971B82B3
:1028F0001A826091EA057091EB056115710581F40A
:1029000088819981820F931F2091E8053091E90514
:102910002817390739F5D093E905C093E80574C045
:10292000DB0140E050E0AC17BD0708F1BB83AA8390
:10293000FE0121913191E20FF31FAE17BF0779F429
:102940008D919C911197280F391F2E5F3F4F39832E
:10295000288312968D919C9113979B838A834115AE
:10296000510571F4D093EB05C093EA054DC0129662
:102970008D919C911397AD01009711F0DC01D3CF9D
:10298000DA011396DC93CE931297FA0121913191DB
:10299000E20FF31FCE17DF0769F488819981280FB2
:1029A000391F2E5F3F4FFA01318320838A819B813B
:1029B00093838283E0E0F0E0DB0112968D919C919D
:1029C0001397009719F0BC01FD01F6CFAB014E5FE4
:1029D0005F4FDB018D919C91840F951F2091E8053D
:1029E0003091E9052817390779F4309729F41092C6
:1029F000EB051092EA0502C0138212824250504049
:102A00005093E9054093E805DF91CF9108956F92C7
:102A10007F928F929F92AF92BF92CF92DF92EF926E
:102A2000FF920F931F93CF93DF938C01009721F4B4
:102A3000CB01B8DE8C01B8C08EEFE82E8FEFF82EF8
:102A4000E00EF11E4801860E971E8E149F0408F4B6
:102A5000A9C0D7014D915C91119746175707B0F067
:102A60004530510508F4A0C0CA010497861797079E
:102A700008F49AC042505040461B570BF401419352
:102A800051936D937C93CF012ADF8EC05B01A41A12
:102A9000B50A3801640E751EA091EA05B091EB05E8
:102AA000E0E0F0E0CC24DD2447C0A615B705A9F589
:102AB000CD91DC911197CE0102968A159B0568F1A4
:102AC000CE018A199B09029612962C9112971396A1
:102AD0003C91059758F0F40122833383CA19DB092E
:102AE000D183C083D7016D937C9309C04E5F5F4F44
:102AF0004C0F5D1FF70151834083C901FC01C114D4
:102B0000D10431F0D6011396FC93EE9312974CC08A
:102B1000F093EB05E093EA0547C08D919C911197E6
:102B2000E817F90708F4FC016D0112968C911297D1
:102B300013969C919C01D901109709F0B6CF809112
:102B4000E8059091E90586159705E9F4E617F7077A
:102B5000D0F420912602309127022115310541F44D
:102B60002DB73EB78091220290912302281B390B8A
:102B700082169306B8F49092E9058092E805F70171
:102B80007183608311C0CB010DDEEC01009751F021
:102B9000D7014D915C91B8010E945901C8019FDE97
:102BA0008E0102C000E010E0C801DF91CF911F91BB
:102BB0000F91FF90EF90DF90CF90BF90AF909F90DC
:102BC0008F907F906F900895629FD001739FF00166
:102BD000829FE00DF11D649FE00DF11D929FF00DAD
:102BE000839FF00D749FF00D659FF00D9927729FE4
:102BF000B00DE11DF91F639FB00DE11DF91FBD016F
:102C0000CF0111240895991B79E004C0991F9617EC
:102C100008F0961B881F7A95C9F78095089597FB51
:102C2000092E07260AD077FD04D049D006D000200F
:102C30001AF4709561957F4F0895F6F790958195F8
:102C40009F4F0895A1E21A2EAA1BBB1BFD010DC0C8
:102C5000AA1FBB1FEE1FFF1FA217B307E407F5074C
:102C600020F0A21BB30BE40BF50B661F771F881F28
:102C7000991F1A9469F760957095809590959B01BE
:102C8000AC01BD01CF01089597FB092E05260ED09A
:102C900057FD04D0D7DF0AD0001C38F4509540957A
:102CA000309521953F4F4F4F5F4F0895F6F7909520
:102CB0008095709561957F4F8F4F9F4F0895AA1B08
:102CC000BB1B51E107C0AA1FBB1FA617B70710F017
:102CD000A61BB70B881F991F5A95A9F78095909549
:102CE000BC01CD010895EE0FFF1F0590F491E02D7A
:102CF000199412E0C8E0D2E003C0FE01F6DF22968C
:0A2D0000CA30D107D1F7F894FFCFD5
:102D0A00002449500A002453500A002444500A005F
:102D1A00245250000A0024525030002452503030BD
:102D2A0000008000EC05000000000000DD0F6211C9
:082D3A00720FA40F840FCD0FEE
:00000001FF
