:100000000C941D020C94A3140C94D4140C94051598
:100010000C9436150C9467150C9498150C94C9150E
:100020000C94FA150C944E020C944E020C944E0251
:100030000C944E020C944E020C944E020C944E0200
:100040000C944E020C9411120C944E020C944E021D
:100050000C944E020C944E020C944E020C942B16EF
:100060000C944E020C94D91A0C940F1B0C944E0253
:100070000C944E020C944E020C944E020C944E02C0
:100080000C943F120C944E020C944E020C944E02AF
:100090000C944E020C944E020C944E020C944E02A0
:1000A0000C944E020C944E020C946D120C944E0261
:1000B0000C944E020C944E020C944E020C949B1223
:1000C0000C944E020C944E020C944E020C944E0270
:1000D0000C944E020C944E020C944E020C944E0260
:1000E0000C944E027D1447144F145B146814891449
:1000F0009614541759175E1768177217EB177C1769
:1001000084178C179617A017AA17B917C317EB17E0
:10011000CD17D717E1170D181018FF170318091876
:100120004718141818181E18221826182C183018DA
:10013000341847183A183E1842180C9434180C9486
:1001400092190C9426180C9458020C94CD170C9408
:1001500054020C9450020C94FF170C94D7170C9473
:10016000961B0C9414180C94C3170C948C170C94B5
:1001700047140C9472170C945B140C942C180C9468
:1001800054170C9403180C9465190C9410180C94C3
:100190005C020C9468140C9409180C944F140C9481
:1001A0007C170C9496140C94431B0C9470190C94AB
:1001B000121A0C947E190C940D180C94F0190C94CE
:1001C0003A180C9430180C945E170C9418180C9470
:1001D000A0170C9484170C9496170C943E180C944A
:1001E00055040C94E1170C9468170C947D140C942E
:1001F000B9170C94391B0C9442180C9489140C9464
:1002000047180C941E180C9467040C9422180C9434
:10021000AA170C9459170C94EB1700000A0B02094B
:100220000C0D0E0807030401000000000000000090
:1002300000000000000000000000000000000000BE
:10024000000000000000121110000000000000007B
:10025000000000000000000000000000000000009E
:1002600001021020200808102040102040800201C8
:1002700002010804020101020408102040808040AD
:1002800020100804020180040201804020100804AC
:10029000020108040201010204081020408001024A
:1002A0000408102040800505050507050808080812
:1002B000020202020A0A08080404040401010101FE
:1002C00001010101030303030303030304070707F9
:1002D0000C0C0C0C0C0C0C0C02020202060606069E
:1002E000060606060B0B0B0B0B0B0B0B000020007E
:1002F0002300260029002C002F00320000010000FE
:1003000003010601090100002200250028002B003E
:100310002E003100340002010000050108010B012C
:1003200000002100240027002A002D0030003300A7
:1003300001010000040107010A0100407A10F35A8C
:1003400000A0724E18090010A5D4E80000E8764815
:10035000170000E40B54020000CA9A3B000000E1C1
:10036000F505000080969800000040420F00000054
:10037000A08601000000102700000000E803000034
:1003800000006400000000000A00000000000100FE
:10039000000000002C76D888DC674F0823DFC1DF1F
:1003A000AE59E1B1B796E5E3E453C63AE651997622
:1003B00096E8E6C28426EB898C9B62ED407C6FFC5C
:1003C000EFBC9C9F40F2BAA56FA5F490055A2AF79E
:1003D0005C936B6CF9676DC11BFCE0E40D47FEF5A7
:1003E00020E6B500D0ED902E03009435770500800F
:1003F000841E080000204E0A000000C80C3333336E
:10040000330F986E12831141EF8D2114893BE6550D
:1004100016CFFEE6DB18D1844B381BF77C1D901DF0
:10042000A4BBE424203284725E228100C9F124EC52
:10043000A1E53D275504431B670411241FBECFEFE0
:10044000D1E2DEBFCDBF00E00CBF12E0A0E0B2E021
:10045000E4EBFCE400E00BBF02C007900D92A43572
:10046000B107D9F724E0A4E5B2E001C01D92AF3294
:10047000B207E1F714E0C8E3D4E000E006C0229739
:100480000109FE010BBF0E940521C433D10780E0A2
:100490000807A9F70E94871B0C9448260C940000BB
:1004A00084E592E00C94480484E592E00C944B04BB
:1004B00084E592E00C944E0484E592E00C9451049F
:1004C00084E592E00E94840242E050E060E572E040
:1004D00082E00E94321442E050E064E572E083E082
:1004E0000E94321442E050E068E572E085E00E942C
:1004F000321442E050E06CE572E084E00C94321477
:1005000084E592E00C94F60CAF92BF92CF92DF920A
:10051000EF92FF920F931F93CF93DF93CDB7DEB788
:100520002E970FB6F894DEBF0FBECDBF5C01CE0193
:1005300001960E94530D8EE0FE013196D501019087
:100540000D928A95E1F7F501EC5AFF4F1182108266
:1005500044E050E06AE370E089ED92E00E942911E6
:10056000F501E658FF4F11821082329611821082F7
:10057000329681E080833196118210823296108209
:1005800011821282138285E1C82ED12C98E1E92EC6
:10059000F12C00E010E021E030E040E058E062E0C3
:1005A00070E0C50140960E94A20D24E1C22ED12C1C
:1005B00039E1E32EF12C01E010E021E030E040E0F1
:1005C00058E063E070E0C50181960E94A20D43E10E
:1005D000C42ED12C5BE1E52EF12C00E010E020E0F0
:1005E00030E040E250E064E070E0C501C2960E9455
:1005F000A20D62E1C62ED12C7AE1E72EF12C01E0AA
:1006000010E020E030E040E250E065E070E0C5013D
:100610008D5B9F4F0E94A20D00E010E02FE130E0C3
:100620004EE150E067E070E0C5018A5A9F4F0E949A
:10063000870D01E010E021E230E040E250E068E0A8
:1006400070E0C5018F599F4F0E94870D61E087E0E0
:100650000E94481861E08EE10E94481861E088E03D
:100660000E94481861E080E20E94481860E087E03C
:100670000E94811860E088E00E94811869E070E0C3
:10068000C50181599F4F0E9494136AE070E0C50133
:1006900084599F4F0E94941361E08DE00E94481896
:1006A000F501E758FF4F108262E172E0C5018E58F4
:1006B0009F4F0E94051DF501E858FF4F108226E06C
:1006C00040E052EC61E070E08DE893E00E94771A20
:1006D0002E960FB6F894DEBF0FBECDBFDF91CF913F
:1006E0001F910F91FF90EF90DF90CF90BF90AF9050
:1006F00008950F931F93CF93DF938B0164EF71E005
:1007000080E090E00E94A416C0E0D0E0C017D107BE
:1007100004F560E08DE00E9481186AEF70E080E0EF
:1007200090E00E94A41661E08DE00E9481186AEFBB
:1007300070E080E090E00E94A41660E08DE00E94EE
:1007400081186AEF70E080E090E00E94A416219684
:10075000DDCFDF91CF911F910F910895AF92BF929E
:10076000CF92DF92EF92FF920F931F93CF93DF937D
:10077000EC0181960E943B0E5C01CE0140960E94E6
:100780003B0E6C017E0181E6E80EF11C60E070E03A
:10079000C7010E949C0D8E010A5A1F4F61E070E054
:1007A000C8010E949C0D66E470E0C7010E94980D8C
:1007B00066E470E0C8010E94980D68E57BE180E086
:1007C00090E00E94A41660E070E0C7010E94980DBE
:1007D00060E070E0C8010E94980DB501CE018D5B0C
:1007E0009F4F0E94460EB601CE01C2960E94460E51
:1007F0006AE072E08DE893E0DF91CF911F910F9155
:10080000FF90EF90DF90CF90BF90AF900C94111CB1
:100810000F931F93CF93DF93EC018C010A5A1F4F64
:1008200060E070E0C8010E949C0DCF59DF4F61E08D
:1008300070E0CE010E949C0D62E370E0C8010E944E
:10084000980D62E370E0CE010E94980D6EE072E0B8
:100850008DE893E0DF91CF911F910F910C94E21BF3
:10086000CF93DF93EC0160E070E08A5A9F4F0E94C3
:10087000980D60E070E0CE018F599F4F0E94980D57
:100880006EE072E08DE893E0DF91CF910C94E21B73
:1008900040960C94CD0D81960C94CD0DC2960C947F
:1008A000CD0D8D5B9F4F0C94CD0D84E592E00E94A1
:1008B000530D80EC92E00E94C91283EC92E00E94FA
:1008C000C91262E172E086EC92E00C94D81C86ECCE
:1008D00092E00C946A1C2F923F924F925F926F921B
:1008E0007F928F929F92AF92BF92CF92DF92EF92C0
:1008F000FF920F931F93CF93DF93CDB7DEB7C85A04
:10090000D1090FB6F894DEBF0FBECDBF1C0162E166
:1009100072E0CE0187589F4F0E94D81C3E012FE8FD
:10092000620E711CF30110821182128213824E0139
:10093000FBE88F0E911CF401108211821282138247
:100940009E0129573F4FCD56DF4F39832883C35926
:10095000D040C957DF4F188219821A821B82C758AC
:10096000D0402E0133E8430E511CF2011082118257
:100970001282138280E090E0A6E9B3E4C158DF4F11
:1009800088839983AA83BB83CF57D04091012E5887
:100990003F4FCB56DF4F39832883C559D04062E0A3
:1009A00070E0C9010E94051EFC0180818C3439F081
:1009B000823509F479C1823409F0A9C311C69101C5
:1009C000205F3F4FC556DF4F39832883CB59D04036
:1009D000C9010E94430EA1014F5D5F4FC756DF4F13
:1009E00059834883C959D040CA010E94430E41012E
:1009F00051E6850E911C61E070E0C4010E949C0DDF
:100A0000C1018A5A9F4FC956DF4F99838883C759BE
:100A1000D04061E070E00E949C0D26E030E043E0B1
:100A200050E0CB56DF4F68817981C559D0408E01A7
:100A30000F5F1F4FC8010E94171EB801CE018758D3
:100A40009F4F0E94EE1CC8010E946A1CCE0187586D
:100A50009F4F0E945C1E0E946C1F5B016C01F101A4
:100A6000EF57FF4FCB56DF4FF983E883C559D0408E
:100A700020E030E04AE754E40E94202025E33AEFEA
:100A80004EE85CE30E9420209B01AC01CB56DF4F77
:100A9000E881F981C559D04060817181828193815B
:100AA0000E94681E2B013C017E01FAE3EF0EF11C4F
:100AB00022E0B601A501C7010E94491D63E172E071
:100AC000C8010E94D81CB701C8010E94B91DBC0111
:100AD0008DE893E00E94FF1BC8010E946A1CC701B9
:100AE0000E946A1C22E0B301A201C7010E94491DB5
:100AF00068E172E0C8010E94D81CB701C8010E94D9
:100B0000B91DBC018DE893E00E94FF1BC8010E9443
:100B10006A1CC7010E946A1C91012E5C3F4F59015B
:100B2000A1014D5B5F4F6A01A3019201CB56DF4FDC
:100B3000E881F981C559D0406081718182819381BA
:100B40000E941C2018160CF021C269E170E080E0C0
:100B500090E00E94A416C5010E94FA0DBC01C601D6
:100B6000C955DF4F6883C75AD040C855DF4F7883D7
:100B7000C85AD0400E94FA0D1C014AE0C955DF4F07
:100B80006881C75AD040C855DF4F7881C85AD040D5
:100B9000C7010E941D1D6DE172E0C8010E94D81CB2
:100BA000B701C8010E94B91DBC018DE893E00E9405
:100BB000FF1BC8010E946A1CC7010E946A1C4AE010
:100BC000B101C7010E941D1D62E272E0C8010E94CE
:100BD000D81CB701C8010E94B91DBC018DE893E083
:100BE0000E94FF1BC8010E946A1CC7010E946A1C68
:100BF000C5010E94FA0D1C01C6010E94FA0DB10147
:100C0000681B790B882777FD8095982F0E946C1FB1
:100C100020E030E040E05FE30E94202020E030E070
:100C20004AE754E40E94202020E030E04CE553E401
:100C30000E94D11E2DEC3CEC4CE050E40E94D11EF1
:100C4000AB01BC01CB56DF4FE881F981C559D040DB
:100C5000408351836283738322E0C7010E94491D50
:100C600064E172E0C8010E94D81CB701C8010E946B
:100C7000B91DBC018DE893E00E94FF1BC8010E94D2
:100C80006A1CC7010E946A1C6FEF70E0C4010E94D9
:100C9000980D6FEF70E0C956DF4F88819981C75971
:100CA000D0400E94980D40CF9101205F3F4FC55624
:100CB000DF4F39832883CB59D040C9010E94430EAE
:100CC000A1014F5D5F4FC756DF4F59834883C95914
:100CD000D040CA010E94430E410151E6850E911C8D
:100CE00060E070E0C4010E949C0DC1018A5A9F4FD0
:100CF000C956DF4F99838883C759D04060E070E0C0
:100D00000E949C0D26E030E043E050E0CB56DF4FE0
:100D100068817981C559D0408E010F5F1F4FC8018E
:100D20000E94171EB801CE0187589F4F0E94EE1CEB
:100D3000C8010E946A1CCE0187589F4F0E945C1E0A
:100D40000E946C1F5B016C01F101EF57FF4FCB5606
:100D5000DF4FF983E883C559D04020E030E04AE70F
:100D600054E40E94202025E33AEF4EE85CE30E9421
:100D70002020CB56DF4FE881F981C559D040208132
:100D80003181428153810E94691E2B013C017E0109
:100D9000FAE3EF0EF11C22E0B601A501C7010E94A3
:100DA000491D63E172E0C8010E94D81CB701C80167
:100DB0000E94B91DBC018DE893E00E94FF1BC80191
:100DC0000E946A1CC7010E946A1C22E0B301A201B2
:100DD000C7010E94491D68E172E0C8010E94D81C49
:100DE000B701C8010E94B91DBC018DE893E00E94C3
:100DF000FF1BC8010E946A1CC7010E946A1C910166
:100E00002E5C3F4F5901A1014D5B5F4F6A01A30169
:100E10009201CB56DF4FE881F981C559D0406081FE
:100E20007181828193810E94CD1E87FFAFC069E1ED
:100E300070E080E090E00E94A416C5010E94FA0DC7
:100E4000BC01C601C955DF4F6883C75AD040C85599
:100E5000DF4F7883C85AD0400E94FA0D1C014AE047
:100E6000C955DF4F6881C75AD040C855DF4F7881D8
:100E7000C85AD040C7010E941D1D6DE172E0C80133
:100E80000E94D81CB701C8010E94B91DBC018DE8A1
:100E900093E00E94FF1BC8010E946A1CC7010E94C8
:100EA0006A1C4AE0B101C7010E941D1D62E272E0A6
:100EB000C8010E94D81CB701C8010E94B91DBC011D
:100EC0008DE893E00E94FF1BC8010E946A1CC701C5
:100ED0000E946A1CC5010E94FA0D1C01C6010E94F5
:100EE000FA0DB101681B790B882777FD8095982F43
:100EF0000E946C1F20E030E040E05FE30E94202071
:100F000020E030E04AE754E40E94202020E030E076
:100F10004CE553E40E94D11E2DEC3CEC4CE050E437
:100F20000E94D11EAB01BC01CB56DF4FE881F98195
:100F3000C559D040408351836283738322E0C70147
:100F40000E94491D64E172E0C8010E94D81CB701EB
:100F5000C8010E94B91DBC018DE893E00E94FF1BEF
:100F6000C8010E946A1CC7010E946A1C6FEF70E0F2
:100F7000C4010E94980D6FEF70E0C956DF4F888161
:100F80009981C759D0400E94980D41CF60E070E030
:100F9000C4010E94980D60E070E0C956DF4F88815F
:100FA0009981C759D0400E94980D68EC70E080E0AC
:100FB00090E00E94A416C5010E94FA0D7C01C601B2
:100FC0000E94FA0D8C014AE0B701CE01CA960E9438
:100FD0001D1D6DE172E0CE0101960E94D81CBE017C
:100FE000665C7F4FCE0101960E94B91DBC018DE861
:100FF00093E00E94FF1BCE0101960E946A1CCE0165
:10100000CA960E946A1C4AE0B801CE01CA960E94A4
:101010001D1D62E272E0CE0101960E94D81CBE0145
:10102000665C7F4FCE0101960E94B91DBC018DE820
:1010300093E00E94FF1BCE0101960E946A1CCE0124
:10104000CA960E946A1CC5010E94FA0D8C01C60155
:101050000E94FA0DB801681B790B882777FD8095EF
:10106000982F0E946C1F20E030E040E05FE30E9478
:10107000202020E030E04AE754E40E94202020E0D5
:1010800030E04CE553E40E94D11E2DEC3CEC4CE0EA
:1010900050E40E94D11EAB01BC01CB56DF4FE8816A
:1010A000F981C559D040408351836283738322E024
:1010B000CE01CA960E94491D64E172E0CE010196FC
:1010C0000E94D81CBE01665C7F4FCE0101960E9433
:1010D000B91DBC018DE893E00E94FF1BCE01019673
:1010E0000E946A1CCE01CA960E946A1CC556DF4F38
:1010F00088819981CB59D0400E943F0EC756DF4F5F
:1011000088819981C959D0400E943F0E69C21F92BF
:101110001F92FCE3FF9323E22F9337ED3F934AE0C6
:101120004F93ADECAA2EACECBA2ECB2CADE3DA2E5D
:10113000E12CF12C00E01FE39E0121583F4FAE014E
:1011400049575F4FB301CE01CA960E94BC101F924F
:101150001F925CE35F9383E28F9397ED9F93EAE0A6
:10116000EF939E0121583F4FA201B401CE01019699
:101170000E94BC1061E070E0CE01CA960E946A1025
:1011800061E070E0CE0101960E946A1091012F5932
:101190003F4FC956DF4F39832883C759D04061E09C
:1011A00070E0C9010E949C0D81010A5A1F4F60E046
:1011B00070E0C8010E949C0D60E070E0C956DF4FEE
:1011C00088819981C759D0400E94980D60E070E0F5
:1011D000C8010E94980D26E030E043E050E0CB5675
:1011E000DF4F68817981C559D040CE018D589F4F1E
:1011F0000E94171EBE016D587F4FCE0187589F4F2A
:101200000E94EE1CCE018D589F4F0E946A1C67E21F
:1012100072E0CE0187589F4F0E94E61D0FB6F894EA
:10122000DEBF0FBECDBF882339F0C1010E94AE03DF
:10123000CE0187589F4FE7C1CE0187589F4F0E942C
:101240005C1E2AE0269FF001279FF00D1124C55651
:10125000DF4FF983E883CB59D040F101E158FF4FCC
:1012600080819181C556DF4F48815981CB59D0404B
:10127000480F591FC556DF4F59834883CB59D0407B
:10128000C756DF4FF983E883C959D040C101409662
:10129000CF55DF4F99838883C15AD040EE55F1096D
:1012A000CD55DF4FF983E883C35AD04091012E5CBE
:1012B0003F4FCB55DF4F39832883C55AD040A1011A
:1012C0004D5B5F4FC356DF4F59834883CD59D040A4
:1012D000C756DF4FE881F981C959D040808191819B
:1012E000C556DF4F28813981CB59D04082179307EB
:1012F0000CF067C162E370E080E090E00E94A41609
:10130000CF55DF4F88819981C15AD0400E94FA0D94
:101310005C01CD55DF4F88819981C35AD0400E942E
:10132000FA0D6C01CB55DF4F88819981C55AD040A9
:101330000E94FA0D4C01C356DF4F88819981CD5927
:10134000D0400E94FA0D7C0166E070E0CB56DF4F82
:1013500088819981C559D0400E94051EFC01808179
:101360008634A1F461E08DE00E948118C4018E0DE5
:101370009F1D97FD019695958795C756DF4FE8818C
:10138000F981C959D0409183808315C060E08DE018
:101390000E948118CA0CDB1CD7FE03C0FFEFCF1AD6
:1013A000DF0AD594C794C756DF4FE881F981C95940
:1013B000D040D182C082C356DF4F88819981CD59F8
:1013C000D0400E943B0EC1010E946B0D6401C81AFF
:1013D000D90AC1010E946F0D9701281B390BC15614
:1013E000DF4F39832883CF59D040B701C1010E9414
:1013F000770DB401C1010E94730D0E9481162B016B
:101400003C01C1010E94810DA3019201261B370BF3
:10141000480B590BCA01B9010E946A1F20E030E055
:101420004AE754E40E94D11E4B015C01B301A201C2
:10143000C1010E947B0DB601882777FD8095982F0A
:101440000E946C1F20E030E04AE754E40E94202014
:10145000A50194010E94D11EC157DF4F6883798393
:101460008A839B83CF58D040C156DF4F4881598132
:10147000CF59D040BA01882777FD8095982F0E94D8
:101480006C1F20E030E04AE754E40E942020A501D0
:1014900094010E94D11EC557DF4F688379838A83E8
:1014A0009B83CB58D040CE01CA960E94510ECE01EC
:1014B00001960E94510E20E030E04AE753E4C957FC
:1014C000DF4F688179818A819B81C758D0400E9413
:1014D0001C20181664F480E090E0AAE7B3E4C95732
:1014E000DF4F88839983AA83BB83C758D04020E00D
:1014F00030E04AE753E4CD57DF4F688179818A8134
:101500009B81C358D0400E941C20181664F480E0D0
:1015100090E0AAE7B3E4CD57DF4F88839983AA838D
:10152000BB83C358D04020E030E0A901C957DF4F4A
:10153000688179818A819B81C758D0400E94CD1EE5
:1015400087FF08C0C957DF4F188219821A821B8291
:10155000C758D04020E030E0A901CD57DF4F688167
:1015600079818A819B81C358D0400E94CD1E87FF1C
:1015700008C0CD57DF4F188219821A821B82C358C8
:10158000D040C957DF4F688179818A819B81C758D4
:10159000D0400E94391FC8010E94980DCD57DF4FDF
:1015A000688179818A819B81C358D0400E94391F0C
:1015B000C956DF4F88819981C759D0400E94980D44
:1015C00087CE60E070E0C956DF4F88819981C759A6
:1015D000D0400E94980D60E070E0C8010E94980D14
:1015E00068EC70E080E090E00E94A4166EE072E08B
:1015F0008DE893E00E94E21B8DE893E00E94F019D1
:10160000CE0187589F4F0E946A1CC855DF4F0FB606
:10161000F894DEBF0FBECDBFDF91CF911F910F9128
:10162000FF90EF90DF90CF90BF90AF909F908F9002
:101630007F906F905F904F903F902F9008958F9282
:101640009F92AF92BF92CF92DF92EF92FF920F9351
:101650001F93CF93DF93CDB7DEB72C970FB6F894D7
:10166000DEBF0FBECDBF8C0162E172E0CE010796F6
:101670000E94D81C89ED92E00E9439116C0158013A
:101680002EE7A20EB11CF5018081980124583F4F2E
:1016900079018823D1F089ED92E00E9439114C0143
:1016A00089ED92E00E9439119601280D391D280F0D
:1016B000391FC90163E070E00E949F2064517109E5
:1016C000F70171836083F5011082F7012081318178
:1016D0002C193D09F801E658FF4F37FD03C031834F
:1016E000208302C011821082608171814AE0CE01A4
:1016F00001960E941D1DBE016F5F7F4FCE010796B0
:101700000E94EE1CCE0101960E946A1C8B859C856E
:101710008330910519F46BE272E007C0029719F467
:101720006FE272E002C064E372E0CE0101960E94B3
:10173000D81CBE01695F7F4FCE0101960E94B91D82
:1017400061E172E00E94CC1DBC018DE893E00E9433
:10175000D41BCE0101960E946A1C8DE893E00E9482
:10176000F019CE0107960E946A1C2C960FB6F894C9
:10177000DEBF0FBECDBFDF91CF911F910F91FF90C4
:10178000EF90DF90CF90BF90AF909F908F90089593
:1017900063E070E00E9479036AE372E08DE893E011
:1017A0000E94E21B8DE893E00C94F0194F925F9237
:1017B0006F927F928F929F92AF92BF92CF92DF9261
:1017C000EF92FF920F931F93CF93DF93CDB7DEB7C6
:1017D0002C970FB6F894DEBF0FBECDBF8C015C0115
:1017E00082E7A80EB11C24E030E043E050E0B501F0
:1017F000CE0107960E94171ECE0107960E945C1E1E
:101800000E946C1F6B017C0126E030E045E050E057
:10181000B501CE0101960E94171EBE016F5F7F4F7A
:10182000CE0107960E94EE1CCE0101960E946A1C12
:10183000CE0107960E945C1E0E946C1F2B013C018A
:1018400062E070E0C5010E94051EFC0180818B32C0
:1018500051F420E030E044EB52E4C701B6010E94AD
:10186000691E6B017C0120E030E040E151E4C301DE
:10187000B2010E9420204B015C0122E73CE147E0DD
:101880005FE3C701B6010E94202020E030E84DE66A
:1018900054E40E94691E0E94391FC80184599F4F59
:1018A0000E94CD136FE070E080E090E00E94A416EB
:1018B00020E030E842E254E4C501B4010E94691E10
:1018C0000E94391FC80181599F4F0E94CD136FE0BC
:1018D00070E080E090E00E94A4166FE372E08DE873
:1018E00093E00E94E21B8DE893E00E94F019CE0184
:1018F00007960E946A1C2C960FB6F894DEBF0FBEA6
:10190000CDBFDF91CF911F910F91FF90EF90DF90AE
:10191000CF90BF90AF909F908F907F906F905F908F
:101920004F9008950F931F93CF93DF93EC018C0199
:101930000E581F4F61E070E0C8010E94051EFC01B7
:101940008081893409F444C0823521F0843409F05F
:1019500046C007C0CE01DF91CF911F910F910C942B
:101960001F0B62E070E0C8010E94051EFC0180812F
:10197000843539F563E070E0C8010E94051EFC0162
:101980008081873439F4CE01DF91CF911F910F917F
:101990000C94080463E070E0C8010E94051EFC017D
:1019A0008081833539F4CE01DF91CF911F910F9162
:1019B0000C943004CE01DF91CF911F910F910C94C4
:1019C000AE03CE01DF91CF911F910F910C946B0468
:1019D000CE01DF91CF911F910F910C94D60BCE01C8
:1019E000DF91CF911F910F910C94C80BBF92CF92B2
:1019F000DF92EF92FF920F931F93CF93DF93EC014F
:101A00008C0107581F4F7C0182E7E80EF11C6E0124
:101A1000E8E7CE0ED11CBB24B3948DE893E00E947E
:101A20006519181619068CF48DE893E00E947E194A
:101A3000F8018083682FC7010E94A51DF8018081ED
:101A40008A3059F7F601B082E8CF64E670E080E0B2
:101A500090E00E94A4168E0108581F4FF801808163
:101A60008823B9F07E01F2E7EF0EF11C60E070E030
:101A7000C7010E94051EFC018081843251F4CE0111
:101A80000E94920C62E172E0C7010E94051DF801FC
:101A90001082DF91CF911F910F91FF90EF90DF9017
:101AA000CF90BF900895CF93DF93EC0181E090E059
:101AB000998388831B821A821D821C821F821E8248
:101AC000198618860E9481166A877B878C879D8776
:101AD000DF91CF910895FC01828193810895FC01EB
:101AE000848195810895FC01738362830895FC01CC
:101AF000758364830895FC014287538764877587E3
:101B00000895FC01628573858485958508950F93FA
:101B10001F93FC0171836083538342833583248345
:101B2000178216821286118700871F910F910895E0
:101B3000FC0180810C942E17FC01608771878281E3
:101B40000C948118CF92DF92EF92FF920F931F9324
:101B5000FC0171836083538342833187208713871D
:101B60000287E686F786C486D58614821582168299
:101B7000178281E0808B60E08C2D0E94481861E024
:101B80008C2D0E94811860E08E2D1F910F91FF9087
:101B9000EF90DF90CF900C944818CF93DF93EC0137
:101BA0008889882321F18A859B85892B51F48E852C
:101BB0000E94B7184C815D816E817F81019751F43D
:101BC0000EC08E850E94B7184C815D816E817F8129
:101BD000019729F44F5F5F4F6F4F7F4F04C0415013
:101BE0005109610971094C835D836E837F83DF91A5
:101BF000CF910895CF92DF92EF92FF92CF93DF9330
:101C0000EC016C817D818E819F81660F771F881F1B
:101C1000991F0E946C1F2BED3FE049E450E40E94A5
:101C200020206B017C016A817B81882777FD80956C
:101C3000982F0E946C1F9B01AC01C701B6010E9446
:101C4000D11E28853985232B31F420E030E04CE883
:101C500052E40E94D11E20E030E04FEB52E40E949B
:101C600020200E94391FCB01DF91CF91FF90EF9090
:101C7000DF90CF900895FC0184819581089521E043
:101C8000FC01208B0895FC01108A0895AB016627A2
:101C900057FD6095762FFC014483558366837783D7
:101CA00008952F923F924F925F926F927F928F9200
:101CB0009F92AF92BF92CF92DF92EF92FF920F93DB
:101CC0001F93CF93DF93CDB7DEB72B970FB6F89462
:101CD000DEBF0FBECDBF9B878A87DC01D896BC9143
:101CE000B983B11102C01982E2C00E9475166A83DD
:101CF0007B838C839D83EA85FB8580A191A1A2A132
:101D0000B3A14A815B816C817D81481B590B6A0BB1
:101D10007B0B84A595A5A6A5B7A5481759076A0703
:101D20007B0708F3028CF38DE02D80809180A280E8
:101D3000B380AA85BB855E96ED91FC915F97A50166
:101D4000940160817181828193810E94681E2B01C0
:101D50003C01EA85FB8520893189428953890E94AB
:101D60002020AA85BB8594962D913D914D915C9143
:101D700097970E94691E6B017C01EA85FB8564A32D
:101D800075A386A397A324A835A806A917A991012E
:101D9000A8010E941C2018161CF4C101D80118C00B
:101DA000AA85BB85D0968D919D910D90BC91A02D5B
:101DB0008E839F83A887B9879C01AD01C701B601B7
:101DC0000E94CD1E87FF0AC08E819F81A885B9859C
:101DD000EA85FB8584A395A3A6A3B7A3AA85BB85A3
:101DE0001C962D913D914D915C911F97C301B201BD
:101DF0000E942020EA85FB8524A135A146A157A198
:101E00000E94691E6B017C01AA85BB8598962D9165
:101E10003D914D915C919B97C501B4010E94681E54
:101E2000EA85FB8524893589468957890E942020C7
:101E30009B01AC01C701B6010E94681E6B017C01C9
:101E40009101A8010E941C201816BCF0AA85BB8530
:101E5000D0962C90D097D1963C90D197D2960C9159
:101E6000D297D3961C919101A801B601C7010E9497
:101E7000CD1E87FD02C016018701AA85BB855C9631
:101E8000ED91FC915D97C101D80180839183A2837C
:101E9000B383EA85FB8580A691A6A2A6B3A68A8114
:101EA0009B81AC81BD8180A391A3A2A3B3A38981AF
:101EB0002B960FB6F894DEBF0FBECDBFDF91CF914A
:101EC0001F910F91FF90EF90DF90CF90BF90AF9058
:101ED0009F908F907F906F905F904F903F902F904A
:101EE00008952F923F924F925F926F927F928F92BE
:101EF0009F92AF92BF92CF92DF92EF92FF920F9399
:101F00001F93CF93DF9300D01F92CDB7DEB71C0194
:101F10002A013B014801590120E030E0A901C30139
:101F2000B2010E94CD1E87FD78C020E030E0A901FB
:101F3000C501B4010E94CD1E87FD6FC020E030E0D6
:101F4000A901C701B6010E94CD1E87FD66C0F1013F
:101F5000408251826282738284829582A682B78295
:101F6000C086D186E286F38664A575A586A597A569
:101F70000E946A1F20E030E04AE754E40E94D11E2C
:101F800069837A838B839C83F101448655866686B8
:101F900077869B01AC01C501B4010E9420204B0152
:101FA0005C01F101608B718B828B938B29813A816B
:101FB0004B815C81C701B6010E94D11E6B017C017F
:101FC000F101648B758B868B978B808D918D01973A
:101FD00021F5A301920160E070E0CB010E94681E30
:101FE000F1016487758786879787A501940160E072
:101FF00070E0CB010E94681EF101608B718B828BB7
:10200000938BA701960160E070E0CB010E94681EEF
:10201000F101648B758B868B978B0F900F900F90CF
:102020000F90DF91CF911F910F91FF90EF90DF9074
:10203000CF90BF90AF909F908F907F906F905F9068
:102040004F903F902F9008958F929F92AF92BF92A2
:10205000CF92DF92EF92FF92CF93DF93EC01EC8D62
:10206000FD8DC080D180E280F380CCA2DDA2EEA203
:10207000FFA2EA8DFB8D80819181A281B38188A727
:1020800099A7AAA7BBA78CA89DA8AEA8BFA8A50181
:102090009401C701B6010E941C20181664F088A89C
:1020A00099A8AAA8BBA8A5019401C701B6010E94DE
:1020B000CD1E87FF04C08CA29DA2AEA2BFA2DF915D
:1020C000CF91FF90EF90DF90CF90BF90AF909F9017
:1020D0008F9008951F93CF93DF93EC0111E061304F
:1020E000710509F010E088AD91E08927181303C04D
:1020F000CE010E94241018AFDF91CF911F91089557
:102100000F931F93CF93DF93EC018B0188AD88234E
:1021100061F1888D998D6817790739F12C853D8596
:102120004E855F8560E070E0CB010E94681E6C8781
:102130007D878E879F87288939894A895B8960E0F6
:1021400070E0CB010E94681E688B798B8A8B9B8B19
:102150002C893D894E895F8960E070E0CB010E9447
:10216000681E6C8B7D8B8E8B9F8B198F088FDF91F8
:10217000CF911F910F9108954F925F926F927F922E
:102180008F929F92AF92BF92CF92DF92EF92FF9287
:102190000F931F93CF93DF9300D01F92CDB7DEB77D
:1021A0004C0127013801A982BA82CB82DC82FC0172
:1021B000558F448F738F628F378F268F10AE10AA82
:1021C00011AA12AA13AA80E090E0AFE7B3E484ABAF
:1021D00095ABA6ABB7AB84E690E0A0E0B0E084A7F7
:1021E00095A7A6A7B7A76C8D7D8DC4010E9480100E
:1021F000C88CD98CEA8CFB8C09811A812B813C819B
:10220000B301A201C4010E94710F0E947516F4016E
:1022100044A455A466A477A464197509860997098E
:1022200060A371A382A393A30F900F900F900F90C0
:10223000DF91CF911F910F91FF90EF90DF90CF90A2
:10224000BF90AF909F908F907F906F905F904F90D6
:102250000895CF93DF93EC01842F7B836A834C83B3
:102260005D8360E00E94481819821882DF91CF9147
:102270000895CF93DF93EC0120E432E44FE050E087
:1022800061E08C810E94E0182A813B81CB01B90179
:102290000E949F20CB0179836883DF91CF910895BD
:1022A000CF92DF92EF92FF920F931F93CF93DF9322
:1022B0006C018B017A01EC01C052DD4F888187FFF0
:1022C00004C0FB011182108223C02CE02C9DC001B0
:1022D0002D9D900D11242881AC01420F511D27FD29
:1022E0005A952091DF0230E0421753078CF4288181
:1022F000AC01420F511D27FD5A959A01FA01EE0FCC
:10230000FF1FE20FF31FEC51FD4F208126FD19C086
:1023100088818F5F88838CE08C9D90018D9D300D2E
:1023200011248881A901480F511D87FD5A9580917C
:10233000DF0290E048175907B4F488818C303CF1F3
:1023400012C02881820F911D27FD9A95FC01EE0F86
:10235000FF1FE80FF91FEC51FD4F808160E08F7384
:102360000E948118D5CFF801808191810496803434
:102370009C4918F480E49CE904C0F80180819181B3
:102380000496F701918380838FEF888341C0F80121
:10239000808191814881B901640F711D47FD7A9553
:1023A000AB01FB01EE0FFF1FE40FF51FEC51FD4FDA
:1023B00041815281840F951FF70191838083888129
:1023C000A901480F511D87FD5A95FA01EE0FFF1F15
:1023D000E40FF51FEC51FD4F808186FF19C0888105
:1023E000280F311D87FD3A95F901EE0FFF1FE20F0F
:1023F000F31FEC51FD4F808161E08F73DF91CF912E
:102400001F910F91FF90EF90DF90CF900C94811867
:10241000DF91CF911F910F91FF90EF90DF90CF90C0
:1024200008951F920F920FB60F9211240BB60F92C0
:102430002F933F934F935F936F937F938F939F93CC
:10244000AF93BF93EF93FF9348E850E064E870E0E8
:1024500081E090E00E945011FF91EF91BF91AF9108
:102460009F918F917F916F915F914F913F912F91AC
:102470000F900BBE0F900FBE0F901F9018951F92DC
:102480000F920FB60F9211240BB60F922F933F931A
:102490004F935F936F937F938F939F93AF93BF936C
:1024A000EF93FF9348E950E064E970E082E090E048
:1024B0000E945011FF91EF91BF91AF919F918F9129
:1024C0007F916F915F914F913F912F910F900BBE34
:1024D0000F900FBE0F901F9018951F920F920FB67E
:1024E0000F9211240BB60F922F933F934F935F934C
:1024F0006F937F938F939F93AF93BF93EF93FF93CC
:1025000048EA50E064EA70E083E090E00E945011F5
:10251000FF91EF91BF91AF919F918F917F916F91BB
:102520005F914F913F912F910F900BBE0F900FBE77
:102530000F901F9018951F920F920FB60F921124B3
:102540000BB60F922F933F934F935F936F937F93AD
:102550008F939F93AF93BF93EF93FF9348E251E024
:1025600064E271E080E090E00E945011FF91EF91F1
:10257000BF91AF919F918F917F916F915F914F919B
:102580003F912F910F900BBE0F900FBE0F901F9099
:1025900018952091DF022033A0F431E0320F309300
:1025A000DF02FC012083822F90E0FC01EE0FFF1F71
:1025B000E80FF91FEC51FD4F88EB9BE0928381837C
:1025C00008952FEFFC0120830895DF92EF92FF9290
:1025D0000F931F93CF93DF93EC01D62E7A018901DD
:1025E0008881803308F068C061E08D2D0E94481812
:1025F0008881A82FB0E0FD01EE0FFF1FEA0FFB1F3F
:10260000EC51FD4F2D2D2F739081907C922B908358
:1026100060E272E06E197F0977FF02C06D5F7F4F45
:102620007595679575956795698340E659E0401BF8
:10263000510B57FF02C04D5F5F4F5595479555951C
:1026400047954A836CE00E9493209CE0899FB001EB
:10265000112420E030E0A901460F571FFA01EE0FC8
:10266000FF1FE40FF51FEC51FD4F908196FD18C040
:102670002F5F3F4F2C30310571F790E0813091058D
:1026800021F51092800082E08093810010928500F5
:1026900010928400B19A80916F00826080936F00E5
:1026A000888190E0FC01EE0FFF1FE80FF91FEC514D
:1026B000FD4F8081806480838881DF91CF911F915D
:1026C0000F91FF90EF90DF9008958230910569F4AB
:1026D0001092900082E080939100109295001092E9
:1026E000940088BB80937100DBCF8330910569F43F
:1026F0001092A00082E08093A1001092A500109299
:10270000A40089BB80937200CBCF892B49F610922D
:10271000200182E080932101109225011092240172
:102720008ABB80937300BCCF20E639E040E252E0E0
:102730000C94E512FC018081803370F5918128E8CA
:1027400030E0291B310997FD3395220F331F220FEB
:10275000331F621773077CF0928128E532E0291B52
:10276000310997FD3395220F331F220F331F621754
:1027700073070CF49B014FB7F89490E0FC01EE0F47
:10278000FF1FE80FF91FEC51FD4F22503109220FB6
:10279000331F328321834FBF08954F925F926F9210
:1027A0007F92AF92BF92CF92DF92EF92FF920F9300
:1027B0001F93CF93DF93EC01603282E078070CF037
:1027C00040C077FD06C0653B71052CF064EB70E0FE
:1027D00002C060E070E0898128E830E0281B310900
:1027E00087FD3395220F331F220F331F5901CC244D
:1027F000B7FCC094DC2C882777FD8095982F2A8120
:1028000048E552E0421B510927FD5395440F551FDF
:10281000440F551F2A01662457FC6094762C7F9242
:102820006F925F924F9214EBE12EF12C00E010E0DA
:1028300020E030E0A9010E94231C0F900F900F9020
:102840000F90CE01DF91CF911F910F91FF90EF90EC
:10285000DF90CF90BF90AF907F906F905F904F9040
:102860000C949A13883008F06DC0E82FF0E0EE0F5A
:10287000FF1FEC58FC4F7183608390E0FC0131979F
:10288000E730F10590F5EE58FF4F0C94F42080915D
:1028900069008C7F842B80936900E89A0895809169
:1028A0006900440F551F440F551F837F842B80936D
:1028B0006900E99A08958091690074E0440F551FFA
:1028C0007A95E1F78F7C842B80936900EA9A0895CA
:1028D0008091690066E0440F551F6A95E1F78F7398
:1028E000842B80936900EB9A089580916A008C7F15
:1028F000842B80936A00EC9A089580916A00440FBB
:10290000551F440F551F837F842B80936A00ED9AD7
:10291000089580916A0024E0440F551F2A95E1F73D
:102920008F7C842B80936A00EE9A089580916A00D0
:1029300096E0440F551F9A95E1F78F73842B80938F
:102940006A00EF9A08951F920F920FB60F9211240A
:102950000BB60F922F933F934F935F936F937F9399
:102960008F939F93AF93BF93EF93FF9380917803DF
:1029700090917903892B29F0E0917803F091790304
:102980001995FF91EF91BF91AF919F918F917F9199
:102990006F915F914F913F912F910F900BBE0F90D0
:1029A0000FBE0F901F9018951F920F920FB60F92A7
:1029B00011240BB60F922F933F934F935F936F9316
:1029C0007F938F939F93AF93BF93EF93FF938091E8
:1029D0007A0390917B03892B29F0E0917A03F0919F
:1029E0007B031995FF91EF91BF91AF919F918F91CB
:1029F0007F916F915F914F913F912F910F900BBEFF
:102A00000F900FBE0F901F9018951F920F920FB648
:102A10000F9211240BB60F922F933F934F935F9316
:102A20006F937F938F939F93AF93BF93EF93FF9396
:102A300080917C0390917D03892B29F0E0917C03A8
:102A4000F0917D031995FF91EF91BF91AF919F9107
:102A50008F917F916F915F914F913F912F910F9047
:102A60000BBE0F900FBE0F901F9018951F920F92E4
:102A70000FB60F9211240BB60F922F933F934F93E3
:102A80005F936F937F938F939F93AF93BF93EF93D6
:102A9000FF9380917E0390917F03892B29F0E09131
:102AA0007E03F0917F031995FF91EF91BF91AF9154
:102AB0009F918F917F916F915F914F913F912F9156
:102AC0000F900BBE0F900FBE0F901F9018951F9286
:102AD0000F920FB60F9211240BB60F922F933F93C4
:102AE0004F935F936F937F938F939F93AF93BF9316
:102AF000EF93FF938091740390917503892B29F0D4
:102B0000E0917403F09175031995FF91EF91BF91D6
:102B1000AF919F918F917F916F915F914F913F9175
:102B20002F910F900BBE0F900FBE0F901F90189516
:102B30001F920F920FB60F9211240BB60F922F9384
:102B40003F934F935F936F937F938F939F93AF9335
:102B5000BF93EF93FF938091760390917703892B36
:102B600029F0E0917603F09177031995FF91EF91A9
:102B7000BF91AF919F918F917F916F915F914F9195
:102B80003F912F910F900BBE0F900FBE0F901F9093
:102B900018951F920F920FB60F9211240BB60F9239
:102BA0002F933F934F935F936F937F938F939F9355
:102BB000AF93BF93EF93FF93809180039091810334
:102BC000892B29F0E0918003F09181031995FF9101
:102BD000EF91BF91AF919F918F917F916F915F9195
:102BE0004F913F912F910F900BBE0F900FBE0F9002
:102BF0001F9018951F920F920FB60F9211240BB6CB
:102C00000F922F933F934F935F936F937F938F9385
:102C10009F93AF93BF93EF93FF9380918203909123
:102C20008303892B29F0E0918203F09183031995A6
:102C3000FF91EF91BF91AF919F918F917F916F9194
:102C40005F914F913F912F910F900BBE0F900FBE50
:102C50000F901F9018951F920F920FB60F9211248C
:102C60002F933F938F939F93AF93BF93809185034F
:102C700090918603A0918703B091880330918403DB
:102C800023E0230F2D3720F40196A11DB11D05C0AF
:102C900026E8230F0296A11DB11D20938403809383
:102CA000850390938603A0938703B0938803809154
:102CB000890390918A03A0918B03B0918C030196B4
:102CC000A11DB11D8093890390938A03A0938B0368
:102CD000B0938C03BF91AF919F918F913F912F91B2
:102CE0000F900FBE0F901F9018952FB7F89460911A
:102CF00085037091860380918703909188032FBF8D
:102D000008953FB7F8948091890390918A03A09128
:102D10008B03B0918C0326B5A89B05C02F3F19F0FB
:102D20000196A11DB11D3FBF6627782F892F9A2FCD
:102D3000620F711D811D911D42E0660F771F881F74
:102D4000991F4A95D1F70895CF92DF92EF92FF92A3
:102D5000CF93DF936B017C010E948116EB01C114BC
:102D6000D104E104F10489F00E94671E0E948116DB
:102D70006C1B7D0B683E734090F381E0C81AD1084C
:102D8000E108F108C851DC4FEACFDF91CF91FF9005
:102D9000EF90DF90CF900895789484B5826084BDE1
:102DA00084B5816084BD85B5826085BD85B581604F
:102DB00085BDEEE6F0E0808181608083E1E8F0E0AF
:102DC0001082808182608083808181608083E0E8DE
:102DD000F0E0808181608083E1EBF0E080818460BD
:102DE0008083E0EBF0E0808181608083E1E9F0E0C6
:102DF000808182608083808181608083E0E9F0E06F
:102E0000808181608083E1EAF0E08081826080835C
:102E1000808181608083E0EAF0E08081816080834E
:102E2000E1E2F1E080818260808380818160808343
:102E3000E0E2F1E0808181608083EAE7F0E0808178
:102E400084608083808182608083808181608083D0
:102E50008081806880831092C10008951F93CF9372
:102E6000DF93182FEB0161E00E944818209711F4BE
:102E700060E004C0CF3FD10539F461E0812FDF91DC
:102E8000CF911F910C948118E12FF0E0E65EFD4F89
:102E9000449150E0FA013197E231F10508F09BC00E
:102EA000E758FF4F0C94F42084B5806884BDC7BDFB
:102EB00097C084B5806284BDC8BD92C080918000F7
:102EC000806880938000D0938900C093880088C078
:102ED00080918000806280938000D0938B00C093AB
:102EE0008A007EC080918000886080938000D093AB
:102EF0008D00C0938C0074C08091B0008068809376
:102F0000B000C093B3006CC08091B0008062809329
:102F1000B000C093B40064C080919000806880933A
:102F20009000D0939900C09398005AC0809190006F
:102F3000806280939000D0939B00C0939A0050C011
:102F400080919000886080939000D0939D00C09302
:102F50009C0046C08091A00080688093A000809172
:102F6000A0008F7B8093A000D093A900C093A800FD
:102F700037C08091A00080628093A000D093AB0006
:102F8000C093AA002DC08091A00088608093A0000B
:102F9000D093AD00C093AC0023C080912001806825
:102FA00080932001D0932901C093280119C08091FA
:102FB0002001806280932001D0932B01C0932A01CD
:102FC0000FC080912001886080932001D0932D0153
:102FD000C0932C0105C0C038D1050CF04ECF48CFAE
:102FE000DF91CF911F91089590E0FC013197E2317C
:102FF000F10508F04CC0E557FF4F0C94F420809188
:1030000080008F7703C0809180008F7D8093800047
:10301000089580918000877FF9CF84B58F7702C0B3
:1030200084B58F7D84BD08958091B0008F7703C0F3
:103030008091B0008F7D8093B000089580919000C2
:103040008F7707C0809190008F7D03C080919000A2
:10305000877F8093900008958091A0008F7707C0AC
:103060008091A0008F7D03C08091A000877F809316
:10307000A0000895809120018F7707C080912001E2
:103080008F7D03C080912001877F80932001089568
:10309000CF93DF9390E0FC01E05AFD4F2491FC01B7
:1030A000EA55FD4F8491882349F190E0880F991FDC
:1030B000FC01E05EFC4FA591B4918A5F9C4FFC013E
:1030C000C591D4919FB7611108C0F8948C91209557
:1030D00082238C93888182230AC0623051F4F89451
:1030E0008C91322F309583238C938881822B888317
:1030F00004C0F8948C91822B8C939FBFDF91CF9169
:1031000008950F931F93CF93DF931F92CDB7DEB730
:10311000282F30E0F901E65EFD4F8491F901E05A75
:10312000FD4F1491F901EA55FD4F04910023C9F0B8
:10313000882321F069830E94F4176981E02FF0E071
:10314000EE0FFF1FEA5FFC4FA591B4919FB7F89473
:103150008C91611103C01095812301C0812B8C9348
:103160009FBF0F90DF91CF911F910F910895CF9343
:10317000DF93282F30E0F901E65EFD4F8491F901DD
:10318000E05AFD4FD491F901EA55FD4FC491CC238B
:1031900091F081110E94F417EC2FF0E0EE0FFF1F69
:1031A000E451FD4FA591B4912C912D2381E090E045
:1031B00021F480E002C080E090E0DF91CF9108959B
:1031C000CF92DF92EF92FF920F931F93CF93DF93F3
:1031D00090E0FC01E05AFD4FD491FC01EA55FD4F0F
:1031E0007491611102C0C0E001C0CD2FDA01C901A4
:1031F000BF70672F70E0660F771F64517D4F00E04E
:1032000010E09801FB01E590F490F70140814D2317
:103210004C131EC0680179014FEFC41AD40AE40AA6
:10322000F40A081719072A073B0709F442C0970157
:103230008601E8CF68017901FFEFCF1ADF0AEF0AB4
:10324000FF0A081719072A073B0799F1970186011A
:10325000FB01E590F490F70140814D234C13EACF38
:10326000801B910BA20BB30B20E030E0A901FB0106
:10327000E590F490F701F080FD22FC120AC02817B7
:1032800039074A075B07A9F02F5F3F4F4F4F5F4F4A
:10329000EECFA8E1B0E00E94FA20605F7F4F8F4F31
:1032A0009F4F24E096958795779567952A95D1F756
:1032B00003C060E070E0CB01DF91CF911F910F91CF
:1032C000FF90EF90DF90CF900895FC01818D228DCB
:1032D00090E0805C9F4F821B91098F73992708951E
:1032E000FC01918D828D981731F0828DE80FF11DD0
:1032F000858D90E008958FEF9FEF0895FC01918DEB
:10330000828D981761F0828DDF01A80FB11D5D9647
:103310008C91928D9F5F9F73928F90E008958FEFB5
:103320009FEF089589E39BE1892B41F080E090E0D5
:10333000892B21F00E94391B811125C080E090E08B
:10334000892B41F080E090E0892B21F00E94000061
:1033500081111CC080E090E0892B41F080E090E07A
:10336000892B21F00E940000811113C080E090E0C1
:10337000892BA1F080E090E0892B81F00E94000071
:1033800081110AC008950E940000D8CF0E94000059
:10339000E1CF0E940000EACF0C9400000895FC01E8
:1033A000848DDF01A80FB11DA35ABF4F2C91848DCE
:1033B00090E001968F739927848FA689B7892C9303
:1033C000A089B1898C9180648C93938D848D98139E
:1033D00006C00288F389E02D80818F7D8083089567
:1033E000CF93DF93EC01888D8823C9F0EA89FB89AC
:1033F000808185FD05C0A889B9898C9186FD0FC0A3
:103400000FB607FCF5CF808185FFF2CFA889B98977
:103410008C9185FFEDCFCE010E94CF19E7CFDF91D0
:10342000CF910895CF92DF92FF920F931F93CF9386
:10343000DF931F92CDB7DEB76C01DC015B969C91E8
:103440005B975C968C915C97981307C05096ED91B2
:10345000FC915197808185FD32C0F601038D10E00B
:103460000F5F1F4F0F731127F02EF601848DF81296
:1034700011C00FB607FCF9CFD6015096ED91FC9123
:103480005197808185FFF1CFC60169830E94CF19D2
:103490006981EBCF838DE80FF11DE35AFF4F608305
:1034A000D6015B960C935B975296ED91FC915397E6
:1034B00080818062808381E058968C930DC0D60114
:1034C0005696ED91FC91579760835096ED91FC9143
:1034D000519780818064808381E090E00F90DF913C
:1034E000CF911F910F91FF90DF90CF900895BF92E1
:1034F000CF92DF92EF92FF92CF93DF93EC016A01BC
:103500007B01B22EE889F98982E08083411581EE42
:10351000580761057105A1F060E079E08DE390E066
:10352000A70196010E94B320215031094109510998
:103530005695479537952795211580E1380798F0DE
:10354000E889F989108260E874E88EE190E0A701CB
:1035500096010E94B3202150310941095109569525
:10356000479537952795EC85FD853083EE85FF855A
:103570002083188EEC89FD89B082EA89FB898081DD
:1035800080618083EA89FB89808188608083EA8901
:10359000FB89808180688083EA89FB8980818F7DB7
:1035A0008083DF91CF91FF90EF90DF90CF90BF901D
:1035B00008951F920F920FB60F9211240BB60F921F
:1035C0002F938F939F93EF93FF93E0919D03F0913F
:1035D0009E038081E091A303F091A40382FD12C0B9
:1035E00090818091A6038F5F8F732091A70382172C
:1035F00051F0E091A603F0E0E357FC4F958F8093E4
:10360000A60301C08081FF91EF919F918F912F912F
:103610000F900BBE0F900FBE0F901F9018951F922A
:103620000F920FB60F9211240BB60F922F933F9368
:103630004F935F936F937F938F939F93AF93BF93BA
:10364000EF93FF938DE893E00E94CF19FF91EF91E4
:10365000BF91AF919F918F917F916F915F914F91AA
:103660003F912F910F900BBE0F900FBE0F901F90A8
:1036700018958DE893E00E94651921E0892B09F4E3
:1036800020E0822F08951092900310928F0388EE0D
:1036900093E0A0E0B0E08093910390939203A09315
:1036A0009303B093940388E492E090938E03809305
:1036B0008D0385EC90E090939A038093990384ECBA
:1036C00090E090939C0380939B0380EC90E0909318
:1036D0009E0380939D0381EC90E09093A0038093E0
:1036E0009F0382EC90E09093A2038093A10386EC69
:1036F00090E09093A4038093A3031092A6031092EA
:10370000A7031092A8031092A903089508950E9498
:10371000CC160E94861B0E946002C2E9D9E10E9479
:1037200080022097E1F30E949219F9CFCF92DF92A5
:10373000EF92FF920F931F93CF93DF936C017A0167
:10374000EB01E60EF71E00E010E0CE15DF0561F09C
:103750006991D601ED91FC910190F081E02DC601B7
:103760001995080F191FF1CFC801DF91CF911F9153
:103770000F91FF90EF90DF90CF9008956115710544
:1037800081F0DB010D900020E9F7AD0141505109B6
:10379000461B570BDC01ED91FC910280F381E02D7B
:1037A000199480E090E00895DC01ED91FC91DB013B
:1037B00014964D915C9115976D917C910280F381E7
:1037C000E02D19940C94BE1BDC01ED91FC9101904D
:1037D000F081E02D19940F931F93CF93DF93EC01A9
:1037E0006DE00E94E41B8C016AE0CE010E94E41BA4
:1037F000800F911FDF91CF911F910F9108950F932B
:103800001F93CF93DF93EC010E94D41B8C01CE0158
:103810000E94EB1B800F911FDF91CF911F910F91A1
:1038200008950F931F93CF93DF93EC010E94BE1B6B
:103830008C01CE010E94EB1B800F911FDF91CF9175
:103840001F910F9108954F925F926F927F92AF9266
:10385000BF92CF92DF92EF92FF920F931F93CF937D
:10386000DF93CDB7DEB729013A01621B730B840BDE
:10387000950B2A893B894C895D892A193B094C099A
:103880005D092A8B3B8B4C8B5D8B9B01AC016A895C
:103890007B898C899D890E948320E418F50806099C
:1038A0001709A80197010E94D5202A0D3B1D4C1D28
:1038B0005D1DCA01B901DF91CF911F910F91FF905A
:1038C000EF90DF90CF90BF90AF907F906F905F9020
:1038D0004F900895FC01808191810C94E521CF9354
:1038E000DF93EC0188819981009711F00E94E52116
:1038F000198218821D821C821B821A82DF91CF914D
:1039000008950F931F93CF93DF93EC018B016F5FAB
:103910007F4F888199810E947422009731F09983AA
:1039200088831B830A8381E001C080E0DF91CF910F
:103930001F910F910895CF93DF93EC0188819981B6
:10394000892B29F08A819B818617970760F4CE0125
:103950000E94811C882341F08C819D81892B19F460
:10396000E881F981108281E0DF91CF910895EF9293
:10397000FF920F931F93CF93DF93EC017B018A019A
:10398000BA010E949B1C811104C0CE010E946F1CD1
:1039900007C01D830C83B701888199810E949623FB
:1039A000CE01DF91CF911F910F91FF90EF9008957D
:1039B000FC01118210821382128215821482611519
:1039C000710559F0FB0101900020E9F7AF0141506A
:1039D0005109461B570B0C94B71C0895CF93DF93E6
:1039E000EC01FB018617970761F060817181611519
:1039F000710529F0448155810E94B71C02C00E94C4
:103A00006F1CCE01DF91CF910895CF93DF93EC012E
:103A10006115710561F0FB0101900020E9F7AF012C
:103A200041505109461B570B0E94B71C02C00E940F
:103A30006F1CCE01DF91CF9108950F931F93CF9309
:103A4000DF93CDB7DEB762970FB6F894DEBF0FBE37
:103A5000CDBF8C01CB01F80111821082138212823A
:103A60001582148250E0BE016F5F7F4F0E949D233C
:103A7000BE016F5F7F4FC8010E94051D62960FB6A1
:103A8000F894DEBF0FBECDBFDF91CF911F910F9194
:103A90000895EF92FF920F931F93CF93DF93CDB7CB
:103AA000DEB7A1970FB6F894DEBF0FBECDBF7C0185
:103AB000CB01BA01F70111821082138212821582A2
:103AC000148242E0420F8E010F5F1F4F0E942C2193
:103AD000BC01C7010E94051DA1960FB6F894DEBF78
:103AE0000FBECDBFDF91CF911F910F91FF90EF904F
:103AF0000895EF92FF920F931F93CF93DF93EC0102
:103B00007B010C811D816115710511F480E016C0E7
:103B10004115510591F0040F151FB8010E949B1C1F
:103B20008823A1F3288139818C819D81B701820F7F
:103B3000931F0E9496231D830C8381E0DF91CF9118
:103B40001F910F91FF90EF900895CF93DF931F92F5
:103B50001F92CDB7DEB769831A8241E050E0BE0103
:103B60006F5F7F4F0E94791D0F900F90DF91CF9173
:103B70000895CF93DF93EC01FB014481558160816F
:103B800071810E94791D811103C0CE010E946F1CBA
:103B9000CE01DF91CF910895CF93DF93EC016115B2
:103BA000710569F0FB0101900020E9F7AF01415078
:103BB0005109461B570B0E94791D811103C0CE018C
:103BC0000E946F1CCE01DF91CF910895FC012481EA
:103BD0003581232B31F421E061157105A1F0FB0142
:103BE00008C0FC01808191816115710531F421E0EB
:103BF000FC018081882339F005C00E948D2321E0DB
:103C0000892B09F020E0822F0895FC0184819581A1
:103C10006817790720F480819181009729F4109228
:103C20002A048AE294E00895860F971F0895BF92B0
:103C3000CF92DF92EF92FF920F931F93CF93DF9378
:103C40006C017B01EA0189012417350720F48D2FCF
:103C5000E901042F182F62E172E0C6010E94D81C0E
:103C6000D70114968D919C911597C817D907C8F460
:103C70008017910708F48C01D701ED91FC91119701
:103C8000E00FF11FB08010826D917C916C0F7D1F51
:103C9000C6010E94051DD701ED91FC91E00FF11FB7
:103CA000B082C601DF91CF911F910F91FF90EF90ED
:103CB000DF90CF90BF900895FC01808191810097A3
:103CC00011F00C945D2360E070E0CB01089508953D
:103CD0005058BB27AA270ED075C166D130F06BD1E2
:103CE00020F031F49F3F11F41EF45BC10EF4E09517
:103CF000E7FB51C1E92F77D180F3BA176207730749
:103D00008407950718F071F49EF58FC10EF4E095C5
:103D10000B2EBA2FA02D0B01B90190010C01CA0185
:103D2000A0011124FF27591B99F0593F50F4503E30
:103D300068F11A16F040A22F232F342F4427585F22
:103D4000F3CF469537952795A795F0405395C9F73A
:103D50007EF41F16BA0B620B730B840BBAF09150F2
:103D6000A1F0FF0FBB1F661F771F881FC2F70EC091
:103D7000BA0F621F731F841F48F487957795679564
:103D8000B795F7959E3F08F0B3CF9395880F08F04D
:103D90009927EE0F979587950895D9D008F481E07B
:103DA00008950CD00FC107D140F0FED030F021F4BF
:103DB0005F3F19F0F0C0511139C1F3C014D198F32D
:103DC0009923C9F35523B1F3951B550BBB27AA279C
:103DD00062177307840738F09F5F5F4F220F331F0E
:103DE000441FAA1FA9F333D00E2E3AF0E0E830D0DA
:103DF00091505040E695001CCAF729D0FE2F27D0DD
:103E0000660F771F881FBB1F261737074807AB07AA
:103E1000B0E809F0BB0B802DBF01FF2793585F4F1F
:103E20002AF09E3F510568F0B6C000C15F3FECF339
:103E3000983EDCF3869577956795B795F7959F5FE4
:103E4000C9F7880F911D9695879597F90895E1E038
:103E5000660F771F881FBB1F621773078407BA0797
:103E600020F0621B730B840BBA0BEE1F88F7E095F2
:103E7000089504D06894B111D9C00895BCD088F0D9
:103E80009F5790F0B92F9927B751A0F0D1F0660F46
:103E9000771F881F991F1AF0BA95C9F712C0B13061
:103EA00081F0C3D0B1E00895C0C0672F782F882774
:103EB000B85F39F0B93FCCF3869577956795B395A0
:103EC000D9F73EF490958095709561957F4F8F4F0F
:103ED0009F4F0895E89409C097FB3EF49095809514
:103EE000709561957F4F8F4F9F4F9923A9F0F92FC0
:103EF00096E9BB279395F695879577956795B7953E
:103F0000F111F8CFFAF4BB0F11F460FF1BC06F5F23
:103F10007F4F8F4F9F4F16C0882311F096E911C035
:103F2000772321F09EE8872F762F05C0662371F056
:103F300096E8862F70E060E02AF09A95660F771F6A
:103F4000881FDAF7880F9695879597F90895990F46
:103F50000008550FAA0BE0E8FEEF16161706E80753
:103F6000F907C0F012161306E407F50798F0621B74
:103F7000730B840B950B39F40A2661F0232B242B49
:103F8000252B21F408950A2609F4A140A6958FEF68
:103F9000811D811D089597F99F6780E870E060E0BA
:103FA00008959FEF80EC089500240A9416161706D2
:103FB00018060906089500240A941216130614061A
:103FC00005060895092E0394000C11F4882352F07D
:103FD000BB0F40F4BF2B11F460FF04C06F5F7F4F35
:103FE0008F4F9F4F089557FD9058440F551F59F01C
:103FF0005F3F71F04795880F97FB991F61F09F3FD6
:1040000079F087950895121613061406551FF2CFFE
:104010004695F1DF08C0161617061806991FF1CF4E
:1040200086957105610508940895E894BB27662775
:104030007727CB0197F908958ADF08F48FEF089569
:104040000BD0C0CFB1DF28F0B6DF18F0952309F010
:10405000A2CFA7CF1124EACFC6DFA0F3959FD1F35B
:10406000950F50E0551F629FF001729FBB27F00D26
:10407000B11D639FAA27F00DB11DAA1F649F66277B
:10408000B00DA11D661F829F2227B00DA11D621FCA
:10409000739FB00DA11D621F839FA00D611D221F84
:1040A000749F3327A00D611D231F849F600D211D68
:1040B000822F762F6A2F11249F5750408AF0E1F00B
:1040C00088234AF0EE0FFF1FBB1F661F771F881F54
:1040D00091505040A9F79E3F510570F05CCFA6CF9C
:1040E0005F3FECF3983EDCF3869577956795B7953F
:1040F000F795E7959F5FC1F7FE2B880F911D969569
:10410000879597F90895DB018F939F930E94FA207A
:10411000BF91AF91A29F800D911DA39F900DB29F63
:10412000900D11240895991B79E004C0991F9617EA
:1041300008F0961B881F7A95C9F78095089597FB1C
:10414000072E16F4009407D077FD09D00E940921AC
:1041500007FC05D03EF4909581959F4F089570958A
:1041600061957F4F0895A1E21A2EAA1BBB1BFD018A
:104170000DC0AA1FBB1FEE1FFF1FA217B307E40746
:10418000F50720F0A21BB30BE40BF50B661F771F9E
:10419000881F991F1A9469F760957095809590957E
:1041A0009B01AC01BD01CF010895052E97FB1EF4C4
:1041B00000940E94EC2057FD07D00E94B32007FC1A
:1041C00003D04EF40C94EC205095409530952195F9
:1041D0003F4F4F4F5F4F0895909580957095619533
:1041E0007F4F8F4F9F4F0895EE0FFF1F0590F49163
:1041F000E02D19940E941D21A59F900DB49F900D54
:10420000A49F800D911D112408950790F691E02D33
:104210001994AA1BBB1B51E107C0AA1FBB1FA617FD
:10422000B70710F0A61BB70B881F991F5A95A9F75F
:1042300080959095BC01CD010895A29FB001B39FD8
:10424000C001A39F700D811D1124911DB29F700D9F
:10425000811D1124911D0895EF920F931F93CF9309
:10426000DF93E80147FF02C034E101C034E0E42FEE
:10427000FF27E7FDF095F7FF03C0F195E195F10900
:10428000E32E022F2E2FAE010E94E223CE01DF91FA
:10429000CF911F910F91EF900895CF93DF938230CC
:1042A000910510F482E090E0E0912D04F0912E044D
:1042B00020E030E0A0E0B0E0309739F1408151815A
:1042C00048175907B8F04817590771F4828193814C
:1042D000109729F013969C938E9312972CC090936D
:1042E0002E0480932D0427C02115310531F042178B
:1042F000530718F0A901DB0101C0EF019A01BD01CC
:10430000DF010280F381E02DD7CF21153105F9F0CF
:10431000281B390B2430310580F48A819B8161157B
:10432000710521F0FB019383828304C090932E04D6
:1043300080932D04FE01329644C0FE01E20FF31F6C
:104340008193919322503109398328833AC0209177
:104350002B0430912C04232B41F420910202309144
:10436000030230932C0420932B04209100023091FF
:1043700001022115310541F42DB73EB740910402E9
:1043800050910502241B350BE0912B04F0912C0475
:10439000E217F307A0F42E1B3F0B2817390778F01C
:1043A000AC014E5F5F4F2417350748F04E0F5F1F7B
:1043B00050932C0440932B048193919302C0E0E02E
:1043C000F0E0CF01DF91CF910895CF93DF93009775
:1043D00009F487C0FC01329713821282C0912D0428
:1043E000D0912E04209781F420813181280F391F2C
:1043F00080912B0490912C048217930779F5F09308
:104400002C04E0932B046DC0DE0120E030E0AE17F9
:10441000BF0750F412964D915C9113979D01411581
:10442000510509F1DA01F3CFB383A28340815181B1
:10443000840F951F8A179B0771F48D919C9111979A
:10444000840F951F02969183808312968D919C9183
:104450001397938382832115310529F4F0932E0459
:10446000E0932D043EC0D9011396FC93EE9312976E
:104470004D915D91A40FB51FEA17FB0779F4808178
:104480009181840F951F0296D90111969C938E936A
:104490008281938113969C938E931297E0E0F0E0D3
:1044A0008A819B81009719F0FE01EC01F9CFCE01C2
:1044B000029628813981820F931F20912B0430911D
:1044C0002C042817390769F4309729F410922E0428
:1044D00010922D0402C013821282D0932C04C09338
:1044E0002B04DF91CF9108956F927F928F929F92CC
:1044F000AF92BF92CF92DF92EF92FF920F931F93F2
:10450000CF93DF93EC01CB01209781F4DF91CF9122
:104510001F910F91FF90EF90DF90CF90BF90AF90E1
:104520009F908F907F906F900C944D21FE01E60F2D
:10453000F71F9E0122503109E217F30708F4ACC0BF
:10454000D9010D911C91119706171707B8F0053086
:10455000110508F49FC0A801445051094617570798
:1045600008F498C002501109061B170B0193119310
:104570006D937C93CF010E94E5218CC05B01A01A52
:10458000B10A4E01800E911EA0912D04B0912E040F
:10459000612C712C60E070E0109709F449C0A815F7
:1045A000B905C9F5ED90FC901197670142E0C40E82
:1045B000D11CCA14DB0478F147018A189B086401F6
:1045C00042E0C40ED11C1296BC9012971396AC9187
:1045D000B5E0CB16D10440F0B282A38391828082F1
:1045E000D9018D939C9309C00E5F1F4F0E0D1F1DA7
:1045F000F90111830083EB2DFA2F6115710531F05C
:10460000DB011396FC93EE93129744C0F0932E04B3
:10461000E0932D043FC06D917C911197661677064B
:1046200008F43B01BD0112960D90BC91A02DB4CFB2
:1046300060912B0470912C0468157905E9F46816D3
:104640007906D0F4409100025091010241155105C4
:1046500041F44DB75EB76091040270910502461BAC
:10466000570BE417F507C0F4F0932C04E0932B04E8
:10467000F901918380830EC00E944D217C01009737
:1046800059F0A801BE010E948423CE010E94E521B9
:10469000C70104C0CE0102C080E090E0DF91CF915D
:1046A0001F910F91FF90EF90DF90CF90BF90AF9050
:1046B0009F908F907F906F9008951F93FC01992792
:1046C0008827BC01E89411911032E9F3193010F0F9
:1046D0001E30C8F31B3251F01D3249F4689406C0F5
:1046E0000E94B323610F711D811D911D1191105303
:1046F0001A30B0F33EF490958095709561957F4F98
:104700008F4F9F4F1F910895FB01DC0102C0019064
:104710000D9241505040D8F70895FB01DC018D9176
:10472000019080190110D9F3990B0895FB01DC0168
:1047300001900D920020E1F708954532510520F4D3
:10474000423010F00C94A823FB011082CB01089595
:10475000BB274A3031F4992322F4BDE2909581952C
:104760009F4F0C94C923592F482F372F262F660FA0
:10477000771F881F991F660F771F881F991F620F69
:10478000731F841F951F660F771F881F991F089539
:10479000BB27FB015527AA27880F991FAA1FA4171B
:1047A00010F0A41B83955051B9F7A05DAA3308F00F
:1047B000A95DA193009779F7B111B1931192CB0143
:1047C0000C9438266F927F929F92AF92BF92CF92B5
:1047D000DF92EF92FF920F931F93CF93DF93CDB7AA
:1047E000DEB729970FB6F894DEBF0FBECDBF6A01C2
:1047F000B22E102F0C3320F4FF24F394F00E02C0DD
:104800004CE3F42E0F2D27E0AE014F5F5F4F0E9467
:1048100060257981272F2970213031F0E1FC06C015
:10482000E0FC06C060E005C06DE203C06BE201C0C1
:1048300060E2AE2DA07173FF36C0662311F084E0F4
:1048400001C083E08B1510F4B81A01C0B12CA1117E
:104850000BC0F6018B2D90E2882319F091938150C3
:10486000FBCFCB0CD11CB12C662331F0F601608359
:1048700096012F5F3F4F6901C6010396E2FE05C016
:104880002EE4F601208331E404C02EE6F6012083F5
:1048900031E631832283FC012B2D30E22223F1F11A
:1048A00031932150FBCF72FF40C0662311F084E0AA
:1048B00001C083E08B1510F4B81A01C0B12CA1110E
:1048C0000BC0F6018B2D90E2882319F09193815053
:1048D000FBCFCB0CD11CB12C662331F0F6016083E9
:1048E00096012F5F3F4F6901C6010396E2FE07C0A4
:1048F00029E4F60120832EE4218326E406C029E67C
:10490000F60120832EE6218326E62283FC012B2D4F
:1049100030E2222319F031932150FBCFFC01EB0D43
:10492000F11D10828EEF9FEFB7C0B1E0611101C0A1
:10493000B0E04B2F50E01816190624F49C012F5FAD
:104940003F4F02C021E030E0240F351F112329F032
:10495000412F50E04F5F5F4F02C040E050E0420FF8
:10496000531F2B2D30E04217530714F4B41A01C023
:10497000B12C2E2D287159F4F6012B2D30E2222373
:1049800019F031932150FBCFCB0CD11CB12CBB23A0
:1049900031F0F601608396012F5F3F4F6901A1114D
:1049A0000BC0F6012B2D30E3222319F03193215057
:1049B000FBCFCB0CD11CB12CF80E0A81372F3071F4
:1049C000A32E74FF03C0013309F4FA941F142CF4CE
:1049D0002F2D293018F028E001C021E0682F392F51
:1049E00097FF02C060E030E0462F532F612C712CFE
:1049F0003EE2932EBC01621B71099B01DC01A41BEA
:104A0000B50BE1E0F0E0EC0FFD1FAE0FBF1FE12E94
:104A1000F12CF194E194F1084F3FFFEF5F0731F47F
:104A2000F6019082B6016F5F7F4F6B018417950787
:104A30004CF02417350734F4BD01660D771DFB01DA
:104A4000118101C010E341505109FFEF6F1A7F0A35
:104A5000B6016F5F7F4F4E155F0524F0F60110839E
:104A60006B01DACF4817590739F4063320F40533C0
:104A700019F4A11001C011E3F6011083FB018B2D85
:104A800090E2882319F091938150FBCFFB01EB0D4D
:104A9000F11D108280E090E029960FB6F894DEBFF9
:104AA0000FBECDBFDF91CF911F910F91FF90EF907F
:104AB000DF90CF90BF90AF909F907F906F900895C0
:104AC000283008F027E03327DA01990F311D87FDE0
:104AD000916000966105710539F432602E5F3D9357
:104AE00030E32A95E1F708959F3F30F08038710553
:104AF000610509F03C5F3C5F3D93913008F08068B0
:104B0000911DDF93CF931F930F93FF92EF92192F75
:104B1000987F9695E92F96959695E90FFF27EC5685
:104B2000FC4F99273327EE24FF24A701E7010590C6
:104B30000894079428F4360FE71EF81E491F511DEC
:104B4000660F771F881F991F0694A1F70590079499
:104B500028F4E70EF81E491F561FC11D770F881F46
:104B6000991F661F0694A1F70590079428F4F80E84
:104B7000491F561FC71FD11D880F991F661F771F1A
:104B80000694A1F70590079420F4490F561FC71FFC
:104B9000D81F990F661F771F881F0694A9F7849165
:104BA0001095177041F0D695C79557954795F7948E
:104BB000E7941A95C1F7EAE3F3E06894159015912C
:104BC00035916591959105907FE27395E118F10A11
:104BD000430B560BC90BD009C0F7E10CF11E431F64
:104BE000561FC91FD01D7EF4703311F48A95E6CF8D
:104BF000E894015030F0080F0AF40027021708F477
:104C0000202F2395022F7A3328F079E37D932A957C
:104C1000E9F710C07D932A9589F6069497956795D4
:104C2000379517951794E118F10A430B560BC90BEA
:104C3000D00998F023957E9173957A3308F070E34C
:104C40007C932013B8F77E9170617D9330F083954B
:104C500071E37D9370E32A95E1F71124EF90FF90C3
:104C60000F911F91CF91DF91992787FD909508951E
:104C7000DC01FC01672F71917723E1F7329704C0C3
:104C80007C916D9370836291AE17BF07C8F308954E
:104C900014E0C8E3D4E000E006C022970109FE0159
:104CA0000BBF0E940521CA33D10780E00807A9F78E
:044CB000F894FFCFA6
:104CB40000002F048000010000002444500024441C
:104CC400500A00444F3A2000544F3A2000464C3AD0
:104CD400200046523A2000545241002452500024ED
:104CE400525030002452503030002453500A0024D3
:104CF40049500A0000000000121A961B65197E191B
:044D04007019F01919
:00000001FF
