:1000000004C1000016C7000045C7000074C7000007
:10001000A3C70000D2C700000C940E080C943F0840
:100020000C9470081FC100001DC100001BC100001E
:1000300019C1000017C1000015C1000013C1000064
:1000400011C100004DC600000DC100000BC1000031
:1000500009C1000007C1000005C100000C94A108FF
:1000600001C100000C948A0A0C94DA0BFBC000005A
:10007000F9C00000F7C00000F5C00000F3C00000A8
:1000800002C60000EFC00000EDC00000EBC00000A1
:100090000C94CA0A0C94190CE5C00000E3C00000DF
:1000A000E1C00000DFC00000C1C50000DBC00000EF
:1000B000D9C00000D7C00000D5C000008AC500002C
:1000C000D1C00000CFC00000CDC000000C940A0BCE
:1000D0000C94580CC7C000000C944A0B0C94970C5D
:1000E000C1C0000000002100240027002A002D00CC
:1000F0003000330001010000040107010A01000083
:100100002200250028002B002E00310034000201BF
:100110000000050108010B0100002000230026005B
:1001200029002C002F00320000010000030106010D
:10013000090105050505070508080808020202026D
:100140000A0A080804040404010101010101010173
:100150000303030303030303040707070C0C0C0C3E
:100160000C0C0C0C02020202060606060606060627
:100170000B0B0B0B0B0B0B0B0102102020080810B4
:100180002040102040800201020108040201010207
:1001900004081020408080402010080402018004E0
:1001A000020180402010080402010804020101023B
:1001B0000408102040800102040810204080000044
:1001C000090A02080B0C0D070603040100000000D9
:1001D000000000000000000000000000000000001F
:1001E0000000000000000000000011100F000000DF
:1001F00000000000000000000000000000000000FF
:1002000000000000C301070EBE0111241FBECFEF86
:10021000D1E2DEBFCDBF00E00CBF12E0A0E0B2E053
:10022000E8ECF7E200E00BBF02C007900D92AC32A1
:10023000B107D9F71BBE15E0ACE2B2E001C01D92D8
:10024000AD3CB107E1F712E0C8E0D2E004C022976C
:10025000FE010E94D413C430D107C9F70E943E0F9B
:100260000C94D813CDCE1F93FC0199278827BC018D
:10027000E89411911032E9F3193010F01E30C8F3F0
:100280001B3249F01D3241F4689405C022D0610F41
:10029000711D811D911D119110531A30B8F33EF458
:1002A00090958095709561957F4F8F4F9F4F1F91CF
:1002B0000895FB01DC0102C001900D9241505040B5
:1002C000D8F70895FB01DC0101900D920020E1F7C1
:1002D0000895592F482F372F262F660F771F881F15
:1002E000991F660F771F881F991F620F731F841F46
:1002F000951F660F771F881F991F08958CE292E063
:10030000C8C08CE292E04AC10F931F938CE292E046
:10031000A0D10EE711E082E0B80141E050E00DD538
:1003200083E0B80141E050E008D584E0B80141E045
:1003300050E003D585E0B80141E050E0FED41F91C4
:100340000F9108958130910579F46F5F7F4FA9F483
:1003500084E692E00DD287E692E00AD28AE692E045
:1003600060E072E00C94A410892B39F46F5F7F4F2A
:1003700021F48AE692E00C942D11089580E090E03B
:100380006FEF7FEFDFCF81E090E06FEF7FEFDACFAD
:100390008F929F92AF92BF92CF92DF92EF92FF9295
:1003A0000F931F93DF93CF93CDB7DEB72C970FB684
:1003B000F894DEBF0FBECDBF4C018EE3C82ED12C0A
:1003C000C80CD91C7E010894E11CF11CC701B601C0
:1003D00043E050E024E030E00E94D310C7010E94C7
:1003E000F00F5B018E01095F1F4FC801B60145E0A8
:1003F00050E026E030E00E94D310C701B8010E940F
:100400001811C8010E942D11C7010E94F00F7B0135
:100410008C01C60162E070E00E94DB0FFC0180816C
:100420008B3221F48AE590E0A80EB91EC401C8966B
:10043000B501F4D16FE070E080E090E0CAD6C4016D
:10044000CB96B701EBD16FE070E080E090E0C1D6D1
:1004500080E495E061E072E00E94920F80E495E014
:100460000E94B70DCE0101960E942D112C960FB659
:10047000F894DEBF0FBECDBFCF91DF911F910F91DA
:10048000FF90EF90DF90CF90BF90AF909F908F90B4
:100490000895029660C10F931F93CF93DF938B0152
:1004A00064EF71E080E090E094D6C0E0D0E019C045
:1004B0008DE060E0FCD76AEF70E080E090E089D6E4
:1004C0008DE061E0F4D76AEF70E080E090E081D6E3
:1004D0008DE060E0ECD76AEF70E080E090E079D6E4
:1004E0002196C017D10724F3DF91CF911F910F916F
:1004F00008950F931F9363E070E0CDDF00E415E0F3
:10050000C80166E072E00E94920FC8010E94B70D18
:100510001F910F9108950F931F9364E070E0BBDF6C
:1005200000E415E0C8016BE072E00E94920FC80180
:100530000E94B70D1F910F9108950F931F9365E0CF
:1005400070E0A9DF00E415E0C80160E172E00E94FC
:10055000920FC8010E94B70D1F910F910895CF937C
:10056000DF93EC01CE9661E070E00E94DB0FFC01AE
:10057000E081E93459F0E23519F0E43451F403C074
:10058000CE01C9DF08C0CE01D8DF05C0CE0100DF33
:1005900002C0CE01AEDFDF91CF910895BF92CF921E
:1005A000DF92EF92FF920F931F93CF93DF93EC01B3
:1005B0008C01025C1F4F35E4E32EF12CE80EF91E8E
:1005C00024E4C22ED12CC80ED91EBB24B39410C073
:1005D00080E495E00E948E0D682FF7018083C801AA
:1005E0000E946110F70180818A3011F4F601B08217
:1005F00080E495E00E945C0D181619064CF36AEF32
:1006000070E080E090E0E5D594E4E92EF12CEC0E6A
:10061000FD1EF7018081882391F0C80160E070E041
:100620000E94DB0FFC018081843249F4CE0197DF08
:10063000C80160E072E00E94BC10F7011082DF91F7
:10064000CF911F910F91FF90EF90DF90CF90BF90CF
:100650000895EF92FF920F931F937C01029662E040
:1006600070E040E054E06DD0C7010A9663E070E0AE
:1006700040E054E066D087010E5E1F4FC80164E081
:1006800070E040E054E05DD0C80165E070E040E01B
:1006900054E057D0C701829667E070E04EE150E029
:1006A0002FE130E000E010E03BD0C7018D9668E01C
:1006B00070E040E250E021E230E001E010E030D0B4
:1006C000C701C89669E070E0BFD1C701CB966AE068
:1006D00070E0BAD18DE061E037D685E490E0E80EB5
:1006E000F91EF70110828BEB9FEFE80EF91EC70190
:1006F000CE9660E072E00E94BC10E4E4F0E0EE0E02
:10070000FF1EF701108280E495E040E052EC61E0CA
:1007100070E00E94D60C1F910F91FF90EF9008950A
:100720000F931F93FC01718360835383428335834E
:100730002483178216821286118700871F910F91DA
:100740000895FC0171836083538342831482158270
:10075000168217820895FC0184819581A681B78154
:100760000196A11DB11D84839583A683B783089547
:10077000FC0180917202803390F480838F5F8093BC
:100780007202815090E0FC01EE0FFF1FE80FF91F8D
:10079000ED58FD4F88EB9BE09283818308958FEFA6
:1007A00080830895FC0120812033B8F58181992749
:1007B00087FD909548E850E0481B590B440F551FA2
:1007C000440F551F6417750784F08281992787FDB0
:1007D000909548E552E0481B590B440F551F440FB4
:1007E000551F641775070CF4AB0142505040CA0105
:1007F000AA2797FDA095BA2F880F991FAA1FBB1F84
:100800004FB7F89430E0F901EE0FFF1FE20FF31F2E
:10081000ED58FD4F928381834FBF0895AF92BF92F1
:10082000CF92DF92EF92FF920F931F93CF93DF93BC
:10083000EC019B0182E0603278070CF048C077FF42
:1008400003C020E030E005C0653B710514F024EBE7
:1008500030E000D00F92B901882777FD8095982F5E
:100860002981332727FD3095E8E8AE2EB12CA21A56
:10087000B30AAA0CBB1CAA0CBB1CCC24B7FCC094AA
:10088000DC2CEA81FF27E7FDF09528E532E02E1BFE
:100890003F0B220F331F220F331F442737FD409594
:1008A000542FEDB7FEB7218332834383548320E076
:1008B00030E040E050E004EBE02EF12C012D112D52
:1008C0000E94940F9B010F900F900F900F90CE01FC
:1008D000B90168DFDF91CF911F910F91FF90EF90E9
:1008E000DF90CF90BF90AF900895CF92DF92EF92BC
:1008F000FF921F93CF93DF93EC01162F7A016901CA
:100900008881803308F092C0862F61E01DD58881F0
:1009100090E0FC01EE0FFF1FE80FF91FED58FD4FAF
:100920001F738081807C812B808380E292E08E190E
:100930009F0964E070E00E946E13698380E699E08D
:100940008C199D0964E070E00E946E136A83A8818F
:100950008A2F6CE00E946213682F70E0AB01440F95
:10096000551F460F571F440F551F440F551F20E0BA
:1009700030E0C901840F951FFC01EE0FFF1FE80F47
:10098000F91FED58FD4F808186FD44C02F5F3F4F1A
:100990002C30310571F753C01092800082E08093B3
:1009A00081001092850010928400B19A80916F00AE
:1009B000826080936F002EC06230710569F41092DE
:1009C000900082E080939100109295001092940024
:1009D00088BB809371001EC06330710569F410926A
:1009E000A00082E08093A1001092A5001092A400C4
:1009F00089BB809372000EC0672B61F410922001B6
:100A000082E08093210110922501109224018ABB7B
:100A1000809373008A2F90E0FC01EE0FFF1FE80F18
:100A2000F91FED58FD4F8081806480838881DF91BC
:100A3000CF911F91FF90EF90DF90CF90089561309C
:100A4000710509F0B9CFA8CF40E252E020E639E0C5
:100A50004CCFEF92FF920F931F93CF93DF938B01B5
:100A60007A01EC01DC01AD5FBC4F8C9187FF04C0C3
:100A7000FB011182108236C0AE01440F551F4C0F8E
:100A80005D1F440F551F440F551F2C91332727FD21
:100A90003095240F351F8091720290E02817390796
:100AA0000CF58C91992787FD9095840F951FFC017B
:100AB000EE0FFF1FE80FF91FED58FD4F808186FFF5
:100AC00011C08C91992787FD9095840F951FFC018B
:100AD000EE0FFF1FE80FF91FED58FD4F80818F7358
:100AE00060E0E5D4DE01AD5FBC4F8C918F5F8C93ED
:100AF000AE01440F551F4C0F5D1F440F551F440F8F
:100B0000551F2C91332727FD3095240F351F8091D9
:100B1000720290E0281739070CF04CC08C918C3091
:100B20000CF048C0F801208131818C91992787FD14
:100B30009095840F951FFC01EE0FFF1FE80FF91F22
:100B4000ED58FD4F81819281280F391FF7013183C4
:100B500020838C91992787FD9095840F951FFC0128
:100B6000EE0FFF1FE80FF91FED58FD4F808186FF44
:100B700029C08C91992787FD9095840F951FFC01C2
:100B8000EE0FFF1FE80FF91FED58FD4F80818F73A7
:100B900061E08DD417C080E49CE904C0F801808135
:100BA00091810496F70191838083CD5FDC4F8FEFB5
:100BB000888308C0F80180819181049680549C4903
:100BC00050F3ECCFDF91CF911F910F91FF90EF90F9
:100BD00008951F920F920FB60F920BB60F92112429
:100BE0002F933F934F935F936F937F938F939F9335
:100BF000AF93BF93EF93FF9380E090E064E271E0E6
:100C000048E251E026DFFF91EF91BF91AF919F91B4
:100C10008F917F916F915F914F913F912F910F90A5
:100C20000BBE0F900FBE0F901F9018951F920F9242
:100C30000FB60F920BB60F9211242F933F934F9341
:100C40005F936F937F938F939F93AF93BF93EF9334
:100C5000FF9383E090E064EA70E048EA50E0F9DE58
:100C6000FF91EF91BF91AF919F918F917F916F9184
:100C70005F914F913F912F910F900BBE0F900FBE40
:100C80000F901F9018951F920F920FB60F920BB6F0
:100C90000F9211242F933F934F935F936F937F9302
:100CA0008F939F93AF93BF93EF93FF9382E090E076
:100CB00064E970E048E950E0CCDEFF91EF91BF912C
:100CC000AF919F918F917F916F915F914F913F91E4
:100CD0002F910F900BBE0F900FBE0F901F90189585
:100CE0001F920F920FB60F920BB60F9211242F93F3
:100CF0003F934F935F936F937F938F939F93AF93A4
:100D0000BF93EF93FF9381E090E064E870E048E8E0
:100D100050E09FDEFF91EF91BF91AF919F918F9136
:100D20007F916F915F914F913F912F910F900BBEEB
:100D30000F900FBE0F901F901895883008F078C064
:100D4000E82FF0E0EE0FFF1FE95FFC4F7183608337
:100D50008330D9F0843030F4813009F444C08230DB
:100D600060F439C0853051F18530D8F0863009F40F
:100D700046C0873009F05CC04FC0809169008C7F0D
:100D8000842B80936900E89A089580916900440F4C
:100D9000551F440F551F837F842B80936900E99A68
:100DA00008958091690074E0440F551F7A95E1F72A
:100DB0008F7C842B80936900EA9A08958091690062
:100DC00066E0440F551F6A95E1F78F73842B80937B
:100DD0006900EB9A089580916A008C7F842B809340
:100DE0006A00EC9A089580916A00440F551F440FE1
:100DF000551F837F842B80936A00ED9A089580911C
:100E00006A0024E0440F551F2A95E1F78F7C842B5C
:100E100080936A00EE9A089580916A0096E0440FEC
:100E2000551F9A95E1F78F73842B80936A00EF9A90
:100E300008951F920F920FB60F920BB60F921124C6
:100E40002F933F934F935F936F937F938F939F93D2
:100E5000AF93BF93EF93FF9380910B0390910C039B
:100E6000892B29F0E0910B03F0910C031995FF9168
:100E7000EF91BF91AF919F918F917F916F915F9112
:100E80004F913F912F910F900BBE0F900FBE0F907F
:100E90001F9018951F920F920FB60F920BB60F92DC
:100EA00011242F933F934F935F936F937F938F936F
:100EB0009F93AF93BF93EF93FF9380910D03909116
:100EC0000E03892B29F0E0910D03F0910E03199583
:100ED000FF91EF91BF91AF919F918F917F916F9112
:100EE0005F914F913F912F910F900BBE0F900FBECE
:100EF0000F901F9018951F920F920FB60F920BB67E
:100F00000F9211242F933F934F935F936F937F938F
:100F10008F939F93AF93BF93EF93FF9380910F03B2
:100F200090911003892B29F0E0910F03F0911003A9
:100F30001995FF91EF91BF91AF919F918F917F9103
:100F40006F915F914F913F912F910F900BBE0F903A
:100F50000FBE0F901F9018951F920F920FB60F9211
:100F60000BB60F9211242F933F934F935F936F9380
:100F70007F938F939F93AF93BF93EF93FF93809152
:100F8000110390911203892B29F0E0911103F09144
:100F900012031995FF91EF91BF91AF919F918F919E
:100FA0007F916F915F914F913F912F910F900BBE69
:100FB0000F900FBE0F901F9018951F920F920FB6B3
:100FC0000F920BB60F9211242F933F934F935F9381
:100FD0006F937F938F939F93AF93BF93EF93FF9301
:100FE0008091070390910803892B29F0E091070372
:100FF000F09108031995FF91EF91BF91AF919F91E7
:101000008F917F916F915F914F913F912F910F90B1
:101010000BBE0F900FBE0F901F9018951F920F924E
:101020000FB60F920BB60F9211242F933F934F934D
:101030005F936F937F938F939F93AF93BF93EF9340
:10104000FF938091090390910A03892B29F0E09185
:101050000903F0910A031995FF91EF91BF91AF91A8
:101060009F918F917F916F915F914F913F912F91C0
:101070000F900BBE0F900FBE0F901F9018951F92F0
:101080000F920FB60F920BB60F9211242F933F932E
:101090004F935F936F937F938F939F93AF93BF9380
:1010A000EF93FF938091130390911403892B29F000
:1010B000E0911303F09114031995FF91EF91BF9103
:1010C000AF919F918F917F916F915F914F913F91E0
:1010D0002F910F900BBE0F900FBE0F901F90189581
:1010E0001F920F920FB60F920BB60F9211242F93EF
:1010F0003F934F935F936F937F938F939F93AF93A0
:10110000BF93EF93FF938091150390911603892B62
:1011100029F0E0911503F09116031995FF91EF91D5
:10112000BF91AF919F918F917F916F915F914F91FF
:101130003F912F910F900BBE0F900FBE0F901F90FD
:1011400018951F920F920FB60F9211242F933F9371
:101150008F939F93AF93BF9380911B0390911C0338
:10116000A0911D03B0911E0330911F030196A11D94
:10117000B11D232F2D5F2D3720F02D570196A11D76
:10118000B11D20931F0380931B0390931C03A09316
:101190001D03B0931E038091170390911803A09133
:1011A0001903B0911A030196A11DB11D8093170375
:1011B00090931803A0931903B0931A03BF91AF91B2
:1011C0009F918F913F912F910F900FBE0F901F9085
:1011D00018959B01AC017FB7F8948091170390910B
:1011E0001803A0911903B0911A0366B5A89B05C016
:1011F0006F3F19F00196A11DB11D7FBFBA2FA92F16
:10120000982F8827860F911DA11DB11D62E0880FC0
:10121000991FAA1FBB1F6A95D1F7BC012DC0FFB74C
:10122000F8948091170390911803A0911903B0913D
:101230001A03E6B5A89B05C0EF3F19F00196A11D62
:10124000B11DFFBFBA2FA92F982F88278E0F911D90
:10125000A11DB11DE2E0880F991FAA1FBB1FEA95CF
:10126000D1F7861B970B885E9340C8F2215030401F
:101270004040504068517C4F2115310541055105D2
:1012800071F60895789484B5826084BD84B58160D8
:1012900084BD85B5826085BD85B5816085BDEEE67E
:1012A000F0E0808181608083E1E8F0E0108280815D
:1012B00082608083808181608083E0E8F0E08081CB
:1012C00081608083E1EBF0E0808184608083E0EBEB
:1012D000F0E0808181608083E1E9F0E080818260DC
:1012E0008083808181608083E0E9F0E0808181609B
:1012F0008083E1EAF0E08081826080838081816088
:101300008083E0EAF0E0808181608083E1E2F1E0C7
:10131000808182608083808181608083E0E2F1E06F
:10132000808181608083EAE7F0E08081846080834F
:1013300080818260808380818160808380818068F9
:1013400080831092C1000895CF93DF93482F50E01F
:10135000CA0188589E4FFC0134914E5C5E4FFA01E1
:101360008491882369F190E0880F991FFC01EC516A
:10137000FF4FA591B491FC01E250FF4FC591D4916C
:10138000662351F42FB7F8948C91932F909589236D
:101390008C93888189230BC0623061F42FB7F89455
:1013A0008C91932F909589238C938881832B8883AC
:1013B0002FBF06C09FB7F8948C91832B8C939FBF4F
:1013C000DF91CF910895893009F449C08A30A0F4A3
:1013D000843051F1853040F4823079F1833000F56A
:1013E000813009F063C026C0873079F1883098F5E4
:1013F000863009F05BC025C08D3009F442C08E30C4
:1014000028F48B30B1F18C30C0F52DC0803109F457
:1014100042C0813109F445C08F3009F047C037C060
:10142000809180008F7703C0809180008F7D8093B2
:101430008000089584B58F7702C084B58F7D84BD08
:1014400008958091B0008F7703C08091B0008F7DA8
:101450008093B0000895809190008F7707C08091AD
:1014600090008F7D03C080919000877F80939000D3
:1014700008958091A0008F7707C08091A0008F7D94
:1014800003C08091A000877F8093A0000895809181
:1014900020018F7703C0809120018F7D80932001F0
:1014A000089580912001877F809320010895FF9205
:1014B0000F931F93F62E482F50E0CA0182549E4F7F
:1014C000FC012491CA0188589E4FFC0114914E5C86
:1014D0005E4FFA0104910023C1F0222311F0822F04
:1014E00072DFE02FF0E0EE0FFF1FE250FF4FA591FB
:1014F000B4919FB7F894FF2021F48C91109581232B
:1015000002C08C91812B8C939FBF1F910F91FF90F4
:10151000089508951F920F920FB60F920BB60F9277
:1015200011242F933F934F938F939F93EF93FF93A8
:101530008091C00082FD1DC04091C60020916003D3
:10154000309161032F5F3F4F2F73307080916203A2
:10155000909163032817390771F0E0916003F091CF
:101560006103E05EFC4F408330936103209360038E
:1015700002C08091C600FF91EF919F918F914F9192
:101580003F912F910F900BBE0F900FBE0F901F90A9
:10159000189508951F920F920FB60F920BB60F92E7
:1015A00011242F933F934F938F939F93EF93FF9328
:1015B0008091C80082FD1DC04091CE002091E803BB
:1015C0003091E9032F5F3F4F2F7330708091EA0312
:1015D0009091EB032817390771F0E091E803F0913F
:1015E000E903E855FC4F40833093E9032093E80377
:1015F00002C08091CE00FF91EF919F918F914F910A
:101600003F912F910F900BBE0F900FBE0F901F9028
:10161000189508951F920F920FB60F920BB60F9266
:1016200011242F933F934F938F939F93EF93FF93A7
:101630008091D00082FD1DC04091D60020917004A1
:10164000309171042F5F3F4F2F733070809172047F
:10165000909173042817390771F0E0917004F091AC
:101660007104E05DFB4F408330937104209370045C
:1016700002C08091D600FF91EF919F918F914F9181
:101680003F912F910F900BBE0F900FBE0F901F90A8
:10169000189508951F920F920FB60F920BB60F92E6
:1016A00011242F933F934F938F939F93EF93FF9327
:1016B0008091300182FD1DC0409136012091F804D7
:1016C0003091F9042F5F3F4F2F7330708091FA04EF
:1016D0009091FB042817390771F0E091F804F0911C
:1016E000F904E854FB4F40833093F9042093F80445
:1016F00002C080913601FF91EF919F918F914F91A0
:101700003F912F910F900BBE0F900FBE0F901F9027
:101710001895E0914C05F0914D05E05CFF4F8191EB
:10172000919120813181805C9F4F821B930B60E4FB
:1017300070E0D4D7892B09F0ECDEE0916E05F091D2
:101740006F05E05CFF4F8191919120813181805C38
:101750009F4F821B930B60E470E0C0D7892B09F088
:1017600018DFE0919005F0919105E05CFF4F8191C9
:10177000919120813181805C9F4F821B930B60E4AB
:1017800070E0ACD7892B09F044DFE091B205F0910D
:10179000B305E05CFF4F8191919120813181805CA4
:1017A0009F4F821B930B60E470E098D7892B09F060
:1017B00070CF08951F920F920FB60F920BB60F9233
:1017C00011242F933F938F939F93EF93FF93209137
:1017D000A4033091A5038091A6039091A703281735
:1017E000390731F48091C1008F7D8093C10014C00E
:1017F000E091A603F091A703EC59FC4F2081809162
:10180000A6039091A70301968F7390709093A703FE
:101810008093A6032093C600FF91EF919F918F9133
:101820003F912F910F900BBE0F900FBE0F901F9006
:1018300018951F920F920FB60F920BB60F921124AC
:101840002F933F938F939F93EF93FF9320912C04BB
:1018500030912D0480912E0490912F042817390780
:1018600031F48091C9008F7D8093C90014C0E0914C
:101870002E04F0912F04E451FC4F208180912E041E
:1018800090912F0401968F73907090932F04809302
:101890002E042093CE00FF91EF919F918F913F9165
:1018A0002F910F900BBE0F900FBE0F901F901895A9
:1018B0001F920F920FB60F920BB60F9211242F9317
:1018C0003F938F939F93EF93FF932091B4043091B4
:1018D000B5048091B6049091B7042817390731F404
:1018E0008091D1008F7D8093D10014C0E091B60427
:1018F000F091B704EC58FB4F20818091B604909191
:10190000B70401968F7390709093B7048093B604D8
:101910002093D600FF91EF919F918F913F912F914E
:101920000F900BBE0F900FBE0F901F9018951F9237
:101930000F920FB60F920BB60F9211242F933F9375
:101940008F939F93EF93FF9320913C0530913D053A
:1019500080913E0590913F052817390731F4809119
:1019600031018F7D8093310114C0E0913E05F091EB
:101970003F05E450FB4F208180913E0590913F054B
:1019800001968F73907090933F0580933E0520934E
:101990003601FF91EF919F918F913F912F910F9081
:1019A0000BBE0F900FBE0F901F901895AF92BF9275
:1019B000DF92EF92FF920F931F93CF93DF93EC018F
:1019C0007A018B01DD24403081EE580780E0680702
:1019D00080E0780711F0DD24D39491E0A92EB12C9A
:1019E000EC89FD89DD2069F0C50108A002C0880FDF
:1019F000991F0A94E2F7808360E079E08DE390E03C
:101A000005C0108260E874E88EE190E0A8019701BB
:101A100078D62150304040405040569547953795F4
:101A2000279580E12030380720F0DD2011F0DD24FB
:101A3000D7CFE889F9893083EA89FB89208319A205
:101A4000EE89FF89408121E030E0C9010C8C02C0A1
:101A5000880F991F0A94E2F7482B4083EE89FF898B
:101A60004081C9010D8C02C0880F991F0A94E2F7CA
:101A7000482B4083EE89FF894081C9010E8C02C04A
:101A8000880F991F0A94E2F7482B4083EE89FF895B
:101A900080810F8C02C0220F331F0A94E2F7209539
:101AA00028232083DF91CF911F910F91FF90EF901A
:101AB000DF90BF90AF900895DC011C96ED91FC91F2
:101AC0001D97E05CFF4F8191919120813181805C75
:101AD0009F4F821B930B60E470E000C6DC011C96F4
:101AE000ED91FC911D97E05CFF4F20813181E05426
:101AF000F040DF01AE5BBF4F8D919C91119728178D
:101B0000390719F42FEF3FEF07C08D919C91E80F33
:101B1000F91F8081282F30E0C9010895DC011C964F
:101B2000ED91FC911D97E05CFF4F20813181E054E5
:101B3000F040DF01AE5BBF4F8D919C91119728174C
:101B4000390719F42FEF3FEF10C08D919C91119739
:101B5000E80FF91F20818D919C91119701968F7349
:101B6000907011969C938E9330E0C9010895DC012A
:101B700091968C919197882339F05496ED91FC9130
:101B80005597808186FFF9CF91961C920895CF9347
:101B9000DF93EC01EE85FF85E05CFF4F2081318112
:101BA000E054F0402F5F3F4F2F733070DF01AE5B8A
:101BB000BF4F8D919C91119728173907D1F3E05CA5
:101BC000FF4F80819181E054F040E80FF91F60835E
:101BD000EE85FF85E05CFF4F31832083EE89FF892E
:101BE000208181E090E00F8C02C0880F991F0A9439
:101BF000E2F7282B208381E089A3EC89FD8980818D
:101C00008064808381E090E0DF91CF9108951F93FD
:101C1000109243051092420528EE33E040E050E078
:101C2000209344053093450540934605509347055E
:101C300060E272E0709341056093400580E293E0BA
:101C400090934D0580934C0584E693E090934F0567
:101C500080934E0585EC90E090935105809350055C
:101C600084EC90E0909353058093520580EC90E0D3
:101C7000909355058093540581EC90E0909357051F
:101C80008093560582EC90E0909359058093580517
:101C900086EC90E090935B0580935A0514E01093D6
:101CA0005C05B3E0B0935D05A7E0A0935E05F5E0A9
:101CB000F0935F05E1E0E0936005109265051092F6
:101CC000640520936605309367054093680550933B
:101CD0006905709363056093620588EA93E09093C9
:101CE0006F0580936E058CEE93E090937105809361
:101CF00070058DEC90E090937305809372058CECE9
:101D000090E0909375058093740588EC90E0909333
:101D100077058093760589EC90E090937905809320
:101D200078058AEC90E090937B0580937A058EECA1
:101D300090E090937D0580937C0510937E05B09391
:101D40007F05A0938005F0938105E09382051092B2
:101D50008705109286052093880530938905409366
:101D60008A0550938B05709385056093840580E305
:101D700094E0909391058093900584E794E090938C
:101D800093058093920585ED90E09093950580935F
:101D9000940584ED90E0909397058093960580EDEF
:101DA00090E0909399058093980581ED90E0909351
:101DB0009B0580939A0582ED90E090939D0580931A
:101DC0009C0586ED90E090939F0580939E0510936F
:101DD000A005B093A105A093A205F093A305E093FD
:101DE000A4051092A9051092A8052093AA05309386
:101DF000AB054093AC055093AD057093A705609378
:101E0000A60588EB94E09093B3058093B2058CEF20
:101E100094E09093B5058093B40585E391E09093A9
:101E2000B7058093B60584E391E09093B90580935C
:101E3000B80580E391E09093BB058093BA0581E3F8
:101E400091E09093BD058093BC0582E391E090936F
:101E5000BF058093BE0586E391E09093C105809312
:101E6000C0051093C205B093C305A093C405F093B9
:101E7000C505E093C6051F9108950895CF93DF939C
:101E800001DAFBDF0E948401C9E8DBE00E948101E6
:101E90002097E1F33EDCFACFCF92DF92EF92FF92F0
:101EA0000F931F93CF93DF937C016B018A01C0E0F6
:101EB000D0E00FC0D6016D916D01D701ED91FC917D
:101EC0000190F081E02DC7011995C80FD91F01506D
:101ED00010400115110571F7CE01DF91CF911F91CF
:101EE0000F91FF90EF90DF90CF900895CF93DF9305
:101EF000EC016115710519F420E030E00FC0DB0141
:101F00000D900020E9F71197A61BB70BE881F98126
:101F10000280F381E02DAD0119959C01C901DF918B
:101F2000CF910895E3CF08952F923F924F925F9201
:101F30006F927F928F929F92AF92BF92CF92DF92D9
:101F4000EF92FF920F931F93DF93CF93CDB7DEB73E
:101F50003B014C0119012A016E897F89888D998D79
:101F60006A197B098C099D09621A730A840A950A09
:101F7000A401930188D3E218F30804091509A80104
:101F80009701E1D32A0D3B1D4C1D5D1DB901CA010E
:101F9000CF91DF911F910F91FF90EF90DF90CF9045
:101FA000BF90AF909F908F907F906F905F904F9079
:101FB0003F902F900895FC019B01848195816817C3
:101FC000790728F4608171816115710529F41092F7
:101FD000C80568EC75E002C0620F731FCB0108955D
:101FE000FC0180819181009729F420E030E040E0FD
:101FF00050E004C00E9433019B01AC01B901CA0149
:1020000008950F931F93CF93DF93EC018B016F5FC4
:102010007F4F888199815AD2009711F480E005C0E2
:10202000998388831B830A8381E0DF91CF911F917D
:102030000F910895CF93DF93EC0188819981892BCB
:1020400029F08A819B818617970758F4CE01D9DF42
:10205000882341F08C819D81892B19F4E881F981D5
:10206000108281E0DF91CF910895EF92FF920F935C
:102070001F93CF93DF93EC017B016C817D81E11491
:10208000F104B9F04115510591F08A01060F171FAF
:10209000B801D0DF882369F0888199812C813D8146
:1020A000820F931FB7010E9462011D830C8381E0A0
:1020B00001C080E0DF91CF911F910F91FF90EF90D1
:1020C0000895DF93CF930F920F92CDB7DEB7698358
:1020D0001A82BE016F5F7F4F41E050E0C6DF0F9074
:1020E0000F90CF91DF910895CF93DF93EC0188811A
:1020F0009981009709F052D1198218821D821C82A1
:102100001B821A82DF91CF910895EF92FF920F9375
:102110001F93CF93DF93EC017B018A01BA018ADF21
:10212000882319F4CE01E0DF07C01D830C8388816A
:102130009981B7010E946201CE01DF91CF911F9179
:102140000F91FF90EF900895CF93DF93EC011982E8
:1021500018821B821A821D821C826115710549F04A
:10216000DB010D900020E9F71197A61BB70BAD011D
:10217000CCDFDF91CF9108950F931F93182F092F74
:102180006115710551F0DB010D900020E9F7119701
:10219000A61BB70BAD01B9DF01C0A6DF812F902FC1
:1021A0001F910F910895BF92CF92DF92EF92FF920D
:1021B0000F931F93CF93DF93082FB92E6B017A01F2
:1021C000E9012417350710F4EA017901802F9B2DCE
:1021D00065E172E0B9DFD60114968D919C91159757
:1021E0008E159F05C8F08C179D0708F4EC01D601E9
:1021F000ED91FC911197EC0FFD1F108110826D91F4
:102200007C916E0D7F1D802F9B2DB6DFD601ED9149
:10221000FC91EC0FFD1F1083802F9B2DDF91CF9140
:102220001F910F91FF90EF90DF90CF90BF90089596
:10223000CF93DF93EC01FB018617970751F0608184
:1022400071816115710521F0448155815EDF01C006
:102250004BDFCE01DF91CF910895FC018081918108
:102260009DC00F931F93CF93DF93BC0182309105E4
:1022700010F462E070E0E091CB05F091CC0540E015
:1022800050E0A0E0B0E024C08081918186179707DC
:10229000D0F08617970771F482819381109729F007
:1022A00013969C938E9312972CC09093CC05809399
:1022B000CB0527C04115510519F08417950718F46F
:1022C0008D01AC01EF01DF01828193819C01F90155
:1022D0003097D1F641155105F9F0CA01861B970BCD
:1022E0008430910580F48A819B810115110521F0CC
:1022F000F8019383828304C09093CC058093CB052F
:10230000FE01329645C0FE01E80FF91F61937193FB
:102310000297998388833CC08091C9059091CA0532
:10232000892B41F480911802909119029093CA056B
:102330008093C90540911A0250911B024115510525
:1023400041F44DB75EB78091160290911702481B79
:10235000590B2091C9053091CA0524173507B0F4EF
:10236000CA01821B930B8617970780F0AB014E5F63
:102370005F4F8417950750F0420F531F5093CA05C3
:102380004093C905F9016193719302C0E0E0F0E068
:10239000CF01DF91CF911F910F910895CF93DF93DC
:1023A0009C01009709F48FC0EC0122971B821A82CE
:1023B0006091CB057091CC056115710581F4888120
:1023C0009981820F931F2091C9053091CA05281762
:1023D000390739F5D093CA05C093C90574C0DB012C
:1023E00040E050E0AC17BD0708F1BB83AA83FE01B3
:1023F00021913191E20FF31FAE17BF0779F48D9150
:102400009C911197280F391F2E5F3F4F39832883E6
:1024100012968D919C9113979B838A834115510548
:1024200071F4D093CC05C093CB054DC012968D911D
:102430009C911397AD01009711F0DC01D3CFDA0125
:102440001396DC93CE931297FA0121913191E20F0A
:10245000F31FCE17DF0769F488819981280F391F90
:102460002E5F3F4FFA01318320838A819B819383C2
:102470008283E0E0F0E0DB0112968D919C9113974E
:10248000009719F0BC01FD01F6CFAB014E5F5F4F25
:10249000DB018D919C91840F951F2091C90530918E
:1024A000CA052817390779F4309729F41092CC051A
:1024B0001092CB0502C013821282425050405093BA
:1024C000CA054093C905DF91CF9108956F927F921D
:1024D0008F929F92AF92BF92CF92DF92EF92FF9234
:1024E0000F931F93CF93DF938C01009721F4CB01BF
:1024F000B8DE8C01B8C08EEFE82E8FEFF82EE00E1C
:10250000F11E4801860E971E8E149F0408F4A9C080
:10251000D7014D915C91119746175707B0F04530A0
:10252000510508F4A0C0CA0104978617970708F45C
:102530009AC042505040461B570BF40141935193AF
:102540006D937C93CF012ADF8EC05B01A41AB50A7C
:102550003801640E751EA091CB05B091CC05E0E06A
:10256000F0E0CC24DD2447C0A615B705A9F5CD9130
:10257000DC911197CE0102968A159B0568F1CE0178
:102580008A199B09029612962C91129713963C91E8
:10259000059758F0F40122833383CA19DB09D183EC
:1025A000C083D7016D937C9309C04E5F5F4F4C0F82
:1025B0005D1FF70151834083C901FC01C114D1049F
:1025C00031F0D6011396FC93EE9312974CC0F09322
:1025D000CC05E093CB0547C08D919C911197E817EE
:1025E000F90708F4FC016D0112968C91129713966D
:1025F0009C919C01D901109709F0B6CF8091C90533
:102600009091CA0586159705E9F4E617F707D0F407
:1026100020911A0230911B022115310541F42DB78A
:102620003EB78091160290911702281B390B821633
:102630009306B8F49092CA058092C905F701718398
:10264000608311C0CB010DDEEC01009751F0D70182
:102650004D915C91B8010E945901C8019FDE8E0125
:1026600002C000E010E0C801DF91CF911F910F91EF
:10267000FF90EF90DF90CF90BF90AF909F908F90A2
:102680007F906F900895629FD001739FF001829FA9
:10269000E00DF11D649FE00DF11D929FF00D839FF1
:1026A000F00D749FF00D659FF00D9927729FB00D8E
:1026B000E11DF91F639FB00DE11DF91FBD01CF01A1
:1026C00011240895991B79E004C0991F961708F00A
:1026D000961B881F7A95C9F78095089597FB092E58
:1026E00007260AD077FD04D049D006D000201AF47E
:1026F000709561957F4F0895F6F7909581959F4F5E
:102700000895A1E21A2EAA1BBB1BFD010DC0AA1F32
:10271000BB1FEE1FFF1FA217B307E407F50720F04A
:10272000A21BB30BE40BF50B661F771F881F991FC5
:102730001A9469F760957095809590959B01AC010E
:10274000BD01CF01089597FB092E05260ED057FD38
:1027500004D0D7DF0AD0001C38F45095409530954E
:1027600021953F4F4F4F5F4F0895F6F79095809515
:10277000709561957F4F8F4F9F4F0895AA1BBB1B8C
:1027800051E107C0AA1FBB1FA617B70710F0A61B71
:10279000B70B881F991F5A95A9F780959095BC0192
:1027A000CD010895EE0FFF1F0590F491E02D1994CF
:1027B00012E0C8E0D2E003C0FE01F6DF2296CA3084
:0827C000D107D1F7F894FFCF17
:1027C800002449500A002453500A002452500A0099
:1027D8002444500A00008000CD05000000000000DD
:0C27E800C70D4C0F5C0D8E0D6E0DB70D73
:00000001FF
