:1000000004C100002FC100002DC100002BC1000061
:1000100029C1000027C1000025C1000023C1000044
:1000200021C100001FC100001DC100001BC1000054
:1000300019C1000017C1000015C1000013C1000064
:1000400011C100000C946C0B0DC100000BC100002D
:1000500009C1000007C1000005C100000C94990B04
:1000600001C100000C94220F0C947610FBC000001C
:10007000F9C00000F7C00000F5C00000F3C00000A8
:100080000C943F0BEFC00000EDC00000EBC000007F
:100090000C94620F0C94B510E5C00000E3C00000A2
:1000A000E1C00000DFC000000C94120BDBC00000B8
:1000B000D9C00000D7C00000D5C000000C94E50AEC
:1000C000D1C00000CFC00000CDC000000C94A20F32
:1000D0000C94F410C7C000000C94E20F0C94331180
:1000E000C1C0000000002100240027002A002D00CC
:1000F0003000330001010000040107010A01000083
:100100002200250028002B002E00310034000201BF
:100110000000050108010B0100002000230026005B
:1001200029002C002F00320000010000030106010D
:10013000090105050505070508080808020202026D
:100140000A0A080804040404010101010101010173
:100150000303030303030303040707070C0C0C0C3E
:100160000C0C0C0C02020202060606060606060627
:100170000B0B0B0B0B0B0B0B0102102020080810B4
:100180002040102040800201020108040201010207
:1001900004081020408080402010080402018004E0
:1001A000020180402010080402010804020101023B
:1001B0000408102040800102040810204080000044
:1001C000090A02080B0C0D070603040100000000D9
:1001D000000000000000000000000000000000001F
:1001E0000000000000000000000011100F000000DF
:1001F00000000000000000000000000000000000FF
:1002000000000000D801A512D30111241FBECFEFBA
:10021000D1E2DEBFCDBF00E00CBF12E0A0E0B2E053
:10022000ECE5F6E300E00BBF02C007900D92A435A9
:10023000B107D9F71BBE16E0A4E5B2E001C01D92DC
:10024000A432B107E1F712E0C8E0D2E004C022977F
:10025000FE010E941E1BC430D107C9F70E94DC13A7
:100260000C94221BCDCE1F93FC0199278827BC013B
:10027000E89411911032E9F3193010F01E30C8F3F0
:100280001B3249F01D3241F4689405C042D0610F21
:10029000711D811D911D119110531A30B8F33EF458
:1002A00090958095709561957F4F8F4F9F4F1F91CF
:1002B0000895FB01DC0102C001900D9241505040B5
:1002C000D8F70895FB01DC0101900D920020E1F7C1
:1002D0000895FB019F01E8944230C4F04532B4F424
:1002E0004A3029F497FB1EF4909581959F4F642F17
:1002F00077270E94081B805D8A330CF0895D81930B
:10030000CB010097A1F716F45DE251931082C90169
:1003100015C0592F482F372F262F660F771F881F9C
:10032000991F660F771F881F991F620F731F841F05
:10033000951F660F771F881F991F0895DC01FC0128
:10034000672F71917723E1F7329704C07C916D9309
:1003500070836291AE17BF07C8F3089584E592E0F9
:10036000E7C484E592E03FC58130910591F46F5F69
:100370007F4FC1F484E592E025D68CEB92E0F4D671
:100380008FEB92E0F1D682EC92E060E072E00C94A8
:10039000B415892B39F46F5F7F4F21F482EC92E022
:1003A0000C948416089580E090E06FEF7FEFDCCF2F
:1003B00081E090E06FEF7FEFD7CF0F931F93CF9344
:1003C000DF938B0164EF71E080E090E00E94070C06
:1003D000C0E0D0E01FC08DE060E00E94530E6AEFE5
:1003E00070E080E090E00E94070C8DE061E00E94E8
:1003F000530E6AEF70E080E090E00E94070C8DE001
:1004000060E00E94530E6AEF70E080E090E00E948E
:10041000070C2196C017D107F4F2DF91CF911F91FD
:100420000F9108956F927F928F929F92AF92BF9299
:10043000CF92DF92EF92FF920F931F93DF93CF93B0
:10044000CDB7DEB72C970FB6F894DEBF0FBECDBF89
:100450003C018EE6C82ED12CC60CD71C7E01089418
:10046000E11CF11CC701B60143E050E024E030E09C
:100470000E942A16C7010E94D2140E949E194B01A5
:100480005C018E01095F1F4FC801B60145E050E0D5
:1004900026E030E00E942A16C701B8010E946F16BC
:1004A000C8010E948416C7010E94D2147B018C01EE
:1004B000C60162E070E00E94BD14FC0180818B32B5
:1004C00051F4C501B40120E030E044EB52E40E9455
:1004D0009F184B015C01C801B7010E949E1920E0E2
:1004E00030E040E151E40E942A1A7B018C01C501F1
:1004F000B40122E73CE147E05FE30E942A1A28E6C4
:1005000030E0620E731E20E030E84DE654E40E94B5
:100510009F180E946B199B01AC01C301B9017AD6E7
:100520006FE070E080E090E00E94070C83E090E0D4
:10053000680E791EC801B70120E030E842E254E4B9
:100540000E949F180E946B199B01AC01C301B90165
:1005500061D66FE070E080E090E00E94070C87E9D0
:1005600095E061E072E00E94741487E995E00E94D2
:100570005512CE0101960E9484162C960FB6F8945F
:10058000DEBF0FBECDBFCF91DF911F910F91FF90C6
:10059000EF90DF90CF90BF90AF909F908F907F9023
:1005A0006F9008950F931F9363E070E006DF07E9F3
:1005B00015E0C80166E072E00E947414C8010E9450
:1005C00055121F910F910895AF92BF92CF92DF9273
:1005D000EF92FF920F931F93DF93CF93CDB7DEB7C8
:1005E0006E970FB6F894DEBF0FBECDBF7C01CE0173
:1005F000019660E072E00E94B41583ED92E08BD525
:100600005C019AE7C92ED12CCE0CDF1CF60180814B
:100610008823F9F083ED92E07ED58C0183ED92E0A2
:100620007AD528E730E0E20EF31E080F191FC80143
:100630008A0D9B1D63E070E00E94B81A64517040FF
:10064000F7017183608328E83FEFE20EF31EF601A5
:10065000108228E730E0E20EF31EF70180819181DD
:1006600028E83FEFE20EF31E8A199B09F701EA58CA
:10067000FF4F9183808397FF02C0118210828E0109
:10068000095F1F4F86E790E0E80EF91EF7016081D1
:100690007181C8014AE00E94FB157E010894E11CAB
:1006A000F11CC701B8010E946F16C8010E94841690
:1006B0008D819E818330910539F48E01035F1F4F38
:1006C000C8016BE072E00FC0029739F48E010D5E35
:1006D0001F4FC80161E172E006C08E01075E1F4F27
:1006E000C80166E172E00E94CC15C801B7010E9402
:1006F00081156FE072E00E946715BC0187E995E003
:100700000E941414C8010E94881687E995E00E948F
:100710005512CE0101960E9484166E960FB6F8947B
:10072000DEBF0FBECDBFCF91DF911F910F91FF9024
:10073000EF90DF90CF90BF90AF9008952F923F92AF
:100740004F925F926F927F928F929F92AF92BF92E1
:10075000CF92DF92EF92FF920F931F93DF93CF938D
:10076000CDB7DEB7CA56D0400FB6F894DEBF0FBE85
:10077000CDBF7C015E010894A11CB11CC50160E0E5
:1007800072E00E94B4157EE6C72ED12CCE0CDF1C81
:10079000C60162E070E00E94BD14FC01E081EC340F
:1007A00039F0E23509F48CC0E23409F005C183C0A8
:1007B0006DE5662E712C6E0C7F1CC30160E070E04D
:1007C0002BD452E5852E912C8E0C9F1CC40161E028
:1007D00070E022D48E01095F1F4FC801B60143E0CB
:1007E00050E025E030E00E942A16C501B8010E94C1
:1007F0006F16C8010E948416C5010E94D214870199
:1008000003581F4F28EE33E0AB01429FB001439FD6
:10081000700D529F700D1124882777FD8095982FB9
:100820000E949E1925E33AEF4EE85CE30E942A1AE3
:100830000E946B19F801C080D180C61AD70A40E324
:10084000442E512C4E0C5F1C30E4A32EB12CAE0C68
:10085000BF1C780122C064E670E080E090E0D7D74A
:10086000C201E2D38C01C501DFD3800F911F62E08A
:1008700070E00E94B81ACB01880F991F880F991F4A
:10088000860F971FF70191838083C30164E670E0B0
:10089000C8D3C40164E670E0C4D3F70180819181BC
:1008A000C816D906C4F2C30160E070E0BAD3C4012F
:1008B00060E070E0B6D3AA24BB24CC24DD24AEC112
:1008C0000DE5602E712C6E0C7F1CC30160E070E0A2
:1008D000A3D312E5812E912C8E0C9F1CC40160E0E5
:1008E00070E09AD38E01035F1F4FC801B60143E049
:1008F00050E025E030E00E942A16C501B8010E94B0
:100900006F16C8010E948416C5010E94D21428EEF9
:1009100033E0AB01429FB001439F700D529F700DB9
:100920001124882777FD8095982F0E949E1925E332
:100930003AEF4EE85CE30E942A1A0E946B196B01A1
:10094000F701E358FF4F80819181C80ED91EB0E3B3
:100950004B2E512C4E0C5F1CA0E4AA2EB12CAE0CD9
:10096000BF1C7F0122C064E670E080E090E04FD7BA
:10097000C2015AD38C01C50157D3800F911F62E089
:1009800070E00E94B81ACB01880F991F880F991F39
:10099000860F971FF70191838083C30164E670E09F
:1009A00040D3C40164E670E03CD3F70180819181BB
:1009B0008C159D05C4F277CFEDE54E2E512C4E0CD3
:1009C0005F1CC20160E070E027D372E5672E712CD6
:1009D0006E0C7F1CC30161E070E01ED3C20160E0B9
:1009E00070E01FD3C30160E070E01BD38E010D5E89
:1009F0001F4FC801B60143E050E026E030E00E94FE
:100A00002A16C501B8010E946F16C8010E948416FB
:100A1000C5010E94D214CB014B0163E0880C991CE4
:100A20006A95E1F7880F991F880E991EF701E5581E
:100A3000FF4F80819181880E991EA701405F5F4F13
:100A4000A9965FAF4EAFA997C7018096A7969FAFB3
:100A50008EAFA797A701405D5F4FA5965FAF4EAFE2
:100A6000A597C701805C9F4FA3969FAF8EAFA397BA
:100A7000AA24BB24CC24DD24AB96FFAFEEAFAB970A
:100A80004DE3242E312C2C0E3D1EB6C068EC70E0D8
:100A900080E090E0BCD6A9968EAD9FADA997C4D258
:100AA0008C01A7968EAD9FADA797BED27C01A5966F
:100AB0008EAD9FADA597B8D26C01A3968EAD9FADBC
:100AC000A397B2D25C01C701800F911F62E070E072
:100AD0000E94B81AAB96EEADFFADAB977183608301
:100AE000A3968EAD9FADA397EBD2CE014F966CE14E
:100AF00072E00E94CC15CE014996B6014AE00E94F0
:100B0000FB15CE014F96BE01675E7F4F0E94811597
:100B1000BC0187E995E00E944614CE0149960E94E7
:100B20008416CE014F960E948816CE018B9661E204
:100B300072E00E94CC15CE018596B5014AE00E9474
:100B4000FB15CE018B96BE016B5D7F4F0E94811518
:100B5000BC0187E995E00E944614CE0185960E946B
:100B60008416CE018B960E948816CE01C79666E247
:100B700072E00E94CC15CE01C196B8014AE00E94F5
:100B8000FB15CE01C796BE016F5C7F4F0E94811599
:100B9000BC0187E995E00E944614CE01C1960E94EF
:100BA0008416CE01C7960E948816CE018D5B9F4F9A
:100BB0006BE272E00E94CC15C101B7014AE00E94CD
:100BC000FB15CE018D5B9F4FB1010E948115BC01C9
:100BD00087E995E00E944614C1010E948416CE0167
:100BE0008D5B9F4F0E948816C30162E370E019D2AB
:100BF000C20162E370E015D2AB96EEADFFADAB97EC
:100C000080819181881599050CF440CFC20160E084
:100C100070E007D2C30160E070E003D23FE4E32E4E
:100C2000F12CEC0EFD1EC70160E372E00E94CC15B2
:100C30008E01075B1F4FC801B6014AE00E94FB15F9
:100C4000C701B8010E948115BC0187E995E00E94A7
:100C50004614C8010E948416C7010E9488162BE51D
:100C6000E22EF12CEC0EFD1EC70164E372E00E943F
:100C7000CC158E010B5A1F4FC801B5014AE00E94E6
:100C8000FB15C701B8010E948115BC0187E995E0F9
:100C90000E944614C8010E948416C7010E9488164B
:100CA00087E995E068E372E00E94741487E995E0B3
:100CB0000E945512CE0101960E948416C659DF4F3C
:100CC0000FB6F894DEBF0FBECDBFCF91DF911F915D
:100CD0000F91FF90EF90DF90CF90BF90AF909F90DB
:100CE0008F907F906F905F904F903F902F900895DE
:100CF000CF93DF93EC0182599F4F61E070E00E9437
:100D0000BD14FC01E081E93459F0E23519F0E43416
:100D100051F403C0CE0158DC08C0CE010FDD05C080
:100D2000CE0180DB02C0CE013DDCDF91CF91089582
:100D3000BF92CF92DF92EF92FF920F931F93CF93C8
:100D4000DF93EC018C0102591F4FA5E7EA2EF12C2D
:100D5000E80EF91EF4E7CF2ED12CC80ED91EBB2405
:100D6000B39410C087E995E00E942C12682FF70118
:100D70008083C8010E944315F70180818A3011F4F5
:100D8000F601B08287E995E00E94F911181619065C
:100D90004CF364E670E080E090E039D5E4E7EE2EB5
:100DA000F12CEC0EFD1EF7018081882391F0C80123
:100DB00060E070E00E94BD14FC018081843249F43F
:100DC000CE0196DFC80160E072E00E94E415F701F1
:100DD0001082DF91CF911F910F91FF90EF90DF90E4
:100DE000CF90BF900895AF92BF92CF92DF92EF92D3
:100DF000FF920F931F93DF93CF93CDB7DEB72E975C
:100E00000FB6F894DEBF0FBECDBF5C018E010F5F41
:100E10001F4FC801D7D0D501F8018EE001900D9287
:100E20008150E1F780E590E0A80EB91EF50111822E
:100E3000108283ED92E06AE370E044E050E083D1F9
:100E400086E290E0A80EB91EF5011192119211925E
:100E5000119281E08193119211925F0111821082AF
:100E600083E89FEFA80EB91EC501409662E070E0CE
:100E700040E058E021E030E000E010E0A8E1EA2E98
:100E8000F12CF5E1CF2ED12C1FD1C501809663E066
:100E900070E040E058E021E030E001E010E0E9E1FE
:100EA000EE2EF12CB4E1CB2ED12C0ED1C501C09683
:100EB00064E070E040E250E020E030E000E010E06C
:100EC000AAE1EA2EF12CF3E1CF2ED12CFDD0C50101
:100ED000805C9F4F65E070E040E250E020E030E051
:100EE00001E010E0EBE1EE2EF12CB2E1CB2ED12CA3
:100EF000EBD0C5018E5A9F4F67E070E04EE150E0A5
:100F00002FE130E000E010E076D0C501835A9F4F1A
:100F100068E070E040E250E021E230E001E010E003
:100F20006AD087E061E00CD68EE161E009D688E006
:100F300061E006D680E261E003D687E060E0B3D6E8
:100F400088E060E0B0D6C50185599F4F69E070E048
:100F500077D2C50188599F4F6AE070E071D28DE069
:100F600061E0EED5E5E7F0E0AE0EBF1EF5011082C0
:100F70008BE89FEFA80EB91EC50182599F4F60E014
:100F800072E00E94E415E4E7F0E0AE0EBF1EF5014A
:100F9000108287E995E040E052EC61E070E00E9449
:100FA00072112E960FB6F894DEBF0FBECDBFCF9153
:100FB000DF911F910F91FF90EF90DF90CF90BF9046
:100FC000AF9008950F931F938C0181E090E0F8019A
:100FD0009183808313821282158214821782168273
:100FE00011861086EED3F801628773878487958710
:100FF0001F910F9108950F931F93FC0171836083DC
:101000005383428335832483178216821286118785
:1010100000871F910F910895FC016087718782817D
:1010200042C6FC018081AEC4CF92DF92EF92FF9264
:101030000F931F936C01FC016481758186819781F8
:10104000660F771F881F991F0E949E192BED3FE0A6
:1010500049E450E40E942A1A7B018C01F601628166
:101060007381882777FD8095982F0E949E199B0198
:10107000AC01C801B7010E9403199B01AC01F60144
:1010800080859185892B51F4CA01B90120E030E0B7
:101090004CE852E40E9403199B01AC01CA01B9015A
:1010A00020E030E04EEB52E40E942A1A0E946B19B5
:1010B000CB011F910F91FF90EF90DF90CF9008959B
:1010C000FC01848195810895CF92DF92EF92FF9287
:1010D0000F931F93FC017183608353834283318795
:1010E000208713870287E686F786C486D586148212
:1010F0001582168217828C2D60E022D58C2D61E03E
:10110000D2D58E2D60E01CD51F910F91FF90EF90EE
:10111000DF90CF9008950F931F938C01FC01848181
:1011200061E020E432E44FE050E0EFD5DC01CB0198
:10113000F801628173810E94B81ACB0160839183A8
:101140001F910F9108950F931F938C01842FF80125
:10115000738362834483558360E0F2D4F801118283
:1011600010821F910F910895FC018091D902803364
:1011700090F480838F5F8093D902815090E0FC01CE
:10118000EE0FFF1FE80FF91FE652FD4F88EB9BE0C3
:101190009283818308958FEF80830895FC012081DD
:1011A0002033B8F58181992787FD909548E850E074
:1011B000481B590B440F551F440F551F64177507E3
:1011C00084F08281992787FD909548E552E0481B7D
:1011D000590B440F551F440F551F641775070CF426
:1011E000AB0142505040CA01AA2797FDA095BA2FE3
:1011F000880F991FAA1FBB1F4FB7F89430E0F90161
:10120000EE0FFF1FE20FF31FE652FD4F9283818323
:101210004FBF0895AF92BF92CF92DF92EF92FF92AD
:101220000F931F93CF93DF93EC019B0182E0603219
:1012300078070CF048C077FF03C020E030E005C01D
:10124000653B710514F024EB30E000D00F92B9013A
:10125000882777FD8095982F2981332727FD3095A2
:10126000E8E8AE2EB12CA21AB30AAA0CBB1CAA0C39
:10127000BB1CCC24B7FCC094DC2CEA81FF27E7FD23
:10128000F09528E532E02E1B3F0B220F331F220F73
:10129000331F442737FD4095542FEDB7FEB7218308
:1012A00032834383548320E030E040E050E004EB9D
:1012B000E02EF12C012D112D0E9476149B010F9030
:1012C0000F900F900F90CE01B90168DFDF91CF91A1
:1012D0001F910F91FF90EF90DF90CF90BF90AF9054
:1012E0000895CF92DF92EF92FF921F93CF93DF93F7
:1012F000EC01162F7A0169018881803308F092C0D1
:10130000862F61E01DD4888190E0FC01EE0FFF1F65
:10131000E80FF91FE652FD4F1F738081807C812BFF
:10132000808380E292E08E199F0964E070E00E9461
:10133000B81A698380E699E08C199D0964E070E031
:101340000E94B81A6A83A8818A2F6CE00E94AC1AA6
:10135000682F70E0AB01440F551F460F571F440F15
:10136000551F440F551F20E030E0C901840F951F21
:10137000FC01EE0FFF1FE80FF91FE652FD4F8081C1
:1013800086FD44C02F5F3F4F2C30310571F753C0AD
:101390001092800082E0809381001092850010926C
:1013A0008400B19A80916F00826080936F002EC09C
:1013B0006230710569F41092900082E08093910090
:1013C000109295001092940088BB809371001EC00B
:1013D0006330710569F41092A00082E08093A1004F
:1013E0001092A5001092A40089BB809372000EC0D9
:1013F000672B61F41092200182E08093210110920A
:101400002501109224018ABB809373008A2F90E0FB
:10141000FC01EE0FFF1FE80FF91FE652FD4F808120
:10142000806480838881DF91CF911F91FF90EF903E
:10143000DF90CF9008956130710509F0B9CFA8CF42
:1014400040E252E020E639E04CCFEF92FF920F935A
:101450001F93CF93DF938B017A01EC01DC01A65936
:10146000BC4F8C9187FF04C0FB011182108236C0F3
:10147000AE01440F551F4C0F5D1F440F551F440F05
:10148000551F2C91332727FD3095240F351F809150
:10149000D90290E0281739070CF58C91992787FD20
:1014A0009095840F951FFC01EE0FFF1FE80FF91FA9
:1014B000E652FD4F808186FF11C08C91992787FDF0
:1014C0009095840F951FFC01EE0FFF1FE80FF91F89
:1014D000E652FD4F80818F7360E0E5D3DE01A659AF
:1014E000BC4F8C918F5F8C93AE01440F551F4C0FF6
:1014F0005D1F440F551F440F551F2C91332727FDA7
:101500003095240F351F8091D90290E028173907B4
:101510000CF04CC08C918C300CF048C0F80120814C
:1015200031818C91992787FD9095840F951FFC013F
:10153000EE0FFF1FE80FF91FE652FD4F81819281E8
:10154000280F391FF701318320838C91992787FD5C
:101550009095840F951FFC01EE0FFF1FE80FF91FF8
:10156000E652FD4F808186FF29C08C91992787FD27
:101570009095840F951FFC01EE0FFF1FE80FF91FD8
:10158000E652FD4F80818F7361E08DD317C080E4F8
:101590009CE904C0F801808191810496F701918350
:1015A0008083C659DC4F8FEF888308C0F8018081A3
:1015B0009181049680549C4950F3ECCFDF91CF91F8
:1015C0001F910F91FF90EF9008951F920F920FB609
:1015D0000F920BB60F9211242F933F934F935F936B
:1015E0006F937F938F939F93AF93BF93EF93FF93EB
:1015F00080E090E064E271E048E251E026DFFF9194
:10160000EF91BF91AF919F918F917F916F915F917A
:101610004F913F912F910F900BBE0F900FBE0F90E7
:101620001F9018951F920F920FB60F920BB60F9244
:1016300011242F933F934F935F936F937F938F93D7
:101640009F93AF93BF93EF93FF9383E090E064EA9F
:1016500070E048EA50E0F9DEFF91EF91BF91AF9161
:101660009F918F917F916F915F914F913F912F91BA
:101670000F900BBE0F900FBE0F901F9018951F92EA
:101680000F920FB60F920BB60F9211242F933F9328
:101690004F935F936F937F938F939F93AF93BF937A
:1016A000EF93FF9382E090E064E970E048E950E056
:1016B000CCDEFF91EF91BF91AF919F918F917F9180
:1016C0006F915F914F913F912F910F900BBE0F90B3
:1016D0000FBE0F901F9018951F920F920FB60F928A
:1016E0000BB60F9211242F933F934F935F936F93F9
:1016F0007F938F939F93AF93BF93EF93FF9381E07B
:1017000090E064E870E048E850E09FDEFF91EF91E0
:10171000BF91AF919F918F917F916F915F914F9109
:101720003F912F910F900BBE0F900FBE0F901F9007
:1017300018951F920F920FB60F9211242F933F937B
:101740008F939F93AF93BF93809172039091730394
:10175000A0917403B0917503309176030196A11D99
:10176000B11D232F2D5F2D3720F02D570196A11D80
:10177000B11D209376038093720390937303A0931B
:101780007403B093750380916E0390916F03A091E1
:101790007003B09171030196A11DB11D80936E037A
:1017A00090936F03A0937003B0937103BF91AF91B7
:1017B0009F918F913F912F910F900FBE0F901F908F
:1017C00018959FB7F89420916E0330916F03409164
:1017D00070035091710386B5A89B06C08F3F21F01E
:1017E0002F5F3F4F4F4F5F4F9FBF542F432F322FDD
:1017F0002227280F311D411D511D82E0220F331F6A
:10180000441F551F8A95D1F7B901CA0108959B015C
:10181000AC017FB7F89480916E0390916F03A09113
:101820007003B091710366B5A89B05C06F3F19F0B6
:101830000196A11DB11D7FBFBA2FA92F982F882710
:10184000860F911DA11DB11D62E0880F991FAA1F6F
:10185000BB1F6A95D1F7BC012DC0FFB7F8948091EA
:101860006E0390916F03A0917003B0917103E6B580
:10187000A89B05C0EF3F19F00196A11DB11DFFBF48
:10188000BA2FA92F982F88278E0F911DA11DB11D4A
:10189000E2E0880F991FAA1FBB1FEA95D1F7861BAC
:1018A000970B885E9340C8F2215030404040504032
:1018B00068517C4F211531054105510571F6089598
:1018C000789484B5826084BD84B5816084BD85B51B
:1018D000826085BD85B5816085BDEEE6F0E08081E2
:1018E00081608083E1E8F0E0108280818260808303
:1018F000808181608083E0E8F0E080818160808386
:10190000E1EBF0E0808184608083E0EBF0E08081B7
:1019100081608083E1E9F0E0808182608083808162
:1019200081608083E0E9F0E0808181608083E1EA8A
:10193000F0E0808182608083808181608083E0EA42
:10194000F0E0808181608083E1E2F1E0808182606B
:101950008083808181608083E0E2F1E0808181602A
:101960008083EAE7F0E08081846080838081826008
:1019700080838081816080838081806880831092F1
:10198000C10008951F93CF93DF93182FEB0161E0FF
:10199000D7D0209709F4CAC0CF3FD10509F4C9C0F8
:1019A000E12FF0E0E254FE4F8491893009F466C0E3
:1019B0008A30B0F48430F1F1853040F4823059F14E
:1019C000833070F5813009F0AEC020C0873009F453
:1019D00043C0883008F048C0863009F0A4C034C045
:1019E0008D3009F478C08E3038F48B3009F45AC049
:1019F0008C3008F066C04CC0803109F480C0813161
:101A000009F487C08F3009F08EC06FC084B580683C
:101A100084BDC7BD91C084B5806284BDC8BD8CC083
:101A200080918000806880938000D0938900C0936B
:101A3000880082C080918000806280938000D09373
:101A40008B00C0938A0078C08091B000806880933A
:101A5000B000C093B30070C08091B00080628093EA
:101A6000B000C093B40068C08091900080688093FB
:101A70009000D0939900C09398005EC08091900030
:101A8000806280939000D0939B00C0939A0054C0D2
:101A900080919000886080939000D0939D00C093C7
:101AA0009C004AC08091A00080688093A000809133
:101AB000A0008F7B8093A000D093A900C093A800C2
:101AC0003BC08091A00080628093A000D093AB00C7
:101AD000C093AA0031C08091A00088608093A000CC
:101AE000D093AD00C093AC0027C0809120018068E6
:101AF00080932001D0932901C09328011DC08091BB
:101B00002001806280932001D0932B01C0932A0191
:101B100013C080912001886080932001D0932D0113
:101B2000C0932C0109C0C038D1051CF4812F60E09E
:101B300002C0812F61E0B7D0DF91CF911F9108954E
:101B4000CF93DF93482F50E0CA0188589E4FFC0185
:101B500034914E5C5E4FFA018491882369F190E0E4
:101B6000880F991FFC01EC51FF4FA591B491FC0126
:101B7000E250FF4FC591D491662351F42FB7F894EA
:101B80008C91932F909589238C93888189230BC006
:101B9000623061F42FB7F8948C91932F909589233C
:101BA0008C938881832B88832FBF06C09FB7F894BE
:101BB0008C91832B8C939FBFDF91CF9108958930B7
:101BC00009F449C08A30A0F4843051F1853040F4E2
:101BD000823079F1833000F5813009F063C026C08E
:101BE000873079F1883098F5863009F05BC025C0E0
:101BF0008D3009F442C08E3028F48B30B1F18C3036
:101C0000C0F52DC0803109F442C0813109F445C0CE
:101C10008F3009F047C037C0809180008F7703C0B4
:101C2000809180008F7D80938000089584B58F77A8
:101C300002C084B58F7D84BD08958091B0008F77F8
:101C400003C08091B0008F7D8093B0000895809193
:101C500090008F7707C0809190008F7D03C08091A6
:101C60009000877F8093900008958091A0008F77E7
:101C700007C08091A0008F7D03C08091A000877F66
:101C80008093A0000895809120018F7703C08091F8
:101C900020018F7D80932001089580912001877F0E
:101CA000809320010895FF920F931F93F62E482FE3
:101CB00050E0CA0182549E4FFC012491CA01885809
:101CC0009E4FFC0114914E5C5E4FFA01049100237B
:101CD000C1F0222311F0822F72DFE02FF0E0EE0F2F
:101CE000FF1FE250FF4FA591B4919FB7F894FF20DA
:101CF00021F48C911095812302C08C91812B8C93BF
:101D00009FBF1F910F91FF9008958F929F92AF9266
:101D1000BF92CF92DF92EF92FF920F931F93CF93D8
:101D2000DF93A82FB0E0CD0188589E4FFC0184902E
:101D3000AE5CBE4FFD018491662311F4992401C06D
:101D4000982C6FEFA62E6FEFB62E6FEFC62E6FE0BA
:101D5000D62EA222B322C422D522682F70E0660FAD
:101D6000771F685E7E4FEE24FF248701FB01A5915B
:101D7000B4910BC0EA14FB040C051D0509F44EC018
:101D80000894E11CF11C011D111D8C9188218915FD
:101D900089F30CC0EA14FB040C051D0509F43EC0D0
:101DA0000894E11CF11C011D111D03C0FB01A5914C
:101DB000B4918C918821891569F720E030E040E0EA
:101DC00050E0FB01C591D4910FC0DA01C9018E0D1D
:101DD0009F1DA01FB11F8A159B05AC05BD05F1F025
:101DE0002F5F3F4F4F4F5F4F88818821891569F3DF
:101DF000CA01B90125E130E040E050E00E948D1AAF
:101E00009B01AC01205F3F4F4F4F5F4F84E05695E1
:101E10004795379527958A95D1F704C020E030E0A3
:101E200040E050E0B901CA01DF91CF911F910F91BD
:101E3000FF90EF90DF90CF90BF90AF909F908F90EA
:101E4000089508951F920F920FB60F920BB60F923E
:101E500011242F933F934F938F939F93EF93FF936F
:101E60008091C00082FD1DC04091C6002091B70343
:101E70003091B8032F5F3F4F2F7330708091B903BB
:101E80009091BA032817390771F0E091B703F091E8
:101E9000B803E958FC4F40833093B8032093B7034D
:101EA00002C08091C600FF91EF919F918F914F9159
:101EB0003F912F910F900BBE0F900FBE0F901F9070
:101EC000189508951F920F920FB60F920BB60F92AE
:101ED00011242F933F934F938F939F93EF93FF93EF
:101EE0008091C80082FD1DC04091CE0020913F042A
:101EF000309140042F5F3F4F2F7330708091410429
:101F0000909142042817390771F0E0913F04F09155
:101F10004004E150FC4F40833093400420933F0441
:101F200002C08091CE00FF91EF919F918F914F91D0
:101F30003F912F910F900BBE0F900FBE0F901F90EF
:101F4000189508951F920F920FB60F920BB60F922D
:101F500011242F933F934F938F939F93EF93FF936E
:101F60008091D00082FD1DC04091D6002091C70411
:101F70003091C8042F5F3F4F2F7330708091C90498
:101F80009091CA042817390771F0E091C704F091C5
:101F9000C804E957FB4F40833093C8042093C7041B
:101FA00002C08091D600FF91EF919F918F914F9148
:101FB0003F912F910F900BBE0F900FBE0F901F906F
:101FC000189508951F920F920FB60F920BB60F92AD
:101FD00011242F933F934F938F939F93EF93FF93EE
:101FE0008091300182FD1DC04091360120914F0546
:101FF000309150052F5F3F4F2F7330708091510506
:10200000909152052817390771F0E0914F05F09132
:102010005005E15FFA4F40833093500520934F0500
:1020200002C080913601FF91EF919F918F914F9166
:102030003F912F910F900BBE0F900FBE0F901F90EE
:102040001895E091A305F091A405E05CFF4F819104
:10205000919120813181805C9F4F821B930B60E4C2
:1020600070E00E94B81A892B09F0EBDEE091C505FB
:10207000F091C605E05CFF4F819191912081318103
:10208000805C9F4F821B930B60E470E00E94B81A43
:10209000892B09F016DFE091E705F091E805E05C97
:1020A000FF4F8191919120813181805C9F4F821BF4
:1020B000930B60E470E00E94B81A892B09F041DFAD
:1020C000E0910906F0910A06E05CFF4F8191919141
:1020D00020813181805C9F4F821B930B60E470E014
:1020E0000E94B81A892B09F06CCF08951F920F92A5
:1020F0000FB60F920BB60F9211242F933F938F932D
:102100009F93EF93FF932091FB033091FC03809109
:10211000FD039091FE032817390731F48091C10027
:102120008F7D8093C10014C0E091FD03F091FE0308
:10213000E554FC4F20818091FD039091FE030196B0
:102140008F7390709093FE038093FD032093C600DD
:10215000FF91EF919F918F913F912F910F900BBE27
:102160000F900FBE0F901F9018951F920F920FB6F1
:102170000F920BB60F9211242F933F938F939F933F
:10218000EF93FF9320918304309184048091850420
:10219000909186042817390731F48091C9008F7D0A
:1021A0008093C90014C0E0918504F0918604ED5B32
:1021B000FB4F2081809185049091860401968F7356
:1021C000907090938604809385042093CE00FF91B5
:1021D000EF919F918F913F912F910F900BBE0F9098
:1021E0000FBE0F901F9018951F920F920FB60F926F
:1021F0000BB60F9211242F933F938F939F93EF93DE
:10220000FF9320910B0530910C0580910D05909165
:102210000E052817390731F48091D1008F7D809306
:10222000D10014C0E0910D05F0910E05E553FB4F70
:10223000208180910D0590910E0501968F7390700D
:1022400090930E0580930D052093D600FF91EF919A
:102250009F918F913F912F910F900BBE0F900FBECA
:102260000F901F9018951F920F920FB60F920BB6FA
:102270000F9211242F933F938F939F93EF93FF938C
:102280002091930530919405809195059091960544
:102290002817390731F4809131018F7D8093310106
:1022A00014C0E0919505F0919605ED5AFA4F208102
:1022B000809195059091960501968F7390709093FB
:1022C00096058093950520933601FF91EF919F919C
:1022D0008F913F912F910F900BBE0F900FBE0F90DB
:1022E0001F901895AF92BF92DF92EF92FF920F93DB
:1022F0001F93CF93DF93EC017A018B01DD244030F3
:1023000081EE580780E0680780E0780711F0DD244F
:10231000D39491E0A92EB12CEC89FD89DD2069F0E0
:10232000C50108A002C0880F991F0A94E2F78083B4
:1023300060E079E08DE390E005C0108260E874E829
:102340008EE190E0A80197010E94CB1A2150304005
:1023500040405040569547953795279580E120306D
:10236000380720F0DD2011F0DD24D6CFE889F98987
:102370003083EA89FB89208319A2EE89FF89408195
:1023800021E030E0C9010C8C02C0880F991F0A942B
:10239000E2F7482B4083EE89FF894081C9010D8C0B
:1023A00002C0880F991F0A94E2F7482B4083EE89F8
:1023B000FF894081C9010E8C02C0880F991F0A94C1
:1023C000E2F7482B4083EE89FF8980810F8C02C0A1
:1023D000220F331F0A94E2F7209528232083DF91F0
:1023E000CF911F910F91FF90EF90DF90BF90AF9032
:1023F0000895DC011C96ED91FC911D97E05CFF4F68
:102400008191919120813181805C9F4F821B930B40
:1024100060E470E00C94B81ADC011C96ED91FC911C
:102420001D97E05CFF4F20813181E054F040DF01D7
:10243000AE5BBF4F8D919C9111972817390719F406
:102440002FEF3FEF07C08D919C91E80FF91F80811E
:10245000282F30E0C9010895DC011C96ED91FC9114
:102460001D97E05CFF4F20813181E054F040DF0197
:10247000AE5BBF4F8D919C9111972817390719F4C6
:102480002FEF3FEF10C08D919C911197E80FF91F2E
:1024900020818D919C91119701968F739070119668
:1024A0009C938E9330E0C9010895DC0191968C9144
:1024B0009197882339F05496ED91FC91559780813E
:1024C00086FFF9CF91961C920895CF93DF93EC018C
:1024D000EE85FF85E05CFF4F20813181E054F040C4
:1024E0002F5F3F4F2F733070DF01AE5BBF4F8D9179
:1024F0009C91119728173907D1F3E05CFF4F808139
:102500009181E054F040E80FF91F6083EE85FF856C
:10251000E05CFF4F31832083EE89FF89208181E0D9
:1025200090E00F8C02C0880F991F0A94E2F7282BC5
:10253000208381E089A3EC89FD8980818064808388
:1025400081E090E0DF91CF9108951F9310929A055A
:102550001092990528EE33E040E050E020939B056F
:1025600030939C0540939D0550939E0568E472E06E
:10257000709398056093970587E793E09093A4057F
:102580008093A3058BEB93E09093A6058093A5051C
:1025900085EC90E09093A8058093A70584EC90E0EB
:1025A0009093AA058093A90580EC90E09093AC05E8
:1025B0008093AB0581EC90E09093AE058093AD05E0
:1025C00082EC90E09093B0058093AF0586EC90E0AC
:1025D0009093B2058093B10514E01093B305B3E076
:1025E000B093B405A7E0A093B505F5E0F093B60568
:1025F000E1E0E093B7051092BC051092BB05209373
:10260000BD053093BE054093BF055093C005709340
:10261000BA056093B9058FEF93E09093C605809358
:10262000C50583E494E09093C8058093C7058DECBD
:1026300090E09093CA058093C9058CEC90E090934C
:10264000CC058093CB0588EC90E09093CE058093E9
:10265000CD0589EC90E09093D0058093CF058AEC6E
:1026600090E09093D2058093D1058EEC90E090930A
:10267000D4058093D3051093D505B093D605A093C8
:10268000D705F093D805E093D9051092DE05109296
:10269000DD052093DF053093E0054093E10550937D
:1026A000E2057093DC056093DB0587E894E0909386
:1026B000E8058093E7058BEC94E09093EA0580931E
:1026C000E90585ED90E09093EC058093EB0584EDB2
:1026D00090E09093EE058093ED0580ED90E090936F
:1026E000F0058093EF0581ED90E09093F2058093E3
:1026F000F10582ED90E09093F4058093F30586ED6B
:1027000090E09093F6058093F5051093F705B0934C
:10271000F805A093F905F093FA05E093FB051092F4
:1027200000061092FF0520930106309302064093A5
:102730000306509304067093FE056093FD058FE039
:1027400095E090930A068093090683E595E09093BF
:102750000C0680930B0685E391E090930E06809320
:102760000D0684E391E09093100680930F0680E3BA
:1027700091E0909312068093110681E391E090938B
:1027800014068093130682E391E0909316068093DB
:10279000150686E391E09093180680931706109330
:1027A0001906B0931A06A0931B06F0931C06E0933B
:1027B0001D061F9108950895CF93DF9381D8FBDF05
:1027C0000E94B101C1E2D0E10E94AE012097E1F385
:1027D00038DCFACFCF92DF92EF92FF920F931F93E4
:1027E000CF93DF937C016B018A01C0E0D0E00FC082
:1027F000D6016D916D01D701ED91FC910190F081B1
:10280000E02DC7011995C80FD91F015010400115BF
:10281000110571F7CE01DF91CF911F910F91FF90BC
:10282000EF90DF90CF900895CF93DF93FB01EC0101
:10283000A881B98160817181448155811296ED91A1
:10284000FC9113971995DF91CF910895EF92FF9224
:102850000F931F938C01DC01ED91FC910190F081AD
:10286000E02D6DE019957C01D801ED91FC9101906E
:10287000F081E02DC8016AE019959C012E0D3F1DE5
:10288000C9011F910F91FF90EF900895EF92FF9271
:102890000F931F937C01C8DF8C01C701D7DF9C0118
:1028A000200F311FC9011F910F91FF90EF900895E4
:1028B000CF93DF93EC016115710519F420E030E04E
:1028C0000FC0DB010D900020E9F71197A61BB70B95
:1028D000E881F9810280F381E02DAD0119959C0119
:1028E000C901DF91CF910895E3CF08952F923F92D0
:1028F0004F925F926F927F928F929F92AF92BF9210
:10290000CF92DF92EF92FF920F931F93DF93CF93BB
:10291000CDB7DEB73B014C0119012A016E897F89D1
:10292000888D998D6A197B098C099D09621A730A31
:10293000840A950AA4019301F0D5E218F30804096A
:102940001509A801970149D62A0D3B1D4C1D5D1D97
:10295000B901CA01CF91DF911F910F91FF90EF90C4
:10296000DF90CF90BF90AF909F908F907F906F90AF
:102970005F904F903F902F900895FC019B018481C0
:1029800095816817790728F4608171816115710557
:1029900029F410921F066FE176E002C0620F731FE8
:1029A000CB010895FC0180819181009729F420E0FA
:1029B00030E040E050E004C00E9433019B01AC01D4
:1029C000B901CA0108950F931F93CF93DF93EC01D0
:1029D0008B016F5F7F4F88819981D3D2009711F46B
:1029E00080E005C0998388831B830A8381E0DF919F
:1029F000CF911F910F910895CF93DF93EC018881C0
:102A00009981892B29F08A819B818617970758F431
:102A1000CE01D9DF882341F08C819D81892B19F467
:102A2000E881F981108281E0DF91CF910895EF92E2
:102A3000FF920F931F93CF93DF93EC017B016C8187
:102A40007D81E114F104B9F04115510591F08A013D
:102A5000060F171FB801D0DF882369F0888199819C
:102A60002C813D81820F931FB7010E9462011D835B
:102A70000C8381E001C080E0DF91CF911F910F9125
:102A8000FF90EF900895DF93CF930F920F92CDB701
:102A9000DEB769831A82BE016F5F7F4F41E050E06D
:102AA000C6DF0F900F90CF91DF910895CF93DF9302
:102AB000EC0188819981009709F0CBD119821882A5
:102AC0001D821C821B821A82DF91CF9108950F9381
:102AD0001F93182F092F6115710559F0DB010D9017
:102AE0000020E9F71197A61BB70BAD01A0DF8823E3
:102AF00019F4812F902FDADF812F902F1F910F91E2
:102B000008950F931F93182F092FFB016081718186
:102B1000448155818CDF882319F4812F902FC6DFE3
:102B2000812F902F1F910F910895EF92FF920F9395
:102B30001F93CF93DF93EC017B018A01BA015CDF25
:102B4000882319F4CE01B2DF07C01D830C8388816E
:102B50009981B7010E946201CE01DF91CF911F914F
:102B60000F91FF90EF900895CF93DF93EC011982BE
:102B700018821B821A821D821C826115710549F020
:102B8000DB010D900020E9F71197A61BB70BAD01F3
:102B9000CCDFDF91CF910895CF93DF93EC011982C1
:102BA00018821B821A821D821C826115710549F0F0
:102BB000DB010D900020E9F71197A61BB70BAD01C3
:102BC000B4DFDF91CF9108950F931F93182F092F32
:102BD0006115710551F0DB010D900020E9F71197A7
:102BE000A61BB70BAD01A1DF01C060DF812F902FC5
:102BF0001F910F910895EF92FF920F931F93DF9310
:102C0000CF93CDB7DEB762970FB6F894DEBF0FBE95
:102C1000CDBF8C01CB01F801118210821382128288
:102C2000158214827E010894E11CF11CB70150E06A
:102C30000E946901C801B701C7DF62960FB6F89418
:102C4000DEBF0FBECDBFCF91DF911F910F91FF90DF
:102C5000EF900895BF92CF92DF92EF92FF920F9381
:102C60001F93CF93DF93082FB92E6B017A01E901EF
:102C70002417350710F4EA017901802F9B2D6DE3AD
:102C800072E072DFD60114968D919C9115978E1586
:102C90009F05C8F08C179D0708F4EC01D601ED9153
:102CA000FC911197EC0FFD1F108110826D917C91AA
:102CB0006E0D7F1D802F9B2D87DFD601ED91FC913E
:102CC000EC0FFD1F1083802F9B2DDF91CF911F9163
:102CD0000F91FF90EF90DF90CF90BF900895CF932A
:102CE000DF93EC01FB018617970751F0608171813A
:102CF0006115710521F04481558117DF01C0D6DED1
:102D0000CE01DF91CF910895FC0180819181A1C016
:102D1000FC01808191819DC00F931F93CF93DF931E
:102D2000BC018230910510F462E070E0E09122066F
:102D3000F091230640E050E0A0E0B0E024C08081A4
:102D4000918186179707D0F08617970771F48281D3
:102D50009381109729F013969C938E9312972CC011
:102D6000909323068093220627C04115510519F040
:102D70008417950718F48D01AC01EF01DF01828102
:102D800093819C01F9013097D1F641155105F9F075
:102D9000CA01861B970B8430910580F48A819B8140
:102DA0000115110521F0F8019383828304C09093EB
:102DB000230680932206FE01329645C0FE01E80FED
:102DC000F91F619371930297998388833CC0809126
:102DD000200690912106892B41F480914002909128
:102DE0004102909321068093200640914202509127
:102DF00043024115510541F44DB75EB780913E0243
:102E000090913F02481B590B2091200630912106DA
:102E100024173507B0F4CA01821B930B8617970756
:102E200080F0AB014E5F5F4F8417950750F0420F63
:102E3000531F5093210640932006F901619371932B
:102E400002C0E0E0F0E0CF01DF91CF911F910F9140
:102E50000895CF93DF939C01009709F48FC0EC0194
:102E600022971B821A8260912206709123066115B7
:102E7000710581F488819981820F931F209120062A
:102E8000309121062817390739F5D0932106C093D0
:102E9000200674C0DB0140E050E0AC17BD0708F12C
:102EA000BB83AA83FE0121913191E20FF31FAE177C
:102EB000BF0779F48D919C911197280F391F2E5FD0
:102EC0003F4F3983288312968D919C9113979B8352
:102ED0008A834115510571F4D0932306C0932206CD
:102EE0004DC012968D919C911397AD01009711F0F2
:102EF000DC01D3CFDA011396DC93CE931297FA015B
:102F000021913191E20FF31FCE17DF0769F4888119
:102F10009981280F391F2E5F3F4FFA01318320839B
:102F20008A819B8193838283E0E0F0E0DB0112964B
:102F30008D919C911397009719F0BC01FD01F6CF7C
:102F4000AB014E5F5F4FDB018D919C91840F951F0C
:102F500020912006309121062817390779F43097FF
:102F600029F4109223061092220602C013821282C4
:102F7000425050405093210640932006DF91CF915C
:102F800008956F927F928F929F92AF92BF92CF924D
:102F9000DF92EF92FF920F931F93CF93DF938C01F9
:102FA000009721F4CB01B8DE8C01B8C08EEFE82E7B
:102FB0008FEFF82EE00EF11E4801860E971E8E143C
:102FC0009F0408F4A9C0D7014D915C911197461751
:102FD0005707B0F04530510508F4A0C0CA01049766
:102FE0008617970708F49AC042505040461B570B6B
:102FF000F401419351936D937C93CF012ADF8EC0EE
:103000005B01A41AB50A3801640E751EA091220650
:10301000B0912306E0E0F0E0CC24DD2447C0A61503
:10302000B705A9F5CD91DC911197CE0102968A15CD
:103030009B0568F1CE018A199B09029612962C9184
:10304000129713963C91059758F0F401228333832D
:10305000CA19DB09D183C083D7016D937C9309C062
:103060004E5F5F4F4C0F5D1FF70151834083C901D5
:10307000FC01C114D10431F0D6011396FC93EE93F8
:1030800012974CC0F0932306E093220647C08D911F
:103090009C911197E817F90708F4FC016D0112964D
:1030A0008C91129713969C919C01D901109709F06D
:1030B000B6CF809120069091210686159705E9F4F8
:1030C000E617F707D0F42091420230914302211510
:1030D000310541F42DB73EB780913E0290913F02F9
:1030E000281B390B82169306B8F490922106809221
:1030F0002006F7017183608311C0CB010DDEEC0166
:10310000009751F0D7014D915C91B8010E9459018F
:10311000C8019FDE8E0102C000E010E0C801DF910F
:10312000CF911F910F91FF90EF90DF90CF90BF90C4
:10313000AF909F908F907F906F9008955058BB27CD
:10314000AA270ED04DC13ED130F043D120F031F44A
:103150009F3F11F41EF433C10EF4E095E7FB29C143
:10316000E92F4FD180F3BA176207730784079507D9
:1031700018F071F49EF567C10EF4E0950B2EBA2F8E
:10318000A02D0B01B90190010C01CA01A00111246D
:10319000FF27591B99F0593F50F4503E68F11A1619
:1031A000F040A22F232F342F4427585FF3CF4695AA
:1031B00037952795A795F0405395C9F77EF41F16CC
:1031C000BA0B620B730B840BBAF09150A1F0FF0F96
:1031D000BB1F661F771F881FC2F70EC0BA0F621F82
:1031E000731F841F48F4879577956795B795F79572
:1031F0009E3F08F0B3CF9395880F08F09927EE0F04
:103200009795879508950CD0EBC0E3D040F0DAD0C5
:1032100030F021F45F3F19F0CCC0511115C1CFC07F
:10322000F0D098F39923C9F35523B1F3951B550BAF
:10323000BB27AA2762177307840738F09F5F5F4F89
:10324000220F331F441FAA1FA9F333D00E2E3AF0CA
:10325000E0E830D091505040E695001CCAF729D0E4
:10326000FE2F27D0660F771F881FBB1F2617370733
:103270004807AB07B0E809F0BB0B802DBF01FF2763
:1032800093585F4F2AF09E3F510568F092C0DCC012
:103290005F3FECF3983EDCF3869577956795B7959D
:1032A000F7959F5FC9F7880F911D9695879597F9B8
:1032B0000895E1E0660F771F881FBB1F6217730731
:1032C0008407BA0720F0621B730B840BBA0BEE1F46
:1032D00088F7E095089504D06894B111B5C00895B9
:1032E00098D088F09F5790F0B92F9927B751A0F048
:1032F000D1F0660F771F881F991F1AF0BA95C9F78A
:1033000012C0B13081F09FD0B1E008959CC0672F0A
:10331000782F8827B85F39F0B93FCCF38695779539
:103320006795B395D9F73EF4909580957095619522
:103330007F4F8F4F9F4F0895E89409C097FB3EF44D
:1033400090958095709561957F4F8F4F9F4F9923F2
:10335000A9F0F92F96E9BB279395F6958795779570
:103360006795B795F111F8CFFAF4BB0F11F460FF30
:103370001BC06F5F7F4F8F4F9F4F16C0882311F088
:1033800096E911C0772321F09EE8872F762F05C09C
:10339000662371F096E8862F70E060E02AF09A9537
:1033A000660F771F881FDAF7880F9695879597F92C
:1033B000089597F99F6780E870E060E008959FEFB7
:1033C00080EC089500240A941616170618060906BC
:1033D000089500240A94121613061406050608958B
:1033E000092E0394000C11F4882352F0BB0F40F413
:1033F000BF2B11F460FF04C06F5F7F4F8F4F9F4F53
:10340000089557FD9058440F551F59F05F3F71F0D4
:103410004795880F97FB991F61F09F3F79F087953B
:103420000895121613061406551FF2CF4695F1DFC4
:1034300008C0161617061806991FF1CF8695710554
:10344000610508940895E894BB2766277727CB0188
:1034500097F908950BD0C4CFB5DF28F0BADF18F084
:10346000952309F0A6CFABCF1124EECFCADFA0F38E
:10347000959FD1F3950F50E0551F629FF001729F09
:10348000BB27F00DB11D639FAA27F00DB11DAA1F28
:10349000649F6627B00DA11D661F829F2227B00D75
:1034A000A11D621F739FB00DA11D621F839FA00D00
:1034B000611D221F749F3327A00D611D231F849F50
:1034C000600D211D822F762F6A2F11249F575040A7
:1034D0008AF0E1F088234AF0EE0FFF1FBB1F661F42
:1034E000771F881F91505040A9F79E3F510570F0FB
:1034F00060CFAACF5F3FECF3983EDCF386957795DB
:103500006795B795F795E7959F5FC1F7FE2B880FF5
:10351000911D9695879597F90895629FD001739FA5
:10352000F001829FE00DF11D649FE00DF11D929F5F
:10353000F00D839FF00D749FF00D659FF00D99279E
:10354000729FB00DE11DF91F639FB00DE11DF91FC2
:10355000BD01CF0111240895991B79E004C0991F82
:10356000961708F0961B881F7A95C9F780950895DD
:1035700097FB092E07260AD077FD04D049D006D044
:1035800000201AF4709561957F4F0895F6F7909595
:1035900081959F4F0895A1E21A2EAA1BBB1BFD0126
:1035A0000DC0AA1FBB1FEE1FFF1FA217B307E40722
:1035B000F50720F0A21BB30BE40BF50B661F771F7A
:1035C000881F991F1A9469F760957095809590955A
:1035D0009B01AC01BD01CF01089597FB092E052683
:1035E0000ED057FD04D0D7DF0AD0001C38F4509518
:1035F0004095309521953F4F4F4F5F4F0895F6F717
:1036000090958095709561957F4F8F4F9F4F08954E
:10361000AA1BBB1B51E107C0AA1FBB1FA617B707F8
:1036200010F0A61BB70B881F991F5A95A9F7809514
:103630009095BC01CD010895EE0FFF1F0590F49108
:10364000E02D199412E0C8E0D2E003C0FE01F6DFDD
:0C3650002296CA30D107D1F7F894FFCFC2
:10365C00002449500A002453500A00245250000AF6
:10366C00002452503000245250303000464C443A22
:10367C00004652443A00424C443A004252443A000A
:10368C00464C3A0046523A002444500A000080004E
:10369C0024060000000000006512EA13F9112C1238
:0436AC000C12551295
:00000001FF
