:1000000004C100000AC3000039C3000068C3000037
:1000100097C30000C6C30000F5C3000024C400005D
:1000200053C400001FC100001DC100001BC100001F
:1000300019C1000017C1000015C1000013C1000064
:1000400011C100000FC100000DC100000BC1000074
:1000500009C1000007C1000005C1000066C400001E
:1000600001C100004BC6000099C70000FBC00000A2
:10007000F9C00000F7C00000F5C00000F3C00000A8
:10008000F1C00000EFC00000EDC00000EBC00000B8
:1000900075C60000C2C70000E5C00000E3C0000054
:1000A000E1C00000DFC00000DDC00000DBC00000D8
:1000B000D9C00000D7C00000D5C00000D3C00000E8
:1000C000D1C00000CFC00000CDC0000097C6000026
:1000D000E3C70000C7C00000D1C600000C948B0825
:1000E000C1C0000000002100240027002A002D00CC
:1000F0003000330001010000040107010A01000083
:100100002200250028002B002E00310034000201BF
:100110000000050108010B0100002000230026005B
:1001200029002C002F00320000010000030106010D
:10013000090105050505070508080808020202026D
:100140000A0A080804040404010101010101010173
:100150000303030303030303040707070C0C0C0C3E
:100160000C0C0C0C02020202060606060606060627
:100170000B0B0B0B0B0B0B0B0102102020080810B4
:100180002040102040800201020108040201010207
:1001900004081020408080402010080402018004E0
:1001A000020180402010080402010804020101023B
:1001B0000408102040800102040810204080000044
:1001C000090A02080B0C0D070603040100000000D9
:1001D000000000000000000000000000000000001F
:1001E0000000000000000000000011100F000000DF
:1001F00000000000000000000000000000000000FF
:10020000000000008201FB097D0111241FBECFEF19
:10021000D1E2DEBFCDBF00E00CBF12E0A0E0B2E053
:10022000E0ECFDE100E00BBF02C007900D92A632AA
:10023000B107D9F71BBE15E0A6E2B2E001C01D92DE
:10024000A631B107E1F712E0C8E0D2E004C022977E
:10025000FE010E94D00EC430D107C9F70E94320BB4
:100260000C94D40ECDCEFB01DC0102C001900D92A6
:1002700041505040D8F70895FB01DC0101900D92E8
:100280000020E1F7089586E292E041C086E292E024
:10029000BAC00F931F9386E292E0F2D003E411E01C
:1002A00082E0B80141E050E03CD183E0B80141E098
:1002B00050E037D184E0B80141E050E032D185E030
:1002C000B80141E050E02DD11F910F910895813088
:1002D000910549F46F5F7F4F79F488E492E060E024
:1002E00072E00C94400C892B39F46F5F7F4F21F43E
:1002F00088E492E00C946F0C089580E090E06FEF3A
:100300007FEFE5CF81E090E06FEF7FEFE0CF0296E7
:10031000FBC00F931F93CF93DF938B0164EF71E0CA
:1003200080E090E04AD3C0E0D0E019C08DE060E00A
:10033000B2D46AEF70E080E090E03FD38DE061E0FE
:10034000AAD46AEF70E080E090E037D38DE060E0FF
:10035000A2D46AEF70E080E090E02FD32196C0171E
:10036000D10724F3DF91CF911F910F9108950F933F
:100370001F9363E070E0CDDF09E814E0C80161E09D
:1003800072E00E94860BC801E6D71F910F91089575
:100390000F931F9364E070E0BCDF09E814E0C8012C
:1003A00066E072E00E94860BC801D5D71F910F91BD
:1003B00008950F931F9365E070E0ABDF09E814E048
:1003C000C8016BE072E00E94860BC801C4D71F9180
:1003D0000F910895CF93DF93EC01829661E070E076
:1003E0000E94880BFC01E081E43429F0E23531F40D
:1003F000CE01CEDF05C0CE01DCDF02C0CE01B7DF0B
:10040000DF91CF910895FF920F931F93CF93DF93C6
:10041000EC018C010E5D1F4FFF24F3940CC089E8A2
:1004200094E070D7682F89A7C8010E94FD0B89A5A9
:100430008A3009F4F8A689E894E032D7181619062C
:1004400074F36AEF70E080E090E0B7D288A588236B
:1004500089F0C80160E070E00E94880BFC01808197
:10046000843241F4CE01B6DFC80160E072E00E9440
:10047000580C18A6DF91CF911F910F91FF9008950E
:10048000EF92FF920F931F937C01029662E070E05F
:1004900040E054E02FD0C7010A9663E070E040E0EE
:1004A00054E028D087010E5E1F4FC80164E070E061
:1004B00040E054E01FD0C80165E070E040E054E047
:1004C00019D08DE061E034D3F70111A6C7018296FF
:1004D00060E072E00E94580CF70110A689E894E0F1
:1004E00040E052EC61E070E055D61F910F91FF9013
:1004F000EF900895FC0171836083538342831482DB
:100500001582168217820895FC0184819581A68147
:10051000B7810196A11DB11D84839583A683B783FE
:100520000895883008F078C0E82FF0E0EE0FFF1F44
:10053000E05BFD4F718360838330D9F0843030F409
:10054000813009F444C0823060F439C0853051F103
:100550008530D8F0863009F446C0873009F05CC099
:100560004FC0809169008C7F842B80936900E89A4A
:10057000089580916900440F551F440F551F837FD4
:10058000842B80936900E99A08958091690074E052
:10059000440F551F7A95E1F78F7C842B8093690077
:1005A000EA9A08958091690066E0440F551F6A95A4
:1005B000E1F78F73842B80936900EB9A0895809103
:1005C0006A008C7F842B80936A00EC9A0895809156
:1005D0006A00440F551F440F551F837F842B80935F
:1005E0006A00ED9A089580916A0024E0440F551F37
:1005F0002A95E1F78F7C842B80936A00EE9A089508
:1006000080916A0096E0440F551F9A95E1F78F7329
:10061000842B80936A00EF9A08951F920F920FB671
:100620000F920BB60F9211242F933F934F935F932A
:100630006F937F938F939F93AF93BF93EF93FF93AA
:100640008091540290915502892B29F0E091540237
:10065000F09155021995FF91EF91BF91AF919F9144
:100660008F917F916F915F914F913F912F910F905B
:100670000BBE0F900FBE0F901F9018951F920F92F8
:100680000FB60F920BB60F9211242F933F934F93F7
:100690005F936F937F938F939F93AF93BF93EF93EA
:1006A000FF938091560290915702892B29F0E09197
:1006B0005602F09157021995FF91EF91BF91AF91BA
:1006C0009F918F917F916F915F914F913F912F916A
:1006D0000F900BBE0F900FBE0F901F9018951F929A
:1006E0000F920FB60F920BB60F9211242F933F93D8
:1006F0004F935F936F937F938F939F93AF93BF932A
:10070000EF93FF938091580290915902892B29F021
:10071000E0915802F09159021995FF91EF91BF9124
:10072000AF919F918F917F916F915F914F913F9189
:100730002F910F900BBE0F900FBE0F901F9018952A
:100740001F920F920FB60F920BB60F9211242F9398
:100750003F934F935F936F937F938F939F93AF9349
:10076000BF93EF93FF9380915A0290915B02892B84
:1007700029F0E0915A02F0915B021995FF91EF91F7
:10078000BF91AF919F918F917F916F915F914F91A9
:100790003F912F910F900BBE0F900FBE0F901F90A7
:1007A00018951F920F920FB60F920BB60F9211244D
:1007B0002F933F934F935F936F937F938F939F9369
:1007C000AF93BF93EF93FF938091500290915102AA
:1007D000892B29F0E0915002F09151021995FF9177
:1007E000EF91BF91AF919F918F917F916F915F91A9
:1007F0004F913F912F910F900BBE0F900FBE0F9016
:100800001F9018951F920F920FB60F920BB60F9272
:1008100011242F933F934F935F936F937F938F9305
:100820009F93AF93BF93EF93FF9380915202909168
:100830005302892B29F0E0915202F091530219954D
:10084000FF91EF91BF91AF919F918F917F916F91A8
:100850005F914F913F912F910F900BBE0F900FBE64
:100860000F901F9018951F920F920FB60F920BB614
:100870000F9211242F933F934F935F936F937F9326
:100880008F939F93AF93BF93EF93FF9380915C02FD
:1008900090915D02892B29F0E0915C02F0915D025C
:1008A0001995FF91EF91BF91AF919F918F917F919A
:1008B0006F915F914F913F912F910F900BBE0F90D1
:1008C0000FBE0F901F9018951F920F920FB60F92A8
:1008D0000BB60F9211242F933F934F935F936F9317
:1008E0007F938F939F93AF93BF93EF93FF938091E9
:1008F0005E0290915F02892B29F0E0915E02F091F7
:100900005F021995FF91EF91BF91AF919F918F91E8
:100910007F916F915F914F913F912F910F900BBEFF
:100920000F900FBE0F901F9018951F920F920FB649
:100930000F9211242F933F938F939F93AF93BF9365
:100940008091640290916502A0916602B091670265
:10095000309168020196A11DB11D232F2D5F2D3707
:1009600020F02D570196A11DB11D209368028093A0
:10097000640290936502A0936602B093670280912F
:10098000600290916102A0916202B09163020196AF
:10099000A11DB11D8093600290936102A093620239
:1009A000B0936302BF91AF919F918F913F912F912F
:1009B0000F900FBE0F901F9018959B01AC017FB751
:1009C000F8948091600290916102A0916202B091CE
:1009D000630266B5A89B05C06F3F19F00196A11D83
:1009E000B11D7FBFBA2FA92F982F8827860F911D81
:1009F000A11DB11D62E0880F991FAA1FBB1F6A9538
:100A0000D1F7BC012DC0FFB7F8948091600290919E
:100A10006102A0916202B0916302E6B5A89B05C095
:100A2000EF3F19F00196A11DB11DFFBFBA2FA92FED
:100A3000982F88278E0F911DA11DB11DE2E0880F10
:100A4000991FAA1FBB1FEA95D1F7861B970B885EDB
:100A50009340C8F2215030404040504068517C4F94
:100A6000211531054105510571F60895789484B535
:100A7000826084BD84B5816084BD85B5826085BD9A
:100A800085B5816085BDEEE6F0E080818160808380
:100A9000E1E8F0E010828081826080838081816063
:100AA0008083E0E8F0E0808181608083E1EBF0E02A
:100AB000808184608083E0EBF0E0808181608083CE
:100AC000E1E9F0E0808182608083808181608083C1
:100AD000E0E9F0E0808181608083E1EAF0E08081FC
:100AE00082608083808181608083E0EAF0E08081A1
:100AF00081608083E1E2F1E0808182608083808197
:100B000081608083E0E2F1E0808181608083EAE7B8
:100B1000F0E0808184608083808182608083808136
:100B2000816080838081806880831092C1000895F5
:100B3000CF93DF93482F50E0CA0188589E4FFC01A5
:100B400034914E5C5E4FFA018491882369F190E004
:100B5000880F991FFC01EC51FF4FA591B491FC0146
:100B6000E250FF4FC591D491662351F42FB7F8940A
:100B70008C91932F909589238C93888189230BC026
:100B8000623061F42FB7F8948C91932F909589235C
:100B90008C938881832B88832FBF06C09FB7F894DE
:100BA0008C91832B8C939FBFDF91CF9108958930D7
:100BB00009F449C08A30A0F4843051F1853040F402
:100BC000823079F1833000F5813009F063C026C0AE
:100BD000873079F1883098F5863009F05BC025C000
:100BE0008D3009F442C08E3028F48B30B1F18C3056
:100BF000C0F52DC0803109F442C0813109F445C0EF
:100C00008F3009F047C037C0809180008F7703C0D4
:100C1000809180008F7D80938000089584B58F77C8
:100C200002C084B58F7D84BD08958091B0008F7718
:100C300003C08091B0008F7D8093B00008958091B3
:100C400090008F7707C0809190008F7D03C08091C6
:100C50009000877F8093900008958091A0008F7707
:100C600007C08091A0008F7D03C08091A000877F86
:100C70008093A0000895809120018F7703C0809118
:100C800020018F7D80932001089580912001877F2E
:100C9000809320010895FF920F931F93F62E482F03
:100CA00050E0CA0182549E4FFC012491CA01885829
:100CB0009E4FFC0114914E5C5E4FFA01049100239B
:100CC000C1F0222311F0822F72DFE02FF0E0EE0F4F
:100CD000FF1FE250FF4FA591B4919FB7F894FF20FA
:100CE00021F48C911095812302C08C91812B8C93DF
:100CF0009FBF1F910F91FF90089508951F920F922B
:100D00000FB60F920BB60F9211242F933F934F9370
:100D10008F939F93EF93FF938091C00082FD1DC03E
:100D20004091C6002091A9023091AA022F5F3F4F47
:100D30002F7330708091AB029091AC022817390765
:100D400071F0E091A902F091AA02E759FD4F4083AA
:100D50003093AA022093A90202C08091C600FF919D
:100D6000EF919F918F914F913F912F910F900BBEDB
:100D70000F900FBE0F901F90189508951F920F921D
:100D80000FB60F920BB60F9211242F933F934F93F0
:100D90008F939F93EF93FF938091C80082FD1DC0B6
:100DA0004091CE0020913103309132032F5F3F4FAD
:100DB0002F733070809133039091340328173907D3
:100DC00071F0E0913103F0913203EF50FD4F408319
:100DD000309332032093310302C08091CE00FF9103
:100DE000EF919F918F914F913F912F910F900BBE5B
:100DF0000F900FBE0F901F90189508951F920F929D
:100E00000FB60F920BB60F9211242F933F934F936F
:100E10008F939F93EF93FF938091D00082FD1DC02D
:100E20004091D6002091B9033091BA032F5F3F4F14
:100E30002F7330708091BB039091BC032817390742
:100E400071F0E091B903F091BA03E758FC4F408389
:100E50003093BA032093B90302C08091D600FF916A
:100E6000EF919F918F914F913F912F910F900BBEDA
:100E70000F900FBE0F901F90189508951F920F921C
:100E80000FB60F920BB60F9211242F933F934F93EF
:100E90008F939F93EF93FF938091300182FD1DC04C
:100EA0004091360120914104309142042F5F3F4F21
:100EB0002F733070809143049091440428173907B0
:100EC00071F0E0914104F0914204EF5FFB4F4083E9
:100ED000309342042093410402C080913601FF9177
:100EE000EF919F918F914F913F912F910F900BBE5A
:100EF0000F900FBE0F901F901895E0919504F09100
:100F00009604E05CFF4F8191919120813181805C5A
:100F10009F4F821B930B60E470E0F7D6892B09F09A
:100F2000ECDEE091B704F091B804E05CFF4F8191F2
:100F3000919120813181805C9F4F821B930B60E4F3
:100F400070E0E3D6892B09F018DFE091D904F09125
:100F5000DA04E05CFF4F8191919120813181805CC6
:100F60009F4F821B930B60E470E0CFD6892B09F072
:100F700044DFE091FB04F091FC04E05CFF4F8191C1
:100F8000919120813181805C9F4F821B930B60E4A3
:100F900070E0BBD6892B09F070CF08951F920F9295
:100FA0000FB60F920BB60F9211242F933F938F938E
:100FB0009F93EF93FF932091ED023091EE02809189
:100FC000EF029091F0022817390731F48091C100A7
:100FD0008F7D8093C10014C0E091EF02F091F00288
:100FE000E355FD4F20818091EF029091F002019630
:100FF0008F7390709093F0028093EF022093C6005D
:10100000FF91EF919F918F913F912F910F900BBE88
:101010000F900FBE0F901F9018951F920F920FB652
:101020000F920BB60F9211242F933F938F939F93A0
:10103000EF93FF93209175033091760380917703AE
:10104000909178032817390731F48091C9008F7D7A
:101050008093C90014C0E0917703F0917803EB5CB2
:10106000FC4F2081809177039091780301968F73D4
:10107000907090937803809377032093CE00FF9134
:10108000EF919F918F913F912F910F900BBE0F90F9
:101090000FBE0F901F9018951F920F920FB60F92D0
:1010A0000BB60F9211242F933F938F939F93EF933F
:1010B000FF932091FD033091FE038091FF039091F7
:1010C00000042817390731F48091D1008F7D809377
:1010D000D10014C0E091FF03F0910004E354FC4FF1
:1010E00020818091FF039091000401968F7390708E
:1010F000909300048093FF032093D600FF91EF911B
:101100009F918F913F912F910F900BBE0F900FBE2B
:101110000F901F9018951F920F920FB60F920BB65B
:101120000F9211242F933F938F939F93EF93FF93ED
:1011300020918504309186048091870490918804E1
:101140002817390731F4809131018F7D8093310167
:1011500014C0E0918704F0918804EB5BFB4F208181
:10116000809187049091880401968F73907090937A
:1011700088048093870420933601FF91EF919F911B
:101180008F913F912F910F900BBE0F900FBE0F903C
:101190001F901895AF92BF92DF92EF92FF920F933C
:1011A0001F93CF93DF93EC017A018B01DD24403054
:1011B00081EE580780E0680780E0780711F0DD24B1
:1011C000D39491E0A92EB12CEC89FD89DD2069F042
:1011D000C50108A002C0880F991F0A94E2F7808316
:1011E00060E079E08DE390E005C0108260E874E88B
:1011F0008EE190E0A80197019BD5215030404040FE
:101200005040569547953795279580E1203038070F
:1012100020F0DD2011F0DD24D7CFE889F989308373
:10122000EA89FB89208319A2EE89FF89408121E0A8
:1012300030E0C9010C8C02C0880F991F0A94E2F7B4
:10124000482B4083EE89FF894081C9010D8C02C083
:10125000880F991F0A94E2F7482B4083EE89FF8993
:101260004081C9010E8C02C0880F991F0A94E2F7D1
:10127000482B4083EE89FF8980810F8C02C0220FAA
:10128000331F0A94E2F7209528232083DF91CF9122
:101290001F910F91FF90EF90DF90BF90AF90089556
:1012A000DC011C96ED91FC911D97E05CFF4F819154
:1012B000919120813181805C9F4F821B930B60E470
:1012C00070E023C5DC011C96ED91FC911D97E05C5C
:1012D000FF4F20813181E054F040DF01AE5BBF4F12
:1012E0008D919C9111972817390719F42FEF3FEF33
:1012F00007C08D919C91E80FF91F8081282F30E065
:10130000C9010895DC011C96ED91FC911D97E05CEC
:10131000FF4F20813181E054F040DF01AE5BBF4FD1
:101320008D919C9111972817390719F42FEF3FEFF2
:1013300010C08D919C911197E80FF91F20818D911C
:101340009C91119701968F73907011969C938E9338
:1013500030E0C9010895DC0191968C919197882322
:1013600039F05496ED91FC915597808186FFF9CF25
:1013700091961C920895CF93DF93EC01EE85FF8543
:10138000E05CFF4F20813181E054F0402F5F3F4F00
:101390002F733070DF01AE5BBF4F8D919C91119721
:1013A00028173907D1F3E05CFF4F80819181E05429
:1013B000F040E80FF91F6083EE85FF85E05CFF4F8A
:1013C00031832083EE89FF89208181E090E00F8CBA
:1013D00002C0880F991F0A94E2F7282B208381E02E
:1013E00089A3EC89FD8980818064808381E090E01D
:1013F000DF91CF9108951F9310928C0410928B046B
:1014000028EE33E040E050E020938D0430938E04CA
:1014100040938F04509390046AE172E070938A04C1
:101420006093890489E692E09093960480939504F2
:101430008DEA92E0909398048093970485EC90E075
:1014400090939A048093990484EC90E090939C0488
:1014500080939B0480EC90E090939E0480939D0485
:1014600081EC90E09093A00480939F0482EC90E044
:101470009093A2048093A10486EC90E09093A4043E
:101480008093A30414E01093A504B3E0B093A604E2
:10149000A7E0A093A704F5E0F093A804E1E0E093AF
:1014A000A9041092AE041092AD042093AF043093BF
:1014B000B0044093B1045093B2047093AC046093B1
:1014C000AB0481EF92E09093B8048093B70485E376
:1014D00093E09093BA048093B9048DEC90E09093DC
:1014E000BC048093BB048CEC90E09093BE0480938A
:1014F000BD0488EC90E09093C0048093BF0489EC15
:1015000090E09093C2048093C1048AEC90E09093A1
:10151000C4048093C3048EEC90E09093C60480933F
:10152000C5041093C704B093C804A093C904F093F2
:10153000CA04E093CB041092D0041092CF042093FD
:10154000D1043093D2044093D3045093D4047093C5
:10155000CE046093CD0489E793E09093DA048093FE
:10156000D9048DEB93E09093DC048093DB0485ED4C
:1015700090E09093DE048093DD0484ED90E09093FE
:10158000E0048093DF0480ED90E09093E204809388
:10159000E10481ED90E09093E4048093E30482ED14
:1015A00090E09093E6048093E50486ED90E09093BC
:1015B000E8048093E7041093E904B093EA04A0934D
:1015C000EB04F093EC04E093ED041092F20410921B
:1015D000F1042093F3043093F4044093F504509302
:1015E000F6047093F0046093EF0481E094E090932C
:1015F000FC048093FB0485E494E09093FE048093C4
:10160000FD0485E391E0909300058093FF0484E35B
:1016100091E0909302058093010580E391E090931F
:1016200004058093030581E391E090930605809380
:10163000050582E391E0909308058093070586E312
:1016400091E090930A058093090510930B05B093E0
:101650000C05A0930D05F0930E05E0930F051F9167
:1016600008950895CF93DF9301DAFBDF0E944901CB
:10167000CDE7D7E00E9446012097E1F33EDCFACFA8
:10168000CF92DF92EF92FF920F931F93CF93DF934E
:101690007C016B018A01C0E0D0E00FC0D6016D91E2
:1016A0006D01D701ED91FC910190F081E02DC70112
:1016B0001995C80FD91F015010400115110571F778
:1016C000CE01DF91CF911F910F91FF90EF90DF90AE
:1016D000CF900895CF93DF93EC016115710519F454
:1016E00020E030E00FC0DB010D900020E9F71197FA
:1016F000A61BB70BE881F9810280F381E02DAD01D3
:1017000019959C01C901DF91CF910895E3CF089508
:10171000FC019B01848195816817790728F4608119
:1017200071816115710529F41092110561E175E06F
:1017300002C0620F731FCB0108950F931F93CF93C5
:10174000DF93EC018B016F5F7F4F8881998100D21D
:10175000009711F480E005C0998388831B830A8376
:1017600081E0DF91CF911F910F910895CF93DF9387
:10177000EC0188819981892B29F08A819B818617C8
:10178000970758F4CE01D9DF882341F08C819D81E1
:10179000892B19F4E881F981108281E0DF91CF91E2
:1017A0000895EF92FF920F931F93CF93DF93EC0175
:1017B0007B016C817D81E114F104B9F04115510583
:1017C00091F08A01060F171FB801D0DF882369F056
:1017D000888199812C813D81820F931FB7010E94DE
:1017E0003C011D830C8381E001C080E0DF91CF913B
:1017F0001F910F91FF90EF900895DF93CF930F9279
:101800000F92CDB7DEB769831A82BE016F5F7F4F3B
:1018100041E050E0C6DF0F900F90CF91DF91089527
:10182000CF93DF93EC0188819981009709F0F8D07C
:10183000198218821D821C821B821A82DF91CF912D
:101840000895EF92FF920F931F93CF93DF93EC01D4
:101850007B018A01BA018ADF882319F4CE01E0DF17
:1018600007C01D830C8388819981B7010E943C01C8
:10187000CE01DF91CF911F910F91FF90EF900895CE
:10188000CF93DF93EC01198218821B821A821D828A
:101890001C826115710549F0DB010D900020E9F70C
:1018A0001197A61BB70BAD01CCDFDF91CF91089547
:1018B0000F931F93182F092F6115710551F0DB014C
:1018C0000D900020E9F71197A61BB70BAD01B9DF0A
:1018D00001C0A6DF812F902F1F910F910895FC0169
:1018E000808191819DC00F931F93CF93DF93BC01A3
:1018F0008230910510F462E070E0E0911405F091FF
:10190000150540E050E0A0E0B0E024C08081918166
:1019100086179707D0F08617970771F48281938115
:10192000109729F013969C938E9312972CC0909346
:1019300015058093140527C04115510519F084172A
:10194000950718F48D01AC01EF01DF0182819381CD
:101950009C01F9013097D1F641155105F9F0CA0102
:10196000861B970B8430910580F48A819B81011539
:10197000110521F0F8019383828304C0909315052B
:1019800080931405FE01329645C0FE01E80FF91F51
:10199000619371930297998388833CC0809112056B
:1019A00090911305892B41F48091120290911302BA
:1019B00090931305809312054091140250911502E3
:1019C0004115510541F44DB75EB7809110029091D9
:1019D0001102481B590B2091120530911305241751
:1019E0003507B0F4CA01821B930B8617970780F066
:1019F000AB014E5F5F4F8417950750F0420F531FA6
:101A00005093130540931205F9016193719302C03D
:101A1000E0E0F0E0CF01DF91CF911F910F910895A9
:101A2000CF93DF939C01009709F48FC0EC012297BC
:101A30001B821A826091140570911505611571055C
:101A400081F488819981820F931F20911205309132
:101A500013052817390739F5D0931305C0931205DC
:101A600074C0DB0140E050E0AC17BD0708F1BB8358
:101A7000AA83FE0121913191E20FF31FAE17BF0738
:101A800079F48D919C911197280F391F2E5F3F4F4C
:101A90003983288312968D919C9113979B838A8317
:101AA0004115510571F4D0931505C09314054DC02F
:101AB00012968D919C911397AD01009711F0DC0166
:101AC000D3CFDA011396DC93CE931297FA012191CA
:101AD0003191E20FF31FCE17DF0769F488819981F6
:101AE000280F391F2E5F3F4FFA01318320838A81EF
:101AF0009B8193838283E0E0F0E0DB0112968D917D
:101B00009C911397009719F0BC01FD01F6CFAB0132
:101B10004E5F5F4FDB018D919C91840F951F20914B
:101B20001205309113052817390779F4309729F4F5
:101B3000109215051092140502C0138212824250B1
:101B400050405093130540931205DF91CF910895B3
:101B50006F927F928F929F92AF92BF92CF92DF92BD
:101B6000EF92FF920F931F93CF93DF938C01009717
:101B700021F4CB01B8DE8C01B8C08EEFE82E8FEFD8
:101B8000F82EE00EF11E4801860E971E8E149F045B
:101B900008F4A9C0D7014D915C91119746175707DA
:101BA000B0F04530510508F4A0C0CA01049786176B
:101BB000970708F49AC042505040461B570BF40157
:101BC000419351936D937C93CF012ADF8EC05B01CB
:101BD000A41AB50A3801640E751EA0911405B091BF
:101BE0001505E0E0F0E0CC24DD2447C0A615B705DC
:101BF000A9F5CD91DC911197CE0102968A159B052E
:101C000068F1CE018A199B09029612962C911297BF
:101C100013963C91059758F0F40122833383CA1937
:101C2000DB09D183C083D7016D937C9309C04E5FDC
:101C30005F4F4C0F5D1FF70151834083C901FC01C9
:101C4000C114D10431F0D6011396FC93EE93129790
:101C50004CC0F0931505E093140547C08D919C91FD
:101C60001197E817F90708F4FC016D0112968C91A1
:101C7000129713969C919C01D901109709F0B6CF49
:101C8000809112059091130586159705E9F4E617E2
:101C9000F707D0F420911402309115022115310577
:101CA00041F42DB73EB78091100290911102281B8C
:101CB000390B82169306B8F49092130580921205A0
:101CC000F7017183608311C0CB010DDEEC01009739
:101CD00051F0D7014D915C91B8010E943301C801C8
:101CE0009FDE8E0102C000E010E0C801DF91CF91BD
:101CF0001F910F91FF90EF90DF90CF90BF90AF902A
:101D00009F908F907F906F90089597FB092E0726E4
:101D10000AD077FD04D02ED006D000201AF470959A
:101D200061957F4F0895F6F7909581959F4F08959F
:101D3000A1E21A2EAA1BBB1BFD010DC0AA1FBB1FCF
:101D4000EE1FFF1FA217B307E407F50720F0A21B41
:101D5000B30BE40BF50B661F771F881F991F1A94AE
:101D600069F760957095809590959B01AC01BD01D8
:101D7000CF010895AA1BBB1B51E107C0AA1FBB1FBF
:101D8000A617B70710F0A61BB70B881F991F5A9507
:101D9000A9F780959095BC01CD010895EE0FFF1F26
:101DA0000590F491E02D199412E0C8E0D2E003C050
:101DB000FE01F6DF2296CA30D107D1F7F894FFCFA3
:101DC000002453500A002452500A002444500A00B0
:101DD00080001605000000000000BB09400B500900
:061DE00082096209AB0953
:00000001FF
