:100000000C94A0010C944B0C0C947C0C0C94AD0C37
:100010000C94DE0C0C940F0D0C94400D0C94710D8F
:100020000C94A20D0C94D1010C94D1010C94D1012B
:100030000C94D1010C94D1010C94D1010C94D101F8
:100040000C94D1010C94B9090C94D1010C94D101F8
:100050000C94D1010C94D1010C94D1010C94D30DCA
:100060000C94D1010C9475120C94AB120C94D10128
:100070000C94D1010C94D1010C94D1010C94D101B8
:100080000C94E7090C94D1010C94D1010C94D1018A
:100090000C94D1010C94D1010C94D1010C94D10198
:1000A0000C94D1010C94D1010C94150A0C94D1013B
:1000B0000C94D1010C94D1010C94D1010C94430AFD
:1000C0000C94D1010C94D1010C94D1010C94D10168
:1000D0000C94D1010C94D1010C94D1010C94D10158
:1000E0000C94D101250CEF0BF70B030C100C310C09
:1000F0003E0CF00EF50EFA0E040F0E0F870F180FC0
:10010000200F280F320F3C0F460F550F5F0F870F40
:10011000690F730F7D0FA90FAC0F9B0F9F0FA50FDA
:10012000E30FB00FB40FBA0FBE0FC20FC80FCC0F42
:10013000D00FE30FD60FDA0FDE0F0C94F00E0C94F5
:10014000E30F0C94EF0B0C94FA0E0C94D00F0C945C
:100150005F0F0C94870F0C94030C0C94A50F0C9458
:100160004C030C94280F0C94DB010C943C0F0C9462
:10017000D7010C947D0F0C94D3010C94180F0C94A0
:10018000100C0C94200F0C94320F0C940C110C9446
:10019000DA0F0C94550F0C94CC0F0C94460F0C9462
:1001A0001A110C943E0C0C94DF010C94DE0F0C948D
:1001B000C20F0C94A90F0C94BA0F0C9432130C9428
:1001C000250C0C94D5120C940E0F0C943A030C943D
:1001D000F50E0C94B00F0C94040F0C94D60F0C94E5
:1001E0008C110C949F0F0C94310C0C942E110C94C8
:1001F00001110C94AC0F0C94AE110C94DF120C9402
:10020000C80F0C94BE0F0C949B0F0C94F70B0C941E
:10021000690F0C94B40F0C94730F00000A0B0209C1
:100220000C0D0E0807030401000000000000000090
:1002300000000000000000000000000000000000BE
:10024000000000000000121110000000000000007B
:10025000000000000000000000000000000000009E
:1002600001021020200808102040102040800201C8
:1002700002010804020101020408102040808040AD
:1002800020100804020180040201804020100804AC
:10029000020108040201010204081020408001024A
:1002A0000408102040800505050507050808080812
:1002B000020202020A0A08080404040401010101FE
:1002C00001010101030303030303030304070707F9
:1002D0000C0C0C0C0C0C0C0C02020202060606069E
:1002E000060606060B0B0B0B0B0B0B0B000020007E
:1002F0002300260029002C002F00320000010000FE
:1003000003010601090100002200250028002B003E
:100310002E003100340002010000050108010B012C
:1003200000002100240027002A002D0030003300A7
:1003300001010000040107010A013A03DF124C0326
:1003400011241FBECFEFD1E2DEBFCDBF00E00CBF56
:1003500012E0A0E0B2E0E2EDF5E300E00BBF02C086
:1003600007900D92A435B107D9F724E0A4E5B2E0D7
:1003700001C01D92A532B207E1F713E0CEE3D3E04E
:1003800000E006C022970109FE010BBF0E9414186D
:10039000CA33D10780E00807A9F70E9423130C9401
:1003A000D71A0C94000084E592E00C942E0384E5A7
:1003B00092E00C94310384E592E00C94340384E5DC
:1003C00092E00C94370384E592E00E94070242E039
:1003D00050E063ED71E082E00E94DA0B42E050E011
:1003E00067ED71E083E00E94DA0B42E050E06BEDD4
:1003F00071E085E00E94DA0B42E050E06FED71E0C1
:1004000084E00C94DA0B84E592E00C94B307AF928D
:10041000BF92CF92DF92EF92FF920F931F93CF93F1
:10042000DF93CDB7DEB72A970FB6F894DEBF0FBEC5
:10043000CDBF5C01CE0101960E9410088AE0FE014A
:100440003196D50101900D928A95E1F7F501E45BB3
:10045000FF4F1182108246E050E06AE370E08FECBB
:1004600092E00E94D108F501EE58FF4F11821082F0
:10047000329611821082329681E080833196118209
:10048000108232961182108285E1C82ED12C98E11B
:10049000E92EF12C00E010E021E030E040E058E0EF
:1004A00062E070E0C5010C960E94390824E1C22E7A
:1004B000D12C39E1E32EF12C01E010E021E030E015
:1004C00040E058E063E070E0C5014C960E943908B6
:1004D00043E1C42ED12C5AE1E52EF12C00E010E0CE
:1004E00020E030E040E250E064E070E0C5018C962E
:1004F0000E94390862E1C62ED12C7BE1E72EF12C57
:1005000001E010E020E030E040E250E065E070E023
:10051000C501CC960E94390800E010E02FE130E0E0
:100520004EE150E067E070E0C501825B9F4F0E94A2
:100530001E0801E010E021E230E040E250E068E017
:1005400070E0C501875A9F4F0E941E0861E087E056
:100550000E94E40F61E08EE10E94E40F61E088E018
:100560000E94E40F61E080E20E94E40F60E087E017
:100570000E941D1060E088E00E941D1069E070E09C
:10058000C50189599F4F0E943C0B6AE070E0C5018C
:100590008C599F4F0E943C0B61E08DE00E94E40F5C
:1005A000F501EF58FF4F10826AE272E0C5018659EB
:1005B0009F4F0E948F14F501E059FF4F108226E0F3
:1005C00040E052EC61E070E083E893E00E94131297
:1005D0002A960FB6F894DEBF0FBECDBFDF91CF9144
:1005E0001F910F91FF90EF90DF90CF90BF90AF9051
:1005F00008950F931F93CF93DF938B0164EF71E006
:1006000080E090E00E94400EC0E0D0E0C017D1072B
:1006100004F560E08DE00E941D106AEF70E080E05C
:1006200090E00E94400E61E08DE00E941D106AEF94
:1006300070E080E090E00E94400E60E08DE00E945B
:100640001D106AEF70E080E090E00E94400E21965D
:10065000DDCFDF91CF911F910F9108950C960C94EF
:1006600062084C960C9462088C960C946208CC96A6
:100670000C94620884E592E00E94100888EB92E0F6
:100680000E94710A8BEB92E00E94710A6AE272E0AA
:100690008EEB92E00C9462148EEB92E00C94F413C7
:1006A0002F923F924F925F926F927F928F929F9282
:1006B000AF92BF92CF92DF92EF92FF920F931F9370
:1006C000CF93DF93CDB7DEB76A970FB6F894DEBF4E
:1006D0000FBECDBF8C016AE272E0CE010D960E9482
:1006E000621478012AE6E20EF11C62E070E0C701B4
:1006F0000E944015FC0180818C3409F461C0823570
:1007000009F4DFC0823409F42BC24801F9E58F0EE9
:10071000911C60E070E0C4010E94330858012EE48F
:10072000A20EB11C61E070E0C5010E94330860E0D8
:1007300070E0C4010E942F0860E070E0C5010E94D3
:100740002F0826E030E043E050E0B701CE010196EB
:100750000E945215BE016F5F7F4FCE010D960E9421
:100760007814CE0101960E94F413CE010D960E94DA
:100770009715980129583F4F3C8B2B8B2AE0269FD9
:100780002001279F500C1124EB89FC8980819181E5
:10079000480E591EC12CD12CE12CF12C9801245F5C
:1007A0003F4F3E8B2D8B205F3F4F388F2F8B205F2D
:1007B0003F4F3A8F298F18013CE3230E311CBDC1F6
:1007C0005801F9E5AF0EB11C60E070E0C5010E9470
:1007D000330868012EE4C20ED11C61E070E0C6014E
:1007E0000E94330825E030E043E050E0B701CE013D
:1007F00001960E945215BE016F5F7F4FCE010D968C
:100800000E947814CE0101960E94F413CE010D9639
:100810000E949715780139E7E30EF11C48EE53E08A
:10082000649F9001659F300D749F300D1124B901B4
:10083000882777FD8095982F0E94A31625E33AEF2D
:100840004EE85CE30E942F170E947016F70180802B
:100850009180861A970A2801FCE24F0E511C045C15
:100860001F4F85E0382EF701808191818816990607
:100870000CF0A7C064E670E080E090E00E94400EBB
:10088000C2010E948C083C01C8010E948C08860DA0
:10089000971D97FD01963C0175946794369CC001A5
:1008A000379C900D1124F7019183808364E670E0FA
:1008B000C5010E942F0864E670E0C6010E942F085F
:1008C000D2CF5801F9E5AF0EB11C60E070E0C50170
:1008D0000E94330868012EE4C20ED11C60E070E073
:1008E000C6010E94330825E030E043E050E0B70144
:1008F000CE0101960E945215BE016F5F7F4FCE015F
:100900000D960E947814CE0101960E94F413CE0138
:100910000D960E949715780139E7E30EF11C48EE19
:1009200053E0649F9001659F300D749F300D11243A
:10093000B901882777FD8095982F0E94A31625E39B
:100940003AEF4EE85CE30E942F170E947016F70101
:1009500080809180860E971E2801FCE24F0E511C6C
:10096000045C1F4FA5E03A2EF70180819181881524
:1009700099053CF564E670E080E090E00E94400E4E
:10098000C2010E948C083C01C8010E948C08860D9F
:10099000971D97FD01963C0175946794369CC001A4
:1009A000379C900D1124F7019183808364E670E0F9
:1009B000C5010E942F0864E670E0C6010E942F085E
:1009C000D3CF60E070E0C5010E942F0860E070E0C6
:1009D000C6010E942F08C4C068EC70E080E090E07F
:1009E0000E94400E8D899E890E948C083C018F894F
:1009F000988D0E948C088C01898D9A8D0E948C089C
:100A00006C01C1010E948C087C01C301800F911F01
:100A100097FD019695958795EB89FC899183808355
:100A2000C1010E94CD084AE0B601CE0107960E949E
:100A3000A7146AE072E0CE0101960E946214BE0122
:100A4000695F7F4FCE0101960E941315BC0183E8B8
:100A500093E00E949B13CE0101960E94F413CE01F5
:100A600007960E94F4134AE0B701CE0107960E9450
:100A7000A7146FE072E0CE0101960E946214BE01DD
:100A8000695F7F4FCE0101960E941315BC0183E878
:100A900093E00E949B13CE0101960E94F413CE01B5
:100AA00007960E94F4134AE0B301CE0107960E9414
:100AB000A71464E172E0CE0101960E946214BE01A7
:100AC000695F7F4FCE0101960E941315BC0183E838
:100AD00093E00E949B13CE0101960E94F413CE0175
:100AE00007960E94F4134AE0B801CE0107960E94CF
:100AF000A71469E172E0CE0101960E946214BE0162
:100B0000695F7F4FCE0101960E941315BC0183E8F7
:100B100093E00E949B13CE0101960E94F413CE0134
:100B200007960E94F41362E370E0C5010E942F084B
:100B300062E370E0C4010E942F08EB89FC89808188
:100B40009181841595050CF447CF60E070E0C401F5
:100B50000E942F0860E070E0C5010E942F0804C0C9
:100B6000C12CD12CE12CF12C4AE0B601CE01079624
:100B70000E94A7146EE172E0CE0101960E946214F9
:100B8000BE01695F7F4FCE0101960E941315BC0123
:100B900083E893E00E949B13CE0101960E94F41318
:100BA000CE0107960E94F4134AE0B701CE010796E2
:100BB0000E94A71462E272E0CE0101960E946214C4
:100BC000BE01695F7F4FCE0101960E941315BC01E3
:100BD00083E893E00E949B13CE0101960E94F413D8
:100BE000CE0107960E94F41366E272E083E893E078
:100BF0000E947E1383E893E00E948C11CE010D9633
:100C00000E94F4136A960FB6F894DEBF0FBECDBFF4
:100C1000DF91CF911F910F91FF90EF90DF90CF90D8
:100C2000BF90AF909F908F907F906F905F904F900C
:100C30003F902F9008958F929F92AF92BF92CF9244
:100C4000DF92EF92FF920F931F93CF93DF93CDB775
:100C5000DEB72C970FB6F894DEBF0FBECDBF8C0168
:100C60006AE272E0CE0107960E9462148FEC92E075
:100C70000E94E1086C01580126E7A20EB11CF501A3
:100C8000808198012C583F4F79018823D1F08FEC57
:100C900092E00E94E1084C018FEC92E00E94E10892
:100CA0009601280D391D280F391FC90163E070E036
:100CB0000E94AE1764517109F70171836083F501D9
:100CC0001082F701208131812C193D09F801EE587D
:100CD000FF4F37FD03C03183208302C01182108291
:100CE000608171814AE0CE0101960E94A714BE0185
:100CF0006F5F7F4FCE0107960E947814CE01019658
:100D00000E94F4138B859C858330910519F46BE266
:100D100072E007C0029719F46FE272E002C064E368
:100D200072E0CE0101960E946214BE01695F7F4F9E
:100D3000CE0101960E94131569E272E00E94261509
:100D4000BC0183E893E00E947013CE0101960E94DB
:100D5000F41383E893E00E948C11CE0107960E9461
:100D6000F4132C960FB6F894DEBF0FBECDBFDF9103
:100D7000CF911F910F91FF90EF90DF90CF90BF9098
:100D8000AF909F908F90089563E070E00E94F90209
:100D90006AE372E083E893E00E947E1383E893E0C5
:100DA0000C948C114F925F926F927F928F929F92D0
:100DB000AF92BF92CF92DF92EF92FF920F931F9369
:100DC000CF93DF93CDB7DEB72C970FB6F894DEBF85
:100DD0000FBECDBF8C015C018AE6A80EB11C24E0D9
:100DE00030E043E050E0B501CE0107960E94521575
:100DF000CE0107960E9497150E94A3166B017C01F5
:100E000026E030E045E050E0B501CE0101960E94B9
:100E10005215BE016F5F7F4FCE0107960E94781476
:100E2000CE0101960E94F413CE0107960E949715F9
:100E30000E94A3162B013C0162E070E0C5010E94F4
:100E40004015FC0180818B3251F420E030E044EB0E
:100E500052E4C701B6010E94A4156B017C0120E099
:100E600030E040E151E4C301B2010E942F174B0171
:100E70005C0122E73CE147E05FE3C701B6010E9465
:100E80002F1720E030E84DE654E40E94A4150E949C
:100E90007016C8018C599F4F0E94750B6FE070E06F
:100EA00080E090E00E94400E20E030E842E254E40E
:100EB000C501B4010E94A4150E947016C801895989
:100EC0009F4F0E94750B6FE070E080E090E00E9401
:100ED000400E6FE372E083E893E00E947E1383E8A4
:100EE00093E00E948C11CE0107960E94F4132C9679
:100EF0000FB6F894DEBF0FBECDBFDF91CF911F912B
:100F00000F91FF90EF90DF90CF90BF90AF909F90A8
:100F10008F907F906F905F904F900895CF93DF9365
:100F2000EC0161E070E086599F4F0E944015FC0182
:100F30008081893471F0823539F0843479F4CE01BE
:100F4000DF91CF910C945003CE01DF91CF910C949F
:100F50001B06CE01DF91CF910C94D206CE01DF911A
:100F6000CF910C94C406BF92CF92DF92EF92FF9282
:100F70000F931F93CF93DF93EC018C010F581F4FFA
:100F80007C018AE6E80EF11C6E01E0E7CE0ED11C72
:100F9000BB24B39483E893E00E940111181619064C
:100FA0008CF483E893E00E941A11F8018083682F83
:100FB000C7010E94FF14F80180818A3059F7F601B9
:100FC000B082E8CF64E670E080E090E00E94400EDE
:100FD0008E0100591F4FF80180818823B9F07E01EE
:100FE000FAE6EF0EF11C60E070E0C7010E944015C8
:100FF000FC018081843251F4CE010E948E076AE2A6
:1010000072E0C7010E948F14F8011082DF91CF9126
:101010001F910F91FF90EF90DF90CF90BF900895B8
:10102000FC0181E090E0918380831382128215821B
:101030001482178216821186108608950F931F93CB
:10104000FC01718360835383428335832483178239
:1010500016821286118700871F910F910895FC0157
:1010600080810C94CA0EFC016087718782810C9488
:101070001D10CF92DF92EF92FF920F931F93FC010E
:10108000718360835383428331872087138702876C
:10109000E686F786C486D586148215821682178264
:1010A00060E08C2D0E94E40F61E08C2D0E941D10E9
:1010B00060E08E2D1F910F91FF90EF90DF90CF9009
:1010C0000C94E40FCF93DF93EC018A859B85892BE9
:1010D00051F48E850E9453104C815D816E817F8119
:1010E000019751F40EC08E850E9453104C815D8192
:1010F0006E817F81019729F44F5F5F4F6F4F7F4F64
:1011000004C041505109610971094C835D836E83AC
:101110007F83DF91CF910895CF92DF92EF92FF927C
:10112000CF93DF93EC016C817D818E819F81660F6F
:10113000771F881F991F0E94A3162BED3FE049E4FB
:1011400050E40E942F176B017C016A817B81882704
:1011500077FD8095982F0E94A3169B01AC01C701D3
:10116000B6010E94081628853985232B31F420E02A
:1011700030E04CE852E40E94081620E030E04EEBEC
:1011800052E40E942F170E947016CB01DF91CF917D
:10119000FF90EF90DF90CF900895FC0184819581BE
:1011A0000895CF93DF93EC01842F7B836A834C8374
:1011B0005D8360E00E94E40F19821882DF91CF9175
:1011C0000895CF93DF93EC0120E432E44FE050E048
:1011D00061E08C810E947C102A813B81CB01B901A6
:1011E0000E94AE17CB0179836883DF91CF91089578
:1011F000CF92DF92EF92FF920F931F93CF93DF93E3
:101200006C018B017A01EC01CA52DD4F888187FFA6
:1012100004C0FB011182108223C02CE02C9DC00170
:101220002D9D900D11242881AC01420F511D27FDE9
:101230005A952091D50230E0421753078CF428814B
:10124000AC01420F511D27FD5A959A01FA01EE0F8C
:10125000FF1FE20FF31FE652FD4F208126FD19C04C
:1012600088818F5F88838CE08C9D90018D9D300DEF
:1012700011248881A901480F511D87FD5A9580913D
:10128000D50290E048175907B4F488818C303CF1BE
:1012900012C02881820F911D27FD9A95FC01EE0F47
:1012A000FF1FE80FF91FE652FD4F808160E08F734A
:1012B0000E941D10D5CFF801808191810496803461
:1012C0009C4918F480E49CE904C0F8018081918174
:1012D0000496F701918380838FEF888341C0F801E2
:1012E000808191814881B901640F711D47FD7A9514
:1012F000AB01FB01EE0FFF1FE40FF51FE652FD4FA0
:1013000041815281840F951FF701918380838881E9
:10131000A901480F511D87FD5A95FA01EE0FFF1FD5
:10132000E40FF51FE652FD4F808186FF19C08881CA
:10133000280F311D87FD3A95F901EE0FFF1FE20FCF
:10134000F31FE652FD4F808161E08F73DF91CF91F3
:101350001F910F91FF90EF90DF90CF900C941D1094
:10136000DF91CF911F910F91FF90EF90DF90CF9081
:1013700008951F920F920FB60F9211240BB60F9281
:101380002F933F934F935F936F937F938F939F938D
:10139000AF93BF93EF93FF9348E850E064E870E0A9
:1013A00081E090E00E94F808FF91EF91BF91AF912A
:1013B0009F918F917F916F915F914F913F912F916D
:1013C0000F900BBE0F900FBE0F901F9018951F929D
:1013D0000F920FB60F9211240BB60F922F933F93DB
:1013E0004F935F936F937F938F939F93AF93BF932D
:1013F000EF93FF9348E950E064E970E082E090E009
:101400000E94F808FF91EF91BF91AF919F918F914A
:101410007F916F915F914F913F912F910F900BBEF4
:101420000F900FBE0F901F9018951F920F920FB63E
:101430000F9211240BB60F922F933F934F935F930C
:101440006F937F938F939F93AF93BF93EF93FF938C
:1014500048EA50E064EA70E083E090E00E94F80817
:10146000FF91EF91BF91AF919F918F917F916F917C
:101470005F914F913F912F910F900BBE0F900FBE38
:101480000F901F9018951F920F920FB60F92112474
:101490000BB60F922F933F934F935F936F937F936E
:1014A0008F939F93AF93BF93EF93FF9348E251E0E5
:1014B00064E271E080E090E00E94F808FF91EF9113
:1014C000BF91AF919F918F917F916F915F914F915C
:1014D0003F912F910F900BBE0F900FBE0F901F905A
:1014E00018952091D5022033A0F431E0320F3093CB
:1014F000D502FC012083822F90E0FC01EE0FFF1F3C
:10150000E80FF91FE652FD4F88EB9BE09283818341
:1015100008952FEFFC0120830895DF92EF92FF9250
:101520000F931F93CF93DF93EC01D62E7A0189019D
:101530008881803308F068C061E08D2D0E94E40F3F
:101540008881A82FB0E0FD01EE0FFF1FEA0FFB1FFF
:10155000E652FD4F2D2D2F739081907C922B90831E
:1015600060E272E06E197F0977FF02C06D5F7F4F06
:101570007595679575956795698340E659E0401BB9
:10158000510B57FF02C04D5F5F4F559547955595DD
:1015900047954A836CE00E94A2179CE0899FB001A6
:1015A000112420E030E0A901460F571FFA01EE0F89
:1015B000FF1FE40FF51FE652FD4F908196FD18C006
:1015C0002F5F3F4F2C30310571F790E0813091054E
:1015D00021F51092800082E08093810010928500B6
:1015E00010928400B19A80916F00826080936F00A6
:1015F000888190E0FC01EE0FFF1FE80FF91FE65213
:10160000FD4F8081806480838881DF91CF911F911D
:101610000F91FF90EF90DF9008958230910569F46B
:101620001092900082E080939100109295001092A9
:10163000940088BB80937100DBCF8330910569F4FF
:101640001092A00082E08093A1001092A500109259
:10165000A40089BB80937200CBCF892B49F61092EE
:10166000200182E080932101109225011092240133
:101670008ABB80937300BCCF20E639E040E252E0A1
:101680000C948D0AFC018081803370F5918128E8EB
:1016900030E0291B310997FD3395220F331F220FAC
:1016A000331F621773077CF0928128E532E0291B13
:1016B000310997FD3395220F331F220F331F621715
:1016C00073070CF49B014FB7F89490E0FC01EE0F08
:1016D000FF1FE80FF91FE652FD4F22503109220F7C
:1016E000331F328321834FBF08954F925F926F92D1
:1016F0007F92AF92BF92CF92DF92EF92FF920F93C1
:101700001F93CF93DF93EC01603282E078070CF0F7
:1017100040C077FD06C0653B71052CF064EB70E0BE
:1017200002C060E070E0898128E830E0281B3109C0
:1017300087FD3395220F331F220F331F5901CC240D
:10174000B7FCC094DC2C882777FD8095982F2A81E0
:1017500048E552E0421B510927FD5395440F551FA0
:10176000440F551F2A01662457FC6094762C7F9203
:101770006F925F924F9214EBE12EF12C00E010E09B
:1017800020E030E0A9010E94AD130F900F900F9060
:101790000F90CE01DF91CF911F910F91FF90EF90AD
:1017A000DF90CF90BF90AF907F906F905F904F9001
:1017B0000C94420B883008F06DC0E82FF0E0EE0F7B
:1017C000FF1FE659FC4F7183608390E0FC01319765
:1017D000E730F10590F5EE58FF4F0C940318809117
:1017E00069008C7F842B80936900E89A089580912A
:1017F0006900440F551F440F551F837F842B80932E
:101800006900E99A08958091690074E0440F551FBA
:101810007A95E1F78F7C842B80936900EA9A08958A
:101820008091690066E0440F551F6A95E1F78F7358
:10183000842B80936900EB9A089580916A008C7FD5
:10184000842B80936A00EC9A089580916A00440F7B
:10185000551F440F551F837F842B80936A00ED9A98
:10186000089580916A0024E0440F551F2A95E1F7FE
:101870008F7C842B80936A00EE9A089580916A0091
:1018800096E0440F551F9A95E1F78F73842B809350
:101890006A00EF9A08951F920F920FB60F921124CB
:1018A0000BB60F922F933F934F935F936F937F935A
:1018B0008F939F93AF93BF93EF93FF9380916E03AA
:1018C00090916F03892B29F0E0916E03F0916F03E3
:1018D0001995FF91EF91BF91AF919F918F917F915A
:1018E0006F915F914F913F912F910F900BBE0F9091
:1018F0000FBE0F901F9018951F920F920FB60F9268
:1019000011240BB60F922F933F934F935F936F93D6
:101910007F938F939F93AF93BF93EF93FF938091A8
:10192000700390917103892B29F0E0917003F0917D
:1019300071031995FF91EF91BF91AF919F918F9195
:101940007F916F915F914F913F912F910F900BBEBF
:101950000F900FBE0F901F9018951F920F920FB609
:101960000F9211240BB60F922F933F934F935F93D7
:101970006F937F938F939F93AF93BF93EF93FF9357
:101980008091720390917303892B29F0E091720387
:10199000F09173031995FF91EF91BF91AF919F91D2
:1019A0008F917F916F915F914F913F912F910F9008
:1019B0000BBE0F900FBE0F901F9018951F920F92A5
:1019C0000FB60F9211240BB60F922F933F934F93A4
:1019D0005F936F937F938F939F93AF93BF93EF9397
:1019E000FF938091740390917503892B29F0E09106
:1019F0007403F09175031995FF91EF91BF91AF9129
:101A00009F918F917F916F915F914F913F912F9116
:101A10000F900BBE0F900FBE0F901F9018951F9246
:101A20000F920FB60F9211240BB60F922F933F9384
:101A30004F935F936F937F938F939F93AF93BF93D6
:101A4000EF93FF9380916A0390916B03892B29F0A8
:101A5000E0916A03F0916B031995FF91EF91BF91AB
:101A6000AF919F918F917F916F915F914F913F9136
:101A70002F910F900BBE0F900FBE0F901F901895D7
:101A80001F920F920FB60F9211240BB60F922F9345
:101A90003F934F935F936F937F938F939F93AF93F6
:101AA000BF93EF93FF9380916C0390916D03892B0B
:101AB00029F0E0916C03F0916D031995FF91EF917E
:101AC000BF91AF919F918F917F916F915F914F9156
:101AD0003F912F910F900BBE0F900FBE0F901F9054
:101AE00018951F920F920FB60F9211240BB60F92FA
:101AF0002F933F934F935F936F937F938F939F9316
:101B0000AF93BF93EF93FF93809176039091770308
:101B1000892B29F0E0917603F09177031995FF91D5
:101B2000EF91BF91AF919F918F917F916F915F9155
:101B30004F913F912F910F900BBE0F900FBE0F90C2
:101B40001F9018951F920F920FB60F9211240BB68B
:101B50000F922F933F934F935F936F937F938F9346
:101B60009F93AF93BF93EF93FF93809178039091EE
:101B70007903892B29F0E0917803F0917903199585
:101B8000FF91EF91BF91AF919F918F917F916F9155
:101B90005F914F913F912F910F900BBE0F900FBE11
:101BA0000F901F9018951F920F920FB60F9211244D
:101BB0002F933F938F939F93AF93BF9380917B031A
:101BC00090917C03A0917D03B0917E0330917A03C4
:101BD00023E0230F2D3720F40196A11DB11D05C070
:101BE00026E8230F0296A11DB11D20937A0380934E
:101BF0007B0390937C03A0937D03B0937E0380913D
:101C00007F0390918003A0918103B091820301969C
:101C1000A11DB11D80937F0390938003A093810346
:101C2000B0938203BF91AF919F918F913F912F917C
:101C30000F900FBE0F901F9018953FB7F8948091AA
:101C40007F0390918003A0918103B091820326B518
:101C5000A89B05C02F3F19F00196A11DB11D3FBFE4
:101C60006627782F892F9A2F620F711D811D911D74
:101C700042E0660F771F881F991F4A95D1F7089594
:101C8000CF92DF92EF92FF92CF93DF936B017C01B3
:101C90000E941D0EEB01C114D104E104F10489F08E
:101CA0000E94A2150E941D0E6C1B7D0B683E7340A6
:101CB00090F381E0C81AD108E108F108C851DC4F5F
:101CC000EACFDF91CF91FF90EF90DF90CF90089512
:101CD000789484B5826084BD84B5816084BD85B507
:101CE000826085BD85B5816085BDEEE6F0E08081CE
:101CF00081608083E1E8F0E01082808182608083EF
:101D0000808181608083E0E8F0E080818160808371
:101D1000E1EBF0E0808184608083E0EBF0E08081A3
:101D200081608083E1E9F0E080818260808380814E
:101D300081608083E0E9F0E0808181608083E1EA76
:101D4000F0E0808182608083808181608083E0EA2E
:101D5000F0E0808181608083E1E2F1E08081826057
:101D60008083808181608083E0E2F1E08081816016
:101D70008083EAE7F0E080818460808380818260F4
:101D800080838081816080838081806880831092DD
:101D9000C10008951F93CF93DF93182FEB0161E0EB
:101DA0000E94E40F209711F460E004C0CF3FD105FA
:101DB00039F461E0812FDF91CF911F910C941D10B8
:101DC000E12FF0E0E65EFD4F449150E0FA013197DB
:101DD000E231F10508F09BC0E758FF4F0C9403185F
:101DE00084B5806884BDC7BD97C084B5806284BD5A
:101DF000C8BD92C080918000806880938000D0939D
:101E00008900C093880088C08091800080628093A0
:101E10008000D0938B00C0938A007EC080918000A8
:101E2000886080938000D0938D00C0938C0074C034
:101E30008091B00080688093B000C093B3006CC004
:101E40008091B00080628093B000C093B40064C001
:101E500080919000806880939000D0939900C09307
:101E600098005AC080919000806280939000D09337
:101E70009B00C0939A0050C080919000886080932E
:101E80009000D0939D00C0939C0046C08091A0001C
:101E900080688093A0008091A0008F7B8093A00039
:101EA000D093A900C093A80037C08091A0008062A1
:101EB0008093A000D093AB00C093AA002DC0809166
:101EC000A00088608093A000D093AD00C093AC00C8
:101ED00023C080912001806880932001D093290144
:101EE000C093280119C08091200180628093200155
:101EF000D0932B01C0932A010FC0809120018860EC
:101F000080932001D0932D01C0932C0105C0C038CF
:101F1000D1050CF04ECF48CFDF91CF911F9108959E
:101F200090E0FC013197E231F10508F04CC0E55733
:101F3000FF4F0C940318809180008F7703C080912D
:101F400080008F7D80938000089580918000877F3E
:101F5000F9CF84B58F7702C084B58F7D84BD089595
:101F60008091B0008F7703C08091B0008F7D809307
:101F7000B0000895809190008F7707C08091900005
:101F80008F7D03C080919000877F8093900008959B
:101F90008091A0008F7707C08091A0008F7D03C043
:101FA0008091A000877F8093A000089580912001F8
:101FB0008F7707C0809120018F7D03C08091200121
:101FC000877F809320010895CF93DF9390E0FC01F9
:101FD000E05AFD4F2491FC01EA55FD4F849188237E
:101FE00049F190E0880F991FFC01E05EFC4FA5913C
:101FF000B4918A5F9C4FFC01C591D4919FB7611148
:1020000008C0F8948C91209582238C938881822338
:102010000AC0623051F4F8948C91322F30958323AA
:102020008C938881822B888304C0F8948C91822BB6
:102030008C939FBFDF91CF9108950F931F93CF9300
:10204000DF931F92CDB7DEB7282F30E0F901E65EAF
:10205000FD4F8491F901E05AFD4F1491F901EA55C1
:10206000FD4F04910023C9F0882321F069830E9469
:10207000900F6981E02FF0E0EE0FFF1FEA5FFC4F49
:10208000A591B4919FB7F8948C91611103C01095FC
:10209000812301C0812B8C939FBF0F90DF91CF9143
:1020A0001F910F910895CF93DF93282F30E0F9010E
:1020B000E65EFD4F8491F901E05AFD4FD491F9019C
:1020C000EA55FD4FC491CC2391F081110E94900FED
:1020D000EC2FF0E0EE0FFF1FE451FD4FA591B491FE
:1020E0002C912D2381E090E021F480E002C080E07B
:1020F00090E0DF91CF910895CF92DF92EF92FF921F
:102100000F931F93CF93DF9390E0FC01E05AFD4FB4
:10211000D491FC01EA55FD4F7491611102C0C0E0F9
:1021200001C0CD2FDA01C901BF70672F70E0660FC3
:10213000771F64517D4F00E010E09801FB01E590AE
:10214000F490F70140814D234C131EC068017901C2
:102150004FEFC41AD40AE40AF40A081719072A0729
:102160003B0709F442C097018601E8CF6801790175
:10217000FFEFCF1ADF0AEF0AFF0A081719072A072D
:102180003B0799F197018601FB01E590F490F70177
:1021900040814D234C13EACF801B910BA20BB30B54
:1021A00020E030E0A901FB01E590F490F701F08018
:1021B000FD22FC120AC0281739074A075B07A9F05D
:1021C0002F5F3F4F4F4F5F4FEECFA8E1B0E00E942F
:1021D0000918605F7F4F8F4F9F4F24E0969587953A
:1021E000779567952A95D1F703C060E070E0CB0141
:1021F000DF91CF911F910F91FF90EF90DF90CF90E3
:102200000895FC01818D228D90E0805C9F4F821BA0
:1022100091098F7399270895FC01918D828D9817EC
:1022200031F0828DE80FF11D858D90E008958FEFDC
:102230009FEF0895FC01918D828D981761F0828D3A
:10224000DF01A80FB11D5D968C91928D9F5F9F73EA
:10225000928F90E008958FEF9FEF089585ED92E1C2
:10226000892B41F080E090E0892B21F00E94D5126B
:10227000811125C080E090E0892B41F080E090E062
:10228000892B21F00E94000081111CC080E090E0A9
:10229000892B41F080E090E0892B21F00E94000022
:1022A000811113C080E090E0892BA1F080E090E0E4
:1022B000892B81F00E94000081110AC008950E94BC
:1022C0000000D8CF0E940000E1CF0E940000EACFBA
:1022D0000C9400000895FC01848DDF01A80FB11D4E
:1022E000A35ABF4F2C91848D90E001968F7399274C
:1022F000848FA689B7892C93A089B1898C91806439
:102300008C93938D848D981306C00288F389E02DF9
:1023100080818F7D80830895CF93DF93EC01888D3A
:102320008823C9F0EA89FB89808185FD05C0A889D9
:10233000B9898C9186FD0FC00FB607FCF5CF80815F
:1023400085FFF2CFA889B9898C9185FFEDCFCE01A9
:102350000E946B11E7CFDF91CF910895CF92DF926A
:10236000FF920F931F93CF93DF931F92CDB7DEB7EA
:102370006C01DC015B969C915B975C968C915C9701
:10238000981307C05096ED91FC915197808185FD7F
:1023900032C0F601038D10E00F5F1F4F0F7311273E
:1023A000F02EF601848DF81211C00FB607FCF9CF9C
:1023B000D6015096ED91FC915197808185FFF1CF28
:1023C000C60169830E946B116981EBCF838DE80F91
:1023D000F11DE35AFF4F6083D6015B960C935B9728
:1023E0005296ED91FC91539780818062808381E0C9
:1023F00058968C930DC0D6015696ED91FC91579747
:1024000060835096ED91FC91519780818064808328
:1024100081E090E00F90DF91CF911F910F91FF909D
:10242000DF90CF900895BF92CF92DF92EF92FF920C
:10243000CF93DF93EC016A017B01B22EE889F98921
:1024400082E08083411581EE580761057105A1F096
:1024500060E079E08DE390E0A70196010E94C21749
:1024600021503109410951095695479537952795CE
:10247000211580E1380798F0E889F989108260E831
:1024800074E88EE190E0A70196010E94C2172150E6
:102490003109410951095695479537952795EC859E
:1024A000FD853083EE85FF852083188EEC89FD89BC
:1024B000B082EA89FB89808180618083EA89FB8917
:1024C000808188608083EA89FB898081806880833D
:1024D000EA89FB8980818F7D8083DF91CF91FF9096
:1024E000EF90DF90CF90BF9008951F920F920FB69C
:1024F0000F9211240BB60F922F938F939F93EF930C
:10250000FF93E0919303F09194038081E09199030C
:10251000F0919A0382FD12C0908180919C038F5F9D
:102520008F7320919D03821751F0E0919C03F0E09E
:10253000ED57FC4F958F80939C0301C08081FF91E4
:10254000EF919F918F912F910F900BBE0F900FBE27
:102550000F901F9018951F920F920FB60F92112493
:102560000BB60F922F933F934F935F936F937F938D
:102570008F939F93AF93BF93EF93FF9383E893E081
:102580000E946B11FF91EF91BF91AF919F918F913D
:102590007F916F915F914F913F912F910F900BBE63
:1025A0000F900FBE0F901F90189583E893E00E9444
:1025B000011121E0892B09F420E0822F0895109267
:1025C00086031092850388EE93E0A0E0B0E080934C
:1025D000870390938803A0938903B0938A0388E4C8
:1025E00092E0909384038093830385EC90E0909332
:1025F000900380938F0384EC90E0909392038093F8
:10260000910380EC90E0909394038093930381EC8A
:1026100090E0909396038093950382EC90E09093E2
:1026200098038093970386EC90E090939A038093AD
:10263000990310929C0310929D0310929E03109296
:102640009F03089508950E94680E0E9422130E941D
:10265000E301CEE2D1E10E9403022097E1F30E9460
:102660002E11F9CFCF92DF92EF92FF920F931F932B
:10267000CF93DF936C017A01EB01E60EF71E00E0C9
:1026800010E0CE15DF0561F06991D601ED91FC9166
:102690000190F081E02DC6011995080F191FF1CFA7
:1026A000C801DF91CF911F910F91FF90EF90DF90C4
:1026B000CF9008956115710581F0DB010D90002028
:1026C000E9F7AD0141505109461B570BDC01ED9173
:1026D000FC910280F381E02D199480E090E0089550
:1026E000DC01ED91FC91DB0114964D915C91159705
:1026F0006D917C910280F381E02D19940C945A1312
:10270000DC01ED91FC910190F081E02D19940F9383
:102710001F93CF93DF93EC016DE00E9480138C0137
:102720006AE0CE010E948013800F911FDF91CF914C
:102730001F910F9108950F931F93CF93DF93EC0197
:102740000E9470138C01CE010E948713800F911F8D
:10275000DF91CF911F910F9108954F925F926F92E9
:102760007F92AF92BF92CF92DF92EF92FF920F9340
:102770001F93CF93DF93CDB7DEB729013A01621BD8
:10278000730B840B950B2A893B894C895D892A1927
:102790003B094C095D092A8B3B8B4C8B5D8B9B0164
:1027A000AC016A897B898C899D890E949217E41803
:1027B000F50806091709A80197010E94E4172A0DD8
:1027C0003B1D4C1D5D1DCA01B901DF91CF911F91C9
:1027D0000F91FF90EF90DF90CF90BF90AF907F90E0
:1027E0006F905F904F900895FC01808191810C94CF
:1027F000D318CF93DF93EC0188819981009711F072
:102800000E94D318198218821D821C821B821A8290
:10281000DF91CF9108950F931F93CF93DF93EC0136
:102820008B016F5F7F4F888199810E9462190097A9
:1028300031F0998388831B830A8381E001C080E0A3
:10284000DF91CF911F910F910895CF93DF93EC010A
:1028500088819981892B29F08A819B818617970726
:1028600060F4CE010E940B14882341F08C819D817D
:10287000892B19F4E881F981108281E0DF91CF91F1
:102880000895EF92FF920F931F93CF93DF93EC0184
:102890007B018A01BA010E942514811104C0CE0176
:1028A0000E94F91307C01D830C83B70188819981A9
:1028B0000E947B1ACE01DF91CF911F910F91FF9063
:1028C000EF900895FC01118210821382128215820A
:1028D00014826115710559F0FB0101900020E9F7A0
:1028E000AF0141505109461B570B0C9441140895F8
:1028F000CF93DF93EC01FB018617970761F06081AE
:1029000071816115710529F0448155810E9441143E
:1029100002C00E94F913CE01DF91CF910895CF93A9
:10292000DF93EC016115710561F0FB01019000205E
:10293000E9F7AF0141505109461B570B0E94411462
:1029400002C00E94F913CE01DF91CF9108950F9339
:102950001F93CF93DF93CDB7DEB762970FB6F8948E
:10296000DEBF0FBECDBF8C01CB01F80111821082FA
:10297000138212821582148250E0BE016F5F7F4F76
:102980000E94821ABE016F5F7F4FC8010E948F14A0
:1029900062960FB6F894DEBF0FBECDBFDF91CF9128
:1029A0001F910F910895EF92FF920F931F93CF9372
:1029B000DF93EC017B010C811D816115710511F420
:1029C00080E016C04115510591F0040F151FB801A4
:1029D0000E9425148823A1F3288139818C819D814F
:1029E000B701820F931F0E947B1A1D830C8381E025
:1029F000DF91CF911F910F91FF90EF900895CF93AA
:102A0000DF931F921F92CDB7DEB769831A8241E030
:102A100050E0BE016F5F7F4F0E94D3140F900F9064
:102A2000DF91CF910895CF93DF93EC01FB014481B7
:102A30005581608171810E94D314811103C0CE0140
:102A40000E94F913CE01DF91CF910895CF93DF93C8
:102A5000EC016115710569F0FB0101900020E9F7B7
:102A6000AF0141505109461B570B0E94D3148111ED
:102A700003C0CE010E94F913CE01DF91CF910895DA
:102A8000FC01848195816817790720F48081918108
:102A9000009729F41092200480E294E00895860FB4
:102AA000971F0895BF92CF92DF92EF92FF920F93FC
:102AB0001F93CF93DF936C017B01EA0189012417F7
:102AC000350720F48D2FE901042F182F6AE272E0F8
:102AD000C6010E946214D70114968D919C9115979E
:102AE000C817D907C8F48017910708F48C01D701DB
:102AF000ED91FC911197E00FF11FB08010826D9164
:102B00007C916C0F7D1FC6010E948F14D701ED913F
:102B1000FC91E00FF11FB082C601DF91CF911F91B0
:102B20000F91FF90EF90DF90CF90BF900895FC0140
:102B300080819181009711F00C944B1A60E070E055
:102B4000CB01089508955058BB27AA270ED04DC138
:102B50003ED130F043D120F031F49F3F11F41EF408
:102B600033C10EF4E095E7FB29C1E92F4FD180F383
:102B7000BA17620773078407950718F071F49EF57A
:102B800067C10EF4E0950B2EBA2FA02D0B01B901F1
:102B900090010C01CA01A0011124FF27591B99F0D3
:102BA000593F50F4503E68F11A16F040A22F232FDF
:102BB000342F4427585FF3CF469537952795A7952F
:102BC000F0405395C9F77EF41F16BA0B620B730BD6
:102BD000840BBAF09150A1F0FF0FBB1F661F771F47
:102BE000881FC2F70EC0BA0F621F731F841F48F4FC
:102BF000879577956795B795F7959E3F08F0B3CF82
:102C00009395880F08F09927EE0F9795879508956B
:102C10000CD0EBC0E3D040F0DAD030F021F45F3FCD
:102C200019F0CCC0511115C1CFC0F0D098F3992341
:102C3000C9F35523B1F3951B550BBB27AA27621780
:102C40007307840738F09F5F5F4F220F331F441FC5
:102C5000AA1FA9F333D00E2E3AF0E0E830D09150FD
:102C60005040E695001CCAF729D0FE2F27D0660FEA
:102C7000771F881FBB1F261737074807AB07B0E829
:102C800009F0BB0B802DBF01FF2793585F4F2AF03F
:102C90009E3F510568F092C0DCC05F3FECF3983E68
:102CA000DCF3869577956795B795F7959F5FC9F79C
:102CB000880F911D9695879597F90895E1E0660F25
:102CC000771F881FBB1F621773078407BA0720F09E
:102CD000621B730B840BBA0BEE1F88F7E095089507
:102CE00004D06894B111B5C0089598D088F09F576A
:102CF00090F0B92F9927B751A0F0D1F0660F771F48
:102D0000881F991F1AF0BA95C9F712C0B13081F027
:102D10009FD0B1E008959CC0672F782F8827B85FB7
:102D200039F0B93FCCF3869577956795B395D9F788
:102D30003EF490958095709561957F4F8F4F9F4F92
:102D40000895E89409C097FB3EF49095809570959E
:102D500061957F4F8F4F9F4F9923A9F0F92F96E9E7
:102D6000BB279395F695879577956795B795F1115C
:102D7000F8CFFAF4BB0F11F460FF1BC06F5F7F4FF9
:102D80008F4F9F4F16C0882311F096E911C077230B
:102D900021F09EE8872F762F05C0662371F096E814
:102DA000862F70E060E02AF09A95660F771F881FE3
:102DB000DAF7880F9695879597F9089597F99F67A1
:102DC00080E870E060E008959FEF80EC08950024B3
:102DD0000A941616170618060906089500240A9480
:102DE00012161306140605060895092E0394000C06
:102DF00011F4882352F0BB0F40F4BF2B11F460FF95
:102E000004C06F5F7F4F8F4F9F4F089557FD9058BD
:102E1000440F551F59F05F3F71F04795880F97FB9E
:102E2000991F61F09F3F79F0879508951216130658
:102E30001406551FF2CF4695F1DF08C01616170687
:102E40001806991FF1CF86957105610508940895BC
:102E5000E894BB2766277727CB0197F908950BD015
:102E6000C4CFB5DF28F0BADF18F0952309F0A6CF5C
:102E7000ABCF1124EECFCADFA0F3959FD1F3950F0E
:102E800050E0551F629FF001729FBB27F00DB11DEE
:102E9000639FAA27F00DB11DAA1F649F6627B00D7E
:102EA000A11D661F829F2227B00DA11D621F739F67
:102EB000B00DA11D621F839FA00D611D221F749F75
:102EC0003327A00D611D231F849F600D211D822FBC
:102ED000762F6A2F11249F5750408AF0E1F0882303
:102EE0004AF0EE0FFF1FBB1F661F771F881F915010
:102EF0005040A9F79E3F510570F060CFAACF5F3FC9
:102F0000ECF3983EDCF3869577956795B795F79542
:102F1000E7959F5FC1F7FE2B880F911D96958795CA
:102F200097F90895DB018F939F930E940918BF9131
:102F3000AF91A29F800D911DA39F900DB29F900D08
:102F400011240895991B79E004C0991F961708F081
:102F5000961B881F7A95C9F78095089597FB072ED1
:102F600016F4009407D077FD09D00E94181807FCCA
:102F700005D03EF4909581959F4F08957095619589
:102F80007F4F0895A1E21A2EAA1BBB1BFD010DC0A5
:102F9000AA1FBB1FEE1FFF1FA217B307E407F50709
:102FA00020F0A21BB30BE40BF50B661F771F881FE5
:102FB000991F1A9469F760957095809590959B017B
:102FC000AC01BD01CF010895052E97FB1EF40094BE
:102FD0000E94FB1757FD07D00E94C21707FC03D0C1
:102FE0004EF40C94FB1750954095309521953F4F2A
:102FF0004F4F5F4F089590958095709561957F4FE5
:103000008F4F9F4F0895EE0FFF1F0590F491E02D15
:1030100019940E942C18A59F900DB49F900DA49F09
:10302000800D911D112408950790F691E02D1994BB
:10303000AA1BBB1B51E107C0AA1FBB1FA617B707DE
:1030400010F0A61BB70B881F991F5A95A9F78095FA
:103050009095BC01CD010895A29FB001B39FC0011E
:10306000A39F700D811D1124911DB29F700D811DB4
:103070001124911D0895CF93DF938230910510F4B0
:1030800082E090E0E0912304F091240420E030E01D
:10309000A0E0B0E0309739F14081518148175907DD
:1030A000B8F04817590771F482819381109729F07D
:1030B00013969C938E9312972CC090932404809324
:1030C000230427C02115310531F04217530718F0AA
:1030D000A901DB0101C0EF019A01BD01DF010280FE
:1030E000F381E02DD7CF21153105F9F0281B390BDD
:1030F0002430310580F48A819B816115710521F0AE
:10310000FB019383828304C090932404809323045F
:10311000FE01329644C0FE01E20FF31F81939193AA
:1031200022503109398328833AC0209121043091FB
:103130002204232B41F420910202309103023093A8
:1031400022042093210420910002309101022115D4
:10315000310541F42DB73EB740910402509105026C
:10316000241B350BE0912104F0912204E217F307B0
:10317000A0F42E1B3F0B2817390778F0AC014E5FE7
:103180005F4F2417350748F04E0F5F1F50932204FE
:10319000409321048193919302C0E0E0F0E0CF01DD
:1031A000DF91CF910895CF93DF93009709F487C003
:1031B000FC01329713821282C0912304D09124041F
:1031C000209781F420813181280F391F80912104BB
:1031D000909122048217930779F5F0932204E093EB
:1031E00021046DC0DE0120E030E0AE17BF0750F4CF
:1031F00012964D915C9113979D014115510509F16E
:10320000DA01F3CFB383A28340815181840F951FEC
:103210008A179B0771F48D919C911197840F951FCC
:1032200002969183808312968D919C91139793833C
:1032300082832115310529F4F0932404E0932304BB
:103240003EC0D9011396FC93EE9312974D915D9178
:10325000A40FB51FEA17FB0779F480819181840FD1
:10326000951F0296D90111969C938E93828193812A
:1032700013969C938E931297E0E0F0E08A819B81F5
:10328000009719F0FE01EC01F9CFCE0102962881DA
:103290003981820F931F2091210430912204281735
:1032A000390769F4309729F410922404109223040A
:1032B00002C013821282D0932204C0932104DF91B2
:1032C000CF9108956F927F928F929F92AF92BF920B
:1032D000CF92DF92EF92FF920F931F93CF93DF93E2
:1032E000EC01CB01209781F4DF91CF911F910F91D9
:1032F000FF90EF90DF90CF90BF90AF909F908F9016
:103300007F906F900C943B18FE01E60FF71F9E0113
:1033100022503109E217F30708F4ACC0D9010D912E
:103320001C91119706171707B8F00530110508F41E
:103330009FC0A801445051094617570708F498C088
:1033400002501109061B170B019311936D937C9387
:10335000CF010E94D3188CC05B01A01AB10A4E01A4
:10336000800E911EA0912304B0912404612C712C35
:1033700060E070E0109709F449C0A815B905C9F5D7
:10338000ED90FC901197670142E0C40ED11CCA1465
:10339000DB0478F147018A189B08640142E0C40EFF
:1033A000D11C1296BC9012971396AC91B5E0CB1637
:1033B000D10440F0B282A38391828082D9018D939F
:1033C0009C9309C00E5F1F4F0E0D1F1DF901118345
:1033D0000083EB2DFA2F6115710531F0DB01139697
:1033E000FC93EE93129744C0F0932404E0932304DB
:1033F0003FC06D917C9111976616770608F43B01EA
:10340000BD0112960D90BC91A02DB4CF6091210406
:103410007091220468157905E9F468167906D0F4EC
:1034200040910002509101024115510541F44DB700
:103430005EB76091040270910502461B570BE417BA
:10344000F507C0F4F0932204E0932104F90191837D
:1034500080830EC00E943B187C01009759F0A801A0
:10346000BE010E94721ACE010E94D318C70104C087
:10347000CE0102C080E090E0DF91CF911F910F91CB
:10348000FF90EF90DF90CF90BF90AF909F908F9084
:103490007F906F9008951F93FC0199278827BC01A6
:1034A000E89411911032E9F3193010F01E30C8F38E
:1034B0001B3251F01D3249F4689406C00E94981ADC
:1034C000610F711D811D911D119110531A30B0F3C0
:1034D0003EF490958095709561957F4F8F4F9F4FEB
:1034E0001F910895FB01DC0102C001900D92415033
:1034F0005040D8F70895FB01DC0101900D920020A7
:10350000E1F708954532510520F4423010F00C9453
:103510008D1AFB011082CB010895BB274A3031F48C
:10352000992322F4BDE2909581959F4F0C94AE1A99
:10353000592F482F372F262F660F771F881F991F67
:10354000660F771F881F991F620F731F841F951FB7
:10355000660F771F881F991F0895BB27FB0155270A
:10356000AA27880F991FAA1FA41710F0A41B8395E0
:103570005051B9F7A05DAA3308F0A95DA193009757
:1035800079F7B111B1931192CB010C94C71ADC01F8
:10359000FC01672F71917723E1F7329704C07C918A
:1035A0006D9370836291AE17BF07C8F3089513E05F
:1035B000CEE3D3E000E006C022970109FE010BBF75
:1035C0000E941418C034D10780E00807A9F7F894C6
:0235D000FFCF2B
:1035D20000002504800001000000464C443A0046E9
:1035E20052443A00424C443A004252443A00464C59
:1035F2003A0046523A002444500A00245250002411
:10360200525030002452503030002453500A0024CB
:1036120049500A0000000000AE11321301111A11C4
:043622000C118C11EA
:00000001FF
