:100000000C941D020C94C2140C94F3140C9424153B
:100010000C9455150C9486150C94B7150C94E81592
:100020000C9419160C944E020C944E020C944E0231
:100030000C944E020C944E020C944E020C944E0200
:100040000C944E020C9430120C944E020C944E02FE
:100050000C944E020C944E020C944E020C944A16D0
:100060000C944E020C94F81A0C942E1B0C944E0215
:100070000C944E020C944E020C944E020C944E02C0
:100080000C945E120C944E020C944E020C944E0290
:100090000C944E020C944E020C944E020C944E02A0
:1000A0000C944E020C944E020C948C120C944E0242
:1000B0000C944E020C944E020C944E020C94BA1204
:1000C0000C944E020C944E020C944E020C944E0270
:1000D0000C944E020C944E020C944E020C944E0260
:1000E0000C944E029C1466146E147A148714A8148F
:1000F000B514731778177D17871791170A189B1770
:10010000A317AB17B517BF17C917D817E2170A18E7
:10011000EC17F61700182C182F181E18221828187C
:100120006618331837183D18411845184B184F18E2
:100130005318661859185D1861180C9459180C94C6
:100140000F1A0C9487140C947D170C94B5140C940E
:10015000E2170C942C180C947A140C94B5170C9488
:1001600058020C9454020C9450020C94D8170C941E
:100170009C140C941E180C94C9170C9441180C94E0
:100180005D180C94F6170C949D190C9484190C941A
:100190005C020C942F180C9453180C9433180C9484
:1001A0004B180C940A180C94BF170C94B1190C94AA
:1001B000581B0C9422180C94AB170C9487170C94B2
:1001C000EC170C944F180C94B51B0C9428180C9435
:1001D00000180C9466180C9445180C9491170C9404
:1001E00066140C948F190C947E040C94311A0C94A0
:1001F00073170C94A3170C94621B0C9461180C9445
:100200006C040C9437180C9478170C946E140C949E
:100210009B170C94A8140C943D1800000A0B0209BB
:100220000C0D0E0807030401000000000000000090
:1002300000000000000000000000000000000000BE
:10024000000000000000121110000000000000007B
:10025000000000000000000000000000000000009E
:1002600001021020200808102040102040800201C8
:1002700002010804020101020408102040808040AD
:1002800020100804020180040201804020100804AC
:10029000020108040201010204081020408001024A
:1002A0000408102040800505050507050808080812
:1002B000020202020A0A08080404040401010101FE
:1002C00001010101030303030303030304070707F9
:1002D0000C0C0C0C0C0C0C0C02020202060606069E
:1002E000060606060B0B0B0B0B0B0B0B000020007E
:1002F0002300260029002C002F00320000010000FE
:1003000003010601090100002200250028002B003E
:100310002E003100340002010000050108010B012C
:1003200000002100240027002A002D0030003300A7
:1003300001010000040107010A0100407A10F35A8C
:1003400000A0724E18090010A5D4E80000E8764815
:10035000170000E40B54020000CA9A3B000000E1C1
:10036000F505000080969800000040420F00000054
:10037000A08601000000102700000000E803000034
:1003800000006400000000000A00000000000100FE
:10039000000000002C76D888DC674F0823DFC1DF1F
:1003A000AE59E1B1B796E5E3E453C63AE651997622
:1003B00096E8E6C28426EB898C9B62ED407C6FFC5C
:1003C000EFBC9C9F40F2BAA56FA5F490055A2AF79E
:1003D0005C936B6CF9676DC11BFCE0E40D47FEF5A7
:1003E00020E6B500D0ED902E03009435770500800F
:1003F000841E080000204E0A000000C80C3333336E
:10040000330F986E12831141EF8D2114893BE6550D
:1004100016CFFEE6DB18D1844B381BF77C1D901DF0
:10042000A4BBE424203284725E228100C9F124EC52
:10043000A1E53D276C04621B7E0411241FBECFEF93
:10044000D1E2DEBFCDBF00E00CBF12E0A0E0B2E021
:10045000E2EFFCE400E00BBF02C007900D92A8356C
:10046000B107D9F724E0A8E5B2E001C01D92A3339B
:10047000B207E1F714E0C8E3D4E000E006C0229739
:100480000109FE010BBF0E942421C433D10780E083
:100490000807A9F70E94A61B0C9467260C9400007D
:1004A00088E592E00C945F0488E592E00C94620485
:1004B00088E592E00C94650488E592E00C94680469
:1004C00088E592E00E94840242E050E060E572E03C
:1004D00082E00E94511442E050E064E572E083E063
:1004E0000E94511442E050E068E572E085E00E940D
:1004F000511442E050E06CE572E084E00C94511439
:1005000088E592E00C94050DAF92BF92CF92DF92F6
:10051000EF92FF920F931F93CF93DF93CDB7DEB788
:100520002E970FB6F894DEBF0FBECDBF5C01CE0193
:1005300001960E94620D8EE0FE013196D501019078
:100540000D928A95E1F7F501EC5AFF4F1182108266
:1005500044E050E06AE370E08DED92E00E944811C3
:10056000F501E658FF4F11821082329611821082F7
:10057000329681E080833196118210823296108209
:1005800011821282138285E1C82ED12C98E1E92EC6
:10059000F12C00E010E021E030E040E058E062E0C3
:1005A00070E0C50140960E94C10D24E1C22ED12CFD
:1005B00039E1E32EF12C01E010E021E030E040E0F1
:1005C00058E063E070E0C50181960E94C10D43E1EF
:1005D000C42ED12C5BE1E52EF12C00E010E020E0F0
:1005E00030E040E250E064E070E0C501C2960E9455
:1005F000C10D62E1C62ED12C7AE1E72EF12C01E08B
:1006000010E020E030E040E250E065E070E0C5013D
:100610008D5B9F4F0E94C10D00E010E02FE130E0A4
:100620004EE150E067E070E0C5018A5A9F4F0E949A
:10063000A60D01E010E021E230E040E250E068E089
:1006400070E0C5018F599F4F0E94A60D61E087E0C1
:100650000E94671861E08EE10E94671861E088E0FF
:100660000E94671861E080E20E94671860E087E0FE
:100670000E94A01860E088E00E94A01869E070E085
:10068000C50181599F4F0E94B3136AE070E0C50114
:1006900084599F4F0E94B31361E08DE00E94671858
:1006A000F501E758FF4F10826DE272E0C5018E58E8
:1006B0009F4F0E94241DF501E858FF4F108226E04D
:1006C00040E052EC61E070E081E993E00E94961A0C
:1006D0002E960FB6F894DEBF0FBECDBFDF91CF913F
:1006E0001F910F91FF90EF90DF90CF90BF90AF9050
:1006F00008950F931F93CF93DF938B0164EF71E005
:1007000080E090E00E94C316C0E0D0E0C017D1079F
:1007100004F560E08DE00E94A0186AEF70E080E0D0
:1007200090E00E94C31661E08DE00E94A0186AEF7D
:1007300070E080E090E00E94C31660E08DE00E94CF
:10074000A0186AEF70E080E090E00E94C316219646
:10075000DDCFDF91CF911F910F9108952F923F929E
:100760004F925F926F927F928F929F92AF92BF92C1
:10077000CF92DF92EF92FF920F931F93CF93DF936D
:10078000EC017C0181E2E80EF11CC7010E945A0EC7
:100790006C018E01005F1F4FC8010E945A0E1C01A0
:1007A0004E0181E6880E911C60E070E0C4010E9459
:1007B000BB0D5E0186E5A80EB11C61E070E0C501CD
:1007C0000E94BB0D66E970E0C4010E94B70D66E9A6
:1007D00070E0C5010E94B70DC8010E94190E8C017E
:1007E000C7010E94190E7C01CE010E947A0DCE0134
:1007F0000E94820DB701CE010E94920DB801CE0178
:100800000E948A0D0E94A0164B015C01CE010E943D
:10081000A00D2B013C01B501A401CE010E949A0D4F
:10082000C501B40164197509860997090E94891FD9
:1008300020E030E04AE754E40E94F01E0E94581F76
:100840000E948B1F9B01AC0160E070E0CB010E9415
:10085000F01E9B01AC010E94881E20E030E040E0C9
:100860005FE30E943F202AE037ED43E25CE30E9411
:100870003B2018160CF4B8CFB601CE018D5B9F4F0C
:100880000E94650EB101CE01C2960E94650E6AE01B
:1008900072E081E993E0DF91CF911F910F91FF907A
:1008A000EF90DF90CF90BF90AF909F908F907F9010
:1008B0006F905F904F903F902F900C94301C40961B
:1008C0000C94EC0D81960C94EC0DC2960C94EC0DEE
:1008D0008D5B9F4F0C94EC0D88E592E00E94620DB9
:1008E00084EC92E00E94E81287EC92E00E94E81209
:1008F0006DE272E08AEC92E00C94F71C8AEC92E0D4
:100900000C94891C2F923F924F925F926F927F922C
:100910008F929F92AF92BF92CF92DF92EF92FF920F
:100920000F931F93CF93DF93CDB7DEB7CE5AD10984
:100930000FB6F894DEBF0FBECDBF1C016DE272E0B2
:10094000CE0187589F4F0E94F71C3E012FE8620E90
:10095000711CF30110821182128213829E012557AD
:100960003F4FCD56DF4F39832883C359D040C557F9
:10097000DF4F188219821A821B82CB58D040AE01F9
:1009800049575F4FCB56DF4F59834883C559D040F5
:10099000C957DF4F188219821A821B82C758D0406C
:1009A0002E0153E8450E511CF20110821182128271
:1009B000138280E090E0A6E9B3E4C158DF4F88835A
:1009C0009983AA83BB83CF57D04091012E583F4FC4
:1009D000C956DF4F39832883C759D04062E070E0A1
:1009E000C9010E94241EFC0180818C3439F08235BB
:1009F00009F479C1823409F0A9C340C69101205F8E
:100A00003F4FC356DF4F39832883CD59D040C901AA
:100A10000E94620EA1014F5D5F4FC556DF4F5983A3
:100A20004883CB59D040CA010E94620E410151E671
:100A3000850E911C61E070E0C4010E94BB0DC101F4
:100A40008A5A9F4FC756DF4F99838883C959D04030
:100A500061E070E00E94BB0D26E030E043E050E032
:100A6000C956DF4F68817981C759D0408E010F5F29
:100A70001F4FC8010E94361EB801CE0187589F4FF4
:100A80000E940D1DC8010E94891CCE0187589F4FEE
:100A90000E947B1E0E948B1F5B016C01F101EF57CE
:100AA000FF4FC956DF4FF983E883C759D04020E094
:100AB00030E04AE754E40E943F2025E33AEF4EE855
:100AC0005CE30E943F209B01AC01C956DF4FE881E7
:100AD000F981C759D04060817181828193810E94E0
:100AE000871E2B013C017E01FAE3EF0EF11C22E090
:100AF000B601A501C7010E94681D6FE072E0C80140
:100B00000E94F71CB701C8010E94D81DBC0181E9F1
:100B100093E00E941E1CC8010E94891CC7010E940C
:100B2000891C22E0B301A201C7010E94681D64E193
:100B300072E0C8010E94F71CB701C8010E94D81DCD
:100B4000BC0181E993E00E941E1CC8010E94891C1F
:100B5000C7010E94891C91012E5C3F4F5901A101E0
:100B60004D5B5F4F6A01A3019201C956DF4FE881D7
:100B7000F981C759D04060817181828193810E943F
:100B80003B2018160CF021C269E170E080E090E093
:100B90000E94C316C5010E94190EBC01C601C355AF
:100BA000DF4F6883CD5AD040C255DF4F7883CE5A8D
:100BB000D0400E94190E1C014AE0C355DF4F6881E6
:100BC000CD5AD040C255DF4F7881CE5AD040C701B0
:100BD0000E943C1D69E172E0C8010E94F71CB70148
:100BE000C8010E94D81DBC0181E993E00E941E1C2F
:100BF000C8010E94891CC7010E94891C4AE0B101FA
:100C0000C7010E943C1D6EE172E0C8010E94F71C02
:100C1000B701C8010E94D81DBC0181E993E00E9480
:100C20001E1CC8010E94891CC7010E94891CC501A5
:100C30000E94190E1C01C6010E94190EB101681B09
:100C4000790B882777FD8095982F0E948B1F20E0D5
:100C500030E040E05FE30E943F2020E030E04AE7E0
:100C600054E40E943F2020E030E04CE553E40E9431
:100C7000F01E2DEC3CEC4CE050E40E94F01EAB0169
:100C8000BC01C956DF4FE881F981C759D040408384
:100C900051836283738322E0C7010E94681D60E173
:100CA00072E0C8010E94F71CB701C8010E94D81D5C
:100CB000BC0181E993E00E941E1CC8010E94891CAE
:100CC000C7010E94891C6FEF70E0C4010E94B70D3C
:100CD0006FEF70E0C756DF4F88819981C959D040C6
:100CE0000E94B70D40CF9101205F3F4FC356DF4FA9
:100CF00039832883CD59D040C9010E94620EA101D9
:100D00004F5D5F4FC556DF4F59834883CB59D04065
:100D1000CA010E94620E410151E6850E911C60E0FD
:100D200070E0C4010E94BB0DC1018A5A9F4FC75693
:100D3000DF4F99838883C959D04060E070E00E94FA
:100D4000BB0D26E030E043E050E0C956DF4F68813C
:100D50007981C759D0408E010F5F1F4FC8010E9493
:100D6000361EB801CE0187589F4F0E940D1DC80145
:100D70000E94891CCE0187589F4F0E947B1E0E94B3
:100D80008B1F5B016C01F101EF57FF4FC956DF4F1D
:100D9000F983E883C759D04020E030E04AE754E4C3
:100DA0000E943F2025E33AEF4EE85CE30E943F209B
:100DB000C956DF4FE881F981C759D0402081318180
:100DC000428153810E94881E2B013C017E01FAE37F
:100DD000EF0EF11C22E0B601A501C7010E94681DBB
:100DE0006FE072E0C8010E94F71CB701C8010E94C1
:100DF000D81DBC0181E993E00E941E1CC8010E941D
:100E0000891CC7010E94891C22E0B301A201C7010D
:100E10000E94681D64E172E0C8010E94F71CB701DE
:100E2000C8010E94D81DBC0181E993E00E941E1CEC
:100E3000C8010E94891CC7010E94891C91012E5C77
:100E40003F4F5901A1014D5B5F4F6A01A301920120
:100E5000C956DF4FE881F981C759D040608171815F
:100E6000828193810E94EC1E87FFAFC069E170E030
:100E700080E090E00E94C316C5010E94190EBC01DB
:100E8000C601C355DF4F6883CD5AD040C255DF4FEE
:100E90007883CE5AD0400E94190E1C014AE0C355F7
:100EA000DF4F6881CD5AD040C255DF4F7881CE5A8E
:100EB000D040C7010E943C1D69E172E0C8010E9458
:100EC000F71CB701C8010E94D81DBC0181E993E05D
:100ED0000E941E1CC8010E94891CC7010E94891C17
:100EE0004AE0B101C7010E943C1D6EE172E0C801F9
:100EF0000E94F71CB701C8010E94D81DBC0181E9FE
:100F000093E00E941E1CC8010E94891CC7010E9418
:100F1000891CC5010E94190E1C01C6010E94190EF0
:100F2000B101681B790B882777FD8095982F0E9467
:100F30008B1F20E030E040E05FE30E943F2020E094
:100F400030E04AE754E40E943F2020E030E04CE5E6
:100F500053E40E94F01E2DEC3CEC4CE050E40E9467
:100F6000F01EAB01BC01C956DF4FE881F981C759BA
:100F7000D040408351836283738322E0C7010E9483
:100F8000681D60E172E0C8010E94F71CB701C8014A
:100F90000E94D81DBC0181E993E00E941E1CC8017B
:100FA0000E94891CC7010E94891C6FEF70E0C40178
:100FB0000E94B70D6FEF70E0C756DF4F88819981AF
:100FC000C959D0400E94B70D41CF60E070E0C40124
:100FD0000E94B70D60E070E0C756DF4F88819981AD
:100FE000C959D0400E94B70D68EC70E080E090E0F5
:100FF0000E94C316C5010E94190E7C01C6010E9401
:10100000190E8C014AE0B701CE01CA960E943C1D20
:1010100069E172E0CE0101960E94F71CBE01665C98
:101020007F4FCE0101960E94D81DBC0181E993E05B
:101030000E941E1CCE0101960E94891CCE01CA96F8
:101040000E94891C4AE0B801CE01CA960E943C1D4C
:101050006EE172E0CE0101960E94F71CBE01665C53
:101060007F4FCE0101960E94D81DBC0181E993E01B
:101070000E941E1CCE0101960E94891CCE01CA96B8
:101080000E94891CC5010E94190E8C01C6010E9494
:10109000190EB801681B790B882777FD8095982F6A
:1010A0000E948B1F20E030E040E05FE30E943F2081
:1010B00020E030E04AE754E40E943F2020E030E0A6
:1010C0004CE553E40E94F01E2DEC3CEC4CE050E467
:1010D0000E94F01EAB01BC01C956DF4FE881F981C7
:1010E000C759D040408351836283738322E0CE018D
:1010F000CA960E94681D60E172E0CE0101960E94CE
:10110000F71CBE01665C7F4FCE0101960E94D81D80
:10111000BC0181E993E00E941E1CCE0101960E9451
:10112000891CCE01CA960E94891CC356DF4F888154
:101130009981CD59D0400E945E0EC556DF4F8881FF
:101140009981CB59D0400E945E0E98C24E01FAE3BD
:101150008F0E911C1F921F922CE32F9333E23F932B
:1011600047ED4F935AE05F93ADECAA2EACECBA2E4C
:10117000CB2CADE3DA2EE12CF12C00E01FE39E0135
:1011800021583F4FAE0149575F4FB301C4010E9440
:10119000DB101F921F928CE38F9393E29F93E7EDF6
:1011A000EF93FAE0FF939E0121583F4FA201BE0149
:1011B00065577F4FCE0101960E94DB1061E070E021
:1011C000C4010E94891061E070E0CE0101960E9486
:1011D0008910710121E6E20EF11C61E070E0C701A7
:1011E0000E94BB0DA1014A5A5F4FC756DF4F59837A
:1011F0004883C959D04060E070E0CA010E94BB0D2D
:1012000060E070E0C7010E94B70D60E070E0C75673
:10121000DF4F88819981C959D0400E94B70D8E0156
:101220000D581F4F26E030E043E050E0C956DF4F35
:1012300068817981C759D040C8010E94361EB80123
:10124000CE0187589F4F0E940D1DC8010E94891C26
:1012500063E272E0CE0187589F4F0E94051E0FB6D1
:10126000F894DEBF0FBECDBF882339F0C1010E94C4
:10127000AE03CE0187589F4F14C2CE0187589F4FAF
:101280000E947B1E4AE0469F9001479F300D11242B
:10129000F101E158FF4F80819181280F391FC3561A
:1012A000DF4F39832883CD59D040C556DF4FF983AE
:1012B000E883CB59D040C1014096CB55DF4F99838D
:1012C0008883C55AD040EE55F109C955DF4FF983DF
:1012D000E883C75AD04091012E5C3F4FC755DF4F7E
:1012E00039832883C95AD040A1014D5B5F4FCF5548
:1012F000DF4F59834883C15AD040C156DF4F08831E
:10130000CF59D040C056DF4F1883C05AD040C55582
:10131000DF4F8882CB5AD040C455DF4F9882CC5AD9
:10132000D040C556DF4FE881F981CB59D04080814C
:101330009181C356DF4F28813981CD59D040821722
:1013400093070CF08CC162E370E080E090E00E94B3
:10135000C316CB55DF4F88819981C55AD0400E9472
:10136000190E5C01C955DF4F88819981C75AD04059
:101370000E94190E6C01C755DF4F88819981C95AA7
:10138000D0400E94190E8C01CF55DF4F8881998182
:10139000C15AD0400E94190E3C0127E030E046E0DF
:1013A00050E0C956DF4F68817981C759D040C15696
:1013B000DF4F8881CF59D040C056DF4F9881C05A47
:1013C000D0400E94361E67E272E0C156DF4F88812E
:1013D000CF59D040C056DF4F9881C05AD0400E94AC
:1013E000051E982EC156DF4F8881CF59D040C05678
:1013F000DF4F9881C05AD0400E94891C992081F00B
:10140000C801860D971D97FD019695958795C55640
:10141000DF4FE881F981CB59D0409183808311C09F
:10142000CA0CDB1CD7FE03C0FFEFCF1ADF0AD5942E
:10143000C794C556DF4FE881F981CB59D040D1829E
:10144000C082CF55DF4F88819981C15AD0400E9418
:101450005A0EC1010E947E0D6801C81AD90AC10145
:101460000E94860D9301281B390BCD55DF4F398320
:101470002883C35AD040B301C1010E94960DB80120
:10148000C1010E948E0D0E94A0162B013C01C101DA
:101490000E94A00DA3019201261B370B480B590B8C
:1014A000CA01B9010E94891F20E030E04AE754E4F4
:1014B0000E94F01E4B015C01B301A201C1010E9418
:1014C0009A0DB601882777FD8095982F0E948B1F73
:1014D00020E030E04AE754E40E943F20A501940157
:1014E0000E94F01EC157DF4F688379838A839B83F4
:1014F000CF58D040CD55DF4F48815981C35AD04095
:10150000BA01882777FD8095982F0E948B1F20E0D5
:1015100030E04AE754E40E943F20A50194010E9474
:10152000F01EC557DF4F688379838A839B83CB582E
:10153000D040C555DF4F8881CB5AD040C455DF4FCE
:101540009881CC5AD0400E94700ECE0101960E9424
:10155000700E20E030E04AE753E4C957DF4F68815E
:1015600079818A819B81C758D0400E943B20181600
:1015700064F480E090E0AAE7B3E4C957DF4F8883C2
:101580009983AA83BB83C758D04020E030E04AE764
:1015900053E4CD57DF4F688179818A819B81C3589D
:1015A000D0400E943B20181664F480E090E0AAE747
:1015B000B3E4CD57DF4F88839983AA83BB83C35895
:1015C000D04020E030E0A901C957DF4F6881798120
:1015D0008A819B81C758D0400E94EC1E87FF08C0BB
:1015E000C957DF4F188219821A821B82C758D04010
:1015F00020E030E0A901CD57DF4F688179818A81F1
:101600009B81C358D0400E94EC1E87FF08C0CD5775
:10161000DF4F188219821A821B82C358D040C957E3
:10162000DF4F688179818A819B81C758D0400E94B1
:10163000581FC756DF4F88819981C959D0400E94F1
:10164000B70DCD57DF4F688179818A819B81C3585F
:10165000D0400E94581FC7010E94B70D62CE60E0C3
:1016600070E0C7010E94B70D60E070E0C756DF4F21
:1016700088819981C959D0400E94B70D68EC70E00B
:1016800080E090E00E94C31669E272E081E993E095
:101690000E94011C81E993E00E940F1ACE01875835
:1016A0009F4F0E94891CC255DF4F0FB6F894DEBFD2
:1016B0000FBECDBFDF91CF911F910F91FF90EF90A3
:1016C000DF90CF90BF90AF909F908F907F906F9062
:1016D0005F904F903F902F9008958F929F92AF927E
:1016E000BF92CF92DF92EF92FF920F931F93CF930F
:1016F000DF93CDB7DEB72C970FB6F894DEBF0FBEE1
:10170000CDBF8C016DE272E0CE0107960E94F71CFE
:101710008DED92E00E9458116C0158012EE7A20E47
:10172000B11CF5018081980124583F4F790188232D
:10173000D1F08DED92E00E9458114C018DED92E0B8
:101740000E9458119601280D391D280F391FC90113
:1017500063E070E00E94BE2064517109F70171835B
:101760006083F5011082F701208131812C193D0938
:10177000F801E658FF4F37FD03C03183208302C0D4
:1017800011821082608171814AE0CE0101960E942F
:101790003C1DBE016F5F7F4FCE0107960E940D1D5D
:1017A000CE0101960E94891C8B859C858330910512
:1017B00019F46EE272E007C0029719F462E372E076
:1017C00002C067E372E0CE0101960E94F71CBE01E1
:1017D000695F7F4FCE0101960E94D81D6CE272E0D6
:1017E0000E94EB1DBC0181E993E00E94F31BCE0136
:1017F00001960E94891C81E993E00E940F1ACE0194
:1018000007960E94891C2C960FB6F894DEBF0FBE77
:10181000CDBFDF91CF911F910F91FF90EF90DF909F
:10182000CF90BF90AF909F908F90089563E070E04D
:101830000E9479036DE372E081E993E00E94011C4C
:1018400081E993E00C940F1A4F925F926F927F920E
:101850008F929F92AF92BF92CF92DF92EF92FF92C0
:101860000F931F93CF93DF93CDB7DEB72C970FB6AF
:10187000F894DEBF0FBECDBF8C015C0182E7A80EDD
:10188000B11C24E030E043E050E0B501CE01079602
:101890000E94361ECE0107960E947B1E0E948B1F5F
:1018A0006B017C0126E030E045E050E0B501CE015F
:1018B00001960E94361EBE016F5F7F4FCE010796D4
:1018C0000E940D1DCE0101960E94891CCE01079633
:1018D0000E947B1E0E948B1F2B013C0162E070E086
:1018E000C5010E94241EFC0180818B3251F420E04E
:1018F00030E044EB52E4C701B6010E94881E6B0140
:101900007C0120E030E040E151E4C301B2010E94DB
:101910003F204B015C0122E73CE147E05FE3C70168
:10192000B6010E943F2020E030E84DE654E40E94DA
:10193000881E0E94581FC80184599F4F0E94EC13B3
:101940006FE070E080E090E00E94C31620E030E895
:1019500042E254E4C501B4010E94881E0E94581F4F
:10196000C80181599F4F0E94EC136FE070E080E046
:1019700090E00E94C31662E472E081E993E00E9465
:10198000011C81E993E00E940F1ACE0107960E9484
:10199000891C2C960FB6F894DEBF0FBECDBFDF9129
:1019A000CF911F910F91FF90EF90DF90CF90BF905C
:1019B000AF909F908F907F906F905F904F90089521
:1019C000CF93DF93EC0161E070E08E589F4F0E944F
:1019D000241EFC018081893471F0823539F0843411
:1019E00079F4CE01DF91CF910C948204CE01DF9186
:1019F000CF910C946D0BCE01DF91CF910C94240C00
:101A0000CE01DF91CF910C94160CBF92CF92DF9252
:101A1000EF92FF920F931F93CF93DF93EC018C0112
:101A200007581F4F7C0182E7E80EF11C6E01E8E7C2
:101A3000CE0ED11CBB24B39481E993E00E9484199B
:101A4000181619068CF481E993E00E949D19F8019B
:101A50008083682FC7010E94C41DF80180818A30ED
:101A600059F7F601B082E8CF64E670E080E090E0DC
:101A70000E94C3168E0108581F4FF80180818823E9
:101A8000B9F07E01F2E7EF0EF11C60E070E0C701F3
:101A90000E94241EFC018081843251F4CE010E94F8
:101AA000E00C6DE272E0C7010E94241DF801108273
:101AB000DF91CF911F910F91FF90EF90DF90CF902A
:101AC000BF900895CF93DF93EC0181E090E099837C
:101AD00088831B821A821D821C821F821E821986A5
:101AE00018860E94A0166A877B878C879D87DF9166
:101AF000CF910895FC01868197810895FC01828130
:101B000093810895FC01808591850895FC0184816D
:101B100095810895FC01778366830895FC017383A2
:101B200062830895FC01718760870895FC017583C5
:101B300064830895FC0142875387648775870895FD
:101B4000FC01628573858485958508950F931F93A5
:101B5000FC0171836083538342833583248317821E
:101B600016821286118700871F910F910895FC013C
:101B700080810C944D17FC016087718782810C94E1
:101B8000A018CF92DF92EF92FF920F931F93FC0168
:101B90007183608353834283318720871387028751
:101BA000E686F786C486D586148215821682178249
:101BB00081E0808B60E08C2D0E94671861E08C2DA5
:101BC0000E94A01860E08E2D1F910F91FF90EF9062
:101BD000DF90CF900C946718CF93DF93EC01888946
:101BE000882321F18A859B85892B51F48E850E945B
:101BF000D6184C815D816E817F81019751F40EC0B2
:101C00008E850E94D6184C815D816E817F810197FF
:101C100029F44F5F5F4F6F4F7F4F04C04150510910
:101C2000610971094C835D836E837F83DF91CF915E
:101C30000895CF92DF92EF92FF92CF93DF93EC0162
:101C40006C817D818E819F81660F771F881F991F10
:101C50000E948B1F2BED3FE049E450E40E943F209F
:101C60006B017C016A817B81882777FD8095982FA5
:101C70000E948B1F9B01AC01C701B6010E94F01EA0
:101C800028853985232B31F420E030E04CE852E4FC
:101C90000E94F01E20E030E04FEB52E40E943F2013
:101CA0000E94581FCB01DF91CF91FF90EF90DF9002
:101CB000CF900895FC0184819581089521E0FC0175
:101CC000208B0895FC01108A0895AB01662757FD0B
:101CD0006095762FFC01448355836683778308954E
:101CE0002F923F924F925F926F927F928F929F922C
:101CF000AF92BF92CF92DF92EF92FF920F931F931A
:101D0000CF93DF93CDB7DEB72B970FB6F894DEBF36
:101D10000FBECDBF9B878A87DC01D896BC91B98363
:101D2000B11102C01982E2C00E9494166A837B83BB
:101D30008C839D83EA85FB8580A191A1A2A1B3A19B
:101D40004A815B816C817D81481B590B6A0B7B0B3F
:101D500084A595A5A6A5B7A5481759076A077B07C7
:101D600008F3028CF38DE02D80809180A280B380F7
:101D7000AA85BB855E96ED91FC915F97A5019401C4
:101D800060817181828193810E94871E2B013C01B9
:101D9000EA85FB8520893189428953890E943F2049
:101DA000AA85BB8594962D913D914D915C91979715
:101DB0000E94881E6B017C01EA85FB8564A375A3E4
:101DC00086A397A324A835A806A917A99101A8015D
:101DD0000E943B2018161CF4C101D80118C0AA8526
:101DE000BB85D0968D919D910D90BC91A02D8E8339
:101DF0009F83A887B9879C01AD01C701B6010E94E6
:101E0000EC1E87FF0AC08E819F81A885B985EA856F
:101E1000FB8584A395A3A6A3B7A3AA85BB851C961F
:101E20002D913D914D915C911F97C301B2010E948C
:101E30003F20EA85FB8524A135A146A157A10E9438
:101E4000881E6B017C01AA85BB8598962D913D91DA
:101E50004D915C919B97C501B4010E94871EEA8554
:101E6000FB8524893589468957890E943F209B013B
:101E7000AC01C701B6010E94871E6B017C01910174
:101E8000A8010E943B201816BCF0AA85BB85D096FD
:101E90002C90D097D1963C90D197D2960C91D29716
:101EA000D3961C919101A801B601C7010E94EC1EB6
:101EB00087FD02C016018701AA85BB855C96ED915E
:101EC000FC915D97C101D80180839183A283B38384
:101ED000EA85FB8580A691A6A2A6B3A68A819B81EE
:101EE000AC81BD8180A391A3A2A3B3A389812B96CA
:101EF0000FB6F894DEBF0FBECDBFDF91CF911F911B
:101F00000F91FF90EF90DF90CF90BF90AF909F9098
:101F10008F907F906F905F904F903F902F9008959B
:101F20002F923F924F925F926F927F928F929F92E9
:101F3000AF92BF92CF92DF92EF92FF920F931F93D7
:101F4000CF93DF9300D01F92CDB7DEB71C012A01DB
:101F50003B014801590120E030E0A901C301B20171
:101F60000E94EC1E87FD78C020E030E0A901C50189
:101F7000B4010E94EC1E87FD6FC020E030E0A90193
:101F8000C701B6010E94EC1E87FD66C0F1014082C8
:101F900051826282738284829582A682B782C086D1
:101FA000D186E286F38664A575A586A597A50E94CD
:101FB000891F20E030E04AE754E40E94F01E698364
:101FC0007A838B839C83F101448655866686778667
:101FD0009B01AC01C501B4010E943F204B015C0193
:101FE000F101608B718B828B938B29813A814B81BC
:101FF0005C81C701B6010E94F01E6B017C01F101FA
:10200000648B758B868B978B808D918D019721F5D5
:10201000A301920160E070E0CB010E94871EF101F4
:102020006487758786879787A501940160E070E0D3
:10203000CB010E94871EF101608B718B828B938B89
:10204000A701960160E070E0CB010E94871EF101BC
:10205000648B758B868B978B0F900F900F900F90E2
:10206000DF91CF911F910F91FF90EF90DF90CF9074
:10207000BF90AF909F908F907F906F905F904F90A8
:102080003F902F9008958F929F92AF92BF92CF92E0
:10209000DF92EF92FF92CF93DF93EC01EC8DFD8DF9
:1020A000C080D180E280F380CCA2DDA2EEA2FFA2AC
:1020B000EA8DFB8D80819181A281B38188A799A748
:1020C000AAA7BBA78CA89DA8AEA8BFA8A5019401EC
:1020D000C701B6010E943B20181664F088A899A891
:1020E000AAA8BBA8A5019401C701B6010E94EC1ED5
:1020F00087FF04C08CA29DA2AEA2BFA2DF91CF91A8
:10210000FF90EF90DF90CF90BF90AF909F908F9017
:1021100008951F93CF93DF93EC0111E061307105B7
:1021200009F010E088AD91E08927181303C0CE01B3
:102130000E94431018AFDF91CF911F9108950F9324
:102140001F93CF93DF93EC018B0188AD882361F15E
:10215000888D998D6817790739F12C853D854E85D5
:102160005F8560E070E0CB010E94871E6C877D87F1
:102170008E879F87288939894A895B8960E070E06A
:10218000CB010E94871E688B798B8A8B9B8B2C8955
:102190003D894E895F8960E070E0CB010E94871E17
:1021A0006C8B7D8B8E8B9F8B198F088FDF91CF91DE
:1021B0001F910F9108954F925F926F927F928F922D
:1021C0009F92AF92BF92CF92DF92EF92FF920F93C6
:1021D0001F93CF93DF9300D01F92CDB7DEB74C0192
:1021E00027013801A982BA82CB82DC82FC01558F9B
:1021F000448F738F628F378F268F10AE10AA11AA6B
:1022000012AA13AA80E090E0AFE7B3E484AB95ABE9
:10221000A6ABB7AB84E690E0A0E0B0E084A795A7BA
:10222000A6A7B7A76C8D7D8DC4010E949F10C88C96
:10223000D98CEA8CFB8C09811A812B813C81B301FA
:10224000A201C4010E94900F0E949416F40144A4BC
:1022500055A466A477A4641975098609970960A333
:1022600071A382A393A30F900F900F900F90DF9113
:10227000CF911F910F91FF90EF90DF90CF90BF9083
:10228000AF909F908F907F906F905F904F90089548
:10229000CF93DF93EC01842F7B836A834C835D8330
:1022A00060E00E94671819821882DF91CF9108952B
:1022B000CF93DF93EC0120E432E44FE050E061E0A3
:1022C0008C810E94FF182A813B81CB01B9010E94B9
:1022D000BE20CB0179836883DF91CF910895CF929F
:1022E000DF92EF92FF920F931F93CF93DF936C01D6
:1022F0008B017A01EC01CC51DD4F888187FF04C04E
:10230000FB011182108223C02CE02C9DC0012D9D69
:10231000900D11242881AC01420F511D27FD5A95C3
:102320002091E30230E0421753078CF42881AC017E
:10233000420F511D27FD5A959A01FA01EE0FFF1F1A
:10234000E20FF31FE851FD4F208126FD19C088815F
:102350008F5F88838CE08C9D90018D9D300D1124C2
:102360008881A901480F511D87FD5A958091E3028C
:1023700090E048175907B4F488818C303CF112C0C2
:102380002881820F911D27FD9A95FC01EE0FFF1FFA
:10239000E80FF91FE851FD4F808160E08F730E94C4
:1023A000A018D5CFF80180819181049680349C4992
:1023B00018F480E49CE904C0F801808191810496BE
:1023C000F701918380838FEF888341C0F80180817A
:1023D00091814881B901640F711D47FD7A95AB0168
:1023E000FB01EE0FFF1FE40FF51FE851FD4F418188
:1023F0005281840F951FF701918380838881A90101
:10240000480F511D87FD5A95FA01EE0FFF1FE40F8B
:10241000F51FE851FD4F808186FF19C08881280F84
:10242000311D87FD3A95F901EE0FFF1FE20FF31FF3
:10243000E851FD4F808161E08F73DF91CF911F9153
:102440000F91FF90EF90DF90CF900C94A018DF9148
:10245000CF911F910F91FF90EF90DF90CF90089553
:102460001F920F920FB60F9211240BB60F922F935B
:102470003F934F935F936F937F938F939F93AF930C
:10248000BF93EF93FF9348E850E064E870E081E089
:1024900090E00E946F11FF91EF91BF91AF919F91DA
:1024A0008F917F916F915F914F913F912F910F90FD
:1024B0000BBE0F900FBE0F901F9018951F920F929A
:1024C0000FB60F9211240BB60F922F933F934F9399
:1024D0005F936F937F938F939F93AF93BF93EF938C
:1024E000FF9348E950E064E970E082E090E00E94E8
:1024F0006F11FF91EF91BF91AF919F918F917F915C
:102500006F915F914F913F912F910F900BBE0F9064
:102510000FBE0F901F9018951F920F920FB60F923B
:1025200011240BB60F922F933F934F935F936F93AA
:102530007F938F939F93AF93BF93EF93FF9348EA5B
:1025400050E064EA70E083E090E00E946F11FF9138
:10255000EF91BF91AF919F918F917F916F915F911B
:102560004F913F912F910F900BBE0F900FBE0F9088
:102570001F9018951F920F920FB60F9211240BB651
:102580000F922F933F934F935F936F937F938F930C
:102590009F93AF93BF93EF93FF9348E251E064E2C0
:1025A00071E080E090E00E946F11FF91EF91BF9188
:1025B000AF919F918F917F916F915F914F913F91DB
:1025C0002F910F900BBE0F900FBE0F901F9018957C
:1025D0002091E3022033A0F431E0320F3093E30284
:1025E000FC012083822F90E0FC01EE0FFF1FE80F1B
:1025F000F91FE851FD4F88EB9BE09283818308959A
:102600002FEFFC0120830895DF92EF92FF920F934A
:102610001F93CF93DF93EC01D62E7A018901888135
:10262000803308F068C061E08D2D0E9467188881B2
:10263000A82FB0E0FD01EE0FFF1FEA0FFB1FE851CE
:10264000FD4F2D2D2F739081907C922B908360E213
:1026500072E06E197F0977FF02C06D5F7F4F75953D
:10266000679575956795698340E659E0401B510B66
:1026700057FF02C04D5F5F4F55954795559547955C
:102680004A836CE00E94B2209CE0899FB001112433
:1026900020E030E0A901460F571FFA01EE0FFF1F9F
:1026A000E40FF51FE851FD4F908196FD18C02F5F94
:1026B0003F4F2C30310571F790E08130910521F5C5
:1026C0001092800082E08093810010928500109229
:1026D0008400B19A80916F00826080936F0088813E
:1026E00090E0FC01EE0FFF1FE80FF91FE851FD4FCE
:1026F0008081806480838881DF91CF911F910F91C9
:10270000FF90EF90DF9008958230910569F4109268
:10271000900082E0809391001092950010929400B6
:1027200088BB80937100DBCF8330910569F41092F0
:10273000A00082E08093A1001092A5001092A40056
:1027400089BB80937200CBCF892B49F61092200170
:1027500082E08093210110922501109224018ABB0E
:1027600080937300BCCF20E639E040E252E00C9445
:102770000413FC018081803370F5918128E830E0FA
:10278000291B310997FD3395220F331F220F331F69
:10279000621773077CF0928128E532E0291B31092A
:1027A00097FD3395220F331F220F331F62177307D4
:1027B0000CF49B014FB7F89490E0FC01EE0FFF1F63
:1027C000E80FF91FE851FD4F22503109220F331F46
:1027D000328321834FBF08954F925F926F927F9211
:1027E000AF92BF92CF92DF92EF92FF920F931F931F
:1027F000CF93DF93EC01603282E078070CF040C0A9
:1028000077FD06C0653B71052CF064EB70E002C0FB
:1028100060E070E0898128E830E0281B310987FDFD
:102820003395220F331F220F331F5901CC24B7FCDD
:10283000C094DC2C882777FD8095982F2A8148E565
:1028400052E0421B510927FD5395440F551F440F79
:10285000551F2A01662457FC6094762C7F926F9254
:102860005F924F9214EBE12EF12C00E010E020E09B
:1028700030E0A9010E94421C0F900F900F900F9022
:10288000CE01DF91CF911F910F91FF90EF90DF90DC
:10289000CF90BF90AF907F906F905F904F900C94CF
:1028A000B913883008F06DC0E82FF0E0EE0FFF1F7D
:1028B000E858FC4F7183608390E0FC013197E7306A
:1028C000F10590F5EE58FF4F0C94132180916900AB
:1028D0008C7F842B80936900E89A08958091690029
:1028E000440F551F440F551F837F842B809369002D
:1028F000E99A08958091690074E0440F551F7A9514
:10290000E1F78F7C842B80936900EA9A0895809187
:10291000690066E0440F551F6A95E1F78F73842BB9
:1029200080936900EB9A089580916A008C7F842BD4
:1029300080936A00EC9A089580916A00440F551FB5
:10294000440F551F837F842B80936A00ED9A08956E
:1029500080916A0024E0440F551F2A95E1F78F7C8F
:10296000842B80936A00EE9A089580916A0096E025
:10297000440F551F9A95E1F78F73842B80936A005B
:10298000EF9A08951F920F920FB60F9211240BB673
:102990000F922F933F934F935F936F937F938F93F8
:1029A0009F93AF93BF93EF93FF9380917C0390919C
:1029B0007D03892B29F0E0917C03F0917D0319952B
:1029C000FF91EF91BF91AF919F918F917F916F9107
:1029D0005F914F913F912F910F900BBE0F900FBEC3
:1029E0000F901F9018951F920F920FB60F921124FF
:1029F0000BB60F922F933F934F935F936F937F93F9
:102A00008F939F93AF93BF93EF93FF9380917E0338
:102A100090917F03892B29F0E0917E03F0917F0351
:102A20001995FF91EF91BF91AF919F918F917F91F8
:102A30006F915F914F913F912F910F900BBE0F902F
:102A40000FBE0F901F9018951F920F920FB60F9206
:102A500011240BB60F922F933F934F935F936F9375
:102A60007F938F939F93AF93BF93EF93FF93809147
:102A7000800390918103892B29F0E0918003F091EC
:102A800081031995FF91EF91BF91AF919F918F9124
:102A90007F916F915F914F913F912F910F900BBE5E
:102AA0000F900FBE0F901F9018951F920F920FB6A8
:102AB0000F9211240BB60F922F933F934F935F9376
:102AC0006F937F938F939F93AF93BF93EF93FF93F6
:102AD0008091820390918303892B29F0E0918203F6
:102AE000F09183031995FF91EF91BF91AF919F9161
:102AF0008F917F916F915F914F913F912F910F90A7
:102B00000BBE0F900FBE0F901F9018951F920F9243
:102B10000FB60F9211240BB60F922F933F934F9342
:102B20005F936F937F938F939F93AF93BF93EF9335
:102B3000FF938091780390917903892B29F0E0919C
:102B40007803F09179031995FF91EF91BF91AF91BF
:102B50009F918F917F916F915F914F913F912F91B5
:102B60000F900BBE0F900FBE0F901F9018951F92E5
:102B70000F920FB60F9211240BB60F922F933F9323
:102B80004F935F936F937F938F939F93AF93BF9375
:102B9000EF93FF9380917A0390917B03892B29F027
:102BA000E0917A03F0917B031995FF91EF91BF912A
:102BB000AF919F918F917F916F915F914F913F91D5
:102BC0002F910F900BBE0F900FBE0F901F90189576
:102BD0001F920F920FB60F9211240BB60F922F93E4
:102BE0003F934F935F936F937F938F939F93AF9395
:102BF000BF93EF93FF938091840390918503892B7A
:102C000029F0E0918403F09185031995FF91EF91EC
:102C1000BF91AF919F918F917F916F915F914F91F4
:102C20003F912F910F900BBE0F900FBE0F901F90F2
:102C300018951F920F920FB60F9211240BB60F9298
:102C40002F933F934F935F936F937F938F939F93B4
:102C5000AF93BF93EF93FF93809186039091870387
:102C6000892B29F0E0918603F09187031995FF9154
:102C7000EF91BF91AF919F918F917F916F915F91F4
:102C80004F913F912F910F900BBE0F900FBE0F9061
:102C90001F9018951F920F920FB60F9211242F9329
:102CA0003F938F939F93AF93BF93809189039091AC
:102CB0008A03A0918B03B0918C033091880323E0A9
:102CC000230F2D3720F40196A11DB11D05C026E864
:102CD000230F0296A11DB11D2093880380938903C1
:102CE00090938A03A0938B03B0938C0380918D0300
:102CF00090918E03A0918F03B09190030196A11D36
:102D0000B11D80938D0390938E03A0938F03B09396
:102D10009003BF91AF919F918F913F912F910F9011
:102D20000FBE0F901F9018952FB7F89460918903EC
:102D300070918A0380918B0390918C032FBF08952B
:102D40003FB7F89480918D0390918E03A0918F03EB
:102D5000B091900326B5A89B05C02F3F19F00196AE
:102D6000A11DB11D3FBF6627782F892F9A2F620FB3
:102D7000711D811D911D42E0660F771F881F991FED
:102D80004A95D1F70895CF92DF92EF92FF92CF93B9
:102D9000DF936B017C010E94A016EB01C114D104EA
:102DA000E104F10489F00E94861E0E94A0166C1BAB
:102DB0007D0B683E734090F381E0C81AD108E108AA
:102DC000F108C851DC4FEACFDF91CF91FF90EF902F
:102DD000DF90CF900895789484B5826084BD84B5E7
:102DE000816084BD85B5826085BD85B5816085BD06
:102DF000EEE6F0E0808181608083E1E8F0E010821F
:102E0000808182608083808181608083E0E8F0E05F
:102E1000808181608083E1EBF0E080818460808349
:102E2000E0EBF0E0808181608083E1E9F0E0808187
:102E300082608083808181608083E0E9F0E080812E
:102E400081608083E1EAF0E080818260808380811C
:102E500081608083E0EAF0E0808181608083E1E24C
:102E6000F1E0808182608083808181608083E0E204
:102E7000F1E0808181608083EAE7F0E08081846016
:102E80008083808182608083808181608083808173
:102E9000806880831092C10008951F93CF93DF93C1
:102EA000182FEB0161E00E946718209711F460E091
:102EB00004C0CF3FD10539F461E0812FDF91CF917C
:102EC0001F910C94A018E12FF0E0E65EFD4F4491B5
:102ED00050E0FA013197E231F10508F09BC0E75864
:102EE000FF4F0C94132184B5806884BDC7BD97C083
:102EF00084B5806284BDC8BD92C080918000806826
:102F000080938000D0938900C093880088C080910E
:102F10008000806280938000D0938B00C0938A00F1
:102F20007EC080918000886080938000D0938D0067
:102F3000C0938C0074C08091B00080688093B00012
:102F4000C093B3006CC08091B00080628093B000E9
:102F5000C093B40064C0809190008068809390001A
:102F6000D0939900C09398005AC0809190008062DD
:102F700080939000D0939B00C0939A0050C08091A2
:102F80009000886080939000D0939D00C0939C0037
:102F900046C08091A00080688093A0008091A0002E
:102FA0008F7B8093A000D093A900C093A80037C066
:102FB0008091A00080628093A000D093AB00C0936A
:102FC000AA002DC08091A00088608093A000D093BB
:102FD000AD00C093AC0023C0809120018068809335
:102FE0002001D0932901C093280119C080912001AC
:102FF000806280932001D0932B01C0932A010FC0DF
:1030000080912001886080932001D0932D01C0938E
:103010002C0105C0C038D1050CF04ECF48CFDF9150
:10302000CF911F91089590E0FC013197E231F105B5
:1030300008F04CC0E557FF4F0C941321809180009D
:103040008F7703C0809180008F7D809380000895EA
:1030500080918000877FF9CF84B58F7702C084B5D7
:103060008F7D84BD08958091B0008F7703C08091DB
:10307000B0008F7D8093B0000895809190008F778D
:1030800007C0809190008F7D03C080919000877F62
:103090008093900008958091A0008F7707C0809161
:1030A000A0008F7D03C08091A000877F8093A00047
:1030B0000895809120018F7707C0809120018F7D36
:1030C00003C080912001877F809320010895CF93D2
:1030D000DF9390E0FC01E05AFD4F2491FC01EA559A
:1030E000FD4F8491882349F190E0880F991FFC01DE
:1030F000E05EFC4FA591B4918A5F9C4FFC01C591A5
:10310000D4919FB7611108C0F8948C9120958223C7
:103110008C93888182230AC0623051F4F8948C9198
:10312000322F309583238C938881822B888304C02F
:10313000F8948C91822B8C939FBFDF91CF9108954F
:103140000F931F93CF93DF931F92CDB7DEB7282F36
:1031500030E0F901E65EFD4F8491F901E05AFD4F40
:103160001491F901EA55FD4F04910023C9F0882319
:1031700021F069830E9413186981E02FF0E0EE0FBF
:10318000FF1FEA5FFC4FA591B4919FB7F8948C9113
:10319000611103C01095812301C0812B8C939FBFC7
:1031A0000F90DF91CF911F910F910895CF93DF93EF
:1031B000282F30E0F901E65EFD4F8491F901E05AD5
:1031C000FD4FD491F901EA55FD4FC491CC2391F004
:1031D00081110E941318EC2FF0E0EE0FFF1FE45155
:1031E000FD4FA591B4912C912D2381E090E021F425
:1031F00080E002C080E090E0DF91CF910895CF920F
:10320000DF92EF92FF920F931F93CF93DF9390E0A3
:10321000FC01E05AFD4FD491FC01EA55FD4F749139
:10322000611102C0C0E001C0CD2FDA01C901BF7039
:10323000672F70E0660F771F64517D4F00E010E04C
:103240009801FB01E590F490F70140814D234C1368
:103250001EC0680179014FEFC41AD40AE40AF40AC7
:10326000081719072A073B0709F442C0970186018E
:10327000E8CF68017901FFEFCF1ADF0AEF0AFF0AF2
:10328000081719072A073B0799F197018601FB01E7
:10329000E590F490F70140814D234C13EACF801B59
:1032A000910BA20BB30B20E030E0A901FB01E590EC
:1032B000F490F701F080FD22FC120AC028173907AC
:1032C0004A075B07A9F02F5F3F4F4F4F5F4FEECF8D
:1032D000A8E1B0E00E941921605F7F4F8F4F9F4FA0
:1032E00024E096958795779567952A95D1F703C041
:1032F00060E070E0CB01DF91CF911F910F91FF90C3
:10330000EF90DF90CF900895FC01818D228D90E0A9
:10331000805C9F4F821B91098F7399270895FC0150
:10332000918D828D981731F0828DE80FF11D858D7A
:1033300090E008958FEF9FEF0895FC01918D828DAD
:10334000981761F0828DDF01A80FB11D5D968C91F9
:10335000928D9F5F9F73928F90E008958FEF9FEF04
:10336000089588E59BE1892B41F080E090E0892B6E
:1033700021F00E94581B811125C080E090E0892B2C
:1033800041F080E090E0892B21F00E940000811143
:103390001CC080E090E0892B41F080E090E0892B18
:1033A00021F00E940000811113C080E090E0892B81
:1033B000A1F080E090E0892B81F00E940000811153
:1033C0000AC008950E940000D8CF0E940000E1CFFB
:1033D0000E940000EACF0C9400000895FC01848D47
:1033E000DF01A80FB11DA35ABF4F2C91848D90E02F
:1033F00001968F739927848FA689B7892C93A0890A
:10340000B1898C9180648C93938D848D981306C0C0
:103410000288F389E02D80818F7D80830895CF938A
:10342000DF93EC01888D8823C9F0EA89FB898081CC
:1034300085FD05C0A889B9898C9186FD0FC00FB69E
:1034400007FCF5CF808185FFF2CFA889B9898C91DF
:1034500085FFEDCFCE010E94EE19E7CFDF91CF912E
:103460000895CF92DF92FF920F931F93CF93DF9334
:103470001F92CDB7DEB76C01DC015B969C915B9728
:103480005C968C915C97981307C05096ED91FC91D7
:103490005197808185FD32C0F601038D10E00F5FEA
:1034A0001F4F0F731127F02EF601848DF81211C0F3
:1034B0000FB607FCF9CFD6015096ED91FC915197CC
:1034C000808185FFF1CFC60169830E94EE19698171
:1034D000EBCF838DE80FF11DE35AFF4F6083D601D8
:1034E0005B960C935B975296ED91FC91539780817C
:1034F0008062808381E058968C930DC0D6015696E9
:10350000ED91FC91579760835096ED91FC91519706
:1035100080818064808381E090E00F90DF91CF9183
:103520001F910F91FF90DF90CF900895BF92CF929F
:10353000DF92EF92FF92CF93DF93EC016A017B0160
:10354000B22EE889F98982E08083411581EE58071F
:1035500061057105A1F060E079E08DE390E0A701DD
:1035600096010E94D22021503109410951095695F6
:10357000479537952795211580E1380798F0E88918
:10358000F989108260E874E88EE190E0A701960165
:103590000E94D22021503109410951095695479581
:1035A00037952795EC85FD853083EE85FF85208353
:1035B000188EEC89FD89B082EA89FB89808180615F
:1035C0008083EA89FB89808188608083EA89FB891E
:1035D000808180688083EA89FB8980818F7D8083F8
:1035E000DF91CF91FF90EF90DF90CF90BF90089543
:1035F0001F920F920FB60F9211240BB60F922F93BA
:103600008F939F93EF93FF93E091A103F091A20317
:103610008081E091A703F091A80382FD12C0908100
:103620008091AA038F5F8F732091AB03821751F0B3
:10363000E091AA03F0E0EF56FC4F958F8093AA0328
:1036400001C08081FF91EF919F918F912F910F90F9
:103650000BBE0F900FBE0F901F9018951F920F92E8
:103660000FB60F9211240BB60F922F933F934F93E7
:103670005F936F937F938F939F93AF93BF93EF93DA
:10368000FF9381E993E00E94EE19FF91EF91BF91C2
:10369000AF919F918F917F916F915F914F913F91EA
:1036A0002F910F900BBE0F900FBE0F901F9018958B
:1036B00081E993E00E94841921E0892B09F420E03C
:1036C000822F0895109294031092930388EE93E052
:1036D000A0E0B0E08093950390939603A0939703A6
:1036E000B09398038BE492E09093920380939103BC
:1036F00085EC90E090939E0380939D0384EC90E092
:103700009093A00380939F0380EC90E09093A2039A
:103710008093A10381EC90E09093A4038093A30392
:1037200082EC90E09093A6038093A50386EC90E052
:103730009093A8038093A7031092AA031092AB035F
:103740001092AC031092AD03089508950E94EB16F9
:103750000E94A51B0E946002C1EBD9E10E94800279
:103760002097E1F30E94B119F9CFCF92DF92EF9247
:10377000FF920F931F93CF93DF936C017A01EB01BC
:10378000E60EF71E00E010E0CE15DF0561F069914E
:10379000D601ED91FC910190F081E02DC6011995C3
:1037A000080F191FF1CFC801DF91CF911F910F9121
:1037B000FF90EF90DF90CF9008956115710581F033
:1037C000DB010D900020E9F7AD0141505109461B86
:1037D000570BDC01ED91FC910280F381E02D1994EF
:1037E00080E090E00895DC01ED91FC91DB011496FE
:1037F0004D915C9115976D917C910280F381E02D44
:1038000019940C94DD1BDC01ED91FC910190F08189
:10381000E02D19940F931F93CF93DF93EC016DE08C
:103820000E94031C8C016AE0CE010E94031C800FE1
:10383000911FDF91CF911F910F9108950F931F93C7
:10384000CF93DF93EC010E94F31B8C01CE010E9409
:103850000A1C800F911FDF91CF911F910F91089546
:103860000F931F93CF93DF93EC010E94DD1B8C011C
:10387000CE010E940A1C800F911FDF91CF911F91F2
:103880000F9108954F925F926F927F92AF92BF9285
:10389000CF92DF92EF92FF920F931F93CF93DF931C
:1038A000CDB7DEB729013A01621B730B840B950B70
:1038B0002A893B894C895D892A193B094C095D0994
:1038C0002A8B3B8B4C8B5D8B9B01AC016A897B897E
:1038D0008C899D890E94A220E418F5080609170921
:1038E000A80197010E94F4202A0D3B1D4C1D5D1D6F
:1038F000CA01B901DF91CF911F910F91FF90EF9015
:10390000DF90CF90BF90AF907F906F905F904F907F
:103910000895FC01808191810C940422CF93DF9360
:10392000EC0188819981009711F00E94042219828C
:1039300018821D821C821B821A82DF91CF9108950A
:103940000F931F93CF93DF93EC018B016F5F7F4F3A
:10395000888199810E949322009731F0998388830E
:103960001B830A8381E001C080E0DF91CF911F912A
:103970000F910895CF93DF93EC0188819981892B72
:1039800029F08A819B818617970760F4CE010E94F7
:10399000A01C882341F08C819D81892B19F4E8813A
:1039A000F981108281E0DF91CF910895EF92FF922B
:1039B0000F931F93CF93DF93EC017B018A01BA0130
:1039C0000E94BA1C811104C0CE010E948E1C07C047
:1039D0001D830C83B701888199810E94B523CE0194
:1039E000DF91CF911F910F91FF90EF900895FC010F
:1039F0001182108213821282158214826115710560
:103A000059F0FB0101900020E9F7AF014150510945
:103A1000461B570B0C94D61C0895CF93DF93EC01F3
:103A2000FB018617970761F060817181611571054F
:103A300029F0448155810E94D61C02C00E948E1C30
:103A4000CE01DF91CF910895CF93DF93EC01611503
:103A5000710561F0FB0101900020E9F7AF014150D1
:103A60005109461B570B0E94D61C02C00E948E1C97
:103A7000CE01DF91CF9108950F931F93CF93DF93E2
:103A8000CDB7DEB762970FB6F894DEBF0FBECDBFDD
:103A90008C01CB01F80111821082138212821582EF
:103AA000148250E0BE016F5F7F4F0E94BC23BE01B5
:103AB0006F5F7F4FC8010E94241D62960FB6F89475
:103AC000DEBF0FBECDBFDF91CF911F910F91089543
:103AD000EF92FF920F931F93CF93DF93CDB7DEB793
:103AE000A1970FB6F894DEBF0FBECDBF7C01CB010E
:103AF000BA01F70111821082138212821582148298
:103B000042E0420F8E010F5F1F4F0E944B21BC010C
:103B1000C7010E94241DA1960FB6F894DEBF0FBE08
:103B2000CDBFDF91CF911F910F91FF90EF9008953E
:103B3000EF92FF920F931F93CF93DF93EC017B01E2
:103B40000C811D816115710511F480E016C04115CD
:103B5000510591F0040F151FB8010E94BA1C88236B
:103B6000A1F3288139818C819D81B701820F931F38
:103B70000E94B5231D830C8381E0DF91CF911F91BB
:103B80000F91FF90EF900895CF93DF931F921F92B4
:103B9000CDB7DEB769831A8241E050E0BE016F5FA6
:103BA0007F4F0E94981D0F900F90DF91CF91089545
:103BB000CF93DF93EC01FB014481558160817181DA
:103BC0000E94981D811103C0CE010E948E1CCE015F
:103BD000DF91CF910895CF93DF93EC0161157105CB
:103BE00069F0FB0101900020E9F7AF014150510954
:103BF000461B570B0E94981D811103C0CE010E94E5
:103C00008E1CCE01DF91CF910895FC012481358176
:103C1000232B31F421E061157105A1F0FB0108C0EF
:103C2000FC01808191816115710531F421E0FC0175
:103C30008081882339F005C00E94AC2321E0892BC4
:103C400009F020E0822F0895FC0184819581681796
:103C5000790720F480819181009729F410922E0435
:103C60008EE294E00895860F971F0895BF92CF9239
:103C7000DF92EF92FF920F931F93CF93DF936C012C
:103C80007B01EA0189012417350720F48D2FE90112
:103C9000042F182F6DE272E0C6010E94F71CD701B5
:103CA00014968D919C911597C817D907C8F4801761
:103CB000910708F48C01D701ED91FC911197E00F69
:103CC000F11FB08010826D917C916C0F7D1FC60139
:103CD0000E94241DD701ED91FC91E00FF11FB082ED
:103CE000C601DF91CF911F910F91FF90EF90DF9070
:103CF000CF90BF900895FC0180819181009711F0D1
:103D00000C947C2360E070E0CB0108950895505836
:103D1000BB27AA270ED075C166D130F06BD120F039
:103D200031F49F3F11F41EF45BC10EF4E095E7FB04
:103D300051C1E92F77D180F3BA176207730784075F
:103D4000950718F071F49EF58FC10EF4E0950B2ED7
:103D5000BA2FA02D0B01B90190010C01CA01A001DD
:103D60001124FF27591B99F0593F50F4503E68F138
:103D70001A16F040A22F232F342F4427585FF3CF79
:103D8000469537952795A795F0405395C9F77EF44A
:103D90001F16BA0B620B730B840BBAF09150A1F093
:103DA000FF0FBB1F661F771F881FC2F70EC0BA0F19
:103DB000621F731F841F48F4879577956795B795A1
:103DC000F7959E3F08F0B3CF9395880F08F0992799
:103DD000EE0F979587950895D9D008F481E008955E
:103DE0000CD00FC107D140F0FED030F021F45F3F7E
:103DF00019F0F0C0511139C1F3C014D198F39923CF
:103E0000C9F35523B1F3951B550BBB27AA2762179E
:103E10007307840738F09F5F5F4F220F331F441FE3
:103E2000AA1FA9F333D00E2E3AF0E0E830D091501B
:103E30005040E695001CCAF729D0FE2F27D0660F08
:103E4000771F881FBB1F261737074807AB07B0E847
:103E500009F0BB0B802DBF01FF2793585F4F2AF05D
:103E60009E3F510568F0B6C000C15F3FECF3983E3D
:103E7000DCF3869577956795B795F7959F5FC9F7BA
:103E8000880F911D9695879597F90895E1E0660F43
:103E9000771F881FBB1F621773078407BA0720F0BC
:103EA000621B730B840BBA0BEE1F88F7E095089525
:103EB00004D06894B111D9C00895BCD088F09F5740
:103EC00090F0B92F9927B751A0F0D1F0660F771F66
:103ED000881F991F1AF0BA95C9F712C0B13081F046
:103EE000C3D0B1E00895C0C0672F782F8827B85F8E
:103EF00039F0B93FCCF3869577956795B395D9F7A7
:103F00003EF490958095709561957F4F8F4F9F4FB0
:103F10000895E89409C097FB3EF4909580957095BC
:103F200061957F4F8F4F9F4F9923A9F0F92F96E905
:103F3000BB279395F695879577956795B795F1117A
:103F4000F8CFFAF4BB0F11F460FF1BC06F5F7F4F17
:103F50008F4F9F4F16C0882311F096E911C0772329
:103F600021F09EE8872F762F05C0662371F096E832
:103F7000862F70E060E02AF09A95660F771F881F01
:103F8000DAF7880F9695879597F90895990F0008A5
:103F9000550FAA0BE0E8FEEF16161706E807F9071B
:103FA000C0F012161306E407F50798F0621B730BB6
:103FB000840B950B39F40A2661F0232B242B252B37
:103FC00021F408950A2609F4A140A6958FEF811DDA
:103FD000811D089597F99F6780E870E060E008957B
:103FE0009FEF80EC089500240A9416161706180611
:103FF0000906089500240A941216130614060506ED
:104000000895092E0394000C11F4882352F0BB0F7D
:1040100040F4BF2B11F460FF04C06F5F7F4F8F4FE0
:104020009F4F089557FD9058440F551F59F05F3F1B
:1040300071F04795880F97FB991F61F09F3F79F0CA
:1040400087950895121613061406551FF2CF46954C
:10405000F1DF08C0161617061806991FF1CF8695CE
:104060007105610508940895E894BB2766277727B2
:10407000CB0197F908958ADF08F48FEF08950BD0EC
:10408000C0CFB1DF28F0B6DF18F0952309F0A2CF3A
:10409000A7CF1124EACFC6DFA0F3959FD1F3950FE8
:1040A00050E0551F629FF001729FBB27F00DB11DBC
:1040B000639FAA27F00DB11DAA1F649F6627B00D4C
:1040C000A11D661F829F2227B00DA11D621F739F35
:1040D000B00DA11D621F839FA00D611D221F749F43
:1040E0003327A00D611D231F849F600D211D822F8A
:1040F000762F6A2F11249F5750408AF0E1F08823D1
:104100004AF0EE0FFF1FBB1F661F771F881F9150DD
:104110005040A9F79E3F510570F05CCFA6CF5F3F9E
:10412000ECF3983EDCF3869577956795B795F79510
:10413000E7959F5FC1F7FE2B880F911D9695879598
:1041400097F90895DB018F939F930E941921BF91E6
:10415000AF91A29F800D911DA39F900DB29F900DD6
:1041600011240895991B79E004C0991F961708F04F
:10417000961B881F7A95C9F78095089597FB072E9F
:1041800016F4009407D077FD09D00E94282107FC7F
:1041900005D03EF4909581959F4F08957095619557
:1041A0007F4F0895A1E21A2EAA1BBB1BFD010DC073
:1041B000AA1FBB1FEE1FFF1FA217B307E407F507D7
:1041C00020F0A21BB30BE40BF50B661F771F881FB3
:1041D000991F1A9469F760957095809590959B0149
:1041E000AC01BD01CF010895052E97FB1EF400948C
:1041F0000E940B2157FD07D00E94D22007FC03D05C
:104200004EF40C940B2150954095309521953F4FDD
:104210004F4F5F4F089590958095709561957F4FB2
:104220008F4F9F4F0895EE0FFF1F0590F491E02DE3
:1042300019940E943C21A59F900DB49F900DA49FBE
:10424000800D911D112408950790F691E02D199489
:10425000AA1BBB1B51E107C0AA1FBB1FA617B707AC
:1042600010F0A61BB70B881F991F5A95A9F78095C8
:104270009095BC01CD010895A29FB001B39FC001EC
:10428000A39F700D811D1124911DB29F700D811D82
:104290001124911D0895EF920F931F93CF93DF93F5
:1042A000E80147FF02C034E101C034E0E42FFF27FA
:1042B000E7FDF095F7FF03C0F195E195F109E32ED5
:1042C000022F2E2FAE010E940124CE01DF91CF914B
:1042D0001F910F91EF900895CF93DF938230910556
:1042E00010F482E090E0E0913104F091320420E09B
:1042F00030E0A0E0B0E0309739F1408151814817BB
:104300005907B8F04817590771F4828193811097C3
:1043100029F013969C938E9312972CC0909332049D
:104320008093310427C02115310531F0421753071E
:1043300018F0A901DB0101C0EF019A01BD01DF0105
:104340000280F381E02DD7CF21153105F9F0281B2C
:10435000390B2430310580F48A819B816115710508
:1043600021F0FB019383828304C0909332048093F5
:104370003104FE01329644C0FE01E20FF31F819327
:10438000919322503109398328833AC020912F0418
:1043900030913004232B41F420910202309103022A
:1043A0003093300420932F042091000230910102B9
:1043B0002115310541F42DB73EB7409104025091CB
:1043C0000502241B350BE0912F04F0913004E21715
:1043D000F307A0F42E1B3F0B2817390778F0AC0128
:1043E0004E5F5F4F2417350748F04E0F5F1F509305
:1043F000300440932F048193919302C0E0E0F0E0F9
:10440000CF01DF91CF910895CF93DF93009709F407
:1044100087C0FC01329713821282C0913104D0917F
:104420003204209781F420813181280F391F809137
:104430002F04909130048217930779F5F09330049C
:10444000E0932F046DC0DE0120E030E0AE17BF071F
:1044500050F412964D915C9113979D0141155105B1
:1044600009F1DA01F3CFB383A28340815181840F34
:10447000951F8A179B0771F48D919C911197840F5A
:10448000951F02969183808312968D919C9113972C
:10449000938382832115310529F4F0933204E0934C
:1044A00031043EC0D9011396FC93EE9312974D91BF
:1044B0005D91A40FB51FEA17FB0779F48081918104
:1044C000840F951F0296D90111969C938E93828139
:1044D000938113969C938E931297E0E0F0E08A818B
:1044E0009B81009719F0FE01EC01F9CFCE010296F5
:1044F00028813981820F931F20912F04309130043D
:104500002817390769F4309729F410923204109271
:10451000310402C013821282D0933004C0932F045E
:10452000DF91CF9108956F927F928F929F92AF9279
:10453000BF92CF92DF92EF92FF920F931F93CF9390
:10454000DF93EC01CB01209781F4DF91CF911F9194
:104550000F91FF90EF90DF90CF90BF90AF909F9022
:104560008F907F906F900C946C21FE01E60FF71FE7
:104570009E0122503109E217F30708F4ACC0D901BB
:104580000D911C91119706171707B8F0053011050A
:1045900008F49FC0A801445051094617570708F472
:1045A00098C002501109061B170B019311936D93CC
:1045B0007C93CF010E9404228CC05B01A01AB10A37
:1045C0004E01800E911EA0913104B0913204612CF5
:1045D000712C60E070E0109709F449C0A815B90586
:1045E000C9F5ED90FC901197670142E0C40ED11C13
:1045F000CA14DB0478F147018A189B08640142E081
:10460000C40ED11C1296BC9012971396AC91B5E0D3
:10461000CB16D10440F0B282A38391828082D9016B
:104620008D939C9309C00E5F1F4F0E0D1F1DF90146
:1046300011830083EB2DFA2F6115710531F0DB0139
:104640001396FC93EE93129744C0F0933204E093D8
:1046500031043FC06D917C9111976616770608F47E
:104660003B01BD0112960D90BC91A02DB4CF60917D
:104670002F047091300468157905E9F468167906FD
:10468000D0F440910002509101024115510541F4CE
:104690004DB75EB76091040270910502461B570B3F
:1046A000E417F507C0F4F0933004E0932F04F90108
:1046B000918380830EC00E946C217C01009759F089
:1046C000A801BE010E94A323CE010E940422C701BB
:1046D00004C0CE0102C080E090E0DF91CF911F9135
:1046E0000F91FF90EF90DF90CF90BF90AF909F9091
:1046F0008F907F906F9008951F93FC0199278827D2
:10470000BC01E89411911032E9F3193010F01E3019
:10471000C8F31B3251F01D3249F4689406C00E9460
:10472000D223610F711D811D911D119110531A30FB
:10473000B0F33EF490958095709561957F4F8F4FC3
:104740009F4F1F910895FB01DC0102C001900D9263
:1047500041505040D8F70895FB01DC018D91019044
:1047600080190110D9F3990B0895FB01DC01019028
:104770000D920020E1F708954532510520F44230B2
:1047800010F00C94C723FB011082CB010895BB27C6
:104790004A3031F4992322F4BDE2909581959F4FE0
:1047A0000C94E823592F482F372F262F660F771F99
:1047B000881F991F660F771F881F991F620F731F2D
:1047C000841F951F660F771F881F991F0895BB27A9
:1047D000FB015527AA27880F991FAA1FA41710F0BD
:1047E000A41B83955051B9F7A05DAA3308F0A95DC9
:1047F000A193009779F7B111B1931192CB010C9469
:1048000057266F927F929F92AF92BF92CF92DF9284
:10481000EF92FF920F931F93CF93DF93CDB7DEB745
:1048200029970FB6F894DEBF0FBECDBF6A01B22E36
:10483000102F0C3320F4FF24F394F00E02C04CE34D
:10484000F42E0F2D27E0AE014F5F5F4F0E947F25B2
:104850007981272F2970213031F0E1FC06C0E0FC7E
:1048600006C060E005C06DE203C06BE201C060E21B
:10487000AE2DA07173FF36C0662311F084E001C035
:1048800083E08B1510F4B81A01C0B12CA1110BC034
:10489000F6018B2D90E2882319F091938150FBCF84
:1048A000CB0CD11CB12C662331F0F601608396014C
:1048B0002F5F3F4F6901C6010396E2FE05C02EE45B
:1048C000F601208331E404C02EE6F601208331E6B0
:1048D00031832283FC012B2D30E22223F1F131932D
:1048E0002150FBCF72FF40C0662311F084E001C06D
:1048F00083E08B1510F4B81A01C0B12CA1110BC0C4
:10490000F6018B2D90E2882319F091938150FBCF13
:10491000CB0CD11CB12C662331F0F60160839601DB
:104920002F5F3F4F6901C6010396E2FE07C029E4ED
:10493000F60120832EE4218326E406C029E6F60151
:1049400020832EE6218326E62283FC012B2D30E2F4
:10495000222319F031932150FBCFFC01EB0DF11D07
:1049600010828EEF9FEFB7C0B1E0611101C0B0E0DF
:104970004B2F50E01816190624F49C012F5F3F4F6F
:1049800002C021E030E0240F351F112329F0412F10
:1049900050E04F5F5F4F02C040E050E0420F531FB6
:1049A0002B2D30E04217530714F4B41A01C0B12C78
:1049B0002E2D287159F4F6012B2D30E2222319F007
:1049C00031932150FBCFCB0CD11CB12CBB2331F048
:1049D000F601608396012F5F3F4F6901A1110BC063
:1049E000F6012B2D30E3222319F031932150FBCF18
:1049F000CB0CD11CB12CF80E0A81372F3071A32EAD
:104A000074FF03C0013309F4FA941F142CF42F2D02
:104A1000293018F028E001C021E0682F392F97FFD6
:104A200002C060E030E0462F532F612C712C3EE233
:104A3000932EBC01621B71099B01DC01A41BB50B09
:104A4000E1E0F0E0EC0FFD1FAE0FBF1FE12EF12CF7
:104A5000F194E194F1084F3FFFEF5F0731F4F60165
:104A60009082B6016F5F7F4F6B01841795074CF002
:104A70002417350734F4BD01660D771DFB01118144
:104A800001C010E341505109FFEF6F1A7F0AB601D0
:104A90006F5F7F4F4E155F0524F0F60110836B01A9
:104AA000DACF4817590739F4063320F4053319F4DF
:104AB000A11001C011E3F6011083FB018B2D90E2E0
:104AC000882319F091938150FBCFFB01EB0DF11D71
:104AD000108280E090E029960FB6F894DEBF0FBEFA
:104AE000CDBFDF91CF911F910F91FF90EF90DF909D
:104AF000CF90BF90AF909F907F906F900895283097
:104B000008F027E03327DA01990F311D87FD916006
:104B100000966105710539F432602E5F3D9330E3F4
:104B20002A95E1F708959F3F30F0803871056105BF
:104B300009F03C5F3C5F3D93913008F08068911D27
:104B4000DF93CF931F930F93FF92EF92192F987FCC
:104B50009695E92F96959695E90FFF27EC56FC4F11
:104B600099273327EE24FF24A701E7010590089435
:104B7000079428F4360FE71EF81E491F511D660FD3
:104B8000771F881F991F0694A1F70590079428F4B2
:104B9000E70EF81E491F561FC11D770F881F991F6A
:104BA000661F0694A1F70590079428F4F80E491F94
:104BB000561FC71FD11D880F991F661F771F0694A8
:104BC000A1F70590079420F4490F561FC71FD81F5F
:104BD000990F661F771F881F0694A9F78491109577
:104BE000177041F0D695C79557954795F794E79478
:104BF0001A95C1F7EAE3F3E06894159015913591A1
:104C00006591959105907FE27395E118F10A430B48
:104C1000560BC90BD009C0F7E10CF11E431F561FFC
:104C2000C91FD01D7EF4703311F48A95E6CFE89445
:104C3000015030F0080F0AF40027021708F4202F63
:104C40002395022F7A3328F079E37D932A95E9F7AB
:104C500010C07D932A9589F60694979567953795A8
:104C600017951794E118F10A430B560BC90BD0099D
:104C700098F023957E9173957A3308F070E37C93D6
:104C80002013B8F77E9170617D9330F0839571E3C6
:104C90007D9370E32A95E1F71124EF90FF900F9137
:104CA0001F91CF91DF91992787FD90950895DC01A1
:104CB000FC01672F71917723E1F7329704C07C9153
:104CC0006D9370836291AE17BF07C8F3089514E027
:104CD000C8E3D4E000E006C022970109FE010BBF43
:104CE0000E942421CA33D10780E00807A9F7F8946D
:024CF000FFCFF4
:104CF20000003304800001000000244454500044AA
:104D02004F3A2000544F3A2000464C3A2000465277
:104D12003A20005452410046002444500A002452D2
:104D2200500024525030002452503030002453504E
:104D32000A002449500A0000000000311AB51B8401
:084D4200199D198F190F1A00C9
:00000001FF
