:100000000C941D020C94A3160C94D4160C94051792
:100010000C9436170C9467170C9498170C94C91706
:100020000C94FA170C944E020C944E020C944E024F
:100030000C944E020C944E020C944E020C944E0200
:100040000C944E020C9411140C944E020C944E021B
:100050000C944E020C944E020C944E020C942B18ED
:100060000C944E020C94D91C0C940F1D0C944E024F
:100070000C944E020C944E020C944E020C944E02C0
:100080000C943F140C944E020C944E020C944E02AD
:100090000C944E020C944E020C944E020C944E02A0
:1000A0000C944E020C944E020C946D140C944E025F
:1000B0000C944E020C944E020C944E020C949B1421
:1000C0000C944E020C944E020C944E020C944E0270
:1000D0000C944E020C944E020C944E020C944E0260
:1000E0000C944E027D1647164F165B16681689163D
:1000F0009616541959195E1968197219EB197C1959
:1001000084198C199619A019AA19B919C319EB19D0
:10011000CD19D719E1190D1A101AFF19031A091A66
:10012000471A141A181A1E1A221A261A2C1A301ACA
:10013000341A471A3A1A3E1A421A0C947E1B0C942F
:1001400096160C94181A0C94101A0C9458020C94CD
:1001500054020C9450020C94AA190C9489160C9415
:10016000EB190C948C190C94B9190C94E1190C949A
:1001700054190C945C020C9468190C94261A0C9473
:10018000341A0C940D1A0C94221A0C94091A0C941B
:10019000391D0C94651B0C94F01B0C94A0190C9445
:1001A000701B0C94FF190C947C190C94431D0C9437
:1001B000D7190C9484190C943A1A0C941E1A0C94A6
:1001C0005E190C9447160C944F160C94471A0C9415
:1001D000961D0C94C3190C9472190C942C1A0C943F
:1001E000141A0C944F040C94921B0C9496190C94B2
:1001F000301A0C945B160C9459190C94031A0C9435
:10020000121C0C947D160C943E1A0C94421A0C94F9
:10021000CD190C9461040C94681600000A0B0209B5
:100220000C0D0E0807030401000000000000000090
:1002300000000000000000000000000000000000BE
:10024000000000000000121110000000000000007B
:10025000000000000000000000000000000000009E
:1002600001021020200808102040102040800201C8
:1002700002010804020101020408102040808040AD
:1002800020100804020180040201804020100804AC
:10029000020108040201010204081020408001024A
:1002A0000408102040800505050507050808080812
:1002B000020202020A0A08080404040401010101FE
:1002C00001010101030303030303030304070707F9
:1002D0000C0C0C0C0C0C0C0C02020202060606069E
:1002E000060606060B0B0B0B0B0B0B0B000020007E
:1002F0002300260029002C002F00320000010000FE
:1003000003010601090100002200250028002B003E
:100310002E003100340002010000050108010B012C
:1003200000002100240027002A002D0030003300A7
:1003300001010000040107010A0100407A10F35A8C
:1003400000A0724E18090010A5D4E80000E8764815
:10035000170000E40B54020000CA9A3B000000E1C1
:10036000F505000080969800000040420F00000054
:10037000A08601000000102700000000E803000034
:1003800000006400000000000A00000000000100FE
:10039000000000002C76D888DC674F0823DFC1DF1F
:1003A000AE59E1B1B796E5E3E453C63AE651997622
:1003B00096E8E6C28426EB898C9B62ED407C6FFC5C
:1003C000EFBC9C9F40F2BAA56FA5F490055A2AF79E
:1003D0005C936B6CF9676DC11BFCE0E40D47FEF5A7
:1003E00020E6B500D0ED902E03009435770500800F
:1003F000841E080000204E0A000000C80C3333336E
:10040000330F986E12831141EF8D2114893BE6550D
:1004100016CFFEE6DB18D1844B381BF77C1D901DF0
:10042000A4BBE424203284725E228100C9F124EC52
:10043000A1E53D274F04431D610411241FBECFEFEA
:10044000D1E2DEBFCDBF00E00CBF12E0A0E0B2E021
:10045000E0E9F0E500E00BBF02C007900D92AE3876
:10046000B107D9F724E0AEE8B2E001C01D92AB3687
:10047000B207E1F714E0C8E3D4E000E006C0229739
:100480000109FE010BBF0E94F322C433D10780E0B3
:100490000807A9F70E94871D0C9436280C940000C9
:1004A0008EE892E00C9442048EE892E00C944504AD
:1004B0008EE892E00C9448048EE892E00C944B0491
:1004C0008EE892E00E94840242E050E060E572E033
:1004D00082E00E94321642E050E064E572E083E080
:1004E0000E94321642E050E068E572E085E00E942A
:1004F000321642E050E06CE572E084E00C94321673
:100500008EE892E00C94EC0EAF92BF92CF92DF9205
:10051000EF92FF920F931F93CF93DF93CDB7DEB788
:100520002E970FB6F894DEBF0FBECDBF5C01CE0193
:1005300001960E94490F8EE0FE013196D50101908F
:100540000D928A95E1F7F501EC5AFF4F1182108266
:1005500024E030E040E050E068E672E483E193E0BC
:100560000E941F13F501E658FF4F11821082329648
:1005700011821082329681E080833196118210823E
:100580003296108211821282138285E1C82ED12CFC
:1005900098E1E92EF12C00E010E021E030E040E0AD
:1005A00058E062E070E0C50140960E94980F24E197
:1005B000C22ED12C39E1E32EF12C01E010E021E034
:1005C00030E040E058E063E070E0C50181960E94B1
:1005D000980F43E1C42ED12C5BE1E52EF12C00E015
:1005E00010E020E030E040E250E064E070E0C5015F
:1005F000C2960E94980F62E1C62ED12C7AE1E72EB6
:10060000F12C01E010E020E030E040E250E065E055
:1006100070E0C5018D5B9F4F0E94980F00E010E0D5
:100620002FE130E04EE150E067E070E0C5018A5A0A
:100630009F4F0E947D0F01E010E021E230E040E298
:1006400050E068E070E0C5018F599F4F0E947D0F18
:1006500061E087E00E94481A61E08EE10E94481A3A
:1006600061E088E00E94481A61E080E20E94481A36
:1006700060E087E00E94811A60E088E00E94811AB1
:1006800069E070E0C50181599F4F0E9494156AE0AE
:1006900070E0C50184599F4F0E94941561E08DE080
:1006A0000E94481AF501E758FF4F10826EE072E091
:1006B000C5018E589F4F0E94F31EF501E858FF4F69
:1006C000108226E040E052EC61E070E089EC93E0BB
:1006D0000E94771C2E960FB6F894DEBF0FBECDBFDA
:1006E000DF91CF911F910F91FF90EF90DF90CF900E
:1006F000BF90AF9008950F931F93CF93DF938B011B
:1007000064EF71E080E090E00E94A418C0E0D0E0C7
:10071000C017D10704F560E08DE00E94811A6AEFEE
:1007200070E080E090E00E94A41861E08DE00E94FB
:10073000811A6AEF70E080E090E00E94A41860E007
:100740008DE00E94811A6AEF70E080E090E00E94E4
:10075000A4182196DDCFDF91CF911F910F910895BD
:10076000EF92FF920F931F93CF93DF93EC0181964B
:100770000E943110CE0140960E9431107E0181E628
:10078000E80EF11C60E070E0C7010E94920F8E013C
:100790000A5A1F4F61E070E0C8010E94920F66E4A0
:1007A00070E0C7010E948E0F66E470E0C8010E94ED
:1007B0008E0F68E57BE180E090E00E94A41860E085
:1007C00070E0C7010E948E0F60E070E0C8010E94D7
:1007D0008E0F60E070E0CE018D5B9F4F0E943C1059
:1007E00060E070E0CE01C2960E943C106AE072E0C8
:1007F00089EC93E0DF91CF911F910F91FF90EF90E3
:100800000C94E21D0F931F93CF93DF93EC018C01A7
:100810000A5A1F4F60E070E0C8010E94920FCF5942
:10082000DF4F61E070E0CE010E94920F67E370E05D
:10083000C8010E948E0F62E370E0CE010E948E0F0D
:100840006AE072E089EC93E0DF91CF911F910F9104
:100850000C94E21DCF93DF93EC0160E070E08A5AC4
:100860009F4F0E948E0F60E070E0CE018F599F4F26
:100870000E948E0F6AE072E089EC93E0DF91CF91E5
:100880000C94E21D40960C94C30F81960C94C30FF8
:10089000C2960C94C30F8D5B9F4F0C94C30F8EE8D0
:1008A00092E00E94490F8AEF92E00E94C9148DEFF6
:1008B00092E00E94C9146EE072E080E093E00C9434
:1008C000C61E80E093E00C94581E2F923F924F92E8
:1008D0005F926F927F928F929F92AF92BF92CF92D0
:1008E000DF92EF92FF920F931F93CF93DF93CDB7D9
:1008F000DEB7C85BD1090FB6F894DEBF0FBECDBF1F
:100900001C016EE072E0CE0181589F4F0E94C61E0E
:100910003E0125E9620E711CF301108211821282E0
:1009200013829E012F563F4FC756DF4F39832883CE
:10093000C959D040CF56DF4F188219821A821B82C4
:10094000C159D040AE0143575F4FC556DF4F598361
:100950004883CB59D040C357DF4F188219821A827F
:100960001B82CD58D040CE0187579F4FC356DF4FD3
:1009700099838883CD59D040C757DF4F1882198299
:100980001A821B82C958D04080E090E0A6E9B3E407
:10099000CB57DF4F88839983AA83BB83C558D04048
:1009A000F101EE58FF4FC156DF4FF983E883CF596D
:1009B000D04062E070E0CF010E94F31FFC01808113
:1009C0008C3439F0823509F479C1823409F0A9C335
:1009D00090C79101205F3F4FCD55DF4F398328836A
:1009E000C35AD040C9010E943910A1014F5D5F4F29
:1009F000CB55DF4F59834883C55AD040CA010E9466
:100A00003910410151E6850E911C61E070E0C4018E
:100A10000E94920FC1018A5A9F4FCF55DF4F998391
:100A20008883C15AD04061E070E00E94920F26E0B6
:100A300030E043E050E0C156DF4F68817981CF5903
:100A4000D0408E010F5F1F4FC8010E940520B801E2
:100A5000CE0181589F4F0E94DC1EC8010E94581E83
:100A6000CE0181589F4F0E944A200E945A215B016B
:100A70006C01F101EF57FF4FC156DF4FF983E88357
:100A8000CF59D04020E030E04AE754E40E940E22E3
:100A900025E33AEF4EE85CE30E940E229B01AC0195
:100AA000C156DF4FE881F981CF59D0406081718113
:100AB000828193810E9456202B013C017E01FAE342
:100AC000EF0EF11C22E0B601A501C7010E94371FFD
:100AD0006FE072E0C8010E94C61EB701C8010E9403
:100AE000A71FBC0189EC93E00E94FF1DC8010E9472
:100AF000581EC7010E94581E22E0B301A201C7017F
:100B00000E94371F64E172E0C8010E94C61EB7014F
:100B1000C8010E94A71FBC0189EC93E00E94FF1D41
:100B2000C8010E94581EC7010E94581E91012E5CE8
:100B30003F4F5901A1014D5B5F4F6A01A301920133
:100B4000C156DF4FE881F981CF59D0406081718172
:100B5000828193810E940A2218160CF021C269E159
:100B600070E080E090E00E94A418C5010E94F00FA0
:100B7000BC01C601C954DF4F6883C75BD040C8546D
:100B8000DF4F7883C85BD0400E94F00F1C014AE021
:100B9000C954DF4F6881C75BD040C854DF4F7881AC
:100BA000C85BD040C7010E940B1F69E172E0C80119
:100BB0000E94C61EB701C8010E94A71FBC0189EC94
:100BC00093E00E94FF1DC8010E94581EC7010E94A9
:100BD000581E4AE0B101C7010E940B1F6EE172E08E
:100BE000C8010E94C61EB701C8010E94A71FBC0110
:100BF00089EC93E00E94FF1DC8010E94581EC701A6
:100C00000E94581EC5010E94F00F1C01C6010E94DF
:100C1000F00FB101681B790B882777FD8095982F1D
:100C20000E945A2120E030E040E05FE30E940E2263
:100C300020E030E04AE754E40E940E2220E030E059
:100C40004CE553E40E94BF202DEC3CEC4CE050E41A
:100C50000E94BF20AB01BC01C156DF4FE881F98182
:100C6000CF59D040408351836283738322E0C70110
:100C70000E94371F60E172E0C8010E94C61EB701E2
:100C8000C8010E94A71FBC0189EC93E00E94FF1DD0
:100C9000C8010E94581EC7010E94581E6FEF70E0E5
:100CA000C4010E948E0F6FEF70E0CF55DF4F888137
:100CB0009981C15AD0400E948E0F40CF9101205F90
:100CC0003F4FCD55DF4F39832883C35AD040C901E8
:100CD0000E943910A1014F5D5F4FCB55DF4F598303
:100CE0004883C55AD040CA010E943910410151E6DB
:100CF000850E911C60E070E0C4010E94920FC1015A
:100D00008A5A9F4FCF55DF4F99838883C15AD0406D
:100D100060E070E00E94920F26E030E043E050E097
:100D2000C156DF4F68817981CF59D0408E010F5F66
:100D30001F4FC8010E940520B801CE0181589F4F66
:100D40000E94DC1EC8010E94581ECE0181589F4F90
:100D50000E944A200E945A215B016C01F101EF5769
:100D6000FF4FC156DF4FF983E883CF59D04020E0D1
:100D700030E04AE754E40E940E2225E33AEF4EE8C1
:100D80005CE30E940E22C156DF4FE881F981CF5902
:100D9000D04020813181428153810E9457202B0114
:100DA0003C017E01FAE3EF0EF11C22E0B601A50141
:100DB000C7010E94371F6FE072E0C8010E94C61E83
:100DC000B701C8010E94A71FBC0189EC93E00E94F3
:100DD000FF1DC8010E94581EC7010E94581E22E034
:100DE000B301A201C7010E94371F64E172E0C8018C
:100DF0000E94C61EB701C8010E94A71FBC0189EC52
:100E000093E00E94FF1DC8010E94581EC7010E9466
:100E1000581E91012E5C3F4F5901A1014D5B5F4F60
:100E20006A01A3019201C156DF4FE881F981CF59D0
:100E3000D04060817181828193810E94BB2087FFB5
:100E4000AFC069E170E080E090E00E94A418C501A5
:100E50000E94F00FBC01C601C954DF4F6883C75B15
:100E6000D040C854DF4F7883C85BD0400E94F00F59
:100E70001C014AE0C954DF4F6881C75BD040C854A9
:100E8000DF4F7881C85BD040C7010E940B1F69E12A
:100E900072E0C8010E94C61EB701C8010E94A71FC8
:100EA000BC0189EC93E00E94FF1DC8010E94581EFE
:100EB000C7010E94581E4AE0B101C7010E940B1FE2
:100EC0006EE172E0C8010E94C61EB701C8010E940F
:100ED000A71FBC0189EC93E00E94FF1DC8010E947E
:100EE000581EC7010E94581EC5010E94F00F1C0128
:100EF000C6010E94F00FB101681B790B882777FDAE
:100F00008095982F0E945A2120E030E040E05FE376
:100F10000E940E2220E030E04AE754E40E940E22B4
:100F200020E030E04CE553E40E94BF202DEC3CEC87
:100F30004CE050E40E94BF20AB01BC01C156DF4F22
:100F4000E881F981CF59D040408351836283738314
:100F500022E0C7010E94371F60E172E0C8010E94D1
:100F6000C61EB701C8010E94A71FBC0189EC93E00F
:100F70000E94FF1DC8010E94581EC7010E94581EF2
:100F80006FEF70E0C4010E948E0F6FEF70E0CF55DD
:100F9000DF4F88819981C15AD0400E948E0F41CF86
:100FA00060E070E0C4010E948E0F60E070E0CF55F9
:100FB000DF4F88819981C15AD0400E948E0F68EC22
:100FC00070E080E090E00E94A418C5010E94F00F3C
:100FD0007C01C6010E94F00F8C014AE0B701CE01EE
:100FE000CA960E940B1F69E172E0CE0101960E9431
:100FF000C61EBE01665C7F4FCE0101960E94A71FF0
:10100000BC0189EC93E00E94FF1DCE0101960E9475
:10101000581ECE01CA960E94581E4AE0B801CE0161
:10102000CA960E940B1F6EE172E0CE0101960E94EB
:10103000C61EBE01665C7F4FCE0101960E94A71FAF
:10104000BC0189EC93E00E94FF1DCE0101960E9435
:10105000581ECE01CA960E94581EC5010E94F00F6C
:101060008C01C6010E94F00FB801681B790B88271C
:1010700077FD8095982F0E945A2120E030E040E0D3
:101080005FE30E940E2220E030E04AE754E40E9431
:101090000E2220E030E04CE553E40E94BF202DEC0E
:1010A0003CEC4CE050E40E94BF20AB01BC01C156B7
:1010B000DF4FE881F981CF59D0404083518362836B
:1010C000738322E0CE01CA960E94371F60E172E06E
:1010D000CE0101960E94C61EBE01665C7F4FCE0106
:1010E00001960E94A71FBC0189EC93E00E94FF1D9E
:1010F000CE0101960E94581ECE01CA960E94581E2B
:10110000CD55DF4F88819981C35AD0400E94351058
:10111000CB55DF4F88819981C55AD0400E94351048
:10112000E8C34E01FAE38F0E911C1F921F922CE32D
:101130002F93F3E25F2E5F92A7ED4A2E4F923AE093
:101140003F93BDECAB2EBCECBB2ECB2CBDE3DB2E1A
:10115000E12CF12C00E01FE39E012B573F4FAE0125
:1011600043575F4FB301C4010E94B2121F921F92F6
:101170004CE34F935F924F925AE05F939E012B573F
:101180003F4FAE0147575F4FBE016F567F4FCE01B5
:1011900001962C010E94B21261E070E0C4010E942D
:1011A000601261E070E0C2010E946012F101EF592B
:1011B000FF4FCF55DF4FF983E883C15AD04061E03C
:1011C00070E0CF010E94920F91012A5A3F4FCD55F6
:1011D000DF4F39832883C35AD04060E070E0C901F3
:1011E0000E94920F60E070E0CF55DF4F88819981B7
:1011F000C15AD0400E948E0F60E070E0CD55DF4FA5
:1012000088819981C35AD0400E948E0F26E030E039
:1012100043E050E0C156DF4F68817981CF59D0401B
:10122000CE018D589F4F0E940520BE016D587F4F03
:10123000CE0181589F4F0E94DC1ECE018D589F4FDA
:101240000E94581E63E272E0CE0181589F4F0E94B7
:10125000D41F0FB6F894DEBF0FBECDBF882339F080
:10126000C1010E94B003CE0181589F4F55C3CE01EA
:1012700081589F4F0E944A202AE0269FF001279F15
:10128000F00D1124CB55DF4FF983E883C55AD040C8
:10129000F101E158FF4F80819181CB55DF4F4881AB
:1012A0005981C55AD040480F591FCB55DF4F59833C
:1012B0004883C55AD04000E010E0C955DF4FF9839C
:1012C000E883C75AD040C1014096C355DF4F998388
:1012D0008883CD5AD040EE55F109C155DF4FF983CF
:1012E000E883CF5AD04091012E5C3F4FCF54DF4F5F
:1012F00039832883C15BD040A1014D5B5F4FC75547
:10130000DF4F59834883C95AD040CD54DF4F88827C
:10131000C35BD040CC54DF4F9882C45BD040CB54E9
:10132000DF4F4882C55BD040CA54DF4F5882C65B4E
:10133000D040C955DF4FE881F981C75AD04080813C
:101340009181CB55DF4F28813981C55AD040821712
:1013500093070CF0BAC262E370E080E090E00E9474
:10136000A418C355DF4F88819981CD5AD0400E947F
:10137000F00F5C01C155DF4F88819981CF5AD04071
:101380000E94F00F4C01CF54DF4F88819981C15BDF
:10139000D0400E94F00F7C01C755DF4F88819981B2
:1013A000C95AD0400E94F00F6C0166E070E0C1564F
:1013B000DF4F88819981CF59D0400E94F31FFC01F3
:1013C0008081863441F461E08DE00E94811AC7017A
:1013D0008C0D9D1D07C060E08DE00E94811AC50143
:1013E000880D991D97FD019695958795C955DF4FF5
:1013F000E881F981C75AD04091838083C755DF4F78
:1014000088819981C95AD0400E943110033011055A
:1014100009F094C04AE0B701CE0187589F4F0E945F
:101420000B1F67E272E0CE018D589F4F0E94C61ECF
:10143000BE0167587F4FCE018D589F4F0E94A71F56
:10144000BC0189EC93E00E94FF1DCE018D589F4F97
:101450000E94581ECE0187589F4F0E94581E4AE096
:10146000B601CE0187589F4F0E940B1F6EE272E0BB
:10147000CE018D589F4F0E94C61EBE0167587F4FF8
:10148000CE018D589F4F0E94A71FBC0189EC93E0AD
:101490000E94FF1DCE018D589F4F0E94581ECE0105
:1014A00087589F4F0E94581E4AE0B501CE018758C9
:1014B0009F4F0E940B1F65E372E0CE018D589F4F36
:1014C0000E94C61EBE0167587F4FCE018D589F4FA8
:1014D0000E94A71FBC0189EC93E00E94FF1DCE0172
:1014E0008D589F4F0E94581ECE0187589F4F0E94D3
:1014F000581E4AE0B401CE0187589F4F0E940B1F2F
:101500006CE372E0CE018D589F4F0E94C61EBE0153
:1015100067587F4FCE018D589F4F0E94A71FBC0177
:1015200089EC93E00E94FF1DCE018D589F4F0E94D1
:10153000581ECE0187589F4F0E94581EC1010E941D
:10154000610F5701A81AB90AC1010E94650F9601DF
:10155000281B390BC555DF4F39832883CB5AD04020
:10156000B601C1010E946D0FB701C1010E94690F50
:101570000E9481182B013C01C1010E94770FA30139
:101580009201261B370B480B590BCA01B9010E9467
:10159000582120E030E04AE754E40E94BF206B016C
:1015A0007C01B301A201C1010E94710FB50188271E
:1015B00077FD8095982F0E945A2120E030E04AE77D
:1015C00054E40E940E22A70196010E94BF204B0105
:1015D0005C01CB56DF4F688379838A839B83C5592F
:1015E000D040C555DF4F48815981CB5AD040BA0110
:1015F000882777FD8095982F0E945A2120E030E0BF
:101600004AE754E40E940E22A70196010E94BF20DF
:10161000CF56DF4F688379838A839B83C159D0403B
:101620000330110509F0ACC022E0B501A401CE01E0
:1016300087589F4F0E94371F63E472E0CE018D5898
:101640009F4F0E94C61EBE0167587F4FCE018D5826
:101650009F4F0E94A71FBC0189EC93E00E94FF1DD1
:10166000CE018D589F4F0E94581ECE0187589F4F24
:101670000E94581ECF56DF4F488159816A817B8175
:10168000C159D04022E0CE0187589F4F0E94371F9A
:101690006BE472E0CE018D589F4F0E94C61EBE01C2
:1016A00067587F4FCE018D589F4F0E94A71FBC01E6
:1016B00089EC93E00E94FF1DCE018D589F4F0E9440
:1016C000581ECE0187589F4F0E94581EC357DF4FA8
:1016D000488159816A817B81CD58D04022E0CE017A
:1016E00087589F4F0E94371F63E572E0CE018D58E7
:1016F0009F4F0E94C61EBE0167587F4FCE018D5876
:101700009F4F0E94A71FBC0189EC93E00E94FF1D20
:10171000CE018D589F4F0E94581ECE0187589F4F73
:101720000E94581EC757DF4F488159816A817B81CB
:10173000C958D04022E0CE0187589F4F0E94371FE2
:101740006CE572E0CE018D589F4F0E94C61EBE010F
:1017500067587F4FCE018D589F4F0E94A71FBC0135
:1017600089EC93E00E94FF1DCE018D589F4F0E948F
:10177000581ECE0187589F4F0E94581E00E010E06F
:10178000CD54DF4F8881C35BD040CC54DF4F98816C
:10179000C45BD0400E944710CB54DF4F8881C55BAB
:1017A000D040CA54DF4F9881C65BD0400E9447109A
:1017B00020E030E04AE753E4C357DF4F6881798186
:1017C0008A819B81CD58D0400E940A22181664F469
:1017D00080E090E0AAE7B3E4C357DF4F88839983A2
:1017E000AA83BB83CD58D04020E030E04AE753E4E1
:1017F000C757DF4F688179818A819B81C958D04062
:101800000E940A22181664F480E090E0AAE7B3E48C
:10181000C757DF4F88839983AA83BB83C958D040B9
:1018200020E030E0A901C357DF4F688179818A81C8
:101830009B81CD58D0400E94BB2087FF08C0C35772
:10184000DF4F188219821A821B82CD58D04020E0C7
:1018500030E0A901C757DF4F688179818A819B8178
:10186000C958D0400E94BB2087FF08C0C757DF4F30
:10187000188219821A821B82C958D040C357DF4F81
:10188000688179818A819B81CD58D0400E9427212F
:10189000CD55DF4F88819981C35AD0400E948E0F69
:1018A000C757DF4F688179818A819B81C958D040B1
:1018B0000E942721CF55DF4F88819981C15AD0409E
:1018C0000E948E0F0F5F1F4F34CD60E070E0CF5548
:1018D000DF4F88819981C15AD0400E948E0F60E00D
:1018E00070E0CD55DF4F88819981C35AD0400E9466
:1018F0008E0F68EC70E080E090E00E94A4186AE02F
:1019000072E089EC93E00E94E21D89EC93E00E9472
:10191000F01BCE0181589F4F0E94581EC854DF4FC4
:101920000FB6F894DEBF0FBECDBFDF91CF911F91F0
:101930000F91FF90EF90DF90CF90BF90AF909F906E
:101940008F907F906F905F904F903F902F90089571
:101950008F929F92AF92BF92CF92DF92EF92FF92BF
:101960000F931F93CF93DF93CDB7DEB72C970FB6AE
:10197000F894DEBF0FBECDBF8C016EE072E0CE01E9
:1019800007960E94C61E83E193E00E9431136C010A
:1019900058012EE7A20EB11CF50180819801245850
:1019A0003F4F79018823D1F083E193E00E94311306
:1019B0004C0183E193E00E9431139601280D391DFB
:1019C000280F391FC90163E070E00E948D22645125
:1019D0007109F70171836083F5011082F70120819D
:1019E00031812C193D09F801E658FF4F37FD03C03E
:1019F0003183208302C011821082608171814AE0AC
:101A0000CE0101960E940B1FBE016F5F7F4FCE017A
:101A100007960E94DC1ECE0101960E94581E8B85FF
:101A20009C858330910519F465E672E007C0029742
:101A300019F469E672E002C06EE672E0CE0101962A
:101A40000E94C61EBE01695F7F4FCE0101960E94B3
:101A5000A71F6DE072E00E94BA1FBC0189EC93E001
:101A60000E94D41DCE0101960E94581E89EC93E07D
:101A70000E94F01BCE0107960E94581E2C960FB6AE
:101A8000F894DEBF0FBECDBFDF91CF911F910F91B4
:101A9000FF90EF90DF90CF90BF90AF909F908F908E
:101AA0000895CF93DF93CDB7DEB72C970FB6F89498
:101AB000DEBF0FBECDBF6EE072E0CE0107960E9482
:101AC000C61E83E193E00E9431134AE0BC01CE01BF
:101AD00001960E940B1FBE016F5F7F4FCE010796DC
:101AE0000E94DC1ECE0101960E94581E8B859C85AB
:101AF0008330910519F465E672E007C0029719F486
:101B000069E672E002C06EE672E0CE0101960E94C4
:101B1000C61EBE01695F7F4FCE0101960E94A71FBE
:101B20006DE072E00E94BA1FBC0189EC93E00E9454
:101B3000D41DCE0101960E94581E89EC93E00E94AC
:101B4000F01BCE0107960E94581E2C960FB6F894F3
:101B5000DEBF0FBECDBFDF91CF91089563E070E08F
:101B60000E947B0364E772E089EC93E00E94E21D2F
:101B700089EC93E00C94F01B4F925F926F927F92EE
:101B80008F929F92AF92BF92CF92DF92EF92FF928D
:101B90000F931F93CF93DF93CDB7DEB72C970FB67C
:101BA000F894DEBF0FBECDBF8C015C0182E7A80EAA
:101BB000B11C24E030E043E050E0B501CE010796CF
:101BC0000E940520CE0107960E944A200E945A21B9
:101BD0006B017C0126E030E045E050E0B501CE012C
:101BE00001960E940520BE016F5F7F4FCE010796D0
:101BF0000E94DC1ECE0101960E94581ECE0107965F
:101C00000E944A200E945A212B013C0162E070E0B0
:101C1000C5010E94F31FFC0180818B3251F420E04A
:101C200030E044EB52E4C701B6010E9457206B013B
:101C30007C0120E030E040E151E4C301B2010E94A8
:101C40000E224B015C0122E73CE147E05FE3C70164
:101C5000B6010E940E2220E030E84DE654E40E94D6
:101C600057200E942721C80184599F4F0E94CD15FB
:101C70006FE070E080E090E00E94A41820E030E87F
:101C800042E254E4C501B4010E9457200E9427217A
:101C9000C80181599F4F0E94CD156FE070E080E030
:101CA00090E00E94A41869E772E089EC93E00E943A
:101CB000E21D89EC93E00E94F01BCE0107960E9482
:101CC000581E2C960FB6F894DEBF0FBECDBFDF9125
:101CD000CF911F910F91FF90EF90DF90CF90BF9029
:101CE000AF909F908F907F906F905F904F900895EE
:101CF0000F931F93CF93DF93EC018C010E581F4F6E
:101D000061E070E0C8010E94F31FFC01808189340A
:101D100009F454C0823521F0843409F056C017C04C
:101D200062E070E0C8010E94F31FFC0180818434EE
:101D300039F4CE01DF91CF911F910F910C94510D89
:101D4000CE01DF91CF911F910F910C94A80C62E00E
:101D500070E0C8010E94F31FFC018081843539F5D1
:101D600063E070E0C8010E94F31FFC0180818734AA
:101D700039F4CE01DF91CF911F910F910C940204A1
:101D800063E070E0C8010E94F31FFC01808183358D
:101D900039F4CE01DF91CF911F910F910C942A0459
:101DA000CE01DF91CF911F910F910C94B003CE0122
:101DB000DF91CF911F910F910C946504CE01DF91BB
:101DC000CF911F910F910C94BC0DCE01DF91CF915B
:101DD0001F910F910C94AE0DBF92CF92DF92EF92B4
:101DE000FF920F931F93CF93DF93EC018C01075861
:101DF0001F4F7C0182E7E80EF11C6E01E8E7CE0E72
:101E0000D11CBB24B39489EC93E00E94651B181687
:101E100019068CF489EC93E00E947E1BF801808304
:101E2000682FC7010E94931FF80180818A3059F7FB
:101E3000F601B082E8CF64E670E080E090E00E94B6
:101E4000A4188E0108581F4FF80180818823B9F02B
:101E50007E01F2E7EF0EF11C60E070E0C7010E9426
:101E6000F31FFC018081843251F4CE010E94780E70
:101E70006EE072E0C7010E94F31EF8011082DF914C
:101E8000CF911F910F91FF90EF90DF90CF90BF9077
:101E90000895CF93DF93EC0181E090E099838883EC
:101EA0001B821A821D821C821F821E82198618863E
:101EB0000E9481186A877B878C879D87DF91CF91ED
:101EC0000895FC01828193810895FC0184819581AC
:101ED0000895FC01738362830895FC017583648314
:101EE0000895FC0142875387648775870895FC0134
:101EF000628573858485958508950F931F93FC01F2
:101F000071836083538342833583248317821682CF
:101F10001286118700871F910F910895FC0180811F
:101F20000C942E19FC016087718782810C94811AB0
:101F3000CF92DF92EF92FF920F931F93FC01718378
:101F40006083538342833187208713870287E68625
:101F5000F786C486D586148215821682178281E0A0
:101F6000808B60E08C2D0E94481A61E08C2D0E94CD
:101F7000811A60E08E2D1F910F91FF90EF90DF90FE
:101F8000CF900C94481ACF93DF93EC018889882373
:101F900021F18A859B85892B51F48E850E94B71A81
:101FA0004C815D816E817F81019751F40EC08E85D9
:101FB0000E94B71A4C815D816E817F81019729F45F
:101FC0004F5F5F4F6F4F7F4F04C041505109610910
:101FD00071094C835D836E837F83DF91CF91089578
:101FE000CF92DF92EF92FF92CF93DF93EC016C815F
:101FF0007D818E819F81660F771F881F991F0E94A8
:102000005A212BED3FE049E450E40E940E226B017F
:102010007C016A817B81882777FD8095982F0E94BB
:102020005A219B01AC01C701B6010E94BF2028853F
:102030003985232B31F420E030E04CE852E40E9453
:10204000BF2020E030E04FEB52E40E940E220E94BD
:102050002721CB01DF91CF91FF90EF90DF90CF90C0
:102060000895FC0184819581089521E0FC01208B75
:102070000895FC01108A0895AB01662757FD60950D
:10208000762FFC01448355836683778308952F92CE
:102090003F924F925F926F927F928F929F92AF92F8
:1020A000BF92CF92DF92EF92FF920F931F93CF9345
:1020B000DF93CDB7DEB72B970FB6F894DEBF0FBE18
:1020C000CDBF9B878A87DC01D896BC91B983B111BB
:1020D00002C01982E2C00E9475186A837B838C83D8
:1020E0009D83EA85FB8580A191A1A2A1B3A14A812C
:1020F0005B816C817D81481B590B6A0B7B0B84A52E
:1021000095A5A6A5B7A5481759076A077B0708F341
:10211000028CF38DE02D80809180A280B380AA850F
:10212000BB855E96ED91FC915F97A501940160815E
:102130007181828193810E9456202B013C01EA85A6
:10214000FB8520893189428953890E940E22AA8504
:10215000BB8594962D913D914D915C9197970E94EE
:1021600057206B017C01EA85FB8564A375A386A3D8
:1021700097A324A835A806A917A99101A8010E9430
:102180000A2218161CF4C101D80118C0AA85BB8503
:10219000D0968D919D910D90BC91A02D8E839F83A3
:1021A000A887B9879C01AD01C701B6010E94BB2079
:1021B00087FF0AC08E819F81A885B985EA85FB8546
:1021C00084A395A3A6A3B7A3AA85BB851C962D912E
:1021D0003D914D915C911F97C301B2010E940E2267
:1021E000EA85FB8524A135A146A157A10E9457206D
:1021F0006B017C01AA85BB8598962D913D914D91EF
:102200005C919B97C501B4010E945620EA85FB852D
:1022100024893589468957890E940E229B01AC0189
:10222000C701B6010E9456206B017C019101A801F3
:102230000E940A221816BCF0AA85BB85D0962C9065
:10224000D097D1963C90D197D2960C91D297D396B5
:102250001C919101A801B601C7010E94BB2087FD16
:1022600002C016018701AA85BB855C96ED91FC91A1
:102270005D97C101D80180839183A283B383EA85EE
:10228000FB8580A691A6A2A6B3A68A819B81AC817C
:10229000BD8180A391A3A2A3B3A389812B960FB67E
:1022A000F894DEBF0FBECDBFDF91CF911F910F918C
:1022B000FF90EF90DF90CF90BF90AF909F908F9066
:1022C0007F906F905F904F903F902F9008952F9246
:1022D0003F924F925F926F927F928F929F92AF92B6
:1022E000BF92CF92DF92EF92FF920F931F93CF9303
:1022F000DF9300D01F92CDB7DEB71C012A013B014E
:102300004801590120E030E0A901C301B2010E9457
:10231000BB2087FD78C020E030E0A901C501B401F1
:102320000E94BB2087FD6FC020E030E0A901C701FB
:10233000B6010E94BB2087FD66C0F1014082518238
:102340006282738284829582A682B782C086D18699
:10235000E286F38664A575A586A597A50E945821F7
:1023600020E030E04AE754E40E94BF2069837A838A
:102370008B839C83F10144865586668677869B0114
:10238000AC01C501B4010E940E224B015C01F101B8
:10239000608B718B828B938B29813A814B815C811D
:1023A000C701B6010E94BF206B017C01F101648B63
:1023B000758B868B978B808D918D019721F5A3016D
:1023C000920160E070E0CB010E945620F101648729
:1023D000758786879787A501940160E070E0CB013F
:1023E0000E945620F101608B718B828B938BA70129
:1023F000960160E070E0CB010E945620F101648BF1
:10240000758B868B978B0F900F900F900F90DF91AD
:10241000CF911F910F91FF90EF90DF90CF90BF90E1
:10242000AF909F908F907F906F905F904F903F9074
:102430002F9008958F929F92AF92BF92CF92DF928A
:10244000EF92FF92CF93DF93EC01EC8DFD8DC08076
:10245000D180E280F380CCA2DDA2EEA2FFA2EA8DC1
:10246000FB8D80819181A281B38188A799A7AAA7BA
:10247000BBA78CA89DA8AEA8BFA8A5019401C701C1
:10248000B6010E940A22181664F088A899A8AAA882
:10249000BBA8A5019401C701B6010E94BB2087FF1C
:1024A00004C08CA29DA2AEA2BFA2DF91CF91FF90EB
:1024B000EF90DF90CF90BF90AF909F908F90089556
:1024C0001F93CF93DF93EC0111E06130710509F0A8
:1024D00010E088AD91E08927181303C0CE010E9457
:1024E0001A1218AFDF91CF911F9108950F931F9388
:1024F000CF93DF93EC018B0188AD882361F1888D48
:10250000998D6817790739F12C853D854E855F8552
:1025100060E070E0CB010E9456206C877D878E873B
:102520009F87288939894A895B8960E070E0CB01FF
:102530000E945620688B798B8A8B9B8B2C893D89D6
:102540004E895F8960E070E0CB010E9456206C8B61
:102550007D8B8E8B9F8B198F088FDF91CF911F9171
:102560000F9108954F925F926F927F928F929F92F8
:10257000AF92BF92CF92DF92EF92FF920F931F9391
:10258000CF93DF9300D01F92CDB7DEB74C01270168
:102590003801A982BA82CB82DC82FC01558F448F3C
:1025A000738F628F378F268F10AE10AA11AA12AACE
:1025B00013AA80E090E0AFE7B3E484AB95ABA6ABA1
:1025C000B7AB84E690E0A0E0B0E084A795A7A6A70B
:1025D000B7A76C8D7D8DC4010E947612C88CD98CF2
:1025E000EA8CFB8C09811A812B813C81B301A20109
:1025F000C4010E9467110E947518F40144A455A4F7
:1026000066A477A4641975098609970960A371A364
:1026100082A393A30F900F900F900F90DF91CF9113
:102620001F910F91FF90EF90DF90CF90BF90AF90F0
:102630009F908F907F906F905F904F900895CF9371
:10264000DF93EC01822F4A835B836C837D832E832F
:102650003F8360E00E94481A19821882DF91CF916F
:102660000895CF93DF93EC0120E432E44FE050E093
:1026700061E08E810E94E01A882777FD8095982F6F
:102680000E945A212A813B814C815D810E94BF209A
:102690000E94272179836883CB01DF91CF91089530
:1026A000CF92DF92EF92FF920F931F93CF93DF931E
:1026B0006C018B017A01EC01C45EDC4F888187FFDD
:1026C00004C0FB011182108223C02CE02C9DC001AC
:1026D0002D9D900D11242881AC01420F511D27FD25
:1026E0005A9520911B0330E0421753078CF4288140
:1026F000AC01420F511D27FD5A959A01FA01EE0FC8
:10270000FF1FE20FF31FE05EFC4F208126FD19C082
:1027100088818F5F88838CE08C9D90018D9D300D2A
:1027200011248881A901480F511D87FD5A95809178
:102730001B0390E048175907B4F488818C303CF1B2
:1027400012C02881820F911D27FD9A95FC01EE0F82
:10275000FF1FE80FF91FE05EFC4F808160E08F7380
:102760000E94811AD5CFF80180819181049680342E
:102770009C4918F480E49CE904C0F80180819181AF
:102780000496F701918380838FEF888341C0F8011D
:10279000808191814881B901640F711D47FD7A954F
:1027A000AB01FB01EE0FFF1FE40FF51FE05EFC4FD6
:1027B00041815281840F951FF70191838083888125
:1027C000A901480F511D87FD5A95FA01EE0FFF1F11
:1027D000E40FF51FE05EFC4F808186FF19C0888101
:1027E000280F311D87FD3A95F901EE0FFF1FE20F0B
:1027F000F31FE05EFC4F808161E08F73DF91CF912A
:102800001F910F91FF90EF90DF90CF900C94811A61
:10281000DF91CF911F910F91FF90EF90DF90CF90BC
:1028200008951F920F920FB60F9211240BB60F92BC
:102830002F933F934F935F936F937F938F939F93C8
:10284000AF93BF93EF93FF9348E850E064E870E0E4
:1028500081E090E00E945013FF91EF91BF91AF9102
:102860009F918F917F916F915F914F913F912F91A8
:102870000F900BBE0F900FBE0F901F9018951F92D8
:102880000F920FB60F9211240BB60F922F933F9316
:102890004F935F936F937F938F939F93AF93BF9368
:1028A000EF93FF9348E950E064E970E082E090E044
:1028B0000E945013FF91EF91BF91AF919F918F9123
:1028C0007F916F915F914F913F912F910F900BBE30
:1028D0000F900FBE0F901F9018951F920F920FB67A
:1028E0000F9211240BB60F922F933F934F935F9348
:1028F0006F937F938F939F93AF93BF93EF93FF93C8
:1029000048EA50E064EA70E083E090E00E945013EF
:10291000FF91EF91BF91AF919F918F917F916F91B7
:102920005F914F913F912F910F900BBE0F900FBE73
:102930000F901F9018951F920F920FB60F921124AF
:102940000BB60F922F933F934F935F936F937F93A9
:102950008F939F93AF93BF93EF93FF9348E251E020
:1029600064E271E080E090E00E945013FF91EF91EB
:10297000BF91AF919F918F917F916F915F914F9197
:102980003F912F910F900BBE0F900FBE0F901F9095
:10299000189520911B032033A0F431E0320F3093BF
:1029A0001B03FC012083822F90E0FC01EE0FFF1F30
:1029B000E80FF91FE05EFC4F88EB9BE09283818378
:1029C00008952FEFFC0120830895DF92EF92FF928C
:1029D0000F931F93CF93DF93EC01D62E7A018901D9
:1029E0008881803308F068C061E08D2D0E94481A0C
:1029F0008881A82FB0E0FD01EE0FFF1FEA0FFB1F3B
:102A0000E05EFC4F2D2D2F739081907C922B908354
:102A100060E272E06E197F0977FF02C06D5F7F4F41
:102A20007595679575956795698340E659E0401BF4
:102A3000510B57FF02C04D5F5F4F55954795559518
:102A400047954A836CE00E9481229CE0899FB001F7
:102A5000112420E030E0A901460F571FFA01EE0FC4
:102A6000FF1FE40FF51FE05EFC4F908196FD18C03C
:102A70002F5F3F4F2C30310571F790E08130910589
:102A800021F51092800082E08093810010928500F1
:102A900010928400B19A80916F00826080936F00E1
:102AA000888190E0FC01EE0FFF1FE80FF91FE05E48
:102AB000FC4F8081806480838881DF91CF911F915A
:102AC0000F91FF90EF90DF9008958230910569F4A7
:102AD0001092900082E080939100109295001092E5
:102AE000940088BB80937100DBCF8330910569F43B
:102AF0001092A00082E08093A1001092A500109295
:102B0000A40089BB80937200CBCF892B49F6109229
:102B1000200182E08093210110922501109224016E
:102B20008ABB80937300BCCF20E639E040E252E0DC
:102B30000C94E514FC018081803370F5918128E8C4
:102B400030E0291B310997FD3395220F331F220FE7
:102B5000331F621773077CF0928128E532E0291B4E
:102B6000310997FD3395220F331F220F331F621750
:102B700073070CF49B014FB7F89490E0FC01EE0F43
:102B8000FF1FE80FF91FE05EFC4F22503109220FB2
:102B9000331F328321834FBF08954F925F926F920C
:102BA0007F92AF92BF92CF92DF92EF92FF920F93FC
:102BB0001F93CF93DF93EC01603282E078070CF033
:102BC00040C077FD06C0653B71052CF064EB70E0FA
:102BD00002C060E070E0898128E830E0281B3109FC
:102BE00087FD3395220F331F220F331F5901CC2449
:102BF000B7FCC094DC2C882777FD8095982F2A811C
:102C000048E552E0421B510927FD5395440F551FDB
:102C1000440F551F2A01662457FC6094762C7F923E
:102C20006F925F924F9214EBE12EF12C00E010E0D6
:102C300020E030E0A9010E94111E0F900F900F902C
:102C40000F90CE01DF91CF911F910F91FF90EF90E8
:102C5000DF90CF90BF90AF907F906F905F904F903C
:102C60000C949A15883008F06DC0E82FF0E0EE0F54
:102C7000FF1FE055FC4F7183608390E0FC013197AA
:102C8000E730F10590F5EE58FF4F0C94E222809169
:102C900069008C7F842B80936900E89A0895809165
:102CA0006900440F551F440F551F837F842B809369
:102CB0006900E99A08958091690074E0440F551FF6
:102CC0007A95E1F78F7C842B80936900EA9A0895C6
:102CD0008091690066E0440F551F6A95E1F78F7394
:102CE000842B80936900EB9A089580916A008C7F11
:102CF000842B80936A00EC9A089580916A00440FB7
:102D0000551F440F551F837F842B80936A00ED9AD3
:102D1000089580916A0024E0440F551F2A95E1F739
:102D20008F7C842B80936A00EE9A089580916A00CC
:102D300096E0440F551F9A95E1F78F73842B80938B
:102D40006A00EF9A08951F920F920FB60F92112406
:102D50000BB60F922F933F934F935F936F937F9395
:102D60008F939F93AF93BF93EF93FF938091B4039F
:102D70009091B503892B29F0E091B403F091B5034C
:102D80001995FF91EF91BF91AF919F918F917F9195
:102D90006F915F914F913F912F910F900BBE0F90CC
:102DA0000FBE0F901F9018951F920F920FB60F92A3
:102DB00011240BB60F922F933F934F935F936F9312
:102DC0007F938F939F93AF93BF93EF93FF938091E4
:102DD000B6039091B703892B29F0E091B603F091E7
:102DE000B7031995FF91EF91BF91AF919F918F918B
:102DF0007F916F915F914F913F912F910F900BBEFB
:102E00000F900FBE0F901F9018951F920F920FB644
:102E10000F9211240BB60F922F933F934F935F9312
:102E20006F937F938F939F93AF93BF93EF93FF9392
:102E30008091B8039091B903892B29F0E091B803F0
:102E4000F091B9031995FF91EF91BF91AF919F91C7
:102E50008F917F916F915F914F913F912F910F9043
:102E60000BBE0F900FBE0F901F9018951F920F92E0
:102E70000FB60F9211240BB60F922F933F934F93DF
:102E80005F936F937F938F939F93AF93BF93EF93D2
:102E9000FF938091BA039091BB03892B29F0E091B5
:102EA000BA03F091BB031995FF91EF91BF91AF91D8
:102EB0009F918F917F916F915F914F913F912F9152
:102EC0000F900BBE0F900FBE0F901F9018951F9282
:102ED0000F920FB60F9211240BB60F922F933F93C0
:102EE0004F935F936F937F938F939F93AF93BF9312
:102EF000EF93FF938091B0039091B103892B29F058
:102F0000E091B003F091B1031995FF91EF91BF915A
:102F1000AF919F918F917F916F915F914F913F9171
:102F20002F910F900BBE0F900FBE0F901F90189512
:102F30001F920F920FB60F9211240BB60F922F9380
:102F40003F934F935F936F937F938F939F93AF9331
:102F5000BF93EF93FF938091B2039091B303892BBA
:102F600029F0E091B203F091B3031995FF91EF912D
:102F7000BF91AF919F918F917F916F915F914F9191
:102F80003F912F910F900BBE0F900FBE0F901F908F
:102F900018951F920F920FB60F9211240BB60F9235
:102FA0002F933F934F935F936F937F938F939F9351
:102FB000AF93BF93EF93FF938091BC039091BD03B8
:102FC000892B29F0E091BC03F091BD031995FF9185
:102FD000EF91BF91AF919F918F917F916F915F9191
:102FE0004F913F912F910F900BBE0F900FBE0F90FE
:102FF0001F9018951F920F920FB60F9211240BB6C7
:103000000F922F933F934F935F936F937F938F9381
:103010009F93AF93BF93EF93FF938091BE039091E3
:10302000BF03892B29F0E091BE03F091BF031995EE
:10303000FF91EF91BF91AF919F918F917F916F9190
:103040005F914F913F912F910F900BBE0F900FBE4C
:103050000F901F9018951F920F920FB60F92112488
:103060002F933F938F939F93AF93BF938091C1030F
:103070009091C203A091C303B091C4033091C003E7
:1030800023E0230F2D3720F40196A11DB11D05C0AB
:1030900026E8230F0296A11DB11D2093C003809343
:1030A000C1039093C203A093C303B093C403809160
:1030B000C5039091C603A091C703B091C8030196C0
:1030C000A11DB11D8093C5039093C603A093C703B0
:1030D000B093C803BF91AF919F918F913F912F9172
:1030E0000F900FBE0F901F9018952FB7F894609116
:1030F000C1037091C2038091C3039091C4032FBF99
:1031000008953FB7F8948091C5039091C603A091AC
:10311000C703B091C80326B5A89B05C02F3F19F07F
:103120000196A11DB11D3FBF6627782F892F9A2FC9
:10313000620F711D811D911D42E0660F771F881F70
:10314000991F4A95D1F70895CF92DF92EF92FF929F
:10315000CF93DF936B017C010E948118EB01C114B6
:10316000D104E104F10489F00E9455200E948118E5
:103170006C1B7D0B683E734090F381E0C81AD10848
:10318000E108F108C851DC4FEACFDF91CF91FF9001
:10319000EF90DF90CF900895789484B5826084BDDD
:1031A00084B5816084BD85B5826085BD85B581604B
:1031B00085BDEEE6F0E0808181608083E1E8F0E0AB
:1031C0001082808182608083808181608083E0E8DA
:1031D000F0E0808181608083E1EBF0E080818460B9
:1031E0008083E0EBF0E0808181608083E1E9F0E0C2
:1031F000808182608083808181608083E0E9F0E06B
:10320000808181608083E1EAF0E080818260808358
:10321000808181608083E0EAF0E08081816080834A
:10322000E1E2F1E08081826080838081816080833F
:10323000E0E2F1E0808181608083EAE7F0E0808174
:1032400084608083808182608083808181608083CC
:103250008081806880831092C10008951F93CF936E
:10326000DF93182FEB0161E00E94481A209711F4B8
:1032700060E004C0CF3FD10539F461E0812FDF91D8
:10328000CF911F910C94811AE12FF0E0E65EFD4F83
:10329000449150E0FA013197E231F10508F09BC00A
:1032A000E758FF4F0C94E22284B5806884BDC7BD07
:1032B00097C084B5806284BDC8BD92C080918000F3
:1032C000806880938000D0938900C093880088C074
:1032D00080918000806280938000D0938B00C093A7
:1032E0008A007EC080918000886080938000D093A7
:1032F0008D00C0938C0074C08091B0008068809372
:10330000B000C093B3006CC08091B0008062809325
:10331000B000C093B40064C0809190008068809336
:103320009000D0939900C09398005AC0809190006B
:10333000806280939000D0939B00C0939A0050C00D
:1033400080919000886080939000D0939D00C093FE
:103350009C0046C08091A00080688093A00080916E
:10336000A0008F7B8093A000D093A900C093A800F9
:1033700037C08091A00080628093A000D093AB0002
:10338000C093AA002DC08091A00088608093A00007
:10339000D093AD00C093AC0023C080912001806821
:1033A00080932001D0932901C093280119C08091F6
:1033B0002001806280932001D0932B01C0932A01C9
:1033C0000FC080912001886080932001D0932D014F
:1033D000C0932C0105C0C038D1050CF04ECF48CFAA
:1033E000DF91CF911F91089590E0FC013197E23178
:1033F000F10508F04CC0E557FF4F0C94E222809194
:1034000080008F7703C0809180008F7D8093800043
:10341000089580918000877FF9CF84B58F7702C0AF
:1034200084B58F7D84BD08958091B0008F7703C0EF
:103430008091B0008F7D8093B000089580919000BE
:103440008F7707C0809190008F7D03C0809190009E
:10345000877F8093900008958091A0008F7707C0A8
:103460008091A0008F7D03C08091A000877F809312
:10347000A0000895809120018F7707C080912001DE
:103480008F7D03C080912001877F80932001089564
:10349000CF93DF9390E0FC01E05AFD4F2491FC01B3
:1034A000EA55FD4F8491882349F190E0880F991FD8
:1034B000FC01E05EFC4FA591B4918A5F9C4FFC013A
:1034C000C591D4919FB7611108C0F8948C91209553
:1034D00082238C93888182230AC0623051F4F8944D
:1034E0008C91322F309583238C938881822B888313
:1034F00004C0F8948C91822B8C939FBFDF91CF9165
:1035000008950F931F93CF93DF931F92CDB7DEB72C
:10351000282F30E0F901E65EFD4F8491F901E05A71
:10352000FD4F1491F901EA55FD4F04910023C9F0B4
:10353000882321F069830E94F4196981E02FF0E06B
:10354000EE0FFF1FEA5FFC4FA591B4919FB7F8946F
:103550008C91611103C01095812301C0812B8C9344
:103560009FBF0F90DF91CF911F910F910895CF933F
:10357000DF93282F30E0F901E65EFD4F8491F901D9
:10358000E05AFD4FD491F901EA55FD4FC491CC2387
:1035900091F081110E94F419EC2FF0E0EE0FFF1F63
:1035A000E451FD4FA591B4912C912D2381E090E041
:1035B00021F480E002C080E090E0DF91CF91089597
:1035C000CF92DF92EF92FF920F931F93CF93DF93EF
:1035D00090E0FC01E05AFD4FD491FC01EA55FD4F0B
:1035E0007491611102C0C0E001C0CD2FDA01C901A0
:1035F000BF70672F70E0660F771F64517D4F00E04A
:1036000010E09801FB01E590F490F70140814D2313
:103610004C131EC0680179014FEFC41AD40AE40AA2
:10362000F40A081719072A073B0709F442C0970153
:103630008601E8CF68017901FFEFCF1ADF0AEF0AB0
:10364000FF0A081719072A073B0799F19701860116
:10365000FB01E590F490F70140814D234C13EACF34
:10366000801B910BA20BB30B20E030E0A901FB0102
:10367000E590F490F701F080FD22FC120AC02817B3
:1036800039074A075B07A9F02F5F3F4F4F4F5F4F46
:10369000EECFA8E1B0E00E94E822605F7F4F8F4F3D
:1036A0009F4F24E096958795779567952A95D1F752
:1036B00003C060E070E0CB01DF91CF911F910F91CB
:1036C000FF90EF90DF90CF900895FC01818D228DC7
:1036D00090E0805C9F4F821B91098F73992708951A
:1036E000FC01918D828D981731F0828DE80FF11DCC
:1036F000858D90E008958FEF9FEF0895FC01918DE7
:10370000828D981761F0828DDF01A80FB11D5D9643
:103710008C91928D9F5F9F73928F90E008958FEFB1
:103720009FEF089589E39DE1892B41F080E090E0CF
:10373000892B21F00E94391D811125C080E090E085
:10374000892B41F080E090E0892B21F00E9400005D
:1037500081111CC080E090E0892B41F080E090E076
:10376000892B21F00E940000811113C080E090E0BD
:10377000892BA1F080E090E0892B81F00E9400006D
:1037800081110AC008950E940000D8CF0E94000055
:10379000E1CF0E940000EACF0C9400000895FC01E4
:1037A000848DDF01A80FB11DA35ABF4F2C91848DCA
:1037B00090E001968F739927848FA689B7892C93FF
:1037C000A089B1898C9180648C93938D848D98139A
:1037D00006C00288F389E02D80818F7D8083089563
:1037E000CF93DF93EC01888D8823C9F0EA89FB89A8
:1037F000808185FD05C0A889B9898C9186FD0FC09F
:103800000FB607FCF5CF808185FFF2CFA889B98973
:103810008C9185FFEDCFCE010E94CF1BE7CFDF91CA
:10382000CF910895CF92DF92FF920F931F93CF9382
:10383000DF931F92CDB7DEB76C01DC015B969C91E4
:103840005B975C968C915C97981307C05096ED91AE
:10385000FC915197808185FD32C0F601038D10E007
:103860000F5F1F4F0F731127F02EF601848DF81292
:1038700011C00FB607FCF9CFD6015096ED91FC911F
:103880005197808185FFF1CFC60169830E94CF1BCC
:103890006981EBCF838DE80FF11DE35AFF4F608301
:1038A000D6015B960C935B975296ED91FC915397E2
:1038B00080818062808381E058968C930DC0D60110
:1038C0005696ED91FC91579760835096ED91FC913F
:1038D000519780818064808381E090E00F90DF9138
:1038E000CF911F910F91FF90DF90CF900895BF92DD
:1038F000CF92DF92EF92FF92CF93DF93EC016A01B8
:103900007B01B22EE889F98982E08083411581EE3E
:10391000580761057105A1F060E079E08DE390E062
:10392000A70196010E94A1222150310941095109A4
:103930005695479537952795211580E1380798F0DA
:10394000E889F989108260E874E88EE190E0A701C7
:1039500096010E94A1222150310941095109569531
:10396000479537952795EC85FD853083EE85FF8556
:103970002083188EEC89FD89B082EA89FB898081D9
:1039800080618083EA89FB89808188608083EA89FD
:10399000FB89808180688083EA89FB8980818F7DB3
:1039A0008083DF91CF91FF90EF90DF90CF90BF9019
:1039B00008951F920F920FB60F9211240BB60F921B
:1039C0002F938F939F93EF93FF93E091D903F091FF
:1039D000DA038081E091DF03F091E00382FD12C001
:1039E00090818091E2038F5F8F732091E3038217B0
:1039F00051F0E091E203F0E0E753FC4F958F8093A4
:103A0000E20301C08081FF91EF919F918F912F91EF
:103A10000F900BBE0F900FBE0F901F9018951F9226
:103A20000F920FB60F9211240BB60F922F933F9364
:103A30004F935F936F937F938F939F93AF93BF93B6
:103A4000EF93FF9389EC93E00E94CF1BFF91EF91DE
:103A5000BF91AF919F918F917F916F915F914F91A6
:103A60003F912F910F900BBE0F900FBE0F901F90A4
:103A7000189589EC93E00E94651B21E0892B09F4DD
:103A800020E0822F08951092CC031092CB0388EE91
:103A900093E0A0E0B0E08093CD039093CE03A09399
:103AA000CF03B093D00382E892E09093CA0380934F
:103AB000C90385EC90E09093D6038093D50384EC02
:103AC00090E09093D8038093D70380EC90E090939C
:103AD000DA038093D90381EC90E09093DC03809328
:103AE000DB0382EC90E09093DE038093DD0386ECB1
:103AF00090E09093E0038093DF031092E203109232
:103B0000E3031092E4031092E503089508950E94E0
:103B1000CC180E94861D0E946002C2E9DBE10E946F
:103B200080022097E1F30E94921BF9CFCF92DF929F
:103B3000EF92FF920F931F93CF93DF936C017A0163
:103B4000EB01E60EF71E00E010E0CE15DF0561F098
:103B50006991D601ED91FC910190F081E02DC601B3
:103B60001995080F191FF1CFC801DF91CF911F914F
:103B70000F91FF90EF90DF90CF9008956115710540
:103B800081F0DB010D900020E9F7AD0141505109B2
:103B9000461B570BDC01ED91FC910280F381E02D77
:103BA000199480E090E00895DC01ED91FC91DB0137
:103BB00014964D915C9115976D917C910280F381E3
:103BC000E02D19940C94BE1DDC01ED91FC91019047
:103BD000F081E02D19940F931F93CF93DF93EC01A5
:103BE0006DE00E94E41D8C016AE0CE010E94E41D9C
:103BF000800F911FDF91CF911F910F9108950F9327
:103C00001F93CF93DF93EC010E94D41D8C01CE0152
:103C10000E94EB1D800F911FDF91CF911F910F919B
:103C200008954F925F926F927F92AF92BF92CF9220
:103C3000DF92EF92FF920F931F93CF93DF93CDB755
:103C4000DEB729013A01621B730B840B950B2A899D
:103C50003B894C895D892A193B094C095D092A8BEE
:103C60003B8B4C8B5D8B9B01AC016A897B898C897A
:103C70009D890E947122E418F50806091709A80118
:103C800097010E94C3222A0D3B1D4C1D5D1DCA01D8
:103C9000B901DF91CF911F910F91FF90EF90DF90CD
:103CA000CF90BF90AF907F906F905F904F900895AE
:103CB000FC01808191810C94D323CF93DF93EC019D
:103CC00088819981009711F00E94D323198218826C
:103CD0001D821C821B821A82DF91CF9108950F935F
:103CE0001F93CF93DF93EC018B016F5F7F4F888130
:103CF00099810E946224009731F0998388831B8305
:103D00000A8381E001C080E0DF91CF911F910F9184
:103D10000895CF93DF93EC0188819981892B29F055
:103D20008A819B818617970760F4CE010E946F1EDF
:103D3000882341F08C819D81892B19F4E881F981D8
:103D4000108281E0DF91CF910895EF92FF920F935F
:103D50001F93CF93DF93EC017B018A01BA010E948C
:103D6000891E811104C0CE010E945D1E07C01D8303
:103D70000C83B701888199810E948425CE01DF914F
:103D8000CF911F910F91FF90EF900895FC01118248
:103D9000108213821282158214826115710559F006
:103DA000FB0101900020E9F7AF0141505109461B8A
:103DB000570B0C94A51E0895CF93DF93EC01FB01E4
:103DC0008617970761F0608171816115710529F08F
:103DD000448155810E94A51E02C00E945D1ECE0135
:103DE000DF91CF910895CF93DF93EC0161157105B9
:103DF00061F0FB0101900020E9F7AF01415051094A
:103E0000461B570B0E94A51E02C00E945D1ECE01DC
:103E1000DF91CF9108950F931F93CF93DF93CDB789
:103E2000DEB762970FB6F894DEBF0FBECDBF8C0130
:103E3000CB01F80111821082138212821582148242
:103E400050E0BE016F5F7F4F0E948B25BE016F5F08
:103E50007F4FC8010E94F31E62960FB6F894DEBF32
:103E60000FBECDBFDF91CF911F910F910895EF92BB
:103E7000FF920F931F93CF93DF93CDB7DEB7A19738
:103E80000FB6F894DEBF0FBECDBF7C01CB01BA01E7
:103E9000F70111821082138212821582148242E08D
:103EA000420F8E010F5F1F4F0E941A23BC01C701F2
:103EB0000E94F31EA1960FB6F894DEBF0FBECDBFD1
:103EC000DF91CF911F910F91FF90EF900895EF92A6
:103ED000FF920F931F93CF93DF93EC017B010C8133
:103EE0001D816115710511F480E016C04115510561
:103EF00091F0040F151FB8010E94891E8823A1F3B9
:103F0000288139818C819D81B701820F931F0E9486
:103F100084251D830C8381E0DF91CF911F910F9148
:103F2000FF90EF900895CF93DF931F921F92CDB72C
:103F3000DEB769831A8241E050E0BE016F5F7F4FB8
:103F40000E94671F0F900F90DF91CF910895CF933C
:103F5000DF93EC01FB0144815581608171810E94F6
:103F6000671F811103C0CE010E945D1ECE01DF914B
:103F7000CF910895CF93DF93EC016115710569F03E
:103F8000FB0101900020E9F7AF0141505109461BA8
:103F9000570B0E94671F811103C0CE010E945D1E56
:103FA000CE01DF91CF910895FC0124813581232B2F
:103FB00031F421E061157105A1F0FB0108C0FC019D
:103FC000808191816115710531F421E0FC018081CE
:103FD000882339F005C00E947B2521E0892B09F058
:103FE00020E0822F0895FC0184819581681779076C
:103FF00020F480819181009729F41092660486E66E
:1040000094E00895860F971F0895BF92CF92DF9294
:10401000EF92FF920F931F93CF93DF936C017B017D
:10402000EA0189012417350720F48D2FE901042FB7
:10403000182F6EE072E0C6010E94C61ED7011496CA
:104040008D919C911597C817D907C8F480179107CF
:1040500008F48C01D701ED91FC911197E00FF11F4D
:10406000B08010826D917C916C0F7D1FC6010E9403
:10407000F31ED701ED91FC91E00FF11FB082C60154
:10408000DF91CF911F910F91FF90EF90DF90CF9034
:10409000BF900895FC0180819181009711F00C94EC
:1040A0004B2560E070E0CB01089508955058BB2780
:1040B000AA270ED075C166D130F06BD120F031F453
:1040C0009F3F11F41EF45BC10EF4E095E7FB51C174
:1040D000E92F77D180F3BA17620773078407950732
:1040E00018F071F49EF58FC10EF4E0950B2EBA2FE7
:1040F000A02D0B01B90190010C01CA01A0011124EE
:10410000FF27591B99F0593F50F4503E68F11A1699
:10411000F040A22F232F342F4427585FF3CF46952A
:1041200037952795A795F0405395C9F77EF41F164C
:10413000BA0B620B730B840BBAF09150A1F0FF0F16
:10414000BB1F661F771F881FC2F70EC0BA0F621F02
:10415000731F841F48F4879577956795B795F795F2
:104160009E3F08F0B3CF9395880F08F09927EE0F84
:10417000979587950895D9D008F481E008950CD0DB
:104180000FC107D140F0FED030F021F45F3F19F0AD
:10419000F0C0511139C1F3C014D198F39923C9F378
:1041A0005523B1F3951B550BBB27AA27621773073D
:1041B000840738F09F5F5F4F220F331F441FAA1FF1
:1041C000A9F333D00E2E3AF0E0E830D091505040B1
:1041D000E695001CCAF729D0FE2F27D0660F771F5F
:1041E000881FBB1F261737074807AB07B0E809F041
:1041F000BB0B802DBF01FF2793585F4F2AF09E3FD6
:10420000510568F0B6C000C15F3FECF3983EDCF3A7
:10421000869577956795B795F7959F5FC9F7880F4E
:10422000911D9695879597F90895E1E0660F771FA0
:10423000881FBB1F621773078407BA0720F0621B31
:10424000730B840BBA0BEE1F88F7E095089504D02A
:104250006894B111D9C00895BCD088F09F5790F0F0
:10426000B92F9927B751A0F0D1F0660F771F881F9B
:10427000991F1AF0BA95C9F712C0B13081F0C3D0B6
:10428000B1E00895C0C0672F782F8827B85F39F054
:10429000B93FCCF3869577956795B395D9F73EF4FA
:1042A00090958095709561957F4F8F4F9F4F0895A2
:1042B000E89409C097FB3EF49095809570956195C0
:1042C0007F4F8F4F9F4F9923A9F0F92F96E9BB2776
:1042D0009395F695879577956795B795F111F8CFF2
:1042E000FAF4BB0F11F460FF1BC06F5F7F4F8F4F5D
:1042F0009F4F16C0882311F096E911C0772321F053
:104300009EE8872F762F05C0662371F096E8862FEA
:1043100070E060E02AF09A95660F771F881FDAF741
:10432000880F9695879597F90895990F0008550F6E
:10433000AA0BE0E8FEEF16161706E807F907C0F02B
:1043400012161306E407F50798F0621B730B840B33
:10435000950B39F40A2661F0232B242B252B21F40D
:1043600008950A2609F4A140A6958FEF811D811DAD
:10437000089597F99F6780E870E060E008959FEFE7
:1043800080EC089500240A941616170618060906EC
:10439000089500240A9412161306140605060895BB
:1043A000092E0394000C11F4882352F0BB0F40F443
:1043B000BF2B11F460FF04C06F5F7F4F8F4F9F4F83
:1043C000089557FD9058440F551F59F05F3F71F005
:1043D0004795880F97FB991F61F09F3F79F087956C
:1043E0000895121613061406551FF2CF4695F1DFF5
:1043F00008C0161617061806991FF1CF8695710585
:10440000610508940895E894BB2766277727CB01B8
:1044100097F908958ADF08F48FEF08950BD0C0CF85
:10442000B1DF28F0B6DF18F0952309F0A2CFA7CFAF
:104430001124EACFC6DFA0F3959FD1F3950F50E08A
:10444000551F629FF001729FBB27F00DB11D639F46
:10445000AA27F00DB11DAA1F649F6627B00DA11DEC
:10446000661F829F2227B00DA11D621F739FB00D92
:10447000A11D621F839FA00D611D221F749F332702
:10448000A00D611D231F849F600D211D822F762F9B
:104490006A2F11249F5750408AF0E1F088234AF098
:1044A000EE0FFF1FBB1F661F771F881F91505040E4
:1044B000A9F79E3F510570F05CCFA6CF5F3FECF3AC
:1044C000983EDCF3869577956795B795F795E795D0
:1044D0009F5FC1F7FE2B880F911D9695879597F9E1
:1044E0000895DB018F939F930E94E822BF91AF91C3
:1044F000A29F800D911DA39F900DB29F900D11243E
:104500000895991B79E004C0991F961708F0961B2F
:10451000881F7A95C9F78095089597FB072E16F4A2
:10452000009407D077FD09D00E94F72207FC05D040
:104530003EF4909581959F4F0895709561957F4FBA
:104540000895A1E21A2EAA1BBB1BFD010DC0AA1FD4
:10455000BB1FEE1FFF1FA217B307E407F50720F0EC
:10456000A21BB30BE40BF50B661F771F881F991F67
:104570001A9469F760957095809590959B01AC01B0
:10458000BD01CF010895052E97FB1EF400940E94F3
:10459000DA2257FD07D00E94A12207FC03D04EF477
:1045A0000C94DA2250954095309521953F4F4F4F0E
:1045B0005F4F089590958095709561957F4F8F4FCF
:1045C0009F4F0895EE0FFF1F0590F491E02D199471
:1045D0000E940B23A59F900DB49F900DA49F800D6A
:1045E000911D112408950790F691E02D1994AA1BAE
:1045F000BB1B51E107C0AA1FBB1FA617B70710F0CE
:10460000A61BB70B881F991F5A95A9F780959095FF
:10461000BC01CD010895A29FB001B39FC001A39F2B
:10462000700D811D1124911DB29F700D811D1124EB
:10463000911D0895EF920F931F93CF93DF93E8019D
:1046400047FF02C034E101C034E0E42FFF27E7FD5B
:10465000F095F7FF03C0F195E195F109E32E022FE4
:104660002E2FAE010E94D025CE01DF91CF911F9158
:104670000F91EF900895CF93DF938230910510F45E
:1046800082E090E0E0916904F0916A0420E030E07B
:10469000A0E0B0E0309739F14081518148175907C7
:1046A000B8F04817590771F482819381109729F067
:1046B00013969C938E9312972CC090936A048093C8
:1046C000690427C02115310531F04217530718F04E
:1046D000A901DB0101C0EF019A01BD01DF010280E8
:1046E000F381E02DD7CF21153105F9F0281B390BC7
:1046F0002430310580F48A819B816115710521F098
:10470000FB019383828304C090936A0480936904BD
:10471000FE01329644C0FE01E20FF31F8193919394
:1047200022503109398328833AC02091670430919F
:104730006804232B41F4209102023091030230934C
:104740006804209367042091000230910102211532
:10475000310541F42DB73EB7409104025091050256
:10476000241B350BE0916704F0916804E217F3070E
:10477000A0F42E1B3F0B2817390778F0AC014E5FD1
:104780005F4F2417350748F04E0F5F1F50936804A2
:10479000409367048193919302C0E0E0F0E0CF0181
:1047A000DF91CF910895CF93DF93009709F487C0ED
:1047B000FC01329713821282C0916904D0916A047D
:1047C000209781F420813181280F391F809167045F
:1047D000909168048217930779F5F0936804E09349
:1047E00067046DC0DE0120E030E0AE17BF0750F473
:1047F00012964D915C9113979D014115510509F158
:10480000DA01F3CFB383A28340815181840F951FD6
:104810008A179B0771F48D919C911197840F951FB6
:1048200002969183808312968D919C911397938326
:1048300082832115310529F4F0936A04E093690419
:104840003EC0D9011396FC93EE9312974D915D9162
:10485000A40FB51FEA17FB0779F480819181840FBB
:10486000951F0296D90111969C938E938281938114
:1048700013969C938E931297E0E0F0E08A819B81DF
:10488000009719F0FE01EC01F9CFCE0102962881C4
:104890003981820F931F2091670430916804281793
:1048A000390769F4309729F410926A041092690468
:1048B00002C013821282D0936804C0936704DF9110
:1048C000CF9108956F927F928F929F92AF92BF92F5
:1048D000CF92DF92EF92FF920F931F93CF93DF93CC
:1048E000EC01CB01209781F4DF91CF911F910F91C3
:1048F000FF90EF90DF90CF90BF90AF909F908F9000
:104900007F906F900C943B23FE01E60FF71F9E01F2
:1049100022503109E217F30708F4ACC0D9010D9118
:104920001C91119706171707B8F00530110508F408
:104930009FC0A801445051094617570708F498C072
:1049400002501109061B170B019311936D937C9371
:10495000CF010E94D3238CC05B01A01AB10A4E0183
:10496000800E911EA0916904B0916A04612C712C93
:1049700060E070E0109709F449C0A815B905C9F5C1
:10498000ED90FC901197670142E0C40ED11CCA144F
:10499000DB0478F147018A189B08640142E0C40EE9
:1049A000D11C1296BC9012971396AC91B5E0CB1621
:1049B000D10440F0B282A38391828082D9018D9389
:1049C0009C9309C00E5F1F4F0E0D1F1DF90111832F
:1049D0000083EB2DFA2F6115710531F0DB01139681
:1049E000FC93EE93129744C0F0936A04E093690439
:1049F0003FC06D917C9111976616770608F43B01D4
:104A0000BD0112960D90BC91A02DB4CF60916704AA
:104A10007091680468157905E9F468167906D0F490
:104A200040910002509101024115510541F44DB7EA
:104A30005EB76091040270910502461B570BE417A4
:104A4000F507C0F4F0936804E0936704F9019183DB
:104A500080830EC00E943B237C01009759F0A8017F
:104A6000BE010E947225CE010E94D323C70104C05B
:104A7000CE0102C080E090E0DF91CF911F910F91B5
:104A8000FF90EF90DF90CF90BF90AF909F908F906E
:104A90007F906F9008951F93FC0199278827BC0190
:104AA000E89411911032E9F3193010F01E30C8F378
:104AB0001B3251F01D3249F4689406C00E94A125B2
:104AC000610F711D811D911D119110531A30B0F3AA
:104AD0003EF490958095709561957F4F8F4F9F4FD5
:104AE0001F910895FB01DC0102C001900D9241501D
:104AF0005040D8F70895FB01DC018D910190801999
:104B00000110D9F3990B0895FB01DC0101900D927E
:104B10000020E1F708954532510520F4423010F0AD
:104B20000C949625FB011082CB010895BB274A30D7
:104B300031F4992322F4BDE2909581959F4F0C9416
:104B4000B725592F482F372F262F660F771F881F1D
:104B5000991F660F771F881F991F620F731F841F8D
:104B6000951F660F771F881F991F0895BB27FB01AC
:104B70005527AA27880F991FAA1FA41710F0A41B56
:104B800083955051B9F7A05DAA3308F0A95DA193B0
:104B9000009779F7B111B1931192CB010C942628AB
:104BA0006F927F929F92AF92BF92CF92DF92EF92DD
:104BB000FF920F931F93CF93DF93CDB7DEB7299763
:104BC0000FB6F894DEBF0FBECDBF6A01B22E102F14
:104BD0000C3320F4FF24F394F00E02C04CE3F42EC7
:104BE0000F2D27E0AE014F5F5F4F0E944E27798166
:104BF000272F2970213031F0E1FC06C0E0FC06C00F
:104C000060E005C06DE203C06BE201C060E2AE2D62
:104C1000A07173FF36C0662311F084E001C083E009
:104C20008B1510F4B81A01C0B12CA1110BC0F601FC
:104C30008B2D90E2882319F091938150FBCFCB0C00
:104C4000D11CB12C662331F0F601608396012F5FF1
:104C50003F4F6901C6010396E2FE05C02EE4F6014E
:104C6000208331E404C02EE6F601208331E631834F
:104C70002283FC012B2D30E22223F1F131932150CC
:104C8000FBCF72FF40C0662311F084E001C083E0D7
:104C90008B1510F4B81A01C0B12CA1110BC0F6018C
:104CA0008B2D90E2882319F091938150FBCFCB0C90
:104CB000D11CB12C662331F0F601608396012F5F81
:104CC0003F4F6901C6010396E2FE07C029E4F601E1
:104CD00020832EE4218326E406C029E6F601208302
:104CE0002EE6218326E62283FC012B2D30E22223AF
:104CF00019F031932150FBCFFC01EB0DF11D108217
:104D00008EEF9FEFB7C0B1E0611101C0B0E04B2F53
:104D100050E01816190624F49C012F5F3F4F02C083
:104D200021E030E0240F351F112329F0412F50E0FE
:104D30004F5F5F4F02C040E050E0420F531F2B2DEA
:104D400030E04217530714F4B41A01C0B12C2E2DD1
:104D5000287159F4F6012B2D30E2222319F03193FA
:104D60002150FBCFCB0CD11CB12CBB2331F0F60171
:104D7000608396012F5F3F4F6901A1110BC0F601BF
:104D80002B2D30E3222319F031932150FBCFCB0C94
:104D9000D11CB12CF80E0A81372F3071A32E74FF6D
:104DA00003C0013309F4FA941F142CF42F2D293079
:104DB00018F028E001C021E0682F392F97FF02C0CA
:104DC00060E030E0462F532F612C712C3EE2932E91
:104DD000BC01621B71099B01DC01A41BB50BE1E066
:104DE000F0E0EC0FFD1FAE0FBF1FE12EF12CF19490
:104DF000E194F1084F3FFFEF5F0731F4F601908235
:104E0000B6016F5F7F4F6B01841795074CF0241735
:104E1000350734F4BD01660D771DFB01118101C01A
:104E200010E341505109FFEF6F1A7F0AB6016F5F1F
:104E30007F4F4E155F0524F0F60110836B01DACF2A
:104E40004817590739F4063320F4053319F4A11033
:104E500001C011E3F6011083FB018B2D90E2882342
:104E600019F091938150FBCFFB01EB0DF11D1082E6
:104E700080E090E029960FB6F894DEBF0FBECDBF5C
:104E8000DF91CF911F910F91FF90EF90DF90CF9026
:104E9000BF90AF909F907F906F900895283008F05A
:104EA00027E03327DA01990F311D87FD91600096C5
:104EB0006105710539F432602E5F3D9330E32A9528
:104EC000E1F708959F3F30F080387105610509F0E2
:104ED0003C5F3C5F3D93913008F08068911DDF930B
:104EE000CF931F930F93FF92EF92192F987F969570
:104EF000E92F96959695E90FFF27EC56FC4F9927D9
:104F00003327EE24FF24A701E701059008940794B6
:104F100028F4360FE71EF81E491F511D660F771F34
:104F2000881F991F0694A1F70590079428F4E70EAF
:104F3000F81E491F561FC11D770F881F991F661F36
:104F40000694A1F70590079428F4F80E491F561F00
:104F5000C71FD11D880F991F661F771F0694A1F7E1
:104F60000590079420F4490F561FC71FD81F990FAB
:104F7000661F771F881F0694A9F7849110951770F4
:104F800041F0D695C79557954795F794E7941A95AC
:104F9000C1F7EAE3F3E068941590159135916591B6
:104FA000959105907FE27395E118F10A430B560B3A
:104FB000C90BD009C0F7E10CF11E431F561FC91FD2
:104FC000D01D7EF4703311F48A95E6CFE894015039
:104FD00030F0080F0AF40027021708F4202F239559
:104FE000022F7A3328F079E37D932A95E9F710C0F0
:104FF0007D932A9589F60694979567953795179529
:105000001794E118F10A430B560BC90BD00998F01D
:1050100023957E9173957A3308F070E37C93201387
:10502000B8F77E9170617D9330F0839571E37D9345
:1050300070E32A95E1F71124EF90FF900F911F91F3
:10504000CF91DF91992787FD90950895DC01FC01B0
:10505000672F71917723E1F7329704C07C916D93AC
:1050600070836291AE17BF07C8F3089514E0C8E3D8
:10507000D4E000E006C022970109FE010BBF0E94A8
:10508000F322CA33D10780E00807A9F7F894FFCFCD
:1050900000006B048000010000002444500A00441A
:1050A0004F3A2000544F3A2000464C3A20004652D6
:1050B0003A2000545241002444464C443A002444CF
:1050C0004652443A002444424C443A00244442525A
:1050D000443A002444464C533A2000244446525358
:1050E0003A2000244470776D4C3A200024447077B5
:1050F0006D523A2000245250002452503000245265
:10510000503030002453500A002449500A00000057
:0E5110000000121C961D651B7E1B701BF01B01
:00000001FF
