:1000000004C100000C94AF090C94E0090C94110A8F
:100010000C94420A0C94730A0C94A40A0C94D50A0A
:100020000C94060B1FC100001DC100001BC1000085
:1000300019C1000017C1000015C1000013C1000064
:1000400011C100000C9406090DC100000BC1000095
:1000500009C1000007C1000005C100000C94370B66
:1000600001C100000C94C90E0C941D10FBC00000CF
:10007000F9C00000F7C00000F5C00000F3C00000A8
:100080000C94D908EFC00000EDC00000EBC00000E8
:100090000C94090F0C945C10E5C00000E3C0000054
:1000A000E1C00000DFC000000C94AC08DBC0000021
:1000B000D9C00000D7C00000D5C000000C947F0854
:1000C000D1C00000CFC00000CDC000000C94490F8B
:1000D0000C949B10C7C000000C94890F0C94DA108C
:1000E000C1C0000000002100240027002A002D00CC
:1000F0003000330001010000040107010A01000083
:100100002200250028002B002E00310034000201BF
:100110000000050108010B0100002000230026005B
:1001200029002C002F00320000010000030106010D
:10013000090105050505070508080808020202026D
:100140000A0A080804040404010101010101010173
:100150000303030303030303040707070C0C0C0C3E
:100160000C0C0C0C02020202060606060606060627
:100170000B0B0B0B0B0B0B0B0102102020080810B4
:100180002040102040800201020108040201010207
:1001900004081020408080402010080402018004E0
:1001A000020180402010080402010804020101023B
:1001B0000408102040800102040810204080000044
:1001C000090A02080B0C0D070603040100000000D9
:1001D000000000000000000000000000000000001F
:1001E0000000000000000000000011100F000000DF
:1001F00000000000000000000000000000000000FF
:1002000000000000F6014B12F10111241FBECFEFD8
:10021000D1E2DEBFCDBF00E00CBF12E0A0E0B2E053
:10022000EAEAF3E300E00BBF02C007900D92A833A7
:10023000B107D9F71BBE16E0A8E3B2E001C01D92DA
:10024000A030B107E1F712E0C8E0D2E004C0229785
:10025000FE010E94C519C430D107C9F70E9482135C
:100260000C94C919CDCE1F93FC0199278827BC0196
:10027000E89411911032E9F3193010F01E30C8F3F0
:100280001B3249F01D3241F4689405C042D0610F21
:10029000711D811D911D119110531A30B8F33EF458
:1002A00090958095709561957F4F8F4F9F4F1F91CF
:1002B0000895FB01DC0102C001900D9241505040B5
:1002C000D8F70895FB01DC0101900D920020E1F7C1
:1002D0000895FB019F01E8944230C4F04532B4F424
:1002E0004A3029F497FB1EF4909581959F4F642F17
:1002F00077270E94AF19805D8A330CF0895D819366
:10030000CB010097A1F716F45DE251931082C90169
:1003100015C0592F482F372F262F660F771F881F9C
:10032000991F660F771F881F991F620F731F841F05
:10033000951F660F771F881F991F0895DC01FC0128
:10034000672F71917723E1F7329704C07C916D9309
:1003500070836291AE17BF07C8F3089588E392E0F7
:100360004AC088E392E0D2C20F931F9388E392E0E1
:1003700028D30EEA11E082E0B80141E050E073D7E3
:1003800083E0B80141E050E06ED784E0B80141E07D
:1003900050E069D785E0B80141E050E064D71F9193
:1003A0000F9108958130910591F46F5F7F4FC1F4F3
:1003B00088E392E0BAD38AE892E070D48DE892E0C4
:1003C0006DD480E992E060E072E00C942815892BEE
:1003D00039F46F5F7F4F21F480E992E00C94F815B7
:1003E000089580E090E06FEF7FEFDCCF81E090E058
:1003F0006FEF7FEFD7CF44960BC40F931F93CF932C
:10040000DF938B0164EF71E080E090E00E947F0B4E
:10041000C0E0D0E01FC08DE060E00E94CB0D6AEF2D
:1004200070E080E090E00E947F0B8DE061E00E9430
:10043000CB0D6AEF70E080E090E00E947F0B8DE0D2
:1004400060E00E94CB0D6AEF70E080E090E00E94D7
:100450007F0B2196C017D107F4F2DF91CF911F9146
:100460000F9108958F929F92AF92BF92CF92DF9299
:10047000EF92FF920F931F93DF93CF93CDB7DEB729
:100480002C970FB6F894DEBF0FBECDBF4C0188E5A8
:10049000C82ED12CC80CD91C7E010894E11CF11C7B
:1004A000C701B60143E050E024E030E00E949E1511
:1004B000C7010E9446145B018E01095F1F4FC801EE
:1004C000B60145E050E026E030E00E949E15C701ED
:1004D000B8010E94E315C8010E94F815C7010E94E7
:1004E00046147B018C01C60162E070E00E94311469
:1004F000FC0180818B3221F48AE590E0A80EB91EC0
:10050000C4018E5A9F4FB5011FD46FE070E080E0A8
:1005100090E00E947F0BC4018B5A9F4FB70114D407
:100520006FE070E080E090E00E947F0B83E795E051
:1005300061E072E00E94E81383E795E00E94FB11FE
:10054000CE0101960E94F8152C960FB6F894DEBFE6
:100550000FBECDBFCF91DF911F910F91FF90EF9014
:10056000DF90CF90BF90AF909F908F9008950F93A2
:100570001F9363E070E041DF03E715E0C80166E028
:1005800072E00E94E813C8010E94FB111F910F91B5
:100590000895AF92BF92CF92DF92EF92FF920F93A6
:1005A0001F93DF93CF93CDB7DEB76E970FB6F89456
:1005B000DEBF0FBECDBF7C01CE01019660E072E0D0
:1005C0000E9428158FE992E040D35C0194E6C92E81
:1005D000D12CCE0CDF1CF60180818823E9F08FE955
:1005E00092E033D38C018FE992E02FD322E630E002
:1005F000E20EF31E080F191FC8018A0D9B1D63E050
:1006000070E00E945F19F701718360832EE93FEF6C
:10061000E20EF31EF601108222E630E0E20EF31E37
:10062000F701808191812EE93FEFE20EF31E8A19D6
:100630009B09F701E05AFF4F9183808397FF02C027
:10064000118210828E01095F1F4F80E690E0E80E54
:10065000F91EF70160817181C8014AE00E946F159F
:100660007E010894E11CF11CC701B8010E94E3154A
:10067000C8010E94F8158D819E818330910539F45F
:100680008E01035F1F4FC8016BE072E00FC002973D
:1006900039F48E010D5E1F4FC80161E172E006C0A2
:1006A0008E01075E1F4FC80166E172E00E9440158F
:1006B000C801B7010E94F5146FE072E00E94DB14DC
:1006C000BC0183E795E00E94BA13C8010E94FC15A3
:1006D00083E795E00E94FB11CE0101960E94F81578
:1006E0006E960FB6F894DEBF0FBECDBFCF91DF91EF
:1006F0001F910F91FF90EF90DF90CF90BF90AF9040
:1007000008952F923F924F925F926F927F928F92B5
:100710009F92AF92BF92CF92DF92EF92FF920F9390
:100720001F93DF93CF93CDB7DEB764970FB6F894DE
:10073000DEBF0FBECDBF7C014E010894811C911C11
:10074000C40160E072E00E94281548E5A42EB12C97
:10075000AE0CBF1CC50162E070E00E943114FC01C8
:10076000E081EC3409F48BC0E23509F488C0E2344E
:1007700009F485C037E4432E512C4E0C5F1CC20196
:1007800061E070E0F9D12CE3622E712C6E0C7F1CBD
:10079000C30160E070E0F0D18E01095F1F4FC80116
:1007A000B50144E050E027E030E00E949E15C4010E
:1007B000B8010E94E315C8010E94F815C4010E9407
:1007C0004614F701EB59FF4F80809180860E971EEB
:1007D000C70144969C8B8B8BC7014E969A8B898B55
:1007E000C7018896988B8F87C701C2969E878D8791
:1007F000AA24BB241F0134C08B899C89D2D16C01EF
:1008000089899A89CED17C018F859889CAD18C013A
:100810008D859E85C6D1800F911F62E070E00E9499
:100820005F199B01C7018C0D9D1D62E070E00E9465
:100830005F19260F371FF10131832083A20EB31EEB
:10084000F8EEAF16F3E0BF061CF00FEF10E002C0A9
:1008500000E010E0C201B80195D1C301B80192D106
:10086000F10180819181881599050CF4C5CFC201F1
:1008700060E070E087D1C30160E070E083D183E77E
:1008800095E06CE172E00E94E81383E795E00E9436
:10089000FB11CE0101960E94F81564960FB6F894EC
:1008A000DEBF0FBECDBFCF91DF911F910F91FF90A3
:1008B000EF90DF90CF90BF90AF909F908F907F9000
:1008C0006F905F904F903F902F900895CF93DF935C
:1008D000EC01885A9F4F61E070E00E943114FC01E6
:1008E000E081E93459F0E23519F0E43451F403C001
:1008F000CE014FDE08C0CE0104DF05C0CE01B2DD5F
:1009000002C0CE0134DEDF91CF910895BF92CF9225
:10091000DF92EF92FF920F931F93CF93DF93EC013F
:100920008C01085A1F4F7FE5E72EF12CE80EF91EC7
:100930006EE5C62ED12CC80ED91EBB24B39410C0B0
:1009400083E795E00E94D211682FF7018083C801E8
:100950000E94B714F70180818A3011F4F601B08249
:1009600083E795E00E94A011181619064CF36AEF70
:1009700070E080E090E0C3D65EE5E52EF12CEC0E51
:10098000FD1EF7018081882391F0C80160E070E0CE
:100990000E943114FC018081843249F4CE0196DF3B
:1009A000C80160E072E00E945815F7011082DF91E3
:1009B000CF911F910F91FF90EF90DF90CF90BF905C
:1009C0000895EF92FF920F931F93DF93CF93CDB7CC
:1009D000DEB762970FB6F894DEBF0FBECDBF7C01C5
:1009E0008E010F5F1F4FC801A0D0D701F80182E12F
:1009F00001900D928150E1F78FE992E06AE370E097
:100A000046E050E03AD180E690E0E80EF91EF701AA
:100A1000119211921192119281E081937F011182C2
:100A200010828BE99FEFE80EF91EC701449662E041
:100A300070E044EF51E021E030E0A7D0C7014E96CE
:100A400063E070E044EF51E021E030E09ED08701A8
:100A5000085D1F4FC80164E070E044EF51E020E002
:100A600030E093D0C80165E070E044EF51E020E051
:100A700030E08BD088E260E0DBD7C701CC9667E03E
:100A800070E04EE150E02FE130E000E010E063D094
:100A9000C701895B9F4F68E070E040E250E021E2CF
:100AA00030E001E010E057D087E061E0C1D78EE18F
:100AB00061E0BED7C7018B5A9F4F69E070E05AD200
:100AC000C7018E5A9F4F6AE070E054D28DE061E01A
:100AD000AFD7EFE5F0E0EE0EFF1EF701108281EADE
:100AE0009FEFE80EF91EC701885A9F4F60E072E041
:100AF0000E945815EEE5F0E0EE0EFF1EF7011082A1
:100B000083E795E040E052EC61E070E00E9419114B
:100B100062960FB6F894DEBF0FBECDBFCF91DF91C6
:100B20001F910F91FF90EF900895FC0181E090E0FC
:100B30009183808312821382148215821682178217
:100B400010861186128613861486158616861786D9
:100B5000108A118A08950F931F93FC01718360839B
:100B6000538342833583248317821682128611872A
:100B700000871F910F910895FC0160877187828122
:100B80000C94CB0DFC01808175C6FC0171836083E0
:100B900053834283318720871482158216821782FD
:100BA00008950F931F938C01FC01648175818681E8
:100BB000978120ED37E040E050E00E9434190E9418
:100BC00045182BED3FE049E450E40E94D1180E9403
:100BD000121824EF31E040E050E00E949419F8012F
:100BE00080859185892B41F4B901CA0126E330E063
:100BF00040E050E00E949419B901CA012AE030E0B7
:100C000040E050E00E949419C9011F910F9108958E
:100C1000CF93DF93EC0188E2F0D7019741F48C8108
:100C20009D81AE81BF810196A11DB11D07C08C8140
:100C30009D81AE81BF810197A109B1098C839D83FC
:100C4000AE83BF83DF91CF9108950F931F938C01E3
:100C5000FC01848161E020E432E44FE050E0FCD705
:100C6000DC01CB01F801628173810E945F19CB0125
:100C7000608391831F910F9108950F931F938C01AF
:100C8000842FF801738362834483558360E0D0D658
:100C9000F801118210821F910F910895FC0180913B
:100CA000A502803390F480838F5F8093A5028150EA
:100CB00090E0FC01EE0FFF1FE80FF91FEA55FD4F12
:100CC00088EB9BE09283818308958FEF8083089562
:100CD000FC0120812033B8F58181992787FD90950B
:100CE00048E850E0481B590B440F551F440F551F4F
:100CF0006417750784F08281992787FD909548E5F0
:100D000052E0481B590B440F551F440F551F6417E1
:100D100075070CF4AB0142505040CA01AA2797FD59
:100D2000A095BA2F880F991FAA1FBB1F4FB7F89421
:100D300030E0F901EE0FFF1FE20FF31FEA55FD4F00
:100D4000928381834FBF0895AF92BF92CF92DF927B
:100D5000EF92FF920F931F93CF93DF93EC019B01D0
:100D600082E0603278070CF048C077FF03C020E0D3
:100D700030E005C0653B710514F024EB30E000D095
:100D80000F92B901882777FD8095982F2981332705
:100D900027FD3095E8E8AE2EB12CA21AB30AAA0CB2
:100DA000BB1CAA0CBB1CCC24B7FCC094DC2CEA8175
:100DB000FF27E7FDF09528E532E02E1B3F0B220FC1
:100DC000331F220F331F442737FD4095542FEDB7B3
:100DD000FEB7218332834383548320E030E040E038
:100DE00050E004EBE02EF12C012D112D0E94EA13AE
:100DF0009B010F900F900F900F90CE01B90168DF0B
:100E0000DF91CF911F910F91FF90EF90DF90CF90E6
:100E1000BF90AF900895CF92DF92EF92FF921F9311
:100E2000CF93DF93EC01162F7A016901888180331B
:100E300008F092C0862F61E0FBD5888190E0FC012C
:100E4000EE0FFF1FE80FF91FEA55FD4F1F7380815A
:100E5000807C812B808380E292E08E199F0964E080
:100E600070E00E945F19698380E699E08C199D0902
:100E700064E070E00E945F196A83A8818A2F6CE0A9
:100E80000E945319682F70E0AB01440F551F460FA5
:100E9000571F440F551F440F551F20E030E0C90174
:100EA000840F951FFC01EE0FFF1FE80FF91FEA5595
:100EB000FD4F808186FD44C02F5F3F4F2C303105B0
:100EC00071F753C01092800082E0809381001092ED
:100ED000850010928400B19A80916F0082608093A7
:100EE0006F002EC06230710569F41092900082E0AC
:100EF00080939100109295001092940088BB80938B
:100F000071001EC06330710569F41092A00082E088
:100F10008093A1001092A5001092A40089BB809339
:100F200072000EC0672B61F41092200182E0809362
:100F3000210110922501109224018ABB8093730035
:100F40008A2F90E0FC01EE0FFF1FE80FF91FEA5512
:100F5000FD4F8081806480838881DF91CF911F91D4
:100F6000FF90EF90DF90CF9008956130710509F008
:100F7000B9CFA8CF40E252E020E639E04CCFEF9263
:100F8000FF920F931F93CF93DF938B017A01EC01B4
:100F9000DC01AA5CBC4F8C9187FF04C0FB0111826D
:100FA000108236C0AE01440F551F4C0F5D1F440F19
:100FB000551F440F551F2C91332727FD3095240FC3
:100FC000351F8091A50290E0281739070CF58C9108
:100FD000992787FD9095840F951FFC01EE0FFF1F49
:100FE000E80FF91FEA55FD4F808186FF11C08C91F3
:100FF000992787FD9095840F951FFC01EE0FFF1F29
:10100000E80FF91FEA55FD4F80818F7360E0C3D56B
:10101000DE01AA5CBC4F8C918F5F8C93AE01440FB4
:10102000551F4C0F5D1F440F551F440F551F2C912A
:10103000332727FD3095240F351F8091A50290E0BE
:10104000281739070CF04CC08C918C300CF048C03C
:10105000F801208131818C91992787FD9095840F2B
:10106000951FFC01EE0FFF1FE80FF91FEA55FD4F1A
:1010700081819281280F391FF701318320838C9160
:10108000992787FD9095840F951FFC01EE0FFF1F98
:10109000E80FF91FEA55FD4F808186FF29C08C912A
:1010A000992787FD9095840F951FFC01EE0FFF1F78
:1010B000E80FF91FEA55FD4F80818F7361E06BD512
:1010C00017C080E49CE904C0F801808191810496F6
:1010D000F70191838083CA5CDC4F8FEF888308C05F
:1010E000F80180819181049680549C4950F3ECCFA3
:1010F000DF91CF911F910F91FF90EF9008951F9274
:101100000F920FB60F920BB60F9211242F933F93AD
:101110004F935F936F937F938F939F93AF93BF93FF
:10112000EF93FF9380E090E064E271E048E251E0E9
:1011300026DFFF91EF91BF91AF919F918F917F91AA
:101140006F915F914F913F912F910F900BBE0F9038
:101150000FBE0F901F9018951F920F920FB60F920F
:101160000BB60F9211242F933F934F935F936F937E
:101170007F938F939F93AF93BF93EF93FF9383E0FE
:1011800090E064EA70E048EA50E0F9DEFF91EF9108
:10119000BF91AF919F918F917F916F915F914F918F
:1011A0003F912F910F900BBE0F900FBE0F901F908D
:1011B00018951F920F920FB60F920BB60F92112433
:1011C0002F933F934F935F936F937F938F939F934F
:1011D000AF93BF93EF93FF9382E090E064E970E0F8
:1011E00048E950E0CCDEFF91EF91BF91AF919F9124
:1011F0008F917F916F915F914F913F912F910F90C0
:101200000BBE0F900FBE0F901F9018951F920F925C
:101210000FB60F920BB60F9211242F933F934F935B
:101220005F936F937F938F939F93AF93BF93EF934E
:10123000FF9381E090E064E870E048E850E09FDED2
:10124000FF91EF91BF91AF919F918F917F916F919E
:101250005F914F913F912F910F900BBE0F900FBE5A
:101260000F901F901895883008F078C0E82FF0E0B4
:10127000EE0FFF1FE65CFC4F718360838330D9F073
:10128000843030F4813009F444C0823060F439C0D5
:10129000853051F18530D8F0863009F446C087306A
:1012A00009F05CC04FC0809169008C7F842B8093D3
:1012B0006900E89A089580916900440F551F440F12
:1012C000551F837F842B80936900E99A089580914C
:1012D000690074E0440F551F7A95E1F78F7C842BE9
:1012E00080936900EA9A08958091690066E0440F4E
:1012F000551F6A95E1F78F73842B80936900EB9AF1
:10130000089580916A008C7F842B80936A00EC9A08
:10131000089580916A00440F551F440F551F837F25
:10132000842B80936A00ED9A089580916A0024E0EE
:10133000440F551F2A95E1F78F7C842B80936A0018
:10134000EE9A089580916A0096E0440F551F9A9591
:10135000E1F78F73842B80936A00EF9A08951F92B0
:101360000F920FB60F920BB60F9211242F933F934B
:101370004F935F936F937F938F939F93AF93BF939D
:10138000EF93FF9380913E0390913F03892B29F0C7
:10139000E0913E03F0913F031995FF91EF91BF91CA
:1013A000AF919F918F917F916F915F914F913F91FD
:1013B0002F910F900BBE0F900FBE0F901F9018959E
:1013C0001F920F920FB60F920BB60F9211242F930C
:1013D0003F934F935F936F937F938F939F93AF93BD
:1013E000BF93EF93FF938091400390914103892B2A
:1013F00029F0E0914003F09141031995FF91EF919D
:10140000BF91AF919F918F917F916F915F914F911C
:101410003F912F910F900BBE0F900FBE0F901F901A
:1014200018951F920F920FB60F920BB60F921124C0
:101430002F933F934F935F936F937F938F939F93DC
:10144000AF93BF93EF93FF93809142039091430337
:10145000892B29F0E0914203F09143031995FF9104
:10146000EF91BF91AF919F918F917F916F915F911C
:101470004F913F912F910F900BBE0F900FBE0F9089
:101480001F9018951F920F920FB60F920BB60F92E6
:1014900011242F933F934F935F936F937F938F9379
:1014A0009F93AF93BF93EF93FF93809144039091E9
:1014B0004503892B29F0E0914403F09145031995E8
:1014C000FF91EF91BF91AF919F918F917F916F911C
:1014D0005F914F913F912F910F900BBE0F900FBED8
:1014E0000F901F9018951F920F920FB60F920BB688
:1014F0000F9211242F933F934F935F936F937F939A
:101500008F939F93AF93BF93EF93FF9380913A0391
:1015100090913B03892B29F0E0913A03F0913B0332
:101520001995FF91EF91BF91AF919F918F917F910D
:101530006F915F914F913F912F910F900BBE0F9044
:101540000FBE0F901F9018951F920F920FB60F921B
:101550000BB60F9211242F933F934F935F936F938A
:101560007F938F939F93AF93BF93EF93FF9380915C
:101570003C0390913D03892B29F0E0913C03F091CD
:101580003D031995FF91EF91BF91AF919F918F917D
:101590007F916F915F914F913F912F910F900BBE73
:1015A0000F900FBE0F901F9018951F920F920FB6BD
:1015B0000F920BB60F9211242F933F934F935F938B
:1015C0006F937F938F939F93AF93BF93EF93FF930B
:1015D0008091460390914703892B29F0E0914603BF
:1015E000F09147031995FF91EF91BF91AF919F91B2
:1015F0008F917F916F915F914F913F912F910F90BC
:101600000BBE0F900FBE0F901F9018951F920F9258
:101610000FB60F920BB60F9211242F933F934F9357
:101620005F936F937F938F939F93AF93BF93EF934A
:10163000FF938091480390914903892B29F0E09111
:101640004803F09149031995FF91EF91BF91AF9134
:101650009F918F917F916F915F914F913F912F91CA
:101660000F900BBE0F900FBE0F901F9018951F92FA
:101670000F920FB60F9211242F933F938F939F9346
:10168000AF93BF9380914E0390914F03A09150036D
:10169000B0915103309152030196A11DB11D232F2A
:1016A0002D5F2D3720F02D570196A11DB11D2093E0
:1016B000520380934E0390934F03A0935003B09333
:1016C000510380914A0390914B03A0914C03B09138
:1016D0004D030196A11DB11D80934A0390934B03C6
:1016E000A0934C03B0934D03BF91AF919F918F9105
:1016F0003F912F910F900FBE0F901F9018959B0157
:10170000AC017FB7F89480914A0390914B03A0916C
:101710004C03B0914D0366B5A89B05C06F3F19F00F
:101720000196A11DB11D7FBFBA2FA92F982F882721
:10173000860F911DA11DB11D62E0880F991FAA1F80
:10174000BB1F6A95D1F7BC012DC0FFB7F8948091FB
:101750004A0390914B03A0914C03B0914D03E6B521
:10176000A89B05C0EF3F19F00196A11DB11DFFBF59
:10177000BA2FA92F982F88278E0F911DA11DB11D5B
:10178000E2E0880F991FAA1FBB1FEA95D1F7861BBD
:10179000970B885E9340C8F2215030404040504043
:1017A00068517C4F211531054105510571F60895A9
:1017B000789484B5826084BD84B5816084BD85B52C
:1017C000826085BD85B5816085BDEEE6F0E08081F3
:1017D00081608083E1E8F0E0108280818260808314
:1017E000808181608083E0E8F0E080818160808397
:1017F000E1EBF0E0808184608083E0EBF0E08081C9
:1018000081608083E1E9F0E0808182608083808173
:1018100081608083E0E9F0E0808181608083E1EA9B
:10182000F0E0808182608083808181608083E0EA53
:10183000F0E0808181608083E1E2F1E0808182607C
:101840008083808181608083E0E2F1E0808181603B
:101850008083EAE7F0E08081846080838081826019
:101860008083808181608083808180688083109202
:10187000C10008951F93CF93DF93182FEB0161E010
:10188000D7D0209709F4CAC0CF3FD10509F4C9C009
:10189000E12FF0E0E254FE4F8491893009F466C0F4
:1018A0008A30B0F48430F1F1853040F4823059F15F
:1018B000833070F5813009F0AEC020C0873009F464
:1018C00043C0883008F048C0863009F0A4C034C056
:1018D0008D3009F478C08E3038F48B3009F45AC05A
:1018E0008C3008F066C04CC0803109F480C0813172
:1018F00009F487C08F3009F08EC06FC084B580684E
:1019000084BDC7BD91C084B5806284BDC8BD8CC094
:1019100080918000806880938000D0938900C0937C
:10192000880082C080918000806280938000D09384
:101930008B00C0938A0078C08091B000806880934B
:10194000B000C093B30070C08091B00080628093FB
:10195000B000C093B40068C080919000806880930C
:101960009000D0939900C09398005EC08091900041
:10197000806280939000D0939B00C0939A0054C0E3
:1019800080919000886080939000D0939D00C093D8
:101990009C004AC08091A00080688093A000809144
:1019A000A0008F7B8093A000D093A900C093A800D3
:1019B0003BC08091A00080628093A000D093AB00D8
:1019C000C093AA0031C08091A00088608093A000DD
:1019D000D093AD00C093AC0027C0809120018068F7
:1019E00080932001D0932901C09328011DC08091CC
:1019F0002001806280932001D0932B01C0932A01A3
:101A000013C080912001886080932001D0932D0124
:101A1000C0932C0109C0C038D1051CF4812F60E0AF
:101A200002C0812F61E0B7D0DF91CF911F9108955F
:101A3000CF93DF93482F50E0CA0188589E4FFC0196
:101A400034914E5C5E4FFA018491882369F190E0F5
:101A5000880F991FFC01EC51FF4FA591B491FC0137
:101A6000E250FF4FC591D491662351F42FB7F894FB
:101A70008C91932F909589238C93888189230BC017
:101A8000623061F42FB7F8948C91932F909589234D
:101A90008C938881832B88832FBF06C09FB7F894CF
:101AA0008C91832B8C939FBFDF91CF9108958930C8
:101AB00009F449C08A30A0F4843051F1853040F4F3
:101AC000823079F1833000F5813009F063C026C09F
:101AD000873079F1883098F5863009F05BC025C0F1
:101AE0008D3009F442C08E3028F48B30B1F18C3047
:101AF000C0F52DC0803109F442C0813109F445C0E0
:101B00008F3009F047C037C0809180008F7703C0C5
:101B1000809180008F7D80938000089584B58F77B9
:101B200002C084B58F7D84BD08958091B0008F7709
:101B300003C08091B0008F7D8093B00008958091A4
:101B400090008F7707C0809190008F7D03C08091B7
:101B50009000877F8093900008958091A0008F77F8
:101B600007C08091A0008F7D03C08091A000877F77
:101B70008093A0000895809120018F7703C0809109
:101B800020018F7D80932001089580912001877F1F
:101B9000809320010895FF920F931F93F62E482FF4
:101BA00050E0CA0182549E4FFC012491CA0188581A
:101BB0009E4FFC0114914E5C5E4FFA01049100238C
:101BC000C1F0222311F0822F72DFE02FF0E0EE0F40
:101BD000FF1FE250FF4FA591B4919FB7F894FF20EB
:101BE00021F48C911095812302C08C91812B8C93D0
:101BF0009FBF1F910F91FF9008950F931F93482F40
:101C000050E0CA0182549E4FFC012491CA018858B9
:101C10009E4FFC0104914E5C5E4FFA01149111231A
:101C200019F420E030E014C0222311F0822F3FDFAE
:101C3000812F90E0880F991F885E9E4FFC01A5912F
:101C4000B4918C9120E030E0802311F021E030E06D
:101C5000C9011F910F9108958F929F92AF92BF92E9
:101C6000CF92DF92EF92FF920F931F93CF93DF9368
:101C7000A82FB0E0CD0188589E4FFC018490AE5C47
:101C8000BE4FFD018491662311F4992401C0982C64
:101C90006FEFA62E6FEFB62E6FEFC62E6FE0D62E2B
:101CA000A222B322C422D522682F70E0660F771FCC
:101CB000685E7E4FEE24FF248701FB01A591B4915D
:101CC0000BC0EA14FB040C051D0509F44EC0089472
:101CD000E11CF11C011D111D8C918821891589F3CE
:101CE0000CC0EA14FB040C051D0509F43EC0089461
:101CF000E11CF11C011D111D03C0FB01A591B49154
:101D00008C918821891569F720E030E040E050E0AF
:101D1000FB01C591D4910FC0DA01C9018E0D9F1D41
:101D2000A01FB11F8A159B05AC05BD05F1F02F5F03
:101D30003F4F4F4F5F4F88818821891569F3CA0152
:101D4000B90125E130E040E050E00E9434199B01E8
:101D5000AC01205F3F4F4F4F5F4F84E05695479552
:101D6000379527958A95D1F704C020E030E040E010
:101D700050E0B901CA01DF91CF911F910F91FF90FF
:101D8000EF90DF90CF90BF90AF909F908F9008958D
:101D900008951F920F920FB60F920BB60F92112457
:101DA0002F933F934F938F939F93EF93FF93809144
:101DB000C00082FD1DC04091C60020919303309168
:101DC00094032F5F3F4F2F73307080919503909154
:101DD00096032817390771F0E0919303F09194036B
:101DE000ED5AFC4F4083309394032093930302C039
:101DF0008091C600FF91EF919F918F914F913F91FC
:101E00002F910F900BBE0F900FBE0F901F90189543
:101E100008951F920F920FB60F920BB60F921124D6
:101E20002F933F934F938F939F93EF93FF938091C3
:101E3000C80082FD1DC04091CE0020911B0430914E
:101E40001C042F5F3F4F2F73307080911D049091C1
:101E50001E042817390771F0E0911B04F0911C044F
:101E6000E552FC4F408330931C0420931B0402C0B6
:101E70008091CE00FF91EF919F918F914F913F9173
:101E80002F910F900BBE0F900FBE0F901F901895C3
:101E900008951F920F920FB60F920BB60F92112456
:101EA0002F933F934F938F939F93EF93FF93809143
:101EB000D00082FD1DC04091D6002091A304309136
:101EC000A4042F5F3F4F2F7330708091A504909131
:101ED000A6042817390771F0E091A304F091A40437
:101EE000ED59FB4F40833093A4042093A30402C018
:101EF0008091D600FF91EF919F918F914F913F91EB
:101F00002F910F900BBE0F900FBE0F901F90189542
:101F100008951F920F920FB60F920BB60F921124D5
:101F20002F933F934F938F939F93EF93FF938091C2
:101F3000300182FD1DC04091360120912B0530916A
:101F40002C052F5F3F4F2F73307080912D0590919E
:101F50002E052817390771F0E0912B05F0912C051B
:101F6000E551FB4F408330932C0520932B0502C095
:101F700080913601FF91EF919F918F914F913F9109
:101F80002F910F900BBE0F900FBE0F901F901895C2
:101F9000E0917F05F0918005E05CFF4F8191919188
:101FA00020813181805C9F4F821B930B60E470E045
:101FB0000E945F19892B09F0EBDEE091A105F091F9
:101FC000A205E05CFF4F8191919120813181805C7D
:101FD0009F4F821B930B60E470E00E945F19892B76
:101FE00009F016DFE091C305F091C405E05CFF4FF6
:101FF0008191919120813181805C9F4F821B930B55
:1020000060E470E00E945F19892B09F041DFE091E4
:10201000E505F091E605E05CFF4F8191919120810B
:102020003181805C9F4F821B930B60E470E00E94C3
:102030005F19892B09F06CCF08951F920F920FB68C
:102040000F920BB60F9211242F933F938F939F9370
:10205000EF93FF932091D7033091D8038091D90358
:102060009091DA032817390731F48091C1008F7DF0
:102070008093C10014C0E091D903F091DA03E956CE
:10208000FC4F20818091D9039091DA0301968F73E0
:1020900090709093DA038093D9032093C600FF9148
:1020A000EF919F918F913F912F910F900BBE0F90C9
:1020B0000FBE0F901F9018951F920F920FB60F92A0
:1020C0000BB60F9211242F933F938F939F93EF930F
:1020D000FF9320915F04309160048091610490919E
:1020E00062042817390731F48091C9008F7D8093ED
:1020F000C90014C0E0916104F0916204E15EFB4FFD
:102100002081809161049091620401968F73907098
:1021100090936204809361042093CE00FF91EF912D
:102120009F918F913F912F910F900BBE0F900FBEFB
:102130000F901F9018951F920F920FB60F920BB62B
:102140000F9211242F933F938F939F93EF93FF93BD
:102150002091E7043091E8048091E9049091EA0429
:102160002817390731F48091D1008F7D8093D100F9
:1021700014C0E091E904F091EA04E955FB4F208195
:102180008091E9049091EA0401968F739070909386
:10219000EA048093E9042093D600FF91EF919F9188
:1021A0008F913F912F910F900BBE0F900FBE0F900C
:1021B0001F9018951F920F920FB60F920BB60F92A9
:1021C00011242F933F938F939F93EF93FF9320912D
:1021D0006F053091700580917105909172052817F7
:1021E000390731F4809131018F7D8093310114C022
:1021F000E0917105F0917205E15DFA4F20818091C7
:1022000071059091720501968F739070909372058D
:102210008093710520933601FF91EF919F918F91EB
:102220003F912F910F900BBE0F900FBE0F901F90FC
:102230001895AF92BF92DF92EF92FF920F931F9388
:10224000CF93DF93EC017A018B01DD24403081EEE6
:10225000580780E0680780E0780711F0DD24D39408
:1022600091E0A92EB12CEC89FD89DD2069F0C50132
:1022700008A002C0880F991F0A94E2F7808360E0EB
:1022800079E08DE390E005C0108260E874E88EE1AB
:1022900090E0A80197010E947219215030404040FF
:1022A0005040569547953795279580E1203038075F
:1022B00020F0DD2011F0DD24D6CFE889F9893083C4
:1022C000EA89FB89208319A2EE89FF89408121E0F8
:1022D00030E0C9010C8C02C0880F991F0A94E2F704
:1022E000482B4083EE89FF894081C9010D8C02C0D3
:1022F000880F991F0A94E2F7482B4083EE89FF89E3
:102300004081C9010E8C02C0880F991F0A94E2F720
:10231000482B4083EE89FF8980810F8C02C0220FF9
:10232000331F0A94E2F7209528232083DF91CF9171
:102330001F910F91FF90EF90DF90BF90AF900895A5
:10234000DC011C96ED91FC911D97E05CFF4F8191A3
:10235000919120813181805C9F4F821B930B60E4BF
:1023600070E0ADC7DC011C96ED91FC911D97E05C1F
:10237000FF4F20813181E054F040DF01AE5BBF4F61
:102380008D919C9111972817390719F42FEF3FEF82
:1023900007C08D919C91E80FF91F8081282F30E0B4
:1023A000C9010895DC011C96ED91FC911D97E05C3C
:1023B000FF4F20813181E054F040DF01AE5BBF4F21
:1023C0008D919C9111972817390719F42FEF3FEF42
:1023D00010C08D919C911197E80FF91F20818D916C
:1023E0009C91119701968F73907011969C938E9388
:1023F00030E0C9010895DC0191968C919197882372
:1024000039F05496ED91FC915597808186FFF9CF74
:1024100091961C920895CF93DF93EC01EE85FF8592
:10242000E05CFF4F20813181E054F0402F5F3F4F4F
:102430002F733070DF01AE5BBF4F8D919C91119770
:1024400028173907D1F3E05CFF4F80819181E05478
:10245000F040E80FF91F6083EE85FF85E05CFF4FD9
:1024600031832083EE89FF89208181E090E00F8C09
:1024700002C0880F991F0A94E2F7282B208381E07D
:1024800089A3EC89FD8980818064808381E090E06C
:10249000DF91CF9108951F931092760510927505E4
:1024A00028EE33E040E050E0209377053093780544
:1024B0004093790550937A056CE272E0709374054D
:1024C0006093730583E593E09093800580937F0587
:1024D00087E993E0909382058093810585EC90E0F5
:1024E000909384058093830584EC90E09093860517
:1024F0008093850580EC90E0909388058093870514
:1025000081EC90E090938A058093890582EC90E0BD
:1025100090938C0580938B0586EC90E090938E05CC
:1025200080938D0514E010938F05B3E0B093900570
:10253000A7E0A0939105F5E0F0939205E1E0E09328
:102540009305109298051092970520939905309362
:102550009A0540939B0550939C0570939605609354
:1025600095058BED93E09093A2058093A1058FE1F3
:1025700094E09093A4058093A3058DEC90E0909354
:10258000A6058093A5058CEC90E09093A805809318
:10259000A70588EC90E09093AA058093A90589ECA3
:1025A00090E09093AC058093AB058AEC90E090931B
:1025B000AE058093AD058EEC90E09093B0058093CE
:1025C000AF051093B105B093B205A093B305F09396
:1025D000B405E093B5051092BA051092B9052093A1
:1025E000BB053093BC054093BD055093BE05709369
:1025F000B8056093B70583E694E09093C405809393
:10260000C30587EA94E09093C6058093C50585EDE0
:1026100090E09093C8058093C70584ED90E0909377
:10262000CA058093C90580ED90E09093CC05809316
:10263000CB0581ED90E09093CE058093CD0582EDA2
:1026400090E09093D0058093CF0586ED90E0909335
:10265000D2058093D1051093D305B093D405A093F0
:10266000D505F093D605E093D7051092DC051092BE
:10267000DB052093DD053093DE054093DF055093A5
:10268000E0057093DA056093D9058BEE94E09093A2
:10269000E6058093E5058FE295E09093E805809349
:1026A000E70585E391E09093EA058093E90584E3EB
:1026B00091E09093EC058093EB0580E391E090939B
:1026C000EE058093ED0581E391E09093F005809312
:1026D000EF0582E391E09093F2058093F10586E3A4
:1026E00091E09093F4058093F3051093F505B09372
:1026F000F605A093F705F093F805E093F9051F910F
:1027000008950895CF93DF9353D8FBDF0E94B4015F
:10271000C8ECDFE00E94B1012097E1F339DCFACF89
:10272000CF92DF92EF92FF920F931F93CF93DF939D
:102730007C016B018A01C0E0D0E00FC0D6016D9131
:102740006D01D701ED91FC910190F081E02DC70161
:102750001995C80FD91F015010400115110571F7C7
:10276000CE01DF91CF911F910F91FF90EF90DF90FD
:10277000CF900895CF93DF93FB01EC01A881B9813D
:1027800060817181448155811296ED91FC9113977E
:102790001995DF91CF910895CF93DF93EC016115E7
:1027A000710519F420E030E00FC0DB010D9000202E
:1027B000E9F71197A61BB70BE881F9810280F38135
:1027C000E02DAD0119959C01C901DF91CF910895CC
:1027D000E3CF08952F923F924F925F926F927F9234
:1027E0008F929F92AF92BF92CF92DF92EF92FF9221
:1027F0000F931F93DF93CF93CDB7DEB73B014C010F
:1028000019012A016E897F89888D998D6A197B0942
:102810008C099D09621A730A840A950AA40193011E
:1028200023D5E218F30804091509A80197017CD5FE
:102830002A0D3B1D4C1D5D1DB901CA01CF91DF91D1
:102840001F910F91FF90EF90DF90CF90BF90AF90CE
:102850009F908F907F906F905F904F903F902F90C0
:102860000895FC019B01848195816817790728F4FC
:10287000608171816115710529F41092FB056BEF80
:1028800075E002C0620F731FCB010895FC018081C7
:102890009181009729F420E030E040E050E004C04E
:1028A0000E9433019B01AC01B901CA0108950F9345
:1028B0001F93CF93DF93EC018B016F5F7F4F888174
:1028C0009981D3D2009711F480E005C09983888361
:1028D0001B830A8381E0DF91CF911F910F910895AF
:1028E000CF93DF93EC0188819981892B29F08A812C
:1028F0009B818617970758F4CE01D9DF882341F0D2
:102900008C819D81892B19F4E881F981108281E005
:10291000DF91CF910895EF92FF920F931F93CF9382
:10292000DF93EC017B016C817D81E114F104B9F04E
:102930004115510591F08A01060F171FB801D0DF2C
:10294000882369F0888199812C813D81820F931FB2
:10295000B7010E9462011D830C8381E001C080E009
:10296000DF91CF911F910F91FF90EF900895DF932A
:10297000CF930F920F92CDB7DEB769831A82BE0153
:102980006F5F7F4F41E050E0C6DF0F900F90CF9117
:10299000DF910895CF93DF93EC01888199810097AF
:1029A00009F0CBD1198218821D821C821B821A82E7
:1029B000DF91CF9108950F931F93182F092F611561
:1029C000710559F0DB010D900020E9F71197A61B66
:1029D000B70BAD01A0DF882319F4812F902FDADF28
:1029E000812F902F1F910F9108950F931F93182FF0
:1029F000092FFB0160817181448155818CDF88231F
:102A000019F4812F902FC6DF812F902F1F910F91E6
:102A10000895EF92FF920F931F93CF93DF93EC01F2
:102A20007B018A01BA015CDF882319F4CE01B2DF91
:102A300007C01D830C8388819981B7010E946201C0
:102A4000CE01DF91CF911F910F91FF90EF900895EC
:102A5000CF93DF93EC01198218821B821A821D82A8
:102A60001C826115710549F0DB010D900020E9F72A
:102A70001197A61BB70BAD01CCDFDF91CF91089565
:102A8000CF93DF93EC01198218821B821A821D8278
:102A90001C826115710549F0DB010D900020E9F7FA
:102AA0001197A61BB70BAD01B4DFDF91CF9108954D
:102AB0000F931F93182F092F6115710551F0DB013A
:102AC0000D900020E9F71197A61BB70BAD01A1DF10
:102AD00001C060DF812F902F1F910F910895EF9219
:102AE000FF920F931F93DF93CF93CDB7DEB762971B
:102AF0000FB6F894DEBF0FBECDBF8C01CB01F8013D
:102B00001182108213821282158214827E0108942F
:102B1000E11CF11CB70150E00E946901C801B70136
:102B2000C7DF62960FB6F894DEBF0FBECDBFCF9160
:102B3000DF911F910F91FF90EF900895BF92CF9278
:102B4000DF92EF92FF920F931F93CF93DF93082FA3
:102B5000B92E6B017A01E9012417350710F4EA0157
:102B60007901802F9B2D61E272E072DFD60114960D
:102B70008D919C9115978E159F05C8F08C179D0718
:102B800008F4EC01D601ED91FC911197EC0FFD1FBB
:102B9000108110826D917C916E0D7F1D802F9B2D79
:102BA00087DFD601ED91FC91EC0FFD1F1083802F84
:102BB0009B2DDF91CF911F910F91FF90EF90DF90B0
:102BC000CF90BF900895CF93DF93EC01FB01861760
:102BD000970751F0608171816115710521F0448181
:102BE000558117DF01C0D6DECE01DF91CF91089568
:102BF000FC0180819181A1C0FC01808191819DC0F7
:102C00000F931F93CF93DF93BC018230910510F493
:102C100062E070E0E091FE05F091FF0540E050E0D9
:102C2000A0E0B0E024C08081918186179707D0F0A2
:102C30008617970771F482819381109729F0139674
:102C40009C938E9312972CC09093FF058093FE0562
:102C500027C04115510519F08417950718F48D0107
:102C6000AC01EF01DF01828193819C01F901309772
:102C7000D1F641155105F9F0CA01861B970B843036
:102C8000910580F48A819B810115110521F0F801DD
:102C90009383828304C09093FF058093FE05FE0119
:102CA000329645C0FE01E80FF91F619371930297B8
:102CB000998388833CC08091FC059091FD05892B08
:102CC00041F480912402909125029093FD05809318
:102CD000FC0540912602509127024115510541F40F
:102CE0004DB75EB78091220290912302481B590B89
:102CF0002091FC053091FD0524173507B0F4CA0179
:102D0000821B930B8617970780F0AB014E5F5F4FD6
:102D10008417950750F0420F531F5093FD054093C1
:102D2000FC05F9016193719302C0E0E0F0E0CF018E
:102D3000DF91CF911F910F910895CF93DF939C0165
:102D4000009709F48FC0EC0122971B821A826091D0
:102D5000FE057091FF056115710581F488819981E7
:102D6000820F931F2091FC053091FD05281739072C
:102D700039F5D093FD05C093FC0574C0DB0140E03C
:102D800050E0AC17BD0708F1BB83AA83FE01219177
:102D90003191E20FF31FAE17BF0779F48D919C912B
:102DA0001197280F391F2E5F3F4F398328831296C2
:102DB0008D919C9113979B838A834115510571F4E2
:102DC000D093FF05C093FE054DC012968D919C9146
:102DD0001397AD01009711F0DC01D3CFDA01139600
:102DE000DC93CE931297FA0121913191E20FF31FF8
:102DF000CE17DF0769F488819981280F391F2E5F6C
:102E00003F4FFA01318320838A819B8193838283A0
:102E1000E0E0F0E0DB0112968D919C911397009712
:102E200019F0BC01FD01F6CFAB014E5F5F4FDB0136
:102E30008D919C91840F951F2091FC053091FD058B
:102E40002817390779F4309729F41092FF0510926A
:102E5000FE0502C013821282425050405093FD057D
:102E60004093FC05DF91CF9108956F927F928F92EE
:102E70009F92AF92BF92CF92DF92EF92FF920F9309
:102E80001F93CF93DF938C01009721F4CB01B8DE21
:102E90008C01B8C08EEFE82E8FEFF82EE00EF11EF9
:102EA0004801860E971E8E149F0408F4A9C0D7010E
:102EB0004D915C91119746175707B0F04530510579
:102EC00008F4A0C0CA0104978617970708F49AC0AF
:102ED00042505040461B570BF401419351936D9360
:102EE0007C93CF012ADF8EC05B01A41AB50A38019A
:102EF000640E751EA091FE05B091FF05E0E0F0E0C4
:102F0000CC24DD2447C0A615B705A9F5CD91DC91E9
:102F10001197CE0102968A159B0568F1CE018A1998
:102F20009B09029612962C91129713963C91059745
:102F300058F0F40122833383CA19DB09D183C0839B
:102F4000D7016D937C9309C04E5F5F4F4C0F5D1F9F
:102F5000F70151834083C901FC01C114D10431F050
:102F6000D6011396FC93EE9312974CC0F093FF0595
:102F7000E093FE0547C08D919C911197E817F907E2
:102F800008F4FC016D0112968C91129713969C9196
:102F90009C01D901109709F0B6CF8091FC05909162
:102FA000FD0586159705E9F4E617F707D0F420919B
:102FB0002602309127022115310541F42DB73EB785
:102FC0008091220290912302281B390B82169306CE
:102FD000B8F49092FD058092FC05F701718360833F
:102FE00011C0CB010DDEEC01009751F0D7014D91DE
:102FF0005C91B8010E945901C8019FDE8E0102C098
:1030000000E010E0C801DF91CF911F910F91FF9078
:10301000EF90DF90CF90BF90AF909F908F907F9078
:103020006F90089504D06894B111B5C0089598D0F8
:1030300088F09F5790F0B92F9927B751A0F0D1F0A1
:10304000660F771F881F991F1AF0BA95C9F712C02B
:10305000B13081F09FD0B1E008959CC0672F782FE8
:103060008827B85F39F0B93FCCF386957795679597
:10307000B395D9F73EF490958095709561957F4F03
:103080008F4F9F4F0895E89409C097FB3EF49095A9
:103090008095709561957F4F8F4F9F4F9923A9F031
:1030A000F92F96E9BB279395F695879577956795C0
:1030B000B795F111F8CFFAF4BB0F11F460FF1BC004
:1030C0006F5F7F4F8F4F9F4F16C0882311F096E997
:1030D00011C0772321F09EE8872F762F05C0662345
:1030E00071F096E8862F70E060E02AF09A95660FFE
:1030F000771F881FDAF7880F9695879597F90895B7
:1031000097F99F6780E870E060E008959FEF80EC9A
:10311000089500240A94161617061806090608953D
:1031200000240A9412161306140605060895092EA3
:103130000394000C11F4882352F0BB0F40F4BF2B12
:1031400011F460FF04C06F5F7F4F8F4F9F4F089552
:1031500057FD9058440F551F59F05F3F71F0479548
:10316000880F97FB991F61F09F3F79F0879508952D
:10317000121613061406551FF2CF4695F1DF08C04C
:10318000161617061806991FF1CF86957105610569
:1031900008940895E894BB2766277727CB0197F911
:1031A00008950BD0C4CFB5DF28F0BADF18F095230F
:1031B00009F0A6CFABCF1124EECFCADFA0F3959FC5
:1031C000D1F3950F50E0551F629FF001729FBB270E
:1031D000F00DB11D639FAA27F00DB11DAA1F649FBA
:1031E0006627B00DA11D661F829F2227B00DA11D6D
:1031F000621F739FB00DA11D621F839FA00D611DF3
:10320000221F749F3327A00D611D231F849F600D13
:10321000211D822F762F6A2F11249F5750408AF04C
:10322000E1F088234AF0EE0FFF1FBB1F661F771FD8
:10323000881F91505040A9F79E3F510570F060CF14
:10324000AACF5F3FECF3983EDCF3869577956795C0
:10325000B795F795E7959F5FC1F7FE2B880F911DF6
:103260009695879597F90895629FD001739FF00115
:10327000829FE00DF11D649FE00DF11D929FF00D06
:10328000839FF00D749FF00D659FF00D9927729F3D
:10329000B00DE11DF91F639FB00DE11DF91FBD01C8
:1032A000CF0111240895991B79E004C0991F961746
:1032B00008F0961B881F7A95C9F78095089597FBAB
:1032C000092E07260AD077FD04D049D006D0002069
:1032D0001AF4709561957F4F0895F6F79095819552
:1032E0009F4F0895A1E21A2EAA1BBB1BFD010DC022
:1032F000AA1FBB1FEE1FFF1FA217B307E407F507A6
:1033000020F0A21BB30BE40BF50B661F771F881F81
:10331000991F1A9469F760957095809590959B0117
:10332000AC01BD01CF01089597FB092E05260ED0F3
:1033300057FD04D0D7DF0AD0001C38F450954095D3
:10334000309521953F4F4F4F5F4F0895F6F7909579
:103350008095709561957F4F8F4F9F4F0895AA1B61
:10336000BB1B51E107C0AA1FBB1FA617B70710F070
:10337000A61BB70B881F991F5A95A9F780959095A2
:10338000BC01CD010895EE0FFF1F0590F491E02DD3
:10339000199412E0C8E0D2E003C0FE01F6DF2296E5
:0A33A000CA30D107D1F7F894FFCF2F
:1033AA00002449500A002453500A00245250000AAB
:1033BA000024525030002452503030002444500A25
:1033CA000000800000060000000000000B129013AD
:0833DA00A011D211B211FB1188
:00000001FF
