:1000000071C0000056C1000085C10000B4C10000ED
:10001000E3C1000012C2000041C2000070C2000033
:100020009FC200007FC000007DC000007BC00000B8
:1000300079C0000077C0000075C0000073C00000E8
:1000400071C000006FC000006DC000006BC00000F8
:1000500069C0000067C0000065C00000C0C20000A9
:1000600061C000005FC000005DC000005BC0000018
:1000700059C0000057C0000055C0000053C0000028
:1000800051C000004FC000004DC000004BC0000038
:1000900049C0000047C0000045C0000043C0000048
:1000A00041C000003FC000003DC000003BC0000058
:1000B00039C0000037C0000035C0000033C0000068
:1000C00031C000002FC000002DC000002BC0000078
:1000D00029C0000027C0000025C0000023C0000088
:1000E00021C0000011241FBECFEFD1E2DEBFCDBF83
:1000F00000E00CBF12E0A0E0B2E0E6E3F7E000E0D1
:100100000BBF02C007900D92A030B107D9F71BBEFC
:1001100012E0A0E0B2E001C01D92AB33B107E1F7FD
:1001200051D207C36DCF80E092E00DC080E092E035
:1001300009C080E092E009D080E063E970E041E02E
:1001400050E03BC0089502962BC00F931F938C0183
:10015000029660E070E040E054E018D0C8010A96D2
:1001600061E070E040E054E011D00E5E1F4FC80126
:1001700062E070E040E054E009D0C80163E070E064
:1001800040E054E003D01F910F910895FC0171836A
:1001900060835383428314821582168217820895E6
:1001A000FC0184819581A681B7810196A11DB11DB5
:1001B00084839583A683B7830895883008F078C038
:1001C000E82FF0E0EE0FFF1FEE5DFD4F71836083BF
:1001D0008330D9F0843030F4813009F444C0823067
:1001E00060F439C0853051F18530D8F0863009F49B
:1001F00046C0873009F05CC04FC0809169008C7F99
:10020000842B80936900E89A089580916900440FD7
:10021000551F440F551F837F842B80936900E99AF3
:1002200008958091690074E0440F551F7A95E1F7B5
:100230008F7C842B80936900EA9A089580916900ED
:1002400066E0440F551F6A95E1F78F73842B809306
:100250006900EB9A089580916A008C7F842B8093CB
:100260006A00EC9A089580916A00440F551F440F6C
:10027000551F837F842B80936A00ED9A08958091A7
:100280006A0024E0440F551F2A95E1F78F7C842BE8
:1002900080936A00EE9A089580916A0096E0440F78
:1002A000551F9A95E1F78F73842B80936A00EF9A1C
:1002B00008951F920F920FB60F920BB60F92112452
:1002C0002F933F934F935F936F937F938F939F935E
:1002D000AF93BF93EF93FF938091260290912702F3
:1002E000892B29F0E0912602F09127021995FF91C0
:1002F000EF91BF91AF919F918F917F916F915F919E
:100300004F913F912F910F900BBE0F900FBE0F900A
:100310001F9018951F920F920FB60F920BB60F9267
:1003200011242F933F934F935F936F937F938F93FA
:100330009F93AF93BF93EF93FF9380912802909187
:100340002902892B29F0E0912802F09129021995C0
:10035000FF91EF91BF91AF919F918F917F916F919D
:100360005F914F913F912F910F900BBE0F900FBE59
:100370000F901F9018951F920F920FB60F920BB609
:100380000F9211242F933F934F935F936F937F931B
:100390008F939F93AF93BF93EF93FF9380912A0224
:1003A00090912B02892B29F0E0912A02F0912B02E7
:1003B0001995FF91EF91BF91AF919F918F917F918F
:1003C0006F915F914F913F912F910F900BBE0F90C6
:1003D0000FBE0F901F9018951F920F920FB60F929D
:1003E0000BB60F9211242F933F934F935F936F930C
:1003F0007F938F939F93AF93BF93EF93FF938091DE
:100400002C0290912D02892B29F0E0912C02F09181
:100410002D021995FF91EF91BF91AF919F918F910F
:100420007F916F915F914F913F912F910F900BBEF4
:100430000F900FBE0F901F9018951F920F920FB63E
:100440000F920BB60F9211242F933F934F935F930C
:100450006F937F938F939F93AF93BF93EF93FF938C
:100460008091220290912302892B29F0E0912202AF
:10047000F09123021995FF91EF91BF91AF919F9158
:100480008F917F916F915F914F913F912F910F903D
:100490000BBE0F900FBE0F901F9018951F920F92DA
:1004A0000FB60F920BB60F9211242F933F934F93D9
:1004B0005F936F937F938F939F93AF93BF93EF93CC
:1004C000FF938091240290912502892B29F0E091DD
:1004D0002402F09125021995FF91EF91BF91AF9100
:1004E0009F918F917F916F915F914F913F912F914C
:1004F0000F900BBE0F900FBE0F901F9018951F927C
:100500000F920FB60F920BB60F9211242F933F93B9
:100510004F935F936F937F938F939F93AF93BF930B
:10052000EF93FF9380912E0290912F02892B29F057
:10053000E0912E02F0912F021995FF91EF91BF915A
:10054000AF919F918F917F916F915F914F913F916B
:100550002F910F900BBE0F900FBE0F901F9018950C
:100560001F920F920FB60F920BB60F9211242F937A
:100570003F934F935F936F937F938F939F93AF932B
:10058000BF93EF93FF938091300290913102892BBA
:1005900029F0E0913002F09131021995FF91EF912D
:1005A000BF91AF919F918F917F916F915F914F918B
:1005B0003F912F910F900BBE0F900FBE0F901F9089
:1005C00018950895CF93DF9352D0FBDFB2DDC0E0E2
:1005D000D0E0ACDD2097E9F30E940000FACF1F9233
:1005E0000F920FB60F9211242F933F938F939F93E7
:1005F000AF93BF938091360290913702A091380259
:10060000B091390230913A020196A11DB11D232FFC
:100610002D5F2D3720F02D570196A11DB11D209380
:100620003A028093360290933702A0933802B09337
:1006300039028091320290913302A0913402B0913C
:1006400035020196A11DB11D8093320290933302B1
:10065000A0933402B0933502BF91AF919F918F91D7
:100660003F912F910F900FBE0F901F901895789487
:1006700084B5826084BD84B5816084BD85B58260A7
:1006800085BD85B5816085BDEEE6F0E08081816045
:100690008083E1E8F0E01082808182608083808145
:1006A00081608083E0E8F0E0808181608083E1EB1D
:1006B000F0E0808184608083E0EBF0E08081816005
:1006C0008083E1E9F0E080818260808380818160C5
:1006D0008083E0E9F0E0808181608083E1EAF0E0FE
:1006E000808182608083808181608083E0EAF0E0A5
:1006F000808181608083E1E2F1E08081826080839B
:10070000808181608083E0E2F1E08081816080838C
:10071000EAE7F0E08081846080838081826080836A
:100720008081816080838081806880831092C10095
:060730000895F894FFCFCC
:00000001FF
