:1000000004C1000083C70000B2C70000E1C70000C0
:100010000C9419080C944A080C947B080C94AC08B6
:100020000C94DD081FC100001DC100001BC10000B1
:1000300019C1000017C1000015C1000013C1000064
:1000400011C10000BAC600000DC100000BC10000C4
:1000500009C1000007C1000005C100000C940E0991
:1000600001C100000C94A00C0C94F40DFBC0000026
:10007000F9C00000F7C00000F5C00000F3C00000A8
:100080006FC60000EFC00000EDC00000EBC0000034
:100090000C94E00C0C94330EE5C00000E3C00000AB
:1000A000E1C00000DFC000002EC60000DBC0000081
:1000B000D9C00000D7C00000D5C00000F7C50000BF
:1000C000D1C00000CFC00000CDC000000C94200DB6
:1000D0000C94720EC7C000000C94600D0C94B10E0D
:1000E000C1C0000000002100240027002A002D00CC
:1000F0003000330001010000040107010A01000083
:100100002200250028002B002E00310034000201BF
:100110000000050108010B0100002000230026005B
:1001200029002C002F00320000010000030106010D
:10013000090105050505070508080808020202026D
:100140000A0A080804040404010101010101010173
:100150000303030303030303040707070C0C0C0C3E
:100160000C0C0C0C02020202060606060606060627
:100170000B0B0B0B0B0B0B0B0102102020080810B4
:100180002040102040800201020108040201010207
:1001900004081020408080402010080402018004E0
:1001A000020180402010080402010804020101023B
:1001B0000408102040800102040810204080000044
:1001C000090A02080B0C0D070603040100000000D9
:1001D000000000000000000000000000000000001F
:1001E0000000000000000000000011100F000000DF
:1001F00000000000000000000000000000000000FF
:1002000000000000F3012110EE0111241FBECFEF0A
:10021000D1E2DEBFCDBF00E00CBF12E0A0E0B2E053
:10022000E2E1FDE200E00BBF02C007900D92AE32AA
:10023000B107D9F71BBE15E0AEE2B2E001C01D92D6
:10024000A53DB107E1F712E0C8E0D2E004C0229773
:10025000FE010E947916C430D107C9F70E945811D7
:100260000C947D16CDCE1F93FC0199278827BC01E5
:10027000E89411911032E9F3193010F01E30C8F3F0
:100280001B3249F01D3241F4689405C042D0610F21
:10029000711D811D911D119110531A30B8F33EF458
:1002A00090958095709561957F4F8F4F9F4F1F91CF
:1002B0000895FB01DC0102C001900D9241505040B5
:1002C000D8F70895FB01DC0101900D920020E1F7C1
:1002D0000895FB019F01E8944230C4F04532B4F424
:1002E0004A3029F497FB1EF4909581959F4F642F17
:1002F00077270E946316805D8A330CF0895D8193B5
:10030000CB010097A1F716F45DE251931082C90169
:1003100015C0592F482F372F262F660F771F881F9C
:10032000991F660F771F881F991F620F731F841F05
:10033000951F660F771F881F991F0895DC01FC0128
:10034000672F71917723E1F7329704C07C916D9309
:1003500070836291AE17BF07C8F308958EE292E0F2
:1003600047C08EE292E09BC10F931F938EE292E012
:1003700003D20EEA11E082E0B80141E050E04AD534
:1003800083E0B80141E050E045D584E0B80141E0A8
:1003900050E040D585E0B80141E050E03BD51F91E9
:1003A0000F9108958130910579F46F5F7F4FA9F423
:1003B00086E692E04AD289E692E047D28CE692E065
:1003C00060E072E00C94FE12892B39F46F5F7F4F6E
:1003D00021F48CE692E00C94CE13089580E090E036
:1003E0006FEF7FEFDFCF81E090E06FEF7FEFDACF4D
:1003F0000296F6C10F931F93CF93DF938B0164EFA7
:1004000071E080E090E052D7C0E0D0E01CC08DE009
:1004100060E00E94A20B6AEF70E080E090E046D7B7
:100420008DE061E00E94A20B6AEF70E080E090E056
:100430003DD78DE060E00E94A20B6AEF70E080E0A3
:1004400090E034D72196C017D1070CF3DF91CF91FC
:100450001F910F9108958F929F92AF92BF92CF926A
:10046000DF92EF92FF920F931F93DF93CF93CDB75D
:10047000DEB72C970FB6F894DEBF0FBECDBF4C0190
:100480008EE3C82ED12CC80CD91C7E010894E11C27
:10049000F11CC701B60143E050E024E030E00E94C7
:1004A0007413C7010E941C125B018E01095F1F4F6C
:1004B000C801B60145E050E026E030E00E94741328
:1004C000C701B8010E94B913C8010E94CE13C70129
:1004D0000E941C127B018C01C60162E070E00E9448
:1004E0000712FC0180818B3221F48AE590E0A80E8E
:1004F000B91EC401C896B501FED16FE070E080E07E
:1005000090E0D4D6C401CB96B701F5D16FE070E08E
:1005100080E090E0CBD688E495E061E072E00E9454
:10052000BE1188E495E00E94D10FCE0101960E9491
:10053000CE132C960FB6F894DEBF0FBECDBFCF9171
:10054000DF911F910F91FF90EF90DF90CF90BF90C0
:10055000AF909F908F9008950F931F9363E070E08A
:1005600049DF08E415E0C80166E072E00E94BE11B0
:10057000C8010E94D10F1F910F9108950F931F93EF
:1005800065E070E037DF08E415E0C8016BE072E079
:100590000E94BE11C8010E94D10F1F910F910895B2
:1005A000CF92DF92EF92FF920F931F93DF93CF933F
:1005B000CDB7DEB762970FB6F894DEBF0FBECDBFE2
:1005C0008C016E010894C11CD11CC60160E072E070
:1005D0000E94FE12C80164E070E00CDF84E792E044
:1005E0001CD1BC018E01095F1F4FC8014AE00E9467
:1005F0004513C601B8010E94B913C8010E94CE1369
:100600008E01035F1F4FC80160E172E00E94161364
:10061000C801B6010E94CB1264E172E00E94B112DF
:10062000BC0198E4E92E95E0F92EC7010E949011D3
:10063000C8010E94D213C7010E94D10FC6010E94B7
:10064000CE1362960FB6F894DEBF0FBECDBFCF912A
:10065000DF911F910F91FF90EF90DF90CF90089561
:10066000CF93DF93EC01CE9661E070E00E94071219
:10067000FC01E081E93459F0E23519F0E43451F439
:1006800003C0CE018DDF08C0CE0178DF05C0CE01EA
:10069000E2DE02C0CE0160DFDF91CF910895BF920C
:1006A000CF92DF92EF92FF920F931F93CF93DF933E
:1006B000EC018C01025C1F4F45E4E42EF12CE80EA6
:1006C000F91E34E4C32ED12CC80ED91EBB24B3941A
:1006D00010C088E495E00E94A80F682FF70180837E
:1006E000C8010E948D12F70180818A3011F4F60151
:1006F000B08288E495E00E94760F181619064CF334
:100700006AEF70E080E090E0D1D524E4E22EF12C95
:10071000EC0EFD1EF7018081882391F0C80160E096
:1007200070E00E940712FC018081843249F4CE01FE
:1007300097DFC80160E072E00E942E13F70110827B
:1007400087E062E370E06DD668E873E180E090E0F6
:10075000ADD587E060E070E064D668E873E180E0E2
:1007600090E0A4D5DF91CF911F910F91FF90EF9072
:10077000DF90CF90BF9008950F931F938C0188E274
:1007800060E02DD787E061E02AD78EE161E027D7CE
:10079000C801CB9669E070E0C4D1C801C8966AE090
:1007A00070E0BFD18DE061E01AD70B5B1F4FF801FD
:1007B000108205541040C801CE9660E072E00E949D
:1007C0002E130C5B1F4FF801108288E495E040E087
:1007D00052EC61E070E00E94F00E1F910F910895BD
:1007E000CF93DF93EC0188E2DFD7019741F48C814E
:1007F0009D81AE81BF810196A11DB11D07C08C8175
:100800009D81AE81BF810197A109B1098C839D8330
:10081000AE83BF83DF91CF9108950F931F938C0117
:10082000FC01848161E020E432E44FE050E0EBD74A
:10083000DC01CB01F801628173810E941316CB01A8
:10084000608391831F910F910895FC0180917A023A
:10085000803390F480838F5F80937A02815090E0A0
:10086000FC01EE0FFF1FE80FF91FE558FD4F88EB65
:100870009BE09283818308958FEF80830895FC012C
:1008800020812033B8F58181992787FD909548E82C
:1008900050E0481B590B440F551F440F551F641758
:1008A000750784F08281992787FD909548E552E08D
:1008B000481B590B440F551F440F551F64177507EC
:1008C0000CF4AB0142505040CA01AA2797FDA095F5
:1008D000BA2F880F991FAA1FBB1F4FB7F89430E09B
:1008E000F901EE0FFF1FE20FF31FE558FD4F928352
:1008F00081834FBF0895AF92BF92CF92DF92EF9264
:10090000FF920F931F93CF93DF93EC019B0182E043
:10091000603278070CF048C077FF03C020E030E079
:1009200005C0653B710514F024EB30E000D00F9258
:10093000B901882777FD8095982F2981332727FDD6
:100940003095E8E8AE2EB12CA21AB30AAA0CBB1C53
:10095000AA0CBB1CCC24B7FCC094DC2CEA81FF277A
:10096000E7FDF09528E532E02E1B3F0B220F331FE9
:10097000220F331F442737FD4095542FEDB7FEB7A4
:10098000218332834383548320E030E040E050E011
:1009900004EBE02EF12C012D112D0E94C0119B01C2
:1009A0000F900F900F900F90CE01B90168DFDF918B
:1009B000CF911F910F91FF90EF90DF90CF90BF905C
:1009C000AF900895CF92DF92EF92FF921F93CF9353
:1009D000DF93EC01162F7A0169018881803308F0DA
:1009E00092C0862F61E0FBD5888190E0FC01EE0F7C
:1009F000FF1FE80FF91FE558FD4F1F738081807CB2
:100A0000812B808380E292E08E199F0964E070E080
:100A10000E941316698380E699E08C199D0964E0B1
:100A200070E00E9413166A83A8818A2F6CE00E94EE
:100A30000716682F70E0AB01440F551F460F571F74
:100A4000440F551F440F551F20E030E0C901840FAB
:100A5000951FFC01EE0FFF1FE80FF91FE558FD4F32
:100A6000808186FD44C02F5F3F4F2C30310571F7E8
:100A700053C01092800082E0809381001092850024
:100A800010928400B19A80916F00826080936F0011
:100A90002EC06230710569F41092900082E080935C
:100AA0009100109295001092940088BB8093710081
:100AB0001EC06330710569F41092A00082E080933B
:100AC000A1001092A5001092A40089BB809372002F
:100AD0000EC0672B61F41092200182E08093210107
:100AE00010922501109224018ABB809373008A2FF3
:100AF00090E0FC01EE0FFF1FE80FF91FE558FD4FD6
:100B00008081806480838881DF91CF911F91FF90E5
:100B1000EF90DF90CF9008956130710509F0B9CF63
:100B2000A8CF40E252E020E639E04CCFEF92FF92AE
:100B30000F931F93CF93DF938B017A01EC01DC01BC
:100B4000A55FBC4F8C9187FF04C0FB01118210820E
:100B500036C0AE01440F551F4C0F5D1F440F551F8B
:100B6000440F551F2C91332727FD3095240F351F37
:100B700080917A0290E0281739070CF58C9199271B
:100B800087FD9095840F951FFC01EE0FFF1FE80F66
:100B9000F91FE558FD4F808186FF11C08C91992780
:100BA00087FD9095840F951FFC01EE0FFF1FE80F46
:100BB000F91FE558FD4F80818F7360E0C3D5DE01DA
:100BC000A55FBC4F8C918F5F8C93AE01440F551F76
:100BD0004C0F5D1F440F551F440F551F2C91332799
:100BE00027FD3095240F351F80917A0290E0281759
:100BF00039070CF04CC08C918C300CF048C0F801D7
:100C0000208131818C91992787FD9095840F951FC4
:100C1000FC01EE0FFF1FE80FF91FE558FD4F818122
:100C20009281280F391FF701318320838C919927F6
:100C300087FD9095840F951FFC01EE0FFF1FE80FB5
:100C4000F91FE558FD4F808186FF29C08C919927B7
:100C500087FD9095840F951FFC01EE0FFF1FE80F95
:100C6000F91FE558FD4F80818F7361E06BD517C088
:100C700080E49CE904C0F801808191810496F70129
:100C800091838083C55FDC4F8FEF888308C0F801B4
:100C900080819181049680549C4950F3ECCFDF9180
:100CA000CF911F910F91FF90EF9008951F920F9297
:100CB0000FB60F920BB60F9211242F933F934F93C1
:100CC0005F936F937F938F939F93AF93BF93EF93B4
:100CD000FF9380E090E064E271E048E251E026DFBB
:100CE000FF91EF91BF91AF919F918F917F916F9104
:100CF0005F914F913F912F910F900BBE0F900FBEC0
:100D00000F901F9018951F920F920FB60F920BB66F
:100D10000F9211242F933F934F935F936F937F9381
:100D20008F939F93AF93BF93EF93FF9383E090E0F4
:100D300064EA70E048EA50E0F9DEFF91EF91BF917C
:100D4000AF919F918F917F916F915F914F913F9163
:100D50002F910F900BBE0F900FBE0F901F90189504
:100D60001F920F920FB60F920BB60F9211242F9372
:100D70003F934F935F936F937F938F939F93AF9323
:100D8000BF93EF93FF9382E090E064E970E048E95D
:100D900050E0CCDEFF91EF91BF91AF919F918F9189
:100DA0007F916F915F914F913F912F910F900BBE6B
:100DB0000F900FBE0F901F9018951F920F920FB6B5
:100DC0000F920BB60F9211242F933F934F935F9383
:100DD0006F937F938F939F93AF93BF93EF93FF9303
:100DE00081E090E064E870E048E850E09FDEFF9129
:100DF000EF91BF91AF919F918F917F916F915F9193
:100E00004F913F912F910F900BBE0F900FBE0F90FF
:100E10001F901895883008F078C0E82FF0E0EE0FAA
:100E2000FF1FE15FFC4F718360838330D9F0843012
:100E300030F4813009F444C0823060F439C0853028
:100E400051F18530D8F0863009F446C0873009F07A
:100E50005CC04FC0809169008C7F842B80936900B7
:100E6000E89A089580916900440F551F440F551F5B
:100E7000837F842B80936900E99A089580916900AB
:100E800074E0440F551F7A95E1F78F7C842B809393
:100E90006900EA9A08958091690066E0440F551F41
:100EA0006A95E1F78F73842B80936900EB9A08951C
:100EB00080916A008C7F842B80936A00EC9A08955D
:100EC00080916A00440F551F440F551F837F842B68
:100ED00080936A00ED9A089580916A0024E0440F9F
:100EE000551F2A95E1F78F7C842B80936A00EE9A38
:100EF000089580916A0096E0440F551F9A95E1F796
:100F00008F73842B80936A00EF9A08951F920F923B
:100F10000FB60F920BB60F9211242F933F934F935E
:100F20005F936F937F938F939F93AF93BF93EF9351
:100F3000FF938091130390911403892B29F0E09182
:100F40001303F09114031995FF91EF91BF91AF91A5
:100F50009F918F917F916F915F914F913F912F91D1
:100F60000F900BBE0F900FBE0F901F9018951F9201
:100F70000F920FB60F920BB60F9211242F933F933F
:100F80004F935F936F937F938F939F93AF93BF9391
:100F9000EF93FF938091150390911603892B29F00D
:100FA000E0911503F09116031995FF91EF91BF9110
:100FB000AF919F918F917F916F915F914F913F91F1
:100FC0002F910F900BBE0F900FBE0F901F90189592
:100FD0001F920F920FB60F920BB60F9211242F9300
:100FE0003F934F935F936F937F938F939F93AF93B1
:100FF000BF93EF93FF938091170390911803892B70
:1010000029F0E0911703F09118031995FF91EF91E2
:10101000BF91AF919F918F917F916F915F914F9110
:101020003F912F910F900BBE0F900FBE0F901F900E
:1010300018951F920F920FB60F920BB60F921124B4
:101040002F933F934F935F936F937F938F939F93D0
:10105000AF93BF93EF93FF938091190390911A037D
:10106000892B29F0E0911903F0911A031995FF914A
:10107000EF91BF91AF919F918F917F916F915F9110
:101080004F913F912F910F900BBE0F900FBE0F907D
:101090001F9018951F920F920FB60F920BB60F92DA
:1010A00011242F933F934F935F936F937F938F936D
:1010B0009F93AF93BF93EF93FF9380910F03909112
:1010C0001003892B29F0E0910F03F091100319957B
:1010D000FF91EF91BF91AF919F918F917F916F9110
:1010E0005F914F913F912F910F900BBE0F900FBECC
:1010F0000F901F9018951F920F920FB60F920BB67C
:101100000F9211242F933F934F935F936F937F938D
:101110008F939F93AF93BF93EF93FF9380911103AE
:1011200090911203892B29F0E0911103F0911203A1
:101130001995FF91EF91BF91AF919F918F917F9101
:101140006F915F914F913F912F910F900BBE0F9038
:101150000FBE0F901F9018951F920F920FB60F920F
:101160000BB60F9211242F933F934F935F936F937E
:101170007F938F939F93AF93BF93EF93FF93809150
:101180001B0390911C03892B29F0E0911B03F09124
:101190001C031995FF91EF91BF91AF919F918F9192
:1011A0007F916F915F914F913F912F910F900BBE67
:1011B0000F900FBE0F901F9018951F920F920FB6B1
:1011C0000F920BB60F9211242F933F934F935F937F
:1011D0006F937F938F939F93AF93BF93EF93FF93FF
:1011E00080911D0390911E03892B29F0E0911D032E
:1011F000F0911E031995FF91EF91BF91AF919F91CF
:101200008F917F916F915F914F913F912F910F90AF
:101210000BBE0F900FBE0F901F9018951F920F924C
:101220000FB60F9211242F933F938F939F93AF93F9
:10123000BF938091230390912403A0912503B09143
:101240002603309127030196A11DB11D232F2D5F89
:101250002D3720F02D570196A11DB11D2093270396
:101260008093230390932403A0932503B093260334
:1012700080911F0390912003A0912103B09122033C
:101280000196A11DB11D80931F0390932003A0938D
:101290002103B0932203BF91AF919F918F913F9112
:1012A0002F910F900FBE0F901F9018959B01AC01CE
:1012B0007FB7F89480911F0390912003A0912103A0
:1012C000B091220366B5A89B05C06F3F19F0019647
:1012D000A11DB11D7FBFBA2FA92F982F8827860F78
:1012E000911DA11DB11D62E0880F991FAA1FBB1F90
:1012F0006A95D1F7BC012DC0FFB7F89480911F0308
:1013000090912003A0912103B0912203E6B5A89B00
:1013100005C0EF3F19F00196A11DB11DFFBFBA2F07
:10132000A92F982F88278E0F911DA11DB11DE2E0D6
:10133000880F991FAA1FBB1FEA95D1F7861B970B31
:10134000885E9340C8F22150304040405040685180
:101350007C4F211531054105510571F608957894AA
:1013600084B5826084BD84B5816084BD85B58260AA
:1013700085BD85B5816085BDEEE6F0E08081816048
:101380008083E1E8F0E01082808182608083808148
:1013900081608083E0E8F0E0808181608083E1EB20
:1013A000F0E0808184608083E0EBF0E08081816008
:1013B0008083E1E9F0E080818260808380818160C8
:1013C0008083E0E9F0E0808181608083E1EAF0E001
:1013D000808182608083808181608083E0EAF0E0A8
:1013E000808181608083E1E2F1E08081826080839E
:1013F000808181608083E0E2F1E080818160808390
:10140000EAE7F0E08081846080838081826080836D
:101410008081816080838081806880831092C10098
:1014200008951F93CF93DF93182FEB0161E0D7D07E
:10143000209709F4CAC0CF3FD10509F4C9C0E12FF4
:10144000F0E0E254FE4F8491893009F466C08A309E
:10145000B0F48430F1F1853040F4823059F18330BA
:1014600070F5813009F0AEC020C0873009F443C068
:10147000883008F048C0863009F0A4C034C08D30F0
:1014800009F478C08E3038F48B3009F45AC08C30AF
:1014900008F066C04CC0803109F480C0813109F485
:1014A00087C08F3009F08EC06FC084B5806884BD5E
:1014B000C7BD91C084B5806284BDC8BD8CC0809119
:1014C0008000806880938000D0938900C09388005A
:1014D00082C080918000806280938000D0938B00D6
:1014E000C0938A0078C08091B00080688093B0007B
:1014F000C093B30070C08091B00080628093B00050
:10150000C093B40068C08091900080688093900080
:10151000D0939900C09398005EC080919000806243
:1015200080939000D0939B00C0939A0054C0809108
:101530009000886080939000D0939D00C0939C00A1
:101540004AC08091A00080688093A0008091A00094
:101550008F7B8093A000D093A900C093A8003BC0CC
:101560008091A00080628093A000D093AB00C093D4
:10157000AA0031C08091A00088608093A000D09321
:10158000AD00C093AC0027C080912001806880939B
:101590002001D0932901C09328011DC08091200112
:1015A000806280932001D0932B01C0932A0113C045
:1015B00080912001886080932001D0932D01C093F9
:1015C0002C0109C0C038D1051CF4812F60E002C095
:1015D000812F61E0B7D0DF91CF911F910895CF9314
:1015E000DF93482F50E0CA0188589E4FFC01349188
:1015F0004E5C5E4FFA018491882369F190E0880F78
:10160000991FFC01EC51FF4FA591B491FC01E250F0
:10161000FF4FC591D491662351F42FB7F8948C9164
:10162000932F909589238C93888189230BC06230F6
:1016300061F42FB7F8948C91932F909589238C9314
:101640008881832B88832FBF06C09FB7F8948C9125
:10165000832B8C939FBFDF91CF910895893009F43C
:1016600049C08A30A0F4843051F1853040F4823092
:1016700079F1833000F5813009F063C026C08730EE
:1016800079F1883098F5863009F05BC025C08D303F
:1016900009F442C08E3028F48B30B1F18C30C0F5A3
:1016A0002DC0803109F442C0813109F445C08F302A
:1016B00009F047C037C0809180008F7703C08091C8
:1016C00080008F7D80938000089584B58F7702C05D
:1016D00084B58F7D84BD08958091B0008F7703C05D
:1016E0008091B0008F7D8093B0000895809190002C
:1016F0008F7707C0809190008F7D03C0809190000C
:10170000877F8093900008958091A0008F7707C015
:101710008091A0008F7D03C08091A000877F80937F
:10172000A0000895809120018F7703C0809120014F
:101730008F7D80932001089580912001877F809381
:1017400020010895FF920F931F93F62E482F50E02B
:10175000CA0182549E4FFC012491CA0188589E4FB1
:10176000FC0114914E5C5E4FFA0104910023C1F01C
:10177000222311F0822F72DFE02FF0E0EE0FFF1F27
:10178000E250FF4FA591B4919FB7F894FF2021F448
:101790008C911095812302C08C91812B8C939FBFDB
:1017A0001F910F91FF9008950F931F93482F50E0C2
:1017B000CA0182549E4FFC012491CA0188589E4F51
:1017C000FC0104914E5C5E4FFA011491112319F44F
:1017D00020E030E014C0222311F0822F3FDF812F60
:1017E00090E0880F991F885E9E4FFC01A591B491EF
:1017F0008C9120E030E0802311F021E030E0C9013D
:101800001F910F9108958F929F92AF92BF92CF92A6
:10181000DF92EF92FF920F931F93CF93DF93A82F46
:10182000B0E0CD0188589E4FFC018490AE5CBE4F65
:10183000FD018491662311F4992401C0982C6FEF67
:10184000A62E6FEFB62E6FEFC62E6FE0D62EA22219
:10185000B322C422D522682F70E0660F771F685E1E
:101860007E4FEE24FF248701FB01A591B4910BC0AC
:10187000EA14FB040C051D0509F44EC00894E11C94
:10188000F11C011D111D8C918821891589F30CC053
:10189000EA14FB040C051D0509F43EC00894E11C84
:1018A000F11C011D111D03C0FB01A591B4918C9188
:1018B0008821891569F720E030E040E050E0FB0125
:1018C000C591D4910FC0DA01C9018E0D9F1DA01FD3
:1018D000B11F8A159B05AC05BD05F1F02F5F3F4F89
:1018E0004F4F5F4F88818821891569F3CA01B9017B
:1018F00025E130E040E050E00E94E8159B01AC019A
:10190000205F3F4F4F4F5F4F84E056954795379587
:1019100027958A95D1F704C020E030E040E050E000
:10192000B901CA01DF91CF911F910F91FF90EF9004
:10193000DF90CF90BF90AF909F908F9008950895C3
:101940001F920F920FB60F920BB60F9211242F9386
:101950003F934F938F939F93EF93FF938091C0009A
:1019600082FD1DC04091C60020916803309169033B
:101970002F5F3F4F2F73307080916A0390916B03FC
:101980002817390771F0E0916803F0916903E85D69
:10199000FC4F4083309369032093680302C0809119
:1019A000C600FF91EF919F918F914F913F912F91A1
:1019B0000F900BBE0F900FBE0F901F9018950895BB
:1019C0001F920F920FB60F920BB60F9211242F9306
:1019D0003F934F938F939F93EF93FF938091C80012
:1019E00082FD1DC04091CE002091F0033091F103A3
:1019F0002F5F3F4F2F7330708091F2039091F3036C
:101A00002817390771F0E091F003F091F103E055E8
:101A1000FC4F40833093F1032093F00302C0809188
:101A2000CE00FF91EF919F918F914F913F912F9118
:101A30000F900BBE0F900FBE0F901F90189508953A
:101A40001F920F920FB60F920BB60F9211242F9385
:101A50003F934F938F939F93EF93FF938091D00089
:101A600082FD1DC04091D600209178043091790408
:101A70002F5F3F4F2F73307080917A0490917B04D9
:101A80002817390771F0E0917804F0917904E85C47
:101A9000FB4F4083309379042093780402C08091F7
:101AA000D600FF91EF919F918F914F913F912F9190
:101AB0000F900BBE0F900FBE0F901F9018950895BA
:101AC0001F920F920FB60F920BB60F9211242F9305
:101AD0003F934F938F939F93EF93FF9380913001A8
:101AE00082FD1DC040913601209100053091010515
:101AF0002F5F3F4F2F733070809102059091030547
:101B00002817390771F0E0910005F0910105E054C4
:101B1000FB4F4083309301052093000502C0809164
:101B20003601FF91EF919F918F914F913F912F91AE
:101B30000F900BBE0F900FBE0F901F901895E09165
:101B40005405F0915505E05CFF4F81919191208102
:101B50003181805C9F4F821B930B60E470E00E9498
:101B60001316892B09F0EBDEE0917605F0917705ED
:101B7000E05CFF4F8191919120813181805C9F4F8A
:101B8000821B930B60E470E00E941316892B09F00E
:101B900016DFE0919805F0919905E05CFF4F819187
:101BA000919120813181805C9F4F821B930B60E477
:101BB00070E00E941316892B09F041DFE091BA050D
:101BC000F091BB05E05CFF4F8191919120813181C3
:101BD000805C9F4F821B930B60E470E00E941316A1
:101BE000892B09F06CCF08951F920F920FB60F92B8
:101BF0000BB60F9211242F933F938F939F93EF93E4
:101C0000FF932091AC033091AD038091AE0390918E
:101C1000AF032817390731F48091C1008F7D80937D
:101C2000C10014C0E091AE03F091AF03E459FC4F42
:101C300020818091AE039091AF0301968F739070D5
:101C40009093AF038093AE032093C600FF91EF9172
:101C50009F918F913F912F910F900BBE0F900FBED0
:101C60000F901F9018951F920F920FB60F920BB600
:101C70000F9211242F933F938F939F93EF93FF9392
:101C800020913404309135048091360490913704CA
:101C90002817390731F48091C9008F7D8093C900DE
:101CA00014C0E0913604F0913704EC50FC4F2081D1
:101CB000809136049091370401968F7390709093C1
:101CC0003704809336042093CE00FF91EF919F91CB
:101CD0008F913F912F910F900BBE0F900FBE0F90E1
:101CE0001F9018951F920F920FB60F920BB60F927E
:101CF00011242F933F938F939F93EF93FF93209102
:101D0000BC043091BD048091BE049091BF0428179B
:101D1000390731F48091D1008F7D8093D10014C0B8
:101D2000E091BE04F091BF04E458FB4F2081809104
:101D3000BE049091BF0401968F7390709093BF047E
:101D40008093BE042093D600FF91EF919F918F91D5
:101D50003F912F910F900BBE0F900FBE0F901F90D1
:101D600018951F920F920FB60F920BB60F92112477
:101D70002F933F938F939F93EF93FF93209144056D
:101D80003091450580914605909147052817390700
:101D900031F4809131018F7D8093310114C0E09145
:101DA0004605F0914705EC5FFA4F2081809146058A
:101DB0009091470501968F7390709093470580939B
:101DC000460520933601FF91EF919F918F913F91AE
:101DD0002F910F900BBE0F900FBE0F901F90189574
:101DE000AF92BF92DF92EF92FF920F931F93CF9328
:101DF000DF93EC017A018B01DD24403081EE58073E
:101E000080E0680780E0780711F0DD24D39491E04A
:101E1000A92EB12CEC89FD89DD2069F0C50108A04F
:101E200002C0880F991F0A94E2F7808360E079E08E
:101E30008DE390E005C0108260E874E88EE190E0E8
:101E4000A801970103D7215030404040504056959B
:101E500047953795279580E12030380720F0DD2021
:101E600011F0DD24D7CFE889F9893083EA89FB892D
:101E7000208319A2EE89FF89408121E030E0C90169
:101E80000C8C02C0880F991F0A94E2F7482B4083FC
:101E9000EE89FF894081C9010D8C02C0880F991F0E
:101EA0000A94E2F7482B4083EE89FF894081C901FB
:101EB0000E8C02C0880F991F0A94E2F7482B4083CA
:101EC000EE89FF8980810F8C02C0220F331F0A9494
:101ED000E2F7209528232083DF91CF911F910F9166
:101EE000FF90EF90DF90BF90AF900895DC011C96BB
:101EF000ED91FC911D97E05CFF4F819191912081C4
:101F00003181805C9F4F821B930B60E470E08BC635
:101F1000DC011C96ED91FC911D97E05CFF4F208148
:101F20003181E054F040DF01AE5BBF4F8D919C9159
:101F300011972817390719F42FEF3FEF07C08D913C
:101F40009C91E80FF91F8081282F30E0C901089586
:101F5000DC011C96ED91FC911D97E05CFF4F208108
:101F60003181E054F040DF01AE5BBF4F8D919C9119
:101F700011972817390719F42FEF3FEF10C08D91F3
:101F80009C911197E80FF91F20818D919C911197D9
:101F900001968F73907011969C938E9330E0C901D7
:101FA0000895DC0191968C919197882339F054968D
:101FB000ED91FC915597808186FFF9CF91961C9207
:101FC0000895CF93DF93EC01EE85FF85E05CFF4F32
:101FD00020813181E054F0402F5F3F4F2F733070EC
:101FE000DF01AE5BBF4F8D919C9111972817390788
:101FF000D1F3E05CFF4F80819181E054F040E80F25
:10200000F91F6083EE85FF85E05CFF4F31832083FD
:10201000EE89FF89208181E090E00F8C02C0880F5B
:10202000991F0A94E2F7282B208381E089A3EC8989
:10203000FD8980818064808381E090E0DF91CF9191
:1020400008951F9310924B0510924A0528EE33E035
:1020500040E050E020934C0530934D0540934E05F1
:1020600050934F0561E272E0709349056093480513
:1020700088E293E090935505809354058CE693E0B5
:10208000909357058093560585EC90E09093590501
:102090008093580584EC90E090935B0580935A05FB
:1020A00080EC90E090935D0580935C0581EC90E07E
:1020B00090935F0580935E0582EC90E090936105BC
:1020C0008093600586EC90E09093630580936205B1
:1020D00014E010936405B3E0B0936505A7E0A09306
:1020E0006605F5E0F0936705E1E0E093680510927E
:1020F0006D0510926C0520936E0530936F0540932B
:1021000070055093710570936B0560936A0580EBC1
:1021100093E0909377058093760584EF93E0909316
:102120007905809378058DEC90E090937B05809302
:102130007A058CEC90E090937D0580937C0588EC8B
:1021400090E090937F0580937E0589EC90E09093DA
:102150008105809380058AEC90E0909383058093BD
:1021600082058EEC90E09093850580938405109312
:102170008605B0938705A0938805F0938905E093C1
:102180008A0510928F0510928E052093900530934A
:102190009105409392055093930570938D0560933C
:1021A0008C0588E394E090939905809398058CE7DB
:1021B00094E090939B0580939A0585ED90E0909331
:1021C0009D0580939C0584ED90E090939F058093FE
:1021D0009E0580ED90E09093A1058093A00581ED90
:1021E00090E09093A3058093A20582ED90E09093F8
:1021F000A5058093A40586ED90E09093A7058093B4
:10220000A6051093A805B093A905A093AA05F0937D
:10221000AB05E093AC051092B1051092B005209388
:10222000B2053093B3054093B4055093B505709350
:10223000AF056093AE0580EC94E09093BB0580936E
:10224000BA0584E095E09093BD058093BC0585E3D5
:1022500091E09093BF058093BE0584E391E0909355
:10226000C1058093C00580E391E09093C3058093FE
:10227000C20581E391E09093C5058093C40582E394
:1022800091E09093C7058093C60586E391E0909313
:10229000C9058093C8051093CA05B093CB05A093D8
:1022A000CC05F093CD05E093CE051F9108950895D8
:1022B000CF93DF9354D8FBDF0E94B401CFE9DDE078
:1022C0000E94B1012097E1F33ADCFACFCF92DF927E
:1022D000EF92FF920F931F93CF93DF937C016B01DB
:1022E0008A01C0E0D0E00FC0D6016D916D01D70129
:1022F000ED91FC910190F081E02DC7011995C80F77
:10230000D91F015010400115110571F7CE01DF9161
:10231000CF911F910F91FF90EF90DF90CF90089594
:10232000CF93DF93FB01EC01A881B98160817181BA
:10233000448155811296ED91FC9113971995DF9187
:10234000CF910895CF93DF93EC016115710519F4D6
:1023500020E030E00FC0DB010D900020E9F711977D
:10236000A61BB70BE881F9810280F381E02DAD0156
:1023700019959C01C901DF91CF910895E3CF08958C
:102380002F923F924F925F926F927F928F929F9285
:10239000AF92BF92CF92DF92EF92FF920F931F9373
:1023A000DF93CF93CDB7DEB73B014C0119012A0172
:1023B0006E897F89888D998D6A197B098C099D09A1
:1023C000621A730A840A950AA401930101D4E218DF
:1023D000F30804091509A80197015AD42A0D3B1DD9
:1023E0004C1D5D1DB901CA01CF91DF911F910F9165
:1023F000FF90EF90DF90CF90BF90AF909F908F9025
:102400007F906F905F904F903F902F900895FC01C8
:102410009B01848195816817790728F46081718117
:102420006115710529F41092D00560ED75E002C0C8
:10243000620F731FCB010895FC0180819181009789
:1024400029F420E030E040E050E004C00E94330175
:102450009B01AC01B901CA0108950F931F93CF935B
:10246000DF93EC018B016F5F7F4F88819981D3D21D
:10247000009711F480E005C0998388831B830A8349
:1024800081E0DF91CF911F910F910895CF93DF935A
:10249000EC0188819981892B29F08A819B8186179B
:1024A000970758F4CE01D9DF882341F08C819D81B4
:1024B000892B19F4E881F981108281E0DF91CF91B5
:1024C0000895EF92FF920F931F93CF93DF93EC0148
:1024D0007B016C817D81E114F104B9F04115510556
:1024E00091F08A01060F171FB801D0DF882369F029
:1024F000888199812C813D81820F931FB7010E94B1
:1025000062011D830C8381E001C080E0DF91CF91E7
:102510001F910F91FF90EF900895DF93CF930F924B
:102520000F92CDB7DEB769831A82BE016F5F7F4F0E
:1025300041E050E0C6DF0F900F90CF91DF910895FA
:10254000CF93DF93EC0188819981009709F0CBD17B
:10255000198218821D821C821B821A82DF91CF9100
:1025600008950F931F93182F092F6115710559F0C6
:10257000DB010D900020E9F71197A61BB70BAD0109
:10258000A0DF882319F4812F902FDADF812F902F7D
:102590001F910F9108950F931F93182F092FFB017F
:1025A00060817181448155818CDF882319F4812FEA
:1025B000902FC6DF812F902F1F910F910895EF92DA
:1025C000FF920F931F93CF93DF93EC017B018A015E
:1025D000BA015CDF882319F4CE01B2DF07C01D8386
:1025E0000C8388819981B7010E946201CE01DF913D
:1025F000CF911F910F91FF90EF900895CF93DF93AC
:10260000EC01198218821B821A821D821C826115BC
:10261000710549F0DB010D900020E9F71197A61B29
:10262000B70BAD01CCDFDF91CF910895CF93DF934E
:10263000EC01198218821B821A821D821C8261158C
:10264000710549F0DB010D900020E9F71197A61BF9
:10265000B70BAD01B4DFDF91CF9108950F931F93B6
:10266000182F092F6115710551F0DB010D90002025
:10267000E9F71197A61BB70BAD01A1DF01C060DF21
:10268000812F902F1F910F910895EF92FF920F933A
:102690001F93DF93CF93CDB7DEB762970FB6F89451
:1026A000DEBF0FBECDBF8C01CB01F80111821082BD
:1026B00013821282158214827E010894E11CF11C9F
:1026C000B70150E00E946901C801B701C7DF6296F7
:1026D0000FB6F894DEBF0FBECDBFCF91DF911F9133
:1026E0000F91FF90EF900895BF92CF92DF92EF92FB
:1026F000FF920F931F93CF93DF93082FB92E6B0197
:102700007A01E9012417350710F4EA017901802FD5
:102710009B2D66E172E072DFD60114968D919C913B
:1027200015978E159F05C8F08C179D0708F4EC01CE
:10273000D601ED91FC911197EC0FFD1F10811082D5
:102740006D917C916E0D7F1D802F9B2D87DFD601B3
:10275000ED91FC91EC0FFD1F1083802F9B2DDF91DD
:10276000CF911F910F91FF90EF90DF90CF90BF908E
:102770000895CF93DF93EC01FB018617970751F083
:10278000608171816115710521F04481558117DFE8
:1027900001C0D6DECE01DF91CF910895FC0180818A
:1027A0009181A1C0FC01808191819DC00F931F93F5
:1027B000CF93DF93BC018230910510F462E070E0AA
:1027C000E091D305F091D40540E050E0A0E0B0E006
:1027D00024C08081918186179707D0F086179707CC
:1027E00071F482819381109729F013969C938E93B4
:1027F00012972CC09093D4058093D30527C0411520
:10280000510519F08417950718F48D01AC01EF01FB
:10281000DF01828193819C01F9013097D1F6411546
:102820005105F9F0CA01861B970B8430910580F49D
:102830008A819B810115110521F0F8019383828320
:1028400004C09093D4058093D305FE01329645C011
:10285000FE01E80FF91F61937193029799838883B2
:102860003CC08091D1059091D205892B41F4809193
:10287000190290911A029093D2058093D10540914C
:102880001B0250911C024115510541F44DB75EB732
:102890008091170290911802481B590B2091D10585
:1028A0003091D20524173507B0F4CA01821B930B6F
:1028B0008617970780F0AB014E5F5F4F841795072F
:1028C00050F0420F531F5093D2054093D105F901A8
:1028D0006193719302C0E0E0F0E0CF01DF91CF910E
:1028E0001F910F910895CF93DF939C01009709F4F6
:1028F0008FC0EC0122971B821A826091D3057091E0
:10290000D4056115710581F488819981820F931F27
:102910002091D1053091D2052817390739F5D09388
:10292000D205C093D10574C0DB0140E050E0AC1784
:10293000BD0708F1BB83AA83FE0121913191E20F0B
:10294000F31FAE17BF0779F48D919C911197280F53
:10295000391F2E5F3F4F3983288312968D919C91AA
:1029600013979B838A834115510571F4D093D40545
:10297000C093D3054DC012968D919C911397AD01D4
:10298000009711F0DC01D3CFDA011396DC93CE93DC
:102990001297FA0121913191E20FF31FCE17DF0751
:1029A00069F488819981280F391F2E5F3F4FFA0102
:1029B000318320838A819B8193838283E0E0F0E0EE
:1029C000DB0112968D919C911397009719F0BC0131
:1029D000FD01F6CFAB014E5F5F4FDB018D919C9106
:1029E000840F951F2091D1053091D2052817390702
:1029F00079F4309729F41092D4051092D30502C0CF
:102A000013821282425050405093D2054093D10518
:102A1000DF91CF9108956F927F928F929F92AF92A4
:102A2000BF92CF92DF92EF92FF920F931F93CF93BB
:102A3000DF938C01009721F4CB01B8DE8C01B8C084
:102A40008EEFE82E8FEFF82EE00EF11E4801860E75
:102A5000971E8E149F0408F4A9C0D7014D915C9174
:102A6000119746175707B0F04530510508F4A0C03C
:102A7000CA0104978617970708F49AC0425050403D
:102A8000461B570BF401419351936D937C93CF01F7
:102A90002ADF8EC05B01A41AB50A3801640E751EC8
:102AA000A091D305B091D405E0E0F0E0CC24DD2482
:102AB00047C0A615B705A9F5CD91DC911197CE01B8
:102AC00002968A159B0568F1CE018A199B09029628
:102AD00012962C91129713963C91059758F0F40199
:102AE00022833383CA19DB09D183C083D7016D9355
:102AF0007C9309C04E5F5F4F4C0F5D1FF701518300
:102B00004083C901FC01C114D10431F0D6011396F0
:102B1000FC93EE9312974CC0F093D405E093D30549
:102B200047C08D919C911197E817F90708F4FC01B3
:102B30006D0112968C91129713969C919C01D9016C
:102B4000109709F0B6CF8091D1059091D2058615E6
:102B50009705E9F4E617F707D0F420911B023091AE
:102B60001C022115310541F42DB73EB780911702A3
:102B700090911802281B390B82169306B8F4909294
:102B8000D2058092D105F7017183608311C0CB011A
:102B90000DDEEC01009751F0D7014D915C91B80129
:102BA0000E945901C8019FDE8E0102C000E010E0C2
:102BB000C801DF91CF911F910F91FF90EF90DF90AF
:102BC000CF90BF90AF909F908F907F906F9008951F
:102BD000629FD001739FF001829FE00DF11D649F01
:102BE000E00DF11D929FF00D839FF00D749FF00D8D
:102BF000659FF00D9927729FB00DE11DF91F639F2E
:102C0000B00DE11DF91FBD01CF0111240895991BDD
:102C100079E004C0991F961708F0961B881F7A95D3
:102C2000C9F78095089597FB092E07260AD077FDEE
:102C300004D049D006D000201AF4709561957F4FDA
:102C40000895F6F7909581959F4F0895A1E21A2E69
:102C5000AA1BBB1BFD010DC0AA1FBB1FEE1FFF1F40
:102C6000A217B307E407F50720F0A21BB30BE40B90
:102C7000F50B661F771F881F991F1A9469F76095D7
:102C80007095809590959B01AC01BD01CF01089591
:102C900097FB092E05260ED057FD04D0D7DF0AD0AA
:102CA000001C38F450954095309521953F4F4F4F7B
:102CB0005F4F0895F6F790958095709561957F4FD9
:102CC0008F4F9F4F0895AA1BBB1B51E107C0AA1F3E
:102CD000BB1FA617B70710F0A61BB70B881F991FBD
:102CE0005A95A9F780959095BC01CD010895EE0FF6
:102CF000FF1F0590F491E02D199412E0C8E0D2E096
:102D000003C0FE01F6DF2296CA30D107D1F7F8944E
:022D1000FFCFF3
:102D1200002449500A002453500A002444500A0057
:102D2200245250000A00008000D505000000000077
:0E2D320000E10F6611760FA80F880FD10F0079
:00000001FF
